{
  "_format": "hh-sol-artifact-1",
  "contractName": "ECMart",
  "sourceName": "contracts/ECMart.sol",
  "abi": [
    {
      "inputs": [
        {
          "internalType": "string",
          "name": "_name",
          "type": "string"
        },
        {
          "internalType": "uint256",
          "name": "_price",
          "type": "uint256"
        },
        {
          "internalType": "string",
          "name": "_description",
          "type": "string"
        },
        {
          "internalType": "uint256",
          "name": "_quantity",
          "type": "uint256"
        }
      ],
      "name": "addProduct",
      "outputs": [],
      "stateMutability": "nonpayable",
      "type": "function"
    },
    {
      "inputs": [
        {
          "internalType": "address",
          "name": "",
          "type": "address"
        }
      ],
      "name": "buyers",
      "outputs": [
        {
          "internalType": "uint256",
          "name": "",
          "type": "uint256"
        }
      ],
      "stateMutability": "view",
      "type": "function"
    },
    {
      "inputs": [
        {
          "internalType": "address",
          "name": "",
          "type": "address"
        }
      ],
      "name": "deliveryMen",
      "outputs": [
        {
          "internalType": "uint256",
          "name": "",
          "type": "uint256"
        }
      ],
      "stateMutability": "view",
      "type": "function"
    },
    {
      "inputs": [
        {
          "internalType": "address",
          "name": "",
          "type": "address"
        }
      ],
      "name": "orders",
      "outputs": [
        {
          "internalType": "contract Order",
          "name": "",
          "type": "address"
        }
      ],
      "stateMutability": "view",
      "type": "function"
    },
    {
      "inputs": [
        {
          "internalType": "address",
          "name": "orderAddress",
          "type": "address"
        }
      ],
      "name": "payOrder",
      "outputs": [],
      "stateMutability": "nonpayable",
      "type": "function"
    },
    {
      "inputs": [
        {
          "internalType": "address[]",
          "name": "_orderItems",
          "type": "address[]"
        },
        {
          "internalType": "uint256[]",
          "name": "_units",
          "type": "uint256[]"
        }
      ],
      "name": "placeOrder",
      "outputs": [],
      "stateMutability": "payable",
      "type": "function"
    },
    {
      "inputs": [
        {
          "internalType": "address",
          "name": "",
          "type": "address"
        }
      ],
      "name": "products",
      "outputs": [
        {
          "internalType": "contract Product",
          "name": "",
          "type": "address"
        }
      ],
      "stateMutability": "view",
      "type": "function"
    },
    {
      "inputs": [
        {
          "internalType": "address",
          "name": "orderAddress",
          "type": "address"
        }
      ],
      "name": "refund",
      "outputs": [],
      "stateMutability": "nonpayable",
      "type": "function"
    },
    {
      "inputs": [],
      "name": "registerBuyer",
      "outputs": [],
      "stateMutability": "nonpayable",
      "type": "function"
    },
    {
      "inputs": [],
      "name": "registerDeliveryMan",
      "outputs": [],
      "stateMutability": "nonpayable",
      "type": "function"
    },
    {
      "inputs": [],
      "name": "registerSeller",
      "outputs": [],
      "stateMutability": "nonpayable",
      "type": "function"
    },
    {
      "inputs": [
        {
          "internalType": "address",
          "name": "",
          "type": "address"
        }
      ],
      "name": "sellers",
      "outputs": [
        {
          "internalType": "uint256",
          "name": "",
          "type": "uint256"
        }
      ],
      "stateMutability": "view",
      "type": "function"
    },
    {
      "inputs": [
        {
          "internalType": "address",
          "name": "orderAddress",
          "type": "address"
        },
        {
          "internalType": "address[]",
          "name": "_deliveryItems",
          "type": "address[]"
        },
        {
          "internalType": "uint256[]",
          "name": "_deliveryUnits",
          "type": "uint256[]"
        }
      ],
      "name": "setDelivery",
      "outputs": [],
      "stateMutability": "nonpayable",
      "type": "function"
    },
    {
      "inputs": [
        {
          "internalType": "address",
          "name": "orderAddress",
          "type": "address"
        },
        {
          "internalType": "address",
          "name": "deliveryManAddress",
          "type": "address"
        }
      ],
      "name": "setDeliveryMan",
      "outputs": [],
      "stateMutability": "nonpayable",
      "type": "function"
    },
    {
      "inputs": [
        {
          "internalType": "address",
          "name": "",
          "type": "address"
        }
      ],
      "name": "tempSellerAmountMapping",
      "outputs": [
        {
          "internalType": "uint256",
          "name": "",
          "type": "uint256"
        }
      ],
      "stateMutability": "view",
      "type": "function"
    }
  ],
  "bytecode": "0x60806040526003600055600360015573694aa1769357215de4fac081bf1f309adc325306600260006101000a81548173ffffffffffffffffffffffffffffffffffffffff021916908373ffffffffffffffffffffffffffffffffffffffff16021790555073694aa1769357215de4fac081bf1f309adc325306600360006101000a81548173ffffffffffffffffffffffffffffffffffffffff021916908373ffffffffffffffffffffffffffffffffffffffff1602179055503480156100c457600080fd5b50616baf806100d46000396000f3fe608060405260043610620000fe5760003560e01c8063793a8e711162000097578063a90f42df1162000061578063a90f42df146200031f578063b0ba40a91462000339578063f40e8471146200037d578063fa89401a14620003c157620000fe565b8063793a8e71146200024f57806397a993aa1462000293578063a1a2fbae14620002d7578063a365a85e146200030557620000fe565b80633a2a925c11620000d95780633a2a925c14620001a35780634f0b8df814620001d157806352c9224c14620001f15780636d47ab72146200020b57620000fe565b80631582543914620001035780632672f41014620001475780632f6d5eea1462000175575b600080fd5b3480156200011057600080fd5b506200012f60048036038101906200012991906200250c565b620003ef565b6040516200013e919062002559565b60405180910390f35b3480156200015457600080fd5b506200017360048036038101906200016d919062002576565b62000407565b005b3480156200018257600080fd5b50620001a160048036038101906200019b919062002839565b620006cb565b005b348015620001b057600080fd5b50620001cf6004803603810190620001c991906200299b565b62000a1d565b005b620001ef6004803603810190620001e9919062002b0e565b62000b6e565b005b348015620001fe57600080fd5b506200020962000e7e565b005b3480156200021857600080fd5b506200023760048036038101906200023191906200250c565b62000ec5565b60405162000246919062002559565b60405180910390f35b3480156200025c57600080fd5b506200027b60048036038101906200027591906200250c565b62000edd565b6040516200028a919062002c07565b60405180910390f35b348015620002a057600080fd5b50620002bf6004803603810190620002b991906200250c565b62000f10565b604051620002ce919062002559565b60405180910390f35b348015620002e457600080fd5b50620003036004803603810190620002fd91906200250c565b62000f28565b005b3480156200031257600080fd5b506200031d62001d0b565b005b3480156200032c57600080fd5b506200033762001d52565b005b3480156200034657600080fd5b506200036560048036038101906200035f91906200250c565b62001d99565b60405162000374919062002559565b60405180910390f35b3480156200038a57600080fd5b50620003a96004803603810190620003a391906200250c565b62001db1565b604051620003b8919062002c49565b60405180910390f35b348015620003ce57600080fd5b50620003ed6004803603810190620003e791906200250c565b62001de4565b005b60096020528060005260406000206000915090505481565b6000600460008473ffffffffffffffffffffffffffffffffffffffff1673ffffffffffffffffffffffffffffffffffffffff16815260200190815260200160002060009054906101000a900473ffffffffffffffffffffffffffffffffffffffff1690506000600860008473ffffffffffffffffffffffffffffffffffffffff1673ffffffffffffffffffffffffffffffffffffffff168152602001908152602001600020541415620004f1576040517f08c379a0000000000000000000000000000000000000000000000000000000008152600401620004e89062002cc7565b60405180910390fd5b600073ffffffffffffffffffffffffffffffffffffffff168173ffffffffffffffffffffffffffffffffffffffff16141562000564576040517f08c379a00000000000000000000000000000000000000000000000000000000081526004016200055b9062002d39565b60405180910390fd5b600073ffffffffffffffffffffffffffffffffffffffff168173ffffffffffffffffffffffffffffffffffffffff166343c97c846040518163ffffffff1660e01b815260040160206040518083038186803b158015620005c357600080fd5b505afa158015620005d8573d6000803e3d6000fd5b505050506040513d601f19601f82011682018060405250810190620005fe919062002d72565b73ffffffffffffffffffffffffffffffffffffffff161462000657576040517f08c379a00000000000000000000000000000000000000000000000000000000081526004016200064e9062002df4565b60405180910390fd5b8073ffffffffffffffffffffffffffffffffffffffff1663ab3cb34c836040518263ffffffff1660e01b815260040162000692919062002e27565b600060405180830381600087803b158015620006ad57600080fd5b505af1158015620006c2573d6000803e3d6000fd5b50505050505050565b6000600460008573ffffffffffffffffffffffffffffffffffffffff1673ffffffffffffffffffffffffffffffffffffffff16815260200190815260200160002060009054906101000a900473ffffffffffffffffffffffffffffffffffffffff169050815183511462000776576040517f08c379a00000000000000000000000000000000000000000000000000000000081526004016200076d9062002e94565b60405180910390fd5b600073ffffffffffffffffffffffffffffffffffffffff168173ffffffffffffffffffffffffffffffffffffffff161415620007e9576040517f08c379a0000000000000000000000000000000000000000000000000000000008152600401620007e09062002d39565b60405180910390fd5b3373ffffffffffffffffffffffffffffffffffffffff168173ffffffffffffffffffffffffffffffffffffffff166343c97c846040518163ffffffff1660e01b815260040160206040518083038186803b1580156200084757600080fd5b505afa1580156200085c573d6000803e3d6000fd5b505050506040513d601f19601f8201168201806040525081019062000882919062002d72565b73ffffffffffffffffffffffffffffffffffffffff1614620008db576040517f08c379a0000000000000000000000000000000000000000000000000000000008152600401620008d29062002cc7565b60405180910390fd5b600015158173ffffffffffffffffffffffffffffffffffffffff16634fbd39d36040518163ffffffff1660e01b815260040160206040518083038186803b1580156200092657600080fd5b505afa1580156200093b573d6000803e3d6000fd5b505050506040513d601f19601f8201168201806040525081019062000961919062002ef3565b151514620009a6576040517f08c379a00000000000000000000000000000000000000000000000000000000081526004016200099d9062002f75565b60405180910390fd5b8073ffffffffffffffffffffffffffffffffffffffff1663bdb9207484846040518363ffffffff1660e01b8152600401620009e392919062003133565b600060405180830381600087803b158015620009fe57600080fd5b505af115801562000a13573d6000803e3d6000fd5b5050505050505050565b6001600660003373ffffffffffffffffffffffffffffffffffffffff1673ffffffffffffffffffffffffffffffffffffffff168152602001908152602001600020541462000aa2576040517f08c379a000000000000000000000000000000000000000000000000000000000815260040162000a9990620031be565b60405180910390fd5b600084848484333060405162000ab89062002477565b62000ac99695949392919062003262565b604051809103906000f08015801562000ae6573d6000803e3d6000fd5b50905080600560008373ffffffffffffffffffffffffffffffffffffffff1673ffffffffffffffffffffffffffffffffffffffff16815260200190815260200160002060006101000a81548173ffffffffffffffffffffffffffffffffffffffff021916908373ffffffffffffffffffffffffffffffffffffffff1602179055505050505050565b600080600062000b818787878762001de7565b9250925092508234101562000bcd576040517f08c379a000000000000000000000000000000000000000000000000000000000815260040162000bc4906200332d565b60405180910390fd5b600033888888883089898960405162000be69062002485565b62000bfa9998979695949392919062003450565b604051809103906000f08015801562000c17573d6000803e3d6000fd5b50905080600460008373ffffffffffffffffffffffffffffffffffffffff1673ffffffffffffffffffffffffffffffffffffffff16815260200190815260200160002060006101000a81548173ffffffffffffffffffffffffffffffffffffffff021916908373ffffffffffffffffffffffffffffffffffffffff16021790555060005b8888905081101562000e7357600089898381811062000cbf5762000cbe620034ed565b5b905060200201602081019062000cd691906200250c565b90506000600560008373ffffffffffffffffffffffffffffffffffffffff1673ffffffffffffffffffffffffffffffffffffffff16815260200190815260200160002060009054906101000a900473ffffffffffffffffffffffffffffffffffffffff169050600089898581811062000d545762000d53620034ed565b5b9050602002013590508173ffffffffffffffffffffffffffffffffffffffff166317fa1f47828473ffffffffffffffffffffffffffffffffffffffff16630115949c6040518163ffffffff1660e01b815260040160206040518083038186803b15801562000dc157600080fd5b505afa15801562000dd6573d6000803e3d6000fd5b505050506040513d601f19601f8201168201806040525081019062000dfc919062003533565b62000e08919062003594565b6040518263ffffffff1660e01b815260040162000e26919062002559565b600060405180830381600087803b15801562000e4157600080fd5b505af115801562000e56573d6000803e3d6000fd5b50505050505050808062000e6a90620035cf565b91505062000c9b565b505050505050505050565b6001600660003373ffffffffffffffffffffffffffffffffffffffff1673ffffffffffffffffffffffffffffffffffffffff16815260200190815260200160002081905550565b60066020528060005260406000206000915090505481565b60056020528060005260406000206000915054906101000a900473ffffffffffffffffffffffffffffffffffffffff1681565b60076020528060005260406000206000915090505481565b6000600460008373ffffffffffffffffffffffffffffffffffffffff1673ffffffffffffffffffffffffffffffffffffffff16815260200190815260200160002060009054906101000a900473ffffffffffffffffffffffffffffffffffffffff169050600073ffffffffffffffffffffffffffffffffffffffff168173ffffffffffffffffffffffffffffffffffffffff16141562000fff576040517f08c379a000000000000000000000000000000000000000000000000000000000815260040162000ff69062002d39565b60405180910390fd5b600015158173ffffffffffffffffffffffffffffffffffffffff16634fbd39d36040518163ffffffff1660e01b815260040160206040518083038186803b1580156200104a57600080fd5b505afa1580156200105f573d6000803e3d6000fd5b505050506040513d601f19601f8201168201806040525081019062001085919062002ef3565b151514620010ca576040517f08c379a0000000000000000000000000000000000000000000000000000000008152600401620010c1906200366d565b60405180910390fd5b8073ffffffffffffffffffffffffffffffffffffffff1663603daf9a6040518163ffffffff1660e01b815260040160206040518083038186803b1580156200111157600080fd5b505afa15801562001126573d6000803e3d6000fd5b505050506040513d601f19601f820116820180604052508101906200114c919062002d72565b73ffffffffffffffffffffffffffffffffffffffff163373ffffffffffffffffffffffffffffffffffffffff1614620011bc576040517f08c379a0000000000000000000000000000000000000000000000000000000008152600401620011b390620036df565b60405180910390fd5b60008173ffffffffffffffffffffffffffffffffffffffff1663444066176040518163ffffffff1660e01b815260040160006040518083038186803b1580156200120557600080fd5b505afa1580156200121a573d6000803e3d6000fd5b505050506040513d6000823e3d601f19601f82011682018060405250810190620012459190620037a8565b905060008273ffffffffffffffffffffffffffffffffffffffff16634117163e6040518163ffffffff1660e01b815260040160006040518083038186803b1580156200129057600080fd5b505afa158015620012a5573d6000803e3d6000fd5b505050506040513d6000823e3d601f19601f82011682018060405250810190620012d09190620038a0565b905060008060008060005b8651811015620016e0576000878281518110620012fd57620012fc620034ed565b5b602002602001015190506000600560008373ffffffffffffffffffffffffffffffffffffffff1673ffffffffffffffffffffffffffffffffffffffff16815260200190815260200160002060009054906101000a900473ffffffffffffffffffffffffffffffffffffffff16905060008a73ffffffffffffffffffffffffffffffffffffffff1663cabdba5b846040518263ffffffff1660e01b8152600401620013a8919062002e27565b60206040518083038186803b158015620013c157600080fd5b505afa158015620013d6573d6000803e3d6000fd5b505050506040513d601f19601f82011682018060405250810190620013fc919062003533565b90506000898581518110620014165762001415620034ed565b5b6020026020010151905060015481620014309190620038f1565b886200143d919062003952565b97508273ffffffffffffffffffffffffffffffffffffffff16638b2a90596040518163ffffffff1660e01b815260040160206040518083038186803b1580156200148657600080fd5b505afa1580156200149b573d6000803e3d6000fd5b505050506040513d601f19601f82011682018060405250810190620014c1919062003533565b81620014ce9190620038f1565b87620014db919062003952565b96508273ffffffffffffffffffffffffffffffffffffffff1663bdb7f00e6040518163ffffffff1660e01b815260040160206040518083038186803b1580156200152457600080fd5b505afa15801562001539573d6000803e3d6000fd5b505050506040513d601f19601f820116820180604052508101906200155f919062003533565b866200156c919062003952565b9550600082826200157e9190620038f1565b905060008473ffffffffffffffffffffffffffffffffffffffff1663dbd0e1b66040518163ffffffff1660e01b815260040160206040518083038186803b158015620015c957600080fd5b505afa158015620015de573d6000803e3d6000fd5b505050506040513d601f19601f8201168201806040525081019062001604919062002d72565b73ffffffffffffffffffffffffffffffffffffffff16826040516200162990620039e4565b60006040518083038185875af1925050503d806000811462001668576040519150601f19603f3d011682016040523d82523d6000602084013e6200166d565b606091505b5050905080620016b4576040517f08c379a0000000000000000000000000000000000000000000000000000000008152600401620016ab9062003a4b565b60405180910390fd5b818b620016c2919062003952565b9a505050505050508080620016d790620035cf565b915050620012db565b5060008773ffffffffffffffffffffffffffffffffffffffff166343c97c846040518163ffffffff1660e01b815260040160206040518083038186803b1580156200172a57600080fd5b505afa1580156200173f573d6000803e3d6000fd5b505050506040513d601f19601f8201168201806040525081019062001765919062002d72565b73ffffffffffffffffffffffffffffffffffffffff16846040516200178a90620039e4565b60006040518083038185875af1925050503d8060008114620017c9576040519150601f19603f3d011682016040523d82523d6000602084013e620017ce565b606091505b505090508062001815576040517f08c379a00000000000000000000000000000000000000000000000000000000081526004016200180c9062003a4b565b60405180910390fd5b6000600260009054906101000a900473ffffffffffffffffffffffffffffffffffffffff1673ffffffffffffffffffffffffffffffffffffffff16846040516200185f90620039e4565b60006040518083038185875af1925050503d80600081146200189e576040519150601f19603f3d011682016040523d82523d6000602084013e620018a3565b606091505b5050905080620018ea576040517f08c379a0000000000000000000000000000000000000000000000000000000008152600401620018e19062003a4b565b60405180910390fd5b6000600360009054906101000a900473ffffffffffffffffffffffffffffffffffffffff1673ffffffffffffffffffffffffffffffffffffffff16846040516200193490620039e4565b60006040518083038185875af1925050503d806000811462001973576040519150601f19603f3d011682016040523d82523d6000602084013e62001978565b606091505b5050905080620019bf576040517f08c379a0000000000000000000000000000000000000000000000000000000008152600401620019b69062003a4b565b60405180910390fd5b8973ffffffffffffffffffffffffffffffffffffffff1663ccd44ccf60016040518263ffffffff1660e01b8152600401620019fb919062003a7e565b600060405180830381600087803b15801562001a1657600080fd5b505af115801562001a2b573d6000803e3d6000fd5b5050505060008486888a62001a41919062003952565b62001a4d919062003952565b62001a59919062003952565b8b73ffffffffffffffffffffffffffffffffffffffff16630a9076866040518163ffffffff1660e01b815260040160206040518083038186803b15801562001aa057600080fd5b505afa15801562001ab5573d6000803e3d6000fd5b505050506040513d601f19601f8201168201806040525081019062001adb919062003533565b62001ae7919062003594565b905060008b73ffffffffffffffffffffffffffffffffffffffff1663603daf9a6040518163ffffffff1660e01b815260040160206040518083038186803b15801562001b3257600080fd5b505afa15801562001b47573d6000803e3d6000fd5b505050506040513d601f19601f8201168201806040525081019062001b6d919062002d72565b73ffffffffffffffffffffffffffffffffffffffff168260405162001b9290620039e4565b60006040518083038185875af1925050503d806000811462001bd1576040519150601f19603f3d011682016040523d82523d6000602084013e62001bd6565b606091505b505090508062001c1d576040517f08c379a000000000000000000000000000000000000000000000000000000000815260040162001c149062003a4b565b60405180910390fd5b8b73ffffffffffffffffffffffffffffffffffffffff166311b34c5a60016040518263ffffffff1660e01b815260040162001c59919062003a7e565b600060405180830381600087803b15801562001c7457600080fd5b505af115801562001c89573d6000803e3d6000fd5b505050508b73ffffffffffffffffffffffffffffffffffffffff1663acf4ede0836040518263ffffffff1660e01b815260040162001cc8919062002559565b600060405180830381600087803b15801562001ce357600080fd5b505af115801562001cf8573d6000803e3d6000fd5b5050505050505050505050505050505050565b6002600760003373ffffffffffffffffffffffffffffffffffffffff1673ffffffffffffffffffffffffffffffffffffffff16815260200190815260200160002081905550565b6003600860003373ffffffffffffffffffffffffffffffffffffffff1673ffffffffffffffffffffffffffffffffffffffff16815260200190815260200160002081905550565b60086020528060005260406000206000915090505481565b60046020528060005260406000206000915054906101000a900473ffffffffffffffffffffffffffffffffffffffff1681565b50565b600060608084849050878790501462001e37576040517f08c379a000000000000000000000000000000000000000000000000000000000815260040162001e2e9062002e94565b60405180910390fd5b6000806000806000808c8c905067ffffffffffffffff81111562001e605762001e5f620025d3565b5b60405190808252806020026020018201604052801562001e8f5781602001602082028036833780820191505090505b50905060008d8d905067ffffffffffffffff81111562001eb45762001eb3620025d3565b5b60405190808252806020026020018201604052801562001ee35781602001602082028036833780820191505090505b50905060005b8e8e9050811015620024325760008f8f8381811062001f0d5762001f0c620034ed565b5b905060200201602081019062001f2491906200250c565b90506000600560008373ffffffffffffffffffffffffffffffffffffffff1673ffffffffffffffffffffffffffffffffffffffff16815260200190815260200160002060009054906101000a900473ffffffffffffffffffffffffffffffffffffffff16905060008f8f8581811062001fa25762001fa1620034ed565b5b905060200201359050600073ffffffffffffffffffffffffffffffffffffffff168273ffffffffffffffffffffffffffffffffffffffff1614156200201e576040517f08c379a0000000000000000000000000000000000000000000000000000000008152600401620020159062003aeb565b60405180910390fd5b808273ffffffffffffffffffffffffffffffffffffffff16630115949c6040518163ffffffff1660e01b815260040160206040518083038186803b1580156200206657600080fd5b505afa1580156200207b573d6000803e3d6000fd5b505050506040513d601f19601f82011682018060405250810190620020a1919062003533565b1015620020e5576040517f08c379a0000000000000000000000000000000000000000000000000000000008152600401620020dc9062003b83565b60405180910390fd5b8173ffffffffffffffffffffffffffffffffffffffff166398d5fdca6040518163ffffffff1660e01b815260040160206040518083038186803b1580156200212c57600080fd5b505afa15801562002141573d6000803e3d6000fd5b505050506040513d601f19601f8201168201806040525081019062002167919062003533565b8685815181106200217d576200217c620034ed565b5b6020026020010181815250508173ffffffffffffffffffffffffffffffffffffffff166384aa33656040518163ffffffff1660e01b815260040160206040518083038186803b158015620021d057600080fd5b505afa158015620021e5573d6000803e3d6000fd5b505050506040513d601f19601f820116820180604052508101906200220b919062003533565b858581518110620022215762002220620034ed565b5b602002602001018181525050808273ffffffffffffffffffffffffffffffffffffffff166398d5fdca6040518163ffffffff1660e01b815260040160206040518083038186803b1580156200227557600080fd5b505afa1580156200228a573d6000803e3d6000fd5b505050506040513d601f19601f82011682018060405250810190620022b0919062003533565b620022bc9190620038f1565b8b620022c9919062003952565b9a5080600154620022db9190620038f1565b8a620022e8919062003952565b9950808273ffffffffffffffffffffffffffffffffffffffff16638b2a90596040518163ffffffff1660e01b815260040160206040518083038186803b1580156200233257600080fd5b505afa15801562002347573d6000803e3d6000fd5b505050506040513d601f19601f820116820180604052508101906200236d919062003533565b620023799190620038f1565b8962002386919062003952565b98508173ffffffffffffffffffffffffffffffffffffffff1663bdb7f00e6040518163ffffffff1660e01b815260040160206040518083038186803b158015620023cf57600080fd5b505afa158015620023e4573d6000803e3d6000fd5b505050506040513d601f19601f820116820180604052508101906200240a919062003533565b8862002417919062003952565b975050505080806200242990620035cf565b91505062001ee9565b508385878962002443919062003952565b6200244f919062003952565b6200245b919062003952565b9250828282995099509950505050505050509450945094915050565b610cd98062003ba683390190565b6122fb806200487f83390190565b6000604051905090565b600080fd5b600080fd5b600073ffffffffffffffffffffffffffffffffffffffff82169050919050565b6000620024d482620024a7565b9050919050565b620024e681620024c7565b8114620024f257600080fd5b50565b6000813590506200250681620024db565b92915050565b6000602082840312156200252557620025246200249d565b5b60006200253584828501620024f5565b91505092915050565b6000819050919050565b62002553816200253e565b82525050565b600060208201905062002570600083018462002548565b92915050565b6000806040838503121562002590576200258f6200249d565b5b6000620025a085828601620024f5565b9250506020620025b385828601620024f5565b9150509250929050565b600080fd5b6000601f19601f8301169050919050565b7f4e487b7100000000000000000000000000000000000000000000000000000000600052604160045260246000fd5b6200260d82620025c2565b810181811067ffffffffffffffff821117156200262f576200262e620025d3565b5b80604052505050565b60006200264462002493565b905062002652828262002602565b919050565b600067ffffffffffffffff821115620026755762002674620025d3565b5b602082029050602081019050919050565b600080fd5b6000620026a26200269c8462002657565b62002638565b90508083825260208201905060208402830185811115620026c857620026c762002686565b5b835b81811015620026f55780620026e08882620024f5565b845260208401935050602081019050620026ca565b5050509392505050565b600082601f830112620027175762002716620025bd565b5b8135620027298482602086016200268b565b91505092915050565b600067ffffffffffffffff82111562002750576200274f620025d3565b5b602082029050602081019050919050565b6200276c816200253e565b81146200277857600080fd5b50565b6000813590506200278c8162002761565b92915050565b6000620027a9620027a38462002732565b62002638565b90508083825260208201905060208402830185811115620027cf57620027ce62002686565b5b835b81811015620027fc5780620027e788826200277b565b845260208401935050602081019050620027d1565b5050509392505050565b600082601f8301126200281e576200281d620025bd565b5b81356200283084826020860162002792565b91505092915050565b6000806000606084860312156200285557620028546200249d565b5b60006200286586828701620024f5565b935050602084013567ffffffffffffffff811115620028895762002888620024a2565b5b6200289786828701620026ff565b925050604084013567ffffffffffffffff811115620028bb57620028ba620024a2565b5b620028c98682870162002806565b9150509250925092565b600080fd5b600067ffffffffffffffff821115620028f657620028f5620025d3565b5b6200290182620025c2565b9050602081019050919050565b82818337600083830152505050565b6000620029346200292e84620028d8565b62002638565b905082815260208101848484011115620029535762002952620028d3565b5b620029608482856200290e565b509392505050565b600082601f83011262002980576200297f620025bd565b5b8135620029928482602086016200291d565b91505092915050565b60008060008060808587031215620029b857620029b76200249d565b5b600085013567ffffffffffffffff811115620029d957620029d8620024a2565b5b620029e78782880162002968565b9450506020620029fa878288016200277b565b935050604085013567ffffffffffffffff81111562002a1e5762002a1d620024a2565b5b62002a2c8782880162002968565b925050606062002a3f878288016200277b565b91505092959194509250565b600080fd5b60008083601f84011262002a695762002a68620025bd565b5b8235905067ffffffffffffffff81111562002a895762002a8862002a4b565b5b60208301915083602082028301111562002aa85762002aa762002686565b5b9250929050565b60008083601f84011262002ac85762002ac7620025bd565b5b8235905067ffffffffffffffff81111562002ae85762002ae762002a4b565b5b60208301915083602082028301111562002b075762002b0662002686565b5b9250929050565b6000806000806040858703121562002b2b5762002b2a6200249d565b5b600085013567ffffffffffffffff81111562002b4c5762002b4b620024a2565b5b62002b5a8782880162002a50565b9450945050602085013567ffffffffffffffff81111562002b805762002b7f620024a2565b5b62002b8e8782880162002aaf565b925092505092959194509250565b6000819050919050565b600062002bc762002bc162002bbb84620024a7565b62002b9c565b620024a7565b9050919050565b600062002bdb8262002ba6565b9050919050565b600062002bef8262002bce565b9050919050565b62002c018162002be2565b82525050565b600060208201905062002c1e600083018462002bf6565b92915050565b600062002c318262002bce565b9050919050565b62002c438162002c24565b82525050565b600060208201905062002c60600083018462002c38565b92915050565b600082825260208201905092915050565b7f496e76616c69642064656c6976657279206d616e000000000000000000000000600082015250565b600062002caf60148362002c66565b915062002cbc8262002c77565b602082019050919050565b6000602082019050818103600083015262002ce28162002ca0565b9050919050565b7f496e76616c6964206f7264657200000000000000000000000000000000000000600082015250565b600062002d21600d8362002c66565b915062002d2e8262002ce9565b602082019050919050565b6000602082019050818103600083015262002d548162002d12565b9050919050565b60008151905062002d6c81620024db565b92915050565b60006020828403121562002d8b5762002d8a6200249d565b5b600062002d9b8482850162002d5b565b91505092915050565b7f44656c6976657279206d616e20697320616c7265616479207365740000000000600082015250565b600062002ddc601b8362002c66565b915062002de98262002da4565b602082019050919050565b6000602082019050818103600083015262002e0f8162002dcd565b9050919050565b62002e2181620024c7565b82525050565b600060208201905062002e3e600083018462002e16565b92915050565b7f417272617973206d7573742068617665207468652073616d65206c656e677468600082015250565b600062002e7c60208362002c66565b915062002e898262002e44565b602082019050919050565b6000602082019050818103600083015262002eaf8162002e6d565b9050919050565b60008115159050919050565b62002ecd8162002eb6565b811462002ed957600080fd5b50565b60008151905062002eed8162002ec2565b92915050565b60006020828403121562002f0c5762002f0b6200249d565b5b600062002f1c8482850162002edc565b91505092915050565b7f616c72656164792064656c697665726564000000000000000000000000000000600082015250565b600062002f5d60118362002c66565b915062002f6a8262002f25565b602082019050919050565b6000602082019050818103600083015262002f908162002f4e565b9050919050565b600081519050919050565b600082825260208201905092915050565b6000819050602082019050919050565b62002fce81620024c7565b82525050565b600062002fe2838362002fc3565b60208301905092915050565b6000602082019050919050565b6000620030088262002f97565b62003014818562002fa2565b9350620030218362002fb3565b8060005b83811015620030585781516200303c888262002fd4565b9750620030498362002fee565b92505060018101905062003025565b5085935050505092915050565b600081519050919050565b600082825260208201905092915050565b6000819050602082019050919050565b6200309c816200253e565b82525050565b6000620030b0838362003091565b60208301905092915050565b6000602082019050919050565b6000620030d68262003065565b620030e2818562003070565b9350620030ef8362003081565b8060005b83811015620031265781516200310a8882620030a2565b97506200311783620030bc565b925050600181019050620030f3565b5085935050505092915050565b600060408201905081810360008301526200314f818562002ffb565b90508181036020830152620031658184620030c9565b90509392505050565b7f596f7520617265206e6f7420612073656c6c6572000000000000000000000000600082015250565b6000620031a660148362002c66565b9150620031b3826200316e565b602082019050919050565b60006020820190508181036000830152620031d98162003197565b9050919050565b600081519050919050565b60005b838110156200320b578082015181840152602081019050620031ee565b838111156200321b576000848401525b50505050565b60006200322e82620031e0565b6200323a818562002c66565b93506200324c818560208601620031eb565b6200325781620025c2565b840191505092915050565b600060c08201905081810360008301526200327e818962003221565b90506200328f602083018862002548565b8181036040830152620032a3818762003221565b9050620032b4606083018662002548565b620032c3608083018562002e16565b620032d260a083018462002e16565b979650505050505050565b7f596f75206e65656420746f207370656e64206d6f726520455448210000000000600082015250565b600062003315601b8362002c66565b91506200332282620032dd565b602082019050919050565b60006020820190508181036000830152620033488162003306565b9050919050565b6000819050919050565b60006200336a6020840184620024f5565b905092915050565b6000602082019050919050565b60006200338d838562002fa2565b93506200339a826200334f565b8060005b85811015620033db57620033b3828462003359565b620033bf888262002fd4565b9750620033cc8362003372565b9250506001810190506200339e565b5085925050509392505050565b600080fd5b6000620033fb838562003070565b93507f07ffffffffffffffffffffffffffffffffffffffffffffffffffffffffffffff831115620034315762003430620033e8565b5b602083029250620034448385846200290e565b82840190509392505050565b600060e08201905062003467600083018c62002e16565b81810360208301526200347c818a8c6200337f565b905081810360408301526200349381888a620033ed565b9050620034a4606083018762002e16565b620034b3608083018662002548565b81810360a0830152620034c78185620030c9565b905081810360c0830152620034dd8184620030c9565b90509a9950505050505050505050565b7f4e487b7100000000000000000000000000000000000000000000000000000000600052603260045260246000fd5b6000815190506200352d8162002761565b92915050565b6000602082840312156200354c576200354b6200249d565b5b60006200355c848285016200351c565b91505092915050565b7f4e487b7100000000000000000000000000000000000000000000000000000000600052601160045260246000fd5b6000620035a1826200253e565b9150620035ae836200253e565b925082821015620035c457620035c362003565565b5b828203905092915050565b6000620035dc826200253e565b91507fffffffffffffffffffffffffffffffffffffffffffffffffffffffffffffffff82141562003612576200361162003565565b5b600182019050919050565b7f416c726561647920506169640000000000000000000000000000000000000000600082015250565b600062003655600c8362002c66565b915062003662826200361d565b602082019050919050565b60006020820190508181036000830152620036888162003646565b9050919050565b7f4f6e6c79207468652062757965722063616e20706179207468652062696c6c00600082015250565b6000620036c7601f8362002c66565b9150620036d4826200368f565b602082019050919050565b60006020820190508181036000830152620036fa81620036b8565b9050919050565b600062003718620037128462002657565b62002638565b905080838252602082019050602084028301858111156200373e576200373d62002686565b5b835b818110156200376b578062003756888262002d5b565b84526020840193505060208101905062003740565b5050509392505050565b600082601f8301126200378d576200378c620025bd565b5b81516200379f84826020860162003701565b91505092915050565b600060208284031215620037c157620037c06200249d565b5b600082015167ffffffffffffffff811115620037e257620037e1620024a2565b5b620037f08482850162003775565b91505092915050565b6000620038106200380a8462002732565b62002638565b9050808382526020820190506020840283018581111562003836576200383562002686565b5b835b818110156200386357806200384e88826200351c565b84526020840193505060208101905062003838565b5050509392505050565b600082601f830112620038855762003884620025bd565b5b815162003897848260208601620037f9565b91505092915050565b600060208284031215620038b957620038b86200249d565b5b600082015167ffffffffffffffff811115620038da57620038d9620024a2565b5b620038e8848285016200386d565b91505092915050565b6000620038fe826200253e565b91506200390b836200253e565b9250817fffffffffffffffffffffffffffffffffffffffffffffffffffffffffffffffff048311821515161562003947576200394662003565565b5b828202905092915050565b60006200395f826200253e565b91506200396c836200253e565b9250827fffffffffffffffffffffffffffffffffffffffffffffffffffffffffffffffff03821115620039a457620039a362003565565b5b828201905092915050565b600081905092915050565b50565b6000620039cc600083620039af565b9150620039d982620039ba565b600082019050919050565b6000620039f182620039bd565b9150819050919050565b7f43616c6c206661696c6564000000000000000000000000000000000000000000600082015250565b600062003a33600b8362002c66565b915062003a4082620039fb565b602082019050919050565b6000602082019050818103600083015262003a668162003a24565b9050919050565b62003a788162002eb6565b82525050565b600060208201905062003a95600083018462003a6d565b92915050565b7f50726f6475637420646f65736e27742065786973740000000000000000000000600082015250565b600062003ad360158362002c66565b915062003ae08262003a9b565b602082019050919050565b6000602082019050818103600083015262003b068162003ac4565b9050919050565b7f50726f6475637420696e76656e746f7279206973206e6f74205375666669636960008201527f656e740000000000000000000000000000000000000000000000000000000000602082015250565b600062003b6b60238362002c66565b915062003b788262003b0d565b604082019050919050565b6000602082019050818103600083015262003b9e8162003b5c565b905091905056fe60806040526002600055600560015560036002553480156200002057600080fd5b5060405162000cd938038062000cd983398181016040528101906200004691906200044e565b85600390805190602001906200005e92919062000161565b50846004819055508260058190555083600790805190602001906200008592919062000161565b5081600860006101000a81548173ffffffffffffffffffffffffffffffffffffffff021916908373ffffffffffffffffffffffffffffffffffffffff16021790555080600960006101000a81548173ffffffffffffffffffffffffffffffffffffffff021916908373ffffffffffffffffffffffffffffffffffffffff160217905550606460005462000119919062000586565b600454620001289190620005be565b6006819055506002546006546004546200014391906200061f565b6200014f91906200061f565b600a81905550505050505050620006e1565b8280546200016f90620006ab565b90600052602060002090601f016020900481019282620001935760008555620001df565b82601f10620001ae57805160ff1916838001178555620001df565b82800160010185558215620001df579182015b82811115620001de578251825591602001919060010190620001c1565b5b509050620001ee9190620001f2565b5090565b5b808211156200020d576000816000905550600101620001f3565b5090565b6000604051905090565b600080fd5b600080fd5b600080fd5b600080fd5b6000601f19601f8301169050919050565b7f4e487b7100000000000000000000000000000000000000000000000000000000600052604160045260246000fd5b6200027a826200022f565b810181811067ffffffffffffffff821117156200029c576200029b62000240565b5b80604052505050565b6000620002b162000211565b9050620002bf82826200026f565b919050565b600067ffffffffffffffff821115620002e257620002e162000240565b5b620002ed826200022f565b9050602081019050919050565b60005b838110156200031a578082015181840152602081019050620002fd565b838111156200032a576000848401525b50505050565b6000620003476200034184620002c4565b620002a5565b9050828152602081018484840111156200036657620003656200022a565b5b62000373848285620002fa565b509392505050565b600082601f83011262000393576200039262000225565b5b8151620003a584826020860162000330565b91505092915050565b6000819050919050565b620003c381620003ae565b8114620003cf57600080fd5b50565b600081519050620003e381620003b8565b92915050565b600073ffffffffffffffffffffffffffffffffffffffff82169050919050565b60006200041682620003e9565b9050919050565b620004288162000409565b81146200043457600080fd5b50565b60008151905062000448816200041d565b92915050565b60008060008060008060c087890312156200046e576200046d6200021b565b5b600087015167ffffffffffffffff8111156200048f576200048e62000220565b5b6200049d89828a016200037b565b9650506020620004b089828a01620003d2565b955050604087015167ffffffffffffffff811115620004d457620004d362000220565b5b620004e289828a016200037b565b9450506060620004f589828a01620003d2565b93505060806200050889828a0162000437565b92505060a06200051b89828a0162000437565b9150509295509295509295565b7f4e487b7100000000000000000000000000000000000000000000000000000000600052601260045260246000fd5b7f4e487b7100000000000000000000000000000000000000000000000000000000600052601160045260246000fd5b60006200059382620003ae565b9150620005a083620003ae565b925082620005b357620005b262000528565b5b828204905092915050565b6000620005cb82620003ae565b9150620005d883620003ae565b9250817fffffffffffffffffffffffffffffffffffffffffffffffffffffffffffffffff048311821515161562000614576200061362000557565b5b828202905092915050565b60006200062c82620003ae565b91506200063983620003ae565b9250827fffffffffffffffffffffffffffffffffffffffffffffffffffffffffffffffff0382111562000671576200067062000557565b5b828201905092915050565b7f4e487b7100000000000000000000000000000000000000000000000000000000600052602260045260246000fd5b60006002820490506001821680620006c457607f821691505b60208210811415620006db57620006da6200067c565b5b50919050565b6105e880620006f16000396000f3fe608060405234801561001057600080fd5b50600436106100885760003560e01c806398d5fdca1161005b57806398d5fdca14610103578063bdb7f00e14610121578063dbd0e1b61461013f578063edbab1431461015d57610088565b80630115949c1461008d57806317fa1f47146100ab57806384aa3365146100c75780638b2a9059146100e5575b600080fd5b61009561017b565b6040516100a29190610460565b60405180910390f35b6100c560048036038101906100c091906104ac565b610185565b005b6100cf610277565b6040516100dc9190610460565b60405180910390f35b6100ed610281565b6040516100fa9190610460565b60405180910390f35b61010b61031b565b6040516101189190610460565b60405180910390f35b61012961040d565b6040516101369190610460565b60405180910390f35b610147610417565b604051610154919061051a565b60405180910390f35b610165610441565b6040516101729190610460565b60405180910390f35b6000600554905090565b600960009054906101000a900473ffffffffffffffffffffffffffffffffffffffff1673ffffffffffffffffffffffffffffffffffffffff163373ffffffffffffffffffffffffffffffffffffffff16148061022e5750600860009054906101000a900473ffffffffffffffffffffffffffffffffffffffff1673ffffffffffffffffffffffffffffffffffffffff163373ffffffffffffffffffffffffffffffffffffffff16145b61026d576040517f08c379a000000000000000000000000000000000000000000000000000000000815260040161026490610592565b60405180910390fd5b8060058190555050565b6000600a54905090565b6000600960009054906101000a900473ffffffffffffffffffffffffffffffffffffffff1673ffffffffffffffffffffffffffffffffffffffff163373ffffffffffffffffffffffffffffffffffffffff1614610313576040517f08c379a000000000000000000000000000000000000000000000000000000000815260040161030a90610592565b60405180910390fd5b600654905090565b6000600960009054906101000a900473ffffffffffffffffffffffffffffffffffffffff1673ffffffffffffffffffffffffffffffffffffffff163373ffffffffffffffffffffffffffffffffffffffff1614806103c65750600860009054906101000a900473ffffffffffffffffffffffffffffffffffffffff1673ffffffffffffffffffffffffffffffffffffffff163373ffffffffffffffffffffffffffffffffffffffff16145b610405576040517f08c379a00000000000000000000000000000000000000000000000000000000081526004016103fc90610592565b60405180910390fd5b600454905090565b6000600154905090565b6000600860009054906101000a900473ffffffffffffffffffffffffffffffffffffffff16905090565b600a5481565b6000819050919050565b61045a81610447565b82525050565b60006020820190506104756000830184610451565b92915050565b600080fd5b61048981610447565b811461049457600080fd5b50565b6000813590506104a681610480565b92915050565b6000602082840312156104c2576104c161047b565b5b60006104d084828501610497565b91505092915050565b600073ffffffffffffffffffffffffffffffffffffffff82169050919050565b6000610504826104d9565b9050919050565b610514816104f9565b82525050565b600060208201905061052f600083018461050b565b92915050565b600082825260208201905092915050565b7f4e6f74204f776e6572206f722073656c6c657200000000000000000000000000600082015250565b600061057c601383610535565b915061058782610546565b602082019050919050565b600060208201905081810360008301526105ab8161056f565b905091905056fea2646970667358221220ab767b7205e25541f48b1e88ecc2e972250c04007929fe3cf98378687d19e08464736f6c6343000808003360806040526000600e60006101000a81548160ff0219169083151502179055506000601060006101000a81548160ff0219169083151502179055506000601260006101000a81548160ff0219169083151502179055503480156200006257600080fd5b50604051620022fb380380620022fb833981810160405281019062000088919062000709565b8451865114620000cf576040517f08c379a0000000000000000000000000000000000000000000000000000000008152600401620000c69062000899565b60405180910390fd5b83600260006101000a81548173ffffffffffffffffffffffffffffffffffffffff021916908373ffffffffffffffffffffffffffffffffffffffff16021790555042600d81905550866000806101000a81548173ffffffffffffffffffffffffffffffffffffffff021916908373ffffffffffffffffffffffffffffffffffffffff16021790555085600390805190602001906200016f9291906200030a565b5084600490805190602001906200018892919062000399565b508160059080519060200190620001a192919062000399565b508060069080519060200190620001ba92919062000399565b5082600f819055506001600e60006101000a81548160ff02191690831515021790555060005b8651811015620002fc578581815181106200020057620001ff620008bb565b5b602002602001015160096000898481518110620002225762000221620008bb565b5b602002602001015173ffffffffffffffffffffffffffffffffffffffff1673ffffffffffffffffffffffffffffffffffffffff168152602001908152602001600020819055508281815181106200027e576200027d620008bb565b5b6020026020010151600a6000898481518110620002a0576200029f620008bb565b5b602002602001015173ffffffffffffffffffffffffffffffffffffffff1673ffffffffffffffffffffffffffffffffffffffff168152602001908152602001600020819055508080620002f39062000919565b915050620001e0565b505050505050505062000967565b82805482825590600052602060002090810192821562000386579160200282015b82811115620003855782518260006101000a81548173ffffffffffffffffffffffffffffffffffffffff021916908373ffffffffffffffffffffffffffffffffffffffff160217905550916020019190600101906200032b565b5b509050620003959190620003eb565b5090565b828054828255906000526020600020908101928215620003d8579160200282015b82811115620003d7578251825591602001919060010190620003ba565b5b509050620003e79190620003eb565b5090565b5b8082111562000406576000816000905550600101620003ec565b5090565b6000604051905090565b600080fd5b600080fd5b600073ffffffffffffffffffffffffffffffffffffffff82169050919050565b60006200044b826200041e565b9050919050565b6200045d816200043e565b81146200046957600080fd5b50565b6000815190506200047d8162000452565b92915050565b600080fd5b6000601f19601f8301169050919050565b7f4e487b7100000000000000000000000000000000000000000000000000000000600052604160045260246000fd5b620004d38262000488565b810181811067ffffffffffffffff82111715620004f557620004f462000499565b5b80604052505050565b60006200050a6200040a565b9050620005188282620004c8565b919050565b600067ffffffffffffffff8211156200053b576200053a62000499565b5b602082029050602081019050919050565b600080fd5b60006200056862000562846200051d565b620004fe565b905080838252602082019050602084028301858111156200058e576200058d6200054c565b5b835b81811015620005bb5780620005a688826200046c565b84526020840193505060208101905062000590565b5050509392505050565b600082601f830112620005dd57620005dc62000483565b5b8151620005ef84826020860162000551565b91505092915050565b600067ffffffffffffffff82111562000616576200061562000499565b5b602082029050602081019050919050565b6000819050919050565b6200063c8162000627565b81146200064857600080fd5b50565b6000815190506200065c8162000631565b92915050565b6000620006796200067384620005f8565b620004fe565b905080838252602082019050602084028301858111156200069f576200069e6200054c565b5b835b81811015620006cc5780620006b788826200064b565b845260208401935050602081019050620006a1565b5050509392505050565b600082601f830112620006ee57620006ed62000483565b5b81516200070084826020860162000662565b91505092915050565b600080600080600080600060e0888a0312156200072b576200072a62000414565b5b60006200073b8a828b016200046c565b975050602088015167ffffffffffffffff8111156200075f576200075e62000419565b5b6200076d8a828b01620005c5565b965050604088015167ffffffffffffffff81111562000791576200079062000419565b5b6200079f8a828b01620006d6565b9550506060620007b28a828b016200046c565b9450506080620007c58a828b016200064b565b93505060a088015167ffffffffffffffff811115620007e957620007e862000419565b5b620007f78a828b01620006d6565b92505060c088015167ffffffffffffffff8111156200081b576200081a62000419565b5b620008298a828b01620006d6565b91505092959891949750929550565b600082825260208201905092915050565b7f417272617973206d7573742068617665207468652073616d65206c656e677468600082015250565b60006200088160208362000838565b91506200088e8262000849565b602082019050919050565b60006020820190508181036000830152620008b48162000872565b9050919050565b7f4e487b7100000000000000000000000000000000000000000000000000000000600052603260045260246000fd5b7f4e487b7100000000000000000000000000000000000000000000000000000000600052601160045260246000fd5b6000620009268262000627565b91507fffffffffffffffffffffffffffffffffffffffffffffffffffffffffffffffff8214156200095c576200095b620008ea565b5b600182019050919050565b61198480620009776000396000f3fe608060405234801561001057600080fd5b50600436106101da5760003560e01c80638da5cb5b11610104578063bdb92074116100a2578063ccd2f89f11610071578063ccd2f89f1461052b578063ccd44ccf14610549578063d2cf4be214610565578063fb24359f14610595576101da565b8063bdb92074146104a3578063c46dacd9146104bf578063c741a8dd146104dd578063cabdba5b146104fb576101da565b8063acf4ede0116100de578063acf4ede014610409578063ad7c6ed114610425578063ae48908214610443578063bc7ae42214610473576101da565b80638da5cb5b146103b1578063a71494f1146103cf578063ab3cb34c146103ed576101da565b806343c97c841161017c5780637150d8ae1161014b5780637150d8ae14610339578063765f744c14610357578063779cd083146103755780637aada13414610393576101da565b806343c97c84146102c157806344406617146102df5780634fbd39d3146102fd578063603daf9a1461031b576101da565b8063200d2ed2116101b8578063200d2ed214610249578063209ebc08146102675780633095114c146102855780634117163e146102a3576101da565b80630a907686146101df57806311b34c5a146101fd578063141c08c214610219575b600080fd5b6101e76105b3565b6040516101f49190611178565b60405180910390f35b610217600480360381019061021291906111df565b6105bd565b005b610233600480360381019061022e9190611238565b61066a565b6040516102409190611178565b60405180910390f35b61025161068e565b60405161025e9190611178565b60405180910390f35b61026f610694565b60405161027c9190611274565b60405180910390f35b61028d6106a7565b60405161029a91906112d0565b60405180910390f35b6102ab6106cd565b6040516102b891906113a9565b60405180910390f35b6102c9610725565b6040516102d691906112d0565b60405180910390f35b6102e761074f565b6040516102f49190611489565b60405180910390f35b6103056107dd565b6040516103129190611274565b60405180910390f35b6103236107f4565b60405161033091906112d0565b60405180910390f35b61034161081d565b60405161034e91906112d0565b60405180910390f35b61035f610841565b60405161036c9190611274565b60405180910390f35b61037d610854565b60405161038a9190611274565b60405180910390f35b61039b610867565b6040516103a89190611178565b60405180910390f35b6103b961086d565b6040516103c691906112d0565b60405180910390f35b6103d7610893565b6040516103e49190611178565b60405180910390f35b610407600480360381019061040291906114d7565b610899565b005b610423600480360381019061041e9190611238565b61096d565b005b61042d610a07565b60405161043a9190611178565b60405180910390f35b61045d60048036038101906104589190611238565b610a0d565b60405161046a91906112d0565b60405180910390f35b61048d60048036038101906104889190611238565b610a4c565b60405161049a9190611178565b60405180910390f35b6104bd60048036038101906104b89190611720565b610a70565b005b6104c7610c80565b6040516104d491906113a9565b60405180910390f35b6104e5610cd8565b6040516104f291906113a9565b60405180910390f35b610515600480360381019061051091906114d7565b610dc0565b6040516105229190611178565b60405180910390f35b610533610e99565b60405161054091906113a9565b60405180910390f35b610563600480360381019061055e91906111df565b610ef1565b005b61057f600480360381019061057a9190611238565b610f9e565b60405161058c91906112d0565b60405180910390f35b61059d610fdd565b6040516105aa9190611489565b60405180910390f35b6000600f54905090565b600260009054906101000a900473ffffffffffffffffffffffffffffffffffffffff1673ffffffffffffffffffffffffffffffffffffffff163373ffffffffffffffffffffffffffffffffffffffff161461064d576040517f08c379a0000000000000000000000000000000000000000000000000000000008152600401610644906117f5565b60405180910390fd5b80601060006101000a81548160ff02191690831515021790555050565b6008818154811061067a57600080fd5b906000526020600020016000915090505481565b600c5481565b600e60009054906101000a900460ff1681565b600160009054906101000a900473ffffffffffffffffffffffffffffffffffffffff1681565b6060600880548060200260200160405190810160405280929190818152602001828054801561071b57602002820191906000526020600020905b815481526020019060010190808311610707575b5050505050905090565b6000600160009054906101000a900473ffffffffffffffffffffffffffffffffffffffff16905090565b606060078054806020026020016040519081016040528092919081815260200182805480156107d357602002820191906000526020600020905b8160009054906101000a900473ffffffffffffffffffffffffffffffffffffffff1673ffffffffffffffffffffffffffffffffffffffff1681526020019060010190808311610789575b5050505050905090565b6000601260009054906101000a900460ff16905090565b60008060009054906101000a900473ffffffffffffffffffffffffffffffffffffffff16905090565b60008054906101000a900473ffffffffffffffffffffffffffffffffffffffff1681565b601260009054906101000a900460ff1681565b601060009054906101000a900460ff1681565b600d5481565b600260009054906101000a900473ffffffffffffffffffffffffffffffffffffffff1681565b600f5481565b600260009054906101000a900473ffffffffffffffffffffffffffffffffffffffff1673ffffffffffffffffffffffffffffffffffffffff163373ffffffffffffffffffffffffffffffffffffffff1614610929576040517f08c379a0000000000000000000000000000000000000000000000000000000008152600401610920906117f5565b60405180910390fd5b80600160006101000a81548173ffffffffffffffffffffffffffffffffffffffff021916908373ffffffffffffffffffffffffffffffffffffffff16021790555050565b600260009054906101000a900473ffffffffffffffffffffffffffffffffffffffff1673ffffffffffffffffffffffffffffffffffffffff163373ffffffffffffffffffffffffffffffffffffffff16146109fd576040517f08c379a00000000000000000000000000000000000000000000000000000000081526004016109f4906117f5565b60405180910390fd5b8060118190555050565b60115481565b60038181548110610a1d57600080fd5b906000526020600020016000915054906101000a900473ffffffffffffffffffffffffffffffffffffffff1681565b60048181548110610a5c57600080fd5b906000526020600020016000915090505481565b600260009054906101000a900473ffffffffffffffffffffffffffffffffffffffff1673ffffffffffffffffffffffffffffffffffffffff163373ffffffffffffffffffffffffffffffffffffffff1614610b00576040517f08c379a0000000000000000000000000000000000000000000000000000000008152600401610af7906117f5565b60405180910390fd5b60005b8251811015610c4d57818181518110610b1f57610b1e611815565b5b602002602001015160096000858481518110610b3e57610b3d611815565b5b602002602001015173ffffffffffffffffffffffffffffffffffffffff1673ffffffffffffffffffffffffffffffffffffffff168152602001908152602001600020541115610bc2576040517f08c379a0000000000000000000000000000000000000000000000000000000008152600401610bb9906118b6565b60405180910390fd5b818181518110610bd557610bd4611815565b5b6020026020010151600b6000858481518110610bf457610bf3611815565b5b602002602001015173ffffffffffffffffffffffffffffffffffffffff1673ffffffffffffffffffffffffffffffffffffffff168152602001908152602001600020819055508080610c4590611905565b915050610b03565b508160079080519060200190610c6492919061106b565b508060089080519060200190610c7b9291906110f5565b505050565b60606004805480602002602001604051908101604052809291908181526020018280548015610cce57602002820191906000526020600020905b815481526020019060010190808311610cba575b5050505050905090565b6060600260009054906101000a900473ffffffffffffffffffffffffffffffffffffffff1673ffffffffffffffffffffffffffffffffffffffff163373ffffffffffffffffffffffffffffffffffffffff1614610d6a576040517f08c379a0000000000000000000000000000000000000000000000000000000008152600401610d61906117f5565b60405180910390fd5b6005805480602002602001604051908101604052809291908181526020018280548015610db657602002820191906000526020600020905b815481526020019060010190808311610da2575b5050505050905090565b6000600260009054906101000a900473ffffffffffffffffffffffffffffffffffffffff1673ffffffffffffffffffffffffffffffffffffffff163373ffffffffffffffffffffffffffffffffffffffff1614610e52576040517f08c379a0000000000000000000000000000000000000000000000000000000008152600401610e49906117f5565b60405180910390fd5b600a60008373ffffffffffffffffffffffffffffffffffffffff1673ffffffffffffffffffffffffffffffffffffffff168152602001908152602001600020549050919050565b60606006805480602002602001604051908101604052809291908181526020018280548015610ee757602002820191906000526020600020905b815481526020019060010190808311610ed3575b5050505050905090565b600260009054906101000a900473ffffffffffffffffffffffffffffffffffffffff1673ffffffffffffffffffffffffffffffffffffffff163373ffffffffffffffffffffffffffffffffffffffff1614610f81576040517f08c379a0000000000000000000000000000000000000000000000000000000008152600401610f78906117f5565b60405180910390fd5b80601260006101000a81548160ff02191690831515021790555050565b60078181548110610fae57600080fd5b906000526020600020016000915054906101000a900473ffffffffffffffffffffffffffffffffffffffff1681565b6060600380548060200260200160405190810160405280929190818152602001828054801561106157602002820191906000526020600020905b8160009054906101000a900473ffffffffffffffffffffffffffffffffffffffff1673ffffffffffffffffffffffffffffffffffffffff1681526020019060010190808311611017575b5050505050905090565b8280548282559060005260206000209081019282156110e4579160200282015b828111156110e35782518260006101000a81548173ffffffffffffffffffffffffffffffffffffffff021916908373ffffffffffffffffffffffffffffffffffffffff1602179055509160200191906001019061108b565b5b5090506110f19190611142565b5090565b828054828255906000526020600020908101928215611131579160200282015b82811115611130578251825591602001919060010190611115565b5b50905061113e9190611142565b5090565b5b8082111561115b576000816000905550600101611143565b5090565b6000819050919050565b6111728161115f565b82525050565b600060208201905061118d6000830184611169565b92915050565b6000604051905090565b600080fd5b600080fd5b60008115159050919050565b6111bc816111a7565b81146111c757600080fd5b50565b6000813590506111d9816111b3565b92915050565b6000602082840312156111f5576111f461119d565b5b6000611203848285016111ca565b91505092915050565b6112158161115f565b811461122057600080fd5b50565b6000813590506112328161120c565b92915050565b60006020828403121561124e5761124d61119d565b5b600061125c84828501611223565b91505092915050565b61126e816111a7565b82525050565b60006020820190506112896000830184611265565b92915050565b600073ffffffffffffffffffffffffffffffffffffffff82169050919050565b60006112ba8261128f565b9050919050565b6112ca816112af565b82525050565b60006020820190506112e560008301846112c1565b92915050565b600081519050919050565b600082825260208201905092915050565b6000819050602082019050919050565b6113208161115f565b82525050565b60006113328383611317565b60208301905092915050565b6000602082019050919050565b6000611356826112eb565b61136081856112f6565b935061136b83611307565b8060005b8381101561139c5781516113838882611326565b975061138e8361133e565b92505060018101905061136f565b5085935050505092915050565b600060208201905081810360008301526113c3818461134b565b905092915050565b600081519050919050565b600082825260208201905092915050565b6000819050602082019050919050565b611400816112af565b82525050565b600061141283836113f7565b60208301905092915050565b6000602082019050919050565b6000611436826113cb565b61144081856113d6565b935061144b836113e7565b8060005b8381101561147c5781516114638882611406565b975061146e8361141e565b92505060018101905061144f565b5085935050505092915050565b600060208201905081810360008301526114a3818461142b565b905092915050565b6114b4816112af565b81146114bf57600080fd5b50565b6000813590506114d1816114ab565b92915050565b6000602082840312156114ed576114ec61119d565b5b60006114fb848285016114c2565b91505092915050565b600080fd5b6000601f19601f8301169050919050565b7f4e487b7100000000000000000000000000000000000000000000000000000000600052604160045260246000fd5b61155282611509565b810181811067ffffffffffffffff821117156115715761157061151a565b5b80604052505050565b6000611584611193565b90506115908282611549565b919050565b600067ffffffffffffffff8211156115b0576115af61151a565b5b602082029050602081019050919050565b600080fd5b60006115d96115d484611595565b61157a565b905080838252602082019050602084028301858111156115fc576115fb6115c1565b5b835b81811015611625578061161188826114c2565b8452602084019350506020810190506115fe565b5050509392505050565b600082601f83011261164457611643611504565b5b81356116548482602086016115c6565b91505092915050565b600067ffffffffffffffff8211156116785761167761151a565b5b602082029050602081019050919050565b600061169c6116978461165d565b61157a565b905080838252602082019050602084028301858111156116bf576116be6115c1565b5b835b818110156116e857806116d48882611223565b8452602084019350506020810190506116c1565b5050509392505050565b600082601f83011261170757611706611504565b5b8135611717848260208601611689565b91505092915050565b600080604083850312156117375761173661119d565b5b600083013567ffffffffffffffff811115611755576117546111a2565b5b6117618582860161162f565b925050602083013567ffffffffffffffff811115611782576117816111a2565b5b61178e858286016116f2565b9150509250929050565b600082825260208201905092915050565b7f4f776e6572206f6e6c7900000000000000000000000000000000000000000000600082015250565b60006117df600a83611798565b91506117ea826117a9565b602082019050919050565b6000602082019050818103600083015261180e816117d2565b9050919050565b7f4e487b7100000000000000000000000000000000000000000000000000000000600052603260045260246000fd5b7f64656c697665727920646f65736e2774206d617463682077697468206f72646560008201527f7200000000000000000000000000000000000000000000000000000000000000602082015250565b60006118a0602183611798565b91506118ab82611844565b604082019050919050565b600060208201905081810360008301526118cf81611893565b9050919050565b7f4e487b7100000000000000000000000000000000000000000000000000000000600052601160045260246000fd5b60006119108261115f565b91507fffffffffffffffffffffffffffffffffffffffffffffffffffffffffffffffff821415611943576119426118d6565b5b60018201905091905056fea2646970667358221220a15eb14ddf55c29892cdde5c02e5519b09261b73911643b5f9d335a40bac419664736f6c63430008080033a2646970667358221220303aa03b818034c8b881b1060ab618dc3c65f8278a970017f80e9588c2298fe364736f6c63430008080033",
  "linkReferences": {},
  "deployedLinkReferences": {}
}