{
  "_format": "hh-sol-artifact-1",
  "contractName": "Product",
  "sourceName": "contracts/Product.sol",
  "abi": [
    {
      "inputs": [
        {
          "internalType": "string",
          "name": "_name",
          "type": "string"
        },
        {
          "internalType": "uint256",
          "name": "_price",
          "type": "uint256"
        },
        {
          "internalType": "string",
          "name": "_description",
          "type": "string"
        },
        {
          "internalType": "uint256",
          "name": "_quantity",
          "type": "uint256"
        },
        {
          "internalType": "address",
          "name": "_seller",
          "type": "address"
        },
        {
          "internalType": "address",
          "name": "_owner",
          "type": "address"
        },
        {
          "internalType": "uint256",
          "name": "_finalPrice",
          "type": "uint256"
        },
        {
          "internalType": "uint256",
          "name": "_dbId",
          "type": "uint256"
        }
      ],
      "stateMutability": "nonpayable",
      "type": "constructor"
    },
    {
      "inputs": [
        {
          "internalType": "address",
          "name": "order_address",
          "type": "address"
        },
        {
          "internalType": "uint256",
          "name": "order_units",
          "type": "uint256"
        }
      ],
      "name": "addOrder",
      "outputs": [],
      "stateMutability": "nonpayable",
      "type": "function"
    },
    {
      "inputs": [
        {
          "internalType": "address",
          "name": "buyer_address",
          "type": "address"
        }
      ],
      "name": "enableReviewRating",
      "outputs": [],
      "stateMutability": "nonpayable",
      "type": "function"
    },
    {
      "inputs": [],
      "name": "finalProductPrice",
      "outputs": [
        {
          "internalType": "uint256",
          "name": "",
          "type": "uint256"
        }
      ],
      "stateMutability": "view",
      "type": "function"
    },
    {
      "inputs": [],
      "name": "getDbId",
      "outputs": [
        {
          "internalType": "uint256",
          "name": "",
          "type": "uint256"
        }
      ],
      "stateMutability": "view",
      "type": "function"
    },
    {
      "inputs": [],
      "name": "getName",
      "outputs": [
        {
          "internalType": "string",
          "name": "",
          "type": "string"
        }
      ],
      "stateMutability": "view",
      "type": "function"
    },
    {
      "inputs": [],
      "name": "getPrice",
      "outputs": [
        {
          "internalType": "uint256",
          "name": "",
          "type": "uint256"
        }
      ],
      "stateMutability": "view",
      "type": "function"
    },
    {
      "inputs": [],
      "name": "getProductFinalPrice",
      "outputs": [
        {
          "internalType": "uint256",
          "name": "",
          "type": "uint256"
        }
      ],
      "stateMutability": "view",
      "type": "function"
    },
    {
      "inputs": [],
      "name": "getQuantity",
      "outputs": [
        {
          "internalType": "uint256",
          "name": "",
          "type": "uint256"
        }
      ],
      "stateMutability": "view",
      "type": "function"
    },
    {
      "inputs": [],
      "name": "getReviewRatingOfProduct",
      "outputs": [
        {
          "internalType": "address[]",
          "name": "",
          "type": "address[]"
        },
        {
          "internalType": "string[]",
          "name": "",
          "type": "string[]"
        },
        {
          "internalType": "uint256[]",
          "name": "",
          "type": "uint256[]"
        },
        {
          "internalType": "uint256[]",
          "name": "",
          "type": "uint256[]"
        }
      ],
      "stateMutability": "view",
      "type": "function"
    },
    {
      "inputs": [],
      "name": "getSeller",
      "outputs": [
        {
          "internalType": "address",
          "name": "",
          "type": "address"
        }
      ],
      "stateMutability": "view",
      "type": "function"
    },
    {
      "inputs": [
        {
          "internalType": "uint256",
          "name": "",
          "type": "uint256"
        }
      ],
      "name": "orders",
      "outputs": [
        {
          "internalType": "address",
          "name": "",
          "type": "address"
        }
      ],
      "stateMutability": "view",
      "type": "function"
    },
    {
      "inputs": [
        {
          "internalType": "string",
          "name": "_review",
          "type": "string"
        },
        {
          "internalType": "uint256",
          "name": "_rating",
          "type": "uint256"
        },
        {
          "internalType": "address",
          "name": "buyerAddress",
          "type": "address"
        }
      ],
      "name": "submitReviewRating",
      "outputs": [],
      "stateMutability": "nonpayable",
      "type": "function"
    },
    {
      "inputs": [
        {
          "internalType": "uint256",
          "name": "_quantity",
          "type": "uint256"
        }
      ],
      "name": "updateQuantity",
      "outputs": [],
      "stateMutability": "nonpayable",
      "type": "function"
    }
  ],
  "bytecode": "0x60806040523480156200001157600080fd5b5060405162001f3938038062001f39833981810160405281019062000037919062000402565b87600090805190602001906200004f92919062000115565b50866001819055508460028190555085600490805190602001906200007692919062000115565b5083600560006101000a81548173ffffffffffffffffffffffffffffffffffffffff021916908373ffffffffffffffffffffffffffffffffffffffff16021790555082600660006101000a81548173ffffffffffffffffffffffffffffffffffffffff021916908373ffffffffffffffffffffffffffffffffffffffff160217905550816007819055508060088190555050505050505050506200056e565b828054620001239062000538565b90600052602060002090601f01602090048101928262000147576000855562000193565b82601f106200016257805160ff191683800117855562000193565b8280016001018555821562000193579182015b828111156200019257825182559160200191906001019062000175565b5b509050620001a29190620001a6565b5090565b5b80821115620001c1576000816000905550600101620001a7565b5090565b6000604051905090565b600080fd5b600080fd5b600080fd5b600080fd5b6000601f19601f8301169050919050565b7f4e487b7100000000000000000000000000000000000000000000000000000000600052604160045260246000fd5b6200022e82620001e3565b810181811067ffffffffffffffff8211171562000250576200024f620001f4565b5b80604052505050565b600062000265620001c5565b905062000273828262000223565b919050565b600067ffffffffffffffff821115620002965762000295620001f4565b5b620002a182620001e3565b9050602081019050919050565b60005b83811015620002ce578082015181840152602081019050620002b1565b83811115620002de576000848401525b50505050565b6000620002fb620002f58462000278565b62000259565b9050828152602081018484840111156200031a5762000319620001de565b5b62000327848285620002ae565b509392505050565b600082601f830112620003475762000346620001d9565b5b815162000359848260208601620002e4565b91505092915050565b6000819050919050565b620003778162000362565b81146200038357600080fd5b50565b60008151905062000397816200036c565b92915050565b600073ffffffffffffffffffffffffffffffffffffffff82169050919050565b6000620003ca826200039d565b9050919050565b620003dc81620003bd565b8114620003e857600080fd5b50565b600081519050620003fc81620003d1565b92915050565b600080600080600080600080610100898b031215620004265762000425620001cf565b5b600089015167ffffffffffffffff811115620004475762000446620001d4565b5b620004558b828c016200032f565b9850506020620004688b828c0162000386565b975050604089015167ffffffffffffffff8111156200048c576200048b620001d4565b5b6200049a8b828c016200032f565b9650506060620004ad8b828c0162000386565b9550506080620004c08b828c01620003eb565b94505060a0620004d38b828c01620003eb565b93505060c0620004e68b828c0162000386565b92505060e0620004f98b828c0162000386565b9150509295985092959890939650565b7f4e487b7100000000000000000000000000000000000000000000000000000000600052602260045260246000fd5b600060028204905060018216806200055157607f821691505b6020821081141562000568576200056762000509565b5b50919050565b6119bb806200057e6000396000f3fe608060405234801561001057600080fd5b50600436106100cf5760003560e01c806398d5fdca1161008c578063db6a365211610066578063db6a3652146101f3578063dbd0e1b61461020f578063edbab1431461022d578063f6c0f8b91461024b576100cf565b806398d5fdca14610187578063a85c38ef146101a5578063db005d88146101d5576100cf565b80630115949c146100d457806317d7de7c146100f257806317fa1f4714610110578063317c99841461012c57806341f296181461014857806384aa336514610169575b600080fd5b6100dc610267565b6040516100e99190610f7e565b60405180910390f35b6100fa610271565b6040516101079190611032565b60405180910390f35b61012a60048036038101906101259190611094565b610303565b005b6101466004803603810190610141919061111f565b6103f5565b005b610150610541565b60405161016094939291906113d4565b60405180910390f35b610171610768565b60405161017e9190610f7e565b60405180910390f35b61018f610772565b60405161019c9190610f7e565b60405180910390f35b6101bf60048036038101906101ba9190611094565b610864565b6040516101cc9190611444565b60405180910390f35b6101dd6108a3565b6040516101ea9190610f7e565b60405180910390f35b61020d6004803603810190610208919061145f565b61093d565b005b610217610a78565b6040516102249190611444565b60405180910390f35b610235610aa2565b6040516102429190610f7e565b60405180910390f35b610265600480360381019061026091906115d4565b610aa8565b005b6000600254905090565b60606000805461028090611672565b80601f01602080910402602001604051908101604052809291908181526020018280546102ac90611672565b80156102f95780601f106102ce576101008083540402835291602001916102f9565b820191906000526020600020905b8154815290600101906020018083116102dc57829003601f168201915b5050505050905090565b600660009054906101000a900473ffffffffffffffffffffffffffffffffffffffff1673ffffffffffffffffffffffffffffffffffffffff163373ffffffffffffffffffffffffffffffffffffffff1614806103ac5750600560009054906101000a900473ffffffffffffffffffffffffffffffffffffffff1673ffffffffffffffffffffffffffffffffffffffff163373ffffffffffffffffffffffffffffffffffffffff16145b6103eb576040517f08c379a00000000000000000000000000000000000000000000000000000000081526004016103e2906116f0565b60405180910390fd5b8060028190555050565b600660009054906101000a900473ffffffffffffffffffffffffffffffffffffffff1673ffffffffffffffffffffffffffffffffffffffff163373ffffffffffffffffffffffffffffffffffffffff1614610485576040517f08c379a000000000000000000000000000000000000000000000000000000000815260040161047c9061175c565b60405180910390fd5b6001600b60008373ffffffffffffffffffffffffffffffffffffffff1673ffffffffffffffffffffffffffffffffffffffff16815260200190815260200160002060009054906101000a900463ffffffff166104e191906117bb565b600b60008373ffffffffffffffffffffffffffffffffffffffff1673ffffffffffffffffffffffffffffffffffffffff16815260200190815260200160002060006101000a81548163ffffffff021916908363ffffffff16021790555050565b606080606080600d600001600d600101600d600201600d600301838054806020026020016040519081016040528092919081815260200182805480156105dc57602002820191906000526020600020905b8160009054906101000a900473ffffffffffffffffffffffffffffffffffffffff1673ffffffffffffffffffffffffffffffffffffffff1681526020019060010190808311610592575b5050505050935082805480602002602001604051908101604052809291908181526020016000905b828210156106b057838290600052602060002001805461062390611672565b80601f016020809104026020016040519081016040528092919081815260200182805461064f90611672565b801561069c5780601f106106715761010080835404028352916020019161069c565b820191906000526020600020905b81548152906001019060200180831161067f57829003601f168201915b505050505081526020019060010190610604565b5050505092508180548060200260200160405190810160405280929190818152602001828054801561070157602002820191906000526020600020905b8154815260200190600101908083116106ed575b505050505091508080548060200260200160405190810160405280929190818152602001828054801561075357602002820191906000526020600020905b81548152602001906001019080831161073f575b50505050509050935093509350935090919293565b6000600754905090565b6000600660009054906101000a900473ffffffffffffffffffffffffffffffffffffffff1673ffffffffffffffffffffffffffffffffffffffff163373ffffffffffffffffffffffffffffffffffffffff16148061081d5750600560009054906101000a900473ffffffffffffffffffffffffffffffffffffffff1673ffffffffffffffffffffffffffffffffffffffff163373ffffffffffffffffffffffffffffffffffffffff16145b61085c576040517f08c379a0000000000000000000000000000000000000000000000000000000008152600401610853906116f0565b60405180910390fd5b600154905090565b600a818154811061087457600080fd5b906000526020600020016000915054906101000a900473ffffffffffffffffffffffffffffffffffffffff1681565b6000600660009054906101000a900473ffffffffffffffffffffffffffffffffffffffff1673ffffffffffffffffffffffffffffffffffffffff163373ffffffffffffffffffffffffffffffffffffffff1614610935576040517f08c379a000000000000000000000000000000000000000000000000000000000815260040161092c9061175c565b60405180910390fd5b600854905090565b600660009054906101000a900473ffffffffffffffffffffffffffffffffffffffff1673ffffffffffffffffffffffffffffffffffffffff163373ffffffffffffffffffffffffffffffffffffffff16146109cd576040517f08c379a00000000000000000000000000000000000000000000000000000000081526004016109c49061175c565b60405180910390fd5b600a829080600181540180825580915050600190039060005260206000200160009091909190916101000a81548173ffffffffffffffffffffffffffffffffffffffff021916908373ffffffffffffffffffffffffffffffffffffffff16021790555080600960008473ffffffffffffffffffffffffffffffffffffffff1673ffffffffffffffffffffffffffffffffffffffff168152602001908152602001600020819055505050565b6000600560009054906101000a900473ffffffffffffffffffffffffffffffffffffffff16905090565b60075481565b600660009054906101000a900473ffffffffffffffffffffffffffffffffffffffff1673ffffffffffffffffffffffffffffffffffffffff163373ffffffffffffffffffffffffffffffffffffffff1614610b38576040517f08c379a0000000000000000000000000000000000000000000000000000000008152600401610b2f9061175c565b60405180910390fd5b6000600b60008373ffffffffffffffffffffffffffffffffffffffff1673ffffffffffffffffffffffffffffffffffffffff16815260200190815260200160002060009054906101000a900463ffffffff1663ffffffff161415610bd1576040517f08c379a0000000000000000000000000000000000000000000000000000000008152600401610bc890611867565b60405180910390fd5b600c60008273ffffffffffffffffffffffffffffffffffffffff1673ffffffffffffffffffffffffffffffffffffffff16815260200190815260200160002060009054906101000a900463ffffffff1663ffffffff16600b60008373ffffffffffffffffffffffffffffffffffffffff1673ffffffffffffffffffffffffffffffffffffffff16815260200190815260200160002060009054906101000a900463ffffffff1663ffffffff1611610cbd576040517f08c379a0000000000000000000000000000000000000000000000000000000008152600401610cb4906118f9565b60405180910390fd5b6005821115610d01576040517f08c379a0000000000000000000000000000000000000000000000000000000008152600401610cf890611965565b60405180910390fd5b6000429050600d600001829080600181540180825580915050600190039060005260206000200160009091909190916101000a81548173ffffffffffffffffffffffffffffffffffffffff021916908373ffffffffffffffffffffffffffffffffffffffff160217905550600d60010184908060018154018082558091505060019003906000526020600020016000909190919091509080519060200190610daa929190610ec2565b50600d600201839080600181540180825580915050600190039060005260206000200160009091909190915055600d6003018190806001815401808255809150506001900390600052602060002001600090919091909150556001600c60008473ffffffffffffffffffffffffffffffffffffffff1673ffffffffffffffffffffffffffffffffffffffff16815260200190815260200160002060009054906101000a900463ffffffff16610e5f91906117bb565b600c60008473ffffffffffffffffffffffffffffffffffffffff1673ffffffffffffffffffffffffffffffffffffffff16815260200190815260200160002060006101000a81548163ffffffff021916908363ffffffff16021790555050505050565b828054610ece90611672565b90600052602060002090601f016020900481019282610ef05760008555610f37565b82601f10610f0957805160ff1916838001178555610f37565b82800160010185558215610f37579182015b82811115610f36578251825591602001919060010190610f1b565b5b509050610f449190610f48565b5090565b5b80821115610f61576000816000905550600101610f49565b5090565b6000819050919050565b610f7881610f65565b82525050565b6000602082019050610f936000830184610f6f565b92915050565b600081519050919050565b600082825260208201905092915050565b60005b83811015610fd3578082015181840152602081019050610fb8565b83811115610fe2576000848401525b50505050565b6000601f19601f8301169050919050565b600061100482610f99565b61100e8185610fa4565b935061101e818560208601610fb5565b61102781610fe8565b840191505092915050565b6000602082019050818103600083015261104c8184610ff9565b905092915050565b6000604051905090565b600080fd5b600080fd5b61107181610f65565b811461107c57600080fd5b50565b60008135905061108e81611068565b92915050565b6000602082840312156110aa576110a961105e565b5b60006110b88482850161107f565b91505092915050565b600073ffffffffffffffffffffffffffffffffffffffff82169050919050565b60006110ec826110c1565b9050919050565b6110fc816110e1565b811461110757600080fd5b50565b600081359050611119816110f3565b92915050565b6000602082840312156111355761113461105e565b5b60006111438482850161110a565b91505092915050565b600081519050919050565b600082825260208201905092915050565b6000819050602082019050919050565b611181816110e1565b82525050565b60006111938383611178565b60208301905092915050565b6000602082019050919050565b60006111b78261114c565b6111c18185611157565b93506111cc83611168565b8060005b838110156111fd5781516111e48882611187565b97506111ef8361119f565b9250506001810190506111d0565b5085935050505092915050565b600081519050919050565b600082825260208201905092915050565b6000819050602082019050919050565b600082825260208201905092915050565b600061125282610f99565b61125c8185611236565b935061126c818560208601610fb5565b61127581610fe8565b840191505092915050565b600061128c8383611247565b905092915050565b6000602082019050919050565b60006112ac8261120a565b6112b68185611215565b9350836020820285016112c885611226565b8060005b8581101561130457848403895281516112e58582611280565b94506112f083611294565b925060208a019950506001810190506112cc565b50829750879550505050505092915050565b600081519050919050565b600082825260208201905092915050565b6000819050602082019050919050565b61134b81610f65565b82525050565b600061135d8383611342565b60208301905092915050565b6000602082019050919050565b600061138182611316565b61138b8185611321565b935061139683611332565b8060005b838110156113c75781516113ae8882611351565b97506113b983611369565b92505060018101905061139a565b5085935050505092915050565b600060808201905081810360008301526113ee81876111ac565b9050818103602083015261140281866112a1565b905081810360408301526114168185611376565b9050818103606083015261142a8184611376565b905095945050505050565b61143e816110e1565b82525050565b60006020820190506114596000830184611435565b92915050565b600080604083850312156114765761147561105e565b5b60006114848582860161110a565b92505060206114958582860161107f565b9150509250929050565b600080fd5b600080fd5b7f4e487b7100000000000000000000000000000000000000000000000000000000600052604160045260246000fd5b6114e182610fe8565b810181811067ffffffffffffffff82111715611500576114ff6114a9565b5b80604052505050565b6000611513611054565b905061151f82826114d8565b919050565b600067ffffffffffffffff82111561153f5761153e6114a9565b5b61154882610fe8565b9050602081019050919050565b82818337600083830152505050565b600061157761157284611524565b611509565b905082815260208101848484011115611593576115926114a4565b5b61159e848285611555565b509392505050565b600082601f8301126115bb576115ba61149f565b5b81356115cb848260208601611564565b91505092915050565b6000806000606084860312156115ed576115ec61105e565b5b600084013567ffffffffffffffff81111561160b5761160a611063565b5b611617868287016115a6565b93505060206116288682870161107f565b92505060406116398682870161110a565b9150509250925092565b7f4e487b7100000000000000000000000000000000000000000000000000000000600052602260045260246000fd5b6000600282049050600182168061168a57607f821691505b6020821081141561169e5761169d611643565b5b50919050565b7f4e6f74204f776e6572206f722073656c6c657200000000000000000000000000600082015250565b60006116da601383610fa4565b91506116e5826116a4565b602082019050919050565b60006020820190508181036000830152611709816116cd565b9050919050565b7f4e6f742045434d61727420286f776e6572290000000000000000000000000000600082015250565b6000611746601283610fa4565b915061175182611710565b602082019050919050565b6000602082019050818103600083015261177581611739565b9050919050565b600063ffffffff82169050919050565b7f4e487b7100000000000000000000000000000000000000000000000000000000600052601160045260246000fd5b60006117c68261177c565b91506117d18361177c565b92508263ffffffff038211156117ea576117e961178c565b5b828201905092915050565b7f596f7520617265206e6f742061206275796572206f66207468652070726f647560008201527f6374000000000000000000000000000000000000000000000000000000000000602082015250565b6000611851602283610fa4565b915061185c826117f5565b604082019050919050565b6000602082019050818103600083015261188081611844565b9050919050565b7f596f75206861766520616c72656164792070726f76696465642072657669657760008201527f20616e6420726174696e67206f6620746869732070726f647563740000000000602082015250565b60006118e3603b83610fa4565b91506118ee82611887565b604082019050919050565b60006020820190508181036000830152611912816118d6565b9050919050565b7f526174696e672073686f756c64206265206c657373207468616e203500000000600082015250565b600061194f601c83610fa4565b915061195a82611919565b602082019050919050565b6000602082019050818103600083015261197e81611942565b905091905056fea26469706673582212202c61b9a4139ff38a87541c1e1fbd07df1badb4091addfd2a8b37619bc4f9a6d864736f6c63430008080033",
  "linkReferences": {},
  "deployedLinkReferences": {}
}