{
  "_format": "hh-sol-artifact-1",
  "contractName": "Product",
  "sourceName": "contracts/Product.sol",
  "abi": [
    {
      "inputs": [
        {
          "internalType": "string",
          "name": "_name",
          "type": "string"
        },
        {
          "internalType": "uint256",
          "name": "_price",
          "type": "uint256"
        },
        {
          "internalType": "string",
          "name": "_description",
          "type": "string"
        },
        {
          "internalType": "uint256",
          "name": "_quantity",
          "type": "uint256"
        },
        {
          "internalType": "address",
          "name": "_seller",
          "type": "address"
        },
        {
          "internalType": "address",
          "name": "_owner",
          "type": "address"
        },
        {
          "internalType": "uint256",
          "name": "_finalPrice",
          "type": "uint256"
        }
      ],
      "stateMutability": "nonpayable",
      "type": "constructor"
    },
    {
      "inputs": [
        {
          "internalType": "address",
          "name": "order_address",
          "type": "address"
        },
        {
          "internalType": "uint256",
          "name": "order_units",
          "type": "uint256"
        }
      ],
      "name": "addOrder",
      "outputs": [],
      "stateMutability": "nonpayable",
      "type": "function"
    },
    {
      "inputs": [
        {
          "internalType": "address",
          "name": "buyer_address",
          "type": "address"
        }
      ],
      "name": "enableReviewRating",
      "outputs": [],
      "stateMutability": "nonpayable",
      "type": "function"
    },
    {
      "inputs": [],
      "name": "finalProductPrice",
      "outputs": [
        {
          "internalType": "uint256",
          "name": "",
          "type": "uint256"
        }
      ],
      "stateMutability": "view",
      "type": "function"
    },
    {
      "inputs": [],
      "name": "getName",
      "outputs": [
        {
          "internalType": "string",
          "name": "",
          "type": "string"
        }
      ],
      "stateMutability": "view",
      "type": "function"
    },
    {
      "inputs": [],
      "name": "getNumOfRating",
      "outputs": [
        {
          "internalType": "uint256",
          "name": "",
          "type": "uint256"
        }
      ],
      "stateMutability": "view",
      "type": "function"
    },
    {
      "inputs": [],
      "name": "getPrice",
      "outputs": [
        {
          "internalType": "uint256",
          "name": "",
          "type": "uint256"
        }
      ],
      "stateMutability": "view",
      "type": "function"
    },
    {
      "inputs": [],
      "name": "getProductFinalPrice",
      "outputs": [
        {
          "internalType": "uint256",
          "name": "",
          "type": "uint256"
        }
      ],
      "stateMutability": "view",
      "type": "function"
    },
    {
      "inputs": [],
      "name": "getQuantity",
      "outputs": [
        {
          "internalType": "uint256",
          "name": "",
          "type": "uint256"
        }
      ],
      "stateMutability": "view",
      "type": "function"
    },
    {
      "inputs": [],
      "name": "getReviewRatingOfProduct",
      "outputs": [
        {
          "internalType": "address[]",
          "name": "",
          "type": "address[]"
        },
        {
          "internalType": "string[]",
          "name": "",
          "type": "string[]"
        },
        {
          "internalType": "uint256[]",
          "name": "",
          "type": "uint256[]"
        },
        {
          "internalType": "uint256[]",
          "name": "",
          "type": "uint256[]"
        }
      ],
      "stateMutability": "view",
      "type": "function"
    },
    {
      "inputs": [],
      "name": "getSeller",
      "outputs": [
        {
          "internalType": "address",
          "name": "",
          "type": "address"
        }
      ],
      "stateMutability": "view",
      "type": "function"
    },
    {
      "inputs": [],
      "name": "getTotalRatingSum",
      "outputs": [
        {
          "internalType": "uint256",
          "name": "",
          "type": "uint256"
        }
      ],
      "stateMutability": "view",
      "type": "function"
    },
    {
      "inputs": [
        {
          "internalType": "uint256",
          "name": "",
          "type": "uint256"
        }
      ],
      "name": "orders",
      "outputs": [
        {
          "internalType": "address",
          "name": "",
          "type": "address"
        }
      ],
      "stateMutability": "view",
      "type": "function"
    },
    {
      "inputs": [
        {
          "internalType": "string",
          "name": "_review",
          "type": "string"
        },
        {
          "internalType": "uint256",
          "name": "_rating",
          "type": "uint256"
        },
        {
          "internalType": "address",
          "name": "buyerAddress",
          "type": "address"
        }
      ],
      "name": "submitReviewRating",
      "outputs": [],
      "stateMutability": "nonpayable",
      "type": "function"
    },
    {
      "inputs": [
        {
          "internalType": "uint256",
          "name": "_quantity",
          "type": "uint256"
        }
      ],
      "name": "updateQuantity",
      "outputs": [],
      "stateMutability": "nonpayable",
      "type": "function"
    }
  ],
  "bytecode": "0x60806040523480156200001157600080fd5b5060405162001fae38038062001fae83398181016040528101906200003791906200040a565b86600090805190602001906200004f9291906200011d565b5085600181905550836002819055508460049080519060200190620000769291906200011d565b5082600560006101000a81548173ffffffffffffffffffffffffffffffffffffffff021916908373ffffffffffffffffffffffffffffffffffffffff16021790555081600660006101000a81548173ffffffffffffffffffffffffffffffffffffffff021916908373ffffffffffffffffffffffffffffffffffffffff160217905550806007819055506000600c819055506000600d819055505050505050505062000560565b8280546200012b906200052a565b90600052602060002090601f0160209004810192826200014f57600085556200019b565b82601f106200016a57805160ff19168380011785556200019b565b828001600101855582156200019b579182015b828111156200019a5782518255916020019190600101906200017d565b5b509050620001aa9190620001ae565b5090565b5b80821115620001c9576000816000905550600101620001af565b5090565b6000604051905090565b600080fd5b600080fd5b600080fd5b600080fd5b6000601f19601f8301169050919050565b7f4e487b7100000000000000000000000000000000000000000000000000000000600052604160045260246000fd5b6200023682620001eb565b810181811067ffffffffffffffff82111715620002585762000257620001fc565b5b80604052505050565b60006200026d620001cd565b90506200027b82826200022b565b919050565b600067ffffffffffffffff8211156200029e576200029d620001fc565b5b620002a982620001eb565b9050602081019050919050565b60005b83811015620002d6578082015181840152602081019050620002b9565b83811115620002e6576000848401525b50505050565b600062000303620002fd8462000280565b62000261565b905082815260208101848484011115620003225762000321620001e6565b5b6200032f848285620002b6565b509392505050565b600082601f8301126200034f576200034e620001e1565b5b815162000361848260208601620002ec565b91505092915050565b6000819050919050565b6200037f816200036a565b81146200038b57600080fd5b50565b6000815190506200039f8162000374565b92915050565b600073ffffffffffffffffffffffffffffffffffffffff82169050919050565b6000620003d282620003a5565b9050919050565b620003e481620003c5565b8114620003f057600080fd5b50565b6000815190506200040481620003d9565b92915050565b600080600080600080600060e0888a0312156200042c576200042b620001d7565b5b600088015167ffffffffffffffff8111156200044d576200044c620001dc565b5b6200045b8a828b0162000337565b97505060206200046e8a828b016200038e565b965050604088015167ffffffffffffffff811115620004925762000491620001dc565b5b620004a08a828b0162000337565b9550506060620004b38a828b016200038e565b9450506080620004c68a828b01620003f3565b93505060a0620004d98a828b01620003f3565b92505060c0620004ec8a828b016200038e565b91505092959891949750929550565b7f4e487b7100000000000000000000000000000000000000000000000000000000600052602260045260246000fd5b600060028204905060018216806200054357607f821691505b602082108114156200055a5762000559620004fb565b5b50919050565b611a3e80620005706000396000f3fe608060405234801561001057600080fd5b50600436106100ea5760003560e01c806384aa33651161008c578063db6a365211610066578063db6a36521461022c578063dbd0e1b614610248578063edbab14314610266578063f6c0f8b914610284576100ea565b806384aa3365146101c057806398d5fdca146101de578063a85c38ef146101fc576100ea565b8063317c9984116100c8578063317c99841461014757806335bcbbc81461016357806341f29618146101815780634dcc7d9d146101a2576100ea565b80630115949c146100ef57806317d7de7c1461010d57806317fa1f471461012b575b600080fd5b6100f76102a0565b6040516101049190610f62565b60405180910390f35b6101156102aa565b6040516101229190611016565b60405180910390f35b61014560048036038101906101409190611078565b61033c565b005b610161600480360381019061015c9190611103565b61042e565b005b61016b61057a565b6040516101789190610f62565b60405180910390f35b610189610584565b60405161019994939291906113b8565b60405180910390f35b6101aa6107ab565b6040516101b79190610f62565b60405180910390f35b6101c86107b5565b6040516101d59190610f62565b60405180910390f35b6101e66107bf565b6040516101f39190610f62565b60405180910390f35b61021660048036038101906102119190611078565b6108b1565b6040516102239190611428565b60405180910390f35b61024660048036038101906102419190611443565b6108f0565b005b610250610a2b565b60405161025d9190611428565b60405180910390f35b61026e610a55565b60405161027b9190610f62565b60405180910390f35b61029e600480360381019061029991906115b8565b610a5b565b005b6000600254905090565b6060600080546102b990611656565b80601f01602080910402602001604051908101604052809291908181526020018280546102e590611656565b80156103325780601f1061030757610100808354040283529160200191610332565b820191906000526020600020905b81548152906001019060200180831161031557829003601f168201915b5050505050905090565b600660009054906101000a900473ffffffffffffffffffffffffffffffffffffffff1673ffffffffffffffffffffffffffffffffffffffff163373ffffffffffffffffffffffffffffffffffffffff1614806103e55750600560009054906101000a900473ffffffffffffffffffffffffffffffffffffffff1673ffffffffffffffffffffffffffffffffffffffff163373ffffffffffffffffffffffffffffffffffffffff16145b610424576040517f08c379a000000000000000000000000000000000000000000000000000000000815260040161041b906116d4565b60405180910390fd5b8060028190555050565b600660009054906101000a900473ffffffffffffffffffffffffffffffffffffffff1673ffffffffffffffffffffffffffffffffffffffff163373ffffffffffffffffffffffffffffffffffffffff16146104be576040517f08c379a00000000000000000000000000000000000000000000000000000000081526004016104b590611740565b60405180910390fd5b6001600a60008373ffffffffffffffffffffffffffffffffffffffff1673ffffffffffffffffffffffffffffffffffffffff16815260200190815260200160002060009054906101000a900463ffffffff1661051a919061179f565b600a60008373ffffffffffffffffffffffffffffffffffffffff1673ffffffffffffffffffffffffffffffffffffffff16815260200190815260200160002060006101000a81548163ffffffff021916908363ffffffff16021790555050565b6000600d54905090565b606080606080600e600001600e600101600e600201600e6003018380548060200260200160405190810160405280929190818152602001828054801561061f57602002820191906000526020600020905b8160009054906101000a900473ffffffffffffffffffffffffffffffffffffffff1673ffffffffffffffffffffffffffffffffffffffff16815260200190600101908083116105d5575b5050505050935082805480602002602001604051908101604052809291908181526020016000905b828210156106f357838290600052602060002001805461066690611656565b80601f016020809104026020016040519081016040528092919081815260200182805461069290611656565b80156106df5780601f106106b4576101008083540402835291602001916106df565b820191906000526020600020905b8154815290600101906020018083116106c257829003601f168201915b505050505081526020019060010190610647565b5050505092508180548060200260200160405190810160405280929190818152602001828054801561074457602002820191906000526020600020905b815481526020019060010190808311610730575b505050505091508080548060200260200160405190810160405280929190818152602001828054801561079657602002820191906000526020600020905b815481526020019060010190808311610782575b50505050509050935093509350935090919293565b6000600c54905090565b6000600754905090565b6000600660009054906101000a900473ffffffffffffffffffffffffffffffffffffffff1673ffffffffffffffffffffffffffffffffffffffff163373ffffffffffffffffffffffffffffffffffffffff16148061086a5750600560009054906101000a900473ffffffffffffffffffffffffffffffffffffffff1673ffffffffffffffffffffffffffffffffffffffff163373ffffffffffffffffffffffffffffffffffffffff16145b6108a9576040517f08c379a00000000000000000000000000000000000000000000000000000000081526004016108a0906116d4565b60405180910390fd5b600154905090565b600981815481106108c157600080fd5b906000526020600020016000915054906101000a900473ffffffffffffffffffffffffffffffffffffffff1681565b600660009054906101000a900473ffffffffffffffffffffffffffffffffffffffff1673ffffffffffffffffffffffffffffffffffffffff163373ffffffffffffffffffffffffffffffffffffffff1614610980576040517f08c379a000000000000000000000000000000000000000000000000000000000815260040161097790611740565b60405180910390fd5b6009829080600181540180825580915050600190039060005260206000200160009091909190916101000a81548173ffffffffffffffffffffffffffffffffffffffff021916908373ffffffffffffffffffffffffffffffffffffffff16021790555080600860008473ffffffffffffffffffffffffffffffffffffffff1673ffffffffffffffffffffffffffffffffffffffff168152602001908152602001600020819055505050565b6000600560009054906101000a900473ffffffffffffffffffffffffffffffffffffffff16905090565b60075481565b600660009054906101000a900473ffffffffffffffffffffffffffffffffffffffff1673ffffffffffffffffffffffffffffffffffffffff163373ffffffffffffffffffffffffffffffffffffffff1614610aeb576040517f08c379a0000000000000000000000000000000000000000000000000000000008152600401610ae290611740565b60405180910390fd5b6000600a60008373ffffffffffffffffffffffffffffffffffffffff1673ffffffffffffffffffffffffffffffffffffffff16815260200190815260200160002060009054906101000a900463ffffffff1663ffffffff161415610b84576040517f08c379a0000000000000000000000000000000000000000000000000000000008152600401610b7b9061184b565b60405180910390fd5b600b60008273ffffffffffffffffffffffffffffffffffffffff1673ffffffffffffffffffffffffffffffffffffffff16815260200190815260200160002060009054906101000a900463ffffffff1663ffffffff16600a60008373ffffffffffffffffffffffffffffffffffffffff1673ffffffffffffffffffffffffffffffffffffffff16815260200190815260200160002060009054906101000a900463ffffffff1663ffffffff1611610c70576040517f08c379a0000000000000000000000000000000000000000000000000000000008152600401610c67906118dd565b60405180910390fd5b6005821115610cb4576040517f08c379a0000000000000000000000000000000000000000000000000000000008152600401610cab90611949565b60405180910390fd5b6000429050600e600001829080600181540180825580915050600190039060005260206000200160009091909190916101000a81548173ffffffffffffffffffffffffffffffffffffffff021916908373ffffffffffffffffffffffffffffffffffffffff160217905550600e60010184908060018154018082558091505060019003906000526020600020016000909190919091509080519060200190610d5d929190610ea6565b50600e600201839080600181540180825580915050600190039060005260206000200160009091909190915055600e6003018190806001815401808255809150506001900390600052602060002001600090919091909150556001600b60008473ffffffffffffffffffffffffffffffffffffffff1673ffffffffffffffffffffffffffffffffffffffff16815260200190815260200160002060009054906101000a900463ffffffff16610e12919061179f565b600b60008473ffffffffffffffffffffffffffffffffffffffff1673ffffffffffffffffffffffffffffffffffffffff16815260200190815260200160002060006101000a81548163ffffffff021916908363ffffffff16021790555082600c6000828254610e819190611969565b92505081905550600d6000815480929190610e9b906119bf565b919050555050505050565b828054610eb290611656565b90600052602060002090601f016020900481019282610ed45760008555610f1b565b82601f10610eed57805160ff1916838001178555610f1b565b82800160010185558215610f1b579182015b82811115610f1a578251825591602001919060010190610eff565b5b509050610f289190610f2c565b5090565b5b80821115610f45576000816000905550600101610f2d565b5090565b6000819050919050565b610f5c81610f49565b82525050565b6000602082019050610f776000830184610f53565b92915050565b600081519050919050565b600082825260208201905092915050565b60005b83811015610fb7578082015181840152602081019050610f9c565b83811115610fc6576000848401525b50505050565b6000601f19601f8301169050919050565b6000610fe882610f7d565b610ff28185610f88565b9350611002818560208601610f99565b61100b81610fcc565b840191505092915050565b600060208201905081810360008301526110308184610fdd565b905092915050565b6000604051905090565b600080fd5b600080fd5b61105581610f49565b811461106057600080fd5b50565b6000813590506110728161104c565b92915050565b60006020828403121561108e5761108d611042565b5b600061109c84828501611063565b91505092915050565b600073ffffffffffffffffffffffffffffffffffffffff82169050919050565b60006110d0826110a5565b9050919050565b6110e0816110c5565b81146110eb57600080fd5b50565b6000813590506110fd816110d7565b92915050565b60006020828403121561111957611118611042565b5b6000611127848285016110ee565b91505092915050565b600081519050919050565b600082825260208201905092915050565b6000819050602082019050919050565b611165816110c5565b82525050565b6000611177838361115c565b60208301905092915050565b6000602082019050919050565b600061119b82611130565b6111a5818561113b565b93506111b08361114c565b8060005b838110156111e15781516111c8888261116b565b97506111d383611183565b9250506001810190506111b4565b5085935050505092915050565b600081519050919050565b600082825260208201905092915050565b6000819050602082019050919050565b600082825260208201905092915050565b600061123682610f7d565b611240818561121a565b9350611250818560208601610f99565b61125981610fcc565b840191505092915050565b6000611270838361122b565b905092915050565b6000602082019050919050565b6000611290826111ee565b61129a81856111f9565b9350836020820285016112ac8561120a565b8060005b858110156112e857848403895281516112c98582611264565b94506112d483611278565b925060208a019950506001810190506112b0565b50829750879550505050505092915050565b600081519050919050565b600082825260208201905092915050565b6000819050602082019050919050565b61132f81610f49565b82525050565b60006113418383611326565b60208301905092915050565b6000602082019050919050565b6000611365826112fa565b61136f8185611305565b935061137a83611316565b8060005b838110156113ab5781516113928882611335565b975061139d8361134d565b92505060018101905061137e565b5085935050505092915050565b600060808201905081810360008301526113d28187611190565b905081810360208301526113e68186611285565b905081810360408301526113fa818561135a565b9050818103606083015261140e818461135a565b905095945050505050565b611422816110c5565b82525050565b600060208201905061143d6000830184611419565b92915050565b6000806040838503121561145a57611459611042565b5b6000611468858286016110ee565b925050602061147985828601611063565b9150509250929050565b600080fd5b600080fd5b7f4e487b7100000000000000000000000000000000000000000000000000000000600052604160045260246000fd5b6114c582610fcc565b810181811067ffffffffffffffff821117156114e4576114e361148d565b5b80604052505050565b60006114f7611038565b905061150382826114bc565b919050565b600067ffffffffffffffff8211156115235761152261148d565b5b61152c82610fcc565b9050602081019050919050565b82818337600083830152505050565b600061155b61155684611508565b6114ed565b90508281526020810184848401111561157757611576611488565b5b611582848285611539565b509392505050565b600082601f83011261159f5761159e611483565b5b81356115af848260208601611548565b91505092915050565b6000806000606084860312156115d1576115d0611042565b5b600084013567ffffffffffffffff8111156115ef576115ee611047565b5b6115fb8682870161158a565b935050602061160c86828701611063565b925050604061161d868287016110ee565b9150509250925092565b7f4e487b7100000000000000000000000000000000000000000000000000000000600052602260045260246000fd5b6000600282049050600182168061166e57607f821691505b6020821081141561168257611681611627565b5b50919050565b7f4e6f74204f776e6572206f722073656c6c657200000000000000000000000000600082015250565b60006116be601383610f88565b91506116c982611688565b602082019050919050565b600060208201905081810360008301526116ed816116b1565b9050919050565b7f4e6f742045434d61727420286f776e6572290000000000000000000000000000600082015250565b600061172a601283610f88565b9150611735826116f4565b602082019050919050565b600060208201905081810360008301526117598161171d565b9050919050565b600063ffffffff82169050919050565b7f4e487b7100000000000000000000000000000000000000000000000000000000600052601160045260246000fd5b60006117aa82611760565b91506117b583611760565b92508263ffffffff038211156117ce576117cd611770565b5b828201905092915050565b7f596f7520617265206e6f742061206275796572206f66207468652070726f647560008201527f6374000000000000000000000000000000000000000000000000000000000000602082015250565b6000611835602283610f88565b9150611840826117d9565b604082019050919050565b6000602082019050818103600083015261186481611828565b9050919050565b7f596f75206861766520616c72656164792070726f76696465642072657669657760008201527f20616e6420726174696e67206f6620746869732070726f647563740000000000602082015250565b60006118c7603b83610f88565b91506118d28261186b565b604082019050919050565b600060208201905081810360008301526118f6816118ba565b9050919050565b7f526174696e672073686f756c64206265206c657373207468616e203500000000600082015250565b6000611933601c83610f88565b915061193e826118fd565b602082019050919050565b6000602082019050818103600083015261196281611926565b9050919050565b600061197482610f49565b915061197f83610f49565b9250827fffffffffffffffffffffffffffffffffffffffffffffffffffffffffffffffff038211156119b4576119b3611770565b5b828201905092915050565b60006119ca82610f49565b91507fffffffffffffffffffffffffffffffffffffffffffffffffffffffffffffffff8214156119fd576119fc611770565b5b60018201905091905056fea26469706673582212205a0577c53622d2556de9cdc66ee4cc8e7536b9e8a8fa4450689d14ad15b485d464736f6c63430008080033",
  "linkReferences": {},
  "deployedLinkReferences": {}
}