{
	"contracts/sendToSellerAfter3days.sol": {
		"AutomatedFundsTransfer": {
			"abi": [
				{
					"inputs": [
						{
							"internalType": "address",
							"name": "_recipient",
							"type": "address"
						}
					],
					"stateMutability": "nonpayable",
					"type": "constructor"
				},
				{
					"inputs": [],
					"name": "fundsTransferred",
					"outputs": [
						{
							"internalType": "bool",
							"name": "",
							"type": "bool"
						}
					],
					"stateMutability": "view",
					"type": "function"
				},
				{
					"inputs": [],
					"name": "recipient",
					"outputs": [
						{
							"internalType": "address",
							"name": "",
							"type": "address"
						}
					],
					"stateMutability": "view",
					"type": "function"
				},
				{
					"inputs": [],
					"name": "startTime",
					"outputs": [
						{
							"internalType": "uint256",
							"name": "",
							"type": "uint256"
						}
					],
					"stateMutability": "view",
					"type": "function"
				},
				{
					"inputs": [],
					"name": "transferFunds",
					"outputs": [],
					"stateMutability": "nonpayable",
					"type": "function"
				},
				{
					"inputs": [],
					"name": "withdrawTime",
					"outputs": [
						{
							"internalType": "uint256",
							"name": "",
							"type": "uint256"
						}
					],
					"stateMutability": "view",
					"type": "function"
				},
				{
					"stateMutability": "payable",
					"type": "receive"
				}
			],
			"devdoc": {
				"kind": "dev",
				"methods": {},
				"version": 1
			},
			"evm": {
				"assembly": "    /* \"contracts/sendToSellerAfter3days.sol\":57:1412  contract AutomatedFundsTransfer {... */\n  mstore(0x40, 0x80)\n    /* \"contracts/sendToSellerAfter3days.sol\":254:556  constructor(address _recipient) {... */\n  callvalue\n  dup1\n  iszero\n  tag_1\n  jumpi\n  0x00\n  dup1\n  revert\ntag_1:\n  pop\n  mload(0x40)\n  sub(codesize, bytecodeSize)\n  dup1\n  bytecodeSize\n  dup4\n  codecopy\n  dup2\n  dup2\n  add\n  0x40\n  mstore\n  dup2\n  add\n  swap1\n  tag_2\n  swap2\n  swap1\n  tag_3\n  jump\t// in\ntag_2:\n    /* \"contracts/sendToSellerAfter3days.sol\":326:327  0 */\n  0x00\n    /* \"contracts/sendToSellerAfter3days.sol\":304:328  _recipient != address(0) */\n  0xffffffffffffffffffffffffffffffffffffffff\n  and\n    /* \"contracts/sendToSellerAfter3days.sol\":304:314  _recipient */\n  dup2\n    /* \"contracts/sendToSellerAfter3days.sol\":304:328  _recipient != address(0) */\n  0xffffffffffffffffffffffffffffffffffffffff\n  and\n  sub\n    /* \"contracts/sendToSellerAfter3days.sol\":296:358  require(_recipient != address(0), \"Invalid recipient address\") */\n  tag_6\n  jumpi\n  mload(0x40)\n  0x08c379a000000000000000000000000000000000000000000000000000000000\n  dup2\n  mstore\n  0x04\n  add\n  tag_7\n  swap1\n  tag_8\n  jump\t// in\ntag_7:\n  mload(0x40)\n  dup1\n  swap2\n  sub\n  swap1\n  revert\ntag_6:\n    /* \"contracts/sendToSellerAfter3days.sol\":380:390  _recipient */\n  dup1\n    /* \"contracts/sendToSellerAfter3days.sol\":368:377  recipient */\n  0x00\n  dup1\n    /* \"contracts/sendToSellerAfter3days.sol\":368:390  recipient = _recipient */\n  0x0100\n  exp\n  dup2\n  sload\n  dup2\n  0xffffffffffffffffffffffffffffffffffffffff\n  mul\n  not\n  and\n  swap1\n  dup4\n  0xffffffffffffffffffffffffffffffffffffffff\n  and\n  mul\n  or\n  swap1\n  sstore\n  pop\n    /* \"contracts/sendToSellerAfter3days.sol\":544:549  false */\n  0x00\n    /* \"contracts/sendToSellerAfter3days.sol\":525:541  fundsTransferred */\n  0x03\n  0x00\n    /* \"contracts/sendToSellerAfter3days.sol\":525:549  fundsTransferred = false */\n  0x0100\n  exp\n  dup2\n  sload\n  dup2\n  0xff\n  mul\n  not\n  and\n  swap1\n  dup4\n  iszero\n  iszero\n  mul\n  or\n  swap1\n  sstore\n  pop\n    /* \"contracts/sendToSellerAfter3days.sol\":254:556  constructor(address _recipient) {... */\n  pop\n    /* \"contracts/sendToSellerAfter3days.sol\":57:1412  contract AutomatedFundsTransfer {... */\n  jump(tag_9)\n    /* \"#utility.yul\":88:205   */\ntag_11:\n    /* \"#utility.yul\":197:198   */\n  0x00\n    /* \"#utility.yul\":194:195   */\n  dup1\n    /* \"#utility.yul\":187:199   */\n  revert\n    /* \"#utility.yul\":334:460   */\ntag_13:\n    /* \"#utility.yul\":371:378   */\n  0x00\n    /* \"#utility.yul\":411:453   */\n  0xffffffffffffffffffffffffffffffffffffffff\n    /* \"#utility.yul\":404:409   */\n  dup3\n    /* \"#utility.yul\":400:454   */\n  and\n    /* \"#utility.yul\":389:454   */\n  swap1\n  pop\n    /* \"#utility.yul\":334:460   */\n  swap2\n  swap1\n  pop\n  jump\t// out\n    /* \"#utility.yul\":466:562   */\ntag_14:\n    /* \"#utility.yul\":503:510   */\n  0x00\n    /* \"#utility.yul\":532:556   */\n  tag_26\n    /* \"#utility.yul\":550:555   */\n  dup3\n    /* \"#utility.yul\":532:556   */\n  tag_13\n  jump\t// in\ntag_26:\n    /* \"#utility.yul\":521:556   */\n  swap1\n  pop\n    /* \"#utility.yul\":466:562   */\n  swap2\n  swap1\n  pop\n  jump\t// out\n    /* \"#utility.yul\":568:690   */\ntag_15:\n    /* \"#utility.yul\":641:665   */\n  tag_28\n    /* \"#utility.yul\":659:664   */\n  dup2\n    /* \"#utility.yul\":641:665   */\n  tag_14\n  jump\t// in\ntag_28:\n    /* \"#utility.yul\":634:639   */\n  dup2\n    /* \"#utility.yul\":631:666   */\n  eq\n    /* \"#utility.yul\":621:684   */\n  tag_29\n  jumpi\n    /* \"#utility.yul\":680:681   */\n  0x00\n    /* \"#utility.yul\":677:678   */\n  dup1\n    /* \"#utility.yul\":670:682   */\n  revert\n    /* \"#utility.yul\":621:684   */\ntag_29:\n    /* \"#utility.yul\":568:690   */\n  pop\n  jump\t// out\n    /* \"#utility.yul\":696:839   */\ntag_16:\n    /* \"#utility.yul\":753:758   */\n  0x00\n    /* \"#utility.yul\":784:790   */\n  dup2\n    /* \"#utility.yul\":778:791   */\n  mload\n    /* \"#utility.yul\":769:791   */\n  swap1\n  pop\n    /* \"#utility.yul\":800:833   */\n  tag_31\n    /* \"#utility.yul\":827:832   */\n  dup2\n    /* \"#utility.yul\":800:833   */\n  tag_15\n  jump\t// in\ntag_31:\n    /* \"#utility.yul\":696:839   */\n  swap3\n  swap2\n  pop\n  pop\n  jump\t// out\n    /* \"#utility.yul\":845:1196   */\ntag_3:\n    /* \"#utility.yul\":915:921   */\n  0x00\n    /* \"#utility.yul\":964:966   */\n  0x20\n    /* \"#utility.yul\":952:961   */\n  dup3\n    /* \"#utility.yul\":943:950   */\n  dup5\n    /* \"#utility.yul\":939:962   */\n  sub\n    /* \"#utility.yul\":935:967   */\n  slt\n    /* \"#utility.yul\":932:1051   */\n  iszero\n  tag_33\n  jumpi\n    /* \"#utility.yul\":970:1049   */\n  tag_34\n  tag_11\n  jump\t// in\ntag_34:\n    /* \"#utility.yul\":932:1051   */\ntag_33:\n    /* \"#utility.yul\":1090:1091   */\n  0x00\n    /* \"#utility.yul\":1115:1179   */\n  tag_35\n    /* \"#utility.yul\":1171:1178   */\n  dup5\n    /* \"#utility.yul\":1162:1168   */\n  dup3\n    /* \"#utility.yul\":1151:1160   */\n  dup6\n    /* \"#utility.yul\":1147:1169   */\n  add\n    /* \"#utility.yul\":1115:1179   */\n  tag_16\n  jump\t// in\ntag_35:\n    /* \"#utility.yul\":1105:1179   */\n  swap2\n  pop\n    /* \"#utility.yul\":1061:1189   */\n  pop\n    /* \"#utility.yul\":845:1196   */\n  swap3\n  swap2\n  pop\n  pop\n  jump\t// out\n    /* \"#utility.yul\":1202:1371   */\ntag_17:\n    /* \"#utility.yul\":1286:1297   */\n  0x00\n    /* \"#utility.yul\":1320:1326   */\n  dup3\n    /* \"#utility.yul\":1315:1318   */\n  dup3\n    /* \"#utility.yul\":1308:1327   */\n  mstore\n    /* \"#utility.yul\":1360:1364   */\n  0x20\n    /* \"#utility.yul\":1355:1358   */\n  dup3\n    /* \"#utility.yul\":1351:1365   */\n  add\n    /* \"#utility.yul\":1336:1365   */\n  swap1\n  pop\n    /* \"#utility.yul\":1202:1371   */\n  swap3\n  swap2\n  pop\n  pop\n  jump\t// out\n    /* \"#utility.yul\":1377:1552   */\ntag_18:\n    /* \"#utility.yul\":1517:1544   */\n  0x496e76616c696420726563697069656e74206164647265737300000000000000\n    /* \"#utility.yul\":1513:1514   */\n  0x00\n    /* \"#utility.yul\":1505:1511   */\n  dup3\n    /* \"#utility.yul\":1501:1515   */\n  add\n    /* \"#utility.yul\":1494:1545   */\n  mstore\n    /* \"#utility.yul\":1377:1552   */\n  pop\n  jump\t// out\n    /* \"#utility.yul\":1558:1924   */\ntag_19:\n    /* \"#utility.yul\":1700:1703   */\n  0x00\n    /* \"#utility.yul\":1721:1788   */\n  tag_39\n    /* \"#utility.yul\":1785:1787   */\n  0x19\n    /* \"#utility.yul\":1780:1783   */\n  dup4\n    /* \"#utility.yul\":1721:1788   */\n  tag_17\n  jump\t// in\ntag_39:\n    /* \"#utility.yul\":1714:1788   */\n  swap2\n  pop\n    /* \"#utility.yul\":1797:1890   */\n  tag_40\n    /* \"#utility.yul\":1886:1889   */\n  dup3\n    /* \"#utility.yul\":1797:1890   */\n  tag_18\n  jump\t// in\ntag_40:\n    /* \"#utility.yul\":1915:1917   */\n  0x20\n    /* \"#utility.yul\":1910:1913   */\n  dup3\n    /* \"#utility.yul\":1906:1918   */\n  add\n    /* \"#utility.yul\":1899:1918   */\n  swap1\n  pop\n    /* \"#utility.yul\":1558:1924   */\n  swap2\n  swap1\n  pop\n  jump\t// out\n    /* \"#utility.yul\":1930:2349   */\ntag_8:\n    /* \"#utility.yul\":2096:2100   */\n  0x00\n    /* \"#utility.yul\":2134:2136   */\n  0x20\n    /* \"#utility.yul\":2123:2132   */\n  dup3\n    /* \"#utility.yul\":2119:2137   */\n  add\n    /* \"#utility.yul\":2111:2137   */\n  swap1\n  pop\n    /* \"#utility.yul\":2183:2192   */\n  dup2\n    /* \"#utility.yul\":2177:2181   */\n  dup2\n    /* \"#utility.yul\":2173:2193   */\n  sub\n    /* \"#utility.yul\":2169:2170   */\n  0x00\n    /* \"#utility.yul\":2158:2167   */\n  dup4\n    /* \"#utility.yul\":2154:2171   */\n  add\n    /* \"#utility.yul\":2147:2194   */\n  mstore\n    /* \"#utility.yul\":2211:2342   */\n  tag_42\n    /* \"#utility.yul\":2337:2341   */\n  dup2\n    /* \"#utility.yul\":2211:2342   */\n  tag_19\n  jump\t// in\ntag_42:\n    /* \"#utility.yul\":2203:2342   */\n  swap1\n  pop\n    /* \"#utility.yul\":1930:2349   */\n  swap2\n  swap1\n  pop\n  jump\t// out\n    /* \"contracts/sendToSellerAfter3days.sol\":57:1412  contract AutomatedFundsTransfer {... */\ntag_9:\n  dataSize(sub_0)\n  dup1\n  dataOffset(sub_0)\n  0x00\n  codecopy\n  0x00\n  return\nstop\n\nsub_0: assembly {\n        /* \"contracts/sendToSellerAfter3days.sol\":57:1412  contract AutomatedFundsTransfer {... */\n      mstore(0x40, 0x80)\n      jumpi(tag_1, lt(calldatasize, 0x04))\n      shr(0xe0, calldataload(0x00))\n      dup1\n      0x073a11aa\n      eq\n      tag_3\n      jumpi\n      dup1\n      0x3c68eb81\n      eq\n      tag_4\n      jumpi\n      dup1\n      0x45cb3dde\n      eq\n      tag_5\n      jumpi\n      dup1\n      0x66d003ac\n      eq\n      tag_6\n      jumpi\n      dup1\n      0x78e97925\n      eq\n      tag_7\n      jumpi\n      jump(tag_2)\n    tag_1:\n      jumpi(tag_2, calldatasize)\n        /* \"contracts/sendToSellerAfter3days.sol\":686:701  block.timestamp */\n      timestamp\n        /* \"contracts/sendToSellerAfter3days.sol\":674:683  startTime */\n      0x01\n        /* \"contracts/sendToSellerAfter3days.sol\":674:701  startTime = block.timestamp */\n      dup2\n      swap1\n      sstore\n      pop\n        /* \"contracts/sendToSellerAfter3days.sol\":738:744  3 days */\n      0x03f480\n        /* \"contracts/sendToSellerAfter3days.sol\":726:735  startTime */\n      sload(0x01)\n        /* \"contracts/sendToSellerAfter3days.sol\":726:744  startTime + 3 days */\n      tag_10\n      swap2\n      swap1\n      tag_11\n      jump\t// in\n    tag_10:\n        /* \"contracts/sendToSellerAfter3days.sol\":711:723  withdrawTime */\n      0x02\n        /* \"contracts/sendToSellerAfter3days.sol\":711:744  withdrawTime = startTime + 3 days */\n      dup2\n      swap1\n      sstore\n      stop\n        /* \"contracts/sendToSellerAfter3days.sol\":57:1412  contract AutomatedFundsTransfer {... */\n    tag_2:\n      0x00\n      dup1\n      revert\n        /* \"contracts/sendToSellerAfter3days.sol\":219:247  bool public fundsTransferred */\n    tag_3:\n      callvalue\n      dup1\n      iszero\n      tag_12\n      jumpi\n      0x00\n      dup1\n      revert\n    tag_12:\n      pop\n      tag_13\n      tag_14\n      jump\t// in\n    tag_13:\n      mload(0x40)\n      tag_15\n      swap2\n      swap1\n      tag_16\n      jump\t// in\n    tag_15:\n      mload(0x40)\n      dup1\n      swap2\n      sub\n      swap1\n      return\n        /* \"contracts/sendToSellerAfter3days.sol\":757:1410  function transferFunds() external {... */\n    tag_4:\n      callvalue\n      dup1\n      iszero\n      tag_17\n      jumpi\n      0x00\n      dup1\n      revert\n    tag_17:\n      pop\n      tag_18\n      tag_19\n      jump\t// in\n    tag_18:\n      stop\n        /* \"contracts/sendToSellerAfter3days.sol\":186:213  uint256 public withdrawTime */\n    tag_5:\n      callvalue\n      dup1\n      iszero\n      tag_20\n      jumpi\n      0x00\n      dup1\n      revert\n    tag_20:\n      pop\n      tag_21\n      tag_22\n      jump\t// in\n    tag_21:\n      mload(0x40)\n      tag_23\n      swap2\n      swap1\n      tag_24\n      jump\t// in\n    tag_23:\n      mload(0x40)\n      dup1\n      swap2\n      sub\n      swap1\n      return\n        /* \"contracts/sendToSellerAfter3days.sol\":95:119  address public recipient */\n    tag_6:\n      callvalue\n      dup1\n      iszero\n      tag_25\n      jumpi\n      0x00\n      dup1\n      revert\n    tag_25:\n      pop\n      tag_26\n      tag_27\n      jump\t// in\n    tag_26:\n      mload(0x40)\n      tag_28\n      swap2\n      swap1\n      tag_29\n      jump\t// in\n    tag_28:\n      mload(0x40)\n      dup1\n      swap2\n      sub\n      swap1\n      return\n        /* \"contracts/sendToSellerAfter3days.sol\":125:149  uint256 public startTime */\n    tag_7:\n      callvalue\n      dup1\n      iszero\n      tag_30\n      jumpi\n      0x00\n      dup1\n      revert\n    tag_30:\n      pop\n      tag_31\n      tag_32\n      jump\t// in\n    tag_31:\n      mload(0x40)\n      tag_33\n      swap2\n      swap1\n      tag_24\n      jump\t// in\n    tag_33:\n      mload(0x40)\n      dup1\n      swap2\n      sub\n      swap1\n      return\n        /* \"contracts/sendToSellerAfter3days.sol\":219:247  bool public fundsTransferred */\n    tag_14:\n      0x03\n      0x00\n      swap1\n      sload\n      swap1\n      0x0100\n      exp\n      swap1\n      div\n      0xff\n      and\n      dup2\n      jump\t// out\n        /* \"contracts/sendToSellerAfter3days.sol\":757:1410  function transferFunds() external {... */\n    tag_19:\n        /* \"contracts/sendToSellerAfter3days.sol\":1051:1063  withdrawTime */\n      sload(0x02)\n        /* \"contracts/sendToSellerAfter3days.sol\":1032:1047  block.timestamp */\n      timestamp\n        /* \"contracts/sendToSellerAfter3days.sol\":1032:1063  block.timestamp >= withdrawTime */\n      lt\n      iszero\n        /* \"contracts/sendToSellerAfter3days.sol\":1024:1113  require(block.timestamp >= withdrawTime,  \"Waiting PERIOD for Fund Transfer is not over\") */\n      tag_35\n      jumpi\n      mload(0x40)\n      0x08c379a000000000000000000000000000000000000000000000000000000000\n      dup2\n      mstore\n      0x04\n      add\n      tag_36\n      swap1\n      tag_37\n      jump\t// in\n    tag_36:\n      mload(0x40)\n      dup1\n      swap2\n      sub\n      swap1\n      revert\n    tag_35:\n        /* \"contracts/sendToSellerAfter3days.sol\":1132:1148  fundsTransferred */\n      0x03\n      0x00\n      swap1\n      sload\n      swap1\n      0x0100\n      exp\n      swap1\n      div\n      0xff\n      and\n        /* \"contracts/sendToSellerAfter3days.sol\":1131:1148  !fundsTransferred */\n      iszero\n        /* \"contracts/sendToSellerAfter3days.sol\":1123:1178  require(!fundsTransferred, \"Funds already transferred\") */\n      tag_38\n      jumpi\n      mload(0x40)\n      0x08c379a000000000000000000000000000000000000000000000000000000000\n      dup2\n      mstore\n      0x04\n      add\n      tag_39\n      swap1\n      tag_40\n      jump\t// in\n    tag_39:\n      mload(0x40)\n      dup1\n      swap2\n      sub\n      swap1\n      revert\n    tag_38:\n        /* \"contracts/sendToSellerAfter3days.sol\":1258:1270  bool success */\n      0x00\n        /* \"contracts/sendToSellerAfter3days.sol\":1276:1285  recipient */\n      dup1\n      0x00\n      swap1\n      sload\n      swap1\n      0x0100\n      exp\n      swap1\n      div\n      0xffffffffffffffffffffffffffffffffffffffff\n      and\n        /* \"contracts/sendToSellerAfter3days.sol\":1276:1290  recipient.call */\n      0xffffffffffffffffffffffffffffffffffffffff\n      and\n        /* \"contracts/sendToSellerAfter3days.sol\":1298:1319  address(this).balance */\n      selfbalance\n        /* \"contracts/sendToSellerAfter3days.sol\":1276:1324  recipient.call{value: address(this).balance}(\"\") */\n      mload(0x40)\n      tag_41\n      swap1\n      tag_42\n      jump\t// in\n    tag_41:\n      0x00\n      mload(0x40)\n      dup1\n      dup4\n      sub\n      dup2\n      dup6\n      dup8\n      gas\n      call\n      swap3\n      pop\n      pop\n      pop\n      returndatasize\n      dup1\n      0x00\n      dup2\n      eq\n      tag_45\n      jumpi\n      mload(0x40)\n      swap2\n      pop\n      and(add(returndatasize, 0x3f), not(0x1f))\n      dup3\n      add\n      0x40\n      mstore\n      returndatasize\n      dup3\n      mstore\n      returndatasize\n      0x00\n      0x20\n      dup5\n      add\n      returndatacopy\n      jump(tag_44)\n    tag_45:\n      0x60\n      swap2\n      pop\n    tag_44:\n      pop\n        /* \"contracts/sendToSellerAfter3days.sol\":1257:1324  (bool success, ) = recipient.call{value: address(this).balance}(\"\") */\n      pop\n      swap1\n      pop\n        /* \"contracts/sendToSellerAfter3days.sol\":1342:1349  success */\n      dup1\n        /* \"contracts/sendToSellerAfter3days.sol\":1334:1369  require(success, \"Transfer failed\") */\n      tag_46\n      jumpi\n      mload(0x40)\n      0x08c379a000000000000000000000000000000000000000000000000000000000\n      dup2\n      mstore\n      0x04\n      add\n      tag_47\n      swap1\n      tag_48\n      jump\t// in\n    tag_47:\n      mload(0x40)\n      dup1\n      swap2\n      sub\n      swap1\n      revert\n    tag_46:\n        /* \"contracts/sendToSellerAfter3days.sol\":1399:1403  true */\n      0x01\n        /* \"contracts/sendToSellerAfter3days.sol\":1380:1396  fundsTransferred */\n      0x03\n      0x00\n        /* \"contracts/sendToSellerAfter3days.sol\":1380:1403  fundsTransferred = true */\n      0x0100\n      exp\n      dup2\n      sload\n      dup2\n      0xff\n      mul\n      not\n      and\n      swap1\n      dup4\n      iszero\n      iszero\n      mul\n      or\n      swap1\n      sstore\n      pop\n        /* \"contracts/sendToSellerAfter3days.sol\":791:1410  {... */\n      pop\n        /* \"contracts/sendToSellerAfter3days.sol\":757:1410  function transferFunds() external {... */\n      jump\t// out\n        /* \"contracts/sendToSellerAfter3days.sol\":186:213  uint256 public withdrawTime */\n    tag_22:\n      sload(0x02)\n      dup2\n      jump\t// out\n        /* \"contracts/sendToSellerAfter3days.sol\":95:119  address public recipient */\n    tag_27:\n      0x00\n      dup1\n      sload\n      swap1\n      0x0100\n      exp\n      swap1\n      div\n      0xffffffffffffffffffffffffffffffffffffffff\n      and\n      dup2\n      jump\t// out\n        /* \"contracts/sendToSellerAfter3days.sol\":125:149  uint256 public startTime */\n    tag_32:\n      sload(0x01)\n      dup2\n      jump\t// out\n        /* \"#utility.yul\":7:84   */\n    tag_49:\n        /* \"#utility.yul\":44:51   */\n      0x00\n        /* \"#utility.yul\":73:78   */\n      dup2\n        /* \"#utility.yul\":62:78   */\n      swap1\n      pop\n        /* \"#utility.yul\":7:84   */\n      swap2\n      swap1\n      pop\n      jump\t// out\n        /* \"#utility.yul\":90:270   */\n    tag_50:\n        /* \"#utility.yul\":138:215   */\n      0x4e487b7100000000000000000000000000000000000000000000000000000000\n        /* \"#utility.yul\":135:136   */\n      0x00\n        /* \"#utility.yul\":128:216   */\n      mstore\n        /* \"#utility.yul\":235:239   */\n      0x11\n        /* \"#utility.yul\":232:233   */\n      0x04\n        /* \"#utility.yul\":225:240   */\n      mstore\n        /* \"#utility.yul\":259:263   */\n      0x24\n        /* \"#utility.yul\":256:257   */\n      0x00\n        /* \"#utility.yul\":249:264   */\n      revert\n        /* \"#utility.yul\":276:467   */\n    tag_11:\n        /* \"#utility.yul\":316:319   */\n      0x00\n        /* \"#utility.yul\":335:355   */\n      tag_71\n        /* \"#utility.yul\":353:354   */\n      dup3\n        /* \"#utility.yul\":335:355   */\n      tag_49\n      jump\t// in\n    tag_71:\n        /* \"#utility.yul\":330:355   */\n      swap2\n      pop\n        /* \"#utility.yul\":369:389   */\n      tag_72\n        /* \"#utility.yul\":387:388   */\n      dup4\n        /* \"#utility.yul\":369:389   */\n      tag_49\n      jump\t// in\n    tag_72:\n        /* \"#utility.yul\":364:389   */\n      swap3\n      pop\n        /* \"#utility.yul\":412:413   */\n      dup3\n        /* \"#utility.yul\":409:410   */\n      dup3\n        /* \"#utility.yul\":405:414   */\n      add\n        /* \"#utility.yul\":398:414   */\n      swap1\n      pop\n        /* \"#utility.yul\":433:436   */\n      dup1\n        /* \"#utility.yul\":430:431   */\n      dup3\n        /* \"#utility.yul\":427:437   */\n      gt\n        /* \"#utility.yul\":424:460   */\n      iszero\n      tag_73\n      jumpi\n        /* \"#utility.yul\":440:458   */\n      tag_74\n      tag_50\n      jump\t// in\n    tag_74:\n        /* \"#utility.yul\":424:460   */\n    tag_73:\n        /* \"#utility.yul\":276:467   */\n      swap3\n      swap2\n      pop\n      pop\n      jump\t// out\n        /* \"#utility.yul\":473:563   */\n    tag_51:\n        /* \"#utility.yul\":507:514   */\n      0x00\n        /* \"#utility.yul\":550:555   */\n      dup2\n        /* \"#utility.yul\":543:556   */\n      iszero\n        /* \"#utility.yul\":536:557   */\n      iszero\n        /* \"#utility.yul\":525:557   */\n      swap1\n      pop\n        /* \"#utility.yul\":473:563   */\n      swap2\n      swap1\n      pop\n      jump\t// out\n        /* \"#utility.yul\":569:678   */\n    tag_52:\n        /* \"#utility.yul\":650:671   */\n      tag_77\n        /* \"#utility.yul\":665:670   */\n      dup2\n        /* \"#utility.yul\":650:671   */\n      tag_51\n      jump\t// in\n    tag_77:\n        /* \"#utility.yul\":645:648   */\n      dup3\n        /* \"#utility.yul\":638:672   */\n      mstore\n        /* \"#utility.yul\":569:678   */\n      pop\n      pop\n      jump\t// out\n        /* \"#utility.yul\":684:894   */\n    tag_16:\n        /* \"#utility.yul\":771:775   */\n      0x00\n        /* \"#utility.yul\":809:811   */\n      0x20\n        /* \"#utility.yul\":798:807   */\n      dup3\n        /* \"#utility.yul\":794:812   */\n      add\n        /* \"#utility.yul\":786:812   */\n      swap1\n      pop\n        /* \"#utility.yul\":822:887   */\n      tag_79\n        /* \"#utility.yul\":884:885   */\n      0x00\n        /* \"#utility.yul\":873:882   */\n      dup4\n        /* \"#utility.yul\":869:886   */\n      add\n        /* \"#utility.yul\":860:866   */\n      dup5\n        /* \"#utility.yul\":822:887   */\n      tag_52\n      jump\t// in\n    tag_79:\n        /* \"#utility.yul\":684:894   */\n      swap3\n      swap2\n      pop\n      pop\n      jump\t// out\n        /* \"#utility.yul\":900:1018   */\n    tag_53:\n        /* \"#utility.yul\":987:1011   */\n      tag_81\n        /* \"#utility.yul\":1005:1010   */\n      dup2\n        /* \"#utility.yul\":987:1011   */\n      tag_49\n      jump\t// in\n    tag_81:\n        /* \"#utility.yul\":982:985   */\n      dup3\n        /* \"#utility.yul\":975:1012   */\n      mstore\n        /* \"#utility.yul\":900:1018   */\n      pop\n      pop\n      jump\t// out\n        /* \"#utility.yul\":1024:1246   */\n    tag_24:\n        /* \"#utility.yul\":1117:1121   */\n      0x00\n        /* \"#utility.yul\":1155:1157   */\n      0x20\n        /* \"#utility.yul\":1144:1153   */\n      dup3\n        /* \"#utility.yul\":1140:1158   */\n      add\n        /* \"#utility.yul\":1132:1158   */\n      swap1\n      pop\n        /* \"#utility.yul\":1168:1239   */\n      tag_83\n        /* \"#utility.yul\":1236:1237   */\n      0x00\n        /* \"#utility.yul\":1225:1234   */\n      dup4\n        /* \"#utility.yul\":1221:1238   */\n      add\n        /* \"#utility.yul\":1212:1218   */\n      dup5\n        /* \"#utility.yul\":1168:1239   */\n      tag_53\n      jump\t// in\n    tag_83:\n        /* \"#utility.yul\":1024:1246   */\n      swap3\n      swap2\n      pop\n      pop\n      jump\t// out\n        /* \"#utility.yul\":1252:1378   */\n    tag_54:\n        /* \"#utility.yul\":1289:1296   */\n      0x00\n        /* \"#utility.yul\":1329:1371   */\n      0xffffffffffffffffffffffffffffffffffffffff\n        /* \"#utility.yul\":1322:1327   */\n      dup3\n        /* \"#utility.yul\":1318:1372   */\n      and\n        /* \"#utility.yul\":1307:1372   */\n      swap1\n      pop\n        /* \"#utility.yul\":1252:1378   */\n      swap2\n      swap1\n      pop\n      jump\t// out\n        /* \"#utility.yul\":1384:1480   */\n    tag_55:\n        /* \"#utility.yul\":1421:1428   */\n      0x00\n        /* \"#utility.yul\":1450:1474   */\n      tag_86\n        /* \"#utility.yul\":1468:1473   */\n      dup3\n        /* \"#utility.yul\":1450:1474   */\n      tag_54\n      jump\t// in\n    tag_86:\n        /* \"#utility.yul\":1439:1474   */\n      swap1\n      pop\n        /* \"#utility.yul\":1384:1480   */\n      swap2\n      swap1\n      pop\n      jump\t// out\n        /* \"#utility.yul\":1486:1604   */\n    tag_56:\n        /* \"#utility.yul\":1573:1597   */\n      tag_88\n        /* \"#utility.yul\":1591:1596   */\n      dup2\n        /* \"#utility.yul\":1573:1597   */\n      tag_55\n      jump\t// in\n    tag_88:\n        /* \"#utility.yul\":1568:1571   */\n      dup3\n        /* \"#utility.yul\":1561:1598   */\n      mstore\n        /* \"#utility.yul\":1486:1604   */\n      pop\n      pop\n      jump\t// out\n        /* \"#utility.yul\":1610:1832   */\n    tag_29:\n        /* \"#utility.yul\":1703:1707   */\n      0x00\n        /* \"#utility.yul\":1741:1743   */\n      0x20\n        /* \"#utility.yul\":1730:1739   */\n      dup3\n        /* \"#utility.yul\":1726:1744   */\n      add\n        /* \"#utility.yul\":1718:1744   */\n      swap1\n      pop\n        /* \"#utility.yul\":1754:1825   */\n      tag_90\n        /* \"#utility.yul\":1822:1823   */\n      0x00\n        /* \"#utility.yul\":1811:1820   */\n      dup4\n        /* \"#utility.yul\":1807:1824   */\n      add\n        /* \"#utility.yul\":1798:1804   */\n      dup5\n        /* \"#utility.yul\":1754:1825   */\n      tag_56\n      jump\t// in\n    tag_90:\n        /* \"#utility.yul\":1610:1832   */\n      swap3\n      swap2\n      pop\n      pop\n      jump\t// out\n        /* \"#utility.yul\":1838:2007   */\n    tag_57:\n        /* \"#utility.yul\":1922:1933   */\n      0x00\n        /* \"#utility.yul\":1956:1962   */\n      dup3\n        /* \"#utility.yul\":1951:1954   */\n      dup3\n        /* \"#utility.yul\":1944:1963   */\n      mstore\n        /* \"#utility.yul\":1996:2000   */\n      0x20\n        /* \"#utility.yul\":1991:1994   */\n      dup3\n        /* \"#utility.yul\":1987:2001   */\n      add\n        /* \"#utility.yul\":1972:2001   */\n      swap1\n      pop\n        /* \"#utility.yul\":1838:2007   */\n      swap3\n      swap2\n      pop\n      pop\n      jump\t// out\n        /* \"#utility.yul\":2013:2244   */\n    tag_58:\n        /* \"#utility.yul\":2153:2187   */\n      0x57616974696e6720504552494f4420666f722046756e64205472616e73666572\n        /* \"#utility.yul\":2149:2150   */\n      0x00\n        /* \"#utility.yul\":2141:2147   */\n      dup3\n        /* \"#utility.yul\":2137:2151   */\n      add\n        /* \"#utility.yul\":2130:2188   */\n      mstore\n        /* \"#utility.yul\":2222:2236   */\n      0x206973206e6f74206f7665720000000000000000000000000000000000000000\n        /* \"#utility.yul\":2217:2219   */\n      0x20\n        /* \"#utility.yul\":2209:2215   */\n      dup3\n        /* \"#utility.yul\":2205:2220   */\n      add\n        /* \"#utility.yul\":2198:2237   */\n      mstore\n        /* \"#utility.yul\":2013:2244   */\n      pop\n      jump\t// out\n        /* \"#utility.yul\":2250:2616   */\n    tag_59:\n        /* \"#utility.yul\":2392:2395   */\n      0x00\n        /* \"#utility.yul\":2413:2480   */\n      tag_94\n        /* \"#utility.yul\":2477:2479   */\n      0x2c\n        /* \"#utility.yul\":2472:2475   */\n      dup4\n        /* \"#utility.yul\":2413:2480   */\n      tag_57\n      jump\t// in\n    tag_94:\n        /* \"#utility.yul\":2406:2480   */\n      swap2\n      pop\n        /* \"#utility.yul\":2489:2582   */\n      tag_95\n        /* \"#utility.yul\":2578:2581   */\n      dup3\n        /* \"#utility.yul\":2489:2582   */\n      tag_58\n      jump\t// in\n    tag_95:\n        /* \"#utility.yul\":2607:2609   */\n      0x40\n        /* \"#utility.yul\":2602:2605   */\n      dup3\n        /* \"#utility.yul\":2598:2610   */\n      add\n        /* \"#utility.yul\":2591:2610   */\n      swap1\n      pop\n        /* \"#utility.yul\":2250:2616   */\n      swap2\n      swap1\n      pop\n      jump\t// out\n        /* \"#utility.yul\":2622:3041   */\n    tag_37:\n        /* \"#utility.yul\":2788:2792   */\n      0x00\n        /* \"#utility.yul\":2826:2828   */\n      0x20\n        /* \"#utility.yul\":2815:2824   */\n      dup3\n        /* \"#utility.yul\":2811:2829   */\n      add\n        /* \"#utility.yul\":2803:2829   */\n      swap1\n      pop\n        /* \"#utility.yul\":2875:2884   */\n      dup2\n        /* \"#utility.yul\":2869:2873   */\n      dup2\n        /* \"#utility.yul\":2865:2885   */\n      sub\n        /* \"#utility.yul\":2861:2862   */\n      0x00\n        /* \"#utility.yul\":2850:2859   */\n      dup4\n        /* \"#utility.yul\":2846:2863   */\n      add\n        /* \"#utility.yul\":2839:2886   */\n      mstore\n        /* \"#utility.yul\":2903:3034   */\n      tag_97\n        /* \"#utility.yul\":3029:3033   */\n      dup2\n        /* \"#utility.yul\":2903:3034   */\n      tag_59\n      jump\t// in\n    tag_97:\n        /* \"#utility.yul\":2895:3034   */\n      swap1\n      pop\n        /* \"#utility.yul\":2622:3041   */\n      swap2\n      swap1\n      pop\n      jump\t// out\n        /* \"#utility.yul\":3047:3222   */\n    tag_60:\n        /* \"#utility.yul\":3187:3214   */\n      0x46756e647320616c7265616479207472616e7366657272656400000000000000\n        /* \"#utility.yul\":3183:3184   */\n      0x00\n        /* \"#utility.yul\":3175:3181   */\n      dup3\n        /* \"#utility.yul\":3171:3185   */\n      add\n        /* \"#utility.yul\":3164:3215   */\n      mstore\n        /* \"#utility.yul\":3047:3222   */\n      pop\n      jump\t// out\n        /* \"#utility.yul\":3228:3594   */\n    tag_61:\n        /* \"#utility.yul\":3370:3373   */\n      0x00\n        /* \"#utility.yul\":3391:3458   */\n      tag_100\n        /* \"#utility.yul\":3455:3457   */\n      0x19\n        /* \"#utility.yul\":3450:3453   */\n      dup4\n        /* \"#utility.yul\":3391:3458   */\n      tag_57\n      jump\t// in\n    tag_100:\n        /* \"#utility.yul\":3384:3458   */\n      swap2\n      pop\n        /* \"#utility.yul\":3467:3560   */\n      tag_101\n        /* \"#utility.yul\":3556:3559   */\n      dup3\n        /* \"#utility.yul\":3467:3560   */\n      tag_60\n      jump\t// in\n    tag_101:\n        /* \"#utility.yul\":3585:3587   */\n      0x20\n        /* \"#utility.yul\":3580:3583   */\n      dup3\n        /* \"#utility.yul\":3576:3588   */\n      add\n        /* \"#utility.yul\":3569:3588   */\n      swap1\n      pop\n        /* \"#utility.yul\":3228:3594   */\n      swap2\n      swap1\n      pop\n      jump\t// out\n        /* \"#utility.yul\":3600:4019   */\n    tag_40:\n        /* \"#utility.yul\":3766:3770   */\n      0x00\n        /* \"#utility.yul\":3804:3806   */\n      0x20\n        /* \"#utility.yul\":3793:3802   */\n      dup3\n        /* \"#utility.yul\":3789:3807   */\n      add\n        /* \"#utility.yul\":3781:3807   */\n      swap1\n      pop\n        /* \"#utility.yul\":3853:3862   */\n      dup2\n        /* \"#utility.yul\":3847:3851   */\n      dup2\n        /* \"#utility.yul\":3843:3863   */\n      sub\n        /* \"#utility.yul\":3839:3840   */\n      0x00\n        /* \"#utility.yul\":3828:3837   */\n      dup4\n        /* \"#utility.yul\":3824:3841   */\n      add\n        /* \"#utility.yul\":3817:3864   */\n      mstore\n        /* \"#utility.yul\":3881:4012   */\n      tag_103\n        /* \"#utility.yul\":4007:4011   */\n      dup2\n        /* \"#utility.yul\":3881:4012   */\n      tag_61\n      jump\t// in\n    tag_103:\n        /* \"#utility.yul\":3873:4012   */\n      swap1\n      pop\n        /* \"#utility.yul\":3600:4019   */\n      swap2\n      swap1\n      pop\n      jump\t// out\n        /* \"#utility.yul\":4025:4172   */\n    tag_62:\n        /* \"#utility.yul\":4126:4137   */\n      0x00\n        /* \"#utility.yul\":4163:4166   */\n      dup2\n        /* \"#utility.yul\":4148:4166   */\n      swap1\n      pop\n        /* \"#utility.yul\":4025:4172   */\n      swap3\n      swap2\n      pop\n      pop\n      jump\t// out\n        /* \"#utility.yul\":4178:4292   */\n    tag_63:\n      pop\n      jump\t// out\n        /* \"#utility.yul\":4298:4696   */\n    tag_64:\n        /* \"#utility.yul\":4457:4460   */\n      0x00\n        /* \"#utility.yul\":4478:4561   */\n      tag_107\n        /* \"#utility.yul\":4559:4560   */\n      0x00\n        /* \"#utility.yul\":4554:4557   */\n      dup4\n        /* \"#utility.yul\":4478:4561   */\n      tag_62\n      jump\t// in\n    tag_107:\n        /* \"#utility.yul\":4471:4561   */\n      swap2\n      pop\n        /* \"#utility.yul\":4570:4663   */\n      tag_108\n        /* \"#utility.yul\":4659:4662   */\n      dup3\n        /* \"#utility.yul\":4570:4663   */\n      tag_63\n      jump\t// in\n    tag_108:\n        /* \"#utility.yul\":4688:4689   */\n      0x00\n        /* \"#utility.yul\":4683:4686   */\n      dup3\n        /* \"#utility.yul\":4679:4690   */\n      add\n        /* \"#utility.yul\":4672:4690   */\n      swap1\n      pop\n        /* \"#utility.yul\":4298:4696   */\n      swap2\n      swap1\n      pop\n      jump\t// out\n        /* \"#utility.yul\":4702:5081   */\n    tag_42:\n        /* \"#utility.yul\":4886:4889   */\n      0x00\n        /* \"#utility.yul\":4908:5055   */\n      tag_110\n        /* \"#utility.yul\":5051:5054   */\n      dup3\n        /* \"#utility.yul\":4908:5055   */\n      tag_64\n      jump\t// in\n    tag_110:\n        /* \"#utility.yul\":4901:5055   */\n      swap2\n      pop\n        /* \"#utility.yul\":5072:5075   */\n      dup2\n        /* \"#utility.yul\":5065:5075   */\n      swap1\n      pop\n        /* \"#utility.yul\":4702:5081   */\n      swap2\n      swap1\n      pop\n      jump\t// out\n        /* \"#utility.yul\":5087:5252   */\n    tag_65:\n        /* \"#utility.yul\":5227:5244   */\n      0x5472616e73666572206661696c65640000000000000000000000000000000000\n        /* \"#utility.yul\":5223:5224   */\n      0x00\n        /* \"#utility.yul\":5215:5221   */\n      dup3\n        /* \"#utility.yul\":5211:5225   */\n      add\n        /* \"#utility.yul\":5204:5245   */\n      mstore\n        /* \"#utility.yul\":5087:5252   */\n      pop\n      jump\t// out\n        /* \"#utility.yul\":5258:5624   */\n    tag_66:\n        /* \"#utility.yul\":5400:5403   */\n      0x00\n        /* \"#utility.yul\":5421:5488   */\n      tag_113\n        /* \"#utility.yul\":5485:5487   */\n      0x0f\n        /* \"#utility.yul\":5480:5483   */\n      dup4\n        /* \"#utility.yul\":5421:5488   */\n      tag_57\n      jump\t// in\n    tag_113:\n        /* \"#utility.yul\":5414:5488   */\n      swap2\n      pop\n        /* \"#utility.yul\":5497:5590   */\n      tag_114\n        /* \"#utility.yul\":5586:5589   */\n      dup3\n        /* \"#utility.yul\":5497:5590   */\n      tag_65\n      jump\t// in\n    tag_114:\n        /* \"#utility.yul\":5615:5617   */\n      0x20\n        /* \"#utility.yul\":5610:5613   */\n      dup3\n        /* \"#utility.yul\":5606:5618   */\n      add\n        /* \"#utility.yul\":5599:5618   */\n      swap1\n      pop\n        /* \"#utility.yul\":5258:5624   */\n      swap2\n      swap1\n      pop\n      jump\t// out\n        /* \"#utility.yul\":5630:6049   */\n    tag_48:\n        /* \"#utility.yul\":5796:5800   */\n      0x00\n        /* \"#utility.yul\":5834:5836   */\n      0x20\n        /* \"#utility.yul\":5823:5832   */\n      dup3\n        /* \"#utility.yul\":5819:5837   */\n      add\n        /* \"#utility.yul\":5811:5837   */\n      swap1\n      pop\n        /* \"#utility.yul\":5883:5892   */\n      dup2\n        /* \"#utility.yul\":5877:5881   */\n      dup2\n        /* \"#utility.yul\":5873:5893   */\n      sub\n        /* \"#utility.yul\":5869:5870   */\n      0x00\n        /* \"#utility.yul\":5858:5867   */\n      dup4\n        /* \"#utility.yul\":5854:5871   */\n      add\n        /* \"#utility.yul\":5847:5894   */\n      mstore\n        /* \"#utility.yul\":5911:6042   */\n      tag_116\n        /* \"#utility.yul\":6037:6041   */\n      dup2\n        /* \"#utility.yul\":5911:6042   */\n      tag_66\n      jump\t// in\n    tag_116:\n        /* \"#utility.yul\":5903:6042   */\n      swap1\n      pop\n        /* \"#utility.yul\":5630:6049   */\n      swap2\n      swap1\n      pop\n      jump\t// out\n\n    auxdata: 0xa2646970667358221220ff1246c91de028d8460f337e187da184f165caaf611bfb31e9ca2981ada785c464736f6c63430008120033\n}\n",
				"bytecode": {
					"linkReferences": {},
					"object": "608060405234801561001057600080fd5b5060405161083b38038061083b83398181016040528101906100329190610165565b600073ffffffffffffffffffffffffffffffffffffffff168173ffffffffffffffffffffffffffffffffffffffff16036100a1576040517f08c379a0000000000000000000000000000000000000000000000000000000008152600401610098906101ef565b60405180910390fd5b806000806101000a81548173ffffffffffffffffffffffffffffffffffffffff021916908373ffffffffffffffffffffffffffffffffffffffff1602179055506000600360006101000a81548160ff0219169083151502179055505061020f565b600080fd5b600073ffffffffffffffffffffffffffffffffffffffff82169050919050565b600061013282610107565b9050919050565b61014281610127565b811461014d57600080fd5b50565b60008151905061015f81610139565b92915050565b60006020828403121561017b5761017a610102565b5b600061018984828501610150565b91505092915050565b600082825260208201905092915050565b7f496e76616c696420726563697069656e74206164647265737300000000000000600082015250565b60006101d9601983610192565b91506101e4826101a3565b602082019050919050565b60006020820190508181036000830152610208816101cc565b9050919050565b61061d8061021e6000396000f3fe60806040526004361061004e5760003560e01c8063073a11aa146100775780633c68eb81146100a257806345cb3dde146100b957806366d003ac146100e457806378e979251461010f57610072565b3661007257426001819055506203f48060015461006b9190610336565b6002819055005b600080fd5b34801561008357600080fd5b5061008c61013a565b6040516100999190610385565b60405180910390f35b3480156100ae57600080fd5b506100b761014d565b005b3480156100c557600080fd5b506100ce6102cd565b6040516100db91906103af565b60405180910390f35b3480156100f057600080fd5b506100f96102d3565b604051610106919061040b565b60405180910390f35b34801561011b57600080fd5b506101246102f7565b60405161013191906103af565b60405180910390f35b600360009054906101000a900460ff1681565b600254421015610192576040517f08c379a0000000000000000000000000000000000000000000000000000000008152600401610189906104a9565b60405180910390fd5b600360009054906101000a900460ff16156101e2576040517f08c379a00000000000000000000000000000000000000000000000000000000081526004016101d990610515565b60405180910390fd5b60008060009054906101000a900473ffffffffffffffffffffffffffffffffffffffff1673ffffffffffffffffffffffffffffffffffffffff164760405161022990610566565b60006040518083038185875af1925050503d8060008114610266576040519150601f19603f3d011682016040523d82523d6000602084013e61026b565b606091505b50509050806102af576040517f08c379a00000000000000000000000000000000000000000000000000000000081526004016102a6906105c7565b60405180910390fd5b6001600360006101000a81548160ff02191690831515021790555050565b60025481565b60008054906101000a900473ffffffffffffffffffffffffffffffffffffffff1681565b60015481565b6000819050919050565b7f4e487b7100000000000000000000000000000000000000000000000000000000600052601160045260246000fd5b6000610341826102fd565b915061034c836102fd565b925082820190508082111561036457610363610307565b5b92915050565b60008115159050919050565b61037f8161036a565b82525050565b600060208201905061039a6000830184610376565b92915050565b6103a9816102fd565b82525050565b60006020820190506103c460008301846103a0565b92915050565b600073ffffffffffffffffffffffffffffffffffffffff82169050919050565b60006103f5826103ca565b9050919050565b610405816103ea565b82525050565b600060208201905061042060008301846103fc565b92915050565b600082825260208201905092915050565b7f57616974696e6720504552494f4420666f722046756e64205472616e7366657260008201527f206973206e6f74206f7665720000000000000000000000000000000000000000602082015250565b6000610493602c83610426565b915061049e82610437565b604082019050919050565b600060208201905081810360008301526104c281610486565b9050919050565b7f46756e647320616c7265616479207472616e7366657272656400000000000000600082015250565b60006104ff601983610426565b915061050a826104c9565b602082019050919050565b6000602082019050818103600083015261052e816104f2565b9050919050565b600081905092915050565b50565b6000610550600083610535565b915061055b82610540565b600082019050919050565b600061057182610543565b9150819050919050565b7f5472616e73666572206661696c65640000000000000000000000000000000000600082015250565b60006105b1600f83610426565b91506105bc8261057b565b602082019050919050565b600060208201905081810360008301526105e0816105a4565b905091905056fea2646970667358221220ff1246c91de028d8460f337e187da184f165caaf611bfb31e9ca2981ada785c464736f6c63430008120033",
					"opcodes": "PUSH1 0x80 PUSH1 0x40 MSTORE CALLVALUE DUP1 ISZERO PUSH2 0x10 JUMPI PUSH1 0x0 DUP1 REVERT JUMPDEST POP PUSH1 0x40 MLOAD PUSH2 0x83B CODESIZE SUB DUP1 PUSH2 0x83B DUP4 CODECOPY DUP2 DUP2 ADD PUSH1 0x40 MSTORE DUP2 ADD SWAP1 PUSH2 0x32 SWAP2 SWAP1 PUSH2 0x165 JUMP JUMPDEST PUSH1 0x0 PUSH20 0xFFFFFFFFFFFFFFFFFFFFFFFFFFFFFFFFFFFFFFFF AND DUP2 PUSH20 0xFFFFFFFFFFFFFFFFFFFFFFFFFFFFFFFFFFFFFFFF AND SUB PUSH2 0xA1 JUMPI PUSH1 0x40 MLOAD PUSH32 0x8C379A000000000000000000000000000000000000000000000000000000000 DUP2 MSTORE PUSH1 0x4 ADD PUSH2 0x98 SWAP1 PUSH2 0x1EF JUMP JUMPDEST PUSH1 0x40 MLOAD DUP1 SWAP2 SUB SWAP1 REVERT JUMPDEST DUP1 PUSH1 0x0 DUP1 PUSH2 0x100 EXP DUP2 SLOAD DUP2 PUSH20 0xFFFFFFFFFFFFFFFFFFFFFFFFFFFFFFFFFFFFFFFF MUL NOT AND SWAP1 DUP4 PUSH20 0xFFFFFFFFFFFFFFFFFFFFFFFFFFFFFFFFFFFFFFFF AND MUL OR SWAP1 SSTORE POP PUSH1 0x0 PUSH1 0x3 PUSH1 0x0 PUSH2 0x100 EXP DUP2 SLOAD DUP2 PUSH1 0xFF MUL NOT AND SWAP1 DUP4 ISZERO ISZERO MUL OR SWAP1 SSTORE POP POP PUSH2 0x20F JUMP JUMPDEST PUSH1 0x0 DUP1 REVERT JUMPDEST PUSH1 0x0 PUSH20 0xFFFFFFFFFFFFFFFFFFFFFFFFFFFFFFFFFFFFFFFF DUP3 AND SWAP1 POP SWAP2 SWAP1 POP JUMP JUMPDEST PUSH1 0x0 PUSH2 0x132 DUP3 PUSH2 0x107 JUMP JUMPDEST SWAP1 POP SWAP2 SWAP1 POP JUMP JUMPDEST PUSH2 0x142 DUP2 PUSH2 0x127 JUMP JUMPDEST DUP2 EQ PUSH2 0x14D JUMPI PUSH1 0x0 DUP1 REVERT JUMPDEST POP JUMP JUMPDEST PUSH1 0x0 DUP2 MLOAD SWAP1 POP PUSH2 0x15F DUP2 PUSH2 0x139 JUMP JUMPDEST SWAP3 SWAP2 POP POP JUMP JUMPDEST PUSH1 0x0 PUSH1 0x20 DUP3 DUP5 SUB SLT ISZERO PUSH2 0x17B JUMPI PUSH2 0x17A PUSH2 0x102 JUMP JUMPDEST JUMPDEST PUSH1 0x0 PUSH2 0x189 DUP5 DUP3 DUP6 ADD PUSH2 0x150 JUMP JUMPDEST SWAP2 POP POP SWAP3 SWAP2 POP POP JUMP JUMPDEST PUSH1 0x0 DUP3 DUP3 MSTORE PUSH1 0x20 DUP3 ADD SWAP1 POP SWAP3 SWAP2 POP POP JUMP JUMPDEST PUSH32 0x496E76616C696420726563697069656E74206164647265737300000000000000 PUSH1 0x0 DUP3 ADD MSTORE POP JUMP JUMPDEST PUSH1 0x0 PUSH2 0x1D9 PUSH1 0x19 DUP4 PUSH2 0x192 JUMP JUMPDEST SWAP2 POP PUSH2 0x1E4 DUP3 PUSH2 0x1A3 JUMP JUMPDEST PUSH1 0x20 DUP3 ADD SWAP1 POP SWAP2 SWAP1 POP JUMP JUMPDEST PUSH1 0x0 PUSH1 0x20 DUP3 ADD SWAP1 POP DUP2 DUP2 SUB PUSH1 0x0 DUP4 ADD MSTORE PUSH2 0x208 DUP2 PUSH2 0x1CC JUMP JUMPDEST SWAP1 POP SWAP2 SWAP1 POP JUMP JUMPDEST PUSH2 0x61D DUP1 PUSH2 0x21E PUSH1 0x0 CODECOPY PUSH1 0x0 RETURN INVALID PUSH1 0x80 PUSH1 0x40 MSTORE PUSH1 0x4 CALLDATASIZE LT PUSH2 0x4E JUMPI PUSH1 0x0 CALLDATALOAD PUSH1 0xE0 SHR DUP1 PUSH4 0x73A11AA EQ PUSH2 0x77 JUMPI DUP1 PUSH4 0x3C68EB81 EQ PUSH2 0xA2 JUMPI DUP1 PUSH4 0x45CB3DDE EQ PUSH2 0xB9 JUMPI DUP1 PUSH4 0x66D003AC EQ PUSH2 0xE4 JUMPI DUP1 PUSH4 0x78E97925 EQ PUSH2 0x10F JUMPI PUSH2 0x72 JUMP JUMPDEST CALLDATASIZE PUSH2 0x72 JUMPI TIMESTAMP PUSH1 0x1 DUP2 SWAP1 SSTORE POP PUSH3 0x3F480 PUSH1 0x1 SLOAD PUSH2 0x6B SWAP2 SWAP1 PUSH2 0x336 JUMP JUMPDEST PUSH1 0x2 DUP2 SWAP1 SSTORE STOP JUMPDEST PUSH1 0x0 DUP1 REVERT JUMPDEST CALLVALUE DUP1 ISZERO PUSH2 0x83 JUMPI PUSH1 0x0 DUP1 REVERT JUMPDEST POP PUSH2 0x8C PUSH2 0x13A JUMP JUMPDEST PUSH1 0x40 MLOAD PUSH2 0x99 SWAP2 SWAP1 PUSH2 0x385 JUMP JUMPDEST PUSH1 0x40 MLOAD DUP1 SWAP2 SUB SWAP1 RETURN JUMPDEST CALLVALUE DUP1 ISZERO PUSH2 0xAE JUMPI PUSH1 0x0 DUP1 REVERT JUMPDEST POP PUSH2 0xB7 PUSH2 0x14D JUMP JUMPDEST STOP JUMPDEST CALLVALUE DUP1 ISZERO PUSH2 0xC5 JUMPI PUSH1 0x0 DUP1 REVERT JUMPDEST POP PUSH2 0xCE PUSH2 0x2CD JUMP JUMPDEST PUSH1 0x40 MLOAD PUSH2 0xDB SWAP2 SWAP1 PUSH2 0x3AF JUMP JUMPDEST PUSH1 0x40 MLOAD DUP1 SWAP2 SUB SWAP1 RETURN JUMPDEST CALLVALUE DUP1 ISZERO PUSH2 0xF0 JUMPI PUSH1 0x0 DUP1 REVERT JUMPDEST POP PUSH2 0xF9 PUSH2 0x2D3 JUMP JUMPDEST PUSH1 0x40 MLOAD PUSH2 0x106 SWAP2 SWAP1 PUSH2 0x40B JUMP JUMPDEST PUSH1 0x40 MLOAD DUP1 SWAP2 SUB SWAP1 RETURN JUMPDEST CALLVALUE DUP1 ISZERO PUSH2 0x11B JUMPI PUSH1 0x0 DUP1 REVERT JUMPDEST POP PUSH2 0x124 PUSH2 0x2F7 JUMP JUMPDEST PUSH1 0x40 MLOAD PUSH2 0x131 SWAP2 SWAP1 PUSH2 0x3AF JUMP JUMPDEST PUSH1 0x40 MLOAD DUP1 SWAP2 SUB SWAP1 RETURN JUMPDEST PUSH1 0x3 PUSH1 0x0 SWAP1 SLOAD SWAP1 PUSH2 0x100 EXP SWAP1 DIV PUSH1 0xFF AND DUP2 JUMP JUMPDEST PUSH1 0x2 SLOAD TIMESTAMP LT ISZERO PUSH2 0x192 JUMPI PUSH1 0x40 MLOAD PUSH32 0x8C379A000000000000000000000000000000000000000000000000000000000 DUP2 MSTORE PUSH1 0x4 ADD PUSH2 0x189 SWAP1 PUSH2 0x4A9 JUMP JUMPDEST PUSH1 0x40 MLOAD DUP1 SWAP2 SUB SWAP1 REVERT JUMPDEST PUSH1 0x3 PUSH1 0x0 SWAP1 SLOAD SWAP1 PUSH2 0x100 EXP SWAP1 DIV PUSH1 0xFF AND ISZERO PUSH2 0x1E2 JUMPI PUSH1 0x40 MLOAD PUSH32 0x8C379A000000000000000000000000000000000000000000000000000000000 DUP2 MSTORE PUSH1 0x4 ADD PUSH2 0x1D9 SWAP1 PUSH2 0x515 JUMP JUMPDEST PUSH1 0x40 MLOAD DUP1 SWAP2 SUB SWAP1 REVERT JUMPDEST PUSH1 0x0 DUP1 PUSH1 0x0 SWAP1 SLOAD SWAP1 PUSH2 0x100 EXP SWAP1 DIV PUSH20 0xFFFFFFFFFFFFFFFFFFFFFFFFFFFFFFFFFFFFFFFF AND PUSH20 0xFFFFFFFFFFFFFFFFFFFFFFFFFFFFFFFFFFFFFFFF AND SELFBALANCE PUSH1 0x40 MLOAD PUSH2 0x229 SWAP1 PUSH2 0x566 JUMP JUMPDEST PUSH1 0x0 PUSH1 0x40 MLOAD DUP1 DUP4 SUB DUP2 DUP6 DUP8 GAS CALL SWAP3 POP POP POP RETURNDATASIZE DUP1 PUSH1 0x0 DUP2 EQ PUSH2 0x266 JUMPI PUSH1 0x40 MLOAD SWAP2 POP PUSH1 0x1F NOT PUSH1 0x3F RETURNDATASIZE ADD AND DUP3 ADD PUSH1 0x40 MSTORE RETURNDATASIZE DUP3 MSTORE RETURNDATASIZE PUSH1 0x0 PUSH1 0x20 DUP5 ADD RETURNDATACOPY PUSH2 0x26B JUMP JUMPDEST PUSH1 0x60 SWAP2 POP JUMPDEST POP POP SWAP1 POP DUP1 PUSH2 0x2AF JUMPI PUSH1 0x40 MLOAD PUSH32 0x8C379A000000000000000000000000000000000000000000000000000000000 DUP2 MSTORE PUSH1 0x4 ADD PUSH2 0x2A6 SWAP1 PUSH2 0x5C7 JUMP JUMPDEST PUSH1 0x40 MLOAD DUP1 SWAP2 SUB SWAP1 REVERT JUMPDEST PUSH1 0x1 PUSH1 0x3 PUSH1 0x0 PUSH2 0x100 EXP DUP2 SLOAD DUP2 PUSH1 0xFF MUL NOT AND SWAP1 DUP4 ISZERO ISZERO MUL OR SWAP1 SSTORE POP POP JUMP JUMPDEST PUSH1 0x2 SLOAD DUP2 JUMP JUMPDEST PUSH1 0x0 DUP1 SLOAD SWAP1 PUSH2 0x100 EXP SWAP1 DIV PUSH20 0xFFFFFFFFFFFFFFFFFFFFFFFFFFFFFFFFFFFFFFFF AND DUP2 JUMP JUMPDEST PUSH1 0x1 SLOAD DUP2 JUMP JUMPDEST PUSH1 0x0 DUP2 SWAP1 POP SWAP2 SWAP1 POP JUMP JUMPDEST PUSH32 0x4E487B7100000000000000000000000000000000000000000000000000000000 PUSH1 0x0 MSTORE PUSH1 0x11 PUSH1 0x4 MSTORE PUSH1 0x24 PUSH1 0x0 REVERT JUMPDEST PUSH1 0x0 PUSH2 0x341 DUP3 PUSH2 0x2FD JUMP JUMPDEST SWAP2 POP PUSH2 0x34C DUP4 PUSH2 0x2FD JUMP JUMPDEST SWAP3 POP DUP3 DUP3 ADD SWAP1 POP DUP1 DUP3 GT ISZERO PUSH2 0x364 JUMPI PUSH2 0x363 PUSH2 0x307 JUMP JUMPDEST JUMPDEST SWAP3 SWAP2 POP POP JUMP JUMPDEST PUSH1 0x0 DUP2 ISZERO ISZERO SWAP1 POP SWAP2 SWAP1 POP JUMP JUMPDEST PUSH2 0x37F DUP2 PUSH2 0x36A JUMP JUMPDEST DUP3 MSTORE POP POP JUMP JUMPDEST PUSH1 0x0 PUSH1 0x20 DUP3 ADD SWAP1 POP PUSH2 0x39A PUSH1 0x0 DUP4 ADD DUP5 PUSH2 0x376 JUMP JUMPDEST SWAP3 SWAP2 POP POP JUMP JUMPDEST PUSH2 0x3A9 DUP2 PUSH2 0x2FD JUMP JUMPDEST DUP3 MSTORE POP POP JUMP JUMPDEST PUSH1 0x0 PUSH1 0x20 DUP3 ADD SWAP1 POP PUSH2 0x3C4 PUSH1 0x0 DUP4 ADD DUP5 PUSH2 0x3A0 JUMP JUMPDEST SWAP3 SWAP2 POP POP JUMP JUMPDEST PUSH1 0x0 PUSH20 0xFFFFFFFFFFFFFFFFFFFFFFFFFFFFFFFFFFFFFFFF DUP3 AND SWAP1 POP SWAP2 SWAP1 POP JUMP JUMPDEST PUSH1 0x0 PUSH2 0x3F5 DUP3 PUSH2 0x3CA JUMP JUMPDEST SWAP1 POP SWAP2 SWAP1 POP JUMP JUMPDEST PUSH2 0x405 DUP2 PUSH2 0x3EA JUMP JUMPDEST DUP3 MSTORE POP POP JUMP JUMPDEST PUSH1 0x0 PUSH1 0x20 DUP3 ADD SWAP1 POP PUSH2 0x420 PUSH1 0x0 DUP4 ADD DUP5 PUSH2 0x3FC JUMP JUMPDEST SWAP3 SWAP2 POP POP JUMP JUMPDEST PUSH1 0x0 DUP3 DUP3 MSTORE PUSH1 0x20 DUP3 ADD SWAP1 POP SWAP3 SWAP2 POP POP JUMP JUMPDEST PUSH32 0x57616974696E6720504552494F4420666F722046756E64205472616E73666572 PUSH1 0x0 DUP3 ADD MSTORE PUSH32 0x206973206E6F74206F7665720000000000000000000000000000000000000000 PUSH1 0x20 DUP3 ADD MSTORE POP JUMP JUMPDEST PUSH1 0x0 PUSH2 0x493 PUSH1 0x2C DUP4 PUSH2 0x426 JUMP JUMPDEST SWAP2 POP PUSH2 0x49E DUP3 PUSH2 0x437 JUMP JUMPDEST PUSH1 0x40 DUP3 ADD SWAP1 POP SWAP2 SWAP1 POP JUMP JUMPDEST PUSH1 0x0 PUSH1 0x20 DUP3 ADD SWAP1 POP DUP2 DUP2 SUB PUSH1 0x0 DUP4 ADD MSTORE PUSH2 0x4C2 DUP2 PUSH2 0x486 JUMP JUMPDEST SWAP1 POP SWAP2 SWAP1 POP JUMP JUMPDEST PUSH32 0x46756E647320616C7265616479207472616E7366657272656400000000000000 PUSH1 0x0 DUP3 ADD MSTORE POP JUMP JUMPDEST PUSH1 0x0 PUSH2 0x4FF PUSH1 0x19 DUP4 PUSH2 0x426 JUMP JUMPDEST SWAP2 POP PUSH2 0x50A DUP3 PUSH2 0x4C9 JUMP JUMPDEST PUSH1 0x20 DUP3 ADD SWAP1 POP SWAP2 SWAP1 POP JUMP JUMPDEST PUSH1 0x0 PUSH1 0x20 DUP3 ADD SWAP1 POP DUP2 DUP2 SUB PUSH1 0x0 DUP4 ADD MSTORE PUSH2 0x52E DUP2 PUSH2 0x4F2 JUMP JUMPDEST SWAP1 POP SWAP2 SWAP1 POP JUMP JUMPDEST PUSH1 0x0 DUP2 SWAP1 POP SWAP3 SWAP2 POP POP JUMP JUMPDEST POP JUMP JUMPDEST PUSH1 0x0 PUSH2 0x550 PUSH1 0x0 DUP4 PUSH2 0x535 JUMP JUMPDEST SWAP2 POP PUSH2 0x55B DUP3 PUSH2 0x540 JUMP JUMPDEST PUSH1 0x0 DUP3 ADD SWAP1 POP SWAP2 SWAP1 POP JUMP JUMPDEST PUSH1 0x0 PUSH2 0x571 DUP3 PUSH2 0x543 JUMP JUMPDEST SWAP2 POP DUP2 SWAP1 POP SWAP2 SWAP1 POP JUMP JUMPDEST PUSH32 0x5472616E73666572206661696C65640000000000000000000000000000000000 PUSH1 0x0 DUP3 ADD MSTORE POP JUMP JUMPDEST PUSH1 0x0 PUSH2 0x5B1 PUSH1 0xF DUP4 PUSH2 0x426 JUMP JUMPDEST SWAP2 POP PUSH2 0x5BC DUP3 PUSH2 0x57B JUMP JUMPDEST PUSH1 0x20 DUP3 ADD SWAP1 POP SWAP2 SWAP1 POP JUMP JUMPDEST PUSH1 0x0 PUSH1 0x20 DUP3 ADD SWAP1 POP DUP2 DUP2 SUB PUSH1 0x0 DUP4 ADD MSTORE PUSH2 0x5E0 DUP2 PUSH2 0x5A4 JUMP JUMPDEST SWAP1 POP SWAP2 SWAP1 POP JUMP INVALID LOG2 PUSH5 0x6970667358 0x22 SLT KECCAK256 SELFDESTRUCT SLT CHAINID 0xC9 SAR 0xE0 0x28 0xD8 CHAINID 0xF CALLER PUSH31 0x187DA184F165CAAF611BFB31E9CA2981ADA785C464736F6C63430008120033 "
				},
				"gasEstimates": {
					"creation": {
						"codeDepositCost": "313000",
						"executionCost": "infinite",
						"totalCost": "infinite"
					},
					"external": {
						"fundsTransferred()": "2449",
						"recipient()": "2555",
						"startTime()": "2495",
						"transferFunds()": "infinite",
						"withdrawTime()": "2451"
					}
				},
				"methodIdentifiers": {
					"fundsTransferred()": "073a11aa",
					"recipient()": "66d003ac",
					"startTime()": "78e97925",
					"transferFunds()": "3c68eb81",
					"withdrawTime()": "45cb3dde"
				}
			},
			"storageLayout": {
				"storage": [
					{
						"astId": 3,
						"contract": "contracts/sendToSellerAfter3days.sol:AutomatedFundsTransfer",
						"label": "recipient",
						"offset": 0,
						"slot": "0",
						"type": "t_address"
					},
					{
						"astId": 5,
						"contract": "contracts/sendToSellerAfter3days.sol:AutomatedFundsTransfer",
						"label": "startTime",
						"offset": 0,
						"slot": "1",
						"type": "t_uint256"
					},
					{
						"astId": 7,
						"contract": "contracts/sendToSellerAfter3days.sol:AutomatedFundsTransfer",
						"label": "withdrawTime",
						"offset": 0,
						"slot": "2",
						"type": "t_uint256"
					},
					{
						"astId": 9,
						"contract": "contracts/sendToSellerAfter3days.sol:AutomatedFundsTransfer",
						"label": "fundsTransferred",
						"offset": 0,
						"slot": "3",
						"type": "t_bool"
					}
				],
				"types": {
					"t_address": {
						"encoding": "inplace",
						"label": "address",
						"numberOfBytes": "20"
					},
					"t_bool": {
						"encoding": "inplace",
						"label": "bool",
						"numberOfBytes": "1"
					},
					"t_uint256": {
						"encoding": "inplace",
						"label": "uint256",
						"numberOfBytes": "32"
					}
				}
			},
			"userdoc": {
				"kind": "user",
				"methods": {},
				"version": 1
			}
		}
	}
}