{
  "_format": "hh-sol-artifact-1",
  "contractName": "DeliveryFacet",
  "sourceName": "contracts/Diamond.sol",
  "abi": [
    {
      "anonymous": false,
      "inputs": [
        {
          "indexed": false,
          "internalType": "uint256",
          "name": "orderDBID",
          "type": "uint256"
        },
        {
          "indexed": false,
          "internalType": "uint256",
          "name": "dmDBID",
          "type": "uint256"
        }
      ],
      "name": "deliveryManSet",
      "type": "event"
    },
    {
      "inputs": [
        {
          "internalType": "address",
          "name": "orderAddress",
          "type": "address"
        },
        {
          "internalType": "address[]",
          "name": "_deliveryItems",
          "type": "address[]"
        },
        {
          "internalType": "uint256[]",
          "name": "_deliveryUnits",
          "type": "uint256[]"
        }
      ],
      "name": "setDelivery",
      "outputs": [],
      "stateMutability": "nonpayable",
      "type": "function"
    },
    {
      "inputs": [
        {
          "internalType": "address",
          "name": "orderAddress",
          "type": "address"
        },
        {
          "internalType": "uint256",
          "name": "orderDBID",
          "type": "uint256"
        },
        {
          "internalType": "uint256",
          "name": "dmDBID",
          "type": "uint256"
        }
      ],
      "name": "setDeliveryMan",
      "outputs": [],
      "stateMutability": "nonpayable",
      "type": "function"
    }
  ],
  "bytecode": "0x608060405234801561001057600080fd5b50610ef9806100206000396000f3fe608060405234801561001057600080fd5b50600436106100365760003560e01c80632f6d5eea1461003b578063cdc6c28714610057575b600080fd5b610055600480360381019061005091906108fc565b610073565b005b610071600480360381019061006c9190610987565b610373565b005b80518251146100b7576040517f08c379a00000000000000000000000000000000000000000000000000000000081526004016100ae90610a37565b60405180910390fd5b60008060010160008573ffffffffffffffffffffffffffffffffffffffff1673ffffffffffffffffffffffffffffffffffffffff16815260200190815260200160002060009054906101000a900460ff1660ff16141561014c576040517f08c379a000000000000000000000000000000000000000000000000000000000815260040161014390610aa3565b60405180910390fd5b60008390503373ffffffffffffffffffffffffffffffffffffffff168173ffffffffffffffffffffffffffffffffffffffff166343c97c846040518163ffffffff1660e01b815260040160206040518083038186803b1580156101ae57600080fd5b505afa1580156101c2573d6000803e3d6000fd5b505050506040513d601f19601f820116820180604052508101906101e69190610ad8565b73ffffffffffffffffffffffffffffffffffffffff161461023c576040517f08c379a000000000000000000000000000000000000000000000000000000000815260040161023390610b51565b60405180910390fd5b600015158173ffffffffffffffffffffffffffffffffffffffff16634fbd39d36040518163ffffffff1660e01b815260040160206040518083038186803b15801561028657600080fd5b505afa15801561029a573d6000803e3d6000fd5b505050506040513d601f19601f820116820180604052508101906102be9190610ba9565b151514610300576040517f08c379a00000000000000000000000000000000000000000000000000000000081526004016102f790610c22565b60405180910390fd5b8073ffffffffffffffffffffffffffffffffffffffff1663bdb9207484846040518363ffffffff1660e01b815260040161033b929190610dbe565b600060405180830381600087803b15801561035557600080fd5b505af1158015610369573d6000803e3d6000fd5b5050505050505050565b60008060050160003373ffffffffffffffffffffffffffffffffffffffff1673ffffffffffffffffffffffffffffffffffffffff16815260200190815260200160002060009054906101000a900460ff1660ff161415610408576040517f08c379a00000000000000000000000000000000000000000000000000000000081526004016103ff90610b51565b60405180910390fd5b60008060010160008573ffffffffffffffffffffffffffffffffffffffff1673ffffffffffffffffffffffffffffffffffffffff16815260200190815260200160002060009054906101000a900460ff1660ff16141561049d576040517f08c379a000000000000000000000000000000000000000000000000000000000815260040161049490610aa3565b60405180910390fd5b6000839050600073ffffffffffffffffffffffffffffffffffffffff168173ffffffffffffffffffffffffffffffffffffffff166343c97c846040518163ffffffff1660e01b815260040160206040518083038186803b15801561050057600080fd5b505afa158015610514573d6000803e3d6000fd5b505050506040513d601f19601f820116820180604052508101906105389190610ad8565b73ffffffffffffffffffffffffffffffffffffffff161461058e576040517f08c379a000000000000000000000000000000000000000000000000000000000815260040161058590610e41565b60405180910390fd5b8073ffffffffffffffffffffffffffffffffffffffff1663ab3cb34c336040518263ffffffff1660e01b81526004016105c79190610e70565b600060405180830381600087803b1580156105e157600080fd5b505af11580156105f5573d6000803e3d6000fd5b505050507fc96e8bca962f64e910e603a370af4bc2c95bccdaef7836482df81a004bbcead5838360405161062a929190610e9a565b60405180910390a150505050565b6000604051905090565b600080fd5b600080fd5b600073ffffffffffffffffffffffffffffffffffffffff82169050919050565b60006106778261064c565b9050919050565b6106878161066c565b811461069257600080fd5b50565b6000813590506106a48161067e565b92915050565b600080fd5b6000601f19601f8301169050919050565b7f4e487b7100000000000000000000000000000000000000000000000000000000600052604160045260246000fd5b6106f8826106af565b810181811067ffffffffffffffff82111715610717576107166106c0565b5b80604052505050565b600061072a610638565b905061073682826106ef565b919050565b600067ffffffffffffffff821115610756576107556106c0565b5b602082029050602081019050919050565b600080fd5b600061077f61077a8461073b565b610720565b905080838252602082019050602084028301858111156107a2576107a1610767565b5b835b818110156107cb57806107b78882610695565b8452602084019350506020810190506107a4565b5050509392505050565b600082601f8301126107ea576107e96106aa565b5b81356107fa84826020860161076c565b91505092915050565b600067ffffffffffffffff82111561081e5761081d6106c0565b5b602082029050602081019050919050565b6000819050919050565b6108428161082f565b811461084d57600080fd5b50565b60008135905061085f81610839565b92915050565b600061087861087384610803565b610720565b9050808382526020820190506020840283018581111561089b5761089a610767565b5b835b818110156108c457806108b08882610850565b84526020840193505060208101905061089d565b5050509392505050565b600082601f8301126108e3576108e26106aa565b5b81356108f3848260208601610865565b91505092915050565b60008060006060848603121561091557610914610642565b5b600061092386828701610695565b935050602084013567ffffffffffffffff81111561094457610943610647565b5b610950868287016107d5565b925050604084013567ffffffffffffffff81111561097157610970610647565b5b61097d868287016108ce565b9150509250925092565b6000806000606084860312156109a05761099f610642565b5b60006109ae86828701610695565b93505060206109bf86828701610850565b92505060406109d086828701610850565b9150509250925092565b600082825260208201905092915050565b7f417272617973206d7573742068617665207468652073616d65206c656e677468600082015250565b6000610a216020836109da565b9150610a2c826109eb565b602082019050919050565b60006020820190508181036000830152610a5081610a14565b9050919050565b7f496e76616c6964206f7264657200000000000000000000000000000000000000600082015250565b6000610a8d600d836109da565b9150610a9882610a57565b602082019050919050565b60006020820190508181036000830152610abc81610a80565b9050919050565b600081519050610ad28161067e565b92915050565b600060208284031215610aee57610aed610642565b5b6000610afc84828501610ac3565b91505092915050565b7f496e76616c69642064656c6976657279206d616e000000000000000000000000600082015250565b6000610b3b6014836109da565b9150610b4682610b05565b602082019050919050565b60006020820190508181036000830152610b6a81610b2e565b9050919050565b60008115159050919050565b610b8681610b71565b8114610b9157600080fd5b50565b600081519050610ba381610b7d565b92915050565b600060208284031215610bbf57610bbe610642565b5b6000610bcd84828501610b94565b91505092915050565b7f616c72656164792064656c697665726564000000000000000000000000000000600082015250565b6000610c0c6011836109da565b9150610c1782610bd6565b602082019050919050565b60006020820190508181036000830152610c3b81610bff565b9050919050565b600081519050919050565b600082825260208201905092915050565b6000819050602082019050919050565b610c778161066c565b82525050565b6000610c898383610c6e565b60208301905092915050565b6000602082019050919050565b6000610cad82610c42565b610cb78185610c4d565b9350610cc283610c5e565b8060005b83811015610cf3578151610cda8882610c7d565b9750610ce583610c95565b925050600181019050610cc6565b5085935050505092915050565b600081519050919050565b600082825260208201905092915050565b6000819050602082019050919050565b610d358161082f565b82525050565b6000610d478383610d2c565b60208301905092915050565b6000602082019050919050565b6000610d6b82610d00565b610d758185610d0b565b9350610d8083610d1c565b8060005b83811015610db1578151610d988882610d3b565b9750610da383610d53565b925050600181019050610d84565b5085935050505092915050565b60006040820190508181036000830152610dd88185610ca2565b90508181036020830152610dec8184610d60565b90509392505050565b7f44656c6976657279206d616e20697320616c7265616479207365740000000000600082015250565b6000610e2b601b836109da565b9150610e3682610df5565b602082019050919050565b60006020820190508181036000830152610e5a81610e1e565b9050919050565b610e6a8161066c565b82525050565b6000602082019050610e856000830184610e61565b92915050565b610e948161082f565b82525050565b6000604082019050610eaf6000830185610e8b565b610ebc6020830184610e8b565b939250505056fea2646970667358221220fed5988ad3d24ea2510ba359276aaa2dfae95f6ab1471324693759aeb4075b2064736f6c63430008080033",
  "linkReferences": {},
  "deployedLinkReferences": {}
}