{
  "_format": "hh-sol-artifact-1",
  "contractName": "DeliveryFacet",
  "sourceName": "contracts/Diamond.sol",
  "abi": [
    {
      "inputs": [
        {
          "internalType": "address",
          "name": "orderAddress",
          "type": "address"
        },
        {
          "internalType": "address[]",
          "name": "_deliveryItems",
          "type": "address[]"
        },
        {
          "internalType": "uint256[]",
          "name": "_deliveryUnits",
          "type": "uint256[]"
        }
      ],
      "name": "setDelivery",
      "outputs": [],
      "stateMutability": "nonpayable",
      "type": "function"
    },
    {
      "inputs": [
        {
          "internalType": "address",
          "name": "orderAddress",
          "type": "address"
        }
      ],
      "name": "setDeliveryMan",
      "outputs": [],
      "stateMutability": "nonpayable",
      "type": "function"
    }
  ],
  "bytecode": "0x608060405234801561001057600080fd5b50610e60806100206000396000f3fe608060405234801561001057600080fd5b50600436106100365760003560e01c80632f6d5eea1461003b578063ab3cb34c14610057575b600080fd5b610055600480360381019061005091906108c1565b610073565b005b610071600480360381019061006c919061094c565b610373565b005b80518251146100b7576040517f08c379a00000000000000000000000000000000000000000000000000000000081526004016100ae906109d6565b60405180910390fd5b60008060010160008573ffffffffffffffffffffffffffffffffffffffff1673ffffffffffffffffffffffffffffffffffffffff16815260200190815260200160002060009054906101000a900460ff1660ff16141561014c576040517f08c379a000000000000000000000000000000000000000000000000000000000815260040161014390610a42565b60405180910390fd5b60008390503373ffffffffffffffffffffffffffffffffffffffff168173ffffffffffffffffffffffffffffffffffffffff166343c97c846040518163ffffffff1660e01b815260040160206040518083038186803b1580156101ae57600080fd5b505afa1580156101c2573d6000803e3d6000fd5b505050506040513d601f19601f820116820180604052508101906101e69190610a77565b73ffffffffffffffffffffffffffffffffffffffff161461023c576040517f08c379a000000000000000000000000000000000000000000000000000000000815260040161023390610af0565b60405180910390fd5b600015158173ffffffffffffffffffffffffffffffffffffffff16634fbd39d36040518163ffffffff1660e01b815260040160206040518083038186803b15801561028657600080fd5b505afa15801561029a573d6000803e3d6000fd5b505050506040513d601f19601f820116820180604052508101906102be9190610b48565b151514610300576040517f08c379a00000000000000000000000000000000000000000000000000000000081526004016102f790610bc1565b60405180910390fd5b8073ffffffffffffffffffffffffffffffffffffffff1663bdb9207484846040518363ffffffff1660e01b815260040161033b929190610d5d565b600060405180830381600087803b15801561035557600080fd5b505af1158015610369573d6000803e3d6000fd5b5050505050505050565b60008060050160003373ffffffffffffffffffffffffffffffffffffffff1673ffffffffffffffffffffffffffffffffffffffff16815260200190815260200160002060009054906101000a900460ff1660ff161415610408576040517f08c379a00000000000000000000000000000000000000000000000000000000081526004016103ff90610af0565b60405180910390fd5b60008060010160008373ffffffffffffffffffffffffffffffffffffffff1673ffffffffffffffffffffffffffffffffffffffff16815260200190815260200160002060009054906101000a900460ff1660ff16141561049d576040517f08c379a000000000000000000000000000000000000000000000000000000000815260040161049490610a42565b60405180910390fd5b6000819050600073ffffffffffffffffffffffffffffffffffffffff168173ffffffffffffffffffffffffffffffffffffffff166343c97c846040518163ffffffff1660e01b815260040160206040518083038186803b15801561050057600080fd5b505afa158015610514573d6000803e3d6000fd5b505050506040513d601f19601f820116820180604052508101906105389190610a77565b73ffffffffffffffffffffffffffffffffffffffff161461058e576040517f08c379a000000000000000000000000000000000000000000000000000000000815260040161058590610de0565b60405180910390fd5b8073ffffffffffffffffffffffffffffffffffffffff1663ab3cb34c336040518263ffffffff1660e01b81526004016105c79190610e0f565b600060405180830381600087803b1580156105e157600080fd5b505af11580156105f5573d6000803e3d6000fd5b505050505050565b6000604051905090565b600080fd5b600080fd5b600073ffffffffffffffffffffffffffffffffffffffff82169050919050565b600061063c82610611565b9050919050565b61064c81610631565b811461065757600080fd5b50565b60008135905061066981610643565b92915050565b600080fd5b6000601f19601f8301169050919050565b7f4e487b7100000000000000000000000000000000000000000000000000000000600052604160045260246000fd5b6106bd82610674565b810181811067ffffffffffffffff821117156106dc576106db610685565b5b80604052505050565b60006106ef6105fd565b90506106fb82826106b4565b919050565b600067ffffffffffffffff82111561071b5761071a610685565b5b602082029050602081019050919050565b600080fd5b600061074461073f84610700565b6106e5565b905080838252602082019050602084028301858111156107675761076661072c565b5b835b81811015610790578061077c888261065a565b845260208401935050602081019050610769565b5050509392505050565b600082601f8301126107af576107ae61066f565b5b81356107bf848260208601610731565b91505092915050565b600067ffffffffffffffff8211156107e3576107e2610685565b5b602082029050602081019050919050565b6000819050919050565b610807816107f4565b811461081257600080fd5b50565b600081359050610824816107fe565b92915050565b600061083d610838846107c8565b6106e5565b905080838252602082019050602084028301858111156108605761085f61072c565b5b835b8181101561088957806108758882610815565b845260208401935050602081019050610862565b5050509392505050565b600082601f8301126108a8576108a761066f565b5b81356108b884826020860161082a565b91505092915050565b6000806000606084860312156108da576108d9610607565b5b60006108e88682870161065a565b935050602084013567ffffffffffffffff8111156109095761090861060c565b5b6109158682870161079a565b925050604084013567ffffffffffffffff8111156109365761093561060c565b5b61094286828701610893565b9150509250925092565b60006020828403121561096257610961610607565b5b60006109708482850161065a565b91505092915050565b600082825260208201905092915050565b7f417272617973206d7573742068617665207468652073616d65206c656e677468600082015250565b60006109c0602083610979565b91506109cb8261098a565b602082019050919050565b600060208201905081810360008301526109ef816109b3565b9050919050565b7f496e76616c6964206f7264657200000000000000000000000000000000000000600082015250565b6000610a2c600d83610979565b9150610a37826109f6565b602082019050919050565b60006020820190508181036000830152610a5b81610a1f565b9050919050565b600081519050610a7181610643565b92915050565b600060208284031215610a8d57610a8c610607565b5b6000610a9b84828501610a62565b91505092915050565b7f496e76616c69642064656c6976657279206d616e000000000000000000000000600082015250565b6000610ada601483610979565b9150610ae582610aa4565b602082019050919050565b60006020820190508181036000830152610b0981610acd565b9050919050565b60008115159050919050565b610b2581610b10565b8114610b3057600080fd5b50565b600081519050610b4281610b1c565b92915050565b600060208284031215610b5e57610b5d610607565b5b6000610b6c84828501610b33565b91505092915050565b7f616c72656164792064656c697665726564000000000000000000000000000000600082015250565b6000610bab601183610979565b9150610bb682610b75565b602082019050919050565b60006020820190508181036000830152610bda81610b9e565b9050919050565b600081519050919050565b600082825260208201905092915050565b6000819050602082019050919050565b610c1681610631565b82525050565b6000610c288383610c0d565b60208301905092915050565b6000602082019050919050565b6000610c4c82610be1565b610c568185610bec565b9350610c6183610bfd565b8060005b83811015610c92578151610c798882610c1c565b9750610c8483610c34565b925050600181019050610c65565b5085935050505092915050565b600081519050919050565b600082825260208201905092915050565b6000819050602082019050919050565b610cd4816107f4565b82525050565b6000610ce68383610ccb565b60208301905092915050565b6000602082019050919050565b6000610d0a82610c9f565b610d148185610caa565b9350610d1f83610cbb565b8060005b83811015610d50578151610d378882610cda565b9750610d4283610cf2565b925050600181019050610d23565b5085935050505092915050565b60006040820190508181036000830152610d778185610c41565b90508181036020830152610d8b8184610cff565b90509392505050565b7f44656c6976657279206d616e20697320616c7265616479207365740000000000600082015250565b6000610dca601b83610979565b9150610dd582610d94565b602082019050919050565b60006020820190508181036000830152610df981610dbd565b9050919050565b610e0981610631565b82525050565b6000602082019050610e246000830184610e00565b9291505056fea2646970667358221220520bd69e9a2010fd767e37ec004bba67149f4c0060f0137ed48bcf81cbfac39364736f6c63430008080033",
  "linkReferences": {},
  "deployedLinkReferences": {}
}