{
  "_format": "hh-sol-artifact-1",
  "contractName": "DeliveryFacet",
  "sourceName": "contracts/Diamond.sol",
  "abi": [
    {
      "anonymous": false,
      "inputs": [
        {
          "indexed": false,
          "internalType": "uint256",
          "name": "orderDBID",
          "type": "uint256"
        },
        {
          "indexed": false,
          "internalType": "uint256",
          "name": "dmDBID",
          "type": "uint256"
        }
      ],
      "name": "deliveryManSet",
      "type": "event"
    },
    {
      "inputs": [
        {
          "internalType": "address",
          "name": "orderAddress",
          "type": "address"
        }
      ],
      "name": "getDelivery",
      "outputs": [
        {
          "internalType": "string[]",
          "name": "",
          "type": "string[]"
        },
        {
          "internalType": "address[]",
          "name": "",
          "type": "address[]"
        },
        {
          "internalType": "uint256[]",
          "name": "",
          "type": "uint256[]"
        },
        {
          "internalType": "uint256[]",
          "name": "",
          "type": "uint256[]"
        },
        {
          "internalType": "uint256[]",
          "name": "",
          "type": "uint256[]"
        },
        {
          "internalType": "uint256[]",
          "name": "",
          "type": "uint256[]"
        }
      ],
      "stateMutability": "view",
      "type": "function"
    },
    {
      "inputs": [
        {
          "internalType": "address",
          "name": "orderAddress",
          "type": "address"
        },
        {
          "internalType": "address[]",
          "name": "_deliveryItems",
          "type": "address[]"
        },
        {
          "internalType": "uint256[]",
          "name": "_deliveryUnits",
          "type": "uint256[]"
        }
      ],
      "name": "setDelivery",
      "outputs": [],
      "stateMutability": "nonpayable",
      "type": "function"
    },
    {
      "inputs": [
        {
          "internalType": "address",
          "name": "orderAddress",
          "type": "address"
        },
        {
          "internalType": "uint256",
          "name": "orderDBID",
          "type": "uint256"
        },
        {
          "internalType": "uint256",
          "name": "dmDBID",
          "type": "uint256"
        }
      ],
      "name": "setDeliveryMan",
      "outputs": [],
      "stateMutability": "nonpayable",
      "type": "function"
    }
  ],
  "bytecode": "0x608060405234801561001057600080fd5b50611b26806100206000396000f3fe608060405234801561001057600080fd5b50600436106100415760003560e01c80632f6d5eea14610046578063cdc6c28714610062578063fa58baee1461007e575b600080fd5b610060600480360381019061005b9190610f45565b6100b3565b005b61007c60048036038101906100779190610fd0565b6103b3565b005b61009860048036038101906100939190611023565b610678565b6040516100aa96959493929190611316565b60405180910390f35b80518251146100f7576040517f08c379a00000000000000000000000000000000000000000000000000000000081526004016100ee906113fe565b60405180910390fd5b60008060010160008573ffffffffffffffffffffffffffffffffffffffff1673ffffffffffffffffffffffffffffffffffffffff16815260200190815260200160002060009054906101000a900460ff1660ff16141561018c576040517f08c379a00000000000000000000000000000000000000000000000000000000081526004016101839061146a565b60405180910390fd5b60008390503373ffffffffffffffffffffffffffffffffffffffff168173ffffffffffffffffffffffffffffffffffffffff166343c97c846040518163ffffffff1660e01b815260040160206040518083038186803b1580156101ee57600080fd5b505afa158015610202573d6000803e3d6000fd5b505050506040513d601f19601f82011682018060405250810190610226919061149f565b73ffffffffffffffffffffffffffffffffffffffff161461027c576040517f08c379a000000000000000000000000000000000000000000000000000000000815260040161027390611518565b60405180910390fd5b600015158173ffffffffffffffffffffffffffffffffffffffff16634fbd39d36040518163ffffffff1660e01b815260040160206040518083038186803b1580156102c657600080fd5b505afa1580156102da573d6000803e3d6000fd5b505050506040513d601f19601f820116820180604052508101906102fe9190611570565b151514610340576040517f08c379a0000000000000000000000000000000000000000000000000000000008152600401610337906115e9565b60405180910390fd5b8073ffffffffffffffffffffffffffffffffffffffff1663bdb9207484846040518363ffffffff1660e01b815260040161037b929190611609565b600060405180830381600087803b15801561039557600080fd5b505af11580156103a9573d6000803e3d6000fd5b5050505050505050565b60008060050160003373ffffffffffffffffffffffffffffffffffffffff1673ffffffffffffffffffffffffffffffffffffffff16815260200190815260200160002060009054906101000a900460ff1660ff161415610448576040517f08c379a000000000000000000000000000000000000000000000000000000000815260040161043f90611518565b60405180910390fd5b60008060010160008573ffffffffffffffffffffffffffffffffffffffff1673ffffffffffffffffffffffffffffffffffffffff16815260200190815260200160002060009054906101000a900460ff1660ff1614156104dd576040517f08c379a00000000000000000000000000000000000000000000000000000000081526004016104d49061146a565b60405180910390fd5b6000839050600073ffffffffffffffffffffffffffffffffffffffff168173ffffffffffffffffffffffffffffffffffffffff166343c97c846040518163ffffffff1660e01b815260040160206040518083038186803b15801561054057600080fd5b505afa158015610554573d6000803e3d6000fd5b505050506040513d601f19601f82011682018060405250810190610578919061149f565b73ffffffffffffffffffffffffffffffffffffffff16146105ce576040517f08c379a00000000000000000000000000000000000000000000000000000000081526004016105c59061168c565b60405180910390fd5b8073ffffffffffffffffffffffffffffffffffffffff1663ab3cb34c336040518263ffffffff1660e01b815260040161060791906116bb565b600060405180830381600087803b15801561062157600080fd5b505af1158015610635573d6000803e3d6000fd5b505050507fc96e8bca962f64e910e603a370af4bc2c95bccdaef7836482df81a004bbcead5838360405161066a9291906116e5565b60405180910390a150505050565b60608060608060608060008060010160008973ffffffffffffffffffffffffffffffffffffffff1673ffffffffffffffffffffffffffffffffffffffff16815260200190815260200160002060009054906101000a900460ff1660ff161415610716576040517f08c379a000000000000000000000000000000000000000000000000000000000815260040161070d9061146a565b60405180910390fd5b600087905060008173ffffffffffffffffffffffffffffffffffffffff1663444066176040518163ffffffff1660e01b815260040160006040518083038186803b15801561076357600080fd5b505afa158015610777573d6000803e3d6000fd5b505050506040513d6000823e3d601f19601f820116820180604052508101906107a091906117a5565b905060008273ffffffffffffffffffffffffffffffffffffffff16634117163e6040518163ffffffff1660e01b815260040160006040518083038186803b1580156107ea57600080fd5b505afa1580156107fe573d6000803e3d6000fd5b505050506040513d6000823e3d601f19601f82011682018060405250810190610827919061189a565b90506000825167ffffffffffffffff81111561084657610845610d09565b5b60405190808252806020026020018201604052801561087957816020015b60608152602001906001900390816108645790505b5090506000835167ffffffffffffffff81111561089957610898610d09565b5b6040519080825280602002602001820160405280156108c75781602001602082028036833780820191505090505b5090506000845167ffffffffffffffff8111156108e7576108e6610d09565b5b6040519080825280602002602001820160405280156109155781602001602082028036833780820191505090505b5090506000855167ffffffffffffffff81111561093557610934610d09565b5b6040519080825280602002602001820160405280156109635781602001602082028036833780820191505090505b50905060005b86518161ffff161015610c5e576000878261ffff168151811061098f5761098e6118e3565b5b602002602001015190508073ffffffffffffffffffffffffffffffffffffffff166317d7de7c6040518163ffffffff1660e01b815260040160006040518083038186803b1580156109df57600080fd5b505afa1580156109f3573d6000803e3d6000fd5b505050506040513d6000823e3d601f19601f82011682018060405250810190610a1c91906119b8565b868361ffff1681518110610a3357610a326118e3565b5b60200260200101819052508073ffffffffffffffffffffffffffffffffffffffff1663db005d886040518163ffffffff1660e01b815260040160206040518083038186803b158015610a8457600080fd5b505afa158015610a98573d6000803e3d6000fd5b505050506040513d601f19601f82011682018060405250810190610abc9190611a01565b838361ffff1681518110610ad357610ad26118e3565b5b602002602001018181525050868261ffff1681518110610af657610af56118e3565b5b60200260200101518173ffffffffffffffffffffffffffffffffffffffff166384aa33656040518163ffffffff1660e01b815260040160206040518083038186803b158015610b4457600080fd5b505afa158015610b58573d6000803e3d6000fd5b505050506040513d601f19601f82011682018060405250810190610b7c9190611a01565b610b869190611a5d565b858361ffff1681518110610b9d57610b9c6118e3565b5b6020026020010181815250508073ffffffffffffffffffffffffffffffffffffffff166384aa33656040518163ffffffff1660e01b815260040160206040518083038186803b158015610bef57600080fd5b505afa158015610c03573d6000803e3d6000fd5b505050506040513d601f19601f82011682018060405250810190610c279190611a01565b848361ffff1681518110610c3e57610c3d6118e3565b5b602002602001018181525050508080610c5690611ac5565b915050610969565b508386868486859c509c509c509c509c509c505050505050505091939550919395565b6000604051905090565b600080fd5b600080fd5b600073ffffffffffffffffffffffffffffffffffffffff82169050919050565b6000610cc082610c95565b9050919050565b610cd081610cb5565b8114610cdb57600080fd5b50565b600081359050610ced81610cc7565b92915050565b600080fd5b6000601f19601f8301169050919050565b7f4e487b7100000000000000000000000000000000000000000000000000000000600052604160045260246000fd5b610d4182610cf8565b810181811067ffffffffffffffff82111715610d6057610d5f610d09565b5b80604052505050565b6000610d73610c81565b9050610d7f8282610d38565b919050565b600067ffffffffffffffff821115610d9f57610d9e610d09565b5b602082029050602081019050919050565b600080fd5b6000610dc8610dc384610d84565b610d69565b90508083825260208201905060208402830185811115610deb57610dea610db0565b5b835b81811015610e145780610e008882610cde565b845260208401935050602081019050610ded565b5050509392505050565b600082601f830112610e3357610e32610cf3565b5b8135610e43848260208601610db5565b91505092915050565b600067ffffffffffffffff821115610e6757610e66610d09565b5b602082029050602081019050919050565b6000819050919050565b610e8b81610e78565b8114610e9657600080fd5b50565b600081359050610ea881610e82565b92915050565b6000610ec1610ebc84610e4c565b610d69565b90508083825260208201905060208402830185811115610ee457610ee3610db0565b5b835b81811015610f0d5780610ef98882610e99565b845260208401935050602081019050610ee6565b5050509392505050565b600082601f830112610f2c57610f2b610cf3565b5b8135610f3c848260208601610eae565b91505092915050565b600080600060608486031215610f5e57610f5d610c8b565b5b6000610f6c86828701610cde565b935050602084013567ffffffffffffffff811115610f8d57610f8c610c90565b5b610f9986828701610e1e565b925050604084013567ffffffffffffffff811115610fba57610fb9610c90565b5b610fc686828701610f17565b9150509250925092565b600080600060608486031215610fe957610fe8610c8b565b5b6000610ff786828701610cde565b935050602061100886828701610e99565b925050604061101986828701610e99565b9150509250925092565b60006020828403121561103957611038610c8b565b5b600061104784828501610cde565b91505092915050565b600081519050919050565b600082825260208201905092915050565b6000819050602082019050919050565b600081519050919050565b600082825260208201905092915050565b60005b838110156110b657808201518184015260208101905061109b565b838111156110c5576000848401525b50505050565b60006110d68261107c565b6110e08185611087565b93506110f0818560208601611098565b6110f981610cf8565b840191505092915050565b600061111083836110cb565b905092915050565b6000602082019050919050565b600061113082611050565b61113a818561105b565b93508360208202850161114c8561106c565b8060005b8581101561118857848403895281516111698582611104565b945061117483611118565b925060208a01995050600181019050611150565b50829750879550505050505092915050565b600081519050919050565b600082825260208201905092915050565b6000819050602082019050919050565b6111cf81610cb5565b82525050565b60006111e183836111c6565b60208301905092915050565b6000602082019050919050565b60006112058261119a565b61120f81856111a5565b935061121a836111b6565b8060005b8381101561124b57815161123288826111d5565b975061123d836111ed565b92505060018101905061121e565b5085935050505092915050565b600081519050919050565b600082825260208201905092915050565b6000819050602082019050919050565b61128d81610e78565b82525050565b600061129f8383611284565b60208301905092915050565b6000602082019050919050565b60006112c382611258565b6112cd8185611263565b93506112d883611274565b8060005b838110156113095781516112f08882611293565b97506112fb836112ab565b9250506001810190506112dc565b5085935050505092915050565b600060c08201905081810360008301526113308189611125565b9050818103602083015261134481886111fa565b9050818103604083015261135881876112b8565b9050818103606083015261136c81866112b8565b9050818103608083015261138081856112b8565b905081810360a083015261139481846112b8565b9050979650505050505050565b600082825260208201905092915050565b7f417272617973206d7573742068617665207468652073616d65206c656e677468600082015250565b60006113e86020836113a1565b91506113f3826113b2565b602082019050919050565b60006020820190508181036000830152611417816113db565b9050919050565b7f496e76616c6964206f7264657200000000000000000000000000000000000000600082015250565b6000611454600d836113a1565b915061145f8261141e565b602082019050919050565b6000602082019050818103600083015261148381611447565b9050919050565b60008151905061149981610cc7565b92915050565b6000602082840312156114b5576114b4610c8b565b5b60006114c38482850161148a565b91505092915050565b7f496e76616c69642064656c6976657279206d616e000000000000000000000000600082015250565b60006115026014836113a1565b915061150d826114cc565b602082019050919050565b60006020820190508181036000830152611531816114f5565b9050919050565b60008115159050919050565b61154d81611538565b811461155857600080fd5b50565b60008151905061156a81611544565b92915050565b60006020828403121561158657611585610c8b565b5b60006115948482850161155b565b91505092915050565b7f616c72656164792064656c697665726564000000000000000000000000000000600082015250565b60006115d36011836113a1565b91506115de8261159d565b602082019050919050565b60006020820190508181036000830152611602816115c6565b9050919050565b6000604082019050818103600083015261162381856111fa565b9050818103602083015261163781846112b8565b90509392505050565b7f44656c6976657279206d616e20697320616c7265616479207365740000000000600082015250565b6000611676601b836113a1565b915061168182611640565b602082019050919050565b600060208201905081810360008301526116a581611669565b9050919050565b6116b581610cb5565b82525050565b60006020820190506116d060008301846116ac565b92915050565b6116df81610e78565b82525050565b60006040820190506116fa60008301856116d6565b61170760208301846116d6565b9392505050565b600061172161171c84610d84565b610d69565b9050808382526020820190506020840283018581111561174457611743610db0565b5b835b8181101561176d5780611759888261148a565b845260208401935050602081019050611746565b5050509392505050565b600082601f83011261178c5761178b610cf3565b5b815161179c84826020860161170e565b91505092915050565b6000602082840312156117bb576117ba610c8b565b5b600082015167ffffffffffffffff8111156117d9576117d8610c90565b5b6117e584828501611777565b91505092915050565b6000815190506117fd81610e82565b92915050565b600061181661181184610e4c565b610d69565b9050808382526020820190506020840283018581111561183957611838610db0565b5b835b81811015611862578061184e88826117ee565b84526020840193505060208101905061183b565b5050509392505050565b600082601f83011261188157611880610cf3565b5b8151611891848260208601611803565b91505092915050565b6000602082840312156118b0576118af610c8b565b5b600082015167ffffffffffffffff8111156118ce576118cd610c90565b5b6118da8482850161186c565b91505092915050565b7f4e487b7100000000000000000000000000000000000000000000000000000000600052603260045260246000fd5b600080fd5b600067ffffffffffffffff82111561193257611931610d09565b5b61193b82610cf8565b9050602081019050919050565b600061195b61195684611917565b610d69565b90508281526020810184848401111561197757611976611912565b5b611982848285611098565b509392505050565b600082601f83011261199f5761199e610cf3565b5b81516119af848260208601611948565b91505092915050565b6000602082840312156119ce576119cd610c8b565b5b600082015167ffffffffffffffff8111156119ec576119eb610c90565b5b6119f88482850161198a565b91505092915050565b600060208284031215611a1757611a16610c8b565b5b6000611a25848285016117ee565b91505092915050565b7f4e487b7100000000000000000000000000000000000000000000000000000000600052601160045260246000fd5b6000611a6882610e78565b9150611a7383610e78565b9250817fffffffffffffffffffffffffffffffffffffffffffffffffffffffffffffffff0483118215151615611aac57611aab611a2e565b5b828202905092915050565b600061ffff82169050919050565b6000611ad082611ab7565b915061ffff821415611ae557611ae4611a2e565b5b60018201905091905056fea264697066735822122089469c0179d6b598573754f8ee654fedafe217a8ddd6c3b55b75f84160173ac164736f6c63430008080033",
  "linkReferences": {},
  "deployedLinkReferences": {}
}