{
  "_format": "hh-sol-artifact-1",
  "contractName": "DeliveryFacet",
  "sourceName": "contracts/Diamond.sol",
  "abi": [
    {
      "inputs": [
        {
          "internalType": "address",
          "name": "orderAddress",
          "type": "address"
        },
        {
          "internalType": "address[]",
          "name": "_deliveryItems",
          "type": "address[]"
        },
        {
          "internalType": "uint256[]",
          "name": "_deliveryUnits",
          "type": "uint256[]"
        }
      ],
      "name": "setDelivery",
      "outputs": [],
      "stateMutability": "nonpayable",
      "type": "function"
    },
    {
      "inputs": [
        {
          "internalType": "address",
          "name": "orderAddress",
          "type": "address"
        },
        {
          "internalType": "address",
          "name": "deliveryManAddress",
          "type": "address"
        }
      ],
      "name": "setDeliveryMan",
      "outputs": [],
      "stateMutability": "nonpayable",
      "type": "function"
    }
  ],
  "bytecode": "0x608060405234801561001057600080fd5b50610e74806100206000396000f3fe608060405234801561001057600080fd5b50600436106100365760003560e01c80632672f4101461003b5780632f6d5eea14610057575b600080fd5b61005560048036038101906100509190610670565b610073565b005b610071600480360381019061006c9190610902565b6102fe565b005b60008060050160008373ffffffffffffffffffffffffffffffffffffffff1673ffffffffffffffffffffffffffffffffffffffff16815260200190815260200160002060009054906101000a900460ff1660ff161415610108576040517f08c379a00000000000000000000000000000000000000000000000000000000081526004016100ff906109ea565b60405180910390fd5b60008060010160008473ffffffffffffffffffffffffffffffffffffffff1673ffffffffffffffffffffffffffffffffffffffff16815260200190815260200160002060009054906101000a900460ff1660ff16141561019d576040517f08c379a000000000000000000000000000000000000000000000000000000000815260040161019490610a56565b60405180910390fd5b6000829050600073ffffffffffffffffffffffffffffffffffffffff168173ffffffffffffffffffffffffffffffffffffffff166343c97c846040518163ffffffff1660e01b815260040160206040518083038186803b15801561020057600080fd5b505afa158015610214573d6000803e3d6000fd5b505050506040513d601f19601f820116820180604052508101906102389190610a8b565b73ffffffffffffffffffffffffffffffffffffffff161461028e576040517f08c379a000000000000000000000000000000000000000000000000000000000815260040161028590610b04565b60405180910390fd5b8073ffffffffffffffffffffffffffffffffffffffff1663ab3cb34c836040518263ffffffff1660e01b81526004016102c79190610b33565b600060405180830381600087803b1580156102e157600080fd5b505af11580156102f5573d6000803e3d6000fd5b50505050505050565b8051825114610342576040517f08c379a000000000000000000000000000000000000000000000000000000000815260040161033990610b9a565b60405180910390fd5b60008060010160008573ffffffffffffffffffffffffffffffffffffffff1673ffffffffffffffffffffffffffffffffffffffff16815260200190815260200160002060009054906101000a900460ff1660ff1614156103d7576040517f08c379a00000000000000000000000000000000000000000000000000000000081526004016103ce90610a56565b60405180910390fd5b60008390503373ffffffffffffffffffffffffffffffffffffffff168173ffffffffffffffffffffffffffffffffffffffff166343c97c846040518163ffffffff1660e01b815260040160206040518083038186803b15801561043957600080fd5b505afa15801561044d573d6000803e3d6000fd5b505050506040513d601f19601f820116820180604052508101906104719190610a8b565b73ffffffffffffffffffffffffffffffffffffffff16146104c7576040517f08c379a00000000000000000000000000000000000000000000000000000000081526004016104be906109ea565b60405180910390fd5b600015158173ffffffffffffffffffffffffffffffffffffffff16634fbd39d36040518163ffffffff1660e01b815260040160206040518083038186803b15801561051157600080fd5b505afa158015610525573d6000803e3d6000fd5b505050506040513d601f19601f820116820180604052508101906105499190610bf2565b15151461058b576040517f08c379a000000000000000000000000000000000000000000000000000000000815260040161058290610c6b565b60405180910390fd5b8073ffffffffffffffffffffffffffffffffffffffff1663bdb9207484846040518363ffffffff1660e01b81526004016105c6929190610e07565b600060405180830381600087803b1580156105e057600080fd5b505af11580156105f4573d6000803e3d6000fd5b5050505050505050565b6000604051905090565b600080fd5b600080fd5b600073ffffffffffffffffffffffffffffffffffffffff82169050919050565b600061063d82610612565b9050919050565b61064d81610632565b811461065857600080fd5b50565b60008135905061066a81610644565b92915050565b6000806040838503121561068757610686610608565b5b60006106958582860161065b565b92505060206106a68582860161065b565b9150509250929050565b600080fd5b6000601f19601f8301169050919050565b7f4e487b7100000000000000000000000000000000000000000000000000000000600052604160045260246000fd5b6106fe826106b5565b810181811067ffffffffffffffff8211171561071d5761071c6106c6565b5b80604052505050565b60006107306105fe565b905061073c82826106f5565b919050565b600067ffffffffffffffff82111561075c5761075b6106c6565b5b602082029050602081019050919050565b600080fd5b600061078561078084610741565b610726565b905080838252602082019050602084028301858111156107a8576107a761076d565b5b835b818110156107d157806107bd888261065b565b8452602084019350506020810190506107aa565b5050509392505050565b600082601f8301126107f0576107ef6106b0565b5b8135610800848260208601610772565b91505092915050565b600067ffffffffffffffff821115610824576108236106c6565b5b602082029050602081019050919050565b6000819050919050565b61084881610835565b811461085357600080fd5b50565b6000813590506108658161083f565b92915050565b600061087e61087984610809565b610726565b905080838252602082019050602084028301858111156108a1576108a061076d565b5b835b818110156108ca57806108b68882610856565b8452602084019350506020810190506108a3565b5050509392505050565b600082601f8301126108e9576108e86106b0565b5b81356108f984826020860161086b565b91505092915050565b60008060006060848603121561091b5761091a610608565b5b60006109298682870161065b565b935050602084013567ffffffffffffffff81111561094a5761094961060d565b5b610956868287016107db565b925050604084013567ffffffffffffffff8111156109775761097661060d565b5b610983868287016108d4565b9150509250925092565b600082825260208201905092915050565b7f496e76616c69642064656c6976657279206d616e000000000000000000000000600082015250565b60006109d460148361098d565b91506109df8261099e565b602082019050919050565b60006020820190508181036000830152610a03816109c7565b9050919050565b7f496e76616c6964206f7264657200000000000000000000000000000000000000600082015250565b6000610a40600d8361098d565b9150610a4b82610a0a565b602082019050919050565b60006020820190508181036000830152610a6f81610a33565b9050919050565b600081519050610a8581610644565b92915050565b600060208284031215610aa157610aa0610608565b5b6000610aaf84828501610a76565b91505092915050565b7f44656c6976657279206d616e20697320616c7265616479207365740000000000600082015250565b6000610aee601b8361098d565b9150610af982610ab8565b602082019050919050565b60006020820190508181036000830152610b1d81610ae1565b9050919050565b610b2d81610632565b82525050565b6000602082019050610b486000830184610b24565b92915050565b7f417272617973206d7573742068617665207468652073616d65206c656e677468600082015250565b6000610b8460208361098d565b9150610b8f82610b4e565b602082019050919050565b60006020820190508181036000830152610bb381610b77565b9050919050565b60008115159050919050565b610bcf81610bba565b8114610bda57600080fd5b50565b600081519050610bec81610bc6565b92915050565b600060208284031215610c0857610c07610608565b5b6000610c1684828501610bdd565b91505092915050565b7f616c72656164792064656c697665726564000000000000000000000000000000600082015250565b6000610c5560118361098d565b9150610c6082610c1f565b602082019050919050565b60006020820190508181036000830152610c8481610c48565b9050919050565b600081519050919050565b600082825260208201905092915050565b6000819050602082019050919050565b610cc081610632565b82525050565b6000610cd28383610cb7565b60208301905092915050565b6000602082019050919050565b6000610cf682610c8b565b610d008185610c96565b9350610d0b83610ca7565b8060005b83811015610d3c578151610d238882610cc6565b9750610d2e83610cde565b925050600181019050610d0f565b5085935050505092915050565b600081519050919050565b600082825260208201905092915050565b6000819050602082019050919050565b610d7e81610835565b82525050565b6000610d908383610d75565b60208301905092915050565b6000602082019050919050565b6000610db482610d49565b610dbe8185610d54565b9350610dc983610d65565b8060005b83811015610dfa578151610de18882610d84565b9750610dec83610d9c565b925050600181019050610dcd565b5085935050505092915050565b60006040820190508181036000830152610e218185610ceb565b90508181036020830152610e358184610da9565b9050939250505056fea2646970667358221220ec114e4eeb430171c6abff8c14d05f15a008e44fc6cce6a74b9a41d46d8a2dbb64736f6c63430008080033",
  "linkReferences": {},
  "deployedLinkReferences": {}
}