{
  "_format": "hh-sol-artifact-1",
  "contractName": "DeliveryFacet",
  "sourceName": "contracts/Diamond.sol",
  "abi": [
    {
      "anonymous": false,
      "inputs": [
        {
          "indexed": false,
          "internalType": "uint256",
          "name": "orderDBID",
          "type": "uint256"
        },
        {
          "indexed": false,
          "internalType": "uint256",
          "name": "dmDBID",
          "type": "uint256"
        }
      ],
      "name": "deliveryManSet",
      "type": "event"
    },
    {
      "inputs": [
        {
          "internalType": "address",
          "name": "orderAddress",
          "type": "address"
        }
      ],
      "name": "getDelivery",
      "outputs": [
        {
          "internalType": "string[]",
          "name": "",
          "type": "string[]"
        },
        {
          "internalType": "address[]",
          "name": "",
          "type": "address[]"
        },
        {
          "internalType": "uint256[]",
          "name": "",
          "type": "uint256[]"
        },
        {
          "internalType": "uint256[]",
          "name": "",
          "type": "uint256[]"
        },
        {
          "internalType": "uint256[]",
          "name": "",
          "type": "uint256[]"
        }
      ],
      "stateMutability": "view",
      "type": "function"
    },
    {
      "inputs": [
        {
          "internalType": "address",
          "name": "orderAddress",
          "type": "address"
        },
        {
          "internalType": "address[]",
          "name": "_deliveryItems",
          "type": "address[]"
        },
        {
          "internalType": "uint256[]",
          "name": "_deliveryUnits",
          "type": "uint256[]"
        }
      ],
      "name": "setDelivery",
      "outputs": [],
      "stateMutability": "nonpayable",
      "type": "function"
    },
    {
      "inputs": [
        {
          "internalType": "address",
          "name": "orderAddress",
          "type": "address"
        },
        {
          "internalType": "uint256",
          "name": "orderDBID",
          "type": "uint256"
        },
        {
          "internalType": "uint256",
          "name": "dmDBID",
          "type": "uint256"
        }
      ],
      "name": "setDeliveryMan",
      "outputs": [],
      "stateMutability": "nonpayable",
      "type": "function"
    }
  ],
  "bytecode": "0x608060405234801561001057600080fd5b50611a1c806100206000396000f3fe608060405234801561001057600080fd5b50600436106100415760003560e01c80632f6d5eea14610046578063cdc6c28714610062578063fa58baee1461007e575b600080fd5b610060600480360381019061005b9190610e50565b6100b2565b005b61007c60048036038101906100779190610edb565b6103b2565b005b61009860048036038101906100939190610f2e565b610677565b6040516100a9959493929190611221565b60405180910390f35b80518251146100f6576040517f08c379a00000000000000000000000000000000000000000000000000000000081526004016100ed906112f4565b60405180910390fd5b60008060010160008573ffffffffffffffffffffffffffffffffffffffff1673ffffffffffffffffffffffffffffffffffffffff16815260200190815260200160002060009054906101000a900460ff1660ff16141561018b576040517f08c379a000000000000000000000000000000000000000000000000000000000815260040161018290611360565b60405180910390fd5b60008390503373ffffffffffffffffffffffffffffffffffffffff168173ffffffffffffffffffffffffffffffffffffffff166343c97c846040518163ffffffff1660e01b815260040160206040518083038186803b1580156101ed57600080fd5b505afa158015610201573d6000803e3d6000fd5b505050506040513d601f19601f820116820180604052508101906102259190611395565b73ffffffffffffffffffffffffffffffffffffffff161461027b576040517f08c379a00000000000000000000000000000000000000000000000000000000081526004016102729061140e565b60405180910390fd5b600015158173ffffffffffffffffffffffffffffffffffffffff16634fbd39d36040518163ffffffff1660e01b815260040160206040518083038186803b1580156102c557600080fd5b505afa1580156102d9573d6000803e3d6000fd5b505050506040513d601f19601f820116820180604052508101906102fd9190611466565b15151461033f576040517f08c379a0000000000000000000000000000000000000000000000000000000008152600401610336906114df565b60405180910390fd5b8073ffffffffffffffffffffffffffffffffffffffff1663bdb9207484846040518363ffffffff1660e01b815260040161037a9291906114ff565b600060405180830381600087803b15801561039457600080fd5b505af11580156103a8573d6000803e3d6000fd5b5050505050505050565b60008060050160003373ffffffffffffffffffffffffffffffffffffffff1673ffffffffffffffffffffffffffffffffffffffff16815260200190815260200160002060009054906101000a900460ff1660ff161415610447576040517f08c379a000000000000000000000000000000000000000000000000000000000815260040161043e9061140e565b60405180910390fd5b60008060010160008573ffffffffffffffffffffffffffffffffffffffff1673ffffffffffffffffffffffffffffffffffffffff16815260200190815260200160002060009054906101000a900460ff1660ff1614156104dc576040517f08c379a00000000000000000000000000000000000000000000000000000000081526004016104d390611360565b60405180910390fd5b6000839050600073ffffffffffffffffffffffffffffffffffffffff168173ffffffffffffffffffffffffffffffffffffffff166343c97c846040518163ffffffff1660e01b815260040160206040518083038186803b15801561053f57600080fd5b505afa158015610553573d6000803e3d6000fd5b505050506040513d601f19601f820116820180604052508101906105779190611395565b73ffffffffffffffffffffffffffffffffffffffff16146105cd576040517f08c379a00000000000000000000000000000000000000000000000000000000081526004016105c490611582565b60405180910390fd5b8073ffffffffffffffffffffffffffffffffffffffff1663ab3cb34c336040518263ffffffff1660e01b815260040161060691906115b1565b600060405180830381600087803b15801561062057600080fd5b505af1158015610634573d6000803e3d6000fd5b505050507fc96e8bca962f64e910e603a370af4bc2c95bccdaef7836482df81a004bbcead583836040516106699291906115db565b60405180910390a150505050565b606080606080606060008060010160008873ffffffffffffffffffffffffffffffffffffffff1673ffffffffffffffffffffffffffffffffffffffff16815260200190815260200160002060009054906101000a900460ff1660ff161415610714576040517f08c379a000000000000000000000000000000000000000000000000000000000815260040161070b90611360565b60405180910390fd5b600086905060008173ffffffffffffffffffffffffffffffffffffffff1663444066176040518163ffffffff1660e01b815260040160006040518083038186803b15801561076157600080fd5b505afa158015610775573d6000803e3d6000fd5b505050506040513d6000823e3d601f19601f8201168201806040525081019061079e919061169b565b905060008273ffffffffffffffffffffffffffffffffffffffff16634117163e6040518163ffffffff1660e01b815260040160006040518083038186803b1580156107e857600080fd5b505afa1580156107fc573d6000803e3d6000fd5b505050506040513d6000823e3d601f19601f820116820180604052508101906108259190611790565b90506000825167ffffffffffffffff81111561084457610843610c14565b5b60405190808252806020026020018201604052801561087757816020015b60608152602001906001900390816108625790505b5090506000835167ffffffffffffffff81111561089757610896610c14565b5b6040519080825280602002602001820160405280156108c55781602001602082028036833780820191505090505b5090506000845167ffffffffffffffff8111156108e5576108e4610c14565b5b6040519080825280602002602001820160405280156109135781602001602082028036833780820191505090505b50905060005b85518161ffff161015610b6d576000868261ffff168151811061093f5761093e6117d9565b5b602002602001015190508073ffffffffffffffffffffffffffffffffffffffff166317d7de7c6040518163ffffffff1660e01b815260040160006040518083038186803b15801561098f57600080fd5b505afa1580156109a3573d6000803e3d6000fd5b505050506040513d6000823e3d601f19601f820116820180604052508101906109cc91906118ae565b858361ffff16815181106109e3576109e26117d9565b5b6020026020010181905250858261ffff1681518110610a0557610a046117d9565b5b60200260200101518173ffffffffffffffffffffffffffffffffffffffff166384aa33656040518163ffffffff1660e01b815260040160206040518083038186803b158015610a5357600080fd5b505afa158015610a67573d6000803e3d6000fd5b505050506040513d601f19601f82011682018060405250810190610a8b91906118f7565b610a959190611953565b848361ffff1681518110610aac57610aab6117d9565b5b6020026020010181815250508073ffffffffffffffffffffffffffffffffffffffff166384aa33656040518163ffffffff1660e01b815260040160206040518083038186803b158015610afe57600080fd5b505afa158015610b12573d6000803e3d6000fd5b505050506040513d601f19601f82011682018060405250810190610b3691906118f7565b838361ffff1681518110610b4d57610b4c6117d9565b5b602002602001018181525050508080610b65906119bb565b915050610919565b5082858583859a509a509a509a509a5050505050505091939590929450565b6000604051905090565b600080fd5b600080fd5b600073ffffffffffffffffffffffffffffffffffffffff82169050919050565b6000610bcb82610ba0565b9050919050565b610bdb81610bc0565b8114610be657600080fd5b50565b600081359050610bf881610bd2565b92915050565b600080fd5b6000601f19601f8301169050919050565b7f4e487b7100000000000000000000000000000000000000000000000000000000600052604160045260246000fd5b610c4c82610c03565b810181811067ffffffffffffffff82111715610c6b57610c6a610c14565b5b80604052505050565b6000610c7e610b8c565b9050610c8a8282610c43565b919050565b600067ffffffffffffffff821115610caa57610ca9610c14565b5b602082029050602081019050919050565b600080fd5b6000610cd3610cce84610c8f565b610c74565b90508083825260208201905060208402830185811115610cf657610cf5610cbb565b5b835b81811015610d1f5780610d0b8882610be9565b845260208401935050602081019050610cf8565b5050509392505050565b600082601f830112610d3e57610d3d610bfe565b5b8135610d4e848260208601610cc0565b91505092915050565b600067ffffffffffffffff821115610d7257610d71610c14565b5b602082029050602081019050919050565b6000819050919050565b610d9681610d83565b8114610da157600080fd5b50565b600081359050610db381610d8d565b92915050565b6000610dcc610dc784610d57565b610c74565b90508083825260208201905060208402830185811115610def57610dee610cbb565b5b835b81811015610e185780610e048882610da4565b845260208401935050602081019050610df1565b5050509392505050565b600082601f830112610e3757610e36610bfe565b5b8135610e47848260208601610db9565b91505092915050565b600080600060608486031215610e6957610e68610b96565b5b6000610e7786828701610be9565b935050602084013567ffffffffffffffff811115610e9857610e97610b9b565b5b610ea486828701610d29565b925050604084013567ffffffffffffffff811115610ec557610ec4610b9b565b5b610ed186828701610e22565b9150509250925092565b600080600060608486031215610ef457610ef3610b96565b5b6000610f0286828701610be9565b9350506020610f1386828701610da4565b9250506040610f2486828701610da4565b9150509250925092565b600060208284031215610f4457610f43610b96565b5b6000610f5284828501610be9565b91505092915050565b600081519050919050565b600082825260208201905092915050565b6000819050602082019050919050565b600081519050919050565b600082825260208201905092915050565b60005b83811015610fc1578082015181840152602081019050610fa6565b83811115610fd0576000848401525b50505050565b6000610fe182610f87565b610feb8185610f92565b9350610ffb818560208601610fa3565b61100481610c03565b840191505092915050565b600061101b8383610fd6565b905092915050565b6000602082019050919050565b600061103b82610f5b565b6110458185610f66565b93508360208202850161105785610f77565b8060005b858110156110935784840389528151611074858261100f565b945061107f83611023565b925060208a0199505060018101905061105b565b50829750879550505050505092915050565b600081519050919050565b600082825260208201905092915050565b6000819050602082019050919050565b6110da81610bc0565b82525050565b60006110ec83836110d1565b60208301905092915050565b6000602082019050919050565b6000611110826110a5565b61111a81856110b0565b9350611125836110c1565b8060005b8381101561115657815161113d88826110e0565b9750611148836110f8565b925050600181019050611129565b5085935050505092915050565b600081519050919050565b600082825260208201905092915050565b6000819050602082019050919050565b61119881610d83565b82525050565b60006111aa838361118f565b60208301905092915050565b6000602082019050919050565b60006111ce82611163565b6111d8818561116e565b93506111e38361117f565b8060005b838110156112145781516111fb888261119e565b9750611206836111b6565b9250506001810190506111e7565b5085935050505092915050565b600060a082019050818103600083015261123b8188611030565b9050818103602083015261124f8187611105565b9050818103604083015261126381866111c3565b9050818103606083015261127781856111c3565b9050818103608083015261128b81846111c3565b90509695505050505050565b600082825260208201905092915050565b7f417272617973206d7573742068617665207468652073616d65206c656e677468600082015250565b60006112de602083611297565b91506112e9826112a8565b602082019050919050565b6000602082019050818103600083015261130d816112d1565b9050919050565b7f496e76616c6964206f7264657200000000000000000000000000000000000000600082015250565b600061134a600d83611297565b915061135582611314565b602082019050919050565b600060208201905081810360008301526113798161133d565b9050919050565b60008151905061138f81610bd2565b92915050565b6000602082840312156113ab576113aa610b96565b5b60006113b984828501611380565b91505092915050565b7f496e76616c69642064656c6976657279206d616e000000000000000000000000600082015250565b60006113f8601483611297565b9150611403826113c2565b602082019050919050565b60006020820190508181036000830152611427816113eb565b9050919050565b60008115159050919050565b6114438161142e565b811461144e57600080fd5b50565b6000815190506114608161143a565b92915050565b60006020828403121561147c5761147b610b96565b5b600061148a84828501611451565b91505092915050565b7f616c72656164792064656c697665726564000000000000000000000000000000600082015250565b60006114c9601183611297565b91506114d482611493565b602082019050919050565b600060208201905081810360008301526114f8816114bc565b9050919050565b600060408201905081810360008301526115198185611105565b9050818103602083015261152d81846111c3565b90509392505050565b7f44656c6976657279206d616e20697320616c7265616479207365740000000000600082015250565b600061156c601b83611297565b915061157782611536565b602082019050919050565b6000602082019050818103600083015261159b8161155f565b9050919050565b6115ab81610bc0565b82525050565b60006020820190506115c660008301846115a2565b92915050565b6115d581610d83565b82525050565b60006040820190506115f060008301856115cc565b6115fd60208301846115cc565b9392505050565b600061161761161284610c8f565b610c74565b9050808382526020820190506020840283018581111561163a57611639610cbb565b5b835b81811015611663578061164f8882611380565b84526020840193505060208101905061163c565b5050509392505050565b600082601f83011261168257611681610bfe565b5b8151611692848260208601611604565b91505092915050565b6000602082840312156116b1576116b0610b96565b5b600082015167ffffffffffffffff8111156116cf576116ce610b9b565b5b6116db8482850161166d565b91505092915050565b6000815190506116f381610d8d565b92915050565b600061170c61170784610d57565b610c74565b9050808382526020820190506020840283018581111561172f5761172e610cbb565b5b835b81811015611758578061174488826116e4565b845260208401935050602081019050611731565b5050509392505050565b600082601f83011261177757611776610bfe565b5b81516117878482602086016116f9565b91505092915050565b6000602082840312156117a6576117a5610b96565b5b600082015167ffffffffffffffff8111156117c4576117c3610b9b565b5b6117d084828501611762565b91505092915050565b7f4e487b7100000000000000000000000000000000000000000000000000000000600052603260045260246000fd5b600080fd5b600067ffffffffffffffff82111561182857611827610c14565b5b61183182610c03565b9050602081019050919050565b600061185161184c8461180d565b610c74565b90508281526020810184848401111561186d5761186c611808565b5b611878848285610fa3565b509392505050565b600082601f83011261189557611894610bfe565b5b81516118a584826020860161183e565b91505092915050565b6000602082840312156118c4576118c3610b96565b5b600082015167ffffffffffffffff8111156118e2576118e1610b9b565b5b6118ee84828501611880565b91505092915050565b60006020828403121561190d5761190c610b96565b5b600061191b848285016116e4565b91505092915050565b7f4e487b7100000000000000000000000000000000000000000000000000000000600052601160045260246000fd5b600061195e82610d83565b915061196983610d83565b9250817fffffffffffffffffffffffffffffffffffffffffffffffffffffffffffffffff04831182151516156119a2576119a1611924565b5b828202905092915050565b600061ffff82169050919050565b60006119c6826119ad565b915061ffff8214156119db576119da611924565b5b60018201905091905056fea2646970667358221220eeffc763784b6db82e7a0b114f59a35a551909456766d29886a4fa7684f0256e64736f6c63430008080033",
  "linkReferences": {},
  "deployedLinkReferences": {}
}