{
  "_format": "hh-sol-artifact-1",
  "contractName": "Diamond",
  "sourceName": "contracts/Diamond.sol",
  "abi": [
    {
      "inputs": [],
      "stateMutability": "nonpayable",
      "type": "constructor"
    },
    {
      "stateMutability": "payable",
      "type": "fallback"
    },
    {
      "inputs": [
        {
          "internalType": "bytes4",
          "name": "",
          "type": "bytes4"
        }
      ],
      "name": "facetMap",
      "outputs": [
        {
          "internalType": "address",
          "name": "",
          "type": "address"
        }
      ],
      "stateMutability": "view",
      "type": "function"
    }
  ],
  "bytecode": "0x608060405234801561001057600080fd5b50600060405161001f9061096b565b604051809103906000f08015801561003b573d6000803e3d6000fd5b509050600060405161004c90610979565b604051809103906000f080158015610068573d6000803e3d6000fd5b509050600060405161007990610987565b604051809103906000f080158015610095573d6000803e3d6000fd5b50905060006040516100a690610995565b604051809103906000f0801580156100c2573d6000803e3d6000fd5b50905060006040516100d3906109a3565b604051809103906000f0801580156100ef573d6000803e3d6000fd5b5090506729a2241af62c00006000600601819055506729a2241af62c0000600060070181905550600560006008018190555084600960007ffcf15741a365f7ec2d32119931b64627aa33baa2edcc45249596eef7004099487bffffffffffffffffffffffffffffffffffffffffffffffffffffffff19167bffffffffffffffffffffffffffffffffffffffffffffffffffffffff1916815260200190815260200160002060006101000a81548173ffffffffffffffffffffffffffffffffffffffff021916908373ffffffffffffffffffffffffffffffffffffffff16021790555083600960007fcdc6c28721b27827aec68f7c3f46f68375a96ee4b3e6eecbc9bd9a52478cc28e7bffffffffffffffffffffffffffffffffffffffffffffffffffffffff19167bffffffffffffffffffffffffffffffffffffffffffffffffffffffff1916815260200190815260200160002060006101000a81548173ffffffffffffffffffffffffffffffffffffffff021916908373ffffffffffffffffffffffffffffffffffffffff16021790555083600960007f2f6d5eea62bddac2ed0681e71e81323794041ae57a113968d42745754c9edd767bffffffffffffffffffffffffffffffffffffffffffffffffffffffff19167bffffffffffffffffffffffffffffffffffffffffffffffffffffffff1916815260200190815260200160002060006101000a81548173ffffffffffffffffffffffffffffffffffffffff021916908373ffffffffffffffffffffffffffffffffffffffff16021790555083600960007ffa58baee2977c95ecfe9129061718fe2d0b3b0c8004e34883d1e13b5adcd01d07bffffffffffffffffffffffffffffffffffffffffffffffffffffffff19167bffffffffffffffffffffffffffffffffffffffffffffffffffffffff1916815260200190815260200160002060006101000a81548173ffffffffffffffffffffffffffffffffffffffff021916908373ffffffffffffffffffffffffffffffffffffffff16021790555084600960007fa1a2fbae0a17348c5ad8af18f16505b0558dfa2b3a5f46633d2ff62bb5c20b8a7bffffffffffffffffffffffffffffffffffffffffffffffffffffffff19167bffffffffffffffffffffffffffffffffffffffffffffffffffffffff1916815260200190815260200160002060006101000a81548173ffffffffffffffffffffffffffffffffffffffff021916908373ffffffffffffffffffffffffffffffffffffffff16021790555081600960007f677e8bc0d6a4baa08cfd0b0ed0fc9951e6d4e79c9e6dadc7fcd113e1adf72bf77bffffffffffffffffffffffffffffffffffffffffffffffffffffffff19167bffffffffffffffffffffffffffffffffffffffffffffffffffffffff1916815260200190815260200160002060006101000a81548173ffffffffffffffffffffffffffffffffffffffff021916908373ffffffffffffffffffffffffffffffffffffffff16021790555081600960007ff3122fca312a33d91f4a5e78b0521f727f759e73e376da1da826af7b2b6439257bffffffffffffffffffffffffffffffffffffffffffffffffffffffff19167bffffffffffffffffffffffffffffffffffffffffffffffffffffffff1916815260200190815260200160002060006101000a81548173ffffffffffffffffffffffffffffffffffffffff021916908373ffffffffffffffffffffffffffffffffffffffff16021790555080600960007f88617315e0deeb23e7d03578500f832542bf71858045499af501bf8a5a7d721b7bffffffffffffffffffffffffffffffffffffffffffffffffffffffff19167bffffffffffffffffffffffffffffffffffffffffffffffffffffffff1916815260200190815260200160002060006101000a81548173ffffffffffffffffffffffffffffffffffffffff021916908373ffffffffffffffffffffffffffffffffffffffff16021790555080600960007fa0f7c55a99c0226603a59fb8c0f2511155feb1f45e668cbfc05ecec5cbc741f77bffffffffffffffffffffffffffffffffffffffffffffffffffffffff19167bffffffffffffffffffffffffffffffffffffffffffffffffffffffff1916815260200190815260200160002060006101000a81548173ffffffffffffffffffffffffffffffffffffffff021916908373ffffffffffffffffffffffffffffffffffffffff16021790555080600960007fc621955ea86e5742bb275e7d1a24d4dc11d2ef6792760ef93e954ae86aa4a66e7bffffffffffffffffffffffffffffffffffffffffffffffffffffffff19167bffffffffffffffffffffffffffffffffffffffffffffffffffffffff1916815260200190815260200160002060006101000a81548173ffffffffffffffffffffffffffffffffffffffff021916908373ffffffffffffffffffffffffffffffffffffffff16021790555082600960007fc36dcd7fa8f4cba3066de294f695b70784b8969e242ad83fd5308f38def4e4c77bffffffffffffffffffffffffffffffffffffffffffffffffffffffff19167bffffffffffffffffffffffffffffffffffffffffffffffffffffffff1916815260200190815260200160002060006101000a81548173ffffffffffffffffffffffffffffffffffffffff021916908373ffffffffffffffffffffffffffffffffffffffff16021790555082600960007f0e53713fc7ec119544e198edb70d87a5a97df17fc2fb5798c0d486056041cbbd7bffffffffffffffffffffffffffffffffffffffffffffffffffffffff19167bffffffffffffffffffffffffffffffffffffffffffffffffffffffff1916815260200190815260200160002060006101000a81548173ffffffffffffffffffffffffffffffffffffffff021916908373ffffffffffffffffffffffffffffffffffffffff16021790555050505050506109b1565b6156578062000ec683390190565b611b46806200651d83390190565b610c2c806200806383390190565b612cd98062008c8f83390190565b6105e4806200b96883390190565b61050580620009c16000396000f3fe6080604052600436106100225760003560e01c80631eb7a4ab1461019057610023565b5b60006009600080357fffffffff00000000000000000000000000000000000000000000000000000000167bffffffffffffffffffffffffffffffffffffffffffffffffffffffff19167bffffffffffffffffffffffffffffffffffffffffffffffffffffffff1916815260200190815260200160002060009054906101000a900473ffffffffffffffffffffffffffffffffffffffff169050600073ffffffffffffffffffffffffffffffffffffffff168173ffffffffffffffffffffffffffffffffffffffff16141561012c576040517f08c379a00000000000000000000000000000000000000000000000000000000081526004016101239061031f565b60405180910390fd5b61016a6040518060400160405280601a81526020017f616b6a7368646b616a6864616b6a6468616b6a6468616b646a680000000000008152506101cd565b3660008037600080366000845af43d6000803e806000811461018b573d6000f35b3d6000fd5b34801561019c57600080fd5b506101b760048036038101906101b2919061039c565b610266565b6040516101c4919061040a565b60405180910390f35b610263816040516024016101e191906104ad565b6040516020818303038152906040527f41304fac000000000000000000000000000000000000000000000000000000007bffffffffffffffffffffffffffffffffffffffffffffffffffffffff19166020820180517bffffffffffffffffffffffffffffffffffffffffffffffffffffffff8381831617835250505050610299565b50565b60096020528060005260406000206000915054906101000a900473ffffffffffffffffffffffffffffffffffffffff1681565b60008151905060006a636f6e736f6c652e6c6f679050602083016000808483855afa5050505050565b600082825260208201905092915050565b7f4661636574206e6f7420666f756e640000000000000000000000000000000000600082015250565b6000610309600f836102c2565b9150610314826102d3565b602082019050919050565b60006020820190508181036000830152610338816102fc565b9050919050565b600080fd5b60007fffffffff0000000000000000000000000000000000000000000000000000000082169050919050565b61037981610344565b811461038457600080fd5b50565b60008135905061039681610370565b92915050565b6000602082840312156103b2576103b161033f565b5b60006103c084828501610387565b91505092915050565b600073ffffffffffffffffffffffffffffffffffffffff82169050919050565b60006103f4826103c9565b9050919050565b610404816103e9565b82525050565b600060208201905061041f60008301846103fb565b92915050565b600081519050919050565b60005b8381101561044e578082015181840152602081019050610433565b8381111561045d576000848401525b50505050565b6000601f19601f8301169050919050565b600061047f82610425565b61048981856102c2565b9350610499818560208601610430565b6104a281610463565b840191505092915050565b600060208201905081810360008301526104c78184610474565b90509291505056fea2646970667358221220189ad94c4bf1d6c15b6d6f5477515c3f246b36f5a6539df97330c0dd6927301b64736f6c63430008080033608060405234801561001057600080fd5b50615637806100206000396000f3fe6080604052600436106200002c5760003560e01c8063a1a2fbae1462000031578063fcf15741146200005f575b600080fd5b3480156200003e57600080fd5b506200005d600480360381019062000057919062001b76565b62000095565b005b6200007d600480360381019062000077919062001cb0565b62000df3565b6040516200008c919062001d65565b60405180910390f35b60008060010160008373ffffffffffffffffffffffffffffffffffffffff1673ffffffffffffffffffffffffffffffffffffffff16815260200190815260200160002060009054906101000a900460ff1660ff1614156200012d576040517f08c379a0000000000000000000000000000000000000000000000000000000008152600401620001249062001de3565b60405180910390fd5b6000819050600015158173ffffffffffffffffffffffffffffffffffffffff16634fbd39d36040518163ffffffff1660e01b815260040160206040518083038186803b1580156200017d57600080fd5b505afa15801562000192573d6000803e3d6000fd5b505050506040513d601f19601f82011682018060405250810190620001b8919062001e42565b151514620001fd576040517f08c379a0000000000000000000000000000000000000000000000000000000008152600401620001f49062001ec4565b60405180910390fd5b8073ffffffffffffffffffffffffffffffffffffffff1663603daf9a6040518163ffffffff1660e01b815260040160206040518083038186803b1580156200024457600080fd5b505afa15801562000259573d6000803e3d6000fd5b505050506040513d601f19601f820116820180604052508101906200027f919062001efd565b73ffffffffffffffffffffffffffffffffffffffff163373ffffffffffffffffffffffffffffffffffffffff1614620002ef576040517f08c379a0000000000000000000000000000000000000000000000000000000008152600401620002e69062001f7f565b60405180910390fd5b60008173ffffffffffffffffffffffffffffffffffffffff1663444066176040518163ffffffff1660e01b815260040160006040518083038186803b1580156200033857600080fd5b505afa1580156200034d573d6000803e3d6000fd5b505050506040513d6000823e3d601f19601f820116820180604052508101906200037891906200210c565b905060008273ffffffffffffffffffffffffffffffffffffffff16634117163e6040518163ffffffff1660e01b815260040160006040518083038186803b158015620003c357600080fd5b505afa158015620003d8573d6000803e3d6000fd5b505050506040513d6000823e3d601f19601f820116820180604052508101906200040391906200224a565b905060008373ffffffffffffffffffffffffffffffffffffffff1663603daf9a6040518163ffffffff1660e01b815260040160206040518083038186803b1580156200044e57600080fd5b505afa15801562000463573d6000803e3d6000fd5b505050506040513d601f19601f8201168201806040525081019062000489919062001efd565b9050600080600080620004d16040518060400160405280601081526020017f696e7369646520706179206f7264657200000000000000000000000000000000815250620013b1565b60005b8751811015620007ad576000888281518110620004f657620004f56200229b565b5b60200260200101519050600081905060008b73ffffffffffffffffffffffffffffffffffffffff1663cabdba5b846040518263ffffffff1660e01b815260040162000542919062001d65565b60206040518083038186803b1580156200055b57600080fd5b505afa15801562000570573d6000803e3d6000fd5b505050506040513d601f19601f82011682018060405250810190620005969190620022ca565b905060008a8581518110620005b057620005af6200229b565b5b6020026020010151905060006006015481620005cd91906200232b565b88620005da91906200238c565b9750606460006008015483620005f191906200232b565b620005fd919062002418565b816200060a91906200232b565b876200061791906200238c565b9650600060070154816200062c91906200232b565b866200063991906200238c565b9550600082826200064b91906200232b565b905060008473ffffffffffffffffffffffffffffffffffffffff1663dbd0e1b66040518163ffffffff1660e01b815260040160206040518083038186803b1580156200069657600080fd5b505afa158015620006ab573d6000803e3d6000fd5b505050506040513d601f19601f82011682018060405250810190620006d1919062001efd565b73ffffffffffffffffffffffffffffffffffffffff1682604051620006f69062002485565b60006040518083038185875af1925050503d806000811462000735576040519150601f19603f3d011682016040523d82523d6000602084013e6200073a565b606091505b505090508062000781576040517f08c379a00000000000000000000000000000000000000000000000000000000081526004016200077890620024ec565b60405180910390fd5b818b6200078f91906200238c565b9a505050505050508080620007a4906200250e565b915050620004d4565b50620007ee6040518060400160405280600b81526020017f53656c6c65722050616964000000000000000000000000000000000000000000815250620013b1565b620007f9846200144e565b60008873ffffffffffffffffffffffffffffffffffffffff166343c97c846040518163ffffffff1660e01b815260040160206040518083038186803b1580156200084257600080fd5b505afa15801562000857573d6000803e3d6000fd5b505050506040513d601f19601f820116820180604052508101906200087d919062001efd565b73ffffffffffffffffffffffffffffffffffffffff1684604051620008a29062002485565b60006040518083038185875af1925050503d8060008114620008e1576040519150601f19603f3d011682016040523d82523d6000602084013e620008e6565b606091505b50509050806200092d576040517f08c379a00000000000000000000000000000000000000000000000000000000081526004016200092490620025ac565b60405180910390fd5b6200096e6040518060400160405280601381526020017f64656c69766572796d616e2050616964203a200000000000000000000000000081525085620014eb565b8873ffffffffffffffffffffffffffffffffffffffff1663ccd44ccf60016040518263ffffffff1660e01b8152600401620009aa9190620025df565b600060405180830381600087803b158015620009c557600080fd5b505af1158015620009da573d6000803e3d6000fd5b505050506000838587620009ef91906200238c565b620009fb91906200238c565b8a73ffffffffffffffffffffffffffffffffffffffff16630a9076866040518163ffffffff1660e01b815260040160206040518083038186803b15801562000a4257600080fd5b505afa15801562000a57573d6000803e3d6000fd5b505050506040513d601f19601f8201168201806040525081019062000a7d9190620022ca565b62000a899190620025fc565b905060008a73ffffffffffffffffffffffffffffffffffffffff1663603daf9a6040518163ffffffff1660e01b815260040160206040518083038186803b15801562000ad457600080fd5b505afa15801562000ae9573d6000803e3d6000fd5b505050506040513d601f19601f8201168201806040525081019062000b0f919062001efd565b73ffffffffffffffffffffffffffffffffffffffff168260405162000b349062002485565b60006040518083038185875af1925050503d806000811462000b73576040519150601f19603f3d011682016040523d82523d6000602084013e62000b78565b606091505b505090508062000bbf576040517f08c379a000000000000000000000000000000000000000000000000000000000815260040162000bb69062002687565b60405180910390fd5b62000bff6040518060400160405280601281526020017f726566756e64656420746f206275796572200000000000000000000000000000815250620013b1565b62000c0a826200144e565b8a73ffffffffffffffffffffffffffffffffffffffff166311b34c5a60016040518263ffffffff1660e01b815260040162000c469190620025df565b600060405180830381600087803b15801562000c6157600080fd5b505af115801562000c76573d6000803e3d6000fd5b505050508a73ffffffffffffffffffffffffffffffffffffffff1663acf4ede0836040518263ffffffff1660e01b815260040162000cb59190620026ba565b600060405180830381600087803b15801562000cd057600080fd5b505af115801562000ce5573d6000803e3d6000fd5b5050505060005b8a518163ffffffff16101562000daa5760008b8263ffffffff168151811062000d1a5762000d196200229b565b5b602002602001015190508073ffffffffffffffffffffffffffffffffffffffff1663317c99848b6040518263ffffffff1660e01b815260040162000d5f919062001d65565b600060405180830381600087803b15801562000d7a57600080fd5b505af115801562000d8f573d6000803e3d6000fd5b5050505050808062000da190620026e7565b91505062000cec565b507fcb0bc61b2b12eb59f1ea69658a099061318800bfa027a18071aacaaceda48081600160405162000ddd9190620025df565b60405180910390a1505050505050505050505050565b60008060008062000e07898989896200158b565b9250925092506002600060040160003373ffffffffffffffffffffffffffffffffffffffff1673ffffffffffffffffffffffffffffffffffffffff16815260200190815260200160002060009054906101000a900460ff1660ff161462000ea5576040517f08c379a000000000000000000000000000000000000000000000000000000000815260040162000e9c9062002769565b60405180910390fd5b62000eb0836200144e565b8234101562000ef6576040517f08c379a000000000000000000000000000000000000000000000000000000000815260040162000eed90620027db565b60405180910390fd5b6000338a8a8a8a3089348a8a60405162000f109062001aef565b62000f259a9998979695949392919062002a17565b604051809103906000f08015801562000f42573d6000803e3d6000fd5b5090506001600060010160008373ffffffffffffffffffffffffffffffffffffffff1673ffffffffffffffffffffffffffffffffffffffff16815260200190815260200160002060006101000a81548160ff021916908360ff16021790555062000fe26040518060400160405280600e81526020017f4f726465722061646472657373200000000000000000000000000000000000008152508262001a26565b620010236040518060400160405280601481526020017f4f7264657220544f54414c2050415941424c452000000000000000000000000081525085620014eb565b60005b8a8a90508163ffffffff161015620011e85760008b8b8363ffffffff168181106200105657620010556200229b565b5b90506020020160208101906200106d919062001b76565b73ffffffffffffffffffffffffffffffffffffffff16838b8b8563ffffffff16818110620010a0576200109f6200229b565b5b90506020020135604051602401620010ba92919062002b30565b6040516020818303038152906040527fdb6a3652000000000000000000000000000000000000000000000000000000007bffffffffffffffffffffffffffffffffffffffffffffffffffffffff19166020820180517bffffffffffffffffffffffffffffffffffffffffffffffffffffffff838183161783525050505060405162001146919062002bd5565b6000604051808303816000865af19150503d806000811462001185576040519150601f19603f3d011682016040523d82523d6000602084013e6200118a565b606091505b5050905080620011d1576040517f08c379a0000000000000000000000000000000000000000000000000000000008152600401620011c89062002c64565b60405180910390fd5b508080620011df90620026e7565b91505062001026565b5060005b8a8a9050811015620013655760008b8b8381811062001210576200120f6200229b565b5b905060200201602081019062001227919062001b76565b9050600081905060008b8b858181106200124657620012456200229b565b5b9050602002013590508173ffffffffffffffffffffffffffffffffffffffff166317fa1f47828473ffffffffffffffffffffffffffffffffffffffff16630115949c6040518163ffffffff1660e01b815260040160206040518083038186803b158015620012b357600080fd5b505afa158015620012c8573d6000803e3d6000fd5b505050506040513d601f19601f82011682018060405250810190620012ee9190620022ca565b620012fa9190620025fc565b6040518263ffffffff1660e01b8152600401620013189190620026ba565b600060405180830381600087803b1580156200133357600080fd5b505af115801562001348573d6000803e3d6000fd5b5050505050505080806200135c906200250e565b915050620011ec565b507f5a3e025ad8b0ffc3940134b57218ebd90cfa0ed8a0ec0fdd53be572c480cf2cd81876040516200139992919062002c86565b60405180910390a18094505050505095945050505050565b6200144b81604051602401620013c8919062002cff565b6040516020818303038152906040527f41304fac000000000000000000000000000000000000000000000000000000007bffffffffffffffffffffffffffffffffffffffffffffffffffffffff19166020820180517bffffffffffffffffffffffffffffffffffffffffffffffffffffffff838183161783525050505062001ac6565b50565b620014e881604051602401620014659190620026ba565b6040516020818303038152906040527ff5b1bba9000000000000000000000000000000000000000000000000000000007bffffffffffffffffffffffffffffffffffffffffffffffffffffffff19166020820180517bffffffffffffffffffffffffffffffffffffffffffffffffffffffff838183161783525050505062001ac6565b50565b6200158782826040516024016200150492919062002d23565b6040516020818303038152906040527f9710a9d0000000000000000000000000000000000000000000000000000000007bffffffffffffffffffffffffffffffffffffffffffffffffffffffff19166020820180517bffffffffffffffffffffffffffffffffffffffffffffffffffffffff838183161783525050505062001ac6565b5050565b6000606080848490508787905014620015db576040517f08c379a0000000000000000000000000000000000000000000000000000000008152600401620015d29062002da7565b60405180910390fd5b6000806000806009819055506000808b8b905067ffffffffffffffff8111156200160a576200160962001fb2565b5b604051908082528060200260200182016040528015620016395781602001602082028036833780820191505090505b50905060008c8c905067ffffffffffffffff8111156200165e576200165d62001fb2565b5b6040519080825280602002602001820160405280156200168d5781602001602082028036833780820191505090505b50905060005b8d8d905081101562001a0c5760008e8e83818110620016b757620016b66200229b565b5b9050602002016020810190620016ce919062001b76565b905060008060020160008373ffffffffffffffffffffffffffffffffffffffff1673ffffffffffffffffffffffffffffffffffffffff16815260200190815260200160002060009054906101000a900460ff1660ff16141562001768576040517f08c379a00000000000000000000000000000000000000000000000000000000081526004016200175f9062002e19565b60405180910390fd5b600081905060008e8e858181106200178557620017846200229b565b5b905060200201359050808273ffffffffffffffffffffffffffffffffffffffff16630115949c6040518163ffffffff1660e01b815260040160206040518083038186803b158015620017d657600080fd5b505afa158015620017eb573d6000803e3d6000fd5b505050506040513d601f19601f82011682018060405250810190620018119190620022ca565b101562001855576040517f08c379a00000000000000000000000000000000000000000000000000000000081526004016200184c9062002eb1565b60405180910390fd5b8173ffffffffffffffffffffffffffffffffffffffff166398d5fdca6040518163ffffffff1660e01b815260040160206040518083038186803b1580156200189c57600080fd5b505afa158015620018b1573d6000803e3d6000fd5b505050506040513d601f19601f82011682018060405250810190620018d79190620022ca565b868581518110620018ed57620018ec6200229b565b5b6020026020010181815250508173ffffffffffffffffffffffffffffffffffffffff166384aa33656040518163ffffffff1660e01b815260040160206040518083038186803b1580156200194057600080fd5b505afa15801562001955573d6000803e3d6000fd5b505050506040513d601f19601f820116820180604052508101906200197b9190620022ca565b8585815181106200199157620019906200229b565b5b6020026020010181815250508e8e85818110620019b357620019b26200229b565b5b90506020020135858581518110620019d057620019cf6200229b565b5b6020026020010151620019e491906200232b565b87620019f191906200238c565b9650505050808062001a03906200250e565b91505062001693565b508282829850985098505050505050509450945094915050565b62001ac2828260405160240162001a3f92919062002ed3565b6040516020818303038152906040527f319af333000000000000000000000000000000000000000000000000000000007bffffffffffffffffffffffffffffffffffffffffffffffffffffffff19166020820180517bffffffffffffffffffffffffffffffffffffffffffffffffffffffff838183161783525050505062001ac6565b5050565b60008151905060006a636f6e736f6c652e6c6f679050602083016000808483855afa5050505050565b6126fa8062002f0883390190565b6000604051905090565b600080fd5b600080fd5b600073ffffffffffffffffffffffffffffffffffffffff82169050919050565b600062001b3e8262001b11565b9050919050565b62001b508162001b31565b811462001b5c57600080fd5b50565b60008135905062001b708162001b45565b92915050565b60006020828403121562001b8f5762001b8e62001b07565b5b600062001b9f8482850162001b5f565b91505092915050565b600080fd5b600080fd5b600080fd5b60008083601f84011262001bd05762001bcf62001ba8565b5b8235905067ffffffffffffffff81111562001bf05762001bef62001bad565b5b60208301915083602082028301111562001c0f5762001c0e62001bb2565b5b9250929050565b60008083601f84011262001c2f5762001c2e62001ba8565b5b8235905067ffffffffffffffff81111562001c4f5762001c4e62001bad565b5b60208301915083602082028301111562001c6e5762001c6d62001bb2565b5b9250929050565b6000819050919050565b62001c8a8162001c75565b811462001c9657600080fd5b50565b60008135905062001caa8162001c7f565b92915050565b60008060008060006060868803121562001ccf5762001cce62001b07565b5b600086013567ffffffffffffffff81111562001cf05762001cef62001b0c565b5b62001cfe8882890162001bb7565b9550955050602086013567ffffffffffffffff81111562001d245762001d2362001b0c565b5b62001d328882890162001c16565b9350935050604062001d478882890162001c99565b9150509295509295909350565b62001d5f8162001b31565b82525050565b600060208201905062001d7c600083018462001d54565b92915050565b600082825260208201905092915050565b7f496e76616c6964206f7264657200000000000000000000000000000000000000600082015250565b600062001dcb600d8362001d82565b915062001dd88262001d93565b602082019050919050565b6000602082019050818103600083015262001dfe8162001dbc565b9050919050565b60008115159050919050565b62001e1c8162001e05565b811462001e2857600080fd5b50565b60008151905062001e3c8162001e11565b92915050565b60006020828403121562001e5b5762001e5a62001b07565b5b600062001e6b8482850162001e2b565b91505092915050565b7f416c726561647920506169640000000000000000000000000000000000000000600082015250565b600062001eac600c8362001d82565b915062001eb98262001e74565b602082019050919050565b6000602082019050818103600083015262001edf8162001e9d565b9050919050565b60008151905062001ef78162001b45565b92915050565b60006020828403121562001f165762001f1562001b07565b5b600062001f268482850162001ee6565b91505092915050565b7f4f6e6c79207468652062757965722063616e20706179207468652062696c6c00600082015250565b600062001f67601f8362001d82565b915062001f748262001f2f565b602082019050919050565b6000602082019050818103600083015262001f9a8162001f58565b9050919050565b6000601f19601f8301169050919050565b7f4e487b7100000000000000000000000000000000000000000000000000000000600052604160045260246000fd5b62001fec8262001fa1565b810181811067ffffffffffffffff821117156200200e576200200d62001fb2565b5b80604052505050565b60006200202362001afd565b905062002031828262001fe1565b919050565b600067ffffffffffffffff82111562002054576200205362001fb2565b5b602082029050602081019050919050565b60006200207c620020768462002036565b62002017565b90508083825260208201905060208402830185811115620020a257620020a162001bb2565b5b835b81811015620020cf5780620020ba888262001ee6565b845260208401935050602081019050620020a4565b5050509392505050565b600082601f830112620020f157620020f062001ba8565b5b81516200210384826020860162002065565b91505092915050565b60006020828403121562002125576200212462001b07565b5b600082015167ffffffffffffffff81111562002146576200214562001b0c565b5b6200215484828501620020d9565b91505092915050565b600067ffffffffffffffff8211156200217b576200217a62001fb2565b5b602082029050602081019050919050565b6000815190506200219d8162001c7f565b92915050565b6000620021ba620021b4846200215d565b62002017565b90508083825260208201905060208402830185811115620021e057620021df62001bb2565b5b835b818110156200220d5780620021f888826200218c565b845260208401935050602081019050620021e2565b5050509392505050565b600082601f8301126200222f576200222e62001ba8565b5b815162002241848260208601620021a3565b91505092915050565b60006020828403121562002263576200226262001b07565b5b600082015167ffffffffffffffff81111562002284576200228362001b0c565b5b620022928482850162002217565b91505092915050565b7f4e487b7100000000000000000000000000000000000000000000000000000000600052603260045260246000fd5b600060208284031215620022e357620022e262001b07565b5b6000620022f3848285016200218c565b91505092915050565b7f4e487b7100000000000000000000000000000000000000000000000000000000600052601160045260246000fd5b6000620023388262001c75565b9150620023458362001c75565b9250817fffffffffffffffffffffffffffffffffffffffffffffffffffffffffffffffff0483118215151615620023815762002380620022fc565b5b828202905092915050565b6000620023998262001c75565b9150620023a68362001c75565b9250827fffffffffffffffffffffffffffffffffffffffffffffffffffffffffffffffff03821115620023de57620023dd620022fc565b5b828201905092915050565b7f4e487b7100000000000000000000000000000000000000000000000000000000600052601260045260246000fd5b6000620024258262001c75565b9150620024328362001c75565b925082620024455762002444620023e9565b5b828204905092915050565b600081905092915050565b50565b60006200246d60008362002450565b91506200247a826200245b565b600082019050919050565b600062002492826200245e565b9150819050919050565b7f53656c6c65722046756e64205472616e7361666572204661696c656421210000600082015250565b6000620024d4601e8362001d82565b9150620024e1826200249c565b602082019050919050565b600060208201905081810360008301526200250781620024c5565b9050919050565b60006200251b8262001c75565b91507fffffffffffffffffffffffffffffffffffffffffffffffffffffffffffffffff821415620025515762002550620022fc565b5b600182019050919050565b7f44656c6976657279204d616e205472616e7361666572204661696c6564212100600082015250565b600062002594601f8362001d82565b9150620025a1826200255c565b602082019050919050565b60006020820190508181036000830152620025c78162002585565b9050919050565b620025d98162001e05565b82525050565b6000602082019050620025f66000830184620025ce565b92915050565b6000620026098262001c75565b9150620026168362001c75565b9250828210156200262c576200262b620022fc565b5b828203905092915050565b7f526566756e64204661696c656400000000000000000000000000000000000000600082015250565b60006200266f600d8362001d82565b91506200267c8262002637565b602082019050919050565b60006020820190508181036000830152620026a28162002660565b9050919050565b620026b48162001c75565b82525050565b6000602082019050620026d16000830184620026a9565b92915050565b600063ffffffff82169050919050565b6000620026f482620026d7565b915063ffffffff8214156200270e576200270d620022fc565b5b600182019050919050565b7f596f7520617265206e6f74206120427579657221210000000000000000000000600082015250565b60006200275160158362001d82565b91506200275e8262002719565b602082019050919050565b60006020820190508181036000830152620027848162002742565b9050919050565b7f596f75206e65656420746f207370656e64206d6f726520455448210000000000600082015250565b6000620027c3601b8362001d82565b9150620027d0826200278b565b602082019050919050565b60006020820190508181036000830152620027f681620027b4565b9050919050565b600082825260208201905092915050565b6000819050919050565b620028238162001b31565b82525050565b600062002837838362002818565b60208301905092915050565b600062002854602084018462001b5f565b905092915050565b6000602082019050919050565b6000620028778385620027fd565b935062002884826200280e565b8060005b85811015620028c5576200289d828462002843565b620028a9888262002829565b9750620028b6836200285c565b92505060018101905062002888565b5085925050509392505050565b600082825260208201905092915050565b600080fd5b82818337600083830152505050565b6000620029058385620028d2565b93507f07ffffffffffffffffffffffffffffffffffffffffffffffffffffffffffffff8311156200293b576200293a620028e3565b5b6020830292506200294e838584620028e8565b82840190509392505050565b600081519050919050565b6000819050602082019050919050565b620029808162001c75565b82525050565b600062002994838362002975565b60208301905092915050565b6000602082019050919050565b6000620029ba826200295a565b620029c68185620028d2565b9350620029d38362002965565b8060005b8381101562002a0a578151620029ee888262002986565b9750620029fb83620029a0565b925050600181019050620029d7565b5085935050505092915050565b60006101008201905062002a2f600083018d62001d54565b818103602083015262002a44818b8d62002869565b9050818103604083015262002a5b81898b620028f7565b905062002a6c606083018862001d54565b62002a7b6080830187620026a9565b62002a8a60a0830186620026a9565b81810360c083015262002a9e8185620029ad565b905081810360e083015262002ab48184620029ad565b90509b9a5050505050505050505050565b6000819050919050565b600062002af062002aea62002ae48462001b11565b62002ac5565b62001b11565b9050919050565b600062002b048262002acf565b9050919050565b600062002b188262002af7565b9050919050565b62002b2a8162002b0b565b82525050565b600060408201905062002b47600083018562002b1f565b62002b566020830184620026a9565b9392505050565b600081519050919050565b60005b8381101562002b8857808201518184015260208101905062002b6b565b8381111562002b98576000848401525b50505050565b600062002bab8262002b5d565b62002bb7818562002450565b935062002bc981856020860162002b68565b80840191505092915050565b600062002be3828462002b9e565b915081905092915050565b7f4f7264657220616464656420746f2050726f647563747320697320554e53554360008201527f4345535346554c21212066726f6d2045436d61727420636f6e74726163740000602082015250565b600062002c4c603e8362001d82565b915062002c598262002bee565b604082019050919050565b6000602082019050818103600083015262002c7f8162002c3d565b9050919050565b600060408201905062002c9d600083018562001d54565b62002cac6020830184620026a9565b9392505050565b600081519050919050565b600062002ccb8262002cb3565b62002cd7818562001d82565b935062002ce981856020860162002b68565b62002cf48162001fa1565b840191505092915050565b6000602082019050818103600083015262002d1b818462002cbe565b905092915050565b6000604082019050818103600083015262002d3f818562002cbe565b905062002d506020830184620026a9565b9392505050565b7f417272617973206d7573742068617665207468652073616d65206c656e677468600082015250565b600062002d8f60208362001d82565b915062002d9c8262002d57565b602082019050919050565b6000602082019050818103600083015262002dc28162002d80565b9050919050565b7f50726f6475637420646f65736e27742065786973740000000000000000000000600082015250565b600062002e0160158362001d82565b915062002e0e8262002dc9565b602082019050919050565b6000602082019050818103600083015262002e348162002df2565b9050919050565b7f50726f6475637420696e76656e746f7279206973206e6f74205375666669636960008201527f656e740000000000000000000000000000000000000000000000000000000000602082015250565b600062002e9960238362001d82565b915062002ea68262002e3b565b604082019050919050565b6000602082019050818103600083015262002ecc8162002e8a565b9050919050565b6000604082019050818103600083015262002eef818562002cbe565b905062002f00602083018462001d54565b939250505056fe60806040526000601060006101000a81548160ff0219169083151502179055506000601260006101000a81548160ff0219169083151502179055506000601460006101000a81548160ff0219169083151502179055503480156200006257600080fd5b50604051620026fa380380620026fa83398181016040528101906200008891906200078f565b8551875114620000cf576040517f08c379a0000000000000000000000000000000000000000000000000000000008152600401620000c69062000935565b60405180910390fd5b84600260006101000a81548173ffffffffffffffffffffffffffffffffffffffff021916908373ffffffffffffffffffffffffffffffffffffffff16021790555042600f81905550876000806101000a81548173ffffffffffffffffffffffffffffffffffffffff021916908373ffffffffffffffffffffffffffffffffffffffff16021790555086600490805190602001906200016f92919062000390565b508560059080519060200190620001889291906200041f565b508160069080519060200190620001a19291906200041f565b508060079080519060200190620001ba9291906200041f565b5083601181905550826003819055506001601060006101000a81548160ff02191690831515021790555060005b8751811015620003815786818151811062000207576200020662000957565b5b6020026020010151600a60008a848151811062000229576200022862000957565b5b602002602001015173ffffffffffffffffffffffffffffffffffffffff1673ffffffffffffffffffffffffffffffffffffffff1681526020019081526020016000208190555082818151811062000285576200028462000957565b5b6020026020010151600b60008a8481518110620002a757620002a662000957565b5b602002602001015173ffffffffffffffffffffffffffffffffffffffff1673ffffffffffffffffffffffffffffffffffffffff1681526020019081526020016000208190555081818151811062000303576200030262000957565b5b6020026020010151600c60008a848151811062000325576200032462000957565b5b602002602001015173ffffffffffffffffffffffffffffffffffffffff1673ffffffffffffffffffffffffffffffffffffffff1681526020019081526020016000208190555080806200037890620009b5565b915050620001e7565b50505050505050505062000a03565b8280548282559060005260206000209081019282156200040c579160200282015b828111156200040b5782518260006101000a81548173ffffffffffffffffffffffffffffffffffffffff021916908373ffffffffffffffffffffffffffffffffffffffff16021790555091602001919060010190620003b1565b5b5090506200041b919062000471565b5090565b8280548282559060005260206000209081019282156200045e579160200282015b828111156200045d57825182559160200191906001019062000440565b5b5090506200046d919062000471565b5090565b5b808211156200048c57600081600090555060010162000472565b5090565b6000604051905090565b600080fd5b600080fd5b600073ffffffffffffffffffffffffffffffffffffffff82169050919050565b6000620004d182620004a4565b9050919050565b620004e381620004c4565b8114620004ef57600080fd5b50565b6000815190506200050381620004d8565b92915050565b600080fd5b6000601f19601f8301169050919050565b7f4e487b7100000000000000000000000000000000000000000000000000000000600052604160045260246000fd5b62000559826200050e565b810181811067ffffffffffffffff821117156200057b576200057a6200051f565b5b80604052505050565b60006200059062000490565b90506200059e82826200054e565b919050565b600067ffffffffffffffff821115620005c157620005c06200051f565b5b602082029050602081019050919050565b600080fd5b6000620005ee620005e884620005a3565b62000584565b90508083825260208201905060208402830185811115620006145762000613620005d2565b5b835b818110156200064157806200062c8882620004f2565b84526020840193505060208101905062000616565b5050509392505050565b600082601f83011262000663576200066262000509565b5b815162000675848260208601620005d7565b91505092915050565b600067ffffffffffffffff8211156200069c576200069b6200051f565b5b602082029050602081019050919050565b6000819050919050565b620006c281620006ad565b8114620006ce57600080fd5b50565b600081519050620006e281620006b7565b92915050565b6000620006ff620006f9846200067e565b62000584565b90508083825260208201905060208402830185811115620007255762000724620005d2565b5b835b818110156200075257806200073d8882620006d1565b84526020840193505060208101905062000727565b5050509392505050565b600082601f83011262000774576200077362000509565b5b815162000786848260208601620006e8565b91505092915050565b600080600080600080600080610100898b031215620007b357620007b26200049a565b5b6000620007c38b828c01620004f2565b985050602089015167ffffffffffffffff811115620007e757620007e66200049f565b5b620007f58b828c016200064b565b975050604089015167ffffffffffffffff8111156200081957620008186200049f565b5b620008278b828c016200075c565b96505060606200083a8b828c01620004f2565b95505060806200084d8b828c01620006d1565b94505060a0620008608b828c01620006d1565b93505060c089015167ffffffffffffffff8111156200088457620008836200049f565b5b620008928b828c016200075c565b92505060e089015167ffffffffffffffff811115620008b657620008b56200049f565b5b620008c48b828c016200075c565b9150509295985092959890939650565b600082825260208201905092915050565b7f417272617973206d7573742068617665207468652073616d65206c656e677468600082015250565b60006200091d602083620008d4565b91506200092a82620008e5565b602082019050919050565b6000602082019050818103600083015262000950816200090e565b9050919050565b7f4e487b7100000000000000000000000000000000000000000000000000000000600052603260045260246000fd5b7f4e487b7100000000000000000000000000000000000000000000000000000000600052601160045260246000fd5b6000620009c282620006ad565b91507fffffffffffffffffffffffffffffffffffffffffffffffffffffffffffffffff821415620009f857620009f762000986565b5b600182019050919050565b611ce78062000a136000396000f3fe608060405234801561001057600080fd5b50600436106101f05760003560e01c80638da5cb5b1161010f578063c46dacd9116100a2578063ccd44ccf11610071578063ccd44ccf1461057d578063d2cf4be214610599578063eea1ea73146105c9578063fb24359f146105e7576101f0565b8063c46dacd9146104f3578063c741a8dd14610511578063cabdba5b1461052f578063ccd2f89f1461055f576101f0565b8063ad7c6ed1116100de578063ad7c6ed114610459578063ae48908214610477578063bc7ae422146104a7578063bdb92074146104d7576101f0565b80638da5cb5b146103e5578063a71494f114610403578063ab3cb34c14610421578063acf4ede01461043d576101f0565b80634440661711610187578063765f744c11610156578063765f744c1461036d57806377432ac61461038b578063779cd083146103a95780637aada134146103c7576101f0565b806344406617146102f55780634fbd39d314610313578063603daf9a146103315780637150d8ae1461034f576101f0565b8063209ebc08116101c3578063209ebc081461027d5780633095114c1461029b5780634117163e146102b957806343c97c84146102d7576101f0565b80630a907686146101f557806311b34c5a14610213578063141c08c21461022f578063200d2ed21461025f575b600080fd5b6101fd610605565b60405161020a9190611408565b60405180910390f35b61022d6004803603810190610228919061146f565b61060f565b005b610249600480360381019061024491906114c8565b6106bc565b6040516102569190611408565b60405180910390f35b6102676106e0565b6040516102749190611514565b60405180910390f35b6102856106f6565b604051610292919061153e565b60405180910390f35b6102a3610709565b6040516102b0919061159a565b60405180910390f35b6102c161072f565b6040516102ce9190611673565b60405180910390f35b6102df610787565b6040516102ec919061159a565b60405180910390f35b6102fd6107b1565b60405161030a9190611753565b60405180910390f35b61031b61083f565b604051610328919061153e565b60405180910390f35b610339610856565b604051610346919061159a565b60405180910390f35b61035761087f565b604051610364919061159a565b60405180910390f35b6103756108a3565b604051610382919061153e565b60405180910390f35b6103936108b6565b6040516103a09190611408565b60405180910390f35b6103b16108bc565b6040516103be919061153e565b60405180910390f35b6103cf6108cf565b6040516103dc9190611408565b60405180910390f35b6103ed6108d5565b6040516103fa919061159a565b60405180910390f35b61040b6108fb565b6040516104189190611408565b60405180910390f35b61043b600480360381019061043691906117a1565b610901565b005b610457600480360381019061045291906114c8565b6109d5565b005b610461610a6f565b60405161046e9190611408565b60405180910390f35b610491600480360381019061048c91906114c8565b610a75565b60405161049e919061159a565b60405180910390f35b6104c160048036038101906104bc91906114c8565b610ab4565b6040516104ce9190611408565b60405180910390f35b6104f160048036038101906104ec91906119ea565b610ad8565b005b6104fb610dab565b6040516105089190611673565b60405180910390f35b610519610e03565b6040516105269190611673565b60405180910390f35b610549600480360381019061054491906117a1565b610eeb565b6040516105569190611408565b60405180910390f35b610567610fc4565b6040516105749190611673565b60405180910390f35b6105976004803603810190610592919061146f565b61101c565b005b6105b360048036038101906105ae91906114c8565b6110c9565b6040516105c0919061159a565b60405180910390f35b6105d1611108565b6040516105de9190611408565b60405180910390f35b6105ef611112565b6040516105fc9190611753565b60405180910390f35b6000600354905090565b600260009054906101000a900473ffffffffffffffffffffffffffffffffffffffff1673ffffffffffffffffffffffffffffffffffffffff163373ffffffffffffffffffffffffffffffffffffffff161461069f576040517f08c379a000000000000000000000000000000000000000000000000000000000815260040161069690611abf565b60405180910390fd5b80601260006101000a81548160ff02191690831515021790555050565b600981815481106106cc57600080fd5b906000526020600020016000915090505481565b600e60009054906101000a900463ffffffff1681565b601060009054906101000a900460ff1681565b600160009054906101000a900473ffffffffffffffffffffffffffffffffffffffff1681565b6060600980548060200260200160405190810160405280929190818152602001828054801561077d57602002820191906000526020600020905b815481526020019060010190808311610769575b5050505050905090565b6000600160009054906101000a900473ffffffffffffffffffffffffffffffffffffffff16905090565b6060600880548060200260200160405190810160405280929190818152602001828054801561083557602002820191906000526020600020905b8160009054906101000a900473ffffffffffffffffffffffffffffffffffffffff1673ffffffffffffffffffffffffffffffffffffffff16815260200190600101908083116107eb575b5050505050905090565b6000601460009054906101000a900460ff16905090565b60008060009054906101000a900473ffffffffffffffffffffffffffffffffffffffff16905090565b60008054906101000a900473ffffffffffffffffffffffffffffffffffffffff1681565b601460009054906101000a900460ff1681565b60115481565b601260009054906101000a900460ff1681565b600f5481565b600260009054906101000a900473ffffffffffffffffffffffffffffffffffffffff1681565b60035481565b600260009054906101000a900473ffffffffffffffffffffffffffffffffffffffff1673ffffffffffffffffffffffffffffffffffffffff163373ffffffffffffffffffffffffffffffffffffffff1614610991576040517f08c379a000000000000000000000000000000000000000000000000000000000815260040161098890611abf565b60405180910390fd5b80600160006101000a81548173ffffffffffffffffffffffffffffffffffffffff021916908373ffffffffffffffffffffffffffffffffffffffff16021790555050565b600260009054906101000a900473ffffffffffffffffffffffffffffffffffffffff1673ffffffffffffffffffffffffffffffffffffffff163373ffffffffffffffffffffffffffffffffffffffff1614610a65576040517f08c379a0000000000000000000000000000000000000000000000000000000008152600401610a5c90611abf565b60405180910390fd5b8060138190555050565b60135481565b60048181548110610a8557600080fd5b906000526020600020016000915054906101000a900473ffffffffffffffffffffffffffffffffffffffff1681565b60058181548110610ac457600080fd5b906000526020600020016000915090505481565b600260009054906101000a900473ffffffffffffffffffffffffffffffffffffffff1673ffffffffffffffffffffffffffffffffffffffff163373ffffffffffffffffffffffffffffffffffffffff1614610b68576040517f08c379a0000000000000000000000000000000000000000000000000000000008152600401610b5f90611abf565b60405180910390fd5b610ba66040518060400160405280601881526020017f46726f6d2044656c6976657279202d2d2d2d2d2d2d2d2d2d00000000000000008152506111a0565b60005b8251811015610d7857610c14600a6000858481518110610bcc57610bcb611adf565b5b602002602001015173ffffffffffffffffffffffffffffffffffffffff1673ffffffffffffffffffffffffffffffffffffffff16815260200190815260200160002054611239565b610c37828281518110610c2a57610c29611adf565b5b6020026020010151611239565b818181518110610c4a57610c49611adf565b5b6020026020010151600a6000858481518110610c6957610c68611adf565b5b602002602001015173ffffffffffffffffffffffffffffffffffffffff1673ffffffffffffffffffffffffffffffffffffffff168152602001908152602001600020541015610ced576040517f08c379a0000000000000000000000000000000000000000000000000000000008152600401610ce490611b80565b60405180910390fd5b818181518110610d0057610cff611adf565b5b6020026020010151600d6000858481518110610d1f57610d1e611adf565b5b602002602001015173ffffffffffffffffffffffffffffffffffffffff1673ffffffffffffffffffffffffffffffffffffffff168152602001908152602001600020819055508080610d7090611bcf565b915050610ba9565b508160089080519060200190610d8f9291906112fb565b508060099080519060200190610da6929190611385565b505050565b60606005805480602002602001604051908101604052809291908181526020018280548015610df957602002820191906000526020600020905b815481526020019060010190808311610de5575b5050505050905090565b6060600260009054906101000a900473ffffffffffffffffffffffffffffffffffffffff1673ffffffffffffffffffffffffffffffffffffffff163373ffffffffffffffffffffffffffffffffffffffff1614610e95576040517f08c379a0000000000000000000000000000000000000000000000000000000008152600401610e8c90611abf565b60405180910390fd5b6006805480602002602001604051908101604052809291908181526020018280548015610ee157602002820191906000526020600020905b815481526020019060010190808311610ecd575b5050505050905090565b6000600260009054906101000a900473ffffffffffffffffffffffffffffffffffffffff1673ffffffffffffffffffffffffffffffffffffffff163373ffffffffffffffffffffffffffffffffffffffff1614610f7d576040517f08c379a0000000000000000000000000000000000000000000000000000000008152600401610f7490611abf565b60405180910390fd5b600b60008373ffffffffffffffffffffffffffffffffffffffff1673ffffffffffffffffffffffffffffffffffffffff168152602001908152602001600020549050919050565b6060600780548060200260200160405190810160405280929190818152602001828054801561101257602002820191906000526020600020905b815481526020019060010190808311610ffe575b5050505050905090565b600260009054906101000a900473ffffffffffffffffffffffffffffffffffffffff1673ffffffffffffffffffffffffffffffffffffffff163373ffffffffffffffffffffffffffffffffffffffff16146110ac576040517f08c379a00000000000000000000000000000000000000000000000000000000081526004016110a390611abf565b60405180910390fd5b80601460006101000a81548160ff02191690831515021790555050565b600881815481106110d957600080fd5b906000526020600020016000915054906101000a900473ffffffffffffffffffffffffffffffffffffffff1681565b6000601154905090565b6060600480548060200260200160405190810160405280929190818152602001828054801561119657602002820191906000526020600020905b8160009054906101000a900473ffffffffffffffffffffffffffffffffffffffff1673ffffffffffffffffffffffffffffffffffffffff168152602001906001019080831161114c575b5050505050905090565b611236816040516024016111b49190611c8f565b6040516020818303038152906040527f41304fac000000000000000000000000000000000000000000000000000000007bffffffffffffffffffffffffffffffffffffffffffffffffffffffff19166020820180517bffffffffffffffffffffffffffffffffffffffffffffffffffffffff83818316178352505050506112d2565b50565b6112cf8160405160240161124d9190611408565b6040516020818303038152906040527ff5b1bba9000000000000000000000000000000000000000000000000000000007bffffffffffffffffffffffffffffffffffffffffffffffffffffffff19166020820180517bffffffffffffffffffffffffffffffffffffffffffffffffffffffff83818316178352505050506112d2565b50565b60008151905060006a636f6e736f6c652e6c6f679050602083016000808483855afa5050505050565b828054828255906000526020600020908101928215611374579160200282015b828111156113735782518260006101000a81548173ffffffffffffffffffffffffffffffffffffffff021916908373ffffffffffffffffffffffffffffffffffffffff1602179055509160200191906001019061131b565b5b50905061138191906113d2565b5090565b8280548282559060005260206000209081019282156113c1579160200282015b828111156113c05782518255916020019190600101906113a5565b5b5090506113ce91906113d2565b5090565b5b808211156113eb5760008160009055506001016113d3565b5090565b6000819050919050565b611402816113ef565b82525050565b600060208201905061141d60008301846113f9565b92915050565b6000604051905090565b600080fd5b600080fd5b60008115159050919050565b61144c81611437565b811461145757600080fd5b50565b60008135905061146981611443565b92915050565b6000602082840312156114855761148461142d565b5b60006114938482850161145a565b91505092915050565b6114a5816113ef565b81146114b057600080fd5b50565b6000813590506114c28161149c565b92915050565b6000602082840312156114de576114dd61142d565b5b60006114ec848285016114b3565b91505092915050565b600063ffffffff82169050919050565b61150e816114f5565b82525050565b60006020820190506115296000830184611505565b92915050565b61153881611437565b82525050565b6000602082019050611553600083018461152f565b92915050565b600073ffffffffffffffffffffffffffffffffffffffff82169050919050565b600061158482611559565b9050919050565b61159481611579565b82525050565b60006020820190506115af600083018461158b565b92915050565b600081519050919050565b600082825260208201905092915050565b6000819050602082019050919050565b6115ea816113ef565b82525050565b60006115fc83836115e1565b60208301905092915050565b6000602082019050919050565b6000611620826115b5565b61162a81856115c0565b9350611635836115d1565b8060005b8381101561166657815161164d88826115f0565b975061165883611608565b925050600181019050611639565b5085935050505092915050565b6000602082019050818103600083015261168d8184611615565b905092915050565b600081519050919050565b600082825260208201905092915050565b6000819050602082019050919050565b6116ca81611579565b82525050565b60006116dc83836116c1565b60208301905092915050565b6000602082019050919050565b600061170082611695565b61170a81856116a0565b9350611715836116b1565b8060005b8381101561174657815161172d88826116d0565b9750611738836116e8565b925050600181019050611719565b5085935050505092915050565b6000602082019050818103600083015261176d81846116f5565b905092915050565b61177e81611579565b811461178957600080fd5b50565b60008135905061179b81611775565b92915050565b6000602082840312156117b7576117b661142d565b5b60006117c58482850161178c565b91505092915050565b600080fd5b6000601f19601f8301169050919050565b7f4e487b7100000000000000000000000000000000000000000000000000000000600052604160045260246000fd5b61181c826117d3565b810181811067ffffffffffffffff8211171561183b5761183a6117e4565b5b80604052505050565b600061184e611423565b905061185a8282611813565b919050565b600067ffffffffffffffff82111561187a576118796117e4565b5b602082029050602081019050919050565b600080fd5b60006118a361189e8461185f565b611844565b905080838252602082019050602084028301858111156118c6576118c561188b565b5b835b818110156118ef57806118db888261178c565b8452602084019350506020810190506118c8565b5050509392505050565b600082601f83011261190e5761190d6117ce565b5b813561191e848260208601611890565b91505092915050565b600067ffffffffffffffff821115611942576119416117e4565b5b602082029050602081019050919050565b600061196661196184611927565b611844565b905080838252602082019050602084028301858111156119895761198861188b565b5b835b818110156119b2578061199e88826114b3565b84526020840193505060208101905061198b565b5050509392505050565b600082601f8301126119d1576119d06117ce565b5b81356119e1848260208601611953565b91505092915050565b60008060408385031215611a0157611a0061142d565b5b600083013567ffffffffffffffff811115611a1f57611a1e611432565b5b611a2b858286016118f9565b925050602083013567ffffffffffffffff811115611a4c57611a4b611432565b5b611a58858286016119bc565b9150509250929050565b600082825260208201905092915050565b7f45436d617274206f6e6c79000000000000000000000000000000000000000000600082015250565b6000611aa9600b83611a62565b9150611ab482611a73565b602082019050919050565b60006020820190508181036000830152611ad881611a9c565b9050919050565b7f4e487b7100000000000000000000000000000000000000000000000000000000600052603260045260246000fd5b7f64656c697665727920646f65736e2774206d617463682077697468206f72646560008201527f7200000000000000000000000000000000000000000000000000000000000000602082015250565b6000611b6a602183611a62565b9150611b7582611b0e565b604082019050919050565b60006020820190508181036000830152611b9981611b5d565b9050919050565b7f4e487b7100000000000000000000000000000000000000000000000000000000600052601160045260246000fd5b6000611bda826113ef565b91507fffffffffffffffffffffffffffffffffffffffffffffffffffffffffffffffff821415611c0d57611c0c611ba0565b5b600182019050919050565b600081519050919050565b60005b83811015611c41578082015181840152602081019050611c26565b83811115611c50576000848401525b50505050565b6000611c6182611c18565b611c6b8185611a62565b9350611c7b818560208601611c23565b611c84816117d3565b840191505092915050565b60006020820190508181036000830152611ca98184611c56565b90509291505056fea26469706673582212209c16958c4077e4bbc1149041aeb78a5bbf21f2d69c7e935fac96bc9a4e537a6064736f6c63430008080033a264697066735822122055d7d2626ee120b9f4ff4392c0126ed982e6b8c504d043f782874ed07e17333264736f6c63430008080033608060405234801561001057600080fd5b50611b26806100206000396000f3fe608060405234801561001057600080fd5b50600436106100415760003560e01c80632f6d5eea14610046578063cdc6c28714610062578063fa58baee1461007e575b600080fd5b610060600480360381019061005b9190610f45565b6100b3565b005b61007c60048036038101906100779190610fd0565b6103b3565b005b61009860048036038101906100939190611023565b610678565b6040516100aa96959493929190611316565b60405180910390f35b80518251146100f7576040517f08c379a00000000000000000000000000000000000000000000000000000000081526004016100ee906113fe565b60405180910390fd5b60008060010160008573ffffffffffffffffffffffffffffffffffffffff1673ffffffffffffffffffffffffffffffffffffffff16815260200190815260200160002060009054906101000a900460ff1660ff16141561018c576040517f08c379a00000000000000000000000000000000000000000000000000000000081526004016101839061146a565b60405180910390fd5b60008390503373ffffffffffffffffffffffffffffffffffffffff168173ffffffffffffffffffffffffffffffffffffffff166343c97c846040518163ffffffff1660e01b815260040160206040518083038186803b1580156101ee57600080fd5b505afa158015610202573d6000803e3d6000fd5b505050506040513d601f19601f82011682018060405250810190610226919061149f565b73ffffffffffffffffffffffffffffffffffffffff161461027c576040517f08c379a000000000000000000000000000000000000000000000000000000000815260040161027390611518565b60405180910390fd5b600015158173ffffffffffffffffffffffffffffffffffffffff16634fbd39d36040518163ffffffff1660e01b815260040160206040518083038186803b1580156102c657600080fd5b505afa1580156102da573d6000803e3d6000fd5b505050506040513d601f19601f820116820180604052508101906102fe9190611570565b151514610340576040517f08c379a0000000000000000000000000000000000000000000000000000000008152600401610337906115e9565b60405180910390fd5b8073ffffffffffffffffffffffffffffffffffffffff1663bdb9207484846040518363ffffffff1660e01b815260040161037b929190611609565b600060405180830381600087803b15801561039557600080fd5b505af11580156103a9573d6000803e3d6000fd5b5050505050505050565b60008060050160003373ffffffffffffffffffffffffffffffffffffffff1673ffffffffffffffffffffffffffffffffffffffff16815260200190815260200160002060009054906101000a900460ff1660ff161415610448576040517f08c379a000000000000000000000000000000000000000000000000000000000815260040161043f90611518565b60405180910390fd5b60008060010160008573ffffffffffffffffffffffffffffffffffffffff1673ffffffffffffffffffffffffffffffffffffffff16815260200190815260200160002060009054906101000a900460ff1660ff1614156104dd576040517f08c379a00000000000000000000000000000000000000000000000000000000081526004016104d49061146a565b60405180910390fd5b6000839050600073ffffffffffffffffffffffffffffffffffffffff168173ffffffffffffffffffffffffffffffffffffffff166343c97c846040518163ffffffff1660e01b815260040160206040518083038186803b15801561054057600080fd5b505afa158015610554573d6000803e3d6000fd5b505050506040513d601f19601f82011682018060405250810190610578919061149f565b73ffffffffffffffffffffffffffffffffffffffff16146105ce576040517f08c379a00000000000000000000000000000000000000000000000000000000081526004016105c59061168c565b60405180910390fd5b8073ffffffffffffffffffffffffffffffffffffffff1663ab3cb34c336040518263ffffffff1660e01b815260040161060791906116bb565b600060405180830381600087803b15801561062157600080fd5b505af1158015610635573d6000803e3d6000fd5b505050507fc96e8bca962f64e910e603a370af4bc2c95bccdaef7836482df81a004bbcead5838360405161066a9291906116e5565b60405180910390a150505050565b60608060608060608060008060010160008973ffffffffffffffffffffffffffffffffffffffff1673ffffffffffffffffffffffffffffffffffffffff16815260200190815260200160002060009054906101000a900460ff1660ff161415610716576040517f08c379a000000000000000000000000000000000000000000000000000000000815260040161070d9061146a565b60405180910390fd5b600087905060008173ffffffffffffffffffffffffffffffffffffffff1663444066176040518163ffffffff1660e01b815260040160006040518083038186803b15801561076357600080fd5b505afa158015610777573d6000803e3d6000fd5b505050506040513d6000823e3d601f19601f820116820180604052508101906107a091906117a5565b905060008273ffffffffffffffffffffffffffffffffffffffff16634117163e6040518163ffffffff1660e01b815260040160006040518083038186803b1580156107ea57600080fd5b505afa1580156107fe573d6000803e3d6000fd5b505050506040513d6000823e3d601f19601f82011682018060405250810190610827919061189a565b90506000825167ffffffffffffffff81111561084657610845610d09565b5b60405190808252806020026020018201604052801561087957816020015b60608152602001906001900390816108645790505b5090506000835167ffffffffffffffff81111561089957610898610d09565b5b6040519080825280602002602001820160405280156108c75781602001602082028036833780820191505090505b5090506000845167ffffffffffffffff8111156108e7576108e6610d09565b5b6040519080825280602002602001820160405280156109155781602001602082028036833780820191505090505b5090506000855167ffffffffffffffff81111561093557610934610d09565b5b6040519080825280602002602001820160405280156109635781602001602082028036833780820191505090505b50905060005b86518161ffff161015610c5e576000878261ffff168151811061098f5761098e6118e3565b5b602002602001015190508073ffffffffffffffffffffffffffffffffffffffff166317d7de7c6040518163ffffffff1660e01b815260040160006040518083038186803b1580156109df57600080fd5b505afa1580156109f3573d6000803e3d6000fd5b505050506040513d6000823e3d601f19601f82011682018060405250810190610a1c91906119b8565b868361ffff1681518110610a3357610a326118e3565b5b60200260200101819052508073ffffffffffffffffffffffffffffffffffffffff1663db005d886040518163ffffffff1660e01b815260040160206040518083038186803b158015610a8457600080fd5b505afa158015610a98573d6000803e3d6000fd5b505050506040513d601f19601f82011682018060405250810190610abc9190611a01565b838361ffff1681518110610ad357610ad26118e3565b5b602002602001018181525050868261ffff1681518110610af657610af56118e3565b5b60200260200101518173ffffffffffffffffffffffffffffffffffffffff166384aa33656040518163ffffffff1660e01b815260040160206040518083038186803b158015610b4457600080fd5b505afa158015610b58573d6000803e3d6000fd5b505050506040513d601f19601f82011682018060405250810190610b7c9190611a01565b610b869190611a5d565b858361ffff1681518110610b9d57610b9c6118e3565b5b6020026020010181815250508073ffffffffffffffffffffffffffffffffffffffff166384aa33656040518163ffffffff1660e01b815260040160206040518083038186803b158015610bef57600080fd5b505afa158015610c03573d6000803e3d6000fd5b505050506040513d601f19601f82011682018060405250810190610c279190611a01565b848361ffff1681518110610c3e57610c3d6118e3565b5b602002602001018181525050508080610c5690611ac5565b915050610969565b508386868486859c509c509c509c509c509c505050505050505091939550919395565b6000604051905090565b600080fd5b600080fd5b600073ffffffffffffffffffffffffffffffffffffffff82169050919050565b6000610cc082610c95565b9050919050565b610cd081610cb5565b8114610cdb57600080fd5b50565b600081359050610ced81610cc7565b92915050565b600080fd5b6000601f19601f8301169050919050565b7f4e487b7100000000000000000000000000000000000000000000000000000000600052604160045260246000fd5b610d4182610cf8565b810181811067ffffffffffffffff82111715610d6057610d5f610d09565b5b80604052505050565b6000610d73610c81565b9050610d7f8282610d38565b919050565b600067ffffffffffffffff821115610d9f57610d9e610d09565b5b602082029050602081019050919050565b600080fd5b6000610dc8610dc384610d84565b610d69565b90508083825260208201905060208402830185811115610deb57610dea610db0565b5b835b81811015610e145780610e008882610cde565b845260208401935050602081019050610ded565b5050509392505050565b600082601f830112610e3357610e32610cf3565b5b8135610e43848260208601610db5565b91505092915050565b600067ffffffffffffffff821115610e6757610e66610d09565b5b602082029050602081019050919050565b6000819050919050565b610e8b81610e78565b8114610e9657600080fd5b50565b600081359050610ea881610e82565b92915050565b6000610ec1610ebc84610e4c565b610d69565b90508083825260208201905060208402830185811115610ee457610ee3610db0565b5b835b81811015610f0d5780610ef98882610e99565b845260208401935050602081019050610ee6565b5050509392505050565b600082601f830112610f2c57610f2b610cf3565b5b8135610f3c848260208601610eae565b91505092915050565b600080600060608486031215610f5e57610f5d610c8b565b5b6000610f6c86828701610cde565b935050602084013567ffffffffffffffff811115610f8d57610f8c610c90565b5b610f9986828701610e1e565b925050604084013567ffffffffffffffff811115610fba57610fb9610c90565b5b610fc686828701610f17565b9150509250925092565b600080600060608486031215610fe957610fe8610c8b565b5b6000610ff786828701610cde565b935050602061100886828701610e99565b925050604061101986828701610e99565b9150509250925092565b60006020828403121561103957611038610c8b565b5b600061104784828501610cde565b91505092915050565b600081519050919050565b600082825260208201905092915050565b6000819050602082019050919050565b600081519050919050565b600082825260208201905092915050565b60005b838110156110b657808201518184015260208101905061109b565b838111156110c5576000848401525b50505050565b60006110d68261107c565b6110e08185611087565b93506110f0818560208601611098565b6110f981610cf8565b840191505092915050565b600061111083836110cb565b905092915050565b6000602082019050919050565b600061113082611050565b61113a818561105b565b93508360208202850161114c8561106c565b8060005b8581101561118857848403895281516111698582611104565b945061117483611118565b925060208a01995050600181019050611150565b50829750879550505050505092915050565b600081519050919050565b600082825260208201905092915050565b6000819050602082019050919050565b6111cf81610cb5565b82525050565b60006111e183836111c6565b60208301905092915050565b6000602082019050919050565b60006112058261119a565b61120f81856111a5565b935061121a836111b6565b8060005b8381101561124b57815161123288826111d5565b975061123d836111ed565b92505060018101905061121e565b5085935050505092915050565b600081519050919050565b600082825260208201905092915050565b6000819050602082019050919050565b61128d81610e78565b82525050565b600061129f8383611284565b60208301905092915050565b6000602082019050919050565b60006112c382611258565b6112cd8185611263565b93506112d883611274565b8060005b838110156113095781516112f08882611293565b97506112fb836112ab565b9250506001810190506112dc565b5085935050505092915050565b600060c08201905081810360008301526113308189611125565b9050818103602083015261134481886111fa565b9050818103604083015261135881876112b8565b9050818103606083015261136c81866112b8565b9050818103608083015261138081856112b8565b905081810360a083015261139481846112b8565b9050979650505050505050565b600082825260208201905092915050565b7f417272617973206d7573742068617665207468652073616d65206c656e677468600082015250565b60006113e86020836113a1565b91506113f3826113b2565b602082019050919050565b60006020820190508181036000830152611417816113db565b9050919050565b7f496e76616c6964206f7264657200000000000000000000000000000000000000600082015250565b6000611454600d836113a1565b915061145f8261141e565b602082019050919050565b6000602082019050818103600083015261148381611447565b9050919050565b60008151905061149981610cc7565b92915050565b6000602082840312156114b5576114b4610c8b565b5b60006114c38482850161148a565b91505092915050565b7f496e76616c69642064656c6976657279206d616e000000000000000000000000600082015250565b60006115026014836113a1565b915061150d826114cc565b602082019050919050565b60006020820190508181036000830152611531816114f5565b9050919050565b60008115159050919050565b61154d81611538565b811461155857600080fd5b50565b60008151905061156a81611544565b92915050565b60006020828403121561158657611585610c8b565b5b60006115948482850161155b565b91505092915050565b7f616c72656164792064656c697665726564000000000000000000000000000000600082015250565b60006115d36011836113a1565b91506115de8261159d565b602082019050919050565b60006020820190508181036000830152611602816115c6565b9050919050565b6000604082019050818103600083015261162381856111fa565b9050818103602083015261163781846112b8565b90509392505050565b7f44656c6976657279206d616e20697320616c7265616479207365740000000000600082015250565b6000611676601b836113a1565b915061168182611640565b602082019050919050565b600060208201905081810360008301526116a581611669565b9050919050565b6116b581610cb5565b82525050565b60006020820190506116d060008301846116ac565b92915050565b6116df81610e78565b82525050565b60006040820190506116fa60008301856116d6565b61170760208301846116d6565b9392505050565b600061172161171c84610d84565b610d69565b9050808382526020820190506020840283018581111561174457611743610db0565b5b835b8181101561176d5780611759888261148a565b845260208401935050602081019050611746565b5050509392505050565b600082601f83011261178c5761178b610cf3565b5b815161179c84826020860161170e565b91505092915050565b6000602082840312156117bb576117ba610c8b565b5b600082015167ffffffffffffffff8111156117d9576117d8610c90565b5b6117e584828501611777565b91505092915050565b6000815190506117fd81610e82565b92915050565b600061181661181184610e4c565b610d69565b9050808382526020820190506020840283018581111561183957611838610db0565b5b835b81811015611862578061184e88826117ee565b84526020840193505060208101905061183b565b5050509392505050565b600082601f83011261188157611880610cf3565b5b8151611891848260208601611803565b91505092915050565b6000602082840312156118b0576118af610c8b565b5b600082015167ffffffffffffffff8111156118ce576118cd610c90565b5b6118da8482850161186c565b91505092915050565b7f4e487b7100000000000000000000000000000000000000000000000000000000600052603260045260246000fd5b600080fd5b600067ffffffffffffffff82111561193257611931610d09565b5b61193b82610cf8565b9050602081019050919050565b600061195b61195684611917565b610d69565b90508281526020810184848401111561197757611976611912565b5b611982848285611098565b509392505050565b600082601f83011261199f5761199e610cf3565b5b81516119af848260208601611948565b91505092915050565b6000602082840312156119ce576119cd610c8b565b5b600082015167ffffffffffffffff8111156119ec576119eb610c90565b5b6119f88482850161198a565b91505092915050565b600060208284031215611a1757611a16610c8b565b5b6000611a25848285016117ee565b91505092915050565b7f4e487b7100000000000000000000000000000000000000000000000000000000600052601160045260246000fd5b6000611a6882610e78565b9150611a7383610e78565b9250817fffffffffffffffffffffffffffffffffffffffffffffffffffffffffffffffff0483118215151615611aac57611aab611a2e565b5b828202905092915050565b600061ffff82169050919050565b6000611ad082611ab7565b915061ffff821415611ae557611ae4611a2e565b5b60018201905091905056fea2646970667358221220eaa90d5599c20cf80527a638aa128575410a79581e9cd68721abec6eccf34b4d64736f6c63430008080033608060405234801561001057600080fd5b50610c0c806100206000396000f3fe608060405234801561001057600080fd5b50600436106100365760003560e01c80630e53713f1461003b578063c36dcd7f14610057575b600080fd5b61005560048036038101906100509190610390565b61008a565b005b610071600480360381019061006c91906103ff565b610104565b60405161008194939291906106f2565b60405180910390f35b60008390508073ffffffffffffffffffffffffffffffffffffffff1663f6c0f8b98484336040518463ffffffff1660e01b81526004016100cc939291906107bb565b600060405180830381600087803b1580156100e657600080fd5b505af11580156100fa573d6000803e3d6000fd5b5050505050505050565b60608060608060008590508073ffffffffffffffffffffffffffffffffffffffff166341f296186040518163ffffffff1660e01b815260040160006040518083038186803b15801561015557600080fd5b505afa158015610169573d6000803e3d6000fd5b505050506040513d6000823e3d601f19601f820116820180604052508101906101929190610aff565b9450945094509450509193509193565b6000604051905090565b600080fd5b600080fd5b600073ffffffffffffffffffffffffffffffffffffffff82169050919050565b60006101e1826101b6565b9050919050565b6101f1816101d6565b81146101fc57600080fd5b50565b60008135905061020e816101e8565b92915050565b600080fd5b600080fd5b6000601f19601f8301169050919050565b7f4e487b7100000000000000000000000000000000000000000000000000000000600052604160045260246000fd5b6102678261021e565b810181811067ffffffffffffffff821117156102865761028561022f565b5b80604052505050565b60006102996101a2565b90506102a5828261025e565b919050565b600067ffffffffffffffff8211156102c5576102c461022f565b5b6102ce8261021e565b9050602081019050919050565b82818337600083830152505050565b60006102fd6102f8846102aa565b61028f565b90508281526020810184848401111561031957610318610219565b5b6103248482856102db565b509392505050565b600082601f83011261034157610340610214565b5b81356103518482602086016102ea565b91505092915050565b6000819050919050565b61036d8161035a565b811461037857600080fd5b50565b60008135905061038a81610364565b92915050565b6000806000606084860312156103a9576103a86101ac565b5b60006103b7868287016101ff565b935050602084013567ffffffffffffffff8111156103d8576103d76101b1565b5b6103e48682870161032c565b92505060406103f58682870161037b565b9150509250925092565b600060208284031215610415576104146101ac565b5b6000610423848285016101ff565b91505092915050565b600081519050919050565b600082825260208201905092915050565b6000819050602082019050919050565b610461816101d6565b82525050565b60006104738383610458565b60208301905092915050565b6000602082019050919050565b60006104978261042c565b6104a18185610437565b93506104ac83610448565b8060005b838110156104dd5781516104c48882610467565b97506104cf8361047f565b9250506001810190506104b0565b5085935050505092915050565b600081519050919050565b600082825260208201905092915050565b6000819050602082019050919050565b600081519050919050565b600082825260208201905092915050565b60005b83811015610550578082015181840152602081019050610535565b8381111561055f576000848401525b50505050565b600061057082610516565b61057a8185610521565b935061058a818560208601610532565b6105938161021e565b840191505092915050565b60006105aa8383610565565b905092915050565b6000602082019050919050565b60006105ca826104ea565b6105d481856104f5565b9350836020820285016105e685610506565b8060005b858110156106225784840389528151610603858261059e565b945061060e836105b2565b925060208a019950506001810190506105ea565b50829750879550505050505092915050565b600081519050919050565b600082825260208201905092915050565b6000819050602082019050919050565b6106698161035a565b82525050565b600061067b8383610660565b60208301905092915050565b6000602082019050919050565b600061069f82610634565b6106a9818561063f565b93506106b483610650565b8060005b838110156106e55781516106cc888261066f565b97506106d783610687565b9250506001810190506106b8565b5085935050505092915050565b6000608082019050818103600083015261070c818761048c565b9050818103602083015261072081866105bf565b905081810360408301526107348185610694565b905081810360608301526107488184610694565b905095945050505050565b600082825260208201905092915050565b600061076f82610516565b6107798185610753565b9350610789818560208601610532565b6107928161021e565b840191505092915050565b6107a68161035a565b82525050565b6107b5816101d6565b82525050565b600060608201905081810360008301526107d58186610764565b90506107e4602083018561079d565b6107f160408301846107ac565b949350505050565b600067ffffffffffffffff8211156108145761081361022f565b5b602082029050602081019050919050565b600080fd5b600081519050610839816101e8565b92915050565b600061085261084d846107f9565b61028f565b9050808382526020820190506020840283018581111561087557610874610825565b5b835b8181101561089e578061088a888261082a565b845260208401935050602081019050610877565b5050509392505050565b600082601f8301126108bd576108bc610214565b5b81516108cd84826020860161083f565b91505092915050565b600067ffffffffffffffff8211156108f1576108f061022f565b5b602082029050602081019050919050565b6000610915610910846102aa565b61028f565b90508281526020810184848401111561093157610930610219565b5b61093c848285610532565b509392505050565b600082601f83011261095957610958610214565b5b8151610969848260208601610902565b91505092915050565b6000610985610980846108d6565b61028f565b905080838252602082019050602084028301858111156109a8576109a7610825565b5b835b818110156109ef57805167ffffffffffffffff8111156109cd576109cc610214565b5b8086016109da8982610944565b855260208501945050506020810190506109aa565b5050509392505050565b600082601f830112610a0e57610a0d610214565b5b8151610a1e848260208601610972565b91505092915050565b600067ffffffffffffffff821115610a4257610a4161022f565b5b602082029050602081019050919050565b600081519050610a6281610364565b92915050565b6000610a7b610a7684610a27565b61028f565b90508083825260208201905060208402830185811115610a9e57610a9d610825565b5b835b81811015610ac75780610ab38882610a53565b845260208401935050602081019050610aa0565b5050509392505050565b600082601f830112610ae657610ae5610214565b5b8151610af6848260208601610a68565b91505092915050565b60008060008060808587031215610b1957610b186101ac565b5b600085015167ffffffffffffffff811115610b3757610b366101b1565b5b610b43878288016108a8565b945050602085015167ffffffffffffffff811115610b6457610b636101b1565b5b610b70878288016109f9565b935050604085015167ffffffffffffffff811115610b9157610b906101b1565b5b610b9d87828801610ad1565b925050606085015167ffffffffffffffff811115610bbe57610bbd6101b1565b5b610bca87828801610ad1565b9150509295919450925056fea26469706673582212208679ab287361e9645f211bb425e0f29bf77058ad9e32a0b1e90373755400cd2a64736f6c63430008080033608060405234801561001057600080fd5b50612cb9806100206000396000f3fe60806040523480156200001157600080fd5b50600436106200003a5760003560e01c8063677e8bc0146200003f578063f3122fca146200005f575b600080fd5b6200005d600480360381019062000057919062000756565b62000095565b005b6200007d600480360381019062000077919062000881565b62000362565b6040516200008c919062000981565b60405180910390f35b6001600060030160003373ffffffffffffffffffffffffffffffffffffffff1673ffffffffffffffffffffffffffffffffffffffff16815260200190815260200160002060009054906101000a900460ff1660ff16146200012d576040517f08c379a0000000000000000000000000000000000000000000000000000000008152600401620001249062000a06565b60405180910390fd5b600060646000600801548662000144919062000a57565b62000150919062000ae7565b6000600701546000600601548762000169919062000b1f565b62000175919062000b1f565b62000181919062000b1f565b9050620001c46040518060400160405280601a81526020017f5f46696e616c205072696365206f662050726f64756374203a200000000000008152508262000431565b60008686868633308789604051620001dc9062000597565b620001ef98979695949392919062000c20565b604051809103906000f0801580156200020c573d6000803e3d6000fd5b50905060008190506200021f81620004d1565b600960003373ffffffffffffffffffffffffffffffffffffffff1673ffffffffffffffffffffffffffffffffffffffff168152602001908152602001600020819080600181540180825580915050600190039060005260206000200160009091909190916101000a81548173ffffffffffffffffffffffffffffffffffffffff021916908373ffffffffffffffffffffffffffffffffffffffff1602179055506001600060020160008473ffffffffffffffffffffffffffffffffffffffff1673ffffffffffffffffffffffffffffffffffffffff16815260200190815260200160002060006101000a81548160ff021916908360ff1602179055507f6d6b40783c573ab0804a549d155a54d2d9ecf854ec6cf78c9e5c62ae07fe6020838286604051620003509392919062000cbc565b60405180910390a15050505050505050565b6060600960008373ffffffffffffffffffffffffffffffffffffffff1673ffffffffffffffffffffffffffffffffffffffff1681526020019081526020016000208054806020026020016040519081016040528092919081815260200182805480156200042557602002820191906000526020600020905b8160009054906101000a900473ffffffffffffffffffffffffffffffffffffffff1673ffffffffffffffffffffffffffffffffffffffff1681526020019060010190808311620003da575b50505050509050919050565b620004cd82826040516024016200044a92919062000cf9565b6040516020818303038152906040527f9710a9d0000000000000000000000000000000000000000000000000000000007bffffffffffffffffffffffffffffffffffffffffffffffffffffffff19166020820180517bffffffffffffffffffffffffffffffffffffffffffffffffffffffff83818316178352505050506200056e565b5050565b6200056b81604051602401620004e8919062000d2d565b6040516020818303038152906040527f2c2ecbc2000000000000000000000000000000000000000000000000000000007bffffffffffffffffffffffffffffffffffffffffffffffffffffffff19166020820180517bffffffffffffffffffffffffffffffffffffffffffffffffffffffff83818316178352505050506200056e565b50565b60008151905060006a636f6e736f6c652e6c6f679050602083016000808483855afa5050505050565b611f398062000d4b83390190565b6000604051905090565b600080fd5b600080fd5b600080fd5b600080fd5b6000601f19601f8301169050919050565b7f4e487b7100000000000000000000000000000000000000000000000000000000600052604160045260246000fd5b6200060e82620005c3565b810181811067ffffffffffffffff8211171562000630576200062f620005d4565b5b80604052505050565b600062000645620005a5565b905062000653828262000603565b919050565b600067ffffffffffffffff821115620006765762000675620005d4565b5b6200068182620005c3565b9050602081019050919050565b82818337600083830152505050565b6000620006b4620006ae8462000658565b62000639565b905082815260208101848484011115620006d357620006d2620005be565b5b620006e08482856200068e565b509392505050565b600082601f8301126200070057620006ff620005b9565b5b8135620007128482602086016200069d565b91505092915050565b6000819050919050565b62000730816200071b565b81146200073c57600080fd5b50565b600081359050620007508162000725565b92915050565b600080600080600060a08688031215620007755762000774620005af565b5b600086013567ffffffffffffffff811115620007965762000795620005b4565b5b620007a488828901620006e8565b9550506020620007b7888289016200073f565b945050604086013567ffffffffffffffff811115620007db57620007da620005b4565b5b620007e988828901620006e8565b9350506060620007fc888289016200073f565b92505060806200080f888289016200073f565b9150509295509295909350565b600073ffffffffffffffffffffffffffffffffffffffff82169050919050565b600062000849826200081c565b9050919050565b6200085b816200083c565b81146200086757600080fd5b50565b6000813590506200087b8162000850565b92915050565b6000602082840312156200089a5762000899620005af565b5b6000620008aa848285016200086a565b91505092915050565b600081519050919050565b600082825260208201905092915050565b6000819050602082019050919050565b620008ea816200083c565b82525050565b6000620008fe8383620008df565b60208301905092915050565b6000602082019050919050565b60006200092482620008b3565b620009308185620008be565b93506200093d83620008cf565b8060005b8381101562000974578151620009588882620008f0565b975062000965836200090a565b92505060018101905062000941565b5085935050505092915050565b600060208201905081810360008301526200099d818462000917565b905092915050565b600082825260208201905092915050565b7f596f7520617265206e6f7420612073656c6c6572000000000000000000000000600082015250565b6000620009ee601483620009a5565b9150620009fb82620009b6565b602082019050919050565b6000602082019050818103600083015262000a2181620009df565b9050919050565b7f4e487b7100000000000000000000000000000000000000000000000000000000600052601160045260246000fd5b600062000a64826200071b565b915062000a71836200071b565b9250817fffffffffffffffffffffffffffffffffffffffffffffffffffffffffffffffff048311821515161562000aad5762000aac62000a28565b5b828202905092915050565b7f4e487b7100000000000000000000000000000000000000000000000000000000600052601260045260246000fd5b600062000af4826200071b565b915062000b01836200071b565b92508262000b145762000b1362000ab8565b5b828204905092915050565b600062000b2c826200071b565b915062000b39836200071b565b9250827fffffffffffffffffffffffffffffffffffffffffffffffffffffffffffffffff0382111562000b715762000b7062000a28565b5b828201905092915050565b600081519050919050565b60005b8381101562000ba757808201518184015260208101905062000b8a565b8381111562000bb7576000848401525b50505050565b600062000bca8262000b7c565b62000bd68185620009a5565b935062000be881856020860162000b87565b62000bf381620005c3565b840191505092915050565b62000c09816200071b565b82525050565b62000c1a816200083c565b82525050565b600061010082019050818103600083015262000c3d818b62000bbd565b905062000c4e602083018a62000bfe565b818103604083015262000c62818962000bbd565b905062000c73606083018862000bfe565b62000c82608083018762000c0f565b62000c9160a083018662000c0f565b62000ca060c083018562000bfe565b62000caf60e083018462000bfe565b9998505050505050505050565b600060608201905062000cd3600083018662000bfe565b62000ce2602083018562000c0f565b62000cf1604083018462000bfe565b949350505050565b6000604082019050818103600083015262000d15818562000bbd565b905062000d26602083018462000bfe565b9392505050565b600060208201905062000d44600083018462000c0f565b9291505056fe60806040523480156200001157600080fd5b5060405162001f3938038062001f39833981810160405281019062000037919062000402565b87600090805190602001906200004f92919062000115565b50866001819055508460028190555085600490805190602001906200007692919062000115565b5083600560006101000a81548173ffffffffffffffffffffffffffffffffffffffff021916908373ffffffffffffffffffffffffffffffffffffffff16021790555082600660006101000a81548173ffffffffffffffffffffffffffffffffffffffff021916908373ffffffffffffffffffffffffffffffffffffffff160217905550816007819055508060088190555050505050505050506200056e565b828054620001239062000538565b90600052602060002090601f01602090048101928262000147576000855562000193565b82601f106200016257805160ff191683800117855562000193565b8280016001018555821562000193579182015b828111156200019257825182559160200191906001019062000175565b5b509050620001a29190620001a6565b5090565b5b80821115620001c1576000816000905550600101620001a7565b5090565b6000604051905090565b600080fd5b600080fd5b600080fd5b600080fd5b6000601f19601f8301169050919050565b7f4e487b7100000000000000000000000000000000000000000000000000000000600052604160045260246000fd5b6200022e82620001e3565b810181811067ffffffffffffffff8211171562000250576200024f620001f4565b5b80604052505050565b600062000265620001c5565b905062000273828262000223565b919050565b600067ffffffffffffffff821115620002965762000295620001f4565b5b620002a182620001e3565b9050602081019050919050565b60005b83811015620002ce578082015181840152602081019050620002b1565b83811115620002de576000848401525b50505050565b6000620002fb620002f58462000278565b62000259565b9050828152602081018484840111156200031a5762000319620001de565b5b62000327848285620002ae565b509392505050565b600082601f830112620003475762000346620001d9565b5b815162000359848260208601620002e4565b91505092915050565b6000819050919050565b620003778162000362565b81146200038357600080fd5b50565b60008151905062000397816200036c565b92915050565b600073ffffffffffffffffffffffffffffffffffffffff82169050919050565b6000620003ca826200039d565b9050919050565b620003dc81620003bd565b8114620003e857600080fd5b50565b600081519050620003fc81620003d1565b92915050565b600080600080600080600080610100898b031215620004265762000425620001cf565b5b600089015167ffffffffffffffff811115620004475762000446620001d4565b5b620004558b828c016200032f565b9850506020620004688b828c0162000386565b975050604089015167ffffffffffffffff8111156200048c576200048b620001d4565b5b6200049a8b828c016200032f565b9650506060620004ad8b828c0162000386565b9550506080620004c08b828c01620003eb565b94505060a0620004d38b828c01620003eb565b93505060c0620004e68b828c0162000386565b92505060e0620004f98b828c0162000386565b9150509295985092959890939650565b7f4e487b7100000000000000000000000000000000000000000000000000000000600052602260045260246000fd5b600060028204905060018216806200055157607f821691505b6020821081141562000568576200056762000509565b5b50919050565b6119bb806200057e6000396000f3fe608060405234801561001057600080fd5b50600436106100cf5760003560e01c806398d5fdca1161008c578063db6a365211610066578063db6a3652146101f3578063dbd0e1b61461020f578063edbab1431461022d578063f6c0f8b91461024b576100cf565b806398d5fdca14610187578063a85c38ef146101a5578063db005d88146101d5576100cf565b80630115949c146100d457806317d7de7c146100f257806317fa1f4714610110578063317c99841461012c57806341f296181461014857806384aa336514610169575b600080fd5b6100dc610267565b6040516100e99190610f7e565b60405180910390f35b6100fa610271565b6040516101079190611032565b60405180910390f35b61012a60048036038101906101259190611094565b610303565b005b6101466004803603810190610141919061111f565b6103f5565b005b610150610541565b60405161016094939291906113d4565b60405180910390f35b610171610768565b60405161017e9190610f7e565b60405180910390f35b61018f610772565b60405161019c9190610f7e565b60405180910390f35b6101bf60048036038101906101ba9190611094565b610864565b6040516101cc9190611444565b60405180910390f35b6101dd6108a3565b6040516101ea9190610f7e565b60405180910390f35b61020d6004803603810190610208919061145f565b61093d565b005b610217610a78565b6040516102249190611444565b60405180910390f35b610235610aa2565b6040516102429190610f7e565b60405180910390f35b610265600480360381019061026091906115d4565b610aa8565b005b6000600254905090565b60606000805461028090611672565b80601f01602080910402602001604051908101604052809291908181526020018280546102ac90611672565b80156102f95780601f106102ce576101008083540402835291602001916102f9565b820191906000526020600020905b8154815290600101906020018083116102dc57829003601f168201915b5050505050905090565b600660009054906101000a900473ffffffffffffffffffffffffffffffffffffffff1673ffffffffffffffffffffffffffffffffffffffff163373ffffffffffffffffffffffffffffffffffffffff1614806103ac5750600560009054906101000a900473ffffffffffffffffffffffffffffffffffffffff1673ffffffffffffffffffffffffffffffffffffffff163373ffffffffffffffffffffffffffffffffffffffff16145b6103eb576040517f08c379a00000000000000000000000000000000000000000000000000000000081526004016103e2906116f0565b60405180910390fd5b8060028190555050565b600660009054906101000a900473ffffffffffffffffffffffffffffffffffffffff1673ffffffffffffffffffffffffffffffffffffffff163373ffffffffffffffffffffffffffffffffffffffff1614610485576040517f08c379a000000000000000000000000000000000000000000000000000000000815260040161047c9061175c565b60405180910390fd5b6001600b60008373ffffffffffffffffffffffffffffffffffffffff1673ffffffffffffffffffffffffffffffffffffffff16815260200190815260200160002060009054906101000a900463ffffffff166104e191906117bb565b600b60008373ffffffffffffffffffffffffffffffffffffffff1673ffffffffffffffffffffffffffffffffffffffff16815260200190815260200160002060006101000a81548163ffffffff021916908363ffffffff16021790555050565b606080606080600d600001600d600101600d600201600d600301838054806020026020016040519081016040528092919081815260200182805480156105dc57602002820191906000526020600020905b8160009054906101000a900473ffffffffffffffffffffffffffffffffffffffff1673ffffffffffffffffffffffffffffffffffffffff1681526020019060010190808311610592575b5050505050935082805480602002602001604051908101604052809291908181526020016000905b828210156106b057838290600052602060002001805461062390611672565b80601f016020809104026020016040519081016040528092919081815260200182805461064f90611672565b801561069c5780601f106106715761010080835404028352916020019161069c565b820191906000526020600020905b81548152906001019060200180831161067f57829003601f168201915b505050505081526020019060010190610604565b5050505092508180548060200260200160405190810160405280929190818152602001828054801561070157602002820191906000526020600020905b8154815260200190600101908083116106ed575b505050505091508080548060200260200160405190810160405280929190818152602001828054801561075357602002820191906000526020600020905b81548152602001906001019080831161073f575b50505050509050935093509350935090919293565b6000600754905090565b6000600660009054906101000a900473ffffffffffffffffffffffffffffffffffffffff1673ffffffffffffffffffffffffffffffffffffffff163373ffffffffffffffffffffffffffffffffffffffff16148061081d5750600560009054906101000a900473ffffffffffffffffffffffffffffffffffffffff1673ffffffffffffffffffffffffffffffffffffffff163373ffffffffffffffffffffffffffffffffffffffff16145b61085c576040517f08c379a0000000000000000000000000000000000000000000000000000000008152600401610853906116f0565b60405180910390fd5b600154905090565b600a818154811061087457600080fd5b906000526020600020016000915054906101000a900473ffffffffffffffffffffffffffffffffffffffff1681565b6000600660009054906101000a900473ffffffffffffffffffffffffffffffffffffffff1673ffffffffffffffffffffffffffffffffffffffff163373ffffffffffffffffffffffffffffffffffffffff1614610935576040517f08c379a000000000000000000000000000000000000000000000000000000000815260040161092c9061175c565b60405180910390fd5b600854905090565b600660009054906101000a900473ffffffffffffffffffffffffffffffffffffffff1673ffffffffffffffffffffffffffffffffffffffff163373ffffffffffffffffffffffffffffffffffffffff16146109cd576040517f08c379a00000000000000000000000000000000000000000000000000000000081526004016109c49061175c565b60405180910390fd5b600a829080600181540180825580915050600190039060005260206000200160009091909190916101000a81548173ffffffffffffffffffffffffffffffffffffffff021916908373ffffffffffffffffffffffffffffffffffffffff16021790555080600960008473ffffffffffffffffffffffffffffffffffffffff1673ffffffffffffffffffffffffffffffffffffffff168152602001908152602001600020819055505050565b6000600560009054906101000a900473ffffffffffffffffffffffffffffffffffffffff16905090565b60075481565b600660009054906101000a900473ffffffffffffffffffffffffffffffffffffffff1673ffffffffffffffffffffffffffffffffffffffff163373ffffffffffffffffffffffffffffffffffffffff1614610b38576040517f08c379a0000000000000000000000000000000000000000000000000000000008152600401610b2f9061175c565b60405180910390fd5b6000600b60008373ffffffffffffffffffffffffffffffffffffffff1673ffffffffffffffffffffffffffffffffffffffff16815260200190815260200160002060009054906101000a900463ffffffff1663ffffffff161415610bd1576040517f08c379a0000000000000000000000000000000000000000000000000000000008152600401610bc890611867565b60405180910390fd5b600c60008273ffffffffffffffffffffffffffffffffffffffff1673ffffffffffffffffffffffffffffffffffffffff16815260200190815260200160002060009054906101000a900463ffffffff1663ffffffff16600b60008373ffffffffffffffffffffffffffffffffffffffff1673ffffffffffffffffffffffffffffffffffffffff16815260200190815260200160002060009054906101000a900463ffffffff1663ffffffff1611610cbd576040517f08c379a0000000000000000000000000000000000000000000000000000000008152600401610cb4906118f9565b60405180910390fd5b6005821115610d01576040517f08c379a0000000000000000000000000000000000000000000000000000000008152600401610cf890611965565b60405180910390fd5b6000429050600d600001829080600181540180825580915050600190039060005260206000200160009091909190916101000a81548173ffffffffffffffffffffffffffffffffffffffff021916908373ffffffffffffffffffffffffffffffffffffffff160217905550600d60010184908060018154018082558091505060019003906000526020600020016000909190919091509080519060200190610daa929190610ec2565b50600d600201839080600181540180825580915050600190039060005260206000200160009091909190915055600d6003018190806001815401808255809150506001900390600052602060002001600090919091909150556001600c60008473ffffffffffffffffffffffffffffffffffffffff1673ffffffffffffffffffffffffffffffffffffffff16815260200190815260200160002060009054906101000a900463ffffffff16610e5f91906117bb565b600c60008473ffffffffffffffffffffffffffffffffffffffff1673ffffffffffffffffffffffffffffffffffffffff16815260200190815260200160002060006101000a81548163ffffffff021916908363ffffffff16021790555050505050565b828054610ece90611672565b90600052602060002090601f016020900481019282610ef05760008555610f37565b82601f10610f0957805160ff1916838001178555610f37565b82800160010185558215610f37579182015b82811115610f36578251825591602001919060010190610f1b565b5b509050610f449190610f48565b5090565b5b80821115610f61576000816000905550600101610f49565b5090565b6000819050919050565b610f7881610f65565b82525050565b6000602082019050610f936000830184610f6f565b92915050565b600081519050919050565b600082825260208201905092915050565b60005b83811015610fd3578082015181840152602081019050610fb8565b83811115610fe2576000848401525b50505050565b6000601f19601f8301169050919050565b600061100482610f99565b61100e8185610fa4565b935061101e818560208601610fb5565b61102781610fe8565b840191505092915050565b6000602082019050818103600083015261104c8184610ff9565b905092915050565b6000604051905090565b600080fd5b600080fd5b61107181610f65565b811461107c57600080fd5b50565b60008135905061108e81611068565b92915050565b6000602082840312156110aa576110a961105e565b5b60006110b88482850161107f565b91505092915050565b600073ffffffffffffffffffffffffffffffffffffffff82169050919050565b60006110ec826110c1565b9050919050565b6110fc816110e1565b811461110757600080fd5b50565b600081359050611119816110f3565b92915050565b6000602082840312156111355761113461105e565b5b60006111438482850161110a565b91505092915050565b600081519050919050565b600082825260208201905092915050565b6000819050602082019050919050565b611181816110e1565b82525050565b60006111938383611178565b60208301905092915050565b6000602082019050919050565b60006111b78261114c565b6111c18185611157565b93506111cc83611168565b8060005b838110156111fd5781516111e48882611187565b97506111ef8361119f565b9250506001810190506111d0565b5085935050505092915050565b600081519050919050565b600082825260208201905092915050565b6000819050602082019050919050565b600082825260208201905092915050565b600061125282610f99565b61125c8185611236565b935061126c818560208601610fb5565b61127581610fe8565b840191505092915050565b600061128c8383611247565b905092915050565b6000602082019050919050565b60006112ac8261120a565b6112b68185611215565b9350836020820285016112c885611226565b8060005b8581101561130457848403895281516112e58582611280565b94506112f083611294565b925060208a019950506001810190506112cc565b50829750879550505050505092915050565b600081519050919050565b600082825260208201905092915050565b6000819050602082019050919050565b61134b81610f65565b82525050565b600061135d8383611342565b60208301905092915050565b6000602082019050919050565b600061138182611316565b61138b8185611321565b935061139683611332565b8060005b838110156113c75781516113ae8882611351565b97506113b983611369565b92505060018101905061139a565b5085935050505092915050565b600060808201905081810360008301526113ee81876111ac565b9050818103602083015261140281866112a1565b905081810360408301526114168185611376565b9050818103606083015261142a8184611376565b905095945050505050565b61143e816110e1565b82525050565b60006020820190506114596000830184611435565b92915050565b600080604083850312156114765761147561105e565b5b60006114848582860161110a565b92505060206114958582860161107f565b9150509250929050565b600080fd5b600080fd5b7f4e487b7100000000000000000000000000000000000000000000000000000000600052604160045260246000fd5b6114e182610fe8565b810181811067ffffffffffffffff82111715611500576114ff6114a9565b5b80604052505050565b6000611513611054565b905061151f82826114d8565b919050565b600067ffffffffffffffff82111561153f5761153e6114a9565b5b61154882610fe8565b9050602081019050919050565b82818337600083830152505050565b600061157761157284611524565b611509565b905082815260208101848484011115611593576115926114a4565b5b61159e848285611555565b509392505050565b600082601f8301126115bb576115ba61149f565b5b81356115cb848260208601611564565b91505092915050565b6000806000606084860312156115ed576115ec61105e565b5b600084013567ffffffffffffffff81111561160b5761160a611063565b5b611617868287016115a6565b93505060206116288682870161107f565b92505060406116398682870161110a565b9150509250925092565b7f4e487b7100000000000000000000000000000000000000000000000000000000600052602260045260246000fd5b6000600282049050600182168061168a57607f821691505b6020821081141561169e5761169d611643565b5b50919050565b7f4e6f74204f776e6572206f722073656c6c657200000000000000000000000000600082015250565b60006116da601383610fa4565b91506116e5826116a4565b602082019050919050565b60006020820190508181036000830152611709816116cd565b9050919050565b7f4e6f742045434d61727420286f776e6572290000000000000000000000000000600082015250565b6000611746601283610fa4565b915061175182611710565b602082019050919050565b6000602082019050818103600083015261177581611739565b9050919050565b600063ffffffff82169050919050565b7f4e487b7100000000000000000000000000000000000000000000000000000000600052601160045260246000fd5b60006117c68261177c565b91506117d18361177c565b92508263ffffffff038211156117ea576117e961178c565b5b828201905092915050565b7f596f7520617265206e6f742061206275796572206f66207468652070726f647560008201527f6374000000000000000000000000000000000000000000000000000000000000602082015250565b6000611851602283610fa4565b915061185c826117f5565b604082019050919050565b6000602082019050818103600083015261188081611844565b9050919050565b7f596f75206861766520616c72656164792070726f76696465642072657669657760008201527f20616e6420726174696e67206f6620746869732070726f647563740000000000602082015250565b60006118e3603b83610fa4565b91506118ee82611887565b604082019050919050565b60006020820190508181036000830152611912816118d6565b9050919050565b7f526174696e672073686f756c64206265206c657373207468616e203500000000600082015250565b600061194f601c83610fa4565b915061195a82611919565b602082019050919050565b6000602082019050818103600083015261197e81611942565b905091905056fea26469706673582212202c61b9a4139ff38a87541c1e1fbd07df1badb4091addfd2a8b37619bc4f9a6d864736f6c63430008080033a2646970667358221220e2ba5e3c5801097ff7b52e002f098ff21a09d24658acc6efbe038dc38ef5eebf64736f6c63430008080033608060405234801561001057600080fd5b506105c4806100206000396000f3fe608060405234801561001057600080fd5b50600436106100415760003560e01c80638861731514610046578063a0f7c55a14610062578063c621955e1461007e575b600080fd5b610060600480360381019061005b919061041f565b61009a565b005b61007c6004803603810190610077919061041f565b610171565b005b6100986004803603810190610093919061041f565b610248565b005b6001600060030160003373ffffffffffffffffffffffffffffffffffffffff1673ffffffffffffffffffffffffffffffffffffffff16815260200190815260200160002060006101000a81548160ff021916908360ff1602179055506101356040518060400160405280601481526020017f53656c6c65722072656769737465726564203a200000000000000000000000008152503361031f565b7f75dffe0fb61ff2c8945116ae986d8a0a87751d4addbdf798e256d7415aa4162d338260405161016692919061049c565b60405180910390a150565b6002600060040160003373ffffffffffffffffffffffffffffffffffffffff1673ffffffffffffffffffffffffffffffffffffffff16815260200190815260200160002060006101000a81548160ff021916908360ff16021790555061020c6040518060400160405280601381526020017f42757965722052656769737465726564203a20000000000000000000000000008152503361031f565b7f75dffe0fb61ff2c8945116ae986d8a0a87751d4addbdf798e256d7415aa4162d338260405161023d92919061049c565b60405180910390a150565b6003600060050160003373ffffffffffffffffffffffffffffffffffffffff1673ffffffffffffffffffffffffffffffffffffffff16815260200190815260200160002060006101000a81548160ff021916908360ff1602179055506102e36040518060400160405280601981526020017f44656c69766572796d616e2052656769737465726564203a20000000000000008152503361031f565b7f75dffe0fb61ff2c8945116ae986d8a0a87751d4addbdf798e256d7415aa4162d338260405161031492919061049c565b60405180910390a150565b6103b7828260405160240161033592919061055e565b6040516020818303038152906040527f319af333000000000000000000000000000000000000000000000000000000007bffffffffffffffffffffffffffffffffffffffffffffffffffffffff19166020820180517bffffffffffffffffffffffffffffffffffffffffffffffffffffffff83818316178352505050506103bb565b5050565b60008151905060006a636f6e736f6c652e6c6f679050602083016000808483855afa5050505050565b600080fd5b6000819050919050565b6103fc816103e9565b811461040757600080fd5b50565b600081359050610419816103f3565b92915050565b600060208284031215610435576104346103e4565b5b60006104438482850161040a565b91505092915050565b600073ffffffffffffffffffffffffffffffffffffffff82169050919050565b60006104778261044c565b9050919050565b6104878161046c565b82525050565b610496816103e9565b82525050565b60006040820190506104b1600083018561047e565b6104be602083018461048d565b9392505050565b600081519050919050565b600082825260208201905092915050565b60005b838110156104ff5780820151818401526020810190506104e4565b8381111561050e576000848401525b50505050565b6000601f19601f8301169050919050565b6000610530826104c5565b61053a81856104d0565b935061054a8185602086016104e1565b61055381610514565b840191505092915050565b600060408201905081810360008301526105788185610525565b9050610587602083018461047e565b939250505056fea2646970667358221220c8bff4f3256e40e69dbcb0512cb662cf60fb9b0eb5be06c044d48f0b8c7f1f4964736f6c63430008080033",
  "linkReferences": {},
  "deployedLinkReferences": {}
}