{
  "_format": "hh-sol-artifact-1",
  "contractName": "Diamond",
  "sourceName": "contracts/Diamond.sol",
  "abi": [
    {
      "inputs": [],
      "stateMutability": "nonpayable",
      "type": "constructor"
    },
    {
      "stateMutability": "payable",
      "type": "fallback"
    },
    {
      "inputs": [
        {
          "internalType": "bytes4",
          "name": "",
          "type": "bytes4"
        }
      ],
      "name": "facetMap",
      "outputs": [
        {
          "internalType": "address",
          "name": "",
          "type": "address"
        }
      ],
      "stateMutability": "view",
      "type": "function"
    }
  ],
  "bytecode": "0x608060405234801561001057600080fd5b50600060405161001f90610a1b565b604051809103906000f08015801561003b573d6000803e3d6000fd5b509050600060405161004c90610a29565b604051809103906000f080158015610068573d6000803e3d6000fd5b509050600060405161007990610a37565b604051809103906000f080158015610095573d6000803e3d6000fd5b50905060006040516100a690610a45565b604051809103906000f0801580156100c2573d6000803e3d6000fd5b50905060006040516100d390610a53565b604051809103906000f0801580156100ef573d6000803e3d6000fd5b5090506729a2241af62c00006000600601819055506729a2241af62c0000600060070181905550600560006008018190555084600960007ffcf15741a365f7ec2d32119931b64627aa33baa2edcc45249596eef7004099487bffffffffffffffffffffffffffffffffffffffffffffffffffffffff19167bffffffffffffffffffffffffffffffffffffffffffffffffffffffff1916815260200190815260200160002060006101000a81548173ffffffffffffffffffffffffffffffffffffffff021916908373ffffffffffffffffffffffffffffffffffffffff16021790555083600960007fcdc6c28721b27827aec68f7c3f46f68375a96ee4b3e6eecbc9bd9a52478cc28e7bffffffffffffffffffffffffffffffffffffffffffffffffffffffff19167bffffffffffffffffffffffffffffffffffffffffffffffffffffffff1916815260200190815260200160002060006101000a81548173ffffffffffffffffffffffffffffffffffffffff021916908373ffffffffffffffffffffffffffffffffffffffff16021790555083600960007f2f6d5eea62bddac2ed0681e71e81323794041ae57a113968d42745754c9edd767bffffffffffffffffffffffffffffffffffffffffffffffffffffffff19167bffffffffffffffffffffffffffffffffffffffffffffffffffffffff1916815260200190815260200160002060006101000a81548173ffffffffffffffffffffffffffffffffffffffff021916908373ffffffffffffffffffffffffffffffffffffffff16021790555083600960007ffa58baee2977c95ecfe9129061718fe2d0b3b0c8004e34883d1e13b5adcd01d07bffffffffffffffffffffffffffffffffffffffffffffffffffffffff19167bffffffffffffffffffffffffffffffffffffffffffffffffffffffff1916815260200190815260200160002060006101000a81548173ffffffffffffffffffffffffffffffffffffffff021916908373ffffffffffffffffffffffffffffffffffffffff16021790555084600960007fa1a2fbae0a17348c5ad8af18f16505b0558dfa2b3a5f46633d2ff62bb5c20b8a7bffffffffffffffffffffffffffffffffffffffffffffffffffffffff19167bffffffffffffffffffffffffffffffffffffffffffffffffffffffff1916815260200190815260200160002060006101000a81548173ffffffffffffffffffffffffffffffffffffffff021916908373ffffffffffffffffffffffffffffffffffffffff16021790555081600960007f677e8bc0d6a4baa08cfd0b0ed0fc9951e6d4e79c9e6dadc7fcd113e1adf72bf77bffffffffffffffffffffffffffffffffffffffffffffffffffffffff19167bffffffffffffffffffffffffffffffffffffffffffffffffffffffff1916815260200190815260200160002060006101000a81548173ffffffffffffffffffffffffffffffffffffffff021916908373ffffffffffffffffffffffffffffffffffffffff16021790555081600960007ff3122fca312a33d91f4a5e78b0521f727f759e73e376da1da826af7b2b6439257bffffffffffffffffffffffffffffffffffffffffffffffffffffffff19167bffffffffffffffffffffffffffffffffffffffffffffffffffffffff1916815260200190815260200160002060006101000a81548173ffffffffffffffffffffffffffffffffffffffff021916908373ffffffffffffffffffffffffffffffffffffffff16021790555080600960007f88617315e0deeb23e7d03578500f832542bf71858045499af501bf8a5a7d721b7bffffffffffffffffffffffffffffffffffffffffffffffffffffffff19167bffffffffffffffffffffffffffffffffffffffffffffffffffffffff1916815260200190815260200160002060006101000a81548173ffffffffffffffffffffffffffffffffffffffff021916908373ffffffffffffffffffffffffffffffffffffffff16021790555080600960007fa0f7c55a99c0226603a59fb8c0f2511155feb1f45e668cbfc05ecec5cbc741f77bffffffffffffffffffffffffffffffffffffffffffffffffffffffff19167bffffffffffffffffffffffffffffffffffffffffffffffffffffffff1916815260200190815260200160002060006101000a81548173ffffffffffffffffffffffffffffffffffffffff021916908373ffffffffffffffffffffffffffffffffffffffff16021790555080600960007fc621955ea86e5742bb275e7d1a24d4dc11d2ef6792760ef93e954ae86aa4a66e7bffffffffffffffffffffffffffffffffffffffffffffffffffffffff19167bffffffffffffffffffffffffffffffffffffffffffffffffffffffff1916815260200190815260200160002060006101000a81548173ffffffffffffffffffffffffffffffffffffffff021916908373ffffffffffffffffffffffffffffffffffffffff16021790555082600960007f80fc9c0e3acd7f0232791a025b65a4332378f772f9132da0a90a111bc47943b27bffffffffffffffffffffffffffffffffffffffffffffffffffffffff19167bffffffffffffffffffffffffffffffffffffffffffffffffffffffff1916815260200190815260200160002060006101000a81548173ffffffffffffffffffffffffffffffffffffffff021916908373ffffffffffffffffffffffffffffffffffffffff16021790555082600960007fc36dcd7fa8f4cba3066de294f695b70784b8969e242ad83fd5308f38def4e4c77bffffffffffffffffffffffffffffffffffffffffffffffffffffffff19167bffffffffffffffffffffffffffffffffffffffffffffffffffffffff1916815260200190815260200160002060006101000a81548173ffffffffffffffffffffffffffffffffffffffff021916908373ffffffffffffffffffffffffffffffffffffffff16021790555082600960007f0e53713fc7ec119544e198edb70d87a5a97df17fc2fb5798c0d486056041cbbd7bffffffffffffffffffffffffffffffffffffffffffffffffffffffff19167bffffffffffffffffffffffffffffffffffffffffffffffffffffffff1916815260200190815260200160002060006101000a81548173ffffffffffffffffffffffffffffffffffffffff021916908373ffffffffffffffffffffffffffffffffffffffff1602179055505050505050610a61565b61554d8062000f7683390190565b611a3c80620064c383390190565b610e2f8062007eff83390190565b612d3b8062008d2e83390190565b6105e4806200ba6983390190565b6105058062000a716000396000f3fe6080604052600436106100225760003560e01c80631eb7a4ab1461019057610023565b5b60006009600080357fffffffff00000000000000000000000000000000000000000000000000000000167bffffffffffffffffffffffffffffffffffffffffffffffffffffffff19167bffffffffffffffffffffffffffffffffffffffffffffffffffffffff1916815260200190815260200160002060009054906101000a900473ffffffffffffffffffffffffffffffffffffffff169050600073ffffffffffffffffffffffffffffffffffffffff168173ffffffffffffffffffffffffffffffffffffffff16141561012c576040517f08c379a00000000000000000000000000000000000000000000000000000000081526004016101239061031f565b60405180910390fd5b61016a6040518060400160405280601a81526020017f616b6a7368646b616a6864616b6a6468616b6a6468616b646a680000000000008152506101cd565b3660008037600080366000845af43d6000803e806000811461018b573d6000f35b3d6000fd5b34801561019c57600080fd5b506101b760048036038101906101b2919061039c565b610266565b6040516101c4919061040a565b60405180910390f35b610263816040516024016101e191906104ad565b6040516020818303038152906040527f41304fac000000000000000000000000000000000000000000000000000000007bffffffffffffffffffffffffffffffffffffffffffffffffffffffff19166020820180517bffffffffffffffffffffffffffffffffffffffffffffffffffffffff8381831617835250505050610299565b50565b60096020528060005260406000206000915054906101000a900473ffffffffffffffffffffffffffffffffffffffff1681565b60008151905060006a636f6e736f6c652e6c6f679050602083016000808483855afa5050505050565b600082825260208201905092915050565b7f4661636574206e6f7420666f756e640000000000000000000000000000000000600082015250565b6000610309600f836102c2565b9150610314826102d3565b602082019050919050565b60006020820190508181036000830152610338816102fc565b9050919050565b600080fd5b60007fffffffff0000000000000000000000000000000000000000000000000000000082169050919050565b61037981610344565b811461038457600080fd5b50565b60008135905061039681610370565b92915050565b6000602082840312156103b2576103b161033f565b5b60006103c084828501610387565b91505092915050565b600073ffffffffffffffffffffffffffffffffffffffff82169050919050565b60006103f4826103c9565b9050919050565b610404816103e9565b82525050565b600060208201905061041f60008301846103fb565b92915050565b600081519050919050565b60005b8381101561044e578082015181840152602081019050610433565b8381111561045d576000848401525b50505050565b6000601f19601f8301169050919050565b600061047f82610425565b61048981856102c2565b9350610499818560208601610430565b6104a281610463565b840191505092915050565b600060208201905081810360008301526104c78184610474565b90509291505056fea2646970667358221220fae8fe053849720a7d9ae295945b162a388c7643d80d4a8fbed894b694799dc564736f6c63430008080033608060405234801561001057600080fd5b5061552d806100206000396000f3fe6080604052600436106200002c5760003560e01c8063a1a2fbae1462000031578063fcf15741146200005f575b600080fd5b3480156200003e57600080fd5b506200005d600480360381019062000057919062001ade565b62000095565b005b6200007d600480360381019062000077919062001c18565b62000df3565b6040516200008c919062001ccd565b60405180910390f35b60008060010160008373ffffffffffffffffffffffffffffffffffffffff1673ffffffffffffffffffffffffffffffffffffffff16815260200190815260200160002060009054906101000a900460ff1660ff1614156200012d576040517f08c379a0000000000000000000000000000000000000000000000000000000008152600401620001249062001d4b565b60405180910390fd5b6000819050600015158173ffffffffffffffffffffffffffffffffffffffff16634fbd39d36040518163ffffffff1660e01b815260040160206040518083038186803b1580156200017d57600080fd5b505afa15801562000192573d6000803e3d6000fd5b505050506040513d601f19601f82011682018060405250810190620001b8919062001daa565b151514620001fd576040517f08c379a0000000000000000000000000000000000000000000000000000000008152600401620001f49062001e2c565b60405180910390fd5b8073ffffffffffffffffffffffffffffffffffffffff1663603daf9a6040518163ffffffff1660e01b815260040160206040518083038186803b1580156200024457600080fd5b505afa15801562000259573d6000803e3d6000fd5b505050506040513d601f19601f820116820180604052508101906200027f919062001e65565b73ffffffffffffffffffffffffffffffffffffffff163373ffffffffffffffffffffffffffffffffffffffff1614620002ef576040517f08c379a0000000000000000000000000000000000000000000000000000000008152600401620002e69062001ee7565b60405180910390fd5b60008173ffffffffffffffffffffffffffffffffffffffff1663444066176040518163ffffffff1660e01b815260040160006040518083038186803b1580156200033857600080fd5b505afa1580156200034d573d6000803e3d6000fd5b505050506040513d6000823e3d601f19601f8201168201806040525081019062000378919062002074565b905060008273ffffffffffffffffffffffffffffffffffffffff16634117163e6040518163ffffffff1660e01b815260040160006040518083038186803b158015620003c357600080fd5b505afa158015620003d8573d6000803e3d6000fd5b505050506040513d6000823e3d601f19601f82011682018060405250810190620004039190620021b2565b905060008373ffffffffffffffffffffffffffffffffffffffff1663603daf9a6040518163ffffffff1660e01b815260040160206040518083038186803b1580156200044e57600080fd5b505afa15801562000463573d6000803e3d6000fd5b505050506040513d601f19601f8201168201806040525081019062000489919062001e65565b9050600080600080620004d16040518060400160405280601081526020017f696e7369646520706179206f726465720000000000000000000000000000000081525062001319565b60005b8751811015620007ad576000888281518110620004f657620004f562002203565b5b60200260200101519050600081905060008b73ffffffffffffffffffffffffffffffffffffffff1663cabdba5b846040518263ffffffff1660e01b815260040162000542919062001ccd565b60206040518083038186803b1580156200055b57600080fd5b505afa15801562000570573d6000803e3d6000fd5b505050506040513d601f19601f8201168201806040525081019062000596919062002232565b905060008a8581518110620005b057620005af62002203565b5b6020026020010151905060006006015481620005cd919062002293565b88620005da9190620022f4565b9750606460006008015483620005f1919062002293565b620005fd919062002380565b816200060a919062002293565b87620006179190620022f4565b9650600060070154816200062c919062002293565b86620006399190620022f4565b9550600082826200064b919062002293565b905060008473ffffffffffffffffffffffffffffffffffffffff1663dbd0e1b66040518163ffffffff1660e01b815260040160206040518083038186803b1580156200069657600080fd5b505afa158015620006ab573d6000803e3d6000fd5b505050506040513d601f19601f82011682018060405250810190620006d1919062001e65565b73ffffffffffffffffffffffffffffffffffffffff1682604051620006f690620023ed565b60006040518083038185875af1925050503d806000811462000735576040519150601f19603f3d011682016040523d82523d6000602084013e6200073a565b606091505b505090508062000781576040517f08c379a0000000000000000000000000000000000000000000000000000000008152600401620007789062002454565b60405180910390fd5b818b6200078f9190620022f4565b9a505050505050508080620007a49062002476565b915050620004d4565b50620007ee6040518060400160405280600b81526020017f53656c6c6572205061696400000000000000000000000000000000000000000081525062001319565b620007f984620013b6565b60008873ffffffffffffffffffffffffffffffffffffffff166343c97c846040518163ffffffff1660e01b815260040160206040518083038186803b1580156200084257600080fd5b505afa15801562000857573d6000803e3d6000fd5b505050506040513d601f19601f820116820180604052508101906200087d919062001e65565b73ffffffffffffffffffffffffffffffffffffffff1684604051620008a290620023ed565b60006040518083038185875af1925050503d8060008114620008e1576040519150601f19603f3d011682016040523d82523d6000602084013e620008e6565b606091505b50509050806200092d576040517f08c379a0000000000000000000000000000000000000000000000000000000008152600401620009249062002514565b60405180910390fd5b6200096e6040518060400160405280601381526020017f64656c69766572796d616e2050616964203a20000000000000000000000000008152508562001453565b8873ffffffffffffffffffffffffffffffffffffffff1663ccd44ccf60016040518263ffffffff1660e01b8152600401620009aa919062002547565b600060405180830381600087803b158015620009c557600080fd5b505af1158015620009da573d6000803e3d6000fd5b505050506000838587620009ef9190620022f4565b620009fb9190620022f4565b8a73ffffffffffffffffffffffffffffffffffffffff16630a9076866040518163ffffffff1660e01b815260040160206040518083038186803b15801562000a4257600080fd5b505afa15801562000a57573d6000803e3d6000fd5b505050506040513d601f19601f8201168201806040525081019062000a7d919062002232565b62000a89919062002564565b905060008a73ffffffffffffffffffffffffffffffffffffffff1663603daf9a6040518163ffffffff1660e01b815260040160206040518083038186803b15801562000ad457600080fd5b505afa15801562000ae9573d6000803e3d6000fd5b505050506040513d601f19601f8201168201806040525081019062000b0f919062001e65565b73ffffffffffffffffffffffffffffffffffffffff168260405162000b3490620023ed565b60006040518083038185875af1925050503d806000811462000b73576040519150601f19603f3d011682016040523d82523d6000602084013e62000b78565b606091505b505090508062000bbf576040517f08c379a000000000000000000000000000000000000000000000000000000000815260040162000bb690620025ef565b60405180910390fd5b62000bff6040518060400160405280601281526020017f726566756e64656420746f20627579657220000000000000000000000000000081525062001319565b62000c0a82620013b6565b8a73ffffffffffffffffffffffffffffffffffffffff166311b34c5a60016040518263ffffffff1660e01b815260040162000c46919062002547565b600060405180830381600087803b15801562000c6157600080fd5b505af115801562000c76573d6000803e3d6000fd5b505050508a73ffffffffffffffffffffffffffffffffffffffff1663acf4ede0836040518263ffffffff1660e01b815260040162000cb5919062002622565b600060405180830381600087803b15801562000cd057600080fd5b505af115801562000ce5573d6000803e3d6000fd5b5050505060005b8a518163ffffffff16101562000daa5760008b8263ffffffff168151811062000d1a5762000d1962002203565b5b602002602001015190508073ffffffffffffffffffffffffffffffffffffffff1663317c99848b6040518263ffffffff1660e01b815260040162000d5f919062001ccd565b600060405180830381600087803b15801562000d7a57600080fd5b505af115801562000d8f573d6000803e3d6000fd5b5050505050808062000da1906200264f565b91505062000cec565b507fcb0bc61b2b12eb59f1ea69658a099061318800bfa027a18071aacaaceda48081600160405162000ddd919062002547565b60405180910390a1505050505050505050505050565b60008060008062000e0789898989620014f3565b92509250925062000e1883620013b6565b8234101562000e5e576040517f08c379a000000000000000000000000000000000000000000000000000000000815260040162000e5590620026d1565b60405180910390fd5b6000338a8a8a8a3089348a8a60405162000e789062001a57565b62000e8d9a999897969594939291906200290d565b604051809103906000f08015801562000eaa573d6000803e3d6000fd5b5090506001600060010160008373ffffffffffffffffffffffffffffffffffffffff1673ffffffffffffffffffffffffffffffffffffffff16815260200190815260200160002060006101000a81548160ff021916908360ff16021790555062000f4a6040518060400160405280600e81526020017f4f72646572206164647265737320000000000000000000000000000000000000815250826200198e565b62000f8b6040518060400160405280601481526020017f4f7264657220544f54414c2050415941424c45200000000000000000000000008152508562001453565b60005b8a8a90508163ffffffff161015620011505760008b8b8363ffffffff1681811062000fbe5762000fbd62002203565b5b905060200201602081019062000fd5919062001ade565b73ffffffffffffffffffffffffffffffffffffffff16838b8b8563ffffffff1681811062001008576200100762002203565b5b905060200201356040516024016200102292919062002a26565b6040516020818303038152906040527fdb6a3652000000000000000000000000000000000000000000000000000000007bffffffffffffffffffffffffffffffffffffffffffffffffffffffff19166020820180517bffffffffffffffffffffffffffffffffffffffffffffffffffffffff8381831617835250505050604051620010ae919062002acb565b6000604051808303816000865af19150503d8060008114620010ed576040519150601f19603f3d011682016040523d82523d6000602084013e620010f2565b606091505b505090508062001139576040517f08c379a0000000000000000000000000000000000000000000000000000000008152600401620011309062002b5a565b60405180910390fd5b50808062001147906200264f565b91505062000f8e565b5060005b8a8a9050811015620012cd5760008b8b8381811062001178576200117762002203565b5b90506020020160208101906200118f919062001ade565b9050600081905060008b8b85818110620011ae57620011ad62002203565b5b9050602002013590508173ffffffffffffffffffffffffffffffffffffffff166317fa1f47828473ffffffffffffffffffffffffffffffffffffffff16630115949c6040518163ffffffff1660e01b815260040160206040518083038186803b1580156200121b57600080fd5b505afa15801562001230573d6000803e3d6000fd5b505050506040513d601f19601f8201168201806040525081019062001256919062002232565b62001262919062002564565b6040518263ffffffff1660e01b815260040162001280919062002622565b600060405180830381600087803b1580156200129b57600080fd5b505af1158015620012b0573d6000803e3d6000fd5b505050505050508080620012c49062002476565b91505062001154565b507f5a3e025ad8b0ffc3940134b57218ebd90cfa0ed8a0ec0fdd53be572c480cf2cd81876040516200130192919062002b7c565b60405180910390a18094505050505095945050505050565b620013b38160405160240162001330919062002bf5565b6040516020818303038152906040527f41304fac000000000000000000000000000000000000000000000000000000007bffffffffffffffffffffffffffffffffffffffffffffffffffffffff19166020820180517bffffffffffffffffffffffffffffffffffffffffffffffffffffffff838183161783525050505062001a2e565b50565b6200145081604051602401620013cd919062002622565b6040516020818303038152906040527ff5b1bba9000000000000000000000000000000000000000000000000000000007bffffffffffffffffffffffffffffffffffffffffffffffffffffffff19166020820180517bffffffffffffffffffffffffffffffffffffffffffffffffffffffff838183161783525050505062001a2e565b50565b620014ef82826040516024016200146c92919062002c19565b6040516020818303038152906040527f9710a9d0000000000000000000000000000000000000000000000000000000007bffffffffffffffffffffffffffffffffffffffffffffffffffffffff19166020820180517bffffffffffffffffffffffffffffffffffffffffffffffffffffffff838183161783525050505062001a2e565b5050565b600060608084849050878790501462001543576040517f08c379a00000000000000000000000000000000000000000000000000000000081526004016200153a9062002c9d565b60405180910390fd5b6000806000806009819055506000808b8b905067ffffffffffffffff81111562001572576200157162001f1a565b5b604051908082528060200260200182016040528015620015a15781602001602082028036833780820191505090505b50905060008c8c905067ffffffffffffffff811115620015c657620015c562001f1a565b5b604051908082528060200260200182016040528015620015f55781602001602082028036833780820191505090505b50905060005b8d8d9050811015620019745760008e8e838181106200161f576200161e62002203565b5b905060200201602081019062001636919062001ade565b905060008060020160008373ffffffffffffffffffffffffffffffffffffffff1673ffffffffffffffffffffffffffffffffffffffff16815260200190815260200160002060009054906101000a900460ff1660ff161415620016d0576040517f08c379a0000000000000000000000000000000000000000000000000000000008152600401620016c79062002d0f565b60405180910390fd5b600081905060008e8e85818110620016ed57620016ec62002203565b5b905060200201359050808273ffffffffffffffffffffffffffffffffffffffff16630115949c6040518163ffffffff1660e01b815260040160206040518083038186803b1580156200173e57600080fd5b505afa15801562001753573d6000803e3d6000fd5b505050506040513d601f19601f8201168201806040525081019062001779919062002232565b1015620017bd576040517f08c379a0000000000000000000000000000000000000000000000000000000008152600401620017b49062002da7565b60405180910390fd5b8173ffffffffffffffffffffffffffffffffffffffff166398d5fdca6040518163ffffffff1660e01b815260040160206040518083038186803b1580156200180457600080fd5b505afa15801562001819573d6000803e3d6000fd5b505050506040513d601f19601f820116820180604052508101906200183f919062002232565b86858151811062001855576200185462002203565b5b6020026020010181815250508173ffffffffffffffffffffffffffffffffffffffff166384aa33656040518163ffffffff1660e01b815260040160206040518083038186803b158015620018a857600080fd5b505afa158015620018bd573d6000803e3d6000fd5b505050506040513d601f19601f82011682018060405250810190620018e3919062002232565b858581518110620018f957620018f862002203565b5b6020026020010181815250508e8e858181106200191b576200191a62002203565b5b9050602002013585858151811062001938576200193762002203565b5b60200260200101516200194c919062002293565b87620019599190620022f4565b965050505080806200196b9062002476565b915050620015fb565b508282829850985098505050505050509450945094915050565b62001a2a8282604051602401620019a792919062002dc9565b6040516020818303038152906040527f319af333000000000000000000000000000000000000000000000000000000007bffffffffffffffffffffffffffffffffffffffffffffffffffffffff19166020820180517bffffffffffffffffffffffffffffffffffffffffffffffffffffffff838183161783525050505062001a2e565b5050565b60008151905060006a636f6e736f6c652e6c6f679050602083016000808483855afa5050505050565b6126fa8062002dfe83390190565b6000604051905090565b600080fd5b600080fd5b600073ffffffffffffffffffffffffffffffffffffffff82169050919050565b600062001aa68262001a79565b9050919050565b62001ab88162001a99565b811462001ac457600080fd5b50565b60008135905062001ad88162001aad565b92915050565b60006020828403121562001af75762001af662001a6f565b5b600062001b078482850162001ac7565b91505092915050565b600080fd5b600080fd5b600080fd5b60008083601f84011262001b385762001b3762001b10565b5b8235905067ffffffffffffffff81111562001b585762001b5762001b15565b5b60208301915083602082028301111562001b775762001b7662001b1a565b5b9250929050565b60008083601f84011262001b975762001b9662001b10565b5b8235905067ffffffffffffffff81111562001bb75762001bb662001b15565b5b60208301915083602082028301111562001bd65762001bd562001b1a565b5b9250929050565b6000819050919050565b62001bf28162001bdd565b811462001bfe57600080fd5b50565b60008135905062001c128162001be7565b92915050565b60008060008060006060868803121562001c375762001c3662001a6f565b5b600086013567ffffffffffffffff81111562001c585762001c5762001a74565b5b62001c668882890162001b1f565b9550955050602086013567ffffffffffffffff81111562001c8c5762001c8b62001a74565b5b62001c9a8882890162001b7e565b9350935050604062001caf8882890162001c01565b9150509295509295909350565b62001cc78162001a99565b82525050565b600060208201905062001ce4600083018462001cbc565b92915050565b600082825260208201905092915050565b7f496e76616c6964206f7264657200000000000000000000000000000000000000600082015250565b600062001d33600d8362001cea565b915062001d408262001cfb565b602082019050919050565b6000602082019050818103600083015262001d668162001d24565b9050919050565b60008115159050919050565b62001d848162001d6d565b811462001d9057600080fd5b50565b60008151905062001da48162001d79565b92915050565b60006020828403121562001dc35762001dc262001a6f565b5b600062001dd38482850162001d93565b91505092915050565b7f416c726561647920506169640000000000000000000000000000000000000000600082015250565b600062001e14600c8362001cea565b915062001e218262001ddc565b602082019050919050565b6000602082019050818103600083015262001e478162001e05565b9050919050565b60008151905062001e5f8162001aad565b92915050565b60006020828403121562001e7e5762001e7d62001a6f565b5b600062001e8e8482850162001e4e565b91505092915050565b7f4f6e6c79207468652062757965722063616e20706179207468652062696c6c00600082015250565b600062001ecf601f8362001cea565b915062001edc8262001e97565b602082019050919050565b6000602082019050818103600083015262001f028162001ec0565b9050919050565b6000601f19601f8301169050919050565b7f4e487b7100000000000000000000000000000000000000000000000000000000600052604160045260246000fd5b62001f548262001f09565b810181811067ffffffffffffffff8211171562001f765762001f7562001f1a565b5b80604052505050565b600062001f8b62001a65565b905062001f99828262001f49565b919050565b600067ffffffffffffffff82111562001fbc5762001fbb62001f1a565b5b602082029050602081019050919050565b600062001fe462001fde8462001f9e565b62001f7f565b905080838252602082019050602084028301858111156200200a576200200962001b1a565b5b835b8181101562002037578062002022888262001e4e565b8452602084019350506020810190506200200c565b5050509392505050565b600082601f83011262002059576200205862001b10565b5b81516200206b84826020860162001fcd565b91505092915050565b6000602082840312156200208d576200208c62001a6f565b5b600082015167ffffffffffffffff811115620020ae57620020ad62001a74565b5b620020bc8482850162002041565b91505092915050565b600067ffffffffffffffff821115620020e357620020e262001f1a565b5b602082029050602081019050919050565b600081519050620021058162001be7565b92915050565b6000620021226200211c84620020c5565b62001f7f565b9050808382526020820190506020840283018581111562002148576200214762001b1a565b5b835b81811015620021755780620021608882620020f4565b8452602084019350506020810190506200214a565b5050509392505050565b600082601f83011262002197576200219662001b10565b5b8151620021a98482602086016200210b565b91505092915050565b600060208284031215620021cb57620021ca62001a6f565b5b600082015167ffffffffffffffff811115620021ec57620021eb62001a74565b5b620021fa848285016200217f565b91505092915050565b7f4e487b7100000000000000000000000000000000000000000000000000000000600052603260045260246000fd5b6000602082840312156200224b576200224a62001a6f565b5b60006200225b84828501620020f4565b91505092915050565b7f4e487b7100000000000000000000000000000000000000000000000000000000600052601160045260246000fd5b6000620022a08262001bdd565b9150620022ad8362001bdd565b9250817fffffffffffffffffffffffffffffffffffffffffffffffffffffffffffffffff0483118215151615620022e957620022e862002264565b5b828202905092915050565b6000620023018262001bdd565b91506200230e8362001bdd565b9250827fffffffffffffffffffffffffffffffffffffffffffffffffffffffffffffffff0382111562002346576200234562002264565b5b828201905092915050565b7f4e487b7100000000000000000000000000000000000000000000000000000000600052601260045260246000fd5b60006200238d8262001bdd565b91506200239a8362001bdd565b925082620023ad57620023ac62002351565b5b828204905092915050565b600081905092915050565b50565b6000620023d5600083620023b8565b9150620023e282620023c3565b600082019050919050565b6000620023fa82620023c6565b9150819050919050565b7f53656c6c65722046756e64205472616e7361666572204661696c656421210000600082015250565b60006200243c601e8362001cea565b9150620024498262002404565b602082019050919050565b600060208201905081810360008301526200246f816200242d565b9050919050565b6000620024838262001bdd565b91507fffffffffffffffffffffffffffffffffffffffffffffffffffffffffffffffff821415620024b957620024b862002264565b5b600182019050919050565b7f44656c6976657279204d616e205472616e7361666572204661696c6564212100600082015250565b6000620024fc601f8362001cea565b91506200250982620024c4565b602082019050919050565b600060208201905081810360008301526200252f81620024ed565b9050919050565b620025418162001d6d565b82525050565b60006020820190506200255e600083018462002536565b92915050565b6000620025718262001bdd565b91506200257e8362001bdd565b92508282101562002594576200259362002264565b5b828203905092915050565b7f526566756e64204661696c656400000000000000000000000000000000000000600082015250565b6000620025d7600d8362001cea565b9150620025e4826200259f565b602082019050919050565b600060208201905081810360008301526200260a81620025c8565b9050919050565b6200261c8162001bdd565b82525050565b600060208201905062002639600083018462002611565b92915050565b600063ffffffff82169050919050565b60006200265c826200263f565b915063ffffffff82141562002676576200267562002264565b5b600182019050919050565b7f596f75206e65656420746f207370656e64206d6f726520455448210000000000600082015250565b6000620026b9601b8362001cea565b9150620026c68262002681565b602082019050919050565b60006020820190508181036000830152620026ec81620026aa565b9050919050565b600082825260208201905092915050565b6000819050919050565b620027198162001a99565b82525050565b60006200272d83836200270e565b60208301905092915050565b60006200274a602084018462001ac7565b905092915050565b6000602082019050919050565b60006200276d8385620026f3565b93506200277a8262002704565b8060005b85811015620027bb5762002793828462002739565b6200279f88826200271f565b9750620027ac8362002752565b9250506001810190506200277e565b5085925050509392505050565b600082825260208201905092915050565b600080fd5b82818337600083830152505050565b6000620027fb8385620027c8565b93507f07ffffffffffffffffffffffffffffffffffffffffffffffffffffffffffffff831115620028315762002830620027d9565b5b60208302925062002844838584620027de565b82840190509392505050565b600081519050919050565b6000819050602082019050919050565b620028768162001bdd565b82525050565b60006200288a83836200286b565b60208301905092915050565b6000602082019050919050565b6000620028b08262002850565b620028bc8185620027c8565b9350620028c9836200285b565b8060005b8381101562002900578151620028e488826200287c565b9750620028f18362002896565b925050600181019050620028cd565b5085935050505092915050565b60006101008201905062002925600083018d62001cbc565b81810360208301526200293a818b8d6200275f565b905081810360408301526200295181898b620027ed565b905062002962606083018862001cbc565b62002971608083018762002611565b6200298060a083018662002611565b81810360c0830152620029948185620028a3565b905081810360e0830152620029aa8184620028a3565b90509b9a5050505050505050505050565b6000819050919050565b6000620029e6620029e0620029da8462001a79565b620029bb565b62001a79565b9050919050565b6000620029fa82620029c5565b9050919050565b600062002a0e82620029ed565b9050919050565b62002a208162002a01565b82525050565b600060408201905062002a3d600083018562002a15565b62002a4c602083018462002611565b9392505050565b600081519050919050565b60005b8381101562002a7e57808201518184015260208101905062002a61565b8381111562002a8e576000848401525b50505050565b600062002aa18262002a53565b62002aad8185620023b8565b935062002abf81856020860162002a5e565b80840191505092915050565b600062002ad9828462002a94565b915081905092915050565b7f4f7264657220616464656420746f2050726f647563747320697320554e53554360008201527f4345535346554c21212066726f6d2045436d61727420636f6e74726163740000602082015250565b600062002b42603e8362001cea565b915062002b4f8262002ae4565b604082019050919050565b6000602082019050818103600083015262002b758162002b33565b9050919050565b600060408201905062002b93600083018562001cbc565b62002ba2602083018462002611565b9392505050565b600081519050919050565b600062002bc18262002ba9565b62002bcd818562001cea565b935062002bdf81856020860162002a5e565b62002bea8162001f09565b840191505092915050565b6000602082019050818103600083015262002c11818462002bb4565b905092915050565b6000604082019050818103600083015262002c35818562002bb4565b905062002c46602083018462002611565b9392505050565b7f417272617973206d7573742068617665207468652073616d65206c656e677468600082015250565b600062002c8560208362001cea565b915062002c928262002c4d565b602082019050919050565b6000602082019050818103600083015262002cb88162002c76565b9050919050565b7f50726f6475637420646f65736e27742065786973740000000000000000000000600082015250565b600062002cf760158362001cea565b915062002d048262002cbf565b602082019050919050565b6000602082019050818103600083015262002d2a8162002ce8565b9050919050565b7f50726f6475637420696e76656e746f7279206973206e6f74205375666669636960008201527f656e740000000000000000000000000000000000000000000000000000000000602082015250565b600062002d8f60238362001cea565b915062002d9c8262002d31565b604082019050919050565b6000602082019050818103600083015262002dc28162002d80565b9050919050565b6000604082019050818103600083015262002de5818562002bb4565b905062002df6602083018462001cbc565b939250505056fe60806040526000601060006101000a81548160ff0219169083151502179055506000601260006101000a81548160ff0219169083151502179055506000601460006101000a81548160ff0219169083151502179055503480156200006257600080fd5b50604051620026fa380380620026fa83398181016040528101906200008891906200078f565b8551875114620000cf576040517f08c379a0000000000000000000000000000000000000000000000000000000008152600401620000c69062000935565b60405180910390fd5b84600260006101000a81548173ffffffffffffffffffffffffffffffffffffffff021916908373ffffffffffffffffffffffffffffffffffffffff16021790555042600f81905550876000806101000a81548173ffffffffffffffffffffffffffffffffffffffff021916908373ffffffffffffffffffffffffffffffffffffffff16021790555086600490805190602001906200016f92919062000390565b508560059080519060200190620001889291906200041f565b508160069080519060200190620001a19291906200041f565b508060079080519060200190620001ba9291906200041f565b5083601181905550826003819055506001601060006101000a81548160ff02191690831515021790555060005b8751811015620003815786818151811062000207576200020662000957565b5b6020026020010151600a60008a848151811062000229576200022862000957565b5b602002602001015173ffffffffffffffffffffffffffffffffffffffff1673ffffffffffffffffffffffffffffffffffffffff1681526020019081526020016000208190555082818151811062000285576200028462000957565b5b6020026020010151600b60008a8481518110620002a757620002a662000957565b5b602002602001015173ffffffffffffffffffffffffffffffffffffffff1673ffffffffffffffffffffffffffffffffffffffff1681526020019081526020016000208190555081818151811062000303576200030262000957565b5b6020026020010151600c60008a848151811062000325576200032462000957565b5b602002602001015173ffffffffffffffffffffffffffffffffffffffff1673ffffffffffffffffffffffffffffffffffffffff1681526020019081526020016000208190555080806200037890620009b5565b915050620001e7565b50505050505050505062000a03565b8280548282559060005260206000209081019282156200040c579160200282015b828111156200040b5782518260006101000a81548173ffffffffffffffffffffffffffffffffffffffff021916908373ffffffffffffffffffffffffffffffffffffffff16021790555091602001919060010190620003b1565b5b5090506200041b919062000471565b5090565b8280548282559060005260206000209081019282156200045e579160200282015b828111156200045d57825182559160200191906001019062000440565b5b5090506200046d919062000471565b5090565b5b808211156200048c57600081600090555060010162000472565b5090565b6000604051905090565b600080fd5b600080fd5b600073ffffffffffffffffffffffffffffffffffffffff82169050919050565b6000620004d182620004a4565b9050919050565b620004e381620004c4565b8114620004ef57600080fd5b50565b6000815190506200050381620004d8565b92915050565b600080fd5b6000601f19601f8301169050919050565b7f4e487b7100000000000000000000000000000000000000000000000000000000600052604160045260246000fd5b62000559826200050e565b810181811067ffffffffffffffff821117156200057b576200057a6200051f565b5b80604052505050565b60006200059062000490565b90506200059e82826200054e565b919050565b600067ffffffffffffffff821115620005c157620005c06200051f565b5b602082029050602081019050919050565b600080fd5b6000620005ee620005e884620005a3565b62000584565b90508083825260208201905060208402830185811115620006145762000613620005d2565b5b835b818110156200064157806200062c8882620004f2565b84526020840193505060208101905062000616565b5050509392505050565b600082601f83011262000663576200066262000509565b5b815162000675848260208601620005d7565b91505092915050565b600067ffffffffffffffff8211156200069c576200069b6200051f565b5b602082029050602081019050919050565b6000819050919050565b620006c281620006ad565b8114620006ce57600080fd5b50565b600081519050620006e281620006b7565b92915050565b6000620006ff620006f9846200067e565b62000584565b90508083825260208201905060208402830185811115620007255762000724620005d2565b5b835b818110156200075257806200073d8882620006d1565b84526020840193505060208101905062000727565b5050509392505050565b600082601f83011262000774576200077362000509565b5b815162000786848260208601620006e8565b91505092915050565b600080600080600080600080610100898b031215620007b357620007b26200049a565b5b6000620007c38b828c01620004f2565b985050602089015167ffffffffffffffff811115620007e757620007e66200049f565b5b620007f58b828c016200064b565b975050604089015167ffffffffffffffff8111156200081957620008186200049f565b5b620008278b828c016200075c565b96505060606200083a8b828c01620004f2565b95505060806200084d8b828c01620006d1565b94505060a0620008608b828c01620006d1565b93505060c089015167ffffffffffffffff8111156200088457620008836200049f565b5b620008928b828c016200075c565b92505060e089015167ffffffffffffffff811115620008b657620008b56200049f565b5b620008c48b828c016200075c565b9150509295985092959890939650565b600082825260208201905092915050565b7f417272617973206d7573742068617665207468652073616d65206c656e677468600082015250565b60006200091d602083620008d4565b91506200092a82620008e5565b602082019050919050565b6000602082019050818103600083015262000950816200090e565b9050919050565b7f4e487b7100000000000000000000000000000000000000000000000000000000600052603260045260246000fd5b7f4e487b7100000000000000000000000000000000000000000000000000000000600052601160045260246000fd5b6000620009c282620006ad565b91507fffffffffffffffffffffffffffffffffffffffffffffffffffffffffffffffff821415620009f857620009f762000986565b5b600182019050919050565b611ce78062000a136000396000f3fe608060405234801561001057600080fd5b50600436106101f05760003560e01c80638da5cb5b1161010f578063c46dacd9116100a2578063ccd44ccf11610071578063ccd44ccf1461057d578063d2cf4be214610599578063eea1ea73146105c9578063fb24359f146105e7576101f0565b8063c46dacd9146104f3578063c741a8dd14610511578063cabdba5b1461052f578063ccd2f89f1461055f576101f0565b8063ad7c6ed1116100de578063ad7c6ed114610459578063ae48908214610477578063bc7ae422146104a7578063bdb92074146104d7576101f0565b80638da5cb5b146103e5578063a71494f114610403578063ab3cb34c14610421578063acf4ede01461043d576101f0565b80634440661711610187578063765f744c11610156578063765f744c1461036d57806377432ac61461038b578063779cd083146103a95780637aada134146103c7576101f0565b806344406617146102f55780634fbd39d314610313578063603daf9a146103315780637150d8ae1461034f576101f0565b8063209ebc08116101c3578063209ebc081461027d5780633095114c1461029b5780634117163e146102b957806343c97c84146102d7576101f0565b80630a907686146101f557806311b34c5a14610213578063141c08c21461022f578063200d2ed21461025f575b600080fd5b6101fd610605565b60405161020a9190611408565b60405180910390f35b61022d6004803603810190610228919061146f565b61060f565b005b610249600480360381019061024491906114c8565b6106bc565b6040516102569190611408565b60405180910390f35b6102676106e0565b6040516102749190611514565b60405180910390f35b6102856106f6565b604051610292919061153e565b60405180910390f35b6102a3610709565b6040516102b0919061159a565b60405180910390f35b6102c161072f565b6040516102ce9190611673565b60405180910390f35b6102df610787565b6040516102ec919061159a565b60405180910390f35b6102fd6107b1565b60405161030a9190611753565b60405180910390f35b61031b61083f565b604051610328919061153e565b60405180910390f35b610339610856565b604051610346919061159a565b60405180910390f35b61035761087f565b604051610364919061159a565b60405180910390f35b6103756108a3565b604051610382919061153e565b60405180910390f35b6103936108b6565b6040516103a09190611408565b60405180910390f35b6103b16108bc565b6040516103be919061153e565b60405180910390f35b6103cf6108cf565b6040516103dc9190611408565b60405180910390f35b6103ed6108d5565b6040516103fa919061159a565b60405180910390f35b61040b6108fb565b6040516104189190611408565b60405180910390f35b61043b600480360381019061043691906117a1565b610901565b005b610457600480360381019061045291906114c8565b6109d5565b005b610461610a6f565b60405161046e9190611408565b60405180910390f35b610491600480360381019061048c91906114c8565b610a75565b60405161049e919061159a565b60405180910390f35b6104c160048036038101906104bc91906114c8565b610ab4565b6040516104ce9190611408565b60405180910390f35b6104f160048036038101906104ec91906119ea565b610ad8565b005b6104fb610dab565b6040516105089190611673565b60405180910390f35b610519610e03565b6040516105269190611673565b60405180910390f35b610549600480360381019061054491906117a1565b610eeb565b6040516105569190611408565b60405180910390f35b610567610fc4565b6040516105749190611673565b60405180910390f35b6105976004803603810190610592919061146f565b61101c565b005b6105b360048036038101906105ae91906114c8565b6110c9565b6040516105c0919061159a565b60405180910390f35b6105d1611108565b6040516105de9190611408565b60405180910390f35b6105ef611112565b6040516105fc9190611753565b60405180910390f35b6000600354905090565b600260009054906101000a900473ffffffffffffffffffffffffffffffffffffffff1673ffffffffffffffffffffffffffffffffffffffff163373ffffffffffffffffffffffffffffffffffffffff161461069f576040517f08c379a000000000000000000000000000000000000000000000000000000000815260040161069690611abf565b60405180910390fd5b80601260006101000a81548160ff02191690831515021790555050565b600981815481106106cc57600080fd5b906000526020600020016000915090505481565b600e60009054906101000a900463ffffffff1681565b601060009054906101000a900460ff1681565b600160009054906101000a900473ffffffffffffffffffffffffffffffffffffffff1681565b6060600980548060200260200160405190810160405280929190818152602001828054801561077d57602002820191906000526020600020905b815481526020019060010190808311610769575b5050505050905090565b6000600160009054906101000a900473ffffffffffffffffffffffffffffffffffffffff16905090565b6060600880548060200260200160405190810160405280929190818152602001828054801561083557602002820191906000526020600020905b8160009054906101000a900473ffffffffffffffffffffffffffffffffffffffff1673ffffffffffffffffffffffffffffffffffffffff16815260200190600101908083116107eb575b5050505050905090565b6000601460009054906101000a900460ff16905090565b60008060009054906101000a900473ffffffffffffffffffffffffffffffffffffffff16905090565b60008054906101000a900473ffffffffffffffffffffffffffffffffffffffff1681565b601460009054906101000a900460ff1681565b60115481565b601260009054906101000a900460ff1681565b600f5481565b600260009054906101000a900473ffffffffffffffffffffffffffffffffffffffff1681565b60035481565b600260009054906101000a900473ffffffffffffffffffffffffffffffffffffffff1673ffffffffffffffffffffffffffffffffffffffff163373ffffffffffffffffffffffffffffffffffffffff1614610991576040517f08c379a000000000000000000000000000000000000000000000000000000000815260040161098890611abf565b60405180910390fd5b80600160006101000a81548173ffffffffffffffffffffffffffffffffffffffff021916908373ffffffffffffffffffffffffffffffffffffffff16021790555050565b600260009054906101000a900473ffffffffffffffffffffffffffffffffffffffff1673ffffffffffffffffffffffffffffffffffffffff163373ffffffffffffffffffffffffffffffffffffffff1614610a65576040517f08c379a0000000000000000000000000000000000000000000000000000000008152600401610a5c90611abf565b60405180910390fd5b8060138190555050565b60135481565b60048181548110610a8557600080fd5b906000526020600020016000915054906101000a900473ffffffffffffffffffffffffffffffffffffffff1681565b60058181548110610ac457600080fd5b906000526020600020016000915090505481565b600260009054906101000a900473ffffffffffffffffffffffffffffffffffffffff1673ffffffffffffffffffffffffffffffffffffffff163373ffffffffffffffffffffffffffffffffffffffff1614610b68576040517f08c379a0000000000000000000000000000000000000000000000000000000008152600401610b5f90611abf565b60405180910390fd5b610ba66040518060400160405280601881526020017f46726f6d2044656c6976657279202d2d2d2d2d2d2d2d2d2d00000000000000008152506111a0565b60005b8251811015610d7857610c14600a6000858481518110610bcc57610bcb611adf565b5b602002602001015173ffffffffffffffffffffffffffffffffffffffff1673ffffffffffffffffffffffffffffffffffffffff16815260200190815260200160002054611239565b610c37828281518110610c2a57610c29611adf565b5b6020026020010151611239565b818181518110610c4a57610c49611adf565b5b6020026020010151600a6000858481518110610c6957610c68611adf565b5b602002602001015173ffffffffffffffffffffffffffffffffffffffff1673ffffffffffffffffffffffffffffffffffffffff168152602001908152602001600020541015610ced576040517f08c379a0000000000000000000000000000000000000000000000000000000008152600401610ce490611b80565b60405180910390fd5b818181518110610d0057610cff611adf565b5b6020026020010151600d6000858481518110610d1f57610d1e611adf565b5b602002602001015173ffffffffffffffffffffffffffffffffffffffff1673ffffffffffffffffffffffffffffffffffffffff168152602001908152602001600020819055508080610d7090611bcf565b915050610ba9565b508160089080519060200190610d8f9291906112fb565b508060099080519060200190610da6929190611385565b505050565b60606005805480602002602001604051908101604052809291908181526020018280548015610df957602002820191906000526020600020905b815481526020019060010190808311610de5575b5050505050905090565b6060600260009054906101000a900473ffffffffffffffffffffffffffffffffffffffff1673ffffffffffffffffffffffffffffffffffffffff163373ffffffffffffffffffffffffffffffffffffffff1614610e95576040517f08c379a0000000000000000000000000000000000000000000000000000000008152600401610e8c90611abf565b60405180910390fd5b6006805480602002602001604051908101604052809291908181526020018280548015610ee157602002820191906000526020600020905b815481526020019060010190808311610ecd575b5050505050905090565b6000600260009054906101000a900473ffffffffffffffffffffffffffffffffffffffff1673ffffffffffffffffffffffffffffffffffffffff163373ffffffffffffffffffffffffffffffffffffffff1614610f7d576040517f08c379a0000000000000000000000000000000000000000000000000000000008152600401610f7490611abf565b60405180910390fd5b600b60008373ffffffffffffffffffffffffffffffffffffffff1673ffffffffffffffffffffffffffffffffffffffff168152602001908152602001600020549050919050565b6060600780548060200260200160405190810160405280929190818152602001828054801561101257602002820191906000526020600020905b815481526020019060010190808311610ffe575b5050505050905090565b600260009054906101000a900473ffffffffffffffffffffffffffffffffffffffff1673ffffffffffffffffffffffffffffffffffffffff163373ffffffffffffffffffffffffffffffffffffffff16146110ac576040517f08c379a00000000000000000000000000000000000000000000000000000000081526004016110a390611abf565b60405180910390fd5b80601460006101000a81548160ff02191690831515021790555050565b600881815481106110d957600080fd5b906000526020600020016000915054906101000a900473ffffffffffffffffffffffffffffffffffffffff1681565b6000601154905090565b6060600480548060200260200160405190810160405280929190818152602001828054801561119657602002820191906000526020600020905b8160009054906101000a900473ffffffffffffffffffffffffffffffffffffffff1673ffffffffffffffffffffffffffffffffffffffff168152602001906001019080831161114c575b5050505050905090565b611236816040516024016111b49190611c8f565b6040516020818303038152906040527f41304fac000000000000000000000000000000000000000000000000000000007bffffffffffffffffffffffffffffffffffffffffffffffffffffffff19166020820180517bffffffffffffffffffffffffffffffffffffffffffffffffffffffff83818316178352505050506112d2565b50565b6112cf8160405160240161124d9190611408565b6040516020818303038152906040527ff5b1bba9000000000000000000000000000000000000000000000000000000007bffffffffffffffffffffffffffffffffffffffffffffffffffffffff19166020820180517bffffffffffffffffffffffffffffffffffffffffffffffffffffffff83818316178352505050506112d2565b50565b60008151905060006a636f6e736f6c652e6c6f679050602083016000808483855afa5050505050565b828054828255906000526020600020908101928215611374579160200282015b828111156113735782518260006101000a81548173ffffffffffffffffffffffffffffffffffffffff021916908373ffffffffffffffffffffffffffffffffffffffff1602179055509160200191906001019061131b565b5b50905061138191906113d2565b5090565b8280548282559060005260206000209081019282156113c1579160200282015b828111156113c05782518255916020019190600101906113a5565b5b5090506113ce91906113d2565b5090565b5b808211156113eb5760008160009055506001016113d3565b5090565b6000819050919050565b611402816113ef565b82525050565b600060208201905061141d60008301846113f9565b92915050565b6000604051905090565b600080fd5b600080fd5b60008115159050919050565b61144c81611437565b811461145757600080fd5b50565b60008135905061146981611443565b92915050565b6000602082840312156114855761148461142d565b5b60006114938482850161145a565b91505092915050565b6114a5816113ef565b81146114b057600080fd5b50565b6000813590506114c28161149c565b92915050565b6000602082840312156114de576114dd61142d565b5b60006114ec848285016114b3565b91505092915050565b600063ffffffff82169050919050565b61150e816114f5565b82525050565b60006020820190506115296000830184611505565b92915050565b61153881611437565b82525050565b6000602082019050611553600083018461152f565b92915050565b600073ffffffffffffffffffffffffffffffffffffffff82169050919050565b600061158482611559565b9050919050565b61159481611579565b82525050565b60006020820190506115af600083018461158b565b92915050565b600081519050919050565b600082825260208201905092915050565b6000819050602082019050919050565b6115ea816113ef565b82525050565b60006115fc83836115e1565b60208301905092915050565b6000602082019050919050565b6000611620826115b5565b61162a81856115c0565b9350611635836115d1565b8060005b8381101561166657815161164d88826115f0565b975061165883611608565b925050600181019050611639565b5085935050505092915050565b6000602082019050818103600083015261168d8184611615565b905092915050565b600081519050919050565b600082825260208201905092915050565b6000819050602082019050919050565b6116ca81611579565b82525050565b60006116dc83836116c1565b60208301905092915050565b6000602082019050919050565b600061170082611695565b61170a81856116a0565b9350611715836116b1565b8060005b8381101561174657815161172d88826116d0565b9750611738836116e8565b925050600181019050611719565b5085935050505092915050565b6000602082019050818103600083015261176d81846116f5565b905092915050565b61177e81611579565b811461178957600080fd5b50565b60008135905061179b81611775565b92915050565b6000602082840312156117b7576117b661142d565b5b60006117c58482850161178c565b91505092915050565b600080fd5b6000601f19601f8301169050919050565b7f4e487b7100000000000000000000000000000000000000000000000000000000600052604160045260246000fd5b61181c826117d3565b810181811067ffffffffffffffff8211171561183b5761183a6117e4565b5b80604052505050565b600061184e611423565b905061185a8282611813565b919050565b600067ffffffffffffffff82111561187a576118796117e4565b5b602082029050602081019050919050565b600080fd5b60006118a361189e8461185f565b611844565b905080838252602082019050602084028301858111156118c6576118c561188b565b5b835b818110156118ef57806118db888261178c565b8452602084019350506020810190506118c8565b5050509392505050565b600082601f83011261190e5761190d6117ce565b5b813561191e848260208601611890565b91505092915050565b600067ffffffffffffffff821115611942576119416117e4565b5b602082029050602081019050919050565b600061196661196184611927565b611844565b905080838252602082019050602084028301858111156119895761198861188b565b5b835b818110156119b2578061199e88826114b3565b84526020840193505060208101905061198b565b5050509392505050565b600082601f8301126119d1576119d06117ce565b5b81356119e1848260208601611953565b91505092915050565b60008060408385031215611a0157611a0061142d565b5b600083013567ffffffffffffffff811115611a1f57611a1e611432565b5b611a2b858286016118f9565b925050602083013567ffffffffffffffff811115611a4c57611a4b611432565b5b611a58858286016119bc565b9150509250929050565b600082825260208201905092915050565b7f45436d617274206f6e6c79000000000000000000000000000000000000000000600082015250565b6000611aa9600b83611a62565b9150611ab482611a73565b602082019050919050565b60006020820190508181036000830152611ad881611a9c565b9050919050565b7f4e487b7100000000000000000000000000000000000000000000000000000000600052603260045260246000fd5b7f64656c697665727920646f65736e2774206d617463682077697468206f72646560008201527f7200000000000000000000000000000000000000000000000000000000000000602082015250565b6000611b6a602183611a62565b9150611b7582611b0e565b604082019050919050565b60006020820190508181036000830152611b9981611b5d565b9050919050565b7f4e487b7100000000000000000000000000000000000000000000000000000000600052601160045260246000fd5b6000611bda826113ef565b91507fffffffffffffffffffffffffffffffffffffffffffffffffffffffffffffffff821415611c0d57611c0c611ba0565b5b600182019050919050565b600081519050919050565b60005b83811015611c41578082015181840152602081019050611c26565b83811115611c50576000848401525b50505050565b6000611c6182611c18565b611c6b8185611a62565b9350611c7b818560208601611c23565b611c84816117d3565b840191505092915050565b60006020820190508181036000830152611ca98184611c56565b90509291505056fea26469706673582212209c16958c4077e4bbc1149041aeb78a5bbf21f2d69c7e935fac96bc9a4e537a6064736f6c63430008080033a2646970667358221220c714f2d01e3bd3c425a3fee0087c089ad17c7c80c9145a343b73434bfe4613d264736f6c63430008080033608060405234801561001057600080fd5b50611a1c806100206000396000f3fe608060405234801561001057600080fd5b50600436106100415760003560e01c80632f6d5eea14610046578063cdc6c28714610062578063fa58baee1461007e575b600080fd5b610060600480360381019061005b9190610e50565b6100b2565b005b61007c60048036038101906100779190610edb565b6103b2565b005b61009860048036038101906100939190610f2e565b610677565b6040516100a9959493929190611221565b60405180910390f35b80518251146100f6576040517f08c379a00000000000000000000000000000000000000000000000000000000081526004016100ed906112f4565b60405180910390fd5b60008060010160008573ffffffffffffffffffffffffffffffffffffffff1673ffffffffffffffffffffffffffffffffffffffff16815260200190815260200160002060009054906101000a900460ff1660ff16141561018b576040517f08c379a000000000000000000000000000000000000000000000000000000000815260040161018290611360565b60405180910390fd5b60008390503373ffffffffffffffffffffffffffffffffffffffff168173ffffffffffffffffffffffffffffffffffffffff166343c97c846040518163ffffffff1660e01b815260040160206040518083038186803b1580156101ed57600080fd5b505afa158015610201573d6000803e3d6000fd5b505050506040513d601f19601f820116820180604052508101906102259190611395565b73ffffffffffffffffffffffffffffffffffffffff161461027b576040517f08c379a00000000000000000000000000000000000000000000000000000000081526004016102729061140e565b60405180910390fd5b600015158173ffffffffffffffffffffffffffffffffffffffff16634fbd39d36040518163ffffffff1660e01b815260040160206040518083038186803b1580156102c557600080fd5b505afa1580156102d9573d6000803e3d6000fd5b505050506040513d601f19601f820116820180604052508101906102fd9190611466565b15151461033f576040517f08c379a0000000000000000000000000000000000000000000000000000000008152600401610336906114df565b60405180910390fd5b8073ffffffffffffffffffffffffffffffffffffffff1663bdb9207484846040518363ffffffff1660e01b815260040161037a9291906114ff565b600060405180830381600087803b15801561039457600080fd5b505af11580156103a8573d6000803e3d6000fd5b5050505050505050565b60008060050160003373ffffffffffffffffffffffffffffffffffffffff1673ffffffffffffffffffffffffffffffffffffffff16815260200190815260200160002060009054906101000a900460ff1660ff161415610447576040517f08c379a000000000000000000000000000000000000000000000000000000000815260040161043e9061140e565b60405180910390fd5b60008060010160008573ffffffffffffffffffffffffffffffffffffffff1673ffffffffffffffffffffffffffffffffffffffff16815260200190815260200160002060009054906101000a900460ff1660ff1614156104dc576040517f08c379a00000000000000000000000000000000000000000000000000000000081526004016104d390611360565b60405180910390fd5b6000839050600073ffffffffffffffffffffffffffffffffffffffff168173ffffffffffffffffffffffffffffffffffffffff166343c97c846040518163ffffffff1660e01b815260040160206040518083038186803b15801561053f57600080fd5b505afa158015610553573d6000803e3d6000fd5b505050506040513d601f19601f820116820180604052508101906105779190611395565b73ffffffffffffffffffffffffffffffffffffffff16146105cd576040517f08c379a00000000000000000000000000000000000000000000000000000000081526004016105c490611582565b60405180910390fd5b8073ffffffffffffffffffffffffffffffffffffffff1663ab3cb34c336040518263ffffffff1660e01b815260040161060691906115b1565b600060405180830381600087803b15801561062057600080fd5b505af1158015610634573d6000803e3d6000fd5b505050507fc96e8bca962f64e910e603a370af4bc2c95bccdaef7836482df81a004bbcead583836040516106699291906115db565b60405180910390a150505050565b606080606080606060008060010160008873ffffffffffffffffffffffffffffffffffffffff1673ffffffffffffffffffffffffffffffffffffffff16815260200190815260200160002060009054906101000a900460ff1660ff161415610714576040517f08c379a000000000000000000000000000000000000000000000000000000000815260040161070b90611360565b60405180910390fd5b600086905060008173ffffffffffffffffffffffffffffffffffffffff1663444066176040518163ffffffff1660e01b815260040160006040518083038186803b15801561076157600080fd5b505afa158015610775573d6000803e3d6000fd5b505050506040513d6000823e3d601f19601f8201168201806040525081019061079e919061169b565b905060008273ffffffffffffffffffffffffffffffffffffffff16634117163e6040518163ffffffff1660e01b815260040160006040518083038186803b1580156107e857600080fd5b505afa1580156107fc573d6000803e3d6000fd5b505050506040513d6000823e3d601f19601f820116820180604052508101906108259190611790565b90506000825167ffffffffffffffff81111561084457610843610c14565b5b60405190808252806020026020018201604052801561087757816020015b60608152602001906001900390816108625790505b5090506000835167ffffffffffffffff81111561089757610896610c14565b5b6040519080825280602002602001820160405280156108c55781602001602082028036833780820191505090505b5090506000845167ffffffffffffffff8111156108e5576108e4610c14565b5b6040519080825280602002602001820160405280156109135781602001602082028036833780820191505090505b50905060005b85518161ffff161015610b6d576000868261ffff168151811061093f5761093e6117d9565b5b602002602001015190508073ffffffffffffffffffffffffffffffffffffffff166317d7de7c6040518163ffffffff1660e01b815260040160006040518083038186803b15801561098f57600080fd5b505afa1580156109a3573d6000803e3d6000fd5b505050506040513d6000823e3d601f19601f820116820180604052508101906109cc91906118ae565b858361ffff16815181106109e3576109e26117d9565b5b6020026020010181905250858261ffff1681518110610a0557610a046117d9565b5b60200260200101518173ffffffffffffffffffffffffffffffffffffffff166384aa33656040518163ffffffff1660e01b815260040160206040518083038186803b158015610a5357600080fd5b505afa158015610a67573d6000803e3d6000fd5b505050506040513d601f19601f82011682018060405250810190610a8b91906118f7565b610a959190611953565b848361ffff1681518110610aac57610aab6117d9565b5b6020026020010181815250508073ffffffffffffffffffffffffffffffffffffffff166384aa33656040518163ffffffff1660e01b815260040160206040518083038186803b158015610afe57600080fd5b505afa158015610b12573d6000803e3d6000fd5b505050506040513d601f19601f82011682018060405250810190610b3691906118f7565b838361ffff1681518110610b4d57610b4c6117d9565b5b602002602001018181525050508080610b65906119bb565b915050610919565b5082858583859a509a509a509a509a5050505050505091939590929450565b6000604051905090565b600080fd5b600080fd5b600073ffffffffffffffffffffffffffffffffffffffff82169050919050565b6000610bcb82610ba0565b9050919050565b610bdb81610bc0565b8114610be657600080fd5b50565b600081359050610bf881610bd2565b92915050565b600080fd5b6000601f19601f8301169050919050565b7f4e487b7100000000000000000000000000000000000000000000000000000000600052604160045260246000fd5b610c4c82610c03565b810181811067ffffffffffffffff82111715610c6b57610c6a610c14565b5b80604052505050565b6000610c7e610b8c565b9050610c8a8282610c43565b919050565b600067ffffffffffffffff821115610caa57610ca9610c14565b5b602082029050602081019050919050565b600080fd5b6000610cd3610cce84610c8f565b610c74565b90508083825260208201905060208402830185811115610cf657610cf5610cbb565b5b835b81811015610d1f5780610d0b8882610be9565b845260208401935050602081019050610cf8565b5050509392505050565b600082601f830112610d3e57610d3d610bfe565b5b8135610d4e848260208601610cc0565b91505092915050565b600067ffffffffffffffff821115610d7257610d71610c14565b5b602082029050602081019050919050565b6000819050919050565b610d9681610d83565b8114610da157600080fd5b50565b600081359050610db381610d8d565b92915050565b6000610dcc610dc784610d57565b610c74565b90508083825260208201905060208402830185811115610def57610dee610cbb565b5b835b81811015610e185780610e048882610da4565b845260208401935050602081019050610df1565b5050509392505050565b600082601f830112610e3757610e36610bfe565b5b8135610e47848260208601610db9565b91505092915050565b600080600060608486031215610e6957610e68610b96565b5b6000610e7786828701610be9565b935050602084013567ffffffffffffffff811115610e9857610e97610b9b565b5b610ea486828701610d29565b925050604084013567ffffffffffffffff811115610ec557610ec4610b9b565b5b610ed186828701610e22565b9150509250925092565b600080600060608486031215610ef457610ef3610b96565b5b6000610f0286828701610be9565b9350506020610f1386828701610da4565b9250506040610f2486828701610da4565b9150509250925092565b600060208284031215610f4457610f43610b96565b5b6000610f5284828501610be9565b91505092915050565b600081519050919050565b600082825260208201905092915050565b6000819050602082019050919050565b600081519050919050565b600082825260208201905092915050565b60005b83811015610fc1578082015181840152602081019050610fa6565b83811115610fd0576000848401525b50505050565b6000610fe182610f87565b610feb8185610f92565b9350610ffb818560208601610fa3565b61100481610c03565b840191505092915050565b600061101b8383610fd6565b905092915050565b6000602082019050919050565b600061103b82610f5b565b6110458185610f66565b93508360208202850161105785610f77565b8060005b858110156110935784840389528151611074858261100f565b945061107f83611023565b925060208a0199505060018101905061105b565b50829750879550505050505092915050565b600081519050919050565b600082825260208201905092915050565b6000819050602082019050919050565b6110da81610bc0565b82525050565b60006110ec83836110d1565b60208301905092915050565b6000602082019050919050565b6000611110826110a5565b61111a81856110b0565b9350611125836110c1565b8060005b8381101561115657815161113d88826110e0565b9750611148836110f8565b925050600181019050611129565b5085935050505092915050565b600081519050919050565b600082825260208201905092915050565b6000819050602082019050919050565b61119881610d83565b82525050565b60006111aa838361118f565b60208301905092915050565b6000602082019050919050565b60006111ce82611163565b6111d8818561116e565b93506111e38361117f565b8060005b838110156112145781516111fb888261119e565b9750611206836111b6565b9250506001810190506111e7565b5085935050505092915050565b600060a082019050818103600083015261123b8188611030565b9050818103602083015261124f8187611105565b9050818103604083015261126381866111c3565b9050818103606083015261127781856111c3565b9050818103608083015261128b81846111c3565b90509695505050505050565b600082825260208201905092915050565b7f417272617973206d7573742068617665207468652073616d65206c656e677468600082015250565b60006112de602083611297565b91506112e9826112a8565b602082019050919050565b6000602082019050818103600083015261130d816112d1565b9050919050565b7f496e76616c6964206f7264657200000000000000000000000000000000000000600082015250565b600061134a600d83611297565b915061135582611314565b602082019050919050565b600060208201905081810360008301526113798161133d565b9050919050565b60008151905061138f81610bd2565b92915050565b6000602082840312156113ab576113aa610b96565b5b60006113b984828501611380565b91505092915050565b7f496e76616c69642064656c6976657279206d616e000000000000000000000000600082015250565b60006113f8601483611297565b9150611403826113c2565b602082019050919050565b60006020820190508181036000830152611427816113eb565b9050919050565b60008115159050919050565b6114438161142e565b811461144e57600080fd5b50565b6000815190506114608161143a565b92915050565b60006020828403121561147c5761147b610b96565b5b600061148a84828501611451565b91505092915050565b7f616c72656164792064656c697665726564000000000000000000000000000000600082015250565b60006114c9601183611297565b91506114d482611493565b602082019050919050565b600060208201905081810360008301526114f8816114bc565b9050919050565b600060408201905081810360008301526115198185611105565b9050818103602083015261152d81846111c3565b90509392505050565b7f44656c6976657279206d616e20697320616c7265616479207365740000000000600082015250565b600061156c601b83611297565b915061157782611536565b602082019050919050565b6000602082019050818103600083015261159b8161155f565b9050919050565b6115ab81610bc0565b82525050565b60006020820190506115c660008301846115a2565b92915050565b6115d581610d83565b82525050565b60006040820190506115f060008301856115cc565b6115fd60208301846115cc565b9392505050565b600061161761161284610c8f565b610c74565b9050808382526020820190506020840283018581111561163a57611639610cbb565b5b835b81811015611663578061164f8882611380565b84526020840193505060208101905061163c565b5050509392505050565b600082601f83011261168257611681610bfe565b5b8151611692848260208601611604565b91505092915050565b6000602082840312156116b1576116b0610b96565b5b600082015167ffffffffffffffff8111156116cf576116ce610b9b565b5b6116db8482850161166d565b91505092915050565b6000815190506116f381610d8d565b92915050565b600061170c61170784610d57565b610c74565b9050808382526020820190506020840283018581111561172f5761172e610cbb565b5b835b81811015611758578061174488826116e4565b845260208401935050602081019050611731565b5050509392505050565b600082601f83011261177757611776610bfe565b5b81516117878482602086016116f9565b91505092915050565b6000602082840312156117a6576117a5610b96565b5b600082015167ffffffffffffffff8111156117c4576117c3610b9b565b5b6117d084828501611762565b91505092915050565b7f4e487b7100000000000000000000000000000000000000000000000000000000600052603260045260246000fd5b600080fd5b600067ffffffffffffffff82111561182857611827610c14565b5b61183182610c03565b9050602081019050919050565b600061185161184c8461180d565b610c74565b90508281526020810184848401111561186d5761186c611808565b5b611878848285610fa3565b509392505050565b600082601f83011261189557611894610bfe565b5b81516118a584826020860161183e565b91505092915050565b6000602082840312156118c4576118c3610b96565b5b600082015167ffffffffffffffff8111156118e2576118e1610b9b565b5b6118ee84828501611880565b91505092915050565b60006020828403121561190d5761190c610b96565b5b600061191b848285016116e4565b91505092915050565b7f4e487b7100000000000000000000000000000000000000000000000000000000600052601160045260246000fd5b600061195e82610d83565b915061196983610d83565b9250817fffffffffffffffffffffffffffffffffffffffffffffffffffffffffffffffff04831182151516156119a2576119a1611924565b5b828202905092915050565b600061ffff82169050919050565b60006119c6826119ad565b915061ffff8214156119db576119da611924565b5b60018201905091905056fea2646970667358221220eeffc763784b6db82e7a0b114f59a35a551909456766d29886a4fa7684f0256e64736f6c63430008080033608060405234801561001057600080fd5b50610e0f806100206000396000f3fe608060405234801561001057600080fd5b50600436106100415760003560e01c80630e53713f1461004657806380fc9c0e14610062578063c36dcd7f14610092575b600080fd5b610060600480360381019061005b91906104eb565b6100c5565b005b61007c6004803603810190610077919061055a565b61013f565b6040516100899190610596565b60405180910390f35b6100ac60048036038101906100a7919061055a565b61025f565b6040516100bc9493929190610877565b60405180910390f35b60008390508073ffffffffffffffffffffffffffffffffffffffff1663f6c0f8b98484336040518463ffffffff1660e01b815260040161010793929190610931565b600060405180830381600087803b15801561012157600080fd5b505af1158015610135573d6000803e3d6000fd5b5050505050505050565b60008082905060008173ffffffffffffffffffffffffffffffffffffffff16634dcc7d9d6040518163ffffffff1660e01b815260040160206040518083038186803b15801561018d57600080fd5b505afa1580156101a1573d6000803e3d6000fd5b505050506040513d601f19601f820116820180604052508101906101c59190610984565b905060008273ffffffffffffffffffffffffffffffffffffffff166335bcbbc86040518163ffffffff1660e01b815260040160206040518083038186803b15801561020f57600080fd5b505afa158015610223573d6000803e3d6000fd5b505050506040513d601f19601f820116820180604052508101906102479190610984565b9050808261025591906109e0565b9350505050919050565b60608060608060008590508073ffffffffffffffffffffffffffffffffffffffff166341f296186040518163ffffffff1660e01b815260040160006040518083038186803b1580156102b057600080fd5b505afa1580156102c4573d6000803e3d6000fd5b505050506040513d6000823e3d601f19601f820116820180604052508101906102ed9190610d02565b9450945094509450509193509193565b6000604051905090565b600080fd5b600080fd5b600073ffffffffffffffffffffffffffffffffffffffff82169050919050565b600061033c82610311565b9050919050565b61034c81610331565b811461035757600080fd5b50565b60008135905061036981610343565b92915050565b600080fd5b600080fd5b6000601f19601f8301169050919050565b7f4e487b7100000000000000000000000000000000000000000000000000000000600052604160045260246000fd5b6103c282610379565b810181811067ffffffffffffffff821117156103e1576103e061038a565b5b80604052505050565b60006103f46102fd565b905061040082826103b9565b919050565b600067ffffffffffffffff8211156104205761041f61038a565b5b61042982610379565b9050602081019050919050565b82818337600083830152505050565b600061045861045384610405565b6103ea565b90508281526020810184848401111561047457610473610374565b5b61047f848285610436565b509392505050565b600082601f83011261049c5761049b61036f565b5b81356104ac848260208601610445565b91505092915050565b6000819050919050565b6104c8816104b5565b81146104d357600080fd5b50565b6000813590506104e5816104bf565b92915050565b60008060006060848603121561050457610503610307565b5b60006105128682870161035a565b935050602084013567ffffffffffffffff8111156105335761053261030c565b5b61053f86828701610487565b9250506040610550868287016104d6565b9150509250925092565b6000602082840312156105705761056f610307565b5b600061057e8482850161035a565b91505092915050565b610590816104b5565b82525050565b60006020820190506105ab6000830184610587565b92915050565b600081519050919050565b600082825260208201905092915050565b6000819050602082019050919050565b6105e681610331565b82525050565b60006105f883836105dd565b60208301905092915050565b6000602082019050919050565b600061061c826105b1565b61062681856105bc565b9350610631836105cd565b8060005b8381101561066257815161064988826105ec565b975061065483610604565b925050600181019050610635565b5085935050505092915050565b600081519050919050565b600082825260208201905092915050565b6000819050602082019050919050565b600081519050919050565b600082825260208201905092915050565b60005b838110156106d55780820151818401526020810190506106ba565b838111156106e4576000848401525b50505050565b60006106f58261069b565b6106ff81856106a6565b935061070f8185602086016106b7565b61071881610379565b840191505092915050565b600061072f83836106ea565b905092915050565b6000602082019050919050565b600061074f8261066f565b610759818561067a565b93508360208202850161076b8561068b565b8060005b858110156107a757848403895281516107888582610723565b945061079383610737565b925060208a0199505060018101905061076f565b50829750879550505050505092915050565b600081519050919050565b600082825260208201905092915050565b6000819050602082019050919050565b6107ee816104b5565b82525050565b600061080083836107e5565b60208301905092915050565b6000602082019050919050565b6000610824826107b9565b61082e81856107c4565b9350610839836107d5565b8060005b8381101561086a57815161085188826107f4565b975061085c8361080c565b92505060018101905061083d565b5085935050505092915050565b600060808201905081810360008301526108918187610611565b905081810360208301526108a58186610744565b905081810360408301526108b98185610819565b905081810360608301526108cd8184610819565b905095945050505050565b600082825260208201905092915050565b60006108f48261069b565b6108fe81856108d8565b935061090e8185602086016106b7565b61091781610379565b840191505092915050565b61092b81610331565b82525050565b6000606082019050818103600083015261094b81866108e9565b905061095a6020830185610587565b6109676040830184610922565b949350505050565b60008151905061097e816104bf565b92915050565b60006020828403121561099a57610999610307565b5b60006109a88482850161096f565b91505092915050565b7f4e487b7100000000000000000000000000000000000000000000000000000000600052601260045260246000fd5b60006109eb826104b5565b91506109f6836104b5565b925082610a0657610a056109b1565b5b828204905092915050565b600067ffffffffffffffff821115610a2c57610a2b61038a565b5b602082029050602081019050919050565b600080fd5b600081519050610a5181610343565b92915050565b6000610a6a610a6584610a11565b6103ea565b90508083825260208201905060208402830185811115610a8d57610a8c610a3d565b5b835b81811015610ab65780610aa28882610a42565b845260208401935050602081019050610a8f565b5050509392505050565b600082601f830112610ad557610ad461036f565b5b8151610ae5848260208601610a57565b91505092915050565b600067ffffffffffffffff821115610b0957610b0861038a565b5b602082029050602081019050919050565b6000610b2d610b2884610405565b6103ea565b905082815260208101848484011115610b4957610b48610374565b5b610b548482856106b7565b509392505050565b600082601f830112610b7157610b7061036f565b5b8151610b81848260208601610b1a565b91505092915050565b6000610b9d610b9884610aee565b6103ea565b90508083825260208201905060208402830185811115610bc057610bbf610a3d565b5b835b81811015610c0757805167ffffffffffffffff811115610be557610be461036f565b5b808601610bf28982610b5c565b85526020850194505050602081019050610bc2565b5050509392505050565b600082601f830112610c2657610c2561036f565b5b8151610c36848260208601610b8a565b91505092915050565b600067ffffffffffffffff821115610c5a57610c5961038a565b5b602082029050602081019050919050565b6000610c7e610c7984610c3f565b6103ea565b90508083825260208201905060208402830185811115610ca157610ca0610a3d565b5b835b81811015610cca5780610cb6888261096f565b845260208401935050602081019050610ca3565b5050509392505050565b600082601f830112610ce957610ce861036f565b5b8151610cf9848260208601610c6b565b91505092915050565b60008060008060808587031215610d1c57610d1b610307565b5b600085015167ffffffffffffffff811115610d3a57610d3961030c565b5b610d4687828801610ac0565b945050602085015167ffffffffffffffff811115610d6757610d6661030c565b5b610d7387828801610c11565b935050604085015167ffffffffffffffff811115610d9457610d9361030c565b5b610da087828801610cd4565b925050606085015167ffffffffffffffff811115610dc157610dc061030c565b5b610dcd87828801610cd4565b9150509295919450925056fea2646970667358221220c410693a6171501849c15ab17c89983f628e4ddf60d2e86160194532d9935bca64736f6c63430008080033608060405234801561001057600080fd5b50612d1b806100206000396000f3fe60806040523480156200001157600080fd5b50600436106200003a5760003560e01c8063677e8bc0146200003f578063f3122fca146200005f575b600080fd5b6200005d600480360381019062000057919062000754565b62000095565b005b6200007d60048036038101906200007791906200087f565b62000360565b6040516200008c91906200097f565b60405180910390f35b6001600060030160003373ffffffffffffffffffffffffffffffffffffffff1673ffffffffffffffffffffffffffffffffffffffff16815260200190815260200160002060009054906101000a900460ff1660ff16146200012d576040517f08c379a0000000000000000000000000000000000000000000000000000000008152600401620001249062000a04565b60405180910390fd5b600060646000600801548662000144919062000a55565b62000150919062000ae5565b6000600701546000600601548762000169919062000b1d565b62000175919062000b1d565b62000181919062000b1d565b9050620001c46040518060400160405280601a81526020017f5f46696e616c205072696365206f662050726f64756374203a20000000000000815250826200042f565b600086868686333087604051620001db9062000595565b620001ed979695949392919062000c1e565b604051809103906000f0801580156200020a573d6000803e3d6000fd5b50905060008190506200021d81620004cf565b600960003373ffffffffffffffffffffffffffffffffffffffff1673ffffffffffffffffffffffffffffffffffffffff168152602001908152602001600020819080600181540180825580915050600190039060005260206000200160009091909190916101000a81548173ffffffffffffffffffffffffffffffffffffffff021916908373ffffffffffffffffffffffffffffffffffffffff1602179055506001600060020160008473ffffffffffffffffffffffffffffffffffffffff1673ffffffffffffffffffffffffffffffffffffffff16815260200190815260200160002060006101000a81548160ff021916908360ff1602179055507f6d6b40783c573ab0804a549d155a54d2d9ecf854ec6cf78c9e5c62ae07fe60208382866040516200034e9392919062000ca9565b60405180910390a15050505050505050565b6060600960008373ffffffffffffffffffffffffffffffffffffffff1673ffffffffffffffffffffffffffffffffffffffff1681526020019081526020016000208054806020026020016040519081016040528092919081815260200182805480156200042357602002820191906000526020600020905b8160009054906101000a900473ffffffffffffffffffffffffffffffffffffffff1673ffffffffffffffffffffffffffffffffffffffff1681526020019060010190808311620003d8575b50505050509050919050565b620004cb82826040516024016200044892919062000ce6565b6040516020818303038152906040527f9710a9d0000000000000000000000000000000000000000000000000000000007bffffffffffffffffffffffffffffffffffffffffffffffffffffffff19166020820180517bffffffffffffffffffffffffffffffffffffffffffffffffffffffff83818316178352505050506200056c565b5050565b6200056981604051602401620004e6919062000d1a565b6040516020818303038152906040527f2c2ecbc2000000000000000000000000000000000000000000000000000000007bffffffffffffffffffffffffffffffffffffffffffffffffffffffff19166020820180517bffffffffffffffffffffffffffffffffffffffffffffffffffffffff83818316178352505050506200056c565b50565b60008151905060006a636f6e736f6c652e6c6f679050602083016000808483855afa5050505050565b611fae8062000d3883390190565b6000604051905090565b600080fd5b600080fd5b600080fd5b600080fd5b6000601f19601f8301169050919050565b7f4e487b7100000000000000000000000000000000000000000000000000000000600052604160045260246000fd5b6200060c82620005c1565b810181811067ffffffffffffffff821117156200062e576200062d620005d2565b5b80604052505050565b600062000643620005a3565b905062000651828262000601565b919050565b600067ffffffffffffffff821115620006745762000673620005d2565b5b6200067f82620005c1565b9050602081019050919050565b82818337600083830152505050565b6000620006b2620006ac8462000656565b62000637565b905082815260208101848484011115620006d157620006d0620005bc565b5b620006de8482856200068c565b509392505050565b600082601f830112620006fe57620006fd620005b7565b5b8135620007108482602086016200069b565b91505092915050565b6000819050919050565b6200072e8162000719565b81146200073a57600080fd5b50565b6000813590506200074e8162000723565b92915050565b600080600080600060a08688031215620007735762000772620005ad565b5b600086013567ffffffffffffffff811115620007945762000793620005b2565b5b620007a288828901620006e6565b9550506020620007b5888289016200073d565b945050604086013567ffffffffffffffff811115620007d957620007d8620005b2565b5b620007e788828901620006e6565b9350506060620007fa888289016200073d565b92505060806200080d888289016200073d565b9150509295509295909350565b600073ffffffffffffffffffffffffffffffffffffffff82169050919050565b600062000847826200081a565b9050919050565b62000859816200083a565b81146200086557600080fd5b50565b60008135905062000879816200084e565b92915050565b600060208284031215620008985762000897620005ad565b5b6000620008a88482850162000868565b91505092915050565b600081519050919050565b600082825260208201905092915050565b6000819050602082019050919050565b620008e8816200083a565b82525050565b6000620008fc8383620008dd565b60208301905092915050565b6000602082019050919050565b60006200092282620008b1565b6200092e8185620008bc565b93506200093b83620008cd565b8060005b8381101562000972578151620009568882620008ee565b9750620009638362000908565b9250506001810190506200093f565b5085935050505092915050565b600060208201905081810360008301526200099b818462000915565b905092915050565b600082825260208201905092915050565b7f596f7520617265206e6f7420612073656c6c6572000000000000000000000000600082015250565b6000620009ec601483620009a3565b9150620009f982620009b4565b602082019050919050565b6000602082019050818103600083015262000a1f81620009dd565b9050919050565b7f4e487b7100000000000000000000000000000000000000000000000000000000600052601160045260246000fd5b600062000a628262000719565b915062000a6f8362000719565b9250817fffffffffffffffffffffffffffffffffffffffffffffffffffffffffffffffff048311821515161562000aab5762000aaa62000a26565b5b828202905092915050565b7f4e487b7100000000000000000000000000000000000000000000000000000000600052601260045260246000fd5b600062000af28262000719565b915062000aff8362000719565b92508262000b125762000b1162000ab6565b5b828204905092915050565b600062000b2a8262000719565b915062000b378362000719565b9250827fffffffffffffffffffffffffffffffffffffffffffffffffffffffffffffffff0382111562000b6f5762000b6e62000a26565b5b828201905092915050565b600081519050919050565b60005b8381101562000ba557808201518184015260208101905062000b88565b8381111562000bb5576000848401525b50505050565b600062000bc88262000b7a565b62000bd48185620009a3565b935062000be681856020860162000b85565b62000bf181620005c1565b840191505092915050565b62000c078162000719565b82525050565b62000c18816200083a565b82525050565b600060e082019050818103600083015262000c3a818a62000bbb565b905062000c4b602083018962000bfc565b818103604083015262000c5f818862000bbb565b905062000c70606083018762000bfc565b62000c7f608083018662000c0d565b62000c8e60a083018562000c0d565b62000c9d60c083018462000bfc565b98975050505050505050565b600060608201905062000cc0600083018662000bfc565b62000ccf602083018562000c0d565b62000cde604083018462000bfc565b949350505050565b6000604082019050818103600083015262000d02818562000bbb565b905062000d13602083018462000bfc565b9392505050565b600060208201905062000d31600083018462000c0d565b9291505056fe60806040523480156200001157600080fd5b5060405162001fae38038062001fae83398181016040528101906200003791906200040a565b86600090805190602001906200004f9291906200011d565b5085600181905550836002819055508460049080519060200190620000769291906200011d565b5082600560006101000a81548173ffffffffffffffffffffffffffffffffffffffff021916908373ffffffffffffffffffffffffffffffffffffffff16021790555081600660006101000a81548173ffffffffffffffffffffffffffffffffffffffff021916908373ffffffffffffffffffffffffffffffffffffffff160217905550806007819055506000600c819055506000600d819055505050505050505062000560565b8280546200012b906200052a565b90600052602060002090601f0160209004810192826200014f57600085556200019b565b82601f106200016a57805160ff19168380011785556200019b565b828001600101855582156200019b579182015b828111156200019a5782518255916020019190600101906200017d565b5b509050620001aa9190620001ae565b5090565b5b80821115620001c9576000816000905550600101620001af565b5090565b6000604051905090565b600080fd5b600080fd5b600080fd5b600080fd5b6000601f19601f8301169050919050565b7f4e487b7100000000000000000000000000000000000000000000000000000000600052604160045260246000fd5b6200023682620001eb565b810181811067ffffffffffffffff82111715620002585762000257620001fc565b5b80604052505050565b60006200026d620001cd565b90506200027b82826200022b565b919050565b600067ffffffffffffffff8211156200029e576200029d620001fc565b5b620002a982620001eb565b9050602081019050919050565b60005b83811015620002d6578082015181840152602081019050620002b9565b83811115620002e6576000848401525b50505050565b600062000303620002fd8462000280565b62000261565b905082815260208101848484011115620003225762000321620001e6565b5b6200032f848285620002b6565b509392505050565b600082601f8301126200034f576200034e620001e1565b5b815162000361848260208601620002ec565b91505092915050565b6000819050919050565b6200037f816200036a565b81146200038b57600080fd5b50565b6000815190506200039f8162000374565b92915050565b600073ffffffffffffffffffffffffffffffffffffffff82169050919050565b6000620003d282620003a5565b9050919050565b620003e481620003c5565b8114620003f057600080fd5b50565b6000815190506200040481620003d9565b92915050565b600080600080600080600060e0888a0312156200042c576200042b620001d7565b5b600088015167ffffffffffffffff8111156200044d576200044c620001dc565b5b6200045b8a828b0162000337565b97505060206200046e8a828b016200038e565b965050604088015167ffffffffffffffff811115620004925762000491620001dc565b5b620004a08a828b0162000337565b9550506060620004b38a828b016200038e565b9450506080620004c68a828b01620003f3565b93505060a0620004d98a828b01620003f3565b92505060c0620004ec8a828b016200038e565b91505092959891949750929550565b7f4e487b7100000000000000000000000000000000000000000000000000000000600052602260045260246000fd5b600060028204905060018216806200054357607f821691505b602082108114156200055a5762000559620004fb565b5b50919050565b611a3e80620005706000396000f3fe608060405234801561001057600080fd5b50600436106100ea5760003560e01c806384aa33651161008c578063db6a365211610066578063db6a36521461022c578063dbd0e1b614610248578063edbab14314610266578063f6c0f8b914610284576100ea565b806384aa3365146101c057806398d5fdca146101de578063a85c38ef146101fc576100ea565b8063317c9984116100c8578063317c99841461014757806335bcbbc81461016357806341f29618146101815780634dcc7d9d146101a2576100ea565b80630115949c146100ef57806317d7de7c1461010d57806317fa1f471461012b575b600080fd5b6100f76102a0565b6040516101049190610f62565b60405180910390f35b6101156102aa565b6040516101229190611016565b60405180910390f35b61014560048036038101906101409190611078565b61033c565b005b610161600480360381019061015c9190611103565b61042e565b005b61016b61057a565b6040516101789190610f62565b60405180910390f35b610189610584565b60405161019994939291906113b8565b60405180910390f35b6101aa6107ab565b6040516101b79190610f62565b60405180910390f35b6101c86107b5565b6040516101d59190610f62565b60405180910390f35b6101e66107bf565b6040516101f39190610f62565b60405180910390f35b61021660048036038101906102119190611078565b6108b1565b6040516102239190611428565b60405180910390f35b61024660048036038101906102419190611443565b6108f0565b005b610250610a2b565b60405161025d9190611428565b60405180910390f35b61026e610a55565b60405161027b9190610f62565b60405180910390f35b61029e600480360381019061029991906115b8565b610a5b565b005b6000600254905090565b6060600080546102b990611656565b80601f01602080910402602001604051908101604052809291908181526020018280546102e590611656565b80156103325780601f1061030757610100808354040283529160200191610332565b820191906000526020600020905b81548152906001019060200180831161031557829003601f168201915b5050505050905090565b600660009054906101000a900473ffffffffffffffffffffffffffffffffffffffff1673ffffffffffffffffffffffffffffffffffffffff163373ffffffffffffffffffffffffffffffffffffffff1614806103e55750600560009054906101000a900473ffffffffffffffffffffffffffffffffffffffff1673ffffffffffffffffffffffffffffffffffffffff163373ffffffffffffffffffffffffffffffffffffffff16145b610424576040517f08c379a000000000000000000000000000000000000000000000000000000000815260040161041b906116d4565b60405180910390fd5b8060028190555050565b600660009054906101000a900473ffffffffffffffffffffffffffffffffffffffff1673ffffffffffffffffffffffffffffffffffffffff163373ffffffffffffffffffffffffffffffffffffffff16146104be576040517f08c379a00000000000000000000000000000000000000000000000000000000081526004016104b590611740565b60405180910390fd5b6001600a60008373ffffffffffffffffffffffffffffffffffffffff1673ffffffffffffffffffffffffffffffffffffffff16815260200190815260200160002060009054906101000a900463ffffffff1661051a919061179f565b600a60008373ffffffffffffffffffffffffffffffffffffffff1673ffffffffffffffffffffffffffffffffffffffff16815260200190815260200160002060006101000a81548163ffffffff021916908363ffffffff16021790555050565b6000600d54905090565b606080606080600e600001600e600101600e600201600e6003018380548060200260200160405190810160405280929190818152602001828054801561061f57602002820191906000526020600020905b8160009054906101000a900473ffffffffffffffffffffffffffffffffffffffff1673ffffffffffffffffffffffffffffffffffffffff16815260200190600101908083116105d5575b5050505050935082805480602002602001604051908101604052809291908181526020016000905b828210156106f357838290600052602060002001805461066690611656565b80601f016020809104026020016040519081016040528092919081815260200182805461069290611656565b80156106df5780601f106106b4576101008083540402835291602001916106df565b820191906000526020600020905b8154815290600101906020018083116106c257829003601f168201915b505050505081526020019060010190610647565b5050505092508180548060200260200160405190810160405280929190818152602001828054801561074457602002820191906000526020600020905b815481526020019060010190808311610730575b505050505091508080548060200260200160405190810160405280929190818152602001828054801561079657602002820191906000526020600020905b815481526020019060010190808311610782575b50505050509050935093509350935090919293565b6000600c54905090565b6000600754905090565b6000600660009054906101000a900473ffffffffffffffffffffffffffffffffffffffff1673ffffffffffffffffffffffffffffffffffffffff163373ffffffffffffffffffffffffffffffffffffffff16148061086a5750600560009054906101000a900473ffffffffffffffffffffffffffffffffffffffff1673ffffffffffffffffffffffffffffffffffffffff163373ffffffffffffffffffffffffffffffffffffffff16145b6108a9576040517f08c379a00000000000000000000000000000000000000000000000000000000081526004016108a0906116d4565b60405180910390fd5b600154905090565b600981815481106108c157600080fd5b906000526020600020016000915054906101000a900473ffffffffffffffffffffffffffffffffffffffff1681565b600660009054906101000a900473ffffffffffffffffffffffffffffffffffffffff1673ffffffffffffffffffffffffffffffffffffffff163373ffffffffffffffffffffffffffffffffffffffff1614610980576040517f08c379a000000000000000000000000000000000000000000000000000000000815260040161097790611740565b60405180910390fd5b6009829080600181540180825580915050600190039060005260206000200160009091909190916101000a81548173ffffffffffffffffffffffffffffffffffffffff021916908373ffffffffffffffffffffffffffffffffffffffff16021790555080600860008473ffffffffffffffffffffffffffffffffffffffff1673ffffffffffffffffffffffffffffffffffffffff168152602001908152602001600020819055505050565b6000600560009054906101000a900473ffffffffffffffffffffffffffffffffffffffff16905090565b60075481565b600660009054906101000a900473ffffffffffffffffffffffffffffffffffffffff1673ffffffffffffffffffffffffffffffffffffffff163373ffffffffffffffffffffffffffffffffffffffff1614610aeb576040517f08c379a0000000000000000000000000000000000000000000000000000000008152600401610ae290611740565b60405180910390fd5b6000600a60008373ffffffffffffffffffffffffffffffffffffffff1673ffffffffffffffffffffffffffffffffffffffff16815260200190815260200160002060009054906101000a900463ffffffff1663ffffffff161415610b84576040517f08c379a0000000000000000000000000000000000000000000000000000000008152600401610b7b9061184b565b60405180910390fd5b600b60008273ffffffffffffffffffffffffffffffffffffffff1673ffffffffffffffffffffffffffffffffffffffff16815260200190815260200160002060009054906101000a900463ffffffff1663ffffffff16600a60008373ffffffffffffffffffffffffffffffffffffffff1673ffffffffffffffffffffffffffffffffffffffff16815260200190815260200160002060009054906101000a900463ffffffff1663ffffffff1611610c70576040517f08c379a0000000000000000000000000000000000000000000000000000000008152600401610c67906118dd565b60405180910390fd5b6005821115610cb4576040517f08c379a0000000000000000000000000000000000000000000000000000000008152600401610cab90611949565b60405180910390fd5b6000429050600e600001829080600181540180825580915050600190039060005260206000200160009091909190916101000a81548173ffffffffffffffffffffffffffffffffffffffff021916908373ffffffffffffffffffffffffffffffffffffffff160217905550600e60010184908060018154018082558091505060019003906000526020600020016000909190919091509080519060200190610d5d929190610ea6565b50600e600201839080600181540180825580915050600190039060005260206000200160009091909190915055600e6003018190806001815401808255809150506001900390600052602060002001600090919091909150556001600b60008473ffffffffffffffffffffffffffffffffffffffff1673ffffffffffffffffffffffffffffffffffffffff16815260200190815260200160002060009054906101000a900463ffffffff16610e12919061179f565b600b60008473ffffffffffffffffffffffffffffffffffffffff1673ffffffffffffffffffffffffffffffffffffffff16815260200190815260200160002060006101000a81548163ffffffff021916908363ffffffff16021790555082600c6000828254610e819190611969565b92505081905550600d6000815480929190610e9b906119bf565b919050555050505050565b828054610eb290611656565b90600052602060002090601f016020900481019282610ed45760008555610f1b565b82601f10610eed57805160ff1916838001178555610f1b565b82800160010185558215610f1b579182015b82811115610f1a578251825591602001919060010190610eff565b5b509050610f289190610f2c565b5090565b5b80821115610f45576000816000905550600101610f2d565b5090565b6000819050919050565b610f5c81610f49565b82525050565b6000602082019050610f776000830184610f53565b92915050565b600081519050919050565b600082825260208201905092915050565b60005b83811015610fb7578082015181840152602081019050610f9c565b83811115610fc6576000848401525b50505050565b6000601f19601f8301169050919050565b6000610fe882610f7d565b610ff28185610f88565b9350611002818560208601610f99565b61100b81610fcc565b840191505092915050565b600060208201905081810360008301526110308184610fdd565b905092915050565b6000604051905090565b600080fd5b600080fd5b61105581610f49565b811461106057600080fd5b50565b6000813590506110728161104c565b92915050565b60006020828403121561108e5761108d611042565b5b600061109c84828501611063565b91505092915050565b600073ffffffffffffffffffffffffffffffffffffffff82169050919050565b60006110d0826110a5565b9050919050565b6110e0816110c5565b81146110eb57600080fd5b50565b6000813590506110fd816110d7565b92915050565b60006020828403121561111957611118611042565b5b6000611127848285016110ee565b91505092915050565b600081519050919050565b600082825260208201905092915050565b6000819050602082019050919050565b611165816110c5565b82525050565b6000611177838361115c565b60208301905092915050565b6000602082019050919050565b600061119b82611130565b6111a5818561113b565b93506111b08361114c565b8060005b838110156111e15781516111c8888261116b565b97506111d383611183565b9250506001810190506111b4565b5085935050505092915050565b600081519050919050565b600082825260208201905092915050565b6000819050602082019050919050565b600082825260208201905092915050565b600061123682610f7d565b611240818561121a565b9350611250818560208601610f99565b61125981610fcc565b840191505092915050565b6000611270838361122b565b905092915050565b6000602082019050919050565b6000611290826111ee565b61129a81856111f9565b9350836020820285016112ac8561120a565b8060005b858110156112e857848403895281516112c98582611264565b94506112d483611278565b925060208a019950506001810190506112b0565b50829750879550505050505092915050565b600081519050919050565b600082825260208201905092915050565b6000819050602082019050919050565b61132f81610f49565b82525050565b60006113418383611326565b60208301905092915050565b6000602082019050919050565b6000611365826112fa565b61136f8185611305565b935061137a83611316565b8060005b838110156113ab5781516113928882611335565b975061139d8361134d565b92505060018101905061137e565b5085935050505092915050565b600060808201905081810360008301526113d28187611190565b905081810360208301526113e68186611285565b905081810360408301526113fa818561135a565b9050818103606083015261140e818461135a565b905095945050505050565b611422816110c5565b82525050565b600060208201905061143d6000830184611419565b92915050565b6000806040838503121561145a57611459611042565b5b6000611468858286016110ee565b925050602061147985828601611063565b9150509250929050565b600080fd5b600080fd5b7f4e487b7100000000000000000000000000000000000000000000000000000000600052604160045260246000fd5b6114c582610fcc565b810181811067ffffffffffffffff821117156114e4576114e361148d565b5b80604052505050565b60006114f7611038565b905061150382826114bc565b919050565b600067ffffffffffffffff8211156115235761152261148d565b5b61152c82610fcc565b9050602081019050919050565b82818337600083830152505050565b600061155b61155684611508565b6114ed565b90508281526020810184848401111561157757611576611488565b5b611582848285611539565b509392505050565b600082601f83011261159f5761159e611483565b5b81356115af848260208601611548565b91505092915050565b6000806000606084860312156115d1576115d0611042565b5b600084013567ffffffffffffffff8111156115ef576115ee611047565b5b6115fb8682870161158a565b935050602061160c86828701611063565b925050604061161d868287016110ee565b9150509250925092565b7f4e487b7100000000000000000000000000000000000000000000000000000000600052602260045260246000fd5b6000600282049050600182168061166e57607f821691505b6020821081141561168257611681611627565b5b50919050565b7f4e6f74204f776e6572206f722073656c6c657200000000000000000000000000600082015250565b60006116be601383610f88565b91506116c982611688565b602082019050919050565b600060208201905081810360008301526116ed816116b1565b9050919050565b7f4e6f742045434d61727420286f776e6572290000000000000000000000000000600082015250565b600061172a601283610f88565b9150611735826116f4565b602082019050919050565b600060208201905081810360008301526117598161171d565b9050919050565b600063ffffffff82169050919050565b7f4e487b7100000000000000000000000000000000000000000000000000000000600052601160045260246000fd5b60006117aa82611760565b91506117b583611760565b92508263ffffffff038211156117ce576117cd611770565b5b828201905092915050565b7f596f7520617265206e6f742061206275796572206f66207468652070726f647560008201527f6374000000000000000000000000000000000000000000000000000000000000602082015250565b6000611835602283610f88565b9150611840826117d9565b604082019050919050565b6000602082019050818103600083015261186481611828565b9050919050565b7f596f75206861766520616c72656164792070726f76696465642072657669657760008201527f20616e6420726174696e67206f6620746869732070726f647563740000000000602082015250565b60006118c7603b83610f88565b91506118d28261186b565b604082019050919050565b600060208201905081810360008301526118f6816118ba565b9050919050565b7f526174696e672073686f756c64206265206c657373207468616e203500000000600082015250565b6000611933601c83610f88565b915061193e826118fd565b602082019050919050565b6000602082019050818103600083015261196281611926565b9050919050565b600061197482610f49565b915061197f83610f49565b9250827fffffffffffffffffffffffffffffffffffffffffffffffffffffffffffffffff038211156119b4576119b3611770565b5b828201905092915050565b60006119ca82610f49565b91507fffffffffffffffffffffffffffffffffffffffffffffffffffffffffffffffff8214156119fd576119fc611770565b5b60018201905091905056fea26469706673582212205a0577c53622d2556de9cdc66ee4cc8e7536b9e8a8fa4450689d14ad15b485d464736f6c63430008080033a264697066735822122012b4770ccaedb00b8cd2ca5dadce94f9e5b7856ac94b8398032c0ff8d2835ac264736f6c63430008080033608060405234801561001057600080fd5b506105c4806100206000396000f3fe608060405234801561001057600080fd5b50600436106100415760003560e01c80638861731514610046578063a0f7c55a14610062578063c621955e1461007e575b600080fd5b610060600480360381019061005b919061041f565b61009a565b005b61007c6004803603810190610077919061041f565b610171565b005b6100986004803603810190610093919061041f565b610248565b005b6001600060030160003373ffffffffffffffffffffffffffffffffffffffff1673ffffffffffffffffffffffffffffffffffffffff16815260200190815260200160002060006101000a81548160ff021916908360ff1602179055506101356040518060400160405280601481526020017f53656c6c65722072656769737465726564203a200000000000000000000000008152503361031f565b7f75dffe0fb61ff2c8945116ae986d8a0a87751d4addbdf798e256d7415aa4162d338260405161016692919061049c565b60405180910390a150565b6002600060040160003373ffffffffffffffffffffffffffffffffffffffff1673ffffffffffffffffffffffffffffffffffffffff16815260200190815260200160002060006101000a81548160ff021916908360ff16021790555061020c6040518060400160405280601381526020017f42757965722052656769737465726564203a20000000000000000000000000008152503361031f565b7f75dffe0fb61ff2c8945116ae986d8a0a87751d4addbdf798e256d7415aa4162d338260405161023d92919061049c565b60405180910390a150565b6003600060050160003373ffffffffffffffffffffffffffffffffffffffff1673ffffffffffffffffffffffffffffffffffffffff16815260200190815260200160002060006101000a81548160ff021916908360ff1602179055506102e36040518060400160405280601981526020017f44656c69766572796d616e2052656769737465726564203a20000000000000008152503361031f565b7f75dffe0fb61ff2c8945116ae986d8a0a87751d4addbdf798e256d7415aa4162d338260405161031492919061049c565b60405180910390a150565b6103b7828260405160240161033592919061055e565b6040516020818303038152906040527f319af333000000000000000000000000000000000000000000000000000000007bffffffffffffffffffffffffffffffffffffffffffffffffffffffff19166020820180517bffffffffffffffffffffffffffffffffffffffffffffffffffffffff83818316178352505050506103bb565b5050565b60008151905060006a636f6e736f6c652e6c6f679050602083016000808483855afa5050505050565b600080fd5b6000819050919050565b6103fc816103e9565b811461040757600080fd5b50565b600081359050610419816103f3565b92915050565b600060208284031215610435576104346103e4565b5b60006104438482850161040a565b91505092915050565b600073ffffffffffffffffffffffffffffffffffffffff82169050919050565b60006104778261044c565b9050919050565b6104878161046c565b82525050565b610496816103e9565b82525050565b60006040820190506104b1600083018561047e565b6104be602083018461048d565b9392505050565b600081519050919050565b600082825260208201905092915050565b60005b838110156104ff5780820151818401526020810190506104e4565b8381111561050e576000848401525b50505050565b6000601f19601f8301169050919050565b6000610530826104c5565b61053a81856104d0565b935061054a8185602086016104e1565b61055381610514565b840191505092915050565b600060408201905081810360008301526105788185610525565b9050610587602083018461047e565b939250505056fea2646970667358221220295bf6fda5e6e8c595887f6f7703d799c4cd532462bb5f08d55698012f5ca0e164736f6c63430008080033",
  "linkReferences": {},
  "deployedLinkReferences": {}
}