{
  "_format": "hh-sol-artifact-1",
  "contractName": "Diamond",
  "sourceName": "contracts/Diamond.sol",
  "abi": [
    {
      "inputs": [],
      "stateMutability": "nonpayable",
      "type": "constructor"
    },
    {
      "stateMutability": "payable",
      "type": "fallback"
    },
    {
      "inputs": [
        {
          "internalType": "bytes4",
          "name": "",
          "type": "bytes4"
        }
      ],
      "name": "facetMap",
      "outputs": [
        {
          "internalType": "address",
          "name": "",
          "type": "address"
        }
      ],
      "stateMutability": "view",
      "type": "function"
    }
  ],
  "bytecode": "0x608060405234801561001057600080fd5b50600060405161001f90610709565b604051809103906000f08015801561003b573d6000803e3d6000fd5b509050600060405161004c90610716565b604051809103906000f080158015610068573d6000803e3d6000fd5b509050600060405161007990610723565b604051809103906000f080158015610095573d6000803e3d6000fd5b50905060006040516100a690610730565b604051809103906000f0801580156100c2573d6000803e3d6000fd5b509050600360006006018190555083600760007f4f0b8df841bf9568545a543ac787a25d2b11816262344dfcbcf45b1a3fb66f8d7bffffffffffffffffffffffffffffffffffffffffffffffffffffffff19167bffffffffffffffffffffffffffffffffffffffffffffffffffffffff1916815260200190815260200160002060006101000a81548173ffffffffffffffffffffffffffffffffffffffff021916908373ffffffffffffffffffffffffffffffffffffffff16021790555082600760007fab3cb34c0304f9fc30af308d1e3b21be3d7771748d4a30027c67ffbfcf26867f7bffffffffffffffffffffffffffffffffffffffffffffffffffffffff19167bffffffffffffffffffffffffffffffffffffffffffffffffffffffff1916815260200190815260200160002060006101000a81548173ffffffffffffffffffffffffffffffffffffffff021916908373ffffffffffffffffffffffffffffffffffffffff16021790555082600760007f2f6d5eea62bddac2ed0681e71e81323794041ae57a113968d42745754c9edd767bffffffffffffffffffffffffffffffffffffffffffffffffffffffff19167bffffffffffffffffffffffffffffffffffffffffffffffffffffffff1916815260200190815260200160002060006101000a81548173ffffffffffffffffffffffffffffffffffffffff021916908373ffffffffffffffffffffffffffffffffffffffff16021790555083600760007fa1a2fbae0a17348c5ad8af18f16505b0558dfa2b3a5f46633d2ff62bb5c20b8a7bffffffffffffffffffffffffffffffffffffffffffffffffffffffff19167bffffffffffffffffffffffffffffffffffffffffffffffffffffffff1916815260200190815260200160002060006101000a81548173ffffffffffffffffffffffffffffffffffffffff021916908373ffffffffffffffffffffffffffffffffffffffff16021790555081600760007f3a2a925c175e626f029dce6766b2067bda821644920d2c8465de5c7dec12f4a67bffffffffffffffffffffffffffffffffffffffffffffffffffffffff19167bffffffffffffffffffffffffffffffffffffffffffffffffffffffff1916815260200190815260200160002060006101000a81548173ffffffffffffffffffffffffffffffffffffffff021916908373ffffffffffffffffffffffffffffffffffffffff16021790555081600760007ff3122fca312a33d91f4a5e78b0521f727f759e73e376da1da826af7b2b6439257bffffffffffffffffffffffffffffffffffffffffffffffffffffffff19167bffffffffffffffffffffffffffffffffffffffffffffffffffffffff1916815260200190815260200160002060006101000a81548173ffffffffffffffffffffffffffffffffffffffff021916908373ffffffffffffffffffffffffffffffffffffffff16021790555080600760007f52c9224cc0f6b28b6681a9a47f885ee8e042107c03fb5531f0d2322287a511177bffffffffffffffffffffffffffffffffffffffffffffffffffffffff19167bffffffffffffffffffffffffffffffffffffffffffffffffffffffff1916815260200190815260200160002060006101000a81548173ffffffffffffffffffffffffffffffffffffffff021916908373ffffffffffffffffffffffffffffffffffffffff16021790555080600760007fa365a85e68b5452f9da4840765710ad3706eb4d6036f777075a3c0dd7273e94b7bffffffffffffffffffffffffffffffffffffffffffffffffffffffff19167bffffffffffffffffffffffffffffffffffffffffffffffffffffffff1916815260200190815260200160002060006101000a81548173ffffffffffffffffffffffffffffffffffffffff021916908373ffffffffffffffffffffffffffffffffffffffff16021790555080600760007fa90f42df0b8c9fcc1d6a1d087dd29319f1f431fe2f59435af75d39ba8a888f157bffffffffffffffffffffffffffffffffffffffffffffffffffffffff19167bffffffffffffffffffffffffffffffffffffffffffffffffffffffff1916815260200190815260200160002060006101000a81548173ffffffffffffffffffffffffffffffffffffffff021916908373ffffffffffffffffffffffffffffffffffffffff1602179055505050505061073d565b615b2080610aa783390190565b610e80806165c783390190565b612a308061744783390190565b6101d480619e7783390190565b61035b8061074c6000396000f3fe6080604052600436106100225760003560e01c80631eb7a4ab1461015257610023565b5b60006007600080357fffffffff00000000000000000000000000000000000000000000000000000000167bffffffffffffffffffffffffffffffffffffffffffffffffffffffff19167bffffffffffffffffffffffffffffffffffffffffffffffffffffffff1916815260200190815260200160002060009054906101000a900473ffffffffffffffffffffffffffffffffffffffff169050600073ffffffffffffffffffffffffffffffffffffffff168173ffffffffffffffffffffffffffffffffffffffff16141561012c576040517f08c379a00000000000000000000000000000000000000000000000000000000081526004016101239061021f565b60405180910390fd5b3660008037600080366000845af43d6000803e806000811461014d573d6000f35b3d6000fd5b34801561015e57600080fd5b506101796004803603810190610174919061029c565b61018f565b604051610186919061030a565b60405180910390f35b60076020528060005260406000206000915054906101000a900473ffffffffffffffffffffffffffffffffffffffff1681565b600082825260208201905092915050565b7f4661636574206e6f7420666f756e640000000000000000000000000000000000600082015250565b6000610209600f836101c2565b9150610214826101d3565b602082019050919050565b60006020820190508181036000830152610238816101fc565b9050919050565b600080fd5b60007fffffffff0000000000000000000000000000000000000000000000000000000082169050919050565b61027981610244565b811461028457600080fd5b50565b60008135905061029681610270565b92915050565b6000602082840312156102b2576102b161023f565b5b60006102c084828501610287565b91505092915050565b600073ffffffffffffffffffffffffffffffffffffffff82169050919050565b60006102f4826102c9565b9050919050565b610304816102e9565b82525050565b600060208201905061031f60008301846102fb565b9291505056fea264697066735822122080844339bdd346dc85537696f529341f1c0674b1ee284112bfb54816943fc06c64736f6c634300080800336080604052600360075573bda5747bfd65f08deb54cb465eb87d40e51b197e600960006101000a81548173ffffffffffffffffffffffffffffffffffffffff021916908373ffffffffffffffffffffffffffffffffffffffff16021790555073bda5747bfd65f08deb54cb465eb87d40e51b197e600a60006101000a81548173ffffffffffffffffffffffffffffffffffffffff021916908373ffffffffffffffffffffffffffffffffffffffff1602179055503480156100bf57600080fd5b50615a51806100cf6000396000f3fe6080604052600436106200002c5760003560e01c80634f0b8df81462000031578063a1a2fbae1462000067575b600080fd5b6200004f6004803603810190620000499190620019de565b62000095565b6040516200005e919062001ab1565b60405180910390f35b3480156200007457600080fd5b506200009360048036038101906200008d919062001aff565b620005e0565b005b600080600080620000a98888888862001084565b925092509250660233295e993c4083620000c4919062001b6a565b34101562000109576040517f08c379a0000000000000000000000000000000000000000000000000000000008152600401620001009062001c2c565b60405180910390fd5b60003389898989308989896040516200012290620018ef565b620001369998979695949392919062001e79565b604051809103906000f08015801562000153573d6000803e3d6000fd5b5090506001600060010160008373ffffffffffffffffffffffffffffffffffffffff1673ffffffffffffffffffffffffffffffffffffffff16815260200190815260200160002060006101000a81548160ff021916908360ff160217905550620001f36040518060400160405280600e81526020017f4f7264657220616464726573732000000000000000000000000000000000000081525082620016ec565b60005b898990508163ffffffff161015620003b85760008a8a8363ffffffff1681811062000226576200022562001f16565b5b90506020020160208101906200023d919062001aff565b73ffffffffffffffffffffffffffffffffffffffff16838a8a8563ffffffff1681811062000270576200026f62001f16565b5b905060200201356040516024016200028a92919062001fb0565b6040516020818303038152906040527fdb6a3652000000000000000000000000000000000000000000000000000000007bffffffffffffffffffffffffffffffffffffffffffffffffffffffff19166020820180517bffffffffffffffffffffffffffffffffffffffffffffffffffffffff838183161783525050505060405162000316919062002060565b6000604051808303816000865af19150503d806000811462000355576040519150601f19603f3d011682016040523d82523d6000602084013e6200035a565b606091505b5050905080620003a1576040517f08c379a00000000000000000000000000000000000000000000000000000000081526004016200039890620020ef565b60405180910390fd5b508080620003af9062002121565b915050620001f6565b508073ffffffffffffffffffffffffffffffffffffffff166375eb7acc6040518163ffffffff1660e01b8152600401600060405180830381600087803b1580156200040257600080fd5b505af115801562000417573d6000803e3d6000fd5b5050505060005b89899050811015620005975760008a8a8381811062000442576200044162001f16565b5b905060200201602081019062000459919062001aff565b9050600081905060008a8a8581811062000478576200047762001f16565b5b9050602002013590508173ffffffffffffffffffffffffffffffffffffffff166317fa1f47828473ffffffffffffffffffffffffffffffffffffffff16630115949c6040518163ffffffff1660e01b815260040160206040518083038186803b158015620004e557600080fd5b505afa158015620004fa573d6000803e3d6000fd5b505050506040513d601f19601f8201168201806040525081019062000520919062002184565b6200052c9190620021b6565b6040518263ffffffff1660e01b81526004016200054a9190620021f1565b600060405180830381600087803b1580156200056557600080fd5b505af11580156200057a573d6000803e3d6000fd5b5050505050505080806200058e906200220e565b9150506200041e565b507f7f05d41edf3ac2c41ffc909463aec49ca76d116f47ecdfb6decd8eda51fba7f881604051620005c9919062001ab1565b60405180910390a180945050505050949350505050565b60008060010160008373ffffffffffffffffffffffffffffffffffffffff1673ffffffffffffffffffffffffffffffffffffffff16815260200190815260200160002060009054906101000a900460ff1660ff16141562000678576040517f08c379a00000000000000000000000000000000000000000000000000000000081526004016200066f90620022ac565b60405180910390fd5b6000819050600015158173ffffffffffffffffffffffffffffffffffffffff16634fbd39d36040518163ffffffff1660e01b815260040160206040518083038186803b158015620006c857600080fd5b505afa158015620006dd573d6000803e3d6000fd5b505050506040513d601f19601f820116820180604052508101906200070391906200230b565b15151462000748576040517f08c379a00000000000000000000000000000000000000000000000000000000081526004016200073f906200238d565b60405180910390fd5b8073ffffffffffffffffffffffffffffffffffffffff1663603daf9a6040518163ffffffff1660e01b815260040160206040518083038186803b1580156200078f57600080fd5b505afa158015620007a4573d6000803e3d6000fd5b505050506040513d601f19601f82011682018060405250810190620007ca9190620023c6565b73ffffffffffffffffffffffffffffffffffffffff163373ffffffffffffffffffffffffffffffffffffffff16146200083a576040517f08c379a0000000000000000000000000000000000000000000000000000000008152600401620008319062002448565b60405180910390fd5b60008173ffffffffffffffffffffffffffffffffffffffff1663444066176040518163ffffffff1660e01b815260040160006040518083038186803b1580156200088357600080fd5b505afa15801562000898573d6000803e3d6000fd5b505050506040513d6000823e3d601f19601f82011682018060405250810190620008c39190620025d5565b905060008273ffffffffffffffffffffffffffffffffffffffff16634117163e6040518163ffffffff1660e01b815260040160006040518083038186803b1580156200090e57600080fd5b505afa15801562000923573d6000803e3d6000fd5b505050506040513d6000823e3d601f19601f820116820180604052508101906200094e9190620026fc565b9050600080600080620009966040518060400160405280601081526020017f696e7369646520706179206f72646572000000000000000000000000000000008152506200178c565b60005b865181101562000de2576000878281518110620009bb57620009ba62001f16565b5b60200260200101519050600081905060008a73ffffffffffffffffffffffffffffffffffffffff1663cabdba5b846040518263ffffffff1660e01b815260040162000a07919062001ab1565b60206040518083038186803b15801562000a2057600080fd5b505afa15801562000a35573d6000803e3d6000fd5b505050506040513d601f19601f8201168201806040525081019062000a5b919062002184565b9050600089858151811062000a755762000a7462001f16565b5b602002602001015190506000600601548162000a92919062001b6a565b8862000a9f91906200274d565b975062000b2d8373ffffffffffffffffffffffffffffffffffffffff16638b2a90596040518163ffffffff1660e01b815260040160206040518083038186803b15801562000aec57600080fd5b505afa15801562000b01573d6000803e3d6000fd5b505050506040513d601f19601f8201168201806040525081019062000b27919062002184565b62001829565b8273ffffffffffffffffffffffffffffffffffffffff16638b2a90596040518163ffffffff1660e01b815260040160206040518083038186803b15801562000b7457600080fd5b505afa15801562000b89573d6000803e3d6000fd5b505050506040513d601f19601f8201168201806040525081019062000baf919062002184565b8162000bbc919062001b6a565b8762000bc991906200274d565b96508273ffffffffffffffffffffffffffffffffffffffff1663bdb7f00e6040518163ffffffff1660e01b815260040160206040518083038186803b15801562000c1257600080fd5b505afa15801562000c27573d6000803e3d6000fd5b505050506040513d601f19601f8201168201806040525081019062000c4d919062002184565b8662000c5a91906200274d565b95506000660233295e993c40838362000c74919062001b6a565b62000c80919062001b6a565b905060008473ffffffffffffffffffffffffffffffffffffffff1663dbd0e1b66040518163ffffffff1660e01b815260040160206040518083038186803b15801562000ccb57600080fd5b505afa15801562000ce0573d6000803e3d6000fd5b505050506040513d601f19601f8201168201806040525081019062000d069190620023c6565b73ffffffffffffffffffffffffffffffffffffffff168260405162000d2b90620027d4565b60006040518083038185875af1925050503d806000811462000d6a576040519150601f19603f3d011682016040523d82523d6000602084013e62000d6f565b606091505b505090508062000db6576040517f08c379a000000000000000000000000000000000000000000000000000000000815260040162000dad906200283b565b60405180910390fd5b818b62000dc491906200274d565b9a50505050505050808062000dd9906200220e565b91505062000999565b5062000e236040518060400160405280600b81526020017f53656c6c657220506169640000000000000000000000000000000000000000008152506200178c565b62000e2e8462001829565b660233295e993c408362000e43919062001b6a565b925062000e508362001829565b60008773ffffffffffffffffffffffffffffffffffffffff166343c97c846040518163ffffffff1660e01b815260040160206040518083038186803b15801562000e9957600080fd5b505afa15801562000eae573d6000803e3d6000fd5b505050506040513d601f19601f8201168201806040525081019062000ed49190620023c6565b73ffffffffffffffffffffffffffffffffffffffff168460405162000ef990620027d4565b60006040518083038185875af1925050503d806000811462000f38576040519150601f19603f3d011682016040523d82523d6000602084013e62000f3d565b606091505b505090508062000f84576040517f08c379a000000000000000000000000000000000000000000000000000000000815260040162000f7b906200283b565b60405180910390fd5b62000fc46040518060400160405280601081526020017f64656c69766572796d616e2050616964000000000000000000000000000000008152506200178c565b62000fcf8462001829565b8773ffffffffffffffffffffffffffffffffffffffff1663ccd44ccf60016040518263ffffffff1660e01b81526004016200100b91906200286e565b600060405180830381600087803b1580156200102657600080fd5b505af11580156200103b573d6000803e3d6000fd5b505050507fcb0bc61b2b12eb59f1ea69658a099061318800bfa027a18071aacaaceda4808160016040516200107191906200286e565b60405180910390a1505050505050505050565b6000606080848490508787905014620010d4576040517f08c379a0000000000000000000000000000000000000000000000000000000008152600401620010cb90620028db565b60405180910390fd5b6000806000806008819055506000808b8b905067ffffffffffffffff8111156200110357620011026200247b565b5b604051908082528060200260200182016040528015620011325781602001602082028036833780820191505090505b50905060008c8c905067ffffffffffffffff8111156200115757620011566200247b565b5b604051908082528060200260200182016040528015620011865781602001602082028036833780820191505090505b50905060005b8d8d9050811015620016a65760008e8e83818110620011b057620011af62001f16565b5b9050602002016020810190620011c7919062001aff565b905060008060020160008373ffffffffffffffffffffffffffffffffffffffff1673ffffffffffffffffffffffffffffffffffffffff16815260200190815260200160002060009054906101000a900460ff1660ff16141562001261576040517f08c379a000000000000000000000000000000000000000000000000000000000815260040162001258906200294d565b60405180910390fd5b600081905060008e8e858181106200127e576200127d62001f16565b5b905060200201359050808273ffffffffffffffffffffffffffffffffffffffff16630115949c6040518163ffffffff1660e01b815260040160206040518083038186803b158015620012cf57600080fd5b505afa158015620012e4573d6000803e3d6000fd5b505050506040513d601f19601f820116820180604052508101906200130a919062002184565b10156200134e576040517f08c379a00000000000000000000000000000000000000000000000000000000081526004016200134590620029e5565b60405180910390fd5b8173ffffffffffffffffffffffffffffffffffffffff166398d5fdca6040518163ffffffff1660e01b815260040160206040518083038186803b1580156200139557600080fd5b505afa158015620013aa573d6000803e3d6000fd5b505050506040513d601f19601f82011682018060405250810190620013d0919062002184565b868581518110620013e657620013e562001f16565b5b6020026020010181815250508173ffffffffffffffffffffffffffffffffffffffff166384aa33656040518163ffffffff1660e01b815260040160206040518083038186803b1580156200143957600080fd5b505afa1580156200144e573d6000803e3d6000fd5b505050506040513d601f19601f8201168201806040525081019062001474919062002184565b8585815181106200148a576200148962001f16565b5b602002602001018181525050808273ffffffffffffffffffffffffffffffffffffffff166398d5fdca6040518163ffffffff1660e01b815260040160206040518083038186803b158015620014de57600080fd5b505afa158015620014f3573d6000803e3d6000fd5b505050506040513d601f19601f8201168201806040525081019062001519919062002184565b62001525919062001b6a565b8a6200153291906200274d565b99508060075462001544919062001b6a565b896200155191906200274d565b9850808273ffffffffffffffffffffffffffffffffffffffff16638b2a90596040518163ffffffff1660e01b815260040160206040518083038186803b1580156200159b57600080fd5b505afa158015620015b0573d6000803e3d6000fd5b505050506040513d601f19601f82011682018060405250810190620015d6919062002184565b620015e2919062001b6a565b88620015ef91906200274d565b97508173ffffffffffffffffffffffffffffffffffffffff1663bdb7f00e6040518163ffffffff1660e01b815260040160206040518083038186803b1580156200163857600080fd5b505afa1580156200164d573d6000803e3d6000fd5b505050506040513d601f19601f8201168201806040525081019062001673919062002184565b600860008282546200168691906200274d565b9250508190555050505080806200169d906200220e565b9150506200118c565b50600854848688620016b991906200274d565b620016c591906200274d565b620016d191906200274d565b92508282829850985098505050505050509450945094915050565b6200178882826040516024016200170592919062002a53565b6040516020818303038152906040527f319af333000000000000000000000000000000000000000000000000000000007bffffffffffffffffffffffffffffffffffffffffffffffffffffffff19166020820180517bffffffffffffffffffffffffffffffffffffffffffffffffffffffff8381831617835250505050620018c6565b5050565b6200182681604051602401620017a3919062002a87565b6040516020818303038152906040527f41304fac000000000000000000000000000000000000000000000000000000007bffffffffffffffffffffffffffffffffffffffffffffffffffffffff19166020820180517bffffffffffffffffffffffffffffffffffffffffffffffffffffffff8381831617835250505050620018c6565b50565b620018c381604051602401620018409190620021f1565b6040516020818303038152906040527ff5b1bba9000000000000000000000000000000000000000000000000000000007bffffffffffffffffffffffffffffffffffffffffffffffffffffffff19166020820180517bffffffffffffffffffffffffffffffffffffffffffffffffffffffff8381831617835250505050620018c6565b50565b60008151905060006a636f6e736f6c652e6c6f679050602083016000808483855afa5050505050565b612f708062002aac83390190565b6000604051905090565b600080fd5b600080fd5b600080fd5b600080fd5b600080fd5b60008083601f84011262001939576200193862001911565b5b8235905067ffffffffffffffff81111562001959576200195862001916565b5b6020830191508360208202830111156200197857620019776200191b565b5b9250929050565b60008083601f84011262001998576200199762001911565b5b8235905067ffffffffffffffff811115620019b857620019b762001916565b5b602083019150836020820283011115620019d757620019d66200191b565b5b9250929050565b60008060008060408587031215620019fb57620019fa62001907565b5b600085013567ffffffffffffffff81111562001a1c5762001a1b6200190c565b5b62001a2a8782880162001920565b9450945050602085013567ffffffffffffffff81111562001a505762001a4f6200190c565b5b62001a5e878288016200197f565b925092505092959194509250565b600073ffffffffffffffffffffffffffffffffffffffff82169050919050565b600062001a998262001a6c565b9050919050565b62001aab8162001a8c565b82525050565b600060208201905062001ac8600083018462001aa0565b92915050565b62001ad98162001a8c565b811462001ae557600080fd5b50565b60008135905062001af98162001ace565b92915050565b60006020828403121562001b185762001b1762001907565b5b600062001b288482850162001ae8565b91505092915050565b6000819050919050565b7f4e487b7100000000000000000000000000000000000000000000000000000000600052601160045260246000fd5b600062001b778262001b31565b915062001b848362001b31565b9250817fffffffffffffffffffffffffffffffffffffffffffffffffffffffffffffffff048311821515161562001bc05762001bbf62001b3b565b5b828202905092915050565b600082825260208201905092915050565b7f596f75206e65656420746f207370656e64206d6f726520455448210000000000600082015250565b600062001c14601b8362001bcb565b915062001c218262001bdc565b602082019050919050565b6000602082019050818103600083015262001c478162001c05565b9050919050565b600082825260208201905092915050565b6000819050919050565b62001c748162001a8c565b82525050565b600062001c88838362001c69565b60208301905092915050565b600062001ca5602084018462001ae8565b905092915050565b6000602082019050919050565b600062001cc8838562001c4e565b935062001cd58262001c5f565b8060005b8581101562001d165762001cee828462001c94565b62001cfa888262001c7a565b975062001d078362001cad565b92505060018101905062001cd9565b5085925050509392505050565b600082825260208201905092915050565b600080fd5b82818337600083830152505050565b600062001d56838562001d23565b93507f07ffffffffffffffffffffffffffffffffffffffffffffffffffffffffffffff83111562001d8c5762001d8b62001d34565b5b60208302925062001d9f83858462001d39565b82840190509392505050565b62001db68162001b31565b82525050565b600081519050919050565b6000819050602082019050919050565b62001de28162001b31565b82525050565b600062001df6838362001dd7565b60208301905092915050565b6000602082019050919050565b600062001e1c8262001dbc565b62001e28818562001d23565b935062001e358362001dc7565b8060005b8381101562001e6c57815162001e50888262001de8565b975062001e5d8362001e02565b92505060018101905062001e39565b5085935050505092915050565b600060e08201905062001e90600083018c62001aa0565b818103602083015262001ea5818a8c62001cba565b9050818103604083015262001ebc81888a62001d48565b905062001ecd606083018762001aa0565b62001edc608083018662001dab565b81810360a083015262001ef0818562001e0f565b905081810360c083015262001f06818462001e0f565b90509a9950505050505050505050565b7f4e487b7100000000000000000000000000000000000000000000000000000000600052603260045260246000fd5b6000819050919050565b600062001f7062001f6a62001f648462001a6c565b62001f45565b62001a6c565b9050919050565b600062001f848262001f4f565b9050919050565b600062001f988262001f77565b9050919050565b62001faa8162001f8b565b82525050565b600060408201905062001fc7600083018562001f9f565b62001fd6602083018462001dab565b9392505050565b600081519050919050565b600081905092915050565b60005b838110156200201357808201518184015260208101905062001ff6565b8381111562002023576000848401525b50505050565b6000620020368262001fdd565b62002042818562001fe8565b93506200205481856020860162001ff3565b80840191505092915050565b60006200206e828462002029565b915081905092915050565b7f4f7264657220616464656420746f2050726f647563747320697320554e53554360008201527f4345535346554c21212066726f6d2045436d61727420636f6e74726163740000602082015250565b6000620020d7603e8362001bcb565b9150620020e48262002079565b604082019050919050565b600060208201905081810360008301526200210a81620020c8565b9050919050565b600063ffffffff82169050919050565b60006200212e8262002111565b915063ffffffff82141562002148576200214762001b3b565b5b600182019050919050565b6200215e8162001b31565b81146200216a57600080fd5b50565b6000815190506200217e8162002153565b92915050565b6000602082840312156200219d576200219c62001907565b5b6000620021ad848285016200216d565b91505092915050565b6000620021c38262001b31565b9150620021d08362001b31565b925082821015620021e657620021e562001b3b565b5b828203905092915050565b600060208201905062002208600083018462001dab565b92915050565b60006200221b8262001b31565b91507fffffffffffffffffffffffffffffffffffffffffffffffffffffffffffffffff82141562002251576200225062001b3b565b5b600182019050919050565b7f496e76616c6964206f7264657200000000000000000000000000000000000000600082015250565b600062002294600d8362001bcb565b9150620022a1826200225c565b602082019050919050565b60006020820190508181036000830152620022c78162002285565b9050919050565b60008115159050919050565b620022e581620022ce565b8114620022f157600080fd5b50565b6000815190506200230581620022da565b92915050565b60006020828403121562002324576200232362001907565b5b60006200233484828501620022f4565b91505092915050565b7f416c726561647920506169640000000000000000000000000000000000000000600082015250565b600062002375600c8362001bcb565b915062002382826200233d565b602082019050919050565b60006020820190508181036000830152620023a88162002366565b9050919050565b600081519050620023c08162001ace565b92915050565b600060208284031215620023df57620023de62001907565b5b6000620023ef84828501620023af565b91505092915050565b7f4f6e6c79207468652062757965722063616e20706179207468652062696c6c00600082015250565b600062002430601f8362001bcb565b91506200243d82620023f8565b602082019050919050565b60006020820190508181036000830152620024638162002421565b9050919050565b6000601f19601f8301169050919050565b7f4e487b7100000000000000000000000000000000000000000000000000000000600052604160045260246000fd5b620024b5826200246a565b810181811067ffffffffffffffff82111715620024d757620024d66200247b565b5b80604052505050565b6000620024ec620018fd565b9050620024fa8282620024aa565b919050565b600067ffffffffffffffff8211156200251d576200251c6200247b565b5b602082029050602081019050919050565b6000620025456200253f84620024ff565b620024e0565b905080838252602082019050602084028301858111156200256b576200256a6200191b565b5b835b81811015620025985780620025838882620023af565b8452602084019350506020810190506200256d565b5050509392505050565b600082601f830112620025ba57620025b962001911565b5b8151620025cc8482602086016200252e565b91505092915050565b600060208284031215620025ee57620025ed62001907565b5b600082015167ffffffffffffffff8111156200260f576200260e6200190c565b5b6200261d84828501620025a2565b91505092915050565b600067ffffffffffffffff8211156200264457620026436200247b565b5b602082029050602081019050919050565b60006200266c620026668462002626565b620024e0565b905080838252602082019050602084028301858111156200269257620026916200191b565b5b835b81811015620026bf5780620026aa88826200216d565b84526020840193505060208101905062002694565b5050509392505050565b600082601f830112620026e157620026e062001911565b5b8151620026f384826020860162002655565b91505092915050565b60006020828403121562002715576200271462001907565b5b600082015167ffffffffffffffff8111156200273657620027356200190c565b5b6200274484828501620026c9565b91505092915050565b60006200275a8262001b31565b9150620027678362001b31565b9250827fffffffffffffffffffffffffffffffffffffffffffffffffffffffffffffffff038211156200279f576200279e62001b3b565b5b828201905092915050565b50565b6000620027bc60008362001fe8565b9150620027c982620027aa565b600082019050919050565b6000620027e182620027ad565b9150819050919050565b7f43616c6c206661696c6564000000000000000000000000000000000000000000600082015250565b600062002823600b8362001bcb565b91506200283082620027eb565b602082019050919050565b60006020820190508181036000830152620028568162002814565b9050919050565b6200286881620022ce565b82525050565b60006020820190506200288560008301846200285d565b92915050565b7f417272617973206d7573742068617665207468652073616d65206c656e677468600082015250565b6000620028c360208362001bcb565b9150620028d0826200288b565b602082019050919050565b60006020820190508181036000830152620028f681620028b4565b9050919050565b7f50726f6475637420646f65736e27742065786973740000000000000000000000600082015250565b60006200293560158362001bcb565b91506200294282620028fd565b602082019050919050565b60006020820190508181036000830152620029688162002926565b9050919050565b7f50726f6475637420696e76656e746f7279206973206e6f74205375666669636960008201527f656e740000000000000000000000000000000000000000000000000000000000602082015250565b6000620029cd60238362001bcb565b9150620029da826200296f565b604082019050919050565b6000602082019050818103600083015262002a0081620029be565b9050919050565b600081519050919050565b600062002a1f8262002a07565b62002a2b818562001bcb565b935062002a3d81856020860162001ff3565b62002a48816200246a565b840191505092915050565b6000604082019050818103600083015262002a6f818562002a12565b905062002a80602083018462001aa0565b9392505050565b6000602082019050818103600083015262002aa3818462002a12565b90509291505056fe60806040526000600e60006101000a81548160ff0219169083151502179055506000601060006101000a81548160ff0219169083151502179055506000601260006101000a81548160ff0219169083151502179055503480156200006257600080fd5b5060405162002f7038038062002f70833981810160405281019062000088919062000709565b8451865114620000cf576040517f08c379a0000000000000000000000000000000000000000000000000000000008152600401620000c69062000899565b60405180910390fd5b83600260006101000a81548173ffffffffffffffffffffffffffffffffffffffff021916908373ffffffffffffffffffffffffffffffffffffffff16021790555042600d81905550866000806101000a81548173ffffffffffffffffffffffffffffffffffffffff021916908373ffffffffffffffffffffffffffffffffffffffff16021790555085600390805190602001906200016f9291906200030a565b5084600490805190602001906200018892919062000399565b508160059080519060200190620001a192919062000399565b508060069080519060200190620001ba92919062000399565b5082600f819055506001600e60006101000a81548160ff02191690831515021790555060005b8651811015620002fc578581815181106200020057620001ff620008bb565b5b602002602001015160096000898481518110620002225762000221620008bb565b5b602002602001015173ffffffffffffffffffffffffffffffffffffffff1673ffffffffffffffffffffffffffffffffffffffff168152602001908152602001600020819055508281815181106200027e576200027d620008bb565b5b6020026020010151600a6000898481518110620002a0576200029f620008bb565b5b602002602001015173ffffffffffffffffffffffffffffffffffffffff1673ffffffffffffffffffffffffffffffffffffffff168152602001908152602001600020819055508080620002f39062000919565b915050620001e0565b505050505050505062000967565b82805482825590600052602060002090810192821562000386579160200282015b82811115620003855782518260006101000a81548173ffffffffffffffffffffffffffffffffffffffff021916908373ffffffffffffffffffffffffffffffffffffffff160217905550916020019190600101906200032b565b5b509050620003959190620003eb565b5090565b828054828255906000526020600020908101928215620003d8579160200282015b82811115620003d7578251825591602001919060010190620003ba565b5b509050620003e79190620003eb565b5090565b5b8082111562000406576000816000905550600101620003ec565b5090565b6000604051905090565b600080fd5b600080fd5b600073ffffffffffffffffffffffffffffffffffffffff82169050919050565b60006200044b826200041e565b9050919050565b6200045d816200043e565b81146200046957600080fd5b50565b6000815190506200047d8162000452565b92915050565b600080fd5b6000601f19601f8301169050919050565b7f4e487b7100000000000000000000000000000000000000000000000000000000600052604160045260246000fd5b620004d38262000488565b810181811067ffffffffffffffff82111715620004f557620004f462000499565b5b80604052505050565b60006200050a6200040a565b9050620005188282620004c8565b919050565b600067ffffffffffffffff8211156200053b576200053a62000499565b5b602082029050602081019050919050565b600080fd5b60006200056862000562846200051d565b620004fe565b905080838252602082019050602084028301858111156200058e576200058d6200054c565b5b835b81811015620005bb5780620005a688826200046c565b84526020840193505060208101905062000590565b5050509392505050565b600082601f830112620005dd57620005dc62000483565b5b8151620005ef84826020860162000551565b91505092915050565b600067ffffffffffffffff82111562000616576200061562000499565b5b602082029050602081019050919050565b6000819050919050565b6200063c8162000627565b81146200064857600080fd5b50565b6000815190506200065c8162000631565b92915050565b6000620006796200067384620005f8565b620004fe565b905080838252602082019050602084028301858111156200069f576200069e6200054c565b5b835b81811015620006cc5780620006b788826200064b565b845260208401935050602081019050620006a1565b5050509392505050565b600082601f830112620006ee57620006ed62000483565b5b81516200070084826020860162000662565b91505092915050565b600080600080600080600060e0888a0312156200072b576200072a62000414565b5b60006200073b8a828b016200046c565b975050602088015167ffffffffffffffff8111156200075f576200075e62000419565b5b6200076d8a828b01620005c5565b965050604088015167ffffffffffffffff81111562000791576200079062000419565b5b6200079f8a828b01620006d6565b9550506060620007b28a828b016200046c565b9450506080620007c58a828b016200064b565b93505060a088015167ffffffffffffffff811115620007e957620007e862000419565b5b620007f78a828b01620006d6565b92505060c088015167ffffffffffffffff8111156200081b576200081a62000419565b5b620008298a828b01620006d6565b91505092959891949750929550565b600082825260208201905092915050565b7f417272617973206d7573742068617665207468652073616d65206c656e677468600082015250565b60006200088160208362000838565b91506200088e8262000849565b602082019050919050565b60006020820190508181036000830152620008b48162000872565b9050919050565b7f4e487b7100000000000000000000000000000000000000000000000000000000600052603260045260246000fd5b7f4e487b7100000000000000000000000000000000000000000000000000000000600052601160045260246000fd5b6000620009268262000627565b91507fffffffffffffffffffffffffffffffffffffffffffffffffffffffffffffffff8214156200095c576200095b620008ea565b5b600182019050919050565b6125f980620009776000396000f3fe608060405234801561001057600080fd5b50600436106101f05760003560e01c80638da5cb5b1161010f578063bdb92074116100a2578063ccd2f89f11610071578063ccd2f89f14610567578063ccd44ccf14610585578063d2cf4be2146105a1578063fb24359f146105d1576101f0565b8063bdb92074146104df578063c46dacd9146104fb578063c741a8dd14610519578063cabdba5b14610537576101f0565b8063acf4ede0116100de578063acf4ede014610445578063ad7c6ed114610461578063ae4890821461047f578063bc7ae422146104af576101f0565b80638da5cb5b146103d157806397f9481f146103ef578063a71494f11461040b578063ab3cb34c14610429576101f0565b8063444066171161018757806375eb7acc1161015657806375eb7acc1461036d578063765f744c14610377578063779cd083146103955780637aada134146103b3576101f0565b806344406617146102f55780634fbd39d314610313578063603daf9a146103315780637150d8ae1461034f576101f0565b8063209ebc08116101c3578063209ebc081461027d5780633095114c1461029b5780634117163e146102b957806343c97c84146102d7576101f0565b80630a907686146101f557806311b34c5a14610213578063141c08c21461022f578063200d2ed21461025f575b600080fd5b6101fd6105ef565b60405161020a919061183b565b60405180910390f35b61022d600480360381019061022891906118a2565b6105f9565b005b610249600480360381019061024491906118fb565b6106a6565b604051610256919061183b565b60405180910390f35b6102676106ca565b6040516102749190611947565b60405180910390f35b6102856106e0565b6040516102929190611971565b60405180910390f35b6102a36106f3565b6040516102b091906119cd565b60405180910390f35b6102c1610719565b6040516102ce9190611aa6565b60405180910390f35b6102df610771565b6040516102ec91906119cd565b60405180910390f35b6102fd61079b565b60405161030a9190611b86565b60405180910390f35b61031b610829565b6040516103289190611971565b60405180910390f35b610339610840565b60405161034691906119cd565b60405180910390f35b610357610869565b60405161036491906119cd565b60405180910390f35b61037561088d565b005b61037f610ae8565b60405161038c9190611971565b60405180910390f35b61039d610afb565b6040516103aa9190611971565b60405180910390f35b6103bb610b0e565b6040516103c8919061183b565b60405180910390f35b6103d9610b14565b6040516103e691906119cd565b60405180910390f35b61040960048036038101906104049190611d53565b610b3a565b005b610413610d8d565b604051610420919061183b565b60405180910390f35b610443600480360381019061043e9190611dc2565b610d93565b005b61045f600480360381019061045a91906118fb565b610e67565b005b610469610f01565b604051610476919061183b565b60405180910390f35b610499600480360381019061049491906118fb565b610f07565b6040516104a691906119cd565b60405180910390f35b6104c960048036038101906104c491906118fb565b610f46565b6040516104d6919061183b565b60405180910390f35b6104f960048036038101906104f49190611f7a565b610f6a565b005b610503611343565b6040516105109190611aa6565b60405180910390f35b61052161139b565b60405161052e9190611aa6565b60405180910390f35b610551600480360381019061054c9190611dc2565b611483565b60405161055e919061183b565b60405180910390f35b61056f61155c565b60405161057c9190611aa6565b60405180910390f35b61059f600480360381019061059a91906118a2565b6115b4565b005b6105bb60048036038101906105b691906118fb565b611661565b6040516105c891906119cd565b60405180910390f35b6105d96116a0565b6040516105e69190611b86565b60405180910390f35b6000600f54905090565b600260009054906101000a900473ffffffffffffffffffffffffffffffffffffffff1673ffffffffffffffffffffffffffffffffffffffff163373ffffffffffffffffffffffffffffffffffffffff1614610689576040517f08c379a00000000000000000000000000000000000000000000000000000000081526004016106809061204f565b60405180910390fd5b80601060006101000a81548160ff02191690831515021790555050565b600881815481106106b657600080fd5b906000526020600020016000915090505481565b600c60009054906101000a900463ffffffff1681565b600e60009054906101000a900460ff1681565b600160009054906101000a900473ffffffffffffffffffffffffffffffffffffffff1681565b6060600880548060200260200160405190810160405280929190818152602001828054801561076757602002820191906000526020600020905b815481526020019060010190808311610753575b5050505050905090565b6000600160009054906101000a900473ffffffffffffffffffffffffffffffffffffffff16905090565b6060600780548060200260200160405190810160405280929190818152602001828054801561081f57602002820191906000526020600020905b8160009054906101000a900473ffffffffffffffffffffffffffffffffffffffff1673ffffffffffffffffffffffffffffffffffffffff16815260200190600101908083116107d5575b5050505050905090565b6000601260009054906101000a900460ff16905090565b60008060009054906101000a900473ffffffffffffffffffffffffffffffffffffffff16905090565b60008054906101000a900473ffffffffffffffffffffffffffffffffffffffff1681565b600260009054906101000a900473ffffffffffffffffffffffffffffffffffffffff1673ffffffffffffffffffffffffffffffffffffffff163373ffffffffffffffffffffffffffffffffffffffff161461091d576040517f08c379a00000000000000000000000000000000000000000000000000000000081526004016109149061204f565b60405180910390fd5b60005b6003805490508163ffffffff161015610ae557600060038263ffffffff168154811061094f5761094e61206f565b5b9060005260206000200160009054906101000a900473ffffffffffffffffffffffffffffffffffffffff1673ffffffffffffffffffffffffffffffffffffffff1660008054906101000a900473ffffffffffffffffffffffffffffffffffffffff166040516024016109c191906119cd565b6040516020818303038152906040527fbbf89803000000000000000000000000000000000000000000000000000000007bffffffffffffffffffffffffffffffffffffffffffffffffffffffff19166020820180517bffffffffffffffffffffffffffffffffffffffffffffffffffffffff8381831617835250505050604051610a4b9190612118565b6000604051808303816000865af19150503d8060008114610a88576040519150601f19603f3d011682016040523d82523d6000602084013e610a8d565b606091505b5050905080610ad1576040517f08c379a0000000000000000000000000000000000000000000000000000000008152600401610ac8906121a1565b60405180910390fd5b508080610add906121f0565b915050610920565b50565b601260009054906101000a900460ff1681565b601060009054906101000a900460ff1681565b600d5481565b600260009054906101000a900473ffffffffffffffffffffffffffffffffffffffff1681565b60008054906101000a900473ffffffffffffffffffffffffffffffffffffffff1673ffffffffffffffffffffffffffffffffffffffff163373ffffffffffffffffffffffffffffffffffffffff1614610bc8576040517f08c379a0000000000000000000000000000000000000000000000000000000008152600401610bbf9061228f565b60405180910390fd5b6000600960008573ffffffffffffffffffffffffffffffffffffffff1673ffffffffffffffffffffffffffffffffffffffff168152602001908152602001600020541415610c4b576040517f08c379a0000000000000000000000000000000000000000000000000000000008152600401610c4290612321565b60405180910390fd5b60008373ffffffffffffffffffffffffffffffffffffffff168383604051602401610c77929190612394565b6040516020818303038152906040527f26cd59b3000000000000000000000000000000000000000000000000000000007bffffffffffffffffffffffffffffffffffffffffffffffffffffffff19166020820180517bffffffffffffffffffffffffffffffffffffffffffffffffffffffff8381831617835250505050604051610d019190612118565b6000604051808303816000865af19150503d8060008114610d3e576040519150601f19603f3d011682016040523d82523d6000602084013e610d43565b606091505b5050905080610d87576040517f08c379a0000000000000000000000000000000000000000000000000000000008152600401610d7e90612436565b60405180910390fd5b50505050565b600f5481565b600260009054906101000a900473ffffffffffffffffffffffffffffffffffffffff1673ffffffffffffffffffffffffffffffffffffffff163373ffffffffffffffffffffffffffffffffffffffff1614610e23576040517f08c379a0000000000000000000000000000000000000000000000000000000008152600401610e1a9061204f565b60405180910390fd5b80600160006101000a81548173ffffffffffffffffffffffffffffffffffffffff021916908373ffffffffffffffffffffffffffffffffffffffff16021790555050565b600260009054906101000a900473ffffffffffffffffffffffffffffffffffffffff1673ffffffffffffffffffffffffffffffffffffffff163373ffffffffffffffffffffffffffffffffffffffff1614610ef7576040517f08c379a0000000000000000000000000000000000000000000000000000000008152600401610eee9061204f565b60405180910390fd5b8060118190555050565b60115481565b60038181548110610f1757600080fd5b906000526020600020016000915054906101000a900473ffffffffffffffffffffffffffffffffffffffff1681565b60048181548110610f5657600080fd5b906000526020600020016000915090505481565b600260009054906101000a900473ffffffffffffffffffffffffffffffffffffffff1673ffffffffffffffffffffffffffffffffffffffff163373ffffffffffffffffffffffffffffffffffffffff1614610ffa576040517f08c379a0000000000000000000000000000000000000000000000000000000008152600401610ff19061204f565b60405180910390fd5b60005b8251811015611147578181815181106110195761101861206f565b5b6020026020010151600960008584815181106110385761103761206f565b5b602002602001015173ffffffffffffffffffffffffffffffffffffffff1673ffffffffffffffffffffffffffffffffffffffff1681526020019081526020016000205411156110bc576040517f08c379a00000000000000000000000000000000000000000000000000000000081526004016110b3906124c8565b60405180910390fd5b8181815181106110cf576110ce61206f565b5b6020026020010151600b60008584815181106110ee576110ed61206f565b5b602002602001015173ffffffffffffffffffffffffffffffffffffffff1673ffffffffffffffffffffffffffffffffffffffff16815260200190815260200160002081905550808061113f906124e8565b915050610ffd565b50816007908051906020019061115e92919061172e565b5080600890805190602001906111759291906117b8565b5060005b6003805490508163ffffffff16101561133e57600060038263ffffffff16815481106111a8576111a761206f565b5b9060005260206000200160009054906101000a900473ffffffffffffffffffffffffffffffffffffffff1673ffffffffffffffffffffffffffffffffffffffff1660008054906101000a900473ffffffffffffffffffffffffffffffffffffffff1660405160240161121a91906119cd565b6040516020818303038152906040527f317c9984000000000000000000000000000000000000000000000000000000007bffffffffffffffffffffffffffffffffffffffffffffffffffffffff19166020820180517bffffffffffffffffffffffffffffffffffffffffffffffffffffffff83818316178352505050506040516112a49190612118565b6000604051808303816000865af19150503d80600081146112e1576040519150601f19603f3d011682016040523d82523d6000602084013e6112e6565b606091505b505090508061132a576040517f08c379a0000000000000000000000000000000000000000000000000000000008152600401611321906125a3565b60405180910390fd5b508080611336906121f0565b915050611179565b505050565b6060600480548060200260200160405190810160405280929190818152602001828054801561139157602002820191906000526020600020905b81548152602001906001019080831161137d575b5050505050905090565b6060600260009054906101000a900473ffffffffffffffffffffffffffffffffffffffff1673ffffffffffffffffffffffffffffffffffffffff163373ffffffffffffffffffffffffffffffffffffffff161461142d576040517f08c379a00000000000000000000000000000000000000000000000000000000081526004016114249061204f565b60405180910390fd5b600580548060200260200160405190810160405280929190818152602001828054801561147957602002820191906000526020600020905b815481526020019060010190808311611465575b5050505050905090565b6000600260009054906101000a900473ffffffffffffffffffffffffffffffffffffffff1673ffffffffffffffffffffffffffffffffffffffff163373ffffffffffffffffffffffffffffffffffffffff1614611515576040517f08c379a000000000000000000000000000000000000000000000000000000000815260040161150c9061204f565b60405180910390fd5b600a60008373ffffffffffffffffffffffffffffffffffffffff1673ffffffffffffffffffffffffffffffffffffffff168152602001908152602001600020549050919050565b606060068054806020026020016040519081016040528092919081815260200182805480156115aa57602002820191906000526020600020905b815481526020019060010190808311611596575b5050505050905090565b600260009054906101000a900473ffffffffffffffffffffffffffffffffffffffff1673ffffffffffffffffffffffffffffffffffffffff163373ffffffffffffffffffffffffffffffffffffffff1614611644576040517f08c379a000000000000000000000000000000000000000000000000000000000815260040161163b9061204f565b60405180910390fd5b80601260006101000a81548160ff02191690831515021790555050565b6007818154811061167157600080fd5b906000526020600020016000915054906101000a900473ffffffffffffffffffffffffffffffffffffffff1681565b6060600380548060200260200160405190810160405280929190818152602001828054801561172457602002820191906000526020600020905b8160009054906101000a900473ffffffffffffffffffffffffffffffffffffffff1673ffffffffffffffffffffffffffffffffffffffff16815260200190600101908083116116da575b5050505050905090565b8280548282559060005260206000209081019282156117a7579160200282015b828111156117a65782518260006101000a81548173ffffffffffffffffffffffffffffffffffffffff021916908373ffffffffffffffffffffffffffffffffffffffff1602179055509160200191906001019061174e565b5b5090506117b49190611805565b5090565b8280548282559060005260206000209081019282156117f4579160200282015b828111156117f35782518255916020019190600101906117d8565b5b5090506118019190611805565b5090565b5b8082111561181e576000816000905550600101611806565b5090565b6000819050919050565b61183581611822565b82525050565b6000602082019050611850600083018461182c565b92915050565b6000604051905090565b600080fd5b600080fd5b60008115159050919050565b61187f8161186a565b811461188a57600080fd5b50565b60008135905061189c81611876565b92915050565b6000602082840312156118b8576118b7611860565b5b60006118c68482850161188d565b91505092915050565b6118d881611822565b81146118e357600080fd5b50565b6000813590506118f5816118cf565b92915050565b60006020828403121561191157611910611860565b5b600061191f848285016118e6565b91505092915050565b600063ffffffff82169050919050565b61194181611928565b82525050565b600060208201905061195c6000830184611938565b92915050565b61196b8161186a565b82525050565b60006020820190506119866000830184611962565b92915050565b600073ffffffffffffffffffffffffffffffffffffffff82169050919050565b60006119b78261198c565b9050919050565b6119c7816119ac565b82525050565b60006020820190506119e260008301846119be565b92915050565b600081519050919050565b600082825260208201905092915050565b6000819050602082019050919050565b611a1d81611822565b82525050565b6000611a2f8383611a14565b60208301905092915050565b6000602082019050919050565b6000611a53826119e8565b611a5d81856119f3565b9350611a6883611a04565b8060005b83811015611a99578151611a808882611a23565b9750611a8b83611a3b565b925050600181019050611a6c565b5085935050505092915050565b60006020820190508181036000830152611ac08184611a48565b905092915050565b600081519050919050565b600082825260208201905092915050565b6000819050602082019050919050565b611afd816119ac565b82525050565b6000611b0f8383611af4565b60208301905092915050565b6000602082019050919050565b6000611b3382611ac8565b611b3d8185611ad3565b9350611b4883611ae4565b8060005b83811015611b79578151611b608882611b03565b9750611b6b83611b1b565b925050600181019050611b4c565b5085935050505092915050565b60006020820190508181036000830152611ba08184611b28565b905092915050565b611bb1816119ac565b8114611bbc57600080fd5b50565b600081359050611bce81611ba8565b92915050565b600080fd5b600080fd5b6000601f19601f8301169050919050565b7f4e487b7100000000000000000000000000000000000000000000000000000000600052604160045260246000fd5b611c2782611bde565b810181811067ffffffffffffffff82111715611c4657611c45611bef565b5b80604052505050565b6000611c59611856565b9050611c658282611c1e565b919050565b600067ffffffffffffffff821115611c8557611c84611bef565b5b611c8e82611bde565b9050602081019050919050565b82818337600083830152505050565b6000611cbd611cb884611c6a565b611c4f565b905082815260208101848484011115611cd957611cd8611bd9565b5b611ce4848285611c9b565b509392505050565b600082601f830112611d0157611d00611bd4565b5b8135611d11848260208601611caa565b91505092915050565b600060ff82169050919050565b611d3081611d1a565b8114611d3b57600080fd5b50565b600081359050611d4d81611d27565b92915050565b600080600060608486031215611d6c57611d6b611860565b5b6000611d7a86828701611bbf565b935050602084013567ffffffffffffffff811115611d9b57611d9a611865565b5b611da786828701611cec565b9250506040611db886828701611d3e565b9150509250925092565b600060208284031215611dd857611dd7611860565b5b6000611de684828501611bbf565b91505092915050565b600067ffffffffffffffff821115611e0a57611e09611bef565b5b602082029050602081019050919050565b600080fd5b6000611e33611e2e84611def565b611c4f565b90508083825260208201905060208402830185811115611e5657611e55611e1b565b5b835b81811015611e7f5780611e6b8882611bbf565b845260208401935050602081019050611e58565b5050509392505050565b600082601f830112611e9e57611e9d611bd4565b5b8135611eae848260208601611e20565b91505092915050565b600067ffffffffffffffff821115611ed257611ed1611bef565b5b602082029050602081019050919050565b6000611ef6611ef184611eb7565b611c4f565b90508083825260208201905060208402830185811115611f1957611f18611e1b565b5b835b81811015611f425780611f2e88826118e6565b845260208401935050602081019050611f1b565b5050509392505050565b600082601f830112611f6157611f60611bd4565b5b8135611f71848260208601611ee3565b91505092915050565b60008060408385031215611f9157611f90611860565b5b600083013567ffffffffffffffff811115611faf57611fae611865565b5b611fbb85828601611e89565b925050602083013567ffffffffffffffff811115611fdc57611fdb611865565b5b611fe885828601611f4c565b9150509250929050565b600082825260208201905092915050565b7f45436d617274206f6e6c79000000000000000000000000000000000000000000600082015250565b6000612039600b83611ff2565b915061204482612003565b602082019050919050565b600060208201905081810360008301526120688161202c565b9050919050565b7f4e487b7100000000000000000000000000000000000000000000000000000000600052603260045260246000fd5b600081519050919050565b600081905092915050565b60005b838110156120d25780820151818401526020810190506120b7565b838111156120e1576000848401525b50505050565b60006120f28261209e565b6120fc81856120a9565b935061210c8185602086016120b4565b80840191505092915050565b600061212482846120e7565b915081905092915050565b7f4275796572204e6f7420416464656420746f207468652050726f64756374204660008201527f726f6d204f5244455220636f6e74726163740000000000000000000000000000602082015250565b600061218b603283611ff2565b91506121968261212f565b604082019050919050565b600060208201905081810360008301526121ba8161217e565b9050919050565b7f4e487b7100000000000000000000000000000000000000000000000000000000600052601160045260246000fd5b60006121fb82611928565b915063ffffffff821415612212576122116121c1565b5b600182019050919050565b7f43616e206e6f742067697665205265766965772d526174696e672e204265636160008201527f75736520596f7520617265206e6f742074686520627579657221000000000000602082015250565b6000612279603a83611ff2565b91506122848261221d565b604082019050919050565b600060208201905081810360008301526122a88161226c565b9050919050565b7f596f7520686176656e277420707572636861736564207468652070726f64756360008201527f7421000000000000000000000000000000000000000000000000000000000000602082015250565b600061230b602283611ff2565b9150612316826122af565b604082019050919050565b6000602082019050818103600083015261233a816122fe565b9050919050565b600081519050919050565b600061235782612341565b6123618185611ff2565b93506123718185602086016120b4565b61237a81611bde565b840191505092915050565b61238e81611d1a565b82525050565b600060408201905081810360008301526123ae818561234c565b90506123bd6020830184612385565b9392505050565b7f5265766965772d526174696e672050726f7664696e67206973204641494c454460008201527f2121000000000000000000000000000000000000000000000000000000000000602082015250565b6000612420602283611ff2565b915061242b826123c4565b604082019050919050565b6000602082019050818103600083015261244f81612413565b9050919050565b7f64656c697665727920646f65736e2774206d617463682077697468206f72646560008201527f7200000000000000000000000000000000000000000000000000000000000000602082015250565b60006124b2602183611ff2565b91506124bd82612456565b604082019050919050565b600060208201905081810360008301526124e1816124a5565b9050919050565b60006124f382611822565b91507fffffffffffffffffffffffffffffffffffffffffffffffffffffffffffffffff821415612526576125256121c1565b5b600182019050919050565b7f5265766965772d526174696e67205065726d697373696f6e20676976656e206960008201527f73204641494c4544212100000000000000000000000000000000000000000000602082015250565b600061258d602a83611ff2565b915061259882612531565b604082019050919050565b600060208201905081810360008301526125bc81612580565b905091905056fea2646970667358221220928a7a145cfba991b5d16e9d8e48ff32b1572eac13ef691721f8b429b2422d6264736f6c63430008080033a26469706673582212205a3fd78a029d05e968f64b36eee556890145ea09dada4064999c961245c5039164736f6c63430008080033608060405234801561001057600080fd5b50610e60806100206000396000f3fe608060405234801561001057600080fd5b50600436106100365760003560e01c80632f6d5eea1461003b578063ab3cb34c14610057575b600080fd5b610055600480360381019061005091906108c1565b610073565b005b610071600480360381019061006c919061094c565b610373565b005b80518251146100b7576040517f08c379a00000000000000000000000000000000000000000000000000000000081526004016100ae906109d6565b60405180910390fd5b60008060010160008573ffffffffffffffffffffffffffffffffffffffff1673ffffffffffffffffffffffffffffffffffffffff16815260200190815260200160002060009054906101000a900460ff1660ff16141561014c576040517f08c379a000000000000000000000000000000000000000000000000000000000815260040161014390610a42565b60405180910390fd5b60008390503373ffffffffffffffffffffffffffffffffffffffff168173ffffffffffffffffffffffffffffffffffffffff166343c97c846040518163ffffffff1660e01b815260040160206040518083038186803b1580156101ae57600080fd5b505afa1580156101c2573d6000803e3d6000fd5b505050506040513d601f19601f820116820180604052508101906101e69190610a77565b73ffffffffffffffffffffffffffffffffffffffff161461023c576040517f08c379a000000000000000000000000000000000000000000000000000000000815260040161023390610af0565b60405180910390fd5b600015158173ffffffffffffffffffffffffffffffffffffffff16634fbd39d36040518163ffffffff1660e01b815260040160206040518083038186803b15801561028657600080fd5b505afa15801561029a573d6000803e3d6000fd5b505050506040513d601f19601f820116820180604052508101906102be9190610b48565b151514610300576040517f08c379a00000000000000000000000000000000000000000000000000000000081526004016102f790610bc1565b60405180910390fd5b8073ffffffffffffffffffffffffffffffffffffffff1663bdb9207484846040518363ffffffff1660e01b815260040161033b929190610d5d565b600060405180830381600087803b15801561035557600080fd5b505af1158015610369573d6000803e3d6000fd5b5050505050505050565b60008060050160003373ffffffffffffffffffffffffffffffffffffffff1673ffffffffffffffffffffffffffffffffffffffff16815260200190815260200160002060009054906101000a900460ff1660ff161415610408576040517f08c379a00000000000000000000000000000000000000000000000000000000081526004016103ff90610af0565b60405180910390fd5b60008060010160008373ffffffffffffffffffffffffffffffffffffffff1673ffffffffffffffffffffffffffffffffffffffff16815260200190815260200160002060009054906101000a900460ff1660ff16141561049d576040517f08c379a000000000000000000000000000000000000000000000000000000000815260040161049490610a42565b60405180910390fd5b6000819050600073ffffffffffffffffffffffffffffffffffffffff168173ffffffffffffffffffffffffffffffffffffffff166343c97c846040518163ffffffff1660e01b815260040160206040518083038186803b15801561050057600080fd5b505afa158015610514573d6000803e3d6000fd5b505050506040513d601f19601f820116820180604052508101906105389190610a77565b73ffffffffffffffffffffffffffffffffffffffff161461058e576040517f08c379a000000000000000000000000000000000000000000000000000000000815260040161058590610de0565b60405180910390fd5b8073ffffffffffffffffffffffffffffffffffffffff1663ab3cb34c336040518263ffffffff1660e01b81526004016105c79190610e0f565b600060405180830381600087803b1580156105e157600080fd5b505af11580156105f5573d6000803e3d6000fd5b505050505050565b6000604051905090565b600080fd5b600080fd5b600073ffffffffffffffffffffffffffffffffffffffff82169050919050565b600061063c82610611565b9050919050565b61064c81610631565b811461065757600080fd5b50565b60008135905061066981610643565b92915050565b600080fd5b6000601f19601f8301169050919050565b7f4e487b7100000000000000000000000000000000000000000000000000000000600052604160045260246000fd5b6106bd82610674565b810181811067ffffffffffffffff821117156106dc576106db610685565b5b80604052505050565b60006106ef6105fd565b90506106fb82826106b4565b919050565b600067ffffffffffffffff82111561071b5761071a610685565b5b602082029050602081019050919050565b600080fd5b600061074461073f84610700565b6106e5565b905080838252602082019050602084028301858111156107675761076661072c565b5b835b81811015610790578061077c888261065a565b845260208401935050602081019050610769565b5050509392505050565b600082601f8301126107af576107ae61066f565b5b81356107bf848260208601610731565b91505092915050565b600067ffffffffffffffff8211156107e3576107e2610685565b5b602082029050602081019050919050565b6000819050919050565b610807816107f4565b811461081257600080fd5b50565b600081359050610824816107fe565b92915050565b600061083d610838846107c8565b6106e5565b905080838252602082019050602084028301858111156108605761085f61072c565b5b835b8181101561088957806108758882610815565b845260208401935050602081019050610862565b5050509392505050565b600082601f8301126108a8576108a761066f565b5b81356108b884826020860161082a565b91505092915050565b6000806000606084860312156108da576108d9610607565b5b60006108e88682870161065a565b935050602084013567ffffffffffffffff8111156109095761090861060c565b5b6109158682870161079a565b925050604084013567ffffffffffffffff8111156109365761093561060c565b5b61094286828701610893565b9150509250925092565b60006020828403121561096257610961610607565b5b60006109708482850161065a565b91505092915050565b600082825260208201905092915050565b7f417272617973206d7573742068617665207468652073616d65206c656e677468600082015250565b60006109c0602083610979565b91506109cb8261098a565b602082019050919050565b600060208201905081810360008301526109ef816109b3565b9050919050565b7f496e76616c6964206f7264657200000000000000000000000000000000000000600082015250565b6000610a2c600d83610979565b9150610a37826109f6565b602082019050919050565b60006020820190508181036000830152610a5b81610a1f565b9050919050565b600081519050610a7181610643565b92915050565b600060208284031215610a8d57610a8c610607565b5b6000610a9b84828501610a62565b91505092915050565b7f496e76616c69642064656c6976657279206d616e000000000000000000000000600082015250565b6000610ada601483610979565b9150610ae582610aa4565b602082019050919050565b60006020820190508181036000830152610b0981610acd565b9050919050565b60008115159050919050565b610b2581610b10565b8114610b3057600080fd5b50565b600081519050610b4281610b1c565b92915050565b600060208284031215610b5e57610b5d610607565b5b6000610b6c84828501610b33565b91505092915050565b7f616c72656164792064656c697665726564000000000000000000000000000000600082015250565b6000610bab601183610979565b9150610bb682610b75565b602082019050919050565b60006020820190508181036000830152610bda81610b9e565b9050919050565b600081519050919050565b600082825260208201905092915050565b6000819050602082019050919050565b610c1681610631565b82525050565b6000610c288383610c0d565b60208301905092915050565b6000602082019050919050565b6000610c4c82610be1565b610c568185610bec565b9350610c6183610bfd565b8060005b83811015610c92578151610c798882610c1c565b9750610c8483610c34565b925050600181019050610c65565b5085935050505092915050565b600081519050919050565b600082825260208201905092915050565b6000819050602082019050919050565b610cd4816107f4565b82525050565b6000610ce68383610ccb565b60208301905092915050565b6000602082019050919050565b6000610d0a82610c9f565b610d148185610caa565b9350610d1f83610cbb565b8060005b83811015610d50578151610d378882610cda565b9750610d4283610cf2565b925050600181019050610d23565b5085935050505092915050565b60006040820190508181036000830152610d778185610c41565b90508181036020830152610d8b8184610cff565b90509392505050565b7f44656c6976657279206d616e20697320616c7265616479207365740000000000600082015250565b6000610dca601b83610979565b9150610dd582610d94565b602082019050919050565b60006020820190508181036000830152610df981610dbd565b9050919050565b610e0981610631565b82525050565b6000602082019050610e246000830184610e00565b9291505056fea264697066735822122096e0e55beccb48bafca7b14c69cd4be43bd5cb9e736ed00f7ca82796d3b5bc8264736f6c63430008080033608060405234801561001057600080fd5b50612a10806100206000396000f3fe60806040523480156200001157600080fd5b50600436106200003a5760003560e01c80633a2a925c146200003f578063f3122fca1462000075575b600080fd5b6200005d6004803603810190620000579190620005f9565b620000ab565b6040516200006c919062000734565b60405180910390f35b6200009360048036038101906200008d919062000796565b620002a5565b604051620000a2919062000896565b60405180910390f35b60006001600060030160003373ffffffffffffffffffffffffffffffffffffffff1673ffffffffffffffffffffffffffffffffffffffff16815260200190815260200160002060009054906101000a900460ff1660ff161462000145576040517f08c379a00000000000000000000000000000000000000000000000000000000081526004016200013c906200091b565b60405180910390fd5b60008585858533306040516200015b906200043a565b6200016c96959493929190620009e1565b604051809103906000f08015801562000189573d6000803e3d6000fd5b50905060008190506200019c8162000374565b600760003373ffffffffffffffffffffffffffffffffffffffff1673ffffffffffffffffffffffffffffffffffffffff168152602001908152602001600020819080600181540180825580915050600190039060005260206000200160009091909190916101000a81548173ffffffffffffffffffffffffffffffffffffffff021916908373ffffffffffffffffffffffffffffffffffffffff1602179055506001600060020160008473ffffffffffffffffffffffffffffffffffffffff1673ffffffffffffffffffffffffffffffffffffffff16815260200190815260200160002060006101000a81548160ff021916908360ff1602179055508192505050949350505050565b6060600760008373ffffffffffffffffffffffffffffffffffffffff1673ffffffffffffffffffffffffffffffffffffffff1681526020019081526020016000208054806020026020016040519081016040528092919081815260200182805480156200036857602002820191906000526020600020905b8160009054906101000a900473ffffffffffffffffffffffffffffffffffffffff1673ffffffffffffffffffffffffffffffffffffffff16815260200190600101908083116200031d575b50505050509050919050565b6200040e816040516024016200038b919062000a5c565b6040516020818303038152906040527f2c2ecbc2000000000000000000000000000000000000000000000000000000007bffffffffffffffffffffffffffffffffffffffffffffffffffffffff19166020820180517bffffffffffffffffffffffffffffffffffffffffffffffffffffffff838183161783525050505062000411565b50565b60008151905060006a636f6e736f6c652e6c6f679050602083016000808483855afa5050505050565b611f618062000a7a83390190565b6000604051905090565b600080fd5b600080fd5b600080fd5b600080fd5b6000601f19601f8301169050919050565b7f4e487b7100000000000000000000000000000000000000000000000000000000600052604160045260246000fd5b620004b18262000466565b810181811067ffffffffffffffff82111715620004d357620004d262000477565b5b80604052505050565b6000620004e862000448565b9050620004f68282620004a6565b919050565b600067ffffffffffffffff82111562000519576200051862000477565b5b620005248262000466565b9050602081019050919050565b82818337600083830152505050565b6000620005576200055184620004fb565b620004dc565b90508281526020810184848401111562000576576200057562000461565b5b6200058384828562000531565b509392505050565b600082601f830112620005a357620005a26200045c565b5b8135620005b584826020860162000540565b91505092915050565b6000819050919050565b620005d381620005be565b8114620005df57600080fd5b50565b600081359050620005f381620005c8565b92915050565b6000806000806080858703121562000616576200061562000452565b5b600085013567ffffffffffffffff81111562000637576200063662000457565b5b62000645878288016200058b565b94505060206200065887828801620005e2565b935050604085013567ffffffffffffffff8111156200067c576200067b62000457565b5b6200068a878288016200058b565b92505060606200069d87828801620005e2565b91505092959194509250565b600073ffffffffffffffffffffffffffffffffffffffff82169050919050565b6000819050919050565b6000620006f4620006ee620006e884620006a9565b620006c9565b620006a9565b9050919050565b60006200070882620006d3565b9050919050565b60006200071c82620006fb565b9050919050565b6200072e816200070f565b82525050565b60006020820190506200074b600083018462000723565b92915050565b60006200075e82620006a9565b9050919050565b620007708162000751565b81146200077c57600080fd5b50565b600081359050620007908162000765565b92915050565b600060208284031215620007af57620007ae62000452565b5b6000620007bf848285016200077f565b91505092915050565b600081519050919050565b600082825260208201905092915050565b6000819050602082019050919050565b620007ff8162000751565b82525050565b6000620008138383620007f4565b60208301905092915050565b6000602082019050919050565b60006200083982620007c8565b620008458185620007d3565b93506200085283620007e4565b8060005b83811015620008895781516200086d888262000805565b97506200087a836200081f565b92505060018101905062000856565b5085935050505092915050565b60006020820190508181036000830152620008b281846200082c565b905092915050565b600082825260208201905092915050565b7f596f7520617265206e6f7420612073656c6c6572000000000000000000000000600082015250565b600062000903601483620008ba565b91506200091082620008cb565b602082019050919050565b600060208201905081810360008301526200093681620008f4565b9050919050565b600081519050919050565b60005b83811015620009685780820151818401526020810190506200094b565b8381111562000978576000848401525b50505050565b60006200098b826200093d565b620009978185620008ba565b9350620009a981856020860162000948565b620009b48162000466565b840191505092915050565b620009ca81620005be565b82525050565b620009db8162000751565b82525050565b600060c0820190508181036000830152620009fd81896200097e565b905062000a0e6020830188620009bf565b818103604083015262000a2281876200097e565b905062000a336060830186620009bf565b62000a426080830185620009d0565b62000a5160a0830184620009d0565b979650505050505050565b600060208201905062000a736000830184620009d0565b9291505056fe60806040526002600055600560015560036002553480156200002057600080fd5b5060405162001f6138038062001f61833981810160405281019062000046919062000612565b85600390805190602001906200005e92919062000325565b50846004819055508260058190555083600790805190602001906200008592919062000325565b5081600860006101000a81548173ffffffffffffffffffffffffffffffffffffffff021916908373ffffffffffffffffffffffffffffffffffffffff16021790555080600960006101000a81548173ffffffffffffffffffffffffffffffffffffffff021916908373ffffffffffffffffffffffffffffffffffffffff16021790555060646000546004546200011c91906200071b565b620001289190620007ab565b6006819055506200015d60405180606001604052806027815260200162001f3a60279139620001b660201b62000c1f1760201c565b620001836064600054620001729190620007ab565b6200025960201b62000cb81760201c565b600254600654600454620001989190620007e3565b620001a49190620007e3565b600a8190555050505050505062000954565b6200025681604051602401620001cd91906200089d565b6040516020818303038152906040527f41304fac000000000000000000000000000000000000000000000000000000007bffffffffffffffffffffffffffffffffffffffffffffffffffffffff19166020820180517bffffffffffffffffffffffffffffffffffffffffffffffffffffffff8381831617835250505050620002fc60201b60201c565b50565b620002f981604051602401620002709190620008d2565b6040516020818303038152906040527ff5b1bba9000000000000000000000000000000000000000000000000000000007bffffffffffffffffffffffffffffffffffffffffffffffffffffffff19166020820180517bffffffffffffffffffffffffffffffffffffffffffffffffffffffff8381831617835250505050620002fc60201b60201c565b50565b60008151905060006a636f6e736f6c652e6c6f679050602083016000808483855afa5050505050565b82805462000333906200091e565b90600052602060002090601f016020900481019282620003575760008555620003a3565b82601f106200037257805160ff1916838001178555620003a3565b82800160010185558215620003a3579182015b82811115620003a257825182559160200191906001019062000385565b5b509050620003b29190620003b6565b5090565b5b80821115620003d1576000816000905550600101620003b7565b5090565b6000604051905090565b600080fd5b600080fd5b600080fd5b600080fd5b6000601f19601f8301169050919050565b7f4e487b7100000000000000000000000000000000000000000000000000000000600052604160045260246000fd5b6200043e82620003f3565b810181811067ffffffffffffffff8211171562000460576200045f62000404565b5b80604052505050565b600062000475620003d5565b905062000483828262000433565b919050565b600067ffffffffffffffff821115620004a657620004a562000404565b5b620004b182620003f3565b9050602081019050919050565b60005b83811015620004de578082015181840152602081019050620004c1565b83811115620004ee576000848401525b50505050565b60006200050b620005058462000488565b62000469565b9050828152602081018484840111156200052a5762000529620003ee565b5b62000537848285620004be565b509392505050565b600082601f830112620005575762000556620003e9565b5b815162000569848260208601620004f4565b91505092915050565b6000819050919050565b620005878162000572565b81146200059357600080fd5b50565b600081519050620005a7816200057c565b92915050565b600073ffffffffffffffffffffffffffffffffffffffff82169050919050565b6000620005da82620005ad565b9050919050565b620005ec81620005cd565b8114620005f857600080fd5b50565b6000815190506200060c81620005e1565b92915050565b60008060008060008060c08789031215620006325762000631620003df565b5b600087015167ffffffffffffffff811115620006535762000652620003e4565b5b6200066189828a016200053f565b96505060206200067489828a0162000596565b955050604087015167ffffffffffffffff811115620006985762000697620003e4565b5b620006a689828a016200053f565b9450506060620006b989828a0162000596565b9350506080620006cc89828a01620005fb565b92505060a0620006df89828a01620005fb565b9150509295509295509295565b7f4e487b7100000000000000000000000000000000000000000000000000000000600052601160045260246000fd5b6000620007288262000572565b9150620007358362000572565b9250817fffffffffffffffffffffffffffffffffffffffffffffffffffffffffffffffff0483118215151615620007715762000770620006ec565b5b828202905092915050565b7f4e487b7100000000000000000000000000000000000000000000000000000000600052601260045260246000fd5b6000620007b88262000572565b9150620007c58362000572565b925082620007d857620007d76200077c565b5b828204905092915050565b6000620007f08262000572565b9150620007fd8362000572565b9250827fffffffffffffffffffffffffffffffffffffffffffffffffffffffffffffffff03821115620008355762000834620006ec565b5b828201905092915050565b600081519050919050565b600082825260208201905092915050565b6000620008698262000840565b6200087581856200084b565b935062000887818560208601620004be565b6200089281620003f3565b840191505092915050565b60006020820190508181036000830152620008b981846200085c565b905092915050565b620008cc8162000572565b82525050565b6000602082019050620008e96000830184620008c1565b92915050565b7f4e487b7100000000000000000000000000000000000000000000000000000000600052602260045260246000fd5b600060028204905060018216806200093757607f821691505b602082108114156200094e576200094d620008ef565b5b50919050565b6115d680620009646000396000f3fe608060405234801561001057600080fd5b50600436106100ea5760003560e01c8063a85c38ef1161008c578063db6a365211610066578063db6a365214610225578063dbd0e1b614610241578063edbab1431461025f578063f2aa82181461027d576100ea565b8063a85c38ef146101bb578063bbf89803146101eb578063bdb7f00e14610207576100ea565b8063317c9984116100c8578063317c99841461014557806384aa3365146101615780638b2a90591461017f57806398d5fdca1461019d576100ea565b80630115949c146100ef57806317fa1f471461010d57806326cd59b314610129575b600080fd5b6100f76102ad565b6040516101049190610e36565b60405180910390f35b61012760048036038101906101229190610e91565b6102b7565b005b610143600480360381019061013e919061103d565b6103a9565b005b61015f600480360381019061015a91906110f7565b610692565b005b61016961074e565b6040516101769190610e36565b60405180910390f35b610187610758565b6040516101949190610e36565b60405180910390f35b6101a56107f2565b6040516101b29190610e36565b60405180910390f35b6101d560048036038101906101d09190610e91565b6108e4565b6040516101e29190611133565b60405180910390f35b610205600480360381019061020091906110f7565b610923565b005b61020f610a6b565b60405161021c9190610e36565b60405180910390f35b61023f600480360381019061023a919061114e565b610a75565b005b610249610bb0565b6040516102569190611133565b60405180910390f35b610267610bda565b6040516102749190610e36565b60405180910390f35b61029760048036038101906102929190610e91565b610be0565b6040516102a49190611133565b60405180910390f35b6000600554905090565b600960009054906101000a900473ffffffffffffffffffffffffffffffffffffffff1673ffffffffffffffffffffffffffffffffffffffff163373ffffffffffffffffffffffffffffffffffffffff1614806103605750600860009054906101000a900473ffffffffffffffffffffffffffffffffffffffff1673ffffffffffffffffffffffffffffffffffffffff163373ffffffffffffffffffffffffffffffffffffffff16145b61039f576040517f08c379a0000000000000000000000000000000000000000000000000000000008152600401610396906111eb565b60405180910390fd5b8060058190555050565b6000600e60003373ffffffffffffffffffffffffffffffffffffffff1673ffffffffffffffffffffffffffffffffffffffff16815260200190815260200160002060009054906101000a900463ffffffff1663ffffffff161415610442576040517f08c379a00000000000000000000000000000000000000000000000000000000081526004016104399061127d565b60405180910390fd5b600f60003373ffffffffffffffffffffffffffffffffffffffff1673ffffffffffffffffffffffffffffffffffffffff16815260200190815260200160002060010180549050600e60003373ffffffffffffffffffffffffffffffffffffffff1673ffffffffffffffffffffffffffffffffffffffff16815260200190815260200160002060009054906101000a900463ffffffff1663ffffffff161061051e576040517f08c379a00000000000000000000000000000000000000000000000000000000081526004016105159061130f565b60405180910390fd5b6000429050600f60003373ffffffffffffffffffffffffffffffffffffffff1673ffffffffffffffffffffffffffffffffffffffff1681526020019081526020016000206000018390806001815401808255809150506001900390600052602060002001600090919091909150908051906020019061059e929190610d7a565b50600f60003373ffffffffffffffffffffffffffffffffffffffff1673ffffffffffffffffffffffffffffffffffffffff1681526020019081526020016000206001018290806001815401808255809150506001900390600052602060002090602091828204019190069091909190916101000a81548160ff021916908360ff160217905550600f60003373ffffffffffffffffffffffffffffffffffffffff1673ffffffffffffffffffffffffffffffffffffffff168152602001908152602001600020600201819080600181540180825580915050600190039060005260206000200160009091909190915055505050565b6001600e60008373ffffffffffffffffffffffffffffffffffffffff1673ffffffffffffffffffffffffffffffffffffffff16815260200190815260200160002060009054906101000a900463ffffffff166106ee919061136e565b600e60008373ffffffffffffffffffffffffffffffffffffffff1673ffffffffffffffffffffffffffffffffffffffff16815260200190815260200160002060006101000a81548163ffffffff021916908363ffffffff16021790555050565b6000600a54905090565b6000600960009054906101000a900473ffffffffffffffffffffffffffffffffffffffff1673ffffffffffffffffffffffffffffffffffffffff163373ffffffffffffffffffffffffffffffffffffffff16146107ea576040517f08c379a00000000000000000000000000000000000000000000000000000000081526004016107e1906113f4565b60405180910390fd5b600654905090565b6000600960009054906101000a900473ffffffffffffffffffffffffffffffffffffffff1673ffffffffffffffffffffffffffffffffffffffff163373ffffffffffffffffffffffffffffffffffffffff16148061089d5750600860009054906101000a900473ffffffffffffffffffffffffffffffffffffffff1673ffffffffffffffffffffffffffffffffffffffff163373ffffffffffffffffffffffffffffffffffffffff16145b6108dc576040517f08c379a00000000000000000000000000000000000000000000000000000000081526004016108d3906111eb565b60405180910390fd5b600454905090565b600c81815481106108f457600080fd5b906000526020600020016000915054906101000a900473ffffffffffffffffffffffffffffffffffffffff1681565b6000600b60003373ffffffffffffffffffffffffffffffffffffffff1673ffffffffffffffffffffffffffffffffffffffff1681526020019081526020016000205414156109a6576040517f08c379a000000000000000000000000000000000000000000000000000000000815260040161099d90611486565b60405180910390fd5b6000600e60008373ffffffffffffffffffffffffffffffffffffffff1673ffffffffffffffffffffffffffffffffffffffff16815260200190815260200160002060009054906101000a900463ffffffff1663ffffffff161415610a6857600d819080600181540180825580915050600190039060005260206000200160009091909190916101000a81548173ffffffffffffffffffffffffffffffffffffffff021916908373ffffffffffffffffffffffffffffffffffffffff1602179055505b50565b6000600154905090565b600960009054906101000a900473ffffffffffffffffffffffffffffffffffffffff1673ffffffffffffffffffffffffffffffffffffffff163373ffffffffffffffffffffffffffffffffffffffff1614610b05576040517f08c379a0000000000000000000000000000000000000000000000000000000008152600401610afc906113f4565b60405180910390fd5b600c829080600181540180825580915050600190039060005260206000200160009091909190916101000a81548173ffffffffffffffffffffffffffffffffffffffff021916908373ffffffffffffffffffffffffffffffffffffffff16021790555080600b60008473ffffffffffffffffffffffffffffffffffffffff1673ffffffffffffffffffffffffffffffffffffffff168152602001908152602001600020819055505050565b6000600860009054906101000a900473ffffffffffffffffffffffffffffffffffffffff16905090565b600a5481565b600d8181548110610bf057600080fd5b906000526020600020016000915054906101000a900473ffffffffffffffffffffffffffffffffffffffff1681565b610cb581604051602401610c33919061151d565b6040516020818303038152906040527f41304fac000000000000000000000000000000000000000000000000000000007bffffffffffffffffffffffffffffffffffffffffffffffffffffffff19166020820180517bffffffffffffffffffffffffffffffffffffffffffffffffffffffff8381831617835250505050610d51565b50565b610d4e81604051602401610ccc9190610e36565b6040516020818303038152906040527ff5b1bba9000000000000000000000000000000000000000000000000000000007bffffffffffffffffffffffffffffffffffffffffffffffffffffffff19166020820180517bffffffffffffffffffffffffffffffffffffffffffffffffffffffff8381831617835250505050610d51565b50565b60008151905060006a636f6e736f6c652e6c6f679050602083016000808483855afa5050505050565b828054610d869061156e565b90600052602060002090601f016020900481019282610da85760008555610def565b82601f10610dc157805160ff1916838001178555610def565b82800160010185558215610def579182015b82811115610dee578251825591602001919060010190610dd3565b5b509050610dfc9190610e00565b5090565b5b80821115610e19576000816000905550600101610e01565b5090565b6000819050919050565b610e3081610e1d565b82525050565b6000602082019050610e4b6000830184610e27565b92915050565b6000604051905090565b600080fd5b600080fd5b610e6e81610e1d565b8114610e7957600080fd5b50565b600081359050610e8b81610e65565b92915050565b600060208284031215610ea757610ea6610e5b565b5b6000610eb584828501610e7c565b91505092915050565b600080fd5b600080fd5b6000601f19601f8301169050919050565b7f4e487b7100000000000000000000000000000000000000000000000000000000600052604160045260246000fd5b610f1182610ec8565b810181811067ffffffffffffffff82111715610f3057610f2f610ed9565b5b80604052505050565b6000610f43610e51565b9050610f4f8282610f08565b919050565b600067ffffffffffffffff821115610f6f57610f6e610ed9565b5b610f7882610ec8565b9050602081019050919050565b82818337600083830152505050565b6000610fa7610fa284610f54565b610f39565b905082815260208101848484011115610fc357610fc2610ec3565b5b610fce848285610f85565b509392505050565b600082601f830112610feb57610fea610ebe565b5b8135610ffb848260208601610f94565b91505092915050565b600060ff82169050919050565b61101a81611004565b811461102557600080fd5b50565b60008135905061103781611011565b92915050565b6000806040838503121561105457611053610e5b565b5b600083013567ffffffffffffffff81111561107257611071610e60565b5b61107e85828601610fd6565b925050602061108f85828601611028565b9150509250929050565b600073ffffffffffffffffffffffffffffffffffffffff82169050919050565b60006110c482611099565b9050919050565b6110d4816110b9565b81146110df57600080fd5b50565b6000813590506110f1816110cb565b92915050565b60006020828403121561110d5761110c610e5b565b5b600061111b848285016110e2565b91505092915050565b61112d816110b9565b82525050565b60006020820190506111486000830184611124565b92915050565b6000806040838503121561116557611164610e5b565b5b6000611173858286016110e2565b925050602061118485828601610e7c565b9150509250929050565b600082825260208201905092915050565b7f4e6f74204f776e6572206f722073656c6c657200000000000000000000000000600082015250565b60006111d560138361118e565b91506111e08261119f565b602082019050919050565b60006020820190508181036000830152611204816111c8565b9050919050565b7f596f7520617265206e6f742061206275796572206f66207468652070726f647560008201527f6374000000000000000000000000000000000000000000000000000000000000602082015250565b600061126760228361118e565b91506112728261120b565b604082019050919050565b600060208201905081810360008301526112968161125a565b9050919050565b7f596f75206861766520616c72656164792070726f76696465642072657669657760008201527f20616e6420726174696e67206f6620746869732070726f647563740000000000602082015250565b60006112f9603b8361118e565b91506113048261129d565b604082019050919050565b60006020820190508181036000830152611328816112ec565b9050919050565b600063ffffffff82169050919050565b7f4e487b7100000000000000000000000000000000000000000000000000000000600052601160045260246000fd5b60006113798261132f565b91506113848361132f565b92508263ffffffff0382111561139d5761139c61133f565b5b828201905092915050565b7f4e6f742045434d61727420286f776e6572290000000000000000000000000000600082015250565b60006113de60128361118e565b91506113e9826113a8565b602082019050919050565b6000602082019050818103600083015261140d816113d1565b9050919050565b7f50726f64756374206973206e6f74206173736f7369617465642077697468207460008201527f6865204f52444552000000000000000000000000000000000000000000000000602082015250565b600061147060288361118e565b915061147b82611414565b604082019050919050565b6000602082019050818103600083015261149f81611463565b9050919050565b600081519050919050565b60005b838110156114cf5780820151818401526020810190506114b4565b838111156114de576000848401525b50505050565b60006114ef826114a6565b6114f9818561118e565b93506115098185602086016114b1565b61151281610ec8565b840191505092915050565b6000602082019050818103600083015261153781846114e4565b905092915050565b7f4e487b7100000000000000000000000000000000000000000000000000000000600052602260045260246000fd5b6000600282049050600182168061158657607f821691505b6020821081141561159a5761159961153f565b5b5091905056fea2646970667358221220613e1a1e345272cef40a7c7bbfa852f3dc8ffa3fb667a78e01e95e210c2117cd64736f6c6343000808003350657263656e746167652d2d2d2d2d2d2d2d2d2d2d2d2d2d2d2d2d2d2d2d2d2d2d2d2d2d2d2d2da2646970667358221220134c8d3ba6396c9cd8313791f854def1431ee4a275c6062b52ce068ab20583b764736f6c63430008080033608060405234801561001057600080fd5b506101b4806100206000396000f3fe608060405234801561001057600080fd5b50600436106100415760003560e01c806352c9224c14610046578063a365a85e14610050578063a90f42df1461005a575b600080fd5b61004e610064565b005b6100586100c2565b005b610062610120565b005b6001600060030160003373ffffffffffffffffffffffffffffffffffffffff1673ffffffffffffffffffffffffffffffffffffffff16815260200190815260200160002060006101000a81548160ff021916908360ff160217905550565b6002600060040160003373ffffffffffffffffffffffffffffffffffffffff1673ffffffffffffffffffffffffffffffffffffffff16815260200190815260200160002060006101000a81548160ff021916908360ff160217905550565b6003600060050160003373ffffffffffffffffffffffffffffffffffffffff1673ffffffffffffffffffffffffffffffffffffffff16815260200190815260200160002060006101000a81548160ff021916908360ff16021790555056fea264697066735822122018440dd63bd76193a406837b09fbfb5be7093b5d0d0ddcc864c20dd914a4d97764736f6c63430008080033",
  "linkReferences": {},
  "deployedLinkReferences": {}
}