{
  "_format": "hh-sol-artifact-1",
  "contractName": "Diamond",
  "sourceName": "contracts/Diamond.sol",
  "abi": [
    {
      "inputs": [],
      "stateMutability": "nonpayable",
      "type": "constructor"
    },
    {
      "stateMutability": "payable",
      "type": "fallback"
    },
    {
      "inputs": [
        {
          "internalType": "bytes4",
          "name": "",
          "type": "bytes4"
        }
      ],
      "name": "facetMap",
      "outputs": [
        {
          "internalType": "address",
          "name": "",
          "type": "address"
        }
      ],
      "stateMutability": "view",
      "type": "function"
    }
  ],
  "bytecode": "0x608060405234801561001057600080fd5b50600060405161001f906107dd565b604051809103906000f08015801561003b573d6000803e3d6000fd5b509050600060405161004c906107eb565b604051809103906000f080158015610068573d6000803e3d6000fd5b5090506000604051610079906107f9565b604051809103906000f080158015610095573d6000803e3d6000fd5b50905060006040516100a690610807565b604051809103906000f0801580156100c2573d6000803e3d6000fd5b5090506729a2241af62c00006000600601819055506729a2241af62c0000600060070181905550600560006008018190555083600960007ffcf15741a365f7ec2d32119931b64627aa33baa2edcc45249596eef7004099487bffffffffffffffffffffffffffffffffffffffffffffffffffffffff19167bffffffffffffffffffffffffffffffffffffffffffffffffffffffff1916815260200190815260200160002060006101000a81548173ffffffffffffffffffffffffffffffffffffffff021916908373ffffffffffffffffffffffffffffffffffffffff16021790555082600960007fcdc6c28721b27827aec68f7c3f46f68375a96ee4b3e6eecbc9bd9a52478cc28e7bffffffffffffffffffffffffffffffffffffffffffffffffffffffff19167bffffffffffffffffffffffffffffffffffffffffffffffffffffffff1916815260200190815260200160002060006101000a81548173ffffffffffffffffffffffffffffffffffffffff021916908373ffffffffffffffffffffffffffffffffffffffff16021790555082600960007f2f6d5eea62bddac2ed0681e71e81323794041ae57a113968d42745754c9edd767bffffffffffffffffffffffffffffffffffffffffffffffffffffffff19167bffffffffffffffffffffffffffffffffffffffffffffffffffffffff1916815260200190815260200160002060006101000a81548173ffffffffffffffffffffffffffffffffffffffff021916908373ffffffffffffffffffffffffffffffffffffffff16021790555082600960007ffa58baee2977c95ecfe9129061718fe2d0b3b0c8004e34883d1e13b5adcd01d07bffffffffffffffffffffffffffffffffffffffffffffffffffffffff19167bffffffffffffffffffffffffffffffffffffffffffffffffffffffff1916815260200190815260200160002060006101000a81548173ffffffffffffffffffffffffffffffffffffffff021916908373ffffffffffffffffffffffffffffffffffffffff16021790555083600960007fa1a2fbae0a17348c5ad8af18f16505b0558dfa2b3a5f46633d2ff62bb5c20b8a7bffffffffffffffffffffffffffffffffffffffffffffffffffffffff19167bffffffffffffffffffffffffffffffffffffffffffffffffffffffff1916815260200190815260200160002060006101000a81548173ffffffffffffffffffffffffffffffffffffffff021916908373ffffffffffffffffffffffffffffffffffffffff16021790555081600960007f677e8bc0d6a4baa08cfd0b0ed0fc9951e6d4e79c9e6dadc7fcd113e1adf72bf77bffffffffffffffffffffffffffffffffffffffffffffffffffffffff19167bffffffffffffffffffffffffffffffffffffffffffffffffffffffff1916815260200190815260200160002060006101000a81548173ffffffffffffffffffffffffffffffffffffffff021916908373ffffffffffffffffffffffffffffffffffffffff16021790555081600960007ff3122fca312a33d91f4a5e78b0521f727f759e73e376da1da826af7b2b6439257bffffffffffffffffffffffffffffffffffffffffffffffffffffffff19167bffffffffffffffffffffffffffffffffffffffffffffffffffffffff1916815260200190815260200160002060006101000a81548173ffffffffffffffffffffffffffffffffffffffff021916908373ffffffffffffffffffffffffffffffffffffffff16021790555080600960007f88617315e0deeb23e7d03578500f832542bf71858045499af501bf8a5a7d721b7bffffffffffffffffffffffffffffffffffffffffffffffffffffffff19167bffffffffffffffffffffffffffffffffffffffffffffffffffffffff1916815260200190815260200160002060006101000a81548173ffffffffffffffffffffffffffffffffffffffff021916908373ffffffffffffffffffffffffffffffffffffffff16021790555080600960007fa0f7c55a99c0226603a59fb8c0f2511155feb1f45e668cbfc05ecec5cbc741f77bffffffffffffffffffffffffffffffffffffffffffffffffffffffff19167bffffffffffffffffffffffffffffffffffffffffffffffffffffffff1916815260200190815260200160002060006101000a81548173ffffffffffffffffffffffffffffffffffffffff021916908373ffffffffffffffffffffffffffffffffffffffff16021790555080600960007fc621955ea86e5742bb275e7d1a24d4dc11d2ef6792760ef93e954ae86aa4a66e7bffffffffffffffffffffffffffffffffffffffffffffffffffffffff19167bffffffffffffffffffffffffffffffffffffffffffffffffffffffff1916815260200190815260200160002060006101000a81548173ffffffffffffffffffffffffffffffffffffffff021916908373ffffffffffffffffffffffffffffffffffffffff16021790555050505050610815565b61601a8062000d2a83390190565b611a3c8062006d4483390190565b61271d806200878083390190565b6105e4806200ae9d83390190565b61050580620008256000396000f3fe6080604052600436106100225760003560e01c80631eb7a4ab1461019057610023565b5b60006009600080357fffffffff00000000000000000000000000000000000000000000000000000000167bffffffffffffffffffffffffffffffffffffffffffffffffffffffff19167bffffffffffffffffffffffffffffffffffffffffffffffffffffffff1916815260200190815260200160002060009054906101000a900473ffffffffffffffffffffffffffffffffffffffff169050600073ffffffffffffffffffffffffffffffffffffffff168173ffffffffffffffffffffffffffffffffffffffff16141561012c576040517f08c379a00000000000000000000000000000000000000000000000000000000081526004016101239061031f565b60405180910390fd5b61016a6040518060400160405280601a81526020017f616b6a7368646b616a6864616b6a6468616b6a6468616b646a680000000000008152506101cd565b3660008037600080366000845af43d6000803e806000811461018b573d6000f35b3d6000fd5b34801561019c57600080fd5b506101b760048036038101906101b2919061039c565b610266565b6040516101c4919061040a565b60405180910390f35b610263816040516024016101e191906104ad565b6040516020818303038152906040527f41304fac000000000000000000000000000000000000000000000000000000007bffffffffffffffffffffffffffffffffffffffffffffffffffffffff19166020820180517bffffffffffffffffffffffffffffffffffffffffffffffffffffffff8381831617835250505050610299565b50565b60096020528060005260406000206000915054906101000a900473ffffffffffffffffffffffffffffffffffffffff1681565b60008151905060006a636f6e736f6c652e6c6f679050602083016000808483855afa5050505050565b600082825260208201905092915050565b7f4661636574206e6f7420666f756e640000000000000000000000000000000000600082015250565b6000610309600f836102c2565b9150610314826102d3565b602082019050919050565b60006020820190508181036000830152610338816102fc565b9050919050565b600080fd5b60007fffffffff0000000000000000000000000000000000000000000000000000000082169050919050565b61037981610344565b811461038457600080fd5b50565b60008135905061039681610370565b92915050565b6000602082840312156103b2576103b161033f565b5b60006103c084828501610387565b91505092915050565b600073ffffffffffffffffffffffffffffffffffffffff82169050919050565b60006103f4826103c9565b9050919050565b610404816103e9565b82525050565b600060208201905061041f60008301846103fb565b92915050565b600081519050919050565b60005b8381101561044e578082015181840152602081019050610433565b8381111561045d576000848401525b50505050565b6000601f19601f8301169050919050565b600061047f82610425565b61048981856102c2565b9350610499818560208601610430565b6104a281610463565b840191505092915050565b600060208201905081810360008301526104c78184610474565b90509291505056fea264697066735822122006e34260dea942fbdf195295636649ca7006240d167789879f58eaf3d3ec3bf664736f6c63430008080033608060405234801561001057600080fd5b50615ffa806100206000396000f3fe6080604052600436106200002c5760003560e01c8063a1a2fbae1462000031578063fcf15741146200005f575b600080fd5b3480156200003e57600080fd5b506200005d6004803603810190620000579190620019f7565b62000095565b005b6200007d600480360381019062000077919062001b31565b62000caa565b6040516200008c919062001be6565b60405180910390f35b60008060010160008373ffffffffffffffffffffffffffffffffffffffff1673ffffffffffffffffffffffffffffffffffffffff16815260200190815260200160002060009054906101000a900460ff1660ff1614156200012d576040517f08c379a0000000000000000000000000000000000000000000000000000000008152600401620001249062001c64565b60405180910390fd5b6000819050600015158173ffffffffffffffffffffffffffffffffffffffff16634fbd39d36040518163ffffffff1660e01b815260040160206040518083038186803b1580156200017d57600080fd5b505afa15801562000192573d6000803e3d6000fd5b505050506040513d601f19601f82011682018060405250810190620001b8919062001cc3565b151514620001fd576040517f08c379a0000000000000000000000000000000000000000000000000000000008152600401620001f49062001d45565b60405180910390fd5b8073ffffffffffffffffffffffffffffffffffffffff1663603daf9a6040518163ffffffff1660e01b815260040160206040518083038186803b1580156200024457600080fd5b505afa15801562000259573d6000803e3d6000fd5b505050506040513d601f19601f820116820180604052508101906200027f919062001d7e565b73ffffffffffffffffffffffffffffffffffffffff163373ffffffffffffffffffffffffffffffffffffffff1614620002ef576040517f08c379a0000000000000000000000000000000000000000000000000000000008152600401620002e69062001e00565b60405180910390fd5b60008173ffffffffffffffffffffffffffffffffffffffff1663444066176040518163ffffffff1660e01b815260040160006040518083038186803b1580156200033857600080fd5b505afa1580156200034d573d6000803e3d6000fd5b505050506040513d6000823e3d601f19601f8201168201806040525081019062000378919062001f8d565b905060008273ffffffffffffffffffffffffffffffffffffffff16634117163e6040518163ffffffff1660e01b815260040160006040518083038186803b158015620003c357600080fd5b505afa158015620003d8573d6000803e3d6000fd5b505050506040513d6000823e3d601f19601f82011682018060405250810190620004039190620020cb565b90506000806000806200044b6040518060400160405280601081526020017f696e7369646520706179206f726465720000000000000000000000000000000081525062001232565b60005b86518110156200072757600087828151811062000470576200046f6200211c565b5b60200260200101519050600081905060008a73ffffffffffffffffffffffffffffffffffffffff1663cabdba5b846040518263ffffffff1660e01b8152600401620004bc919062001be6565b60206040518083038186803b158015620004d557600080fd5b505afa158015620004ea573d6000803e3d6000fd5b505050506040513d601f19601f820116820180604052508101906200051091906200214b565b905060008985815181106200052a57620005296200211c565b5b6020026020010151905060006006015481620005479190620021ac565b886200055491906200220d565b97506064600060080154836200056b9190620021ac565b62000577919062002299565b81620005849190620021ac565b876200059191906200220d565b965060006007015481620005a69190620021ac565b86620005b391906200220d565b955060008282620005c59190620021ac565b905060008473ffffffffffffffffffffffffffffffffffffffff1663dbd0e1b66040518163ffffffff1660e01b815260040160206040518083038186803b1580156200061057600080fd5b505afa15801562000625573d6000803e3d6000fd5b505050506040513d601f19601f820116820180604052508101906200064b919062001d7e565b73ffffffffffffffffffffffffffffffffffffffff1682604051620006709062002306565b60006040518083038185875af1925050503d8060008114620006af576040519150601f19603f3d011682016040523d82523d6000602084013e620006b4565b606091505b5050905080620006fb576040517f08c379a0000000000000000000000000000000000000000000000000000000008152600401620006f2906200236d565b60405180910390fd5b818b6200070991906200220d565b9a5050505050505080806200071e906200238f565b9150506200044e565b50620007686040518060400160405280600b81526020017f53656c6c6572205061696400000000000000000000000000000000000000000081525062001232565b6200077384620012cf565b60008773ffffffffffffffffffffffffffffffffffffffff166343c97c846040518163ffffffff1660e01b815260040160206040518083038186803b158015620007bc57600080fd5b505afa158015620007d1573d6000803e3d6000fd5b505050506040513d601f19601f82011682018060405250810190620007f7919062001d7e565b73ffffffffffffffffffffffffffffffffffffffff16846040516200081c9062002306565b60006040518083038185875af1925050503d80600081146200085b576040519150601f19603f3d011682016040523d82523d6000602084013e62000860565b606091505b5050905080620008a7576040517f08c379a00000000000000000000000000000000000000000000000000000000081526004016200089e906200242d565b60405180910390fd5b620008e86040518060400160405280601381526020017f64656c69766572796d616e2050616964203a2000000000000000000000000000815250856200136c565b8773ffffffffffffffffffffffffffffffffffffffff1663ccd44ccf60016040518263ffffffff1660e01b815260040162000924919062002460565b600060405180830381600087803b1580156200093f57600080fd5b505af115801562000954573d6000803e3d6000fd5b5050505060008385876200096991906200220d565b6200097591906200220d565b8973ffffffffffffffffffffffffffffffffffffffff16630a9076866040518163ffffffff1660e01b815260040160206040518083038186803b158015620009bc57600080fd5b505afa158015620009d1573d6000803e3d6000fd5b505050506040513d601f19601f82011682018060405250810190620009f791906200214b565b62000a0391906200247d565b905060008973ffffffffffffffffffffffffffffffffffffffff1663603daf9a6040518163ffffffff1660e01b815260040160206040518083038186803b15801562000a4e57600080fd5b505afa15801562000a63573d6000803e3d6000fd5b505050506040513d601f19601f8201168201806040525081019062000a89919062001d7e565b73ffffffffffffffffffffffffffffffffffffffff168260405162000aae9062002306565b60006040518083038185875af1925050503d806000811462000aed576040519150601f19603f3d011682016040523d82523d6000602084013e62000af2565b606091505b505090508062000b39576040517f08c379a000000000000000000000000000000000000000000000000000000000815260040162000b309062002508565b60405180910390fd5b62000b796040518060400160405280601281526020017f726566756e64656420746f20627579657220000000000000000000000000000081525062001232565b62000b8482620012cf565b8973ffffffffffffffffffffffffffffffffffffffff166311b34c5a60016040518263ffffffff1660e01b815260040162000bc0919062002460565b600060405180830381600087803b15801562000bdb57600080fd5b505af115801562000bf0573d6000803e3d6000fd5b505050508973ffffffffffffffffffffffffffffffffffffffff1663acf4ede0836040518263ffffffff1660e01b815260040162000c2f91906200253b565b600060405180830381600087803b15801562000c4a57600080fd5b505af115801562000c5f573d6000803e3d6000fd5b505050507fcb0bc61b2b12eb59f1ea69658a099061318800bfa027a18071aacaaceda48081600160405162000c95919062002460565b60405180910390a15050505050505050505050565b60008060008062000cbe898989896200140c565b92509250925062000ccf83620012cf565b8234101562000d15576040517f08c379a000000000000000000000000000000000000000000000000000000000815260040162000d0c90620025a8565b60405180910390fd5b6000338a8a8a8a3089348a8a60405162000d2f9062001970565b62000d449a99989796959493929190620027e4565b604051809103906000f08015801562000d61573d6000803e3d6000fd5b5090506001600060010160008373ffffffffffffffffffffffffffffffffffffffff1673ffffffffffffffffffffffffffffffffffffffff16815260200190815260200160002060006101000a81548160ff021916908360ff16021790555062000e016040518060400160405280600e81526020017f4f7264657220616464726573732000000000000000000000000000000000000081525082620018a7565b62000e426040518060400160405280601481526020017f4f7264657220544f54414c2050415941424c4520000000000000000000000000815250856200136c565b60005b8a8a90508163ffffffff161015620010075760008b8b8363ffffffff1681811062000e755762000e746200211c565b5b905060200201602081019062000e8c9190620019f7565b73ffffffffffffffffffffffffffffffffffffffff16838b8b8563ffffffff1681811062000ebf5762000ebe6200211c565b5b9050602002013560405160240162000ed9929190620028fd565b6040516020818303038152906040527fdb6a3652000000000000000000000000000000000000000000000000000000007bffffffffffffffffffffffffffffffffffffffffffffffffffffffff19166020820180517bffffffffffffffffffffffffffffffffffffffffffffffffffffffff838183161783525050505060405162000f659190620029a2565b6000604051808303816000865af19150503d806000811462000fa4576040519150601f19603f3d011682016040523d82523d6000602084013e62000fa9565b606091505b505090508062000ff0576040517f08c379a000000000000000000000000000000000000000000000000000000000815260040162000fe79062002a31565b60405180910390fd5b50808062000ffe9062002a63565b91505062000e45565b508073ffffffffffffffffffffffffffffffffffffffff166375eb7acc6040518163ffffffff1660e01b8152600401600060405180830381600087803b1580156200105157600080fd5b505af115801562001066573d6000803e3d6000fd5b5050505060005b8a8a9050811015620011e65760008b8b838181106200109157620010906200211c565b5b9050602002016020810190620010a89190620019f7565b9050600081905060008b8b85818110620010c757620010c66200211c565b5b9050602002013590508173ffffffffffffffffffffffffffffffffffffffff166317fa1f47828473ffffffffffffffffffffffffffffffffffffffff16630115949c6040518163ffffffff1660e01b815260040160206040518083038186803b1580156200113457600080fd5b505afa15801562001149573d6000803e3d6000fd5b505050506040513d601f19601f820116820180604052508101906200116f91906200214b565b6200117b91906200247d565b6040518263ffffffff1660e01b81526004016200119991906200253b565b600060405180830381600087803b158015620011b457600080fd5b505af1158015620011c9573d6000803e3d6000fd5b505050505050508080620011dd906200238f565b9150506200106d565b507f5a3e025ad8b0ffc3940134b57218ebd90cfa0ed8a0ec0fdd53be572c480cf2cd81876040516200121a92919062002a95565b60405180910390a18094505050505095945050505050565b620012cc8160405160240162001249919062002b0e565b6040516020818303038152906040527f41304fac000000000000000000000000000000000000000000000000000000007bffffffffffffffffffffffffffffffffffffffffffffffffffffffff19166020820180517bffffffffffffffffffffffffffffffffffffffffffffffffffffffff838183161783525050505062001947565b50565b6200136981604051602401620012e691906200253b565b6040516020818303038152906040527ff5b1bba9000000000000000000000000000000000000000000000000000000007bffffffffffffffffffffffffffffffffffffffffffffffffffffffff19166020820180517bffffffffffffffffffffffffffffffffffffffffffffffffffffffff838183161783525050505062001947565b50565b6200140882826040516024016200138592919062002b32565b6040516020818303038152906040527f9710a9d0000000000000000000000000000000000000000000000000000000007bffffffffffffffffffffffffffffffffffffffffffffffffffffffff19166020820180517bffffffffffffffffffffffffffffffffffffffffffffffffffffffff838183161783525050505062001947565b5050565b60006060808484905087879050146200145c576040517f08c379a0000000000000000000000000000000000000000000000000000000008152600401620014539062002bb6565b60405180910390fd5b6000806000806009819055506000808b8b905067ffffffffffffffff8111156200148b576200148a62001e33565b5b604051908082528060200260200182016040528015620014ba5781602001602082028036833780820191505090505b50905060008c8c905067ffffffffffffffff811115620014df57620014de62001e33565b5b6040519080825280602002602001820160405280156200150e5781602001602082028036833780820191505090505b50905060005b8d8d90508110156200188d5760008e8e838181106200153857620015376200211c565b5b90506020020160208101906200154f9190620019f7565b905060008060020160008373ffffffffffffffffffffffffffffffffffffffff1673ffffffffffffffffffffffffffffffffffffffff16815260200190815260200160002060009054906101000a900460ff1660ff161415620015e9576040517f08c379a0000000000000000000000000000000000000000000000000000000008152600401620015e09062002c28565b60405180910390fd5b600081905060008e8e858181106200160657620016056200211c565b5b905060200201359050808273ffffffffffffffffffffffffffffffffffffffff16630115949c6040518163ffffffff1660e01b815260040160206040518083038186803b1580156200165757600080fd5b505afa1580156200166c573d6000803e3d6000fd5b505050506040513d601f19601f820116820180604052508101906200169291906200214b565b1015620016d6576040517f08c379a0000000000000000000000000000000000000000000000000000000008152600401620016cd9062002cc0565b60405180910390fd5b8173ffffffffffffffffffffffffffffffffffffffff166398d5fdca6040518163ffffffff1660e01b815260040160206040518083038186803b1580156200171d57600080fd5b505afa15801562001732573d6000803e3d6000fd5b505050506040513d601f19601f820116820180604052508101906200175891906200214b565b8685815181106200176e576200176d6200211c565b5b6020026020010181815250508173ffffffffffffffffffffffffffffffffffffffff166384aa33656040518163ffffffff1660e01b815260040160206040518083038186803b158015620017c157600080fd5b505afa158015620017d6573d6000803e3d6000fd5b505050506040513d601f19601f82011682018060405250810190620017fc91906200214b565b8585815181106200181257620018116200211c565b5b6020026020010181815250508e8e858181106200183457620018336200211c565b5b905060200201358585815181106200185157620018506200211c565b5b6020026020010151620018659190620021ac565b876200187291906200220d565b9650505050808062001884906200238f565b91505062001514565b508282829850985098505050505050509450945094915050565b620019438282604051602401620018c092919062002ce2565b6040516020818303038152906040527f319af333000000000000000000000000000000000000000000000000000000007bffffffffffffffffffffffffffffffffffffffffffffffffffffffff19166020820180517bffffffffffffffffffffffffffffffffffffffffffffffffffffffff838183161783525050505062001947565b5050565b60008151905060006a636f6e736f6c652e6c6f679050602083016000808483855afa5050505050565b6132ae8062002d1783390190565b6000604051905090565b600080fd5b600080fd5b600073ffffffffffffffffffffffffffffffffffffffff82169050919050565b6000620019bf8262001992565b9050919050565b620019d181620019b2565b8114620019dd57600080fd5b50565b600081359050620019f181620019c6565b92915050565b60006020828403121562001a105762001a0f62001988565b5b600062001a2084828501620019e0565b91505092915050565b600080fd5b600080fd5b600080fd5b60008083601f84011262001a515762001a5062001a29565b5b8235905067ffffffffffffffff81111562001a715762001a7062001a2e565b5b60208301915083602082028301111562001a905762001a8f62001a33565b5b9250929050565b60008083601f84011262001ab05762001aaf62001a29565b5b8235905067ffffffffffffffff81111562001ad05762001acf62001a2e565b5b60208301915083602082028301111562001aef5762001aee62001a33565b5b9250929050565b6000819050919050565b62001b0b8162001af6565b811462001b1757600080fd5b50565b60008135905062001b2b8162001b00565b92915050565b60008060008060006060868803121562001b505762001b4f62001988565b5b600086013567ffffffffffffffff81111562001b715762001b706200198d565b5b62001b7f8882890162001a38565b9550955050602086013567ffffffffffffffff81111562001ba55762001ba46200198d565b5b62001bb38882890162001a97565b9350935050604062001bc88882890162001b1a565b9150509295509295909350565b62001be081620019b2565b82525050565b600060208201905062001bfd600083018462001bd5565b92915050565b600082825260208201905092915050565b7f496e76616c6964206f7264657200000000000000000000000000000000000000600082015250565b600062001c4c600d8362001c03565b915062001c598262001c14565b602082019050919050565b6000602082019050818103600083015262001c7f8162001c3d565b9050919050565b60008115159050919050565b62001c9d8162001c86565b811462001ca957600080fd5b50565b60008151905062001cbd8162001c92565b92915050565b60006020828403121562001cdc5762001cdb62001988565b5b600062001cec8482850162001cac565b91505092915050565b7f416c726561647920506169640000000000000000000000000000000000000000600082015250565b600062001d2d600c8362001c03565b915062001d3a8262001cf5565b602082019050919050565b6000602082019050818103600083015262001d608162001d1e565b9050919050565b60008151905062001d7881620019c6565b92915050565b60006020828403121562001d975762001d9662001988565b5b600062001da78482850162001d67565b91505092915050565b7f4f6e6c79207468652062757965722063616e20706179207468652062696c6c00600082015250565b600062001de8601f8362001c03565b915062001df58262001db0565b602082019050919050565b6000602082019050818103600083015262001e1b8162001dd9565b9050919050565b6000601f19601f8301169050919050565b7f4e487b7100000000000000000000000000000000000000000000000000000000600052604160045260246000fd5b62001e6d8262001e22565b810181811067ffffffffffffffff8211171562001e8f5762001e8e62001e33565b5b80604052505050565b600062001ea46200197e565b905062001eb2828262001e62565b919050565b600067ffffffffffffffff82111562001ed55762001ed462001e33565b5b602082029050602081019050919050565b600062001efd62001ef78462001eb7565b62001e98565b9050808382526020820190506020840283018581111562001f235762001f2262001a33565b5b835b8181101562001f50578062001f3b888262001d67565b84526020840193505060208101905062001f25565b5050509392505050565b600082601f83011262001f725762001f7162001a29565b5b815162001f8484826020860162001ee6565b91505092915050565b60006020828403121562001fa65762001fa562001988565b5b600082015167ffffffffffffffff81111562001fc75762001fc66200198d565b5b62001fd58482850162001f5a565b91505092915050565b600067ffffffffffffffff82111562001ffc5762001ffb62001e33565b5b602082029050602081019050919050565b6000815190506200201e8162001b00565b92915050565b60006200203b620020358462001fde565b62001e98565b9050808382526020820190506020840283018581111562002061576200206062001a33565b5b835b818110156200208e57806200207988826200200d565b84526020840193505060208101905062002063565b5050509392505050565b600082601f830112620020b057620020af62001a29565b5b8151620020c284826020860162002024565b91505092915050565b600060208284031215620020e457620020e362001988565b5b600082015167ffffffffffffffff8111156200210557620021046200198d565b5b620021138482850162002098565b91505092915050565b7f4e487b7100000000000000000000000000000000000000000000000000000000600052603260045260246000fd5b60006020828403121562002164576200216362001988565b5b600062002174848285016200200d565b91505092915050565b7f4e487b7100000000000000000000000000000000000000000000000000000000600052601160045260246000fd5b6000620021b98262001af6565b9150620021c68362001af6565b9250817fffffffffffffffffffffffffffffffffffffffffffffffffffffffffffffffff04831182151516156200220257620022016200217d565b5b828202905092915050565b60006200221a8262001af6565b9150620022278362001af6565b9250827fffffffffffffffffffffffffffffffffffffffffffffffffffffffffffffffff038211156200225f576200225e6200217d565b5b828201905092915050565b7f4e487b7100000000000000000000000000000000000000000000000000000000600052601260045260246000fd5b6000620022a68262001af6565b9150620022b38362001af6565b925082620022c657620022c56200226a565b5b828204905092915050565b600081905092915050565b50565b6000620022ee600083620022d1565b9150620022fb82620022dc565b600082019050919050565b60006200231382620022df565b9150819050919050565b7f53656c6c65722046756e64205472616e7361666572204661696c656421210000600082015250565b600062002355601e8362001c03565b915062002362826200231d565b602082019050919050565b60006020820190508181036000830152620023888162002346565b9050919050565b60006200239c8262001af6565b91507fffffffffffffffffffffffffffffffffffffffffffffffffffffffffffffffff821415620023d257620023d16200217d565b5b600182019050919050565b7f44656c6976657279204d616e205472616e7361666572204661696c6564212100600082015250565b600062002415601f8362001c03565b91506200242282620023dd565b602082019050919050565b60006020820190508181036000830152620024488162002406565b9050919050565b6200245a8162001c86565b82525050565b60006020820190506200247760008301846200244f565b92915050565b60006200248a8262001af6565b9150620024978362001af6565b925082821015620024ad57620024ac6200217d565b5b828203905092915050565b7f526566756e64204661696c656400000000000000000000000000000000000000600082015250565b6000620024f0600d8362001c03565b9150620024fd82620024b8565b602082019050919050565b600060208201905081810360008301526200252381620024e1565b9050919050565b620025358162001af6565b82525050565b60006020820190506200255260008301846200252a565b92915050565b7f596f75206e65656420746f207370656e64206d6f726520455448210000000000600082015250565b600062002590601b8362001c03565b91506200259d8262002558565b602082019050919050565b60006020820190508181036000830152620025c38162002581565b9050919050565b600082825260208201905092915050565b6000819050919050565b620025f081620019b2565b82525050565b6000620026048383620025e5565b60208301905092915050565b6000620026216020840184620019e0565b905092915050565b6000602082019050919050565b6000620026448385620025ca565b93506200265182620025db565b8060005b8581101562002692576200266a828462002610565b620026768882620025f6565b9750620026838362002629565b92505060018101905062002655565b5085925050509392505050565b600082825260208201905092915050565b600080fd5b82818337600083830152505050565b6000620026d283856200269f565b93507f07ffffffffffffffffffffffffffffffffffffffffffffffffffffffffffffff831115620027085762002707620026b0565b5b6020830292506200271b838584620026b5565b82840190509392505050565b600081519050919050565b6000819050602082019050919050565b6200274d8162001af6565b82525050565b600062002761838362002742565b60208301905092915050565b6000602082019050919050565b6000620027878262002727565b6200279381856200269f565b9350620027a08362002732565b8060005b83811015620027d7578151620027bb888262002753565b9750620027c8836200276d565b925050600181019050620027a4565b5085935050505092915050565b600061010082019050620027fc600083018d62001bd5565b818103602083015262002811818b8d62002636565b905081810360408301526200282881898b620026c4565b905062002839606083018862001bd5565b6200284860808301876200252a565b6200285760a08301866200252a565b81810360c08301526200286b81856200277a565b905081810360e08301526200288181846200277a565b90509b9a5050505050505050505050565b6000819050919050565b6000620028bd620028b7620028b18462001992565b62002892565b62001992565b9050919050565b6000620028d1826200289c565b9050919050565b6000620028e582620028c4565b9050919050565b620028f781620028d8565b82525050565b6000604082019050620029146000830185620028ec565b6200292360208301846200252a565b9392505050565b600081519050919050565b60005b838110156200295557808201518184015260208101905062002938565b8381111562002965576000848401525b50505050565b600062002978826200292a565b620029848185620022d1565b93506200299681856020860162002935565b80840191505092915050565b6000620029b082846200296b565b915081905092915050565b7f4f7264657220616464656420746f2050726f647563747320697320554e53554360008201527f4345535346554c21212066726f6d2045436d61727420636f6e74726163740000602082015250565b600062002a19603e8362001c03565b915062002a2682620029bb565b604082019050919050565b6000602082019050818103600083015262002a4c8162002a0a565b9050919050565b600063ffffffff82169050919050565b600062002a708262002a53565b915063ffffffff82141562002a8a5762002a896200217d565b5b600182019050919050565b600060408201905062002aac600083018562001bd5565b62002abb60208301846200252a565b9392505050565b600081519050919050565b600062002ada8262002ac2565b62002ae6818562001c03565b935062002af881856020860162002935565b62002b038162001e22565b840191505092915050565b6000602082019050818103600083015262002b2a818462002acd565b905092915050565b6000604082019050818103600083015262002b4e818562002acd565b905062002b5f60208301846200252a565b9392505050565b7f417272617973206d7573742068617665207468652073616d65206c656e677468600082015250565b600062002b9e60208362001c03565b915062002bab8262002b66565b602082019050919050565b6000602082019050818103600083015262002bd18162002b8f565b9050919050565b7f50726f6475637420646f65736e27742065786973740000000000000000000000600082015250565b600062002c1060158362001c03565b915062002c1d8262002bd8565b602082019050919050565b6000602082019050818103600083015262002c438162002c01565b9050919050565b7f50726f6475637420696e76656e746f7279206973206e6f74205375666669636960008201527f656e740000000000000000000000000000000000000000000000000000000000602082015250565b600062002ca860238362001c03565b915062002cb58262002c4a565b604082019050919050565b6000602082019050818103600083015262002cdb8162002c99565b9050919050565b6000604082019050818103600083015262002cfe818562002acd565b905062002d0f602083018462001bd5565b939250505056fe60806040526000601060006101000a81548160ff0219169083151502179055506000601260006101000a81548160ff0219169083151502179055506000601460006101000a81548160ff0219169083151502179055503480156200006257600080fd5b50604051620032ae380380620032ae83398181016040528101906200008891906200078f565b8551875114620000cf576040517f08c379a0000000000000000000000000000000000000000000000000000000008152600401620000c69062000935565b60405180910390fd5b84600260006101000a81548173ffffffffffffffffffffffffffffffffffffffff021916908373ffffffffffffffffffffffffffffffffffffffff16021790555042600f81905550876000806101000a81548173ffffffffffffffffffffffffffffffffffffffff021916908373ffffffffffffffffffffffffffffffffffffffff16021790555086600490805190602001906200016f92919062000390565b508560059080519060200190620001889291906200041f565b508160069080519060200190620001a19291906200041f565b508060079080519060200190620001ba9291906200041f565b5083601181905550826003819055506001601060006101000a81548160ff02191690831515021790555060005b8751811015620003815786818151811062000207576200020662000957565b5b6020026020010151600a60008a848151811062000229576200022862000957565b5b602002602001015173ffffffffffffffffffffffffffffffffffffffff1673ffffffffffffffffffffffffffffffffffffffff1681526020019081526020016000208190555082818151811062000285576200028462000957565b5b6020026020010151600b60008a8481518110620002a757620002a662000957565b5b602002602001015173ffffffffffffffffffffffffffffffffffffffff1673ffffffffffffffffffffffffffffffffffffffff1681526020019081526020016000208190555081818151811062000303576200030262000957565b5b6020026020010151600c60008a848151811062000325576200032462000957565b5b602002602001015173ffffffffffffffffffffffffffffffffffffffff1673ffffffffffffffffffffffffffffffffffffffff1681526020019081526020016000208190555080806200037890620009b5565b915050620001e7565b50505050505050505062000a03565b8280548282559060005260206000209081019282156200040c579160200282015b828111156200040b5782518260006101000a81548173ffffffffffffffffffffffffffffffffffffffff021916908373ffffffffffffffffffffffffffffffffffffffff16021790555091602001919060010190620003b1565b5b5090506200041b919062000471565b5090565b8280548282559060005260206000209081019282156200045e579160200282015b828111156200045d57825182559160200191906001019062000440565b5b5090506200046d919062000471565b5090565b5b808211156200048c57600081600090555060010162000472565b5090565b6000604051905090565b600080fd5b600080fd5b600073ffffffffffffffffffffffffffffffffffffffff82169050919050565b6000620004d182620004a4565b9050919050565b620004e381620004c4565b8114620004ef57600080fd5b50565b6000815190506200050381620004d8565b92915050565b600080fd5b6000601f19601f8301169050919050565b7f4e487b7100000000000000000000000000000000000000000000000000000000600052604160045260246000fd5b62000559826200050e565b810181811067ffffffffffffffff821117156200057b576200057a6200051f565b5b80604052505050565b60006200059062000490565b90506200059e82826200054e565b919050565b600067ffffffffffffffff821115620005c157620005c06200051f565b5b602082029050602081019050919050565b600080fd5b6000620005ee620005e884620005a3565b62000584565b90508083825260208201905060208402830185811115620006145762000613620005d2565b5b835b818110156200064157806200062c8882620004f2565b84526020840193505060208101905062000616565b5050509392505050565b600082601f83011262000663576200066262000509565b5b815162000675848260208601620005d7565b91505092915050565b600067ffffffffffffffff8211156200069c576200069b6200051f565b5b602082029050602081019050919050565b6000819050919050565b620006c281620006ad565b8114620006ce57600080fd5b50565b600081519050620006e281620006b7565b92915050565b6000620006ff620006f9846200067e565b62000584565b90508083825260208201905060208402830185811115620007255762000724620005d2565b5b835b818110156200075257806200073d8882620006d1565b84526020840193505060208101905062000727565b5050509392505050565b600082601f83011262000774576200077362000509565b5b815162000786848260208601620006e8565b91505092915050565b600080600080600080600080610100898b031215620007b357620007b26200049a565b5b6000620007c38b828c01620004f2565b985050602089015167ffffffffffffffff811115620007e757620007e66200049f565b5b620007f58b828c016200064b565b975050604089015167ffffffffffffffff8111156200081957620008186200049f565b5b620008278b828c016200075c565b96505060606200083a8b828c01620004f2565b95505060806200084d8b828c01620006d1565b94505060a0620008608b828c01620006d1565b93505060c089015167ffffffffffffffff8111156200088457620008836200049f565b5b620008928b828c016200075c565b92505060e089015167ffffffffffffffff811115620008b657620008b56200049f565b5b620008c48b828c016200075c565b9150509295985092959890939650565b600082825260208201905092915050565b7f417272617973206d7573742068617665207468652073616d65206c656e677468600082015250565b60006200091d602083620008d4565b91506200092a82620008e5565b602082019050919050565b6000602082019050818103600083015262000950816200090e565b9050919050565b7f4e487b7100000000000000000000000000000000000000000000000000000000600052603260045260246000fd5b7f4e487b7100000000000000000000000000000000000000000000000000000000600052601160045260246000fd5b6000620009c282620006ad565b91507fffffffffffffffffffffffffffffffffffffffffffffffffffffffffffffffff821415620009f857620009f762000986565b5b600182019050919050565b61289b8062000a136000396000f3fe608060405234801561001057600080fd5b50600436106102065760003560e01c80638da5cb5b1161011a578063bdb92074116100ad578063ccd2f89f1161007c578063ccd2f89f1461059b578063ccd44ccf146105b9578063d2cf4be2146105d5578063eea1ea7314610605578063fb24359f1461062357610206565b8063bdb9207414610513578063c46dacd91461052f578063c741a8dd1461054d578063cabdba5b1461056b57610206565b8063acf4ede0116100e9578063acf4ede014610479578063ad7c6ed114610495578063ae489082146104b3578063bc7ae422146104e357610206565b80638da5cb5b1461040557806397f9481f14610423578063a71494f11461043f578063ab3cb34c1461045d57610206565b8063444066171161019d57806375eb7acc1161016c57806375eb7acc14610383578063765f744c1461038d57806377432ac6146103ab578063779cd083146103c95780637aada134146103e757610206565b8063444066171461030b5780634fbd39d314610329578063603daf9a146103475780637150d8ae1461036557610206565b8063209ebc08116101d9578063209ebc08146102935780633095114c146102b15780634117163e146102cf57806343c97c84146102ed57610206565b80630a9076861461020b57806311b34c5a14610229578063141c08c214610245578063200d2ed214610275575b600080fd5b610213610641565b6040516102209190611abb565b60405180910390f35b610243600480360381019061023e9190611b22565b61064b565b005b61025f600480360381019061025a9190611b7b565b6106f8565b60405161026c9190611abb565b60405180910390f35b61027d61071c565b60405161028a9190611bc7565b60405180910390f35b61029b610732565b6040516102a89190611bf1565b60405180910390f35b6102b9610745565b6040516102c69190611c4d565b60405180910390f35b6102d761076b565b6040516102e49190611d26565b60405180910390f35b6102f56107c3565b6040516103029190611c4d565b60405180910390f35b6103136107ed565b6040516103209190611e06565b60405180910390f35b61033161087b565b60405161033e9190611bf1565b60405180910390f35b61034f610892565b60405161035c9190611c4d565b60405180910390f35b61036d6108bb565b60405161037a9190611c4d565b60405180910390f35b61038b6108df565b005b610395610b3a565b6040516103a29190611bf1565b60405180910390f35b6103b3610b4d565b6040516103c09190611abb565b60405180910390f35b6103d1610b53565b6040516103de9190611bf1565b60405180910390f35b6103ef610b66565b6040516103fc9190611abb565b60405180910390f35b61040d610b6c565b60405161041a9190611c4d565b60405180910390f35b61043d60048036038101906104389190611fd3565b610b92565b005b610447610de5565b6040516104549190611abb565b60405180910390f35b61047760048036038101906104729190612042565b610deb565b005b610493600480360381019061048e9190611b7b565b610ebf565b005b61049d610f59565b6040516104aa9190611abb565b60405180910390f35b6104cd60048036038101906104c89190611b7b565b610f5f565b6040516104da9190611c4d565b60405180910390f35b6104fd60048036038101906104f89190611b7b565b610f9e565b60405161050a9190611abb565b60405180910390f35b61052d600480360381019061052891906121fa565b610fc2565b005b61053761145e565b6040516105449190611d26565b60405180910390f35b6105556114b6565b6040516105629190611d26565b60405180910390f35b61058560048036038101906105809190612042565b61159e565b6040516105929190611abb565b60405180910390f35b6105a3611677565b6040516105b09190611d26565b60405180910390f35b6105d360048036038101906105ce9190611b22565b6116cf565b005b6105ef60048036038101906105ea9190611b7b565b61177c565b6040516105fc9190611c4d565b60405180910390f35b61060d6117bb565b60405161061a9190611abb565b60405180910390f35b61062b6117c5565b6040516106389190611e06565b60405180910390f35b6000600354905090565b600260009054906101000a900473ffffffffffffffffffffffffffffffffffffffff1673ffffffffffffffffffffffffffffffffffffffff163373ffffffffffffffffffffffffffffffffffffffff16146106db576040517f08c379a00000000000000000000000000000000000000000000000000000000081526004016106d2906122cf565b60405180910390fd5b80601260006101000a81548160ff02191690831515021790555050565b6009818154811061070857600080fd5b906000526020600020016000915090505481565b600e60009054906101000a900463ffffffff1681565b601060009054906101000a900460ff1681565b600160009054906101000a900473ffffffffffffffffffffffffffffffffffffffff1681565b606060098054806020026020016040519081016040528092919081815260200182805480156107b957602002820191906000526020600020905b8154815260200190600101908083116107a5575b5050505050905090565b6000600160009054906101000a900473ffffffffffffffffffffffffffffffffffffffff16905090565b6060600880548060200260200160405190810160405280929190818152602001828054801561087157602002820191906000526020600020905b8160009054906101000a900473ffffffffffffffffffffffffffffffffffffffff1673ffffffffffffffffffffffffffffffffffffffff1681526020019060010190808311610827575b5050505050905090565b6000601460009054906101000a900460ff16905090565b60008060009054906101000a900473ffffffffffffffffffffffffffffffffffffffff16905090565b60008054906101000a900473ffffffffffffffffffffffffffffffffffffffff1681565b600260009054906101000a900473ffffffffffffffffffffffffffffffffffffffff1673ffffffffffffffffffffffffffffffffffffffff163373ffffffffffffffffffffffffffffffffffffffff161461096f576040517f08c379a0000000000000000000000000000000000000000000000000000000008152600401610966906122cf565b60405180910390fd5b60005b6004805490508163ffffffff161015610b3757600060048263ffffffff16815481106109a1576109a06122ef565b5b9060005260206000200160009054906101000a900473ffffffffffffffffffffffffffffffffffffffff1673ffffffffffffffffffffffffffffffffffffffff1660008054906101000a900473ffffffffffffffffffffffffffffffffffffffff16604051602401610a139190611c4d565b6040516020818303038152906040527fbbf89803000000000000000000000000000000000000000000000000000000007bffffffffffffffffffffffffffffffffffffffffffffffffffffffff19166020820180517bffffffffffffffffffffffffffffffffffffffffffffffffffffffff8381831617835250505050604051610a9d9190612398565b6000604051808303816000865af19150503d8060008114610ada576040519150601f19603f3d011682016040523d82523d6000602084013e610adf565b606091505b5050905080610b23576040517f08c379a0000000000000000000000000000000000000000000000000000000008152600401610b1a90612421565b60405180910390fd5b508080610b2f90612470565b915050610972565b50565b601460009054906101000a900460ff1681565b60115481565b601260009054906101000a900460ff1681565b600f5481565b600260009054906101000a900473ffffffffffffffffffffffffffffffffffffffff1681565b60008054906101000a900473ffffffffffffffffffffffffffffffffffffffff1673ffffffffffffffffffffffffffffffffffffffff163373ffffffffffffffffffffffffffffffffffffffff1614610c20576040517f08c379a0000000000000000000000000000000000000000000000000000000008152600401610c179061250f565b60405180910390fd5b6000600a60008573ffffffffffffffffffffffffffffffffffffffff1673ffffffffffffffffffffffffffffffffffffffff168152602001908152602001600020541415610ca3576040517f08c379a0000000000000000000000000000000000000000000000000000000008152600401610c9a906125a1565b60405180910390fd5b60008373ffffffffffffffffffffffffffffffffffffffff168383604051602401610ccf929190612614565b6040516020818303038152906040527f26cd59b3000000000000000000000000000000000000000000000000000000007bffffffffffffffffffffffffffffffffffffffffffffffffffffffff19166020820180517bffffffffffffffffffffffffffffffffffffffffffffffffffffffff8381831617835250505050604051610d599190612398565b6000604051808303816000865af19150503d8060008114610d96576040519150601f19603f3d011682016040523d82523d6000602084013e610d9b565b606091505b5050905080610ddf576040517f08c379a0000000000000000000000000000000000000000000000000000000008152600401610dd6906126b6565b60405180910390fd5b50505050565b60035481565b600260009054906101000a900473ffffffffffffffffffffffffffffffffffffffff1673ffffffffffffffffffffffffffffffffffffffff163373ffffffffffffffffffffffffffffffffffffffff1614610e7b576040517f08c379a0000000000000000000000000000000000000000000000000000000008152600401610e72906122cf565b60405180910390fd5b80600160006101000a81548173ffffffffffffffffffffffffffffffffffffffff021916908373ffffffffffffffffffffffffffffffffffffffff16021790555050565b600260009054906101000a900473ffffffffffffffffffffffffffffffffffffffff1673ffffffffffffffffffffffffffffffffffffffff163373ffffffffffffffffffffffffffffffffffffffff1614610f4f576040517f08c379a0000000000000000000000000000000000000000000000000000000008152600401610f46906122cf565b60405180910390fd5b8060138190555050565b60135481565b60048181548110610f6f57600080fd5b906000526020600020016000915054906101000a900473ffffffffffffffffffffffffffffffffffffffff1681565b60058181548110610fae57600080fd5b906000526020600020016000915090505481565b600260009054906101000a900473ffffffffffffffffffffffffffffffffffffffff1673ffffffffffffffffffffffffffffffffffffffff163373ffffffffffffffffffffffffffffffffffffffff1614611052576040517f08c379a0000000000000000000000000000000000000000000000000000000008152600401611049906122cf565b60405180910390fd5b6110906040518060400160405280601881526020017f46726f6d2044656c6976657279202d2d2d2d2d2d2d2d2d2d0000000000000000815250611853565b60005b8251811015611262576110fe600a60008584815181106110b6576110b56122ef565b5b602002602001015173ffffffffffffffffffffffffffffffffffffffff1673ffffffffffffffffffffffffffffffffffffffff168152602001908152602001600020546118ec565b611121828281518110611114576111136122ef565b5b60200260200101516118ec565b818181518110611134576111336122ef565b5b6020026020010151600a6000858481518110611153576111526122ef565b5b602002602001015173ffffffffffffffffffffffffffffffffffffffff1673ffffffffffffffffffffffffffffffffffffffff1681526020019081526020016000205410156111d7576040517f08c379a00000000000000000000000000000000000000000000000000000000081526004016111ce90612748565b60405180910390fd5b8181815181106111ea576111e96122ef565b5b6020026020010151600d6000858481518110611209576112086122ef565b5b602002602001015173ffffffffffffffffffffffffffffffffffffffff1673ffffffffffffffffffffffffffffffffffffffff16815260200190815260200160002081905550808061125a90612768565b915050611093565b5081600890805190602001906112799291906119ae565b508060099080519060200190611290929190611a38565b5060005b6004805490508163ffffffff16101561145957600060048263ffffffff16815481106112c3576112c26122ef565b5b9060005260206000200160009054906101000a900473ffffffffffffffffffffffffffffffffffffffff1673ffffffffffffffffffffffffffffffffffffffff1660008054906101000a900473ffffffffffffffffffffffffffffffffffffffff166040516024016113359190611c4d565b6040516020818303038152906040527f317c9984000000000000000000000000000000000000000000000000000000007bffffffffffffffffffffffffffffffffffffffffffffffffffffffff19166020820180517bffffffffffffffffffffffffffffffffffffffffffffffffffffffff83818316178352505050506040516113bf9190612398565b6000604051808303816000865af19150503d80600081146113fc576040519150601f19603f3d011682016040523d82523d6000602084013e611401565b606091505b5050905080611445576040517f08c379a000000000000000000000000000000000000000000000000000000000815260040161143c90612823565b60405180910390fd5b50808061145190612470565b915050611294565b505050565b606060058054806020026020016040519081016040528092919081815260200182805480156114ac57602002820191906000526020600020905b815481526020019060010190808311611498575b5050505050905090565b6060600260009054906101000a900473ffffffffffffffffffffffffffffffffffffffff1673ffffffffffffffffffffffffffffffffffffffff163373ffffffffffffffffffffffffffffffffffffffff1614611548576040517f08c379a000000000000000000000000000000000000000000000000000000000815260040161153f906122cf565b60405180910390fd5b600680548060200260200160405190810160405280929190818152602001828054801561159457602002820191906000526020600020905b815481526020019060010190808311611580575b5050505050905090565b6000600260009054906101000a900473ffffffffffffffffffffffffffffffffffffffff1673ffffffffffffffffffffffffffffffffffffffff163373ffffffffffffffffffffffffffffffffffffffff1614611630576040517f08c379a0000000000000000000000000000000000000000000000000000000008152600401611627906122cf565b60405180910390fd5b600b60008373ffffffffffffffffffffffffffffffffffffffff1673ffffffffffffffffffffffffffffffffffffffff168152602001908152602001600020549050919050565b606060078054806020026020016040519081016040528092919081815260200182805480156116c557602002820191906000526020600020905b8154815260200190600101908083116116b1575b5050505050905090565b600260009054906101000a900473ffffffffffffffffffffffffffffffffffffffff1673ffffffffffffffffffffffffffffffffffffffff163373ffffffffffffffffffffffffffffffffffffffff161461175f576040517f08c379a0000000000000000000000000000000000000000000000000000000008152600401611756906122cf565b60405180910390fd5b80601460006101000a81548160ff02191690831515021790555050565b6008818154811061178c57600080fd5b906000526020600020016000915054906101000a900473ffffffffffffffffffffffffffffffffffffffff1681565b6000601154905090565b6060600480548060200260200160405190810160405280929190818152602001828054801561184957602002820191906000526020600020905b8160009054906101000a900473ffffffffffffffffffffffffffffffffffffffff1673ffffffffffffffffffffffffffffffffffffffff16815260200190600101908083116117ff575b5050505050905090565b6118e9816040516024016118679190612843565b6040516020818303038152906040527f41304fac000000000000000000000000000000000000000000000000000000007bffffffffffffffffffffffffffffffffffffffffffffffffffffffff19166020820180517bffffffffffffffffffffffffffffffffffffffffffffffffffffffff8381831617835250505050611985565b50565b611982816040516024016119009190611abb565b6040516020818303038152906040527ff5b1bba9000000000000000000000000000000000000000000000000000000007bffffffffffffffffffffffffffffffffffffffffffffffffffffffff19166020820180517bffffffffffffffffffffffffffffffffffffffffffffffffffffffff8381831617835250505050611985565b50565b60008151905060006a636f6e736f6c652e6c6f679050602083016000808483855afa5050505050565b828054828255906000526020600020908101928215611a27579160200282015b82811115611a265782518260006101000a81548173ffffffffffffffffffffffffffffffffffffffff021916908373ffffffffffffffffffffffffffffffffffffffff160217905550916020019190600101906119ce565b5b509050611a349190611a85565b5090565b828054828255906000526020600020908101928215611a74579160200282015b82811115611a73578251825591602001919060010190611a58565b5b509050611a819190611a85565b5090565b5b80821115611a9e576000816000905550600101611a86565b5090565b6000819050919050565b611ab581611aa2565b82525050565b6000602082019050611ad06000830184611aac565b92915050565b6000604051905090565b600080fd5b600080fd5b60008115159050919050565b611aff81611aea565b8114611b0a57600080fd5b50565b600081359050611b1c81611af6565b92915050565b600060208284031215611b3857611b37611ae0565b5b6000611b4684828501611b0d565b91505092915050565b611b5881611aa2565b8114611b6357600080fd5b50565b600081359050611b7581611b4f565b92915050565b600060208284031215611b9157611b90611ae0565b5b6000611b9f84828501611b66565b91505092915050565b600063ffffffff82169050919050565b611bc181611ba8565b82525050565b6000602082019050611bdc6000830184611bb8565b92915050565b611beb81611aea565b82525050565b6000602082019050611c066000830184611be2565b92915050565b600073ffffffffffffffffffffffffffffffffffffffff82169050919050565b6000611c3782611c0c565b9050919050565b611c4781611c2c565b82525050565b6000602082019050611c626000830184611c3e565b92915050565b600081519050919050565b600082825260208201905092915050565b6000819050602082019050919050565b611c9d81611aa2565b82525050565b6000611caf8383611c94565b60208301905092915050565b6000602082019050919050565b6000611cd382611c68565b611cdd8185611c73565b9350611ce883611c84565b8060005b83811015611d19578151611d008882611ca3565b9750611d0b83611cbb565b925050600181019050611cec565b5085935050505092915050565b60006020820190508181036000830152611d408184611cc8565b905092915050565b600081519050919050565b600082825260208201905092915050565b6000819050602082019050919050565b611d7d81611c2c565b82525050565b6000611d8f8383611d74565b60208301905092915050565b6000602082019050919050565b6000611db382611d48565b611dbd8185611d53565b9350611dc883611d64565b8060005b83811015611df9578151611de08882611d83565b9750611deb83611d9b565b925050600181019050611dcc565b5085935050505092915050565b60006020820190508181036000830152611e208184611da8565b905092915050565b611e3181611c2c565b8114611e3c57600080fd5b50565b600081359050611e4e81611e28565b92915050565b600080fd5b600080fd5b6000601f19601f8301169050919050565b7f4e487b7100000000000000000000000000000000000000000000000000000000600052604160045260246000fd5b611ea782611e5e565b810181811067ffffffffffffffff82111715611ec657611ec5611e6f565b5b80604052505050565b6000611ed9611ad6565b9050611ee58282611e9e565b919050565b600067ffffffffffffffff821115611f0557611f04611e6f565b5b611f0e82611e5e565b9050602081019050919050565b82818337600083830152505050565b6000611f3d611f3884611eea565b611ecf565b905082815260208101848484011115611f5957611f58611e59565b5b611f64848285611f1b565b509392505050565b600082601f830112611f8157611f80611e54565b5b8135611f91848260208601611f2a565b91505092915050565b600060ff82169050919050565b611fb081611f9a565b8114611fbb57600080fd5b50565b600081359050611fcd81611fa7565b92915050565b600080600060608486031215611fec57611feb611ae0565b5b6000611ffa86828701611e3f565b935050602084013567ffffffffffffffff81111561201b5761201a611ae5565b5b61202786828701611f6c565b925050604061203886828701611fbe565b9150509250925092565b60006020828403121561205857612057611ae0565b5b600061206684828501611e3f565b91505092915050565b600067ffffffffffffffff82111561208a57612089611e6f565b5b602082029050602081019050919050565b600080fd5b60006120b36120ae8461206f565b611ecf565b905080838252602082019050602084028301858111156120d6576120d561209b565b5b835b818110156120ff57806120eb8882611e3f565b8452602084019350506020810190506120d8565b5050509392505050565b600082601f83011261211e5761211d611e54565b5b813561212e8482602086016120a0565b91505092915050565b600067ffffffffffffffff82111561215257612151611e6f565b5b602082029050602081019050919050565b600061217661217184612137565b611ecf565b905080838252602082019050602084028301858111156121995761219861209b565b5b835b818110156121c257806121ae8882611b66565b84526020840193505060208101905061219b565b5050509392505050565b600082601f8301126121e1576121e0611e54565b5b81356121f1848260208601612163565b91505092915050565b6000806040838503121561221157612210611ae0565b5b600083013567ffffffffffffffff81111561222f5761222e611ae5565b5b61223b85828601612109565b925050602083013567ffffffffffffffff81111561225c5761225b611ae5565b5b612268858286016121cc565b9150509250929050565b600082825260208201905092915050565b7f45436d617274206f6e6c79000000000000000000000000000000000000000000600082015250565b60006122b9600b83612272565b91506122c482612283565b602082019050919050565b600060208201905081810360008301526122e8816122ac565b9050919050565b7f4e487b7100000000000000000000000000000000000000000000000000000000600052603260045260246000fd5b600081519050919050565b600081905092915050565b60005b83811015612352578082015181840152602081019050612337565b83811115612361576000848401525b50505050565b60006123728261231e565b61237c8185612329565b935061238c818560208601612334565b80840191505092915050565b60006123a48284612367565b915081905092915050565b7f4275796572204e6f7420416464656420746f207468652050726f64756374204660008201527f726f6d204f5244455220636f6e74726163740000000000000000000000000000602082015250565b600061240b603283612272565b9150612416826123af565b604082019050919050565b6000602082019050818103600083015261243a816123fe565b9050919050565b7f4e487b7100000000000000000000000000000000000000000000000000000000600052601160045260246000fd5b600061247b82611ba8565b915063ffffffff82141561249257612491612441565b5b600182019050919050565b7f43616e206e6f742067697665205265766965772d526174696e672e204265636160008201527f75736520596f7520617265206e6f742074686520627579657221000000000000602082015250565b60006124f9603a83612272565b91506125048261249d565b604082019050919050565b60006020820190508181036000830152612528816124ec565b9050919050565b7f596f7520686176656e277420707572636861736564207468652070726f64756360008201527f7421000000000000000000000000000000000000000000000000000000000000602082015250565b600061258b602283612272565b91506125968261252f565b604082019050919050565b600060208201905081810360008301526125ba8161257e565b9050919050565b600081519050919050565b60006125d7826125c1565b6125e18185612272565b93506125f1818560208601612334565b6125fa81611e5e565b840191505092915050565b61260e81611f9a565b82525050565b6000604082019050818103600083015261262e81856125cc565b905061263d6020830184612605565b9392505050565b7f5265766965772d526174696e672050726f7664696e67206973204641494c454460008201527f2121000000000000000000000000000000000000000000000000000000000000602082015250565b60006126a0602283612272565b91506126ab82612644565b604082019050919050565b600060208201905081810360008301526126cf81612693565b9050919050565b7f64656c697665727920646f65736e2774206d617463682077697468206f72646560008201527f7200000000000000000000000000000000000000000000000000000000000000602082015250565b6000612732602183612272565b915061273d826126d6565b604082019050919050565b6000602082019050818103600083015261276181612725565b9050919050565b600061277382611aa2565b91507fffffffffffffffffffffffffffffffffffffffffffffffffffffffffffffffff8214156127a6576127a5612441565b5b600182019050919050565b7f5265766965772d526174696e67205065726d697373696f6e20676976656e206960008201527f73204641494c4544212100000000000000000000000000000000000000000000602082015250565b600061280d602a83612272565b9150612818826127b1565b604082019050919050565b6000602082019050818103600083015261283c81612800565b9050919050565b6000602082019050818103600083015261285d81846125cc565b90509291505056fea26469706673582212207084e76b7d0871638de79b27ff520742b72accfd3a830cfc5a2da4cb084bf0b064736f6c63430008080033a26469706673582212209f75ce67e15716e3ec436eb9e813d930fcd99731350684c4b42726d8205b4bb364736f6c63430008080033608060405234801561001057600080fd5b50611a1c806100206000396000f3fe608060405234801561001057600080fd5b50600436106100415760003560e01c80632f6d5eea14610046578063cdc6c28714610062578063fa58baee1461007e575b600080fd5b610060600480360381019061005b9190610e50565b6100b2565b005b61007c60048036038101906100779190610edb565b6103b2565b005b61009860048036038101906100939190610f2e565b610677565b6040516100a9959493929190611221565b60405180910390f35b80518251146100f6576040517f08c379a00000000000000000000000000000000000000000000000000000000081526004016100ed906112f4565b60405180910390fd5b60008060010160008573ffffffffffffffffffffffffffffffffffffffff1673ffffffffffffffffffffffffffffffffffffffff16815260200190815260200160002060009054906101000a900460ff1660ff16141561018b576040517f08c379a000000000000000000000000000000000000000000000000000000000815260040161018290611360565b60405180910390fd5b60008390503373ffffffffffffffffffffffffffffffffffffffff168173ffffffffffffffffffffffffffffffffffffffff166343c97c846040518163ffffffff1660e01b815260040160206040518083038186803b1580156101ed57600080fd5b505afa158015610201573d6000803e3d6000fd5b505050506040513d601f19601f820116820180604052508101906102259190611395565b73ffffffffffffffffffffffffffffffffffffffff161461027b576040517f08c379a00000000000000000000000000000000000000000000000000000000081526004016102729061140e565b60405180910390fd5b600015158173ffffffffffffffffffffffffffffffffffffffff16634fbd39d36040518163ffffffff1660e01b815260040160206040518083038186803b1580156102c557600080fd5b505afa1580156102d9573d6000803e3d6000fd5b505050506040513d601f19601f820116820180604052508101906102fd9190611466565b15151461033f576040517f08c379a0000000000000000000000000000000000000000000000000000000008152600401610336906114df565b60405180910390fd5b8073ffffffffffffffffffffffffffffffffffffffff1663bdb9207484846040518363ffffffff1660e01b815260040161037a9291906114ff565b600060405180830381600087803b15801561039457600080fd5b505af11580156103a8573d6000803e3d6000fd5b5050505050505050565b60008060050160003373ffffffffffffffffffffffffffffffffffffffff1673ffffffffffffffffffffffffffffffffffffffff16815260200190815260200160002060009054906101000a900460ff1660ff161415610447576040517f08c379a000000000000000000000000000000000000000000000000000000000815260040161043e9061140e565b60405180910390fd5b60008060010160008573ffffffffffffffffffffffffffffffffffffffff1673ffffffffffffffffffffffffffffffffffffffff16815260200190815260200160002060009054906101000a900460ff1660ff1614156104dc576040517f08c379a00000000000000000000000000000000000000000000000000000000081526004016104d390611360565b60405180910390fd5b6000839050600073ffffffffffffffffffffffffffffffffffffffff168173ffffffffffffffffffffffffffffffffffffffff166343c97c846040518163ffffffff1660e01b815260040160206040518083038186803b15801561053f57600080fd5b505afa158015610553573d6000803e3d6000fd5b505050506040513d601f19601f820116820180604052508101906105779190611395565b73ffffffffffffffffffffffffffffffffffffffff16146105cd576040517f08c379a00000000000000000000000000000000000000000000000000000000081526004016105c490611582565b60405180910390fd5b8073ffffffffffffffffffffffffffffffffffffffff1663ab3cb34c336040518263ffffffff1660e01b815260040161060691906115b1565b600060405180830381600087803b15801561062057600080fd5b505af1158015610634573d6000803e3d6000fd5b505050507fc96e8bca962f64e910e603a370af4bc2c95bccdaef7836482df81a004bbcead583836040516106699291906115db565b60405180910390a150505050565b606080606080606060008060010160008873ffffffffffffffffffffffffffffffffffffffff1673ffffffffffffffffffffffffffffffffffffffff16815260200190815260200160002060009054906101000a900460ff1660ff161415610714576040517f08c379a000000000000000000000000000000000000000000000000000000000815260040161070b90611360565b60405180910390fd5b600086905060008173ffffffffffffffffffffffffffffffffffffffff1663444066176040518163ffffffff1660e01b815260040160006040518083038186803b15801561076157600080fd5b505afa158015610775573d6000803e3d6000fd5b505050506040513d6000823e3d601f19601f8201168201806040525081019061079e919061169b565b905060008273ffffffffffffffffffffffffffffffffffffffff16634117163e6040518163ffffffff1660e01b815260040160006040518083038186803b1580156107e857600080fd5b505afa1580156107fc573d6000803e3d6000fd5b505050506040513d6000823e3d601f19601f820116820180604052508101906108259190611790565b90506000825167ffffffffffffffff81111561084457610843610c14565b5b60405190808252806020026020018201604052801561087757816020015b60608152602001906001900390816108625790505b5090506000835167ffffffffffffffff81111561089757610896610c14565b5b6040519080825280602002602001820160405280156108c55781602001602082028036833780820191505090505b5090506000845167ffffffffffffffff8111156108e5576108e4610c14565b5b6040519080825280602002602001820160405280156109135781602001602082028036833780820191505090505b50905060005b85518161ffff161015610b6d576000868261ffff168151811061093f5761093e6117d9565b5b602002602001015190508073ffffffffffffffffffffffffffffffffffffffff166317d7de7c6040518163ffffffff1660e01b815260040160006040518083038186803b15801561098f57600080fd5b505afa1580156109a3573d6000803e3d6000fd5b505050506040513d6000823e3d601f19601f820116820180604052508101906109cc91906118ae565b858361ffff16815181106109e3576109e26117d9565b5b6020026020010181905250858261ffff1681518110610a0557610a046117d9565b5b60200260200101518173ffffffffffffffffffffffffffffffffffffffff166384aa33656040518163ffffffff1660e01b815260040160206040518083038186803b158015610a5357600080fd5b505afa158015610a67573d6000803e3d6000fd5b505050506040513d601f19601f82011682018060405250810190610a8b91906118f7565b610a959190611953565b848361ffff1681518110610aac57610aab6117d9565b5b6020026020010181815250508073ffffffffffffffffffffffffffffffffffffffff166384aa33656040518163ffffffff1660e01b815260040160206040518083038186803b158015610afe57600080fd5b505afa158015610b12573d6000803e3d6000fd5b505050506040513d601f19601f82011682018060405250810190610b3691906118f7565b838361ffff1681518110610b4d57610b4c6117d9565b5b602002602001018181525050508080610b65906119bb565b915050610919565b5082858583859a509a509a509a509a5050505050505091939590929450565b6000604051905090565b600080fd5b600080fd5b600073ffffffffffffffffffffffffffffffffffffffff82169050919050565b6000610bcb82610ba0565b9050919050565b610bdb81610bc0565b8114610be657600080fd5b50565b600081359050610bf881610bd2565b92915050565b600080fd5b6000601f19601f8301169050919050565b7f4e487b7100000000000000000000000000000000000000000000000000000000600052604160045260246000fd5b610c4c82610c03565b810181811067ffffffffffffffff82111715610c6b57610c6a610c14565b5b80604052505050565b6000610c7e610b8c565b9050610c8a8282610c43565b919050565b600067ffffffffffffffff821115610caa57610ca9610c14565b5b602082029050602081019050919050565b600080fd5b6000610cd3610cce84610c8f565b610c74565b90508083825260208201905060208402830185811115610cf657610cf5610cbb565b5b835b81811015610d1f5780610d0b8882610be9565b845260208401935050602081019050610cf8565b5050509392505050565b600082601f830112610d3e57610d3d610bfe565b5b8135610d4e848260208601610cc0565b91505092915050565b600067ffffffffffffffff821115610d7257610d71610c14565b5b602082029050602081019050919050565b6000819050919050565b610d9681610d83565b8114610da157600080fd5b50565b600081359050610db381610d8d565b92915050565b6000610dcc610dc784610d57565b610c74565b90508083825260208201905060208402830185811115610def57610dee610cbb565b5b835b81811015610e185780610e048882610da4565b845260208401935050602081019050610df1565b5050509392505050565b600082601f830112610e3757610e36610bfe565b5b8135610e47848260208601610db9565b91505092915050565b600080600060608486031215610e6957610e68610b96565b5b6000610e7786828701610be9565b935050602084013567ffffffffffffffff811115610e9857610e97610b9b565b5b610ea486828701610d29565b925050604084013567ffffffffffffffff811115610ec557610ec4610b9b565b5b610ed186828701610e22565b9150509250925092565b600080600060608486031215610ef457610ef3610b96565b5b6000610f0286828701610be9565b9350506020610f1386828701610da4565b9250506040610f2486828701610da4565b9150509250925092565b600060208284031215610f4457610f43610b96565b5b6000610f5284828501610be9565b91505092915050565b600081519050919050565b600082825260208201905092915050565b6000819050602082019050919050565b600081519050919050565b600082825260208201905092915050565b60005b83811015610fc1578082015181840152602081019050610fa6565b83811115610fd0576000848401525b50505050565b6000610fe182610f87565b610feb8185610f92565b9350610ffb818560208601610fa3565b61100481610c03565b840191505092915050565b600061101b8383610fd6565b905092915050565b6000602082019050919050565b600061103b82610f5b565b6110458185610f66565b93508360208202850161105785610f77565b8060005b858110156110935784840389528151611074858261100f565b945061107f83611023565b925060208a0199505060018101905061105b565b50829750879550505050505092915050565b600081519050919050565b600082825260208201905092915050565b6000819050602082019050919050565b6110da81610bc0565b82525050565b60006110ec83836110d1565b60208301905092915050565b6000602082019050919050565b6000611110826110a5565b61111a81856110b0565b9350611125836110c1565b8060005b8381101561115657815161113d88826110e0565b9750611148836110f8565b925050600181019050611129565b5085935050505092915050565b600081519050919050565b600082825260208201905092915050565b6000819050602082019050919050565b61119881610d83565b82525050565b60006111aa838361118f565b60208301905092915050565b6000602082019050919050565b60006111ce82611163565b6111d8818561116e565b93506111e38361117f565b8060005b838110156112145781516111fb888261119e565b9750611206836111b6565b9250506001810190506111e7565b5085935050505092915050565b600060a082019050818103600083015261123b8188611030565b9050818103602083015261124f8187611105565b9050818103604083015261126381866111c3565b9050818103606083015261127781856111c3565b9050818103608083015261128b81846111c3565b90509695505050505050565b600082825260208201905092915050565b7f417272617973206d7573742068617665207468652073616d65206c656e677468600082015250565b60006112de602083611297565b91506112e9826112a8565b602082019050919050565b6000602082019050818103600083015261130d816112d1565b9050919050565b7f496e76616c6964206f7264657200000000000000000000000000000000000000600082015250565b600061134a600d83611297565b915061135582611314565b602082019050919050565b600060208201905081810360008301526113798161133d565b9050919050565b60008151905061138f81610bd2565b92915050565b6000602082840312156113ab576113aa610b96565b5b60006113b984828501611380565b91505092915050565b7f496e76616c69642064656c6976657279206d616e000000000000000000000000600082015250565b60006113f8601483611297565b9150611403826113c2565b602082019050919050565b60006020820190508181036000830152611427816113eb565b9050919050565b60008115159050919050565b6114438161142e565b811461144e57600080fd5b50565b6000815190506114608161143a565b92915050565b60006020828403121561147c5761147b610b96565b5b600061148a84828501611451565b91505092915050565b7f616c72656164792064656c697665726564000000000000000000000000000000600082015250565b60006114c9601183611297565b91506114d482611493565b602082019050919050565b600060208201905081810360008301526114f8816114bc565b9050919050565b600060408201905081810360008301526115198185611105565b9050818103602083015261152d81846111c3565b90509392505050565b7f44656c6976657279206d616e20697320616c7265616479207365740000000000600082015250565b600061156c601b83611297565b915061157782611536565b602082019050919050565b6000602082019050818103600083015261159b8161155f565b9050919050565b6115ab81610bc0565b82525050565b60006020820190506115c660008301846115a2565b92915050565b6115d581610d83565b82525050565b60006040820190506115f060008301856115cc565b6115fd60208301846115cc565b9392505050565b600061161761161284610c8f565b610c74565b9050808382526020820190506020840283018581111561163a57611639610cbb565b5b835b81811015611663578061164f8882611380565b84526020840193505060208101905061163c565b5050509392505050565b600082601f83011261168257611681610bfe565b5b8151611692848260208601611604565b91505092915050565b6000602082840312156116b1576116b0610b96565b5b600082015167ffffffffffffffff8111156116cf576116ce610b9b565b5b6116db8482850161166d565b91505092915050565b6000815190506116f381610d8d565b92915050565b600061170c61170784610d57565b610c74565b9050808382526020820190506020840283018581111561172f5761172e610cbb565b5b835b81811015611758578061174488826116e4565b845260208401935050602081019050611731565b5050509392505050565b600082601f83011261177757611776610bfe565b5b81516117878482602086016116f9565b91505092915050565b6000602082840312156117a6576117a5610b96565b5b600082015167ffffffffffffffff8111156117c4576117c3610b9b565b5b6117d084828501611762565b91505092915050565b7f4e487b7100000000000000000000000000000000000000000000000000000000600052603260045260246000fd5b600080fd5b600067ffffffffffffffff82111561182857611827610c14565b5b61183182610c03565b9050602081019050919050565b600061185161184c8461180d565b610c74565b90508281526020810184848401111561186d5761186c611808565b5b611878848285610fa3565b509392505050565b600082601f83011261189557611894610bfe565b5b81516118a584826020860161183e565b91505092915050565b6000602082840312156118c4576118c3610b96565b5b600082015167ffffffffffffffff8111156118e2576118e1610b9b565b5b6118ee84828501611880565b91505092915050565b60006020828403121561190d5761190c610b96565b5b600061191b848285016116e4565b91505092915050565b7f4e487b7100000000000000000000000000000000000000000000000000000000600052601160045260246000fd5b600061195e82610d83565b915061196983610d83565b9250817fffffffffffffffffffffffffffffffffffffffffffffffffffffffffffffffff04831182151516156119a2576119a1611924565b5b828202905092915050565b600061ffff82169050919050565b60006119c6826119ad565b915061ffff8214156119db576119da611924565b5b60018201905091905056fea2646970667358221220a6d81e4a8c47f96cf8d2ca43a401041d658358e32840e07e089dd9929582132e64736f6c63430008080033608060405234801561001057600080fd5b506126fd806100206000396000f3fe60806040523480156200001157600080fd5b50600436106200003a5760003560e01c8063677e8bc0146200003f578063f3122fca146200005f575b600080fd5b6200005d600480360381019062000057919062000754565b62000095565b005b6200007d60048036038101906200007791906200087f565b62000360565b6040516200008c91906200097f565b60405180910390f35b6001600060030160003373ffffffffffffffffffffffffffffffffffffffff1673ffffffffffffffffffffffffffffffffffffffff16815260200190815260200160002060009054906101000a900460ff1660ff16146200012d576040517f08c379a0000000000000000000000000000000000000000000000000000000008152600401620001249062000a04565b60405180910390fd5b600060646000600801548662000144919062000a55565b62000150919062000ae5565b6000600701546000600601548762000169919062000b1d565b62000175919062000b1d565b62000181919062000b1d565b9050620001c46040518060400160405280601a81526020017f5f46696e616c205072696365206f662050726f64756374203a20000000000000815250826200042f565b600086868686333087604051620001db9062000595565b620001ed979695949392919062000c1e565b604051809103906000f0801580156200020a573d6000803e3d6000fd5b50905060008190506200021d81620004cf565b600960003373ffffffffffffffffffffffffffffffffffffffff1673ffffffffffffffffffffffffffffffffffffffff168152602001908152602001600020819080600181540180825580915050600190039060005260206000200160009091909190916101000a81548173ffffffffffffffffffffffffffffffffffffffff021916908373ffffffffffffffffffffffffffffffffffffffff1602179055506001600060020160008473ffffffffffffffffffffffffffffffffffffffff1673ffffffffffffffffffffffffffffffffffffffff16815260200190815260200160002060006101000a81548160ff021916908360ff1602179055507f6d6b40783c573ab0804a549d155a54d2d9ecf854ec6cf78c9e5c62ae07fe60208382866040516200034e9392919062000ca9565b60405180910390a15050505050505050565b6060600960008373ffffffffffffffffffffffffffffffffffffffff1673ffffffffffffffffffffffffffffffffffffffff1681526020019081526020016000208054806020026020016040519081016040528092919081815260200182805480156200042357602002820191906000526020600020905b8160009054906101000a900473ffffffffffffffffffffffffffffffffffffffff1673ffffffffffffffffffffffffffffffffffffffff1681526020019060010190808311620003d8575b50505050509050919050565b620004cb82826040516024016200044892919062000ce6565b6040516020818303038152906040527f9710a9d0000000000000000000000000000000000000000000000000000000007bffffffffffffffffffffffffffffffffffffffffffffffffffffffff19166020820180517bffffffffffffffffffffffffffffffffffffffffffffffffffffffff83818316178352505050506200056c565b5050565b6200056981604051602401620004e6919062000d1a565b6040516020818303038152906040527f2c2ecbc2000000000000000000000000000000000000000000000000000000007bffffffffffffffffffffffffffffffffffffffffffffffffffffffff19166020820180517bffffffffffffffffffffffffffffffffffffffffffffffffffffffff83818316178352505050506200056c565b50565b60008151905060006a636f6e736f6c652e6c6f679050602083016000808483855afa5050505050565b6119908062000d3883390190565b6000604051905090565b600080fd5b600080fd5b600080fd5b600080fd5b6000601f19601f8301169050919050565b7f4e487b7100000000000000000000000000000000000000000000000000000000600052604160045260246000fd5b6200060c82620005c1565b810181811067ffffffffffffffff821117156200062e576200062d620005d2565b5b80604052505050565b600062000643620005a3565b905062000651828262000601565b919050565b600067ffffffffffffffff821115620006745762000673620005d2565b5b6200067f82620005c1565b9050602081019050919050565b82818337600083830152505050565b6000620006b2620006ac8462000656565b62000637565b905082815260208101848484011115620006d157620006d0620005bc565b5b620006de8482856200068c565b509392505050565b600082601f830112620006fe57620006fd620005b7565b5b8135620007108482602086016200069b565b91505092915050565b6000819050919050565b6200072e8162000719565b81146200073a57600080fd5b50565b6000813590506200074e8162000723565b92915050565b600080600080600060a08688031215620007735762000772620005ad565b5b600086013567ffffffffffffffff811115620007945762000793620005b2565b5b620007a288828901620006e6565b9550506020620007b5888289016200073d565b945050604086013567ffffffffffffffff811115620007d957620007d8620005b2565b5b620007e788828901620006e6565b9350506060620007fa888289016200073d565b92505060806200080d888289016200073d565b9150509295509295909350565b600073ffffffffffffffffffffffffffffffffffffffff82169050919050565b600062000847826200081a565b9050919050565b62000859816200083a565b81146200086557600080fd5b50565b60008135905062000879816200084e565b92915050565b600060208284031215620008985762000897620005ad565b5b6000620008a88482850162000868565b91505092915050565b600081519050919050565b600082825260208201905092915050565b6000819050602082019050919050565b620008e8816200083a565b82525050565b6000620008fc8383620008dd565b60208301905092915050565b6000602082019050919050565b60006200092282620008b1565b6200092e8185620008bc565b93506200093b83620008cd565b8060005b8381101562000972578151620009568882620008ee565b9750620009638362000908565b9250506001810190506200093f565b5085935050505092915050565b600060208201905081810360008301526200099b818462000915565b905092915050565b600082825260208201905092915050565b7f596f7520617265206e6f7420612073656c6c6572000000000000000000000000600082015250565b6000620009ec601483620009a3565b9150620009f982620009b4565b602082019050919050565b6000602082019050818103600083015262000a1f81620009dd565b9050919050565b7f4e487b7100000000000000000000000000000000000000000000000000000000600052601160045260246000fd5b600062000a628262000719565b915062000a6f8362000719565b9250817fffffffffffffffffffffffffffffffffffffffffffffffffffffffffffffffff048311821515161562000aab5762000aaa62000a26565b5b828202905092915050565b7f4e487b7100000000000000000000000000000000000000000000000000000000600052601260045260246000fd5b600062000af28262000719565b915062000aff8362000719565b92508262000b125762000b1162000ab6565b5b828204905092915050565b600062000b2a8262000719565b915062000b378362000719565b9250827fffffffffffffffffffffffffffffffffffffffffffffffffffffffffffffffff0382111562000b6f5762000b6e62000a26565b5b828201905092915050565b600081519050919050565b60005b8381101562000ba557808201518184015260208101905062000b88565b8381111562000bb5576000848401525b50505050565b600062000bc88262000b7a565b62000bd48185620009a3565b935062000be681856020860162000b85565b62000bf181620005c1565b840191505092915050565b62000c078162000719565b82525050565b62000c18816200083a565b82525050565b600060e082019050818103600083015262000c3a818a62000bbb565b905062000c4b602083018962000bfc565b818103604083015262000c5f818862000bbb565b905062000c70606083018762000bfc565b62000c7f608083018662000c0d565b62000c8e60a083018562000c0d565b62000c9d60c083018462000bfc565b98975050505050505050565b600060608201905062000cc0600083018662000bfc565b62000ccf602083018562000c0d565b62000cde604083018462000bfc565b949350505050565b6000604082019050818103600083015262000d02818562000bbb565b905062000d13602083018462000bfc565b9392505050565b600060208201905062000d31600083018462000c0d565b9291505056fe60806040523480156200001157600080fd5b5060405162001990380380620019908339818101604052810190620000379190620003fa565b86600090805190602001906200004f9291906200010d565b5085600181905550836002819055508460049080519060200190620000769291906200010d565b5082600560006101000a81548173ffffffffffffffffffffffffffffffffffffffff021916908373ffffffffffffffffffffffffffffffffffffffff16021790555081600660006101000a81548173ffffffffffffffffffffffffffffffffffffffff021916908373ffffffffffffffffffffffffffffffffffffffff160217905550806007819055505050505050505062000550565b8280546200011b906200051a565b90600052602060002090601f0160209004810192826200013f57600085556200018b565b82601f106200015a57805160ff19168380011785556200018b565b828001600101855582156200018b579182015b828111156200018a5782518255916020019190600101906200016d565b5b5090506200019a91906200019e565b5090565b5b80821115620001b95760008160009055506001016200019f565b5090565b6000604051905090565b600080fd5b600080fd5b600080fd5b600080fd5b6000601f19601f8301169050919050565b7f4e487b7100000000000000000000000000000000000000000000000000000000600052604160045260246000fd5b6200022682620001db565b810181811067ffffffffffffffff82111715620002485762000247620001ec565b5b80604052505050565b60006200025d620001bd565b90506200026b82826200021b565b919050565b600067ffffffffffffffff8211156200028e576200028d620001ec565b5b6200029982620001db565b9050602081019050919050565b60005b83811015620002c6578082015181840152602081019050620002a9565b83811115620002d6576000848401525b50505050565b6000620002f3620002ed8462000270565b62000251565b905082815260208101848484011115620003125762000311620001d6565b5b6200031f848285620002a6565b509392505050565b600082601f8301126200033f576200033e620001d1565b5b815162000351848260208601620002dc565b91505092915050565b6000819050919050565b6200036f816200035a565b81146200037b57600080fd5b50565b6000815190506200038f8162000364565b92915050565b600073ffffffffffffffffffffffffffffffffffffffff82169050919050565b6000620003c28262000395565b9050919050565b620003d481620003b5565b8114620003e057600080fd5b50565b600081519050620003f481620003c9565b92915050565b600080600080600080600060e0888a0312156200041c576200041b620001c7565b5b600088015167ffffffffffffffff8111156200043d576200043c620001cc565b5b6200044b8a828b0162000327565b97505060206200045e8a828b016200037e565b965050604088015167ffffffffffffffff811115620004825762000481620001cc565b5b620004908a828b0162000327565b9550506060620004a38a828b016200037e565b9450506080620004b68a828b01620003e3565b93505060a0620004c98a828b01620003e3565b92505060c0620004dc8a828b016200037e565b91505092959891949750929550565b7f4e487b7100000000000000000000000000000000000000000000000000000000600052602260045260246000fd5b600060028204905060018216806200053357607f821691505b602082108114156200054a5762000549620004eb565b5b50919050565b61143080620005606000396000f3fe608060405234801561001057600080fd5b50600436106100cf5760003560e01c806398d5fdca1161008c578063db6a365211610066578063db6a3652146101ec578063dbd0e1b614610208578063edbab14314610226578063f2aa821814610244576100cf565b806398d5fdca14610182578063a85c38ef146101a0578063bbf89803146101d0576100cf565b80630115949c146100d457806317d7de7c146100f257806317fa1f471461011057806326cd59b31461012c578063317c99841461014857806384aa336514610164575b600080fd5b6100dc610274565b6040516100e99190610c90565b60405180910390f35b6100fa61027e565b6040516101079190610d44565b60405180910390f35b61012a60048036038101906101259190610da6565b610310565b005b61014660048036038101906101419190610f41565b610402565b005b610162600480360381019061015d9190610ffb565b6106eb565b005b61016c6107a7565b6040516101799190610c90565b60405180910390f35b61018a6107b1565b6040516101979190610c90565b60405180910390f35b6101ba60048036038101906101b59190610da6565b6108a3565b6040516101c79190611037565b60405180910390f35b6101ea60048036038101906101e59190610ffb565b6108e2565b005b61020660048036038101906102019190611052565b610a2a565b005b610210610b65565b60405161021d9190611037565b60405180910390f35b61022e610b8f565b60405161023b9190610c90565b60405180910390f35b61025e60048036038101906102599190610da6565b610b95565b60405161026b9190611037565b60405180910390f35b6000600254905090565b60606000805461028d906110c1565b80601f01602080910402602001604051908101604052809291908181526020018280546102b9906110c1565b80156103065780601f106102db57610100808354040283529160200191610306565b820191906000526020600020905b8154815290600101906020018083116102e957829003601f168201915b5050505050905090565b600660009054906101000a900473ffffffffffffffffffffffffffffffffffffffff1673ffffffffffffffffffffffffffffffffffffffff163373ffffffffffffffffffffffffffffffffffffffff1614806103b95750600560009054906101000a900473ffffffffffffffffffffffffffffffffffffffff1673ffffffffffffffffffffffffffffffffffffffff163373ffffffffffffffffffffffffffffffffffffffff16145b6103f8576040517f08c379a00000000000000000000000000000000000000000000000000000000081526004016103ef9061113f565b60405180910390fd5b8060028190555050565b6000600b60003373ffffffffffffffffffffffffffffffffffffffff1673ffffffffffffffffffffffffffffffffffffffff16815260200190815260200160002060009054906101000a900463ffffffff1663ffffffff16141561049b576040517f08c379a0000000000000000000000000000000000000000000000000000000008152600401610492906111d1565b60405180910390fd5b600c60003373ffffffffffffffffffffffffffffffffffffffff1673ffffffffffffffffffffffffffffffffffffffff16815260200190815260200160002060010180549050600b60003373ffffffffffffffffffffffffffffffffffffffff1673ffffffffffffffffffffffffffffffffffffffff16815260200190815260200160002060009054906101000a900463ffffffff1663ffffffff1610610577576040517f08c379a000000000000000000000000000000000000000000000000000000000815260040161056e90611263565b60405180910390fd5b6000429050600c60003373ffffffffffffffffffffffffffffffffffffffff1673ffffffffffffffffffffffffffffffffffffffff168152602001908152602001600020600001839080600181540180825580915050600190039060005260206000200160009091909190915090805190602001906105f7929190610bd4565b50600c60003373ffffffffffffffffffffffffffffffffffffffff1673ffffffffffffffffffffffffffffffffffffffff1681526020019081526020016000206001018290806001815401808255809150506001900390600052602060002090602091828204019190069091909190916101000a81548160ff021916908360ff160217905550600c60003373ffffffffffffffffffffffffffffffffffffffff1673ffffffffffffffffffffffffffffffffffffffff168152602001908152602001600020600201819080600181540180825580915050600190039060005260206000200160009091909190915055505050565b6001600b60008373ffffffffffffffffffffffffffffffffffffffff1673ffffffffffffffffffffffffffffffffffffffff16815260200190815260200160002060009054906101000a900463ffffffff1661074791906112c2565b600b60008373ffffffffffffffffffffffffffffffffffffffff1673ffffffffffffffffffffffffffffffffffffffff16815260200190815260200160002060006101000a81548163ffffffff021916908363ffffffff16021790555050565b6000600754905090565b6000600660009054906101000a900473ffffffffffffffffffffffffffffffffffffffff1673ffffffffffffffffffffffffffffffffffffffff163373ffffffffffffffffffffffffffffffffffffffff16148061085c5750600560009054906101000a900473ffffffffffffffffffffffffffffffffffffffff1673ffffffffffffffffffffffffffffffffffffffff163373ffffffffffffffffffffffffffffffffffffffff16145b61089b576040517f08c379a00000000000000000000000000000000000000000000000000000000081526004016108929061113f565b60405180910390fd5b600154905090565b600981815481106108b357600080fd5b906000526020600020016000915054906101000a900473ffffffffffffffffffffffffffffffffffffffff1681565b6000600860003373ffffffffffffffffffffffffffffffffffffffff1673ffffffffffffffffffffffffffffffffffffffff168152602001908152602001600020541415610965576040517f08c379a000000000000000000000000000000000000000000000000000000000815260040161095c9061136e565b60405180910390fd5b6000600b60008373ffffffffffffffffffffffffffffffffffffffff1673ffffffffffffffffffffffffffffffffffffffff16815260200190815260200160002060009054906101000a900463ffffffff1663ffffffff161415610a2757600a819080600181540180825580915050600190039060005260206000200160009091909190916101000a81548173ffffffffffffffffffffffffffffffffffffffff021916908373ffffffffffffffffffffffffffffffffffffffff1602179055505b50565b600660009054906101000a900473ffffffffffffffffffffffffffffffffffffffff1673ffffffffffffffffffffffffffffffffffffffff163373ffffffffffffffffffffffffffffffffffffffff1614610aba576040517f08c379a0000000000000000000000000000000000000000000000000000000008152600401610ab1906113da565b60405180910390fd5b6009829080600181540180825580915050600190039060005260206000200160009091909190916101000a81548173ffffffffffffffffffffffffffffffffffffffff021916908373ffffffffffffffffffffffffffffffffffffffff16021790555080600860008473ffffffffffffffffffffffffffffffffffffffff1673ffffffffffffffffffffffffffffffffffffffff168152602001908152602001600020819055505050565b6000600560009054906101000a900473ffffffffffffffffffffffffffffffffffffffff16905090565b60075481565b600a8181548110610ba557600080fd5b906000526020600020016000915054906101000a900473ffffffffffffffffffffffffffffffffffffffff1681565b828054610be0906110c1565b90600052602060002090601f016020900481019282610c025760008555610c49565b82601f10610c1b57805160ff1916838001178555610c49565b82800160010185558215610c49579182015b82811115610c48578251825591602001919060010190610c2d565b5b509050610c569190610c5a565b5090565b5b80821115610c73576000816000905550600101610c5b565b5090565b6000819050919050565b610c8a81610c77565b82525050565b6000602082019050610ca56000830184610c81565b92915050565b600081519050919050565b600082825260208201905092915050565b60005b83811015610ce5578082015181840152602081019050610cca565b83811115610cf4576000848401525b50505050565b6000601f19601f8301169050919050565b6000610d1682610cab565b610d208185610cb6565b9350610d30818560208601610cc7565b610d3981610cfa565b840191505092915050565b60006020820190508181036000830152610d5e8184610d0b565b905092915050565b6000604051905090565b600080fd5b600080fd5b610d8381610c77565b8114610d8e57600080fd5b50565b600081359050610da081610d7a565b92915050565b600060208284031215610dbc57610dbb610d70565b5b6000610dca84828501610d91565b91505092915050565b600080fd5b600080fd5b7f4e487b7100000000000000000000000000000000000000000000000000000000600052604160045260246000fd5b610e1582610cfa565b810181811067ffffffffffffffff82111715610e3457610e33610ddd565b5b80604052505050565b6000610e47610d66565b9050610e538282610e0c565b919050565b600067ffffffffffffffff821115610e7357610e72610ddd565b5b610e7c82610cfa565b9050602081019050919050565b82818337600083830152505050565b6000610eab610ea684610e58565b610e3d565b905082815260208101848484011115610ec757610ec6610dd8565b5b610ed2848285610e89565b509392505050565b600082601f830112610eef57610eee610dd3565b5b8135610eff848260208601610e98565b91505092915050565b600060ff82169050919050565b610f1e81610f08565b8114610f2957600080fd5b50565b600081359050610f3b81610f15565b92915050565b60008060408385031215610f5857610f57610d70565b5b600083013567ffffffffffffffff811115610f7657610f75610d75565b5b610f8285828601610eda565b9250506020610f9385828601610f2c565b9150509250929050565b600073ffffffffffffffffffffffffffffffffffffffff82169050919050565b6000610fc882610f9d565b9050919050565b610fd881610fbd565b8114610fe357600080fd5b50565b600081359050610ff581610fcf565b92915050565b60006020828403121561101157611010610d70565b5b600061101f84828501610fe6565b91505092915050565b61103181610fbd565b82525050565b600060208201905061104c6000830184611028565b92915050565b6000806040838503121561106957611068610d70565b5b600061107785828601610fe6565b925050602061108885828601610d91565b9150509250929050565b7f4e487b7100000000000000000000000000000000000000000000000000000000600052602260045260246000fd5b600060028204905060018216806110d957607f821691505b602082108114156110ed576110ec611092565b5b50919050565b7f4e6f74204f776e6572206f722073656c6c657200000000000000000000000000600082015250565b6000611129601383610cb6565b9150611134826110f3565b602082019050919050565b600060208201905081810360008301526111588161111c565b9050919050565b7f596f7520617265206e6f742061206275796572206f66207468652070726f647560008201527f6374000000000000000000000000000000000000000000000000000000000000602082015250565b60006111bb602283610cb6565b91506111c68261115f565b604082019050919050565b600060208201905081810360008301526111ea816111ae565b9050919050565b7f596f75206861766520616c72656164792070726f76696465642072657669657760008201527f20616e6420726174696e67206f6620746869732070726f647563740000000000602082015250565b600061124d603b83610cb6565b9150611258826111f1565b604082019050919050565b6000602082019050818103600083015261127c81611240565b9050919050565b600063ffffffff82169050919050565b7f4e487b7100000000000000000000000000000000000000000000000000000000600052601160045260246000fd5b60006112cd82611283565b91506112d883611283565b92508263ffffffff038211156112f1576112f0611293565b5b828201905092915050565b7f50726f64756374206973206e6f74206173736f7369617465642077697468207460008201527f6865204f52444552000000000000000000000000000000000000000000000000602082015250565b6000611358602883610cb6565b9150611363826112fc565b604082019050919050565b600060208201905081810360008301526113878161134b565b9050919050565b7f4e6f742045434d61727420286f776e6572290000000000000000000000000000600082015250565b60006113c4601283610cb6565b91506113cf8261138e565b602082019050919050565b600060208201905081810360008301526113f3816113b7565b905091905056fea2646970667358221220ec9702449c303b887c1e9315d2c043ebb6d784f7b40255537177862bc3fc8e8164736f6c63430008080033a264697066735822122098cc9b8cfd5ad1366a6f17ca11a2ecf8ac9036619d7881bef5fe90e2157f9be964736f6c63430008080033608060405234801561001057600080fd5b506105c4806100206000396000f3fe608060405234801561001057600080fd5b50600436106100415760003560e01c80638861731514610046578063a0f7c55a14610062578063c621955e1461007e575b600080fd5b610060600480360381019061005b919061041f565b61009a565b005b61007c6004803603810190610077919061041f565b610171565b005b6100986004803603810190610093919061041f565b610248565b005b6001600060030160003373ffffffffffffffffffffffffffffffffffffffff1673ffffffffffffffffffffffffffffffffffffffff16815260200190815260200160002060006101000a81548160ff021916908360ff1602179055506101356040518060400160405280601481526020017f53656c6c65722072656769737465726564203a200000000000000000000000008152503361031f565b7f75dffe0fb61ff2c8945116ae986d8a0a87751d4addbdf798e256d7415aa4162d338260405161016692919061049c565b60405180910390a150565b6002600060040160003373ffffffffffffffffffffffffffffffffffffffff1673ffffffffffffffffffffffffffffffffffffffff16815260200190815260200160002060006101000a81548160ff021916908360ff16021790555061020c6040518060400160405280601381526020017f42757965722052656769737465726564203a20000000000000000000000000008152503361031f565b7f75dffe0fb61ff2c8945116ae986d8a0a87751d4addbdf798e256d7415aa4162d338260405161023d92919061049c565b60405180910390a150565b6003600060050160003373ffffffffffffffffffffffffffffffffffffffff1673ffffffffffffffffffffffffffffffffffffffff16815260200190815260200160002060006101000a81548160ff021916908360ff1602179055506102e36040518060400160405280601981526020017f44656c69766572796d616e2052656769737465726564203a20000000000000008152503361031f565b7f75dffe0fb61ff2c8945116ae986d8a0a87751d4addbdf798e256d7415aa4162d338260405161031492919061049c565b60405180910390a150565b6103b7828260405160240161033592919061055e565b6040516020818303038152906040527f319af333000000000000000000000000000000000000000000000000000000007bffffffffffffffffffffffffffffffffffffffffffffffffffffffff19166020820180517bffffffffffffffffffffffffffffffffffffffffffffffffffffffff83818316178352505050506103bb565b5050565b60008151905060006a636f6e736f6c652e6c6f679050602083016000808483855afa5050505050565b600080fd5b6000819050919050565b6103fc816103e9565b811461040757600080fd5b50565b600081359050610419816103f3565b92915050565b600060208284031215610435576104346103e4565b5b60006104438482850161040a565b91505092915050565b600073ffffffffffffffffffffffffffffffffffffffff82169050919050565b60006104778261044c565b9050919050565b6104878161046c565b82525050565b610496816103e9565b82525050565b60006040820190506104b1600083018561047e565b6104be602083018461048d565b9392505050565b600081519050919050565b600082825260208201905092915050565b60005b838110156104ff5780820151818401526020810190506104e4565b8381111561050e576000848401525b50505050565b6000601f19601f8301169050919050565b6000610530826104c5565b61053a81856104d0565b935061054a8185602086016104e1565b61055381610514565b840191505092915050565b600060408201905081810360008301526105788185610525565b9050610587602083018461047e565b939250505056fea2646970667358221220ad3484a112a390d18ecb5942b72c224bbaf415e424fb6250272c73da8a57c1f164736f6c63430008080033",
  "linkReferences": {},
  "deployedLinkReferences": {}
}