{
  "_format": "hh-sol-artifact-1",
  "contractName": "PayOrderFacet",
  "sourceName": "contracts/Diamond.sol",
  "abi": [
    {
      "inputs": [
        {
          "internalType": "address",
          "name": "orderAddress",
          "type": "address"
        }
      ],
      "name": "payOrder",
      "outputs": [],
      "stateMutability": "nonpayable",
      "type": "function"
    }
  ],
  "bytecode": "0x60806040526003600660006101000a81548160ff021916908360ff160217905550735e0f2ba30e568e51247935e3fd25b2045bf9d57f600660016101000a81548173ffffffffffffffffffffffffffffffffffffffff021916908373ffffffffffffffffffffffffffffffffffffffff16021790555073a4b18c3a5a3bddde4bd880a434e9f7341d16283e600760006101000a81548173ffffffffffffffffffffffffffffffffffffffff021916908373ffffffffffffffffffffffffffffffffffffffff1602179055503480156100d657600080fd5b506115bd806100e66000396000f3fe608060405234801561001057600080fd5b506004361061002b5760003560e01c8063a1a2fbae14610030575b600080fd5b61004a60048036038101906100459190610d92565b61004c565b005b60008060010160008373ffffffffffffffffffffffffffffffffffffffff1673ffffffffffffffffffffffffffffffffffffffff16815260200190815260200160002060009054906101000a900460ff1660ff1614156100e1576040517f08c379a00000000000000000000000000000000000000000000000000000000081526004016100d890610e1c565b60405180910390fd5b6000819050600015158173ffffffffffffffffffffffffffffffffffffffff16634fbd39d36040518163ffffffff1660e01b815260040160206040518083038186803b15801561013057600080fd5b505afa158015610144573d6000803e3d6000fd5b505050506040513d601f19601f820116820180604052508101906101689190610e74565b1515146101aa576040517f08c379a00000000000000000000000000000000000000000000000000000000081526004016101a190610eed565b60405180910390fd5b8073ffffffffffffffffffffffffffffffffffffffff1663603daf9a6040518163ffffffff1660e01b815260040160206040518083038186803b1580156101f057600080fd5b505afa158015610204573d6000803e3d6000fd5b505050506040513d601f19601f820116820180604052508101906102289190610f22565b73ffffffffffffffffffffffffffffffffffffffff163373ffffffffffffffffffffffffffffffffffffffff1614610295576040517f08c379a000000000000000000000000000000000000000000000000000000000815260040161028c90610f9b565b60405180910390fd5b60008173ffffffffffffffffffffffffffffffffffffffff1663444066176040518163ffffffff1660e01b815260040160006040518083038186803b1580156102dd57600080fd5b505afa1580156102f1573d6000803e3d6000fd5b505050506040513d6000823e3d601f19601f8201168201806040525081019061031a9190611114565b905060008273ffffffffffffffffffffffffffffffffffffffff16634117163e6040518163ffffffff1660e01b815260040160006040518083038186803b15801561036457600080fd5b505afa158015610378573d6000803e3d6000fd5b505050506040513d6000823e3d601f19601f820116820180604052508101906103a19190611256565b905060008060008060005b86518110156107315760008782815181106103ca576103c961129f565b5b60200260200101519050600081905060008a73ffffffffffffffffffffffffffffffffffffffff1663cabdba5b846040518263ffffffff1660e01b815260040161041491906112dd565b60206040518083038186803b15801561042c57600080fd5b505afa158015610440573d6000803e3d6000fd5b505050506040513d601f19601f8201168201806040525081019061046491906112f8565b9050600089858151811061047b5761047a61129f565b5b60200260200101519050600660009054906101000a900460ff1660ff16816104a39190611354565b886104ae91906113ae565b97508273ffffffffffffffffffffffffffffffffffffffff16638b2a90596040518163ffffffff1660e01b815260040160206040518083038186803b1580156104f657600080fd5b505afa15801561050a573d6000803e3d6000fd5b505050506040513d601f19601f8201168201806040525081019061052e91906112f8565b816105399190611354565b8761054491906113ae565b96508273ffffffffffffffffffffffffffffffffffffffff1663bdb7f00e6040518163ffffffff1660e01b815260040160206040518083038186803b15801561058c57600080fd5b505afa1580156105a0573d6000803e3d6000fd5b505050506040513d601f19601f820116820180604052508101906105c491906112f8565b866105cf91906113ae565b9550600082826105df9190611354565b905060008473ffffffffffffffffffffffffffffffffffffffff1663dbd0e1b66040518163ffffffff1660e01b815260040160206040518083038186803b15801561062957600080fd5b505afa15801561063d573d6000803e3d6000fd5b505050506040513d601f19601f820116820180604052508101906106619190610f22565b73ffffffffffffffffffffffffffffffffffffffff168260405161068490611435565b60006040518083038185875af1925050503d80600081146106c1576040519150601f19603f3d011682016040523d82523d6000602084013e6106c6565b606091505b505090508061070a576040517f08c379a000000000000000000000000000000000000000000000000000000000815260040161070190611496565b60405180910390fd5b818b61071691906113ae565b9a505050505050508080610729906114b6565b9150506103ac565b5060008773ffffffffffffffffffffffffffffffffffffffff166343c97c846040518163ffffffff1660e01b815260040160206040518083038186803b15801561077a57600080fd5b505afa15801561078e573d6000803e3d6000fd5b505050506040513d601f19601f820116820180604052508101906107b29190610f22565b73ffffffffffffffffffffffffffffffffffffffff16846040516107d590611435565b60006040518083038185875af1925050503d8060008114610812576040519150601f19603f3d011682016040523d82523d6000602084013e610817565b606091505b505090508061085b576040517f08c379a000000000000000000000000000000000000000000000000000000000815260040161085290611496565b60405180910390fd5b6000600660019054906101000a900473ffffffffffffffffffffffffffffffffffffffff1673ffffffffffffffffffffffffffffffffffffffff16846040516108a390611435565b60006040518083038185875af1925050503d80600081146108e0576040519150601f19603f3d011682016040523d82523d6000602084013e6108e5565b606091505b5050905080610929576040517f08c379a000000000000000000000000000000000000000000000000000000000815260040161092090611496565b60405180910390fd5b6000600760009054906101000a900473ffffffffffffffffffffffffffffffffffffffff1673ffffffffffffffffffffffffffffffffffffffff168460405161097190611435565b60006040518083038185875af1925050503d80600081146109ae576040519150601f19603f3d011682016040523d82523d6000602084013e6109b3565b606091505b50509050806109f7576040517f08c379a00000000000000000000000000000000000000000000000000000000081526004016109ee90611496565b60405180910390fd5b8973ffffffffffffffffffffffffffffffffffffffff1663ccd44ccf60016040518263ffffffff1660e01b8152600401610a31919061150e565b600060405180830381600087803b158015610a4b57600080fd5b505af1158015610a5f573d6000803e3d6000fd5b5050505060008486888a610a7391906113ae565b610a7d91906113ae565b610a8791906113ae565b8b73ffffffffffffffffffffffffffffffffffffffff16630a9076866040518163ffffffff1660e01b815260040160206040518083038186803b158015610acd57600080fd5b505afa158015610ae1573d6000803e3d6000fd5b505050506040513d601f19601f82011682018060405250810190610b0591906112f8565b610b0f9190611529565b905060008b73ffffffffffffffffffffffffffffffffffffffff1663603daf9a6040518163ffffffff1660e01b815260040160206040518083038186803b158015610b5957600080fd5b505afa158015610b6d573d6000803e3d6000fd5b505050506040513d601f19601f82011682018060405250810190610b919190610f22565b73ffffffffffffffffffffffffffffffffffffffff1682604051610bb490611435565b60006040518083038185875af1925050503d8060008114610bf1576040519150601f19603f3d011682016040523d82523d6000602084013e610bf6565b606091505b5050905080610c3a576040517f08c379a0000000000000000000000000000000000000000000000000000000008152600401610c3190611496565b60405180910390fd5b8b73ffffffffffffffffffffffffffffffffffffffff166311b34c5a60016040518263ffffffff1660e01b8152600401610c74919061150e565b600060405180830381600087803b158015610c8e57600080fd5b505af1158015610ca2573d6000803e3d6000fd5b505050508b73ffffffffffffffffffffffffffffffffffffffff1663acf4ede0836040518263ffffffff1660e01b8152600401610cdf919061156c565b600060405180830381600087803b158015610cf957600080fd5b505af1158015610d0d573d6000803e3d6000fd5b5050505050505050505050505050505050565b6000604051905090565b600080fd5b600080fd5b600073ffffffffffffffffffffffffffffffffffffffff82169050919050565b6000610d5f82610d34565b9050919050565b610d6f81610d54565b8114610d7a57600080fd5b50565b600081359050610d8c81610d66565b92915050565b600060208284031215610da857610da7610d2a565b5b6000610db684828501610d7d565b91505092915050565b600082825260208201905092915050565b7f496e76616c6964206f7264657200000000000000000000000000000000000000600082015250565b6000610e06600d83610dbf565b9150610e1182610dd0565b602082019050919050565b60006020820190508181036000830152610e3581610df9565b9050919050565b60008115159050919050565b610e5181610e3c565b8114610e5c57600080fd5b50565b600081519050610e6e81610e48565b92915050565b600060208284031215610e8a57610e89610d2a565b5b6000610e9884828501610e5f565b91505092915050565b7f416c726561647920506169640000000000000000000000000000000000000000600082015250565b6000610ed7600c83610dbf565b9150610ee282610ea1565b602082019050919050565b60006020820190508181036000830152610f0681610eca565b9050919050565b600081519050610f1c81610d66565b92915050565b600060208284031215610f3857610f37610d2a565b5b6000610f4684828501610f0d565b91505092915050565b7f4f6e6c79207468652062757965722063616e20706179207468652062696c6c00600082015250565b6000610f85601f83610dbf565b9150610f9082610f4f565b602082019050919050565b60006020820190508181036000830152610fb481610f78565b9050919050565b600080fd5b6000601f19601f8301169050919050565b7f4e487b7100000000000000000000000000000000000000000000000000000000600052604160045260246000fd5b61100982610fc0565b810181811067ffffffffffffffff8211171561102857611027610fd1565b5b80604052505050565b600061103b610d20565b90506110478282611000565b919050565b600067ffffffffffffffff82111561106757611066610fd1565b5b602082029050602081019050919050565b600080fd5b600061109061108b8461104c565b611031565b905080838252602082019050602084028301858111156110b3576110b2611078565b5b835b818110156110dc57806110c88882610f0d565b8452602084019350506020810190506110b5565b5050509392505050565b600082601f8301126110fb576110fa610fbb565b5b815161110b84826020860161107d565b91505092915050565b60006020828403121561112a57611129610d2a565b5b600082015167ffffffffffffffff81111561114857611147610d2f565b5b611154848285016110e6565b91505092915050565b600067ffffffffffffffff82111561117857611177610fd1565b5b602082029050602081019050919050565b6000819050919050565b61119c81611189565b81146111a757600080fd5b50565b6000815190506111b981611193565b92915050565b60006111d26111cd8461115d565b611031565b905080838252602082019050602084028301858111156111f5576111f4611078565b5b835b8181101561121e578061120a88826111aa565b8452602084019350506020810190506111f7565b5050509392505050565b600082601f83011261123d5761123c610fbb565b5b815161124d8482602086016111bf565b91505092915050565b60006020828403121561126c5761126b610d2a565b5b600082015167ffffffffffffffff81111561128a57611289610d2f565b5b61129684828501611228565b91505092915050565b7f4e487b7100000000000000000000000000000000000000000000000000000000600052603260045260246000fd5b6112d781610d54565b82525050565b60006020820190506112f260008301846112ce565b92915050565b60006020828403121561130e5761130d610d2a565b5b600061131c848285016111aa565b91505092915050565b7f4e487b7100000000000000000000000000000000000000000000000000000000600052601160045260246000fd5b600061135f82611189565b915061136a83611189565b9250817fffffffffffffffffffffffffffffffffffffffffffffffffffffffffffffffff04831182151516156113a3576113a2611325565b5b828202905092915050565b60006113b982611189565b91506113c483611189565b9250827fffffffffffffffffffffffffffffffffffffffffffffffffffffffffffffffff038211156113f9576113f8611325565b5b828201905092915050565b600081905092915050565b50565b600061141f600083611404565b915061142a8261140f565b600082019050919050565b600061144082611412565b9150819050919050565b7f43616c6c206661696c6564000000000000000000000000000000000000000000600082015250565b6000611480600b83610dbf565b915061148b8261144a565b602082019050919050565b600060208201905081810360008301526114af81611473565b9050919050565b60006114c182611189565b91507fffffffffffffffffffffffffffffffffffffffffffffffffffffffffffffffff8214156114f4576114f3611325565b5b600182019050919050565b61150881610e3c565b82525050565b600060208201905061152360008301846114ff565b92915050565b600061153482611189565b915061153f83611189565b92508282101561155257611551611325565b5b828203905092915050565b61156681611189565b82525050565b6000602082019050611581600083018461155d565b9291505056fea2646970667358221220f0bf104b7da462af94508e57ac63e9d6800fc4bf1ba67dd8e80d0688fa84885f64736f6c63430008080033",
  "linkReferences": {},
  "deployedLinkReferences": {}
}