{
  "_format": "hh-sol-artifact-1",
  "contractName": "ProductFacet",
  "sourceName": "contracts/Diamond.sol",
  "abi": [
    {
      "anonymous": false,
      "inputs": [
        {
          "indexed": false,
          "internalType": "uint256",
          "name": "_finalPrice",
          "type": "uint256"
        },
        {
          "indexed": false,
          "internalType": "address",
          "name": "productAddress",
          "type": "address"
        },
        {
          "indexed": false,
          "internalType": "uint256",
          "name": "dbID",
          "type": "uint256"
        }
      ],
      "name": "productSaved",
      "type": "event"
    },
    {
      "inputs": [
        {
          "internalType": "string",
          "name": "_name",
          "type": "string"
        },
        {
          "internalType": "uint256",
          "name": "_price",
          "type": "uint256"
        },
        {
          "internalType": "string",
          "name": "_description",
          "type": "string"
        },
        {
          "internalType": "uint256",
          "name": "_quantity",
          "type": "uint256"
        },
        {
          "internalType": "uint256",
          "name": "dbID",
          "type": "uint256"
        }
      ],
      "name": "addProduct",
      "outputs": [],
      "stateMutability": "nonpayable",
      "type": "function"
    },
    {
      "inputs": [
        {
          "internalType": "address",
          "name": "_sellerAddress",
          "type": "address"
        }
      ],
      "name": "viewProducts",
      "outputs": [
        {
          "internalType": "address[]",
          "name": "",
          "type": "address[]"
        }
      ],
      "stateMutability": "view",
      "type": "function"
    }
  ],
  "bytecode": "0x608060405234801561001057600080fd5b506126fd806100206000396000f3fe60806040523480156200001157600080fd5b50600436106200003a5760003560e01c8063677e8bc0146200003f578063f3122fca146200005f575b600080fd5b6200005d600480360381019062000057919062000754565b62000095565b005b6200007d60048036038101906200007791906200087f565b62000360565b6040516200008c91906200097f565b60405180910390f35b6001600060030160003373ffffffffffffffffffffffffffffffffffffffff1673ffffffffffffffffffffffffffffffffffffffff16815260200190815260200160002060009054906101000a900460ff1660ff16146200012d576040517f08c379a0000000000000000000000000000000000000000000000000000000008152600401620001249062000a04565b60405180910390fd5b600060646000600801548662000144919062000a55565b62000150919062000ae5565b6000600701546000600601548762000169919062000b1d565b62000175919062000b1d565b62000181919062000b1d565b9050620001c46040518060400160405280601a81526020017f5f46696e616c205072696365206f662050726f64756374203a20000000000000815250826200042f565b600086868686333087604051620001db9062000595565b620001ed979695949392919062000c1e565b604051809103906000f0801580156200020a573d6000803e3d6000fd5b50905060008190506200021d81620004cf565b600960003373ffffffffffffffffffffffffffffffffffffffff1673ffffffffffffffffffffffffffffffffffffffff168152602001908152602001600020819080600181540180825580915050600190039060005260206000200160009091909190916101000a81548173ffffffffffffffffffffffffffffffffffffffff021916908373ffffffffffffffffffffffffffffffffffffffff1602179055506001600060020160008473ffffffffffffffffffffffffffffffffffffffff1673ffffffffffffffffffffffffffffffffffffffff16815260200190815260200160002060006101000a81548160ff021916908360ff1602179055507f6d6b40783c573ab0804a549d155a54d2d9ecf854ec6cf78c9e5c62ae07fe60208382866040516200034e9392919062000ca9565b60405180910390a15050505050505050565b6060600960008373ffffffffffffffffffffffffffffffffffffffff1673ffffffffffffffffffffffffffffffffffffffff1681526020019081526020016000208054806020026020016040519081016040528092919081815260200182805480156200042357602002820191906000526020600020905b8160009054906101000a900473ffffffffffffffffffffffffffffffffffffffff1673ffffffffffffffffffffffffffffffffffffffff1681526020019060010190808311620003d8575b50505050509050919050565b620004cb82826040516024016200044892919062000ce6565b6040516020818303038152906040527f9710a9d0000000000000000000000000000000000000000000000000000000007bffffffffffffffffffffffffffffffffffffffffffffffffffffffff19166020820180517bffffffffffffffffffffffffffffffffffffffffffffffffffffffff83818316178352505050506200056c565b5050565b6200056981604051602401620004e6919062000d1a565b6040516020818303038152906040527f2c2ecbc2000000000000000000000000000000000000000000000000000000007bffffffffffffffffffffffffffffffffffffffffffffffffffffffff19166020820180517bffffffffffffffffffffffffffffffffffffffffffffffffffffffff83818316178352505050506200056c565b50565b60008151905060006a636f6e736f6c652e6c6f679050602083016000808483855afa5050505050565b6119908062000d3883390190565b6000604051905090565b600080fd5b600080fd5b600080fd5b600080fd5b6000601f19601f8301169050919050565b7f4e487b7100000000000000000000000000000000000000000000000000000000600052604160045260246000fd5b6200060c82620005c1565b810181811067ffffffffffffffff821117156200062e576200062d620005d2565b5b80604052505050565b600062000643620005a3565b905062000651828262000601565b919050565b600067ffffffffffffffff821115620006745762000673620005d2565b5b6200067f82620005c1565b9050602081019050919050565b82818337600083830152505050565b6000620006b2620006ac8462000656565b62000637565b905082815260208101848484011115620006d157620006d0620005bc565b5b620006de8482856200068c565b509392505050565b600082601f830112620006fe57620006fd620005b7565b5b8135620007108482602086016200069b565b91505092915050565b6000819050919050565b6200072e8162000719565b81146200073a57600080fd5b50565b6000813590506200074e8162000723565b92915050565b600080600080600060a08688031215620007735762000772620005ad565b5b600086013567ffffffffffffffff811115620007945762000793620005b2565b5b620007a288828901620006e6565b9550506020620007b5888289016200073d565b945050604086013567ffffffffffffffff811115620007d957620007d8620005b2565b5b620007e788828901620006e6565b9350506060620007fa888289016200073d565b92505060806200080d888289016200073d565b9150509295509295909350565b600073ffffffffffffffffffffffffffffffffffffffff82169050919050565b600062000847826200081a565b9050919050565b62000859816200083a565b81146200086557600080fd5b50565b60008135905062000879816200084e565b92915050565b600060208284031215620008985762000897620005ad565b5b6000620008a88482850162000868565b91505092915050565b600081519050919050565b600082825260208201905092915050565b6000819050602082019050919050565b620008e8816200083a565b82525050565b6000620008fc8383620008dd565b60208301905092915050565b6000602082019050919050565b60006200092282620008b1565b6200092e8185620008bc565b93506200093b83620008cd565b8060005b8381101562000972578151620009568882620008ee565b9750620009638362000908565b9250506001810190506200093f565b5085935050505092915050565b600060208201905081810360008301526200099b818462000915565b905092915050565b600082825260208201905092915050565b7f596f7520617265206e6f7420612073656c6c6572000000000000000000000000600082015250565b6000620009ec601483620009a3565b9150620009f982620009b4565b602082019050919050565b6000602082019050818103600083015262000a1f81620009dd565b9050919050565b7f4e487b7100000000000000000000000000000000000000000000000000000000600052601160045260246000fd5b600062000a628262000719565b915062000a6f8362000719565b9250817fffffffffffffffffffffffffffffffffffffffffffffffffffffffffffffffff048311821515161562000aab5762000aaa62000a26565b5b828202905092915050565b7f4e487b7100000000000000000000000000000000000000000000000000000000600052601260045260246000fd5b600062000af28262000719565b915062000aff8362000719565b92508262000b125762000b1162000ab6565b5b828204905092915050565b600062000b2a8262000719565b915062000b378362000719565b9250827fffffffffffffffffffffffffffffffffffffffffffffffffffffffffffffffff0382111562000b6f5762000b6e62000a26565b5b828201905092915050565b600081519050919050565b60005b8381101562000ba557808201518184015260208101905062000b88565b8381111562000bb5576000848401525b50505050565b600062000bc88262000b7a565b62000bd48185620009a3565b935062000be681856020860162000b85565b62000bf181620005c1565b840191505092915050565b62000c078162000719565b82525050565b62000c18816200083a565b82525050565b600060e082019050818103600083015262000c3a818a62000bbb565b905062000c4b602083018962000bfc565b818103604083015262000c5f818862000bbb565b905062000c70606083018762000bfc565b62000c7f608083018662000c0d565b62000c8e60a083018562000c0d565b62000c9d60c083018462000bfc565b98975050505050505050565b600060608201905062000cc0600083018662000bfc565b62000ccf602083018562000c0d565b62000cde604083018462000bfc565b949350505050565b6000604082019050818103600083015262000d02818562000bbb565b905062000d13602083018462000bfc565b9392505050565b600060208201905062000d31600083018462000c0d565b9291505056fe60806040523480156200001157600080fd5b5060405162001990380380620019908339818101604052810190620000379190620003fa565b86600090805190602001906200004f9291906200010d565b5085600181905550836002819055508460049080519060200190620000769291906200010d565b5082600560006101000a81548173ffffffffffffffffffffffffffffffffffffffff021916908373ffffffffffffffffffffffffffffffffffffffff16021790555081600660006101000a81548173ffffffffffffffffffffffffffffffffffffffff021916908373ffffffffffffffffffffffffffffffffffffffff160217905550806007819055505050505050505062000550565b8280546200011b906200051a565b90600052602060002090601f0160209004810192826200013f57600085556200018b565b82601f106200015a57805160ff19168380011785556200018b565b828001600101855582156200018b579182015b828111156200018a5782518255916020019190600101906200016d565b5b5090506200019a91906200019e565b5090565b5b80821115620001b95760008160009055506001016200019f565b5090565b6000604051905090565b600080fd5b600080fd5b600080fd5b600080fd5b6000601f19601f8301169050919050565b7f4e487b7100000000000000000000000000000000000000000000000000000000600052604160045260246000fd5b6200022682620001db565b810181811067ffffffffffffffff82111715620002485762000247620001ec565b5b80604052505050565b60006200025d620001bd565b90506200026b82826200021b565b919050565b600067ffffffffffffffff8211156200028e576200028d620001ec565b5b6200029982620001db565b9050602081019050919050565b60005b83811015620002c6578082015181840152602081019050620002a9565b83811115620002d6576000848401525b50505050565b6000620002f3620002ed8462000270565b62000251565b905082815260208101848484011115620003125762000311620001d6565b5b6200031f848285620002a6565b509392505050565b600082601f8301126200033f576200033e620001d1565b5b815162000351848260208601620002dc565b91505092915050565b6000819050919050565b6200036f816200035a565b81146200037b57600080fd5b50565b6000815190506200038f8162000364565b92915050565b600073ffffffffffffffffffffffffffffffffffffffff82169050919050565b6000620003c28262000395565b9050919050565b620003d481620003b5565b8114620003e057600080fd5b50565b600081519050620003f481620003c9565b92915050565b600080600080600080600060e0888a0312156200041c576200041b620001c7565b5b600088015167ffffffffffffffff8111156200043d576200043c620001cc565b5b6200044b8a828b0162000327565b97505060206200045e8a828b016200037e565b965050604088015167ffffffffffffffff811115620004825762000481620001cc565b5b620004908a828b0162000327565b9550506060620004a38a828b016200037e565b9450506080620004b68a828b01620003e3565b93505060a0620004c98a828b01620003e3565b92505060c0620004dc8a828b016200037e565b91505092959891949750929550565b7f4e487b7100000000000000000000000000000000000000000000000000000000600052602260045260246000fd5b600060028204905060018216806200053357607f821691505b602082108114156200054a5762000549620004eb565b5b50919050565b61143080620005606000396000f3fe608060405234801561001057600080fd5b50600436106100cf5760003560e01c806398d5fdca1161008c578063db6a365211610066578063db6a3652146101ec578063dbd0e1b614610208578063edbab14314610226578063f2aa821814610244576100cf565b806398d5fdca14610182578063a85c38ef146101a0578063bbf89803146101d0576100cf565b80630115949c146100d457806317d7de7c146100f257806317fa1f471461011057806326cd59b31461012c578063317c99841461014857806384aa336514610164575b600080fd5b6100dc610274565b6040516100e99190610c90565b60405180910390f35b6100fa61027e565b6040516101079190610d44565b60405180910390f35b61012a60048036038101906101259190610da6565b610310565b005b61014660048036038101906101419190610f41565b610402565b005b610162600480360381019061015d9190610ffb565b6106eb565b005b61016c6107a7565b6040516101799190610c90565b60405180910390f35b61018a6107b1565b6040516101979190610c90565b60405180910390f35b6101ba60048036038101906101b59190610da6565b6108a3565b6040516101c79190611037565b60405180910390f35b6101ea60048036038101906101e59190610ffb565b6108e2565b005b61020660048036038101906102019190611052565b610a2a565b005b610210610b65565b60405161021d9190611037565b60405180910390f35b61022e610b8f565b60405161023b9190610c90565b60405180910390f35b61025e60048036038101906102599190610da6565b610b95565b60405161026b9190611037565b60405180910390f35b6000600254905090565b60606000805461028d906110c1565b80601f01602080910402602001604051908101604052809291908181526020018280546102b9906110c1565b80156103065780601f106102db57610100808354040283529160200191610306565b820191906000526020600020905b8154815290600101906020018083116102e957829003601f168201915b5050505050905090565b600660009054906101000a900473ffffffffffffffffffffffffffffffffffffffff1673ffffffffffffffffffffffffffffffffffffffff163373ffffffffffffffffffffffffffffffffffffffff1614806103b95750600560009054906101000a900473ffffffffffffffffffffffffffffffffffffffff1673ffffffffffffffffffffffffffffffffffffffff163373ffffffffffffffffffffffffffffffffffffffff16145b6103f8576040517f08c379a00000000000000000000000000000000000000000000000000000000081526004016103ef9061113f565b60405180910390fd5b8060028190555050565b6000600b60003373ffffffffffffffffffffffffffffffffffffffff1673ffffffffffffffffffffffffffffffffffffffff16815260200190815260200160002060009054906101000a900463ffffffff1663ffffffff16141561049b576040517f08c379a0000000000000000000000000000000000000000000000000000000008152600401610492906111d1565b60405180910390fd5b600c60003373ffffffffffffffffffffffffffffffffffffffff1673ffffffffffffffffffffffffffffffffffffffff16815260200190815260200160002060010180549050600b60003373ffffffffffffffffffffffffffffffffffffffff1673ffffffffffffffffffffffffffffffffffffffff16815260200190815260200160002060009054906101000a900463ffffffff1663ffffffff1610610577576040517f08c379a000000000000000000000000000000000000000000000000000000000815260040161056e90611263565b60405180910390fd5b6000429050600c60003373ffffffffffffffffffffffffffffffffffffffff1673ffffffffffffffffffffffffffffffffffffffff168152602001908152602001600020600001839080600181540180825580915050600190039060005260206000200160009091909190915090805190602001906105f7929190610bd4565b50600c60003373ffffffffffffffffffffffffffffffffffffffff1673ffffffffffffffffffffffffffffffffffffffff1681526020019081526020016000206001018290806001815401808255809150506001900390600052602060002090602091828204019190069091909190916101000a81548160ff021916908360ff160217905550600c60003373ffffffffffffffffffffffffffffffffffffffff1673ffffffffffffffffffffffffffffffffffffffff168152602001908152602001600020600201819080600181540180825580915050600190039060005260206000200160009091909190915055505050565b6001600b60008373ffffffffffffffffffffffffffffffffffffffff1673ffffffffffffffffffffffffffffffffffffffff16815260200190815260200160002060009054906101000a900463ffffffff1661074791906112c2565b600b60008373ffffffffffffffffffffffffffffffffffffffff1673ffffffffffffffffffffffffffffffffffffffff16815260200190815260200160002060006101000a81548163ffffffff021916908363ffffffff16021790555050565b6000600754905090565b6000600660009054906101000a900473ffffffffffffffffffffffffffffffffffffffff1673ffffffffffffffffffffffffffffffffffffffff163373ffffffffffffffffffffffffffffffffffffffff16148061085c5750600560009054906101000a900473ffffffffffffffffffffffffffffffffffffffff1673ffffffffffffffffffffffffffffffffffffffff163373ffffffffffffffffffffffffffffffffffffffff16145b61089b576040517f08c379a00000000000000000000000000000000000000000000000000000000081526004016108929061113f565b60405180910390fd5b600154905090565b600981815481106108b357600080fd5b906000526020600020016000915054906101000a900473ffffffffffffffffffffffffffffffffffffffff1681565b6000600860003373ffffffffffffffffffffffffffffffffffffffff1673ffffffffffffffffffffffffffffffffffffffff168152602001908152602001600020541415610965576040517f08c379a000000000000000000000000000000000000000000000000000000000815260040161095c9061136e565b60405180910390fd5b6000600b60008373ffffffffffffffffffffffffffffffffffffffff1673ffffffffffffffffffffffffffffffffffffffff16815260200190815260200160002060009054906101000a900463ffffffff1663ffffffff161415610a2757600a819080600181540180825580915050600190039060005260206000200160009091909190916101000a81548173ffffffffffffffffffffffffffffffffffffffff021916908373ffffffffffffffffffffffffffffffffffffffff1602179055505b50565b600660009054906101000a900473ffffffffffffffffffffffffffffffffffffffff1673ffffffffffffffffffffffffffffffffffffffff163373ffffffffffffffffffffffffffffffffffffffff1614610aba576040517f08c379a0000000000000000000000000000000000000000000000000000000008152600401610ab1906113da565b60405180910390fd5b6009829080600181540180825580915050600190039060005260206000200160009091909190916101000a81548173ffffffffffffffffffffffffffffffffffffffff021916908373ffffffffffffffffffffffffffffffffffffffff16021790555080600860008473ffffffffffffffffffffffffffffffffffffffff1673ffffffffffffffffffffffffffffffffffffffff168152602001908152602001600020819055505050565b6000600560009054906101000a900473ffffffffffffffffffffffffffffffffffffffff16905090565b60075481565b600a8181548110610ba557600080fd5b906000526020600020016000915054906101000a900473ffffffffffffffffffffffffffffffffffffffff1681565b828054610be0906110c1565b90600052602060002090601f016020900481019282610c025760008555610c49565b82601f10610c1b57805160ff1916838001178555610c49565b82800160010185558215610c49579182015b82811115610c48578251825591602001919060010190610c2d565b5b509050610c569190610c5a565b5090565b5b80821115610c73576000816000905550600101610c5b565b5090565b6000819050919050565b610c8a81610c77565b82525050565b6000602082019050610ca56000830184610c81565b92915050565b600081519050919050565b600082825260208201905092915050565b60005b83811015610ce5578082015181840152602081019050610cca565b83811115610cf4576000848401525b50505050565b6000601f19601f8301169050919050565b6000610d1682610cab565b610d208185610cb6565b9350610d30818560208601610cc7565b610d3981610cfa565b840191505092915050565b60006020820190508181036000830152610d5e8184610d0b565b905092915050565b6000604051905090565b600080fd5b600080fd5b610d8381610c77565b8114610d8e57600080fd5b50565b600081359050610da081610d7a565b92915050565b600060208284031215610dbc57610dbb610d70565b5b6000610dca84828501610d91565b91505092915050565b600080fd5b600080fd5b7f4e487b7100000000000000000000000000000000000000000000000000000000600052604160045260246000fd5b610e1582610cfa565b810181811067ffffffffffffffff82111715610e3457610e33610ddd565b5b80604052505050565b6000610e47610d66565b9050610e538282610e0c565b919050565b600067ffffffffffffffff821115610e7357610e72610ddd565b5b610e7c82610cfa565b9050602081019050919050565b82818337600083830152505050565b6000610eab610ea684610e58565b610e3d565b905082815260208101848484011115610ec757610ec6610dd8565b5b610ed2848285610e89565b509392505050565b600082601f830112610eef57610eee610dd3565b5b8135610eff848260208601610e98565b91505092915050565b600060ff82169050919050565b610f1e81610f08565b8114610f2957600080fd5b50565b600081359050610f3b81610f15565b92915050565b60008060408385031215610f5857610f57610d70565b5b600083013567ffffffffffffffff811115610f7657610f75610d75565b5b610f8285828601610eda565b9250506020610f9385828601610f2c565b9150509250929050565b600073ffffffffffffffffffffffffffffffffffffffff82169050919050565b6000610fc882610f9d565b9050919050565b610fd881610fbd565b8114610fe357600080fd5b50565b600081359050610ff581610fcf565b92915050565b60006020828403121561101157611010610d70565b5b600061101f84828501610fe6565b91505092915050565b61103181610fbd565b82525050565b600060208201905061104c6000830184611028565b92915050565b6000806040838503121561106957611068610d70565b5b600061107785828601610fe6565b925050602061108885828601610d91565b9150509250929050565b7f4e487b7100000000000000000000000000000000000000000000000000000000600052602260045260246000fd5b600060028204905060018216806110d957607f821691505b602082108114156110ed576110ec611092565b5b50919050565b7f4e6f74204f776e6572206f722073656c6c657200000000000000000000000000600082015250565b6000611129601383610cb6565b9150611134826110f3565b602082019050919050565b600060208201905081810360008301526111588161111c565b9050919050565b7f596f7520617265206e6f742061206275796572206f66207468652070726f647560008201527f6374000000000000000000000000000000000000000000000000000000000000602082015250565b60006111bb602283610cb6565b91506111c68261115f565b604082019050919050565b600060208201905081810360008301526111ea816111ae565b9050919050565b7f596f75206861766520616c72656164792070726f76696465642072657669657760008201527f20616e6420726174696e67206f6620746869732070726f647563740000000000602082015250565b600061124d603b83610cb6565b9150611258826111f1565b604082019050919050565b6000602082019050818103600083015261127c81611240565b9050919050565b600063ffffffff82169050919050565b7f4e487b7100000000000000000000000000000000000000000000000000000000600052601160045260246000fd5b60006112cd82611283565b91506112d883611283565b92508263ffffffff038211156112f1576112f0611293565b5b828201905092915050565b7f50726f64756374206973206e6f74206173736f7369617465642077697468207460008201527f6865204f52444552000000000000000000000000000000000000000000000000602082015250565b6000611358602883610cb6565b9150611363826112fc565b604082019050919050565b600060208201905081810360008301526113878161134b565b9050919050565b7f4e6f742045434d61727420286f776e6572290000000000000000000000000000600082015250565b60006113c4601283610cb6565b91506113cf8261138e565b602082019050919050565b600060208201905081810360008301526113f3816113b7565b905091905056fea2646970667358221220ec9702449c303b887c1e9315d2c043ebb6d784f7b40255537177862bc3fc8e8164736f6c63430008080033a264697066735822122007a798a1f111e8130c1af155ac7c696eb91c909ceee66241a113b9583dcb93fe64736f6c63430008080033",
  "linkReferences": {},
  "deployedLinkReferences": {}
}