{
  "_format": "hh-sol-artifact-1",
  "contractName": "ProductFacet",
  "sourceName": "contracts/Diamond.sol",
  "abi": [
    {
      "inputs": [
        {
          "internalType": "string",
          "name": "_name",
          "type": "string"
        },
        {
          "internalType": "uint256",
          "name": "_price",
          "type": "uint256"
        },
        {
          "internalType": "string",
          "name": "_description",
          "type": "string"
        },
        {
          "internalType": "uint256",
          "name": "_quantity",
          "type": "uint256"
        }
      ],
      "name": "addProduct",
      "outputs": [
        {
          "internalType": "contract Product",
          "name": "",
          "type": "address"
        }
      ],
      "stateMutability": "nonpayable",
      "type": "function"
    },
    {
      "inputs": [
        {
          "internalType": "address",
          "name": "_sellerAddress",
          "type": "address"
        }
      ],
      "name": "viewProducts",
      "outputs": [
        {
          "internalType": "address[]",
          "name": "",
          "type": "address[]"
        }
      ],
      "stateMutability": "view",
      "type": "function"
    }
  ],
  "bytecode": "0x608060405234801561001057600080fd5b506125ad806100206000396000f3fe60806040523480156200001157600080fd5b50600436106200003a5760003560e01c80633a2a925c146200003f578063f3122fca1462000075575b600080fd5b6200005d600480360381019062000057919062000733565b620000ab565b6040516200006c91906200086e565b60405180910390f35b6200009360048036038101906200008d9190620008d0565b6200033f565b604051620000a29190620009d0565b60405180910390f35b60006001600060030160003373ffffffffffffffffffffffffffffffffffffffff1673ffffffffffffffffffffffffffffffffffffffff16815260200190815260200160002060009054906101000a900460ff1660ff161462000145576040517f08c379a00000000000000000000000000000000000000000000000000000000081526004016200013c9062000a55565b60405180910390fd5b60006064600060080154866200015c919062000aa6565b62000168919062000b36565b6000600701546000600601548762000181919062000b6e565b6200018d919062000b6e565b62000199919062000b6e565b9050620001dc6040518060400160405280601a81526020017f5f46696e616c205072696365206f662050726f64756374203a20000000000000815250826200040e565b600086868686333087604051620001f39062000574565b62000205979695949392919062000c6f565b604051809103906000f08015801562000222573d6000803e3d6000fd5b50905060008190506200023581620004ae565b600960003373ffffffffffffffffffffffffffffffffffffffff1673ffffffffffffffffffffffffffffffffffffffff168152602001908152602001600020819080600181540180825580915050600190039060005260206000200160009091909190916101000a81548173ffffffffffffffffffffffffffffffffffffffff021916908373ffffffffffffffffffffffffffffffffffffffff1602179055506001600060020160008473ffffffffffffffffffffffffffffffffffffffff1673ffffffffffffffffffffffffffffffffffffffff16815260200190815260200160002060006101000a81548160ff021916908360ff160217905550819350505050949350505050565b6060600960008373ffffffffffffffffffffffffffffffffffffffff1673ffffffffffffffffffffffffffffffffffffffff1681526020019081526020016000208054806020026020016040519081016040528092919081815260200182805480156200040257602002820191906000526020600020905b8160009054906101000a900473ffffffffffffffffffffffffffffffffffffffff1673ffffffffffffffffffffffffffffffffffffffff1681526020019060010190808311620003b7575b50505050509050919050565b620004aa82826040516024016200042792919062000cfa565b6040516020818303038152906040527f9710a9d0000000000000000000000000000000000000000000000000000000007bffffffffffffffffffffffffffffffffffffffffffffffffffffffff19166020820180517bffffffffffffffffffffffffffffffffffffffffffffffffffffffff83818316178352505050506200054b565b5050565b6200054881604051602401620004c5919062000d2e565b6040516020818303038152906040527f2c2ecbc2000000000000000000000000000000000000000000000000000000007bffffffffffffffffffffffffffffffffffffffffffffffffffffffff19166020820180517bffffffffffffffffffffffffffffffffffffffffffffffffffffffff83818316178352505050506200054b565b50565b60008151905060006a636f6e736f6c652e6c6f679050602083016000808483855afa5050505050565b61182c8062000d4c83390190565b6000604051905090565b600080fd5b600080fd5b600080fd5b600080fd5b6000601f19601f8301169050919050565b7f4e487b7100000000000000000000000000000000000000000000000000000000600052604160045260246000fd5b620005eb82620005a0565b810181811067ffffffffffffffff821117156200060d576200060c620005b1565b5b80604052505050565b60006200062262000582565b9050620006308282620005e0565b919050565b600067ffffffffffffffff821115620006535762000652620005b1565b5b6200065e82620005a0565b9050602081019050919050565b82818337600083830152505050565b6000620006916200068b8462000635565b62000616565b905082815260208101848484011115620006b057620006af6200059b565b5b620006bd8482856200066b565b509392505050565b600082601f830112620006dd57620006dc62000596565b5b8135620006ef8482602086016200067a565b91505092915050565b6000819050919050565b6200070d81620006f8565b81146200071957600080fd5b50565b6000813590506200072d8162000702565b92915050565b6000806000806080858703121562000750576200074f6200058c565b5b600085013567ffffffffffffffff81111562000771576200077062000591565b5b6200077f87828801620006c5565b945050602062000792878288016200071c565b935050604085013567ffffffffffffffff811115620007b657620007b562000591565b5b620007c487828801620006c5565b9250506060620007d7878288016200071c565b91505092959194509250565b600073ffffffffffffffffffffffffffffffffffffffff82169050919050565b6000819050919050565b60006200082e620008286200082284620007e3565b62000803565b620007e3565b9050919050565b600062000842826200080d565b9050919050565b6000620008568262000835565b9050919050565b620008688162000849565b82525050565b60006020820190506200088560008301846200085d565b92915050565b60006200089882620007e3565b9050919050565b620008aa816200088b565b8114620008b657600080fd5b50565b600081359050620008ca816200089f565b92915050565b600060208284031215620008e957620008e86200058c565b5b6000620008f984828501620008b9565b91505092915050565b600081519050919050565b600082825260208201905092915050565b6000819050602082019050919050565b62000939816200088b565b82525050565b60006200094d83836200092e565b60208301905092915050565b6000602082019050919050565b6000620009738262000902565b6200097f81856200090d565b93506200098c836200091e565b8060005b83811015620009c3578151620009a788826200093f565b9750620009b48362000959565b92505060018101905062000990565b5085935050505092915050565b60006020820190508181036000830152620009ec818462000966565b905092915050565b600082825260208201905092915050565b7f596f7520617265206e6f7420612073656c6c6572000000000000000000000000600082015250565b600062000a3d601483620009f4565b915062000a4a8262000a05565b602082019050919050565b6000602082019050818103600083015262000a708162000a2e565b9050919050565b7f4e487b7100000000000000000000000000000000000000000000000000000000600052601160045260246000fd5b600062000ab382620006f8565b915062000ac083620006f8565b9250817fffffffffffffffffffffffffffffffffffffffffffffffffffffffffffffffff048311821515161562000afc5762000afb62000a77565b5b828202905092915050565b7f4e487b7100000000000000000000000000000000000000000000000000000000600052601260045260246000fd5b600062000b4382620006f8565b915062000b5083620006f8565b92508262000b635762000b6262000b07565b5b828204905092915050565b600062000b7b82620006f8565b915062000b8883620006f8565b9250827fffffffffffffffffffffffffffffffffffffffffffffffffffffffffffffffff0382111562000bc05762000bbf62000a77565b5b828201905092915050565b600081519050919050565b60005b8381101562000bf657808201518184015260208101905062000bd9565b8381111562000c06576000848401525b50505050565b600062000c198262000bcb565b62000c258185620009f4565b935062000c3781856020860162000bd6565b62000c4281620005a0565b840191505092915050565b62000c5881620006f8565b82525050565b62000c69816200088b565b82525050565b600060e082019050818103600083015262000c8b818a62000c0c565b905062000c9c602083018962000c4d565b818103604083015262000cb0818862000c0c565b905062000cc1606083018762000c4d565b62000cd0608083018662000c5e565b62000cdf60a083018562000c5e565b62000cee60c083018462000c4d565b98975050505050505050565b6000604082019050818103600083015262000d16818562000c0c565b905062000d27602083018462000c4d565b9392505050565b600060208201905062000d45600083018462000c5e565b9291505056fe60806040523480156200001157600080fd5b506040516200182c3803806200182c8339818101604052810190620000379190620003fa565b86600090805190602001906200004f9291906200010d565b5085600181905550836002819055508460049080519060200190620000769291906200010d565b5082600560006101000a81548173ffffffffffffffffffffffffffffffffffffffff021916908373ffffffffffffffffffffffffffffffffffffffff16021790555081600660006101000a81548173ffffffffffffffffffffffffffffffffffffffff021916908373ffffffffffffffffffffffffffffffffffffffff160217905550806007819055505050505050505062000550565b8280546200011b906200051a565b90600052602060002090601f0160209004810192826200013f57600085556200018b565b82601f106200015a57805160ff19168380011785556200018b565b828001600101855582156200018b579182015b828111156200018a5782518255916020019190600101906200016d565b5b5090506200019a91906200019e565b5090565b5b80821115620001b95760008160009055506001016200019f565b5090565b6000604051905090565b600080fd5b600080fd5b600080fd5b600080fd5b6000601f19601f8301169050919050565b7f4e487b7100000000000000000000000000000000000000000000000000000000600052604160045260246000fd5b6200022682620001db565b810181811067ffffffffffffffff82111715620002485762000247620001ec565b5b80604052505050565b60006200025d620001bd565b90506200026b82826200021b565b919050565b600067ffffffffffffffff8211156200028e576200028d620001ec565b5b6200029982620001db565b9050602081019050919050565b60005b83811015620002c6578082015181840152602081019050620002a9565b83811115620002d6576000848401525b50505050565b6000620002f3620002ed8462000270565b62000251565b905082815260208101848484011115620003125762000311620001d6565b5b6200031f848285620002a6565b509392505050565b600082601f8301126200033f576200033e620001d1565b5b815162000351848260208601620002dc565b91505092915050565b6000819050919050565b6200036f816200035a565b81146200037b57600080fd5b50565b6000815190506200038f8162000364565b92915050565b600073ffffffffffffffffffffffffffffffffffffffff82169050919050565b6000620003c28262000395565b9050919050565b620003d481620003b5565b8114620003e057600080fd5b50565b600081519050620003f481620003c9565b92915050565b600080600080600080600060e0888a0312156200041c576200041b620001c7565b5b600088015167ffffffffffffffff8111156200043d576200043c620001cc565b5b6200044b8a828b0162000327565b97505060206200045e8a828b016200037e565b965050604088015167ffffffffffffffff811115620004825762000481620001cc565b5b620004908a828b0162000327565b9550506060620004a38a828b016200037e565b9450506080620004b68a828b01620003e3565b93505060a0620004c98a828b01620003e3565b92505060c0620004dc8a828b016200037e565b91505092959891949750929550565b7f4e487b7100000000000000000000000000000000000000000000000000000000600052602260045260246000fd5b600060028204905060018216806200053357607f821691505b602082108114156200054a5762000549620004eb565b5b50919050565b6112cc80620005606000396000f3fe608060405234801561001057600080fd5b50600436106100b45760003560e01c8063a85c38ef11610071578063a85c38ef14610167578063bbf8980314610197578063db6a3652146101b3578063dbd0e1b6146101cf578063edbab143146101ed578063f2aa82181461020b576100b4565b80630115949c146100b957806317fa1f47146100d757806326cd59b3146100f3578063317c99841461010f57806384aa33651461012b57806398d5fdca14610149575b600080fd5b6100c161023b565b6040516100ce9190610bc5565b60405180910390f35b6100f160048036038101906100ec9190610c20565b610245565b005b61010d60048036038101906101089190610dcc565b610337565b005b61012960048036038101906101249190610e86565b610620565b005b6101336106dc565b6040516101409190610bc5565b60405180910390f35b6101516106e6565b60405161015e9190610bc5565b60405180910390f35b610181600480360381019061017c9190610c20565b6107d8565b60405161018e9190610ec2565b60405180910390f35b6101b160048036038101906101ac9190610e86565b610817565b005b6101cd60048036038101906101c89190610edd565b61095f565b005b6101d7610a9a565b6040516101e49190610ec2565b60405180910390f35b6101f5610ac4565b6040516102029190610bc5565b60405180910390f35b61022560048036038101906102209190610c20565b610aca565b6040516102329190610ec2565b60405180910390f35b6000600254905090565b600660009054906101000a900473ffffffffffffffffffffffffffffffffffffffff1673ffffffffffffffffffffffffffffffffffffffff163373ffffffffffffffffffffffffffffffffffffffff1614806102ee5750600560009054906101000a900473ffffffffffffffffffffffffffffffffffffffff1673ffffffffffffffffffffffffffffffffffffffff163373ffffffffffffffffffffffffffffffffffffffff16145b61032d576040517f08c379a000000000000000000000000000000000000000000000000000000000815260040161032490610f7a565b60405180910390fd5b8060028190555050565b6000600b60003373ffffffffffffffffffffffffffffffffffffffff1673ffffffffffffffffffffffffffffffffffffffff16815260200190815260200160002060009054906101000a900463ffffffff1663ffffffff1614156103d0576040517f08c379a00000000000000000000000000000000000000000000000000000000081526004016103c79061100c565b60405180910390fd5b600c60003373ffffffffffffffffffffffffffffffffffffffff1673ffffffffffffffffffffffffffffffffffffffff16815260200190815260200160002060010180549050600b60003373ffffffffffffffffffffffffffffffffffffffff1673ffffffffffffffffffffffffffffffffffffffff16815260200190815260200160002060009054906101000a900463ffffffff1663ffffffff16106104ac576040517f08c379a00000000000000000000000000000000000000000000000000000000081526004016104a39061109e565b60405180910390fd5b6000429050600c60003373ffffffffffffffffffffffffffffffffffffffff1673ffffffffffffffffffffffffffffffffffffffff1681526020019081526020016000206000018390806001815401808255809150506001900390600052602060002001600090919091909150908051906020019061052c929190610b09565b50600c60003373ffffffffffffffffffffffffffffffffffffffff1673ffffffffffffffffffffffffffffffffffffffff1681526020019081526020016000206001018290806001815401808255809150506001900390600052602060002090602091828204019190069091909190916101000a81548160ff021916908360ff160217905550600c60003373ffffffffffffffffffffffffffffffffffffffff1673ffffffffffffffffffffffffffffffffffffffff168152602001908152602001600020600201819080600181540180825580915050600190039060005260206000200160009091909190915055505050565b6001600b60008373ffffffffffffffffffffffffffffffffffffffff1673ffffffffffffffffffffffffffffffffffffffff16815260200190815260200160002060009054906101000a900463ffffffff1661067c91906110fd565b600b60008373ffffffffffffffffffffffffffffffffffffffff1673ffffffffffffffffffffffffffffffffffffffff16815260200190815260200160002060006101000a81548163ffffffff021916908363ffffffff16021790555050565b6000600754905090565b6000600660009054906101000a900473ffffffffffffffffffffffffffffffffffffffff1673ffffffffffffffffffffffffffffffffffffffff163373ffffffffffffffffffffffffffffffffffffffff1614806107915750600560009054906101000a900473ffffffffffffffffffffffffffffffffffffffff1673ffffffffffffffffffffffffffffffffffffffff163373ffffffffffffffffffffffffffffffffffffffff16145b6107d0576040517f08c379a00000000000000000000000000000000000000000000000000000000081526004016107c790610f7a565b60405180910390fd5b600154905090565b600981815481106107e857600080fd5b906000526020600020016000915054906101000a900473ffffffffffffffffffffffffffffffffffffffff1681565b6000600860003373ffffffffffffffffffffffffffffffffffffffff1673ffffffffffffffffffffffffffffffffffffffff16815260200190815260200160002054141561089a576040517f08c379a0000000000000000000000000000000000000000000000000000000008152600401610891906111a9565b60405180910390fd5b6000600b60008373ffffffffffffffffffffffffffffffffffffffff1673ffffffffffffffffffffffffffffffffffffffff16815260200190815260200160002060009054906101000a900463ffffffff1663ffffffff16141561095c57600a819080600181540180825580915050600190039060005260206000200160009091909190916101000a81548173ffffffffffffffffffffffffffffffffffffffff021916908373ffffffffffffffffffffffffffffffffffffffff1602179055505b50565b600660009054906101000a900473ffffffffffffffffffffffffffffffffffffffff1673ffffffffffffffffffffffffffffffffffffffff163373ffffffffffffffffffffffffffffffffffffffff16146109ef576040517f08c379a00000000000000000000000000000000000000000000000000000000081526004016109e690611215565b60405180910390fd5b6009829080600181540180825580915050600190039060005260206000200160009091909190916101000a81548173ffffffffffffffffffffffffffffffffffffffff021916908373ffffffffffffffffffffffffffffffffffffffff16021790555080600860008473ffffffffffffffffffffffffffffffffffffffff1673ffffffffffffffffffffffffffffffffffffffff168152602001908152602001600020819055505050565b6000600560009054906101000a900473ffffffffffffffffffffffffffffffffffffffff16905090565b60075481565b600a8181548110610ada57600080fd5b906000526020600020016000915054906101000a900473ffffffffffffffffffffffffffffffffffffffff1681565b828054610b1590611264565b90600052602060002090601f016020900481019282610b375760008555610b7e565b82601f10610b5057805160ff1916838001178555610b7e565b82800160010185558215610b7e579182015b82811115610b7d578251825591602001919060010190610b62565b5b509050610b8b9190610b8f565b5090565b5b80821115610ba8576000816000905550600101610b90565b5090565b6000819050919050565b610bbf81610bac565b82525050565b6000602082019050610bda6000830184610bb6565b92915050565b6000604051905090565b600080fd5b600080fd5b610bfd81610bac565b8114610c0857600080fd5b50565b600081359050610c1a81610bf4565b92915050565b600060208284031215610c3657610c35610bea565b5b6000610c4484828501610c0b565b91505092915050565b600080fd5b600080fd5b6000601f19601f8301169050919050565b7f4e487b7100000000000000000000000000000000000000000000000000000000600052604160045260246000fd5b610ca082610c57565b810181811067ffffffffffffffff82111715610cbf57610cbe610c68565b5b80604052505050565b6000610cd2610be0565b9050610cde8282610c97565b919050565b600067ffffffffffffffff821115610cfe57610cfd610c68565b5b610d0782610c57565b9050602081019050919050565b82818337600083830152505050565b6000610d36610d3184610ce3565b610cc8565b905082815260208101848484011115610d5257610d51610c52565b5b610d5d848285610d14565b509392505050565b600082601f830112610d7a57610d79610c4d565b5b8135610d8a848260208601610d23565b91505092915050565b600060ff82169050919050565b610da981610d93565b8114610db457600080fd5b50565b600081359050610dc681610da0565b92915050565b60008060408385031215610de357610de2610bea565b5b600083013567ffffffffffffffff811115610e0157610e00610bef565b5b610e0d85828601610d65565b9250506020610e1e85828601610db7565b9150509250929050565b600073ffffffffffffffffffffffffffffffffffffffff82169050919050565b6000610e5382610e28565b9050919050565b610e6381610e48565b8114610e6e57600080fd5b50565b600081359050610e8081610e5a565b92915050565b600060208284031215610e9c57610e9b610bea565b5b6000610eaa84828501610e71565b91505092915050565b610ebc81610e48565b82525050565b6000602082019050610ed76000830184610eb3565b92915050565b60008060408385031215610ef457610ef3610bea565b5b6000610f0285828601610e71565b9250506020610f1385828601610c0b565b9150509250929050565b600082825260208201905092915050565b7f4e6f74204f776e6572206f722073656c6c657200000000000000000000000000600082015250565b6000610f64601383610f1d565b9150610f6f82610f2e565b602082019050919050565b60006020820190508181036000830152610f9381610f57565b9050919050565b7f596f7520617265206e6f742061206275796572206f66207468652070726f647560008201527f6374000000000000000000000000000000000000000000000000000000000000602082015250565b6000610ff6602283610f1d565b915061100182610f9a565b604082019050919050565b6000602082019050818103600083015261102581610fe9565b9050919050565b7f596f75206861766520616c72656164792070726f76696465642072657669657760008201527f20616e6420726174696e67206f6620746869732070726f647563740000000000602082015250565b6000611088603b83610f1d565b91506110938261102c565b604082019050919050565b600060208201905081810360008301526110b78161107b565b9050919050565b600063ffffffff82169050919050565b7f4e487b7100000000000000000000000000000000000000000000000000000000600052601160045260246000fd5b6000611108826110be565b9150611113836110be565b92508263ffffffff0382111561112c5761112b6110ce565b5b828201905092915050565b7f50726f64756374206973206e6f74206173736f7369617465642077697468207460008201527f6865204f52444552000000000000000000000000000000000000000000000000602082015250565b6000611193602883610f1d565b915061119e82611137565b604082019050919050565b600060208201905081810360008301526111c281611186565b9050919050565b7f4e6f742045434d61727420286f776e6572290000000000000000000000000000600082015250565b60006111ff601283610f1d565b915061120a826111c9565b602082019050919050565b6000602082019050818103600083015261122e816111f2565b9050919050565b7f4e487b7100000000000000000000000000000000000000000000000000000000600052602260045260246000fd5b6000600282049050600182168061127c57607f821691505b602082108114156112905761128f611235565b5b5091905056fea2646970667358221220f68458254042e3ae7cf81d5ef32aadddd579d44d79ce035314580de19784db9d64736f6c63430008080033a26469706673582212203865d3c608143657a2fedd850f1f79069dc6c4ecd4c8aa1669b66a3c841ae8ce64736f6c63430008080033",
  "linkReferences": {},
  "deployedLinkReferences": {}
}