{
  "_format": "hh-sol-artifact-1",
  "contractName": "ProductFacet",
  "sourceName": "contracts/Diamond.sol",
  "abi": [
    {
      "anonymous": false,
      "inputs": [
        {
          "indexed": false,
          "internalType": "uint256",
          "name": "_finalPrice",
          "type": "uint256"
        },
        {
          "indexed": false,
          "internalType": "address",
          "name": "productAddress",
          "type": "address"
        },
        {
          "indexed": false,
          "internalType": "uint256",
          "name": "dbID",
          "type": "uint256"
        }
      ],
      "name": "productSaved",
      "type": "event"
    },
    {
      "inputs": [
        {
          "internalType": "string",
          "name": "_name",
          "type": "string"
        },
        {
          "internalType": "uint256",
          "name": "_price",
          "type": "uint256"
        },
        {
          "internalType": "string",
          "name": "_description",
          "type": "string"
        },
        {
          "internalType": "uint256",
          "name": "_quantity",
          "type": "uint256"
        },
        {
          "internalType": "uint256",
          "name": "dbID",
          "type": "uint256"
        }
      ],
      "name": "addProduct",
      "outputs": [],
      "stateMutability": "nonpayable",
      "type": "function"
    },
    {
      "inputs": [
        {
          "internalType": "address",
          "name": "_sellerAddress",
          "type": "address"
        }
      ],
      "name": "viewProducts",
      "outputs": [
        {
          "internalType": "address[]",
          "name": "",
          "type": "address[]"
        }
      ],
      "stateMutability": "view",
      "type": "function"
    }
  ],
  "bytecode": "0x608060405234801561001057600080fd5b50612cb9806100206000396000f3fe60806040523480156200001157600080fd5b50600436106200003a5760003560e01c8063677e8bc0146200003f578063f3122fca146200005f575b600080fd5b6200005d600480360381019062000057919062000756565b62000095565b005b6200007d600480360381019062000077919062000881565b62000362565b6040516200008c919062000981565b60405180910390f35b6001600060030160003373ffffffffffffffffffffffffffffffffffffffff1673ffffffffffffffffffffffffffffffffffffffff16815260200190815260200160002060009054906101000a900460ff1660ff16146200012d576040517f08c379a0000000000000000000000000000000000000000000000000000000008152600401620001249062000a06565b60405180910390fd5b600060646000600801548662000144919062000a57565b62000150919062000ae7565b6000600701546000600601548762000169919062000b1f565b62000175919062000b1f565b62000181919062000b1f565b9050620001c46040518060400160405280601a81526020017f5f46696e616c205072696365206f662050726f64756374203a200000000000008152508262000431565b60008686868633308789604051620001dc9062000597565b620001ef98979695949392919062000c20565b604051809103906000f0801580156200020c573d6000803e3d6000fd5b50905060008190506200021f81620004d1565b600960003373ffffffffffffffffffffffffffffffffffffffff1673ffffffffffffffffffffffffffffffffffffffff168152602001908152602001600020819080600181540180825580915050600190039060005260206000200160009091909190916101000a81548173ffffffffffffffffffffffffffffffffffffffff021916908373ffffffffffffffffffffffffffffffffffffffff1602179055506001600060020160008473ffffffffffffffffffffffffffffffffffffffff1673ffffffffffffffffffffffffffffffffffffffff16815260200190815260200160002060006101000a81548160ff021916908360ff1602179055507f6d6b40783c573ab0804a549d155a54d2d9ecf854ec6cf78c9e5c62ae07fe6020838286604051620003509392919062000cbc565b60405180910390a15050505050505050565b6060600960008373ffffffffffffffffffffffffffffffffffffffff1673ffffffffffffffffffffffffffffffffffffffff1681526020019081526020016000208054806020026020016040519081016040528092919081815260200182805480156200042557602002820191906000526020600020905b8160009054906101000a900473ffffffffffffffffffffffffffffffffffffffff1673ffffffffffffffffffffffffffffffffffffffff1681526020019060010190808311620003da575b50505050509050919050565b620004cd82826040516024016200044a92919062000cf9565b6040516020818303038152906040527f9710a9d0000000000000000000000000000000000000000000000000000000007bffffffffffffffffffffffffffffffffffffffffffffffffffffffff19166020820180517bffffffffffffffffffffffffffffffffffffffffffffffffffffffff83818316178352505050506200056e565b5050565b6200056b81604051602401620004e8919062000d2d565b6040516020818303038152906040527f2c2ecbc2000000000000000000000000000000000000000000000000000000007bffffffffffffffffffffffffffffffffffffffffffffffffffffffff19166020820180517bffffffffffffffffffffffffffffffffffffffffffffffffffffffff83818316178352505050506200056e565b50565b60008151905060006a636f6e736f6c652e6c6f679050602083016000808483855afa5050505050565b611f398062000d4b83390190565b6000604051905090565b600080fd5b600080fd5b600080fd5b600080fd5b6000601f19601f8301169050919050565b7f4e487b7100000000000000000000000000000000000000000000000000000000600052604160045260246000fd5b6200060e82620005c3565b810181811067ffffffffffffffff8211171562000630576200062f620005d4565b5b80604052505050565b600062000645620005a5565b905062000653828262000603565b919050565b600067ffffffffffffffff821115620006765762000675620005d4565b5b6200068182620005c3565b9050602081019050919050565b82818337600083830152505050565b6000620006b4620006ae8462000658565b62000639565b905082815260208101848484011115620006d357620006d2620005be565b5b620006e08482856200068e565b509392505050565b600082601f8301126200070057620006ff620005b9565b5b8135620007128482602086016200069d565b91505092915050565b6000819050919050565b62000730816200071b565b81146200073c57600080fd5b50565b600081359050620007508162000725565b92915050565b600080600080600060a08688031215620007755762000774620005af565b5b600086013567ffffffffffffffff811115620007965762000795620005b4565b5b620007a488828901620006e8565b9550506020620007b7888289016200073f565b945050604086013567ffffffffffffffff811115620007db57620007da620005b4565b5b620007e988828901620006e8565b9350506060620007fc888289016200073f565b92505060806200080f888289016200073f565b9150509295509295909350565b600073ffffffffffffffffffffffffffffffffffffffff82169050919050565b600062000849826200081c565b9050919050565b6200085b816200083c565b81146200086757600080fd5b50565b6000813590506200087b8162000850565b92915050565b6000602082840312156200089a5762000899620005af565b5b6000620008aa848285016200086a565b91505092915050565b600081519050919050565b600082825260208201905092915050565b6000819050602082019050919050565b620008ea816200083c565b82525050565b6000620008fe8383620008df565b60208301905092915050565b6000602082019050919050565b60006200092482620008b3565b620009308185620008be565b93506200093d83620008cf565b8060005b8381101562000974578151620009588882620008f0565b975062000965836200090a565b92505060018101905062000941565b5085935050505092915050565b600060208201905081810360008301526200099d818462000917565b905092915050565b600082825260208201905092915050565b7f596f7520617265206e6f7420612073656c6c6572000000000000000000000000600082015250565b6000620009ee601483620009a5565b9150620009fb82620009b6565b602082019050919050565b6000602082019050818103600083015262000a2181620009df565b9050919050565b7f4e487b7100000000000000000000000000000000000000000000000000000000600052601160045260246000fd5b600062000a64826200071b565b915062000a71836200071b565b9250817fffffffffffffffffffffffffffffffffffffffffffffffffffffffffffffffff048311821515161562000aad5762000aac62000a28565b5b828202905092915050565b7f4e487b7100000000000000000000000000000000000000000000000000000000600052601260045260246000fd5b600062000af4826200071b565b915062000b01836200071b565b92508262000b145762000b1362000ab8565b5b828204905092915050565b600062000b2c826200071b565b915062000b39836200071b565b9250827fffffffffffffffffffffffffffffffffffffffffffffffffffffffffffffffff0382111562000b715762000b7062000a28565b5b828201905092915050565b600081519050919050565b60005b8381101562000ba757808201518184015260208101905062000b8a565b8381111562000bb7576000848401525b50505050565b600062000bca8262000b7c565b62000bd68185620009a5565b935062000be881856020860162000b87565b62000bf381620005c3565b840191505092915050565b62000c09816200071b565b82525050565b62000c1a816200083c565b82525050565b600061010082019050818103600083015262000c3d818b62000bbd565b905062000c4e602083018a62000bfe565b818103604083015262000c62818962000bbd565b905062000c73606083018862000bfe565b62000c82608083018762000c0f565b62000c9160a083018662000c0f565b62000ca060c083018562000bfe565b62000caf60e083018462000bfe565b9998505050505050505050565b600060608201905062000cd3600083018662000bfe565b62000ce2602083018562000c0f565b62000cf1604083018462000bfe565b949350505050565b6000604082019050818103600083015262000d15818562000bbd565b905062000d26602083018462000bfe565b9392505050565b600060208201905062000d44600083018462000c0f565b9291505056fe60806040523480156200001157600080fd5b5060405162001f3938038062001f39833981810160405281019062000037919062000402565b87600090805190602001906200004f92919062000115565b50866001819055508460028190555085600490805190602001906200007692919062000115565b5083600560006101000a81548173ffffffffffffffffffffffffffffffffffffffff021916908373ffffffffffffffffffffffffffffffffffffffff16021790555082600660006101000a81548173ffffffffffffffffffffffffffffffffffffffff021916908373ffffffffffffffffffffffffffffffffffffffff160217905550816007819055508060088190555050505050505050506200056e565b828054620001239062000538565b90600052602060002090601f01602090048101928262000147576000855562000193565b82601f106200016257805160ff191683800117855562000193565b8280016001018555821562000193579182015b828111156200019257825182559160200191906001019062000175565b5b509050620001a29190620001a6565b5090565b5b80821115620001c1576000816000905550600101620001a7565b5090565b6000604051905090565b600080fd5b600080fd5b600080fd5b600080fd5b6000601f19601f8301169050919050565b7f4e487b7100000000000000000000000000000000000000000000000000000000600052604160045260246000fd5b6200022e82620001e3565b810181811067ffffffffffffffff8211171562000250576200024f620001f4565b5b80604052505050565b600062000265620001c5565b905062000273828262000223565b919050565b600067ffffffffffffffff821115620002965762000295620001f4565b5b620002a182620001e3565b9050602081019050919050565b60005b83811015620002ce578082015181840152602081019050620002b1565b83811115620002de576000848401525b50505050565b6000620002fb620002f58462000278565b62000259565b9050828152602081018484840111156200031a5762000319620001de565b5b62000327848285620002ae565b509392505050565b600082601f830112620003475762000346620001d9565b5b815162000359848260208601620002e4565b91505092915050565b6000819050919050565b620003778162000362565b81146200038357600080fd5b50565b60008151905062000397816200036c565b92915050565b600073ffffffffffffffffffffffffffffffffffffffff82169050919050565b6000620003ca826200039d565b9050919050565b620003dc81620003bd565b8114620003e857600080fd5b50565b600081519050620003fc81620003d1565b92915050565b600080600080600080600080610100898b031215620004265762000425620001cf565b5b600089015167ffffffffffffffff811115620004475762000446620001d4565b5b620004558b828c016200032f565b9850506020620004688b828c0162000386565b975050604089015167ffffffffffffffff8111156200048c576200048b620001d4565b5b6200049a8b828c016200032f565b9650506060620004ad8b828c0162000386565b9550506080620004c08b828c01620003eb565b94505060a0620004d38b828c01620003eb565b93505060c0620004e68b828c0162000386565b92505060e0620004f98b828c0162000386565b9150509295985092959890939650565b7f4e487b7100000000000000000000000000000000000000000000000000000000600052602260045260246000fd5b600060028204905060018216806200055157607f821691505b6020821081141562000568576200056762000509565b5b50919050565b6119bb806200057e6000396000f3fe608060405234801561001057600080fd5b50600436106100cf5760003560e01c806398d5fdca1161008c578063db6a365211610066578063db6a3652146101f3578063dbd0e1b61461020f578063edbab1431461022d578063f6c0f8b91461024b576100cf565b806398d5fdca14610187578063a85c38ef146101a5578063db005d88146101d5576100cf565b80630115949c146100d457806317d7de7c146100f257806317fa1f4714610110578063317c99841461012c57806341f296181461014857806384aa336514610169575b600080fd5b6100dc610267565b6040516100e99190610f7e565b60405180910390f35b6100fa610271565b6040516101079190611032565b60405180910390f35b61012a60048036038101906101259190611094565b610303565b005b6101466004803603810190610141919061111f565b6103f5565b005b610150610541565b60405161016094939291906113d4565b60405180910390f35b610171610768565b60405161017e9190610f7e565b60405180910390f35b61018f610772565b60405161019c9190610f7e565b60405180910390f35b6101bf60048036038101906101ba9190611094565b610864565b6040516101cc9190611444565b60405180910390f35b6101dd6108a3565b6040516101ea9190610f7e565b60405180910390f35b61020d6004803603810190610208919061145f565b61093d565b005b610217610a78565b6040516102249190611444565b60405180910390f35b610235610aa2565b6040516102429190610f7e565b60405180910390f35b610265600480360381019061026091906115d4565b610aa8565b005b6000600254905090565b60606000805461028090611672565b80601f01602080910402602001604051908101604052809291908181526020018280546102ac90611672565b80156102f95780601f106102ce576101008083540402835291602001916102f9565b820191906000526020600020905b8154815290600101906020018083116102dc57829003601f168201915b5050505050905090565b600660009054906101000a900473ffffffffffffffffffffffffffffffffffffffff1673ffffffffffffffffffffffffffffffffffffffff163373ffffffffffffffffffffffffffffffffffffffff1614806103ac5750600560009054906101000a900473ffffffffffffffffffffffffffffffffffffffff1673ffffffffffffffffffffffffffffffffffffffff163373ffffffffffffffffffffffffffffffffffffffff16145b6103eb576040517f08c379a00000000000000000000000000000000000000000000000000000000081526004016103e2906116f0565b60405180910390fd5b8060028190555050565b600660009054906101000a900473ffffffffffffffffffffffffffffffffffffffff1673ffffffffffffffffffffffffffffffffffffffff163373ffffffffffffffffffffffffffffffffffffffff1614610485576040517f08c379a000000000000000000000000000000000000000000000000000000000815260040161047c9061175c565b60405180910390fd5b6001600b60008373ffffffffffffffffffffffffffffffffffffffff1673ffffffffffffffffffffffffffffffffffffffff16815260200190815260200160002060009054906101000a900463ffffffff166104e191906117bb565b600b60008373ffffffffffffffffffffffffffffffffffffffff1673ffffffffffffffffffffffffffffffffffffffff16815260200190815260200160002060006101000a81548163ffffffff021916908363ffffffff16021790555050565b606080606080600d600001600d600101600d600201600d600301838054806020026020016040519081016040528092919081815260200182805480156105dc57602002820191906000526020600020905b8160009054906101000a900473ffffffffffffffffffffffffffffffffffffffff1673ffffffffffffffffffffffffffffffffffffffff1681526020019060010190808311610592575b5050505050935082805480602002602001604051908101604052809291908181526020016000905b828210156106b057838290600052602060002001805461062390611672565b80601f016020809104026020016040519081016040528092919081815260200182805461064f90611672565b801561069c5780601f106106715761010080835404028352916020019161069c565b820191906000526020600020905b81548152906001019060200180831161067f57829003601f168201915b505050505081526020019060010190610604565b5050505092508180548060200260200160405190810160405280929190818152602001828054801561070157602002820191906000526020600020905b8154815260200190600101908083116106ed575b505050505091508080548060200260200160405190810160405280929190818152602001828054801561075357602002820191906000526020600020905b81548152602001906001019080831161073f575b50505050509050935093509350935090919293565b6000600754905090565b6000600660009054906101000a900473ffffffffffffffffffffffffffffffffffffffff1673ffffffffffffffffffffffffffffffffffffffff163373ffffffffffffffffffffffffffffffffffffffff16148061081d5750600560009054906101000a900473ffffffffffffffffffffffffffffffffffffffff1673ffffffffffffffffffffffffffffffffffffffff163373ffffffffffffffffffffffffffffffffffffffff16145b61085c576040517f08c379a0000000000000000000000000000000000000000000000000000000008152600401610853906116f0565b60405180910390fd5b600154905090565b600a818154811061087457600080fd5b906000526020600020016000915054906101000a900473ffffffffffffffffffffffffffffffffffffffff1681565b6000600660009054906101000a900473ffffffffffffffffffffffffffffffffffffffff1673ffffffffffffffffffffffffffffffffffffffff163373ffffffffffffffffffffffffffffffffffffffff1614610935576040517f08c379a000000000000000000000000000000000000000000000000000000000815260040161092c9061175c565b60405180910390fd5b600854905090565b600660009054906101000a900473ffffffffffffffffffffffffffffffffffffffff1673ffffffffffffffffffffffffffffffffffffffff163373ffffffffffffffffffffffffffffffffffffffff16146109cd576040517f08c379a00000000000000000000000000000000000000000000000000000000081526004016109c49061175c565b60405180910390fd5b600a829080600181540180825580915050600190039060005260206000200160009091909190916101000a81548173ffffffffffffffffffffffffffffffffffffffff021916908373ffffffffffffffffffffffffffffffffffffffff16021790555080600960008473ffffffffffffffffffffffffffffffffffffffff1673ffffffffffffffffffffffffffffffffffffffff168152602001908152602001600020819055505050565b6000600560009054906101000a900473ffffffffffffffffffffffffffffffffffffffff16905090565b60075481565b600660009054906101000a900473ffffffffffffffffffffffffffffffffffffffff1673ffffffffffffffffffffffffffffffffffffffff163373ffffffffffffffffffffffffffffffffffffffff1614610b38576040517f08c379a0000000000000000000000000000000000000000000000000000000008152600401610b2f9061175c565b60405180910390fd5b6000600b60008373ffffffffffffffffffffffffffffffffffffffff1673ffffffffffffffffffffffffffffffffffffffff16815260200190815260200160002060009054906101000a900463ffffffff1663ffffffff161415610bd1576040517f08c379a0000000000000000000000000000000000000000000000000000000008152600401610bc890611867565b60405180910390fd5b600c60008273ffffffffffffffffffffffffffffffffffffffff1673ffffffffffffffffffffffffffffffffffffffff16815260200190815260200160002060009054906101000a900463ffffffff1663ffffffff16600b60008373ffffffffffffffffffffffffffffffffffffffff1673ffffffffffffffffffffffffffffffffffffffff16815260200190815260200160002060009054906101000a900463ffffffff1663ffffffff1611610cbd576040517f08c379a0000000000000000000000000000000000000000000000000000000008152600401610cb4906118f9565b60405180910390fd5b6005821115610d01576040517f08c379a0000000000000000000000000000000000000000000000000000000008152600401610cf890611965565b60405180910390fd5b6000429050600d600001829080600181540180825580915050600190039060005260206000200160009091909190916101000a81548173ffffffffffffffffffffffffffffffffffffffff021916908373ffffffffffffffffffffffffffffffffffffffff160217905550600d60010184908060018154018082558091505060019003906000526020600020016000909190919091509080519060200190610daa929190610ec2565b50600d600201839080600181540180825580915050600190039060005260206000200160009091909190915055600d6003018190806001815401808255809150506001900390600052602060002001600090919091909150556001600c60008473ffffffffffffffffffffffffffffffffffffffff1673ffffffffffffffffffffffffffffffffffffffff16815260200190815260200160002060009054906101000a900463ffffffff16610e5f91906117bb565b600c60008473ffffffffffffffffffffffffffffffffffffffff1673ffffffffffffffffffffffffffffffffffffffff16815260200190815260200160002060006101000a81548163ffffffff021916908363ffffffff16021790555050505050565b828054610ece90611672565b90600052602060002090601f016020900481019282610ef05760008555610f37565b82601f10610f0957805160ff1916838001178555610f37565b82800160010185558215610f37579182015b82811115610f36578251825591602001919060010190610f1b565b5b509050610f449190610f48565b5090565b5b80821115610f61576000816000905550600101610f49565b5090565b6000819050919050565b610f7881610f65565b82525050565b6000602082019050610f936000830184610f6f565b92915050565b600081519050919050565b600082825260208201905092915050565b60005b83811015610fd3578082015181840152602081019050610fb8565b83811115610fe2576000848401525b50505050565b6000601f19601f8301169050919050565b600061100482610f99565b61100e8185610fa4565b935061101e818560208601610fb5565b61102781610fe8565b840191505092915050565b6000602082019050818103600083015261104c8184610ff9565b905092915050565b6000604051905090565b600080fd5b600080fd5b61107181610f65565b811461107c57600080fd5b50565b60008135905061108e81611068565b92915050565b6000602082840312156110aa576110a961105e565b5b60006110b88482850161107f565b91505092915050565b600073ffffffffffffffffffffffffffffffffffffffff82169050919050565b60006110ec826110c1565b9050919050565b6110fc816110e1565b811461110757600080fd5b50565b600081359050611119816110f3565b92915050565b6000602082840312156111355761113461105e565b5b60006111438482850161110a565b91505092915050565b600081519050919050565b600082825260208201905092915050565b6000819050602082019050919050565b611181816110e1565b82525050565b60006111938383611178565b60208301905092915050565b6000602082019050919050565b60006111b78261114c565b6111c18185611157565b93506111cc83611168565b8060005b838110156111fd5781516111e48882611187565b97506111ef8361119f565b9250506001810190506111d0565b5085935050505092915050565b600081519050919050565b600082825260208201905092915050565b6000819050602082019050919050565b600082825260208201905092915050565b600061125282610f99565b61125c8185611236565b935061126c818560208601610fb5565b61127581610fe8565b840191505092915050565b600061128c8383611247565b905092915050565b6000602082019050919050565b60006112ac8261120a565b6112b68185611215565b9350836020820285016112c885611226565b8060005b8581101561130457848403895281516112e58582611280565b94506112f083611294565b925060208a019950506001810190506112cc565b50829750879550505050505092915050565b600081519050919050565b600082825260208201905092915050565b6000819050602082019050919050565b61134b81610f65565b82525050565b600061135d8383611342565b60208301905092915050565b6000602082019050919050565b600061138182611316565b61138b8185611321565b935061139683611332565b8060005b838110156113c75781516113ae8882611351565b97506113b983611369565b92505060018101905061139a565b5085935050505092915050565b600060808201905081810360008301526113ee81876111ac565b9050818103602083015261140281866112a1565b905081810360408301526114168185611376565b9050818103606083015261142a8184611376565b905095945050505050565b61143e816110e1565b82525050565b60006020820190506114596000830184611435565b92915050565b600080604083850312156114765761147561105e565b5b60006114848582860161110a565b92505060206114958582860161107f565b9150509250929050565b600080fd5b600080fd5b7f4e487b7100000000000000000000000000000000000000000000000000000000600052604160045260246000fd5b6114e182610fe8565b810181811067ffffffffffffffff82111715611500576114ff6114a9565b5b80604052505050565b6000611513611054565b905061151f82826114d8565b919050565b600067ffffffffffffffff82111561153f5761153e6114a9565b5b61154882610fe8565b9050602081019050919050565b82818337600083830152505050565b600061157761157284611524565b611509565b905082815260208101848484011115611593576115926114a4565b5b61159e848285611555565b509392505050565b600082601f8301126115bb576115ba61149f565b5b81356115cb848260208601611564565b91505092915050565b6000806000606084860312156115ed576115ec61105e565b5b600084013567ffffffffffffffff81111561160b5761160a611063565b5b611617868287016115a6565b93505060206116288682870161107f565b92505060406116398682870161110a565b9150509250925092565b7f4e487b7100000000000000000000000000000000000000000000000000000000600052602260045260246000fd5b6000600282049050600182168061168a57607f821691505b6020821081141561169e5761169d611643565b5b50919050565b7f4e6f74204f776e6572206f722073656c6c657200000000000000000000000000600082015250565b60006116da601383610fa4565b91506116e5826116a4565b602082019050919050565b60006020820190508181036000830152611709816116cd565b9050919050565b7f4e6f742045434d61727420286f776e6572290000000000000000000000000000600082015250565b6000611746601283610fa4565b915061175182611710565b602082019050919050565b6000602082019050818103600083015261177581611739565b9050919050565b600063ffffffff82169050919050565b7f4e487b7100000000000000000000000000000000000000000000000000000000600052601160045260246000fd5b60006117c68261177c565b91506117d18361177c565b92508263ffffffff038211156117ea576117e961178c565b5b828201905092915050565b7f596f7520617265206e6f742061206275796572206f66207468652070726f647560008201527f6374000000000000000000000000000000000000000000000000000000000000602082015250565b6000611851602283610fa4565b915061185c826117f5565b604082019050919050565b6000602082019050818103600083015261188081611844565b9050919050565b7f596f75206861766520616c72656164792070726f76696465642072657669657760008201527f20616e6420726174696e67206f6620746869732070726f647563740000000000602082015250565b60006118e3603b83610fa4565b91506118ee82611887565b604082019050919050565b60006020820190508181036000830152611912816118d6565b9050919050565b7f526174696e672073686f756c64206265206c657373207468616e203500000000600082015250565b600061194f601c83610fa4565b915061195a82611919565b602082019050919050565b6000602082019050818103600083015261197e81611942565b905091905056fea26469706673582212202c61b9a4139ff38a87541c1e1fbd07df1badb4091addfd2a8b37619bc4f9a6d864736f6c63430008080033a2646970667358221220e2ba5e3c5801097ff7b52e002f098ff21a09d24658acc6efbe038dc38ef5eebf64736f6c63430008080033",
  "linkReferences": {},
  "deployedLinkReferences": {}
}