{
  "_format": "hh-sol-artifact-1",
  "contractName": "ProductFacet",
  "sourceName": "contracts/Diamond.sol",
  "abi": [
    {
      "inputs": [
        {
          "internalType": "string",
          "name": "_name",
          "type": "string"
        },
        {
          "internalType": "uint256",
          "name": "_price",
          "type": "uint256"
        },
        {
          "internalType": "string",
          "name": "_description",
          "type": "string"
        },
        {
          "internalType": "uint256",
          "name": "_quantity",
          "type": "uint256"
        }
      ],
      "name": "addProduct",
      "outputs": [
        {
          "internalType": "contract Product",
          "name": "",
          "type": "address"
        }
      ],
      "stateMutability": "nonpayable",
      "type": "function"
    },
    {
      "inputs": [
        {
          "internalType": "address",
          "name": "_sellerAddress",
          "type": "address"
        }
      ],
      "name": "viewProducts",
      "outputs": [
        {
          "internalType": "address[]",
          "name": "",
          "type": "address[]"
        }
      ],
      "stateMutability": "view",
      "type": "function"
    }
  ],
  "bytecode": "0x608060405234801561001057600080fd5b50612a10806100206000396000f3fe60806040523480156200001157600080fd5b50600436106200003a5760003560e01c80633a2a925c146200003f578063f3122fca1462000075575b600080fd5b6200005d6004803603810190620000579190620005f9565b620000ab565b6040516200006c919062000734565b60405180910390f35b6200009360048036038101906200008d919062000796565b620002a5565b604051620000a2919062000896565b60405180910390f35b60006001600060030160003373ffffffffffffffffffffffffffffffffffffffff1673ffffffffffffffffffffffffffffffffffffffff16815260200190815260200160002060009054906101000a900460ff1660ff161462000145576040517f08c379a00000000000000000000000000000000000000000000000000000000081526004016200013c906200091b565b60405180910390fd5b60008585858533306040516200015b906200043a565b6200016c96959493929190620009e1565b604051809103906000f08015801562000189573d6000803e3d6000fd5b50905060008190506200019c8162000374565b600760003373ffffffffffffffffffffffffffffffffffffffff1673ffffffffffffffffffffffffffffffffffffffff168152602001908152602001600020819080600181540180825580915050600190039060005260206000200160009091909190916101000a81548173ffffffffffffffffffffffffffffffffffffffff021916908373ffffffffffffffffffffffffffffffffffffffff1602179055506001600060020160008473ffffffffffffffffffffffffffffffffffffffff1673ffffffffffffffffffffffffffffffffffffffff16815260200190815260200160002060006101000a81548160ff021916908360ff1602179055508192505050949350505050565b6060600760008373ffffffffffffffffffffffffffffffffffffffff1673ffffffffffffffffffffffffffffffffffffffff1681526020019081526020016000208054806020026020016040519081016040528092919081815260200182805480156200036857602002820191906000526020600020905b8160009054906101000a900473ffffffffffffffffffffffffffffffffffffffff1673ffffffffffffffffffffffffffffffffffffffff16815260200190600101908083116200031d575b50505050509050919050565b6200040e816040516024016200038b919062000a5c565b6040516020818303038152906040527f2c2ecbc2000000000000000000000000000000000000000000000000000000007bffffffffffffffffffffffffffffffffffffffffffffffffffffffff19166020820180517bffffffffffffffffffffffffffffffffffffffffffffffffffffffff838183161783525050505062000411565b50565b60008151905060006a636f6e736f6c652e6c6f679050602083016000808483855afa5050505050565b611f618062000a7a83390190565b6000604051905090565b600080fd5b600080fd5b600080fd5b600080fd5b6000601f19601f8301169050919050565b7f4e487b7100000000000000000000000000000000000000000000000000000000600052604160045260246000fd5b620004b18262000466565b810181811067ffffffffffffffff82111715620004d357620004d262000477565b5b80604052505050565b6000620004e862000448565b9050620004f68282620004a6565b919050565b600067ffffffffffffffff82111562000519576200051862000477565b5b620005248262000466565b9050602081019050919050565b82818337600083830152505050565b6000620005576200055184620004fb565b620004dc565b90508281526020810184848401111562000576576200057562000461565b5b6200058384828562000531565b509392505050565b600082601f830112620005a357620005a26200045c565b5b8135620005b584826020860162000540565b91505092915050565b6000819050919050565b620005d381620005be565b8114620005df57600080fd5b50565b600081359050620005f381620005c8565b92915050565b6000806000806080858703121562000616576200061562000452565b5b600085013567ffffffffffffffff81111562000637576200063662000457565b5b62000645878288016200058b565b94505060206200065887828801620005e2565b935050604085013567ffffffffffffffff8111156200067c576200067b62000457565b5b6200068a878288016200058b565b92505060606200069d87828801620005e2565b91505092959194509250565b600073ffffffffffffffffffffffffffffffffffffffff82169050919050565b6000819050919050565b6000620006f4620006ee620006e884620006a9565b620006c9565b620006a9565b9050919050565b60006200070882620006d3565b9050919050565b60006200071c82620006fb565b9050919050565b6200072e816200070f565b82525050565b60006020820190506200074b600083018462000723565b92915050565b60006200075e82620006a9565b9050919050565b620007708162000751565b81146200077c57600080fd5b50565b600081359050620007908162000765565b92915050565b600060208284031215620007af57620007ae62000452565b5b6000620007bf848285016200077f565b91505092915050565b600081519050919050565b600082825260208201905092915050565b6000819050602082019050919050565b620007ff8162000751565b82525050565b6000620008138383620007f4565b60208301905092915050565b6000602082019050919050565b60006200083982620007c8565b620008458185620007d3565b93506200085283620007e4565b8060005b83811015620008895781516200086d888262000805565b97506200087a836200081f565b92505060018101905062000856565b5085935050505092915050565b60006020820190508181036000830152620008b281846200082c565b905092915050565b600082825260208201905092915050565b7f596f7520617265206e6f7420612073656c6c6572000000000000000000000000600082015250565b600062000903601483620008ba565b91506200091082620008cb565b602082019050919050565b600060208201905081810360008301526200093681620008f4565b9050919050565b600081519050919050565b60005b83811015620009685780820151818401526020810190506200094b565b8381111562000978576000848401525b50505050565b60006200098b826200093d565b620009978185620008ba565b9350620009a981856020860162000948565b620009b48162000466565b840191505092915050565b620009ca81620005be565b82525050565b620009db8162000751565b82525050565b600060c0820190508181036000830152620009fd81896200097e565b905062000a0e6020830188620009bf565b818103604083015262000a2281876200097e565b905062000a336060830186620009bf565b62000a426080830185620009d0565b62000a5160a0830184620009d0565b979650505050505050565b600060208201905062000a736000830184620009d0565b9291505056fe60806040526002600055600560015560036002553480156200002057600080fd5b5060405162001f6138038062001f61833981810160405281019062000046919062000612565b85600390805190602001906200005e92919062000325565b50846004819055508260058190555083600790805190602001906200008592919062000325565b5081600860006101000a81548173ffffffffffffffffffffffffffffffffffffffff021916908373ffffffffffffffffffffffffffffffffffffffff16021790555080600960006101000a81548173ffffffffffffffffffffffffffffffffffffffff021916908373ffffffffffffffffffffffffffffffffffffffff16021790555060646000546004546200011c91906200071b565b620001289190620007ab565b6006819055506200015d60405180606001604052806027815260200162001f3a60279139620001b660201b62000c1f1760201c565b620001836064600054620001729190620007ab565b6200025960201b62000cb81760201c565b600254600654600454620001989190620007e3565b620001a49190620007e3565b600a8190555050505050505062000954565b6200025681604051602401620001cd91906200089d565b6040516020818303038152906040527f41304fac000000000000000000000000000000000000000000000000000000007bffffffffffffffffffffffffffffffffffffffffffffffffffffffff19166020820180517bffffffffffffffffffffffffffffffffffffffffffffffffffffffff8381831617835250505050620002fc60201b60201c565b50565b620002f981604051602401620002709190620008d2565b6040516020818303038152906040527ff5b1bba9000000000000000000000000000000000000000000000000000000007bffffffffffffffffffffffffffffffffffffffffffffffffffffffff19166020820180517bffffffffffffffffffffffffffffffffffffffffffffffffffffffff8381831617835250505050620002fc60201b60201c565b50565b60008151905060006a636f6e736f6c652e6c6f679050602083016000808483855afa5050505050565b82805462000333906200091e565b90600052602060002090601f016020900481019282620003575760008555620003a3565b82601f106200037257805160ff1916838001178555620003a3565b82800160010185558215620003a3579182015b82811115620003a257825182559160200191906001019062000385565b5b509050620003b29190620003b6565b5090565b5b80821115620003d1576000816000905550600101620003b7565b5090565b6000604051905090565b600080fd5b600080fd5b600080fd5b600080fd5b6000601f19601f8301169050919050565b7f4e487b7100000000000000000000000000000000000000000000000000000000600052604160045260246000fd5b6200043e82620003f3565b810181811067ffffffffffffffff8211171562000460576200045f62000404565b5b80604052505050565b600062000475620003d5565b905062000483828262000433565b919050565b600067ffffffffffffffff821115620004a657620004a562000404565b5b620004b182620003f3565b9050602081019050919050565b60005b83811015620004de578082015181840152602081019050620004c1565b83811115620004ee576000848401525b50505050565b60006200050b620005058462000488565b62000469565b9050828152602081018484840111156200052a5762000529620003ee565b5b62000537848285620004be565b509392505050565b600082601f830112620005575762000556620003e9565b5b815162000569848260208601620004f4565b91505092915050565b6000819050919050565b620005878162000572565b81146200059357600080fd5b50565b600081519050620005a7816200057c565b92915050565b600073ffffffffffffffffffffffffffffffffffffffff82169050919050565b6000620005da82620005ad565b9050919050565b620005ec81620005cd565b8114620005f857600080fd5b50565b6000815190506200060c81620005e1565b92915050565b60008060008060008060c08789031215620006325762000631620003df565b5b600087015167ffffffffffffffff811115620006535762000652620003e4565b5b6200066189828a016200053f565b96505060206200067489828a0162000596565b955050604087015167ffffffffffffffff811115620006985762000697620003e4565b5b620006a689828a016200053f565b9450506060620006b989828a0162000596565b9350506080620006cc89828a01620005fb565b92505060a0620006df89828a01620005fb565b9150509295509295509295565b7f4e487b7100000000000000000000000000000000000000000000000000000000600052601160045260246000fd5b6000620007288262000572565b9150620007358362000572565b9250817fffffffffffffffffffffffffffffffffffffffffffffffffffffffffffffffff0483118215151615620007715762000770620006ec565b5b828202905092915050565b7f4e487b7100000000000000000000000000000000000000000000000000000000600052601260045260246000fd5b6000620007b88262000572565b9150620007c58362000572565b925082620007d857620007d76200077c565b5b828204905092915050565b6000620007f08262000572565b9150620007fd8362000572565b9250827fffffffffffffffffffffffffffffffffffffffffffffffffffffffffffffffff03821115620008355762000834620006ec565b5b828201905092915050565b600081519050919050565b600082825260208201905092915050565b6000620008698262000840565b6200087581856200084b565b935062000887818560208601620004be565b6200089281620003f3565b840191505092915050565b60006020820190508181036000830152620008b981846200085c565b905092915050565b620008cc8162000572565b82525050565b6000602082019050620008e96000830184620008c1565b92915050565b7f4e487b7100000000000000000000000000000000000000000000000000000000600052602260045260246000fd5b600060028204905060018216806200093757607f821691505b602082108114156200094e576200094d620008ef565b5b50919050565b6115d680620009646000396000f3fe608060405234801561001057600080fd5b50600436106100ea5760003560e01c8063a85c38ef1161008c578063db6a365211610066578063db6a365214610225578063dbd0e1b614610241578063edbab1431461025f578063f2aa82181461027d576100ea565b8063a85c38ef146101bb578063bbf89803146101eb578063bdb7f00e14610207576100ea565b8063317c9984116100c8578063317c99841461014557806384aa3365146101615780638b2a90591461017f57806398d5fdca1461019d576100ea565b80630115949c146100ef57806317fa1f471461010d57806326cd59b314610129575b600080fd5b6100f76102ad565b6040516101049190610e36565b60405180910390f35b61012760048036038101906101229190610e91565b6102b7565b005b610143600480360381019061013e919061103d565b6103a9565b005b61015f600480360381019061015a91906110f7565b610692565b005b61016961074e565b6040516101769190610e36565b60405180910390f35b610187610758565b6040516101949190610e36565b60405180910390f35b6101a56107f2565b6040516101b29190610e36565b60405180910390f35b6101d560048036038101906101d09190610e91565b6108e4565b6040516101e29190611133565b60405180910390f35b610205600480360381019061020091906110f7565b610923565b005b61020f610a6b565b60405161021c9190610e36565b60405180910390f35b61023f600480360381019061023a919061114e565b610a75565b005b610249610bb0565b6040516102569190611133565b60405180910390f35b610267610bda565b6040516102749190610e36565b60405180910390f35b61029760048036038101906102929190610e91565b610be0565b6040516102a49190611133565b60405180910390f35b6000600554905090565b600960009054906101000a900473ffffffffffffffffffffffffffffffffffffffff1673ffffffffffffffffffffffffffffffffffffffff163373ffffffffffffffffffffffffffffffffffffffff1614806103605750600860009054906101000a900473ffffffffffffffffffffffffffffffffffffffff1673ffffffffffffffffffffffffffffffffffffffff163373ffffffffffffffffffffffffffffffffffffffff16145b61039f576040517f08c379a0000000000000000000000000000000000000000000000000000000008152600401610396906111eb565b60405180910390fd5b8060058190555050565b6000600e60003373ffffffffffffffffffffffffffffffffffffffff1673ffffffffffffffffffffffffffffffffffffffff16815260200190815260200160002060009054906101000a900463ffffffff1663ffffffff161415610442576040517f08c379a00000000000000000000000000000000000000000000000000000000081526004016104399061127d565b60405180910390fd5b600f60003373ffffffffffffffffffffffffffffffffffffffff1673ffffffffffffffffffffffffffffffffffffffff16815260200190815260200160002060010180549050600e60003373ffffffffffffffffffffffffffffffffffffffff1673ffffffffffffffffffffffffffffffffffffffff16815260200190815260200160002060009054906101000a900463ffffffff1663ffffffff161061051e576040517f08c379a00000000000000000000000000000000000000000000000000000000081526004016105159061130f565b60405180910390fd5b6000429050600f60003373ffffffffffffffffffffffffffffffffffffffff1673ffffffffffffffffffffffffffffffffffffffff1681526020019081526020016000206000018390806001815401808255809150506001900390600052602060002001600090919091909150908051906020019061059e929190610d7a565b50600f60003373ffffffffffffffffffffffffffffffffffffffff1673ffffffffffffffffffffffffffffffffffffffff1681526020019081526020016000206001018290806001815401808255809150506001900390600052602060002090602091828204019190069091909190916101000a81548160ff021916908360ff160217905550600f60003373ffffffffffffffffffffffffffffffffffffffff1673ffffffffffffffffffffffffffffffffffffffff168152602001908152602001600020600201819080600181540180825580915050600190039060005260206000200160009091909190915055505050565b6001600e60008373ffffffffffffffffffffffffffffffffffffffff1673ffffffffffffffffffffffffffffffffffffffff16815260200190815260200160002060009054906101000a900463ffffffff166106ee919061136e565b600e60008373ffffffffffffffffffffffffffffffffffffffff1673ffffffffffffffffffffffffffffffffffffffff16815260200190815260200160002060006101000a81548163ffffffff021916908363ffffffff16021790555050565b6000600a54905090565b6000600960009054906101000a900473ffffffffffffffffffffffffffffffffffffffff1673ffffffffffffffffffffffffffffffffffffffff163373ffffffffffffffffffffffffffffffffffffffff16146107ea576040517f08c379a00000000000000000000000000000000000000000000000000000000081526004016107e1906113f4565b60405180910390fd5b600654905090565b6000600960009054906101000a900473ffffffffffffffffffffffffffffffffffffffff1673ffffffffffffffffffffffffffffffffffffffff163373ffffffffffffffffffffffffffffffffffffffff16148061089d5750600860009054906101000a900473ffffffffffffffffffffffffffffffffffffffff1673ffffffffffffffffffffffffffffffffffffffff163373ffffffffffffffffffffffffffffffffffffffff16145b6108dc576040517f08c379a00000000000000000000000000000000000000000000000000000000081526004016108d3906111eb565b60405180910390fd5b600454905090565b600c81815481106108f457600080fd5b906000526020600020016000915054906101000a900473ffffffffffffffffffffffffffffffffffffffff1681565b6000600b60003373ffffffffffffffffffffffffffffffffffffffff1673ffffffffffffffffffffffffffffffffffffffff1681526020019081526020016000205414156109a6576040517f08c379a000000000000000000000000000000000000000000000000000000000815260040161099d90611486565b60405180910390fd5b6000600e60008373ffffffffffffffffffffffffffffffffffffffff1673ffffffffffffffffffffffffffffffffffffffff16815260200190815260200160002060009054906101000a900463ffffffff1663ffffffff161415610a6857600d819080600181540180825580915050600190039060005260206000200160009091909190916101000a81548173ffffffffffffffffffffffffffffffffffffffff021916908373ffffffffffffffffffffffffffffffffffffffff1602179055505b50565b6000600154905090565b600960009054906101000a900473ffffffffffffffffffffffffffffffffffffffff1673ffffffffffffffffffffffffffffffffffffffff163373ffffffffffffffffffffffffffffffffffffffff1614610b05576040517f08c379a0000000000000000000000000000000000000000000000000000000008152600401610afc906113f4565b60405180910390fd5b600c829080600181540180825580915050600190039060005260206000200160009091909190916101000a81548173ffffffffffffffffffffffffffffffffffffffff021916908373ffffffffffffffffffffffffffffffffffffffff16021790555080600b60008473ffffffffffffffffffffffffffffffffffffffff1673ffffffffffffffffffffffffffffffffffffffff168152602001908152602001600020819055505050565b6000600860009054906101000a900473ffffffffffffffffffffffffffffffffffffffff16905090565b600a5481565b600d8181548110610bf057600080fd5b906000526020600020016000915054906101000a900473ffffffffffffffffffffffffffffffffffffffff1681565b610cb581604051602401610c33919061151d565b6040516020818303038152906040527f41304fac000000000000000000000000000000000000000000000000000000007bffffffffffffffffffffffffffffffffffffffffffffffffffffffff19166020820180517bffffffffffffffffffffffffffffffffffffffffffffffffffffffff8381831617835250505050610d51565b50565b610d4e81604051602401610ccc9190610e36565b6040516020818303038152906040527ff5b1bba9000000000000000000000000000000000000000000000000000000007bffffffffffffffffffffffffffffffffffffffffffffffffffffffff19166020820180517bffffffffffffffffffffffffffffffffffffffffffffffffffffffff8381831617835250505050610d51565b50565b60008151905060006a636f6e736f6c652e6c6f679050602083016000808483855afa5050505050565b828054610d869061156e565b90600052602060002090601f016020900481019282610da85760008555610def565b82601f10610dc157805160ff1916838001178555610def565b82800160010185558215610def579182015b82811115610dee578251825591602001919060010190610dd3565b5b509050610dfc9190610e00565b5090565b5b80821115610e19576000816000905550600101610e01565b5090565b6000819050919050565b610e3081610e1d565b82525050565b6000602082019050610e4b6000830184610e27565b92915050565b6000604051905090565b600080fd5b600080fd5b610e6e81610e1d565b8114610e7957600080fd5b50565b600081359050610e8b81610e65565b92915050565b600060208284031215610ea757610ea6610e5b565b5b6000610eb584828501610e7c565b91505092915050565b600080fd5b600080fd5b6000601f19601f8301169050919050565b7f4e487b7100000000000000000000000000000000000000000000000000000000600052604160045260246000fd5b610f1182610ec8565b810181811067ffffffffffffffff82111715610f3057610f2f610ed9565b5b80604052505050565b6000610f43610e51565b9050610f4f8282610f08565b919050565b600067ffffffffffffffff821115610f6f57610f6e610ed9565b5b610f7882610ec8565b9050602081019050919050565b82818337600083830152505050565b6000610fa7610fa284610f54565b610f39565b905082815260208101848484011115610fc357610fc2610ec3565b5b610fce848285610f85565b509392505050565b600082601f830112610feb57610fea610ebe565b5b8135610ffb848260208601610f94565b91505092915050565b600060ff82169050919050565b61101a81611004565b811461102557600080fd5b50565b60008135905061103781611011565b92915050565b6000806040838503121561105457611053610e5b565b5b600083013567ffffffffffffffff81111561107257611071610e60565b5b61107e85828601610fd6565b925050602061108f85828601611028565b9150509250929050565b600073ffffffffffffffffffffffffffffffffffffffff82169050919050565b60006110c482611099565b9050919050565b6110d4816110b9565b81146110df57600080fd5b50565b6000813590506110f1816110cb565b92915050565b60006020828403121561110d5761110c610e5b565b5b600061111b848285016110e2565b91505092915050565b61112d816110b9565b82525050565b60006020820190506111486000830184611124565b92915050565b6000806040838503121561116557611164610e5b565b5b6000611173858286016110e2565b925050602061118485828601610e7c565b9150509250929050565b600082825260208201905092915050565b7f4e6f74204f776e6572206f722073656c6c657200000000000000000000000000600082015250565b60006111d560138361118e565b91506111e08261119f565b602082019050919050565b60006020820190508181036000830152611204816111c8565b9050919050565b7f596f7520617265206e6f742061206275796572206f66207468652070726f647560008201527f6374000000000000000000000000000000000000000000000000000000000000602082015250565b600061126760228361118e565b91506112728261120b565b604082019050919050565b600060208201905081810360008301526112968161125a565b9050919050565b7f596f75206861766520616c72656164792070726f76696465642072657669657760008201527f20616e6420726174696e67206f6620746869732070726f647563740000000000602082015250565b60006112f9603b8361118e565b91506113048261129d565b604082019050919050565b60006020820190508181036000830152611328816112ec565b9050919050565b600063ffffffff82169050919050565b7f4e487b7100000000000000000000000000000000000000000000000000000000600052601160045260246000fd5b60006113798261132f565b91506113848361132f565b92508263ffffffff0382111561139d5761139c61133f565b5b828201905092915050565b7f4e6f742045434d61727420286f776e6572290000000000000000000000000000600082015250565b60006113de60128361118e565b91506113e9826113a8565b602082019050919050565b6000602082019050818103600083015261140d816113d1565b9050919050565b7f50726f64756374206973206e6f74206173736f7369617465642077697468207460008201527f6865204f52444552000000000000000000000000000000000000000000000000602082015250565b600061147060288361118e565b915061147b82611414565b604082019050919050565b6000602082019050818103600083015261149f81611463565b9050919050565b600081519050919050565b60005b838110156114cf5780820151818401526020810190506114b4565b838111156114de576000848401525b50505050565b60006114ef826114a6565b6114f9818561118e565b93506115098185602086016114b1565b61151281610ec8565b840191505092915050565b6000602082019050818103600083015261153781846114e4565b905092915050565b7f4e487b7100000000000000000000000000000000000000000000000000000000600052602260045260246000fd5b6000600282049050600182168061158657607f821691505b6020821081141561159a5761159961153f565b5b5091905056fea2646970667358221220613e1a1e345272cef40a7c7bbfa852f3dc8ffa3fb667a78e01e95e210c2117cd64736f6c6343000808003350657263656e746167652d2d2d2d2d2d2d2d2d2d2d2d2d2d2d2d2d2d2d2d2d2d2d2d2d2d2d2d2da2646970667358221220134c8d3ba6396c9cd8313791f854def1431ee4a275c6062b52ce068ab20583b764736f6c63430008080033",
  "linkReferences": {},
  "deployedLinkReferences": {}
}