{
  "_format": "hh-sol-artifact-1",
  "contractName": "ProductFacet",
  "sourceName": "contracts/Diamond.sol",
  "abi": [
    {
      "anonymous": false,
      "inputs": [
        {
          "indexed": false,
          "internalType": "address",
          "name": "productAddress",
          "type": "address"
        }
      ],
      "name": "Save",
      "type": "event"
    },
    {
      "inputs": [
        {
          "internalType": "string",
          "name": "_name",
          "type": "string"
        },
        {
          "internalType": "uint256",
          "name": "_price",
          "type": "uint256"
        },
        {
          "internalType": "string",
          "name": "_description",
          "type": "string"
        },
        {
          "internalType": "uint256",
          "name": "_quantity",
          "type": "uint256"
        }
      ],
      "name": "addProduct",
      "outputs": [],
      "stateMutability": "nonpayable",
      "type": "function"
    },
    {
      "inputs": [
        {
          "internalType": "uint256",
          "name": "_data",
          "type": "uint256"
        }
      ],
      "name": "getdata",
      "outputs": [
        {
          "internalType": "uint256",
          "name": "",
          "type": "uint256"
        }
      ],
      "stateMutability": "view",
      "type": "function"
    }
  ],
  "bytecode": "0x608060405234801561001057600080fd5b5061154f806100206000396000f3fe60806040523480156200001157600080fd5b50600436106200003a5760003560e01c80630ad2b739146200003f5780633a2a925c1462000075575b600080fd5b6200005d60048036038101906200005791906200035c565b62000095565b6040516200006c91906200039f565b60405180910390f35b6200009360048036038101906200008d91906200051e565b620000ad565b005b6000600282620000a69190620005fd565b9050919050565b6001600060030160003373ffffffffffffffffffffffffffffffffffffffff1673ffffffffffffffffffffffffffffffffffffffff16815260200190815260200160002060009054906101000a900460ff1660ff161462000145576040517f08c379a00000000000000000000000000000000000000000000000000000000081526004016200013c90620006bf565b60405180910390fd5b60008484848433306040516200015b90620002ff565b6200016c96959493929190620007a8565b604051809103906000f08015801562000189573d6000803e3d6000fd5b50905060008190506200019c8162000239565b6001600060020160008473ffffffffffffffffffffffffffffffffffffffff1673ffffffffffffffffffffffffffffffffffffffff16815260200190815260200160002060006101000a81548160ff021916908360ff1602179055507f7f05d41edf3ac2c41ffc909463aec49ca76d116f47ecdfb6decd8eda51fba7f88160405162000229919062000823565b60405180910390a1505050505050565b620002d38160405160240162000250919062000823565b6040516020818303038152906040527f2c2ecbc2000000000000000000000000000000000000000000000000000000007bffffffffffffffffffffffffffffffffffffffffffffffffffffffff19166020820180517bffffffffffffffffffffffffffffffffffffffffffffffffffffffff8381831617835250505050620002d6565b50565b60008151905060006a636f6e736f6c652e6c6f679050602083016000808483855afa5050505050565b610cd9806200084183390190565b6000604051905090565b600080fd5b600080fd5b6000819050919050565b620003368162000321565b81146200034257600080fd5b50565b60008135905062000356816200032b565b92915050565b60006020828403121562000375576200037462000317565b5b6000620003858482850162000345565b91505092915050565b620003998162000321565b82525050565b6000602082019050620003b660008301846200038e565b92915050565b600080fd5b600080fd5b6000601f19601f8301169050919050565b7f4e487b7100000000000000000000000000000000000000000000000000000000600052604160045260246000fd5b6200041182620003c6565b810181811067ffffffffffffffff82111715620004335762000432620003d7565b5b80604052505050565b6000620004486200030d565b905062000456828262000406565b919050565b600067ffffffffffffffff821115620004795762000478620003d7565b5b6200048482620003c6565b9050602081019050919050565b82818337600083830152505050565b6000620004b7620004b1846200045b565b6200043c565b905082815260208101848484011115620004d657620004d5620003c1565b5b620004e384828562000491565b509392505050565b600082601f830112620005035762000502620003bc565b5b813562000515848260208601620004a0565b91505092915050565b600080600080608085870312156200053b576200053a62000317565b5b600085013567ffffffffffffffff8111156200055c576200055b6200031c565b5b6200056a87828801620004eb565b94505060206200057d8782880162000345565b935050604085013567ffffffffffffffff811115620005a157620005a06200031c565b5b620005af87828801620004eb565b9250506060620005c28782880162000345565b91505092959194509250565b7f4e487b7100000000000000000000000000000000000000000000000000000000600052601160045260246000fd5b60006200060a8262000321565b9150620006178362000321565b9250817fffffffffffffffffffffffffffffffffffffffffffffffffffffffffffffffff0483118215151615620006535762000652620005ce565b5b828202905092915050565b600082825260208201905092915050565b7f596f7520617265206e6f7420612073656c6c6572000000000000000000000000600082015250565b6000620006a76014836200065e565b9150620006b4826200066f565b602082019050919050565b60006020820190508181036000830152620006da8162000698565b9050919050565b600081519050919050565b60005b838110156200070c578082015181840152602081019050620006ef565b838111156200071c576000848401525b50505050565b60006200072f82620006e1565b6200073b81856200065e565b93506200074d818560208601620006ec565b6200075881620003c6565b840191505092915050565b600073ffffffffffffffffffffffffffffffffffffffff82169050919050565b6000620007908262000763565b9050919050565b620007a28162000783565b82525050565b600060c0820190508181036000830152620007c4818962000722565b9050620007d560208301886200038e565b8181036040830152620007e9818762000722565b9050620007fa60608301866200038e565b62000809608083018562000797565b6200081860a083018462000797565b979650505050505050565b60006020820190506200083a600083018462000797565b9291505056fe60806040526002600055600560015560036002553480156200002057600080fd5b5060405162000cd938038062000cd983398181016040528101906200004691906200044e565b85600390805190602001906200005e92919062000161565b50846004819055508260058190555083600790805190602001906200008592919062000161565b5081600860006101000a81548173ffffffffffffffffffffffffffffffffffffffff021916908373ffffffffffffffffffffffffffffffffffffffff16021790555080600960006101000a81548173ffffffffffffffffffffffffffffffffffffffff021916908373ffffffffffffffffffffffffffffffffffffffff160217905550606460005462000119919062000586565b600454620001289190620005be565b6006819055506002546006546004546200014391906200061f565b6200014f91906200061f565b600a81905550505050505050620006e1565b8280546200016f90620006ab565b90600052602060002090601f016020900481019282620001935760008555620001df565b82601f10620001ae57805160ff1916838001178555620001df565b82800160010185558215620001df579182015b82811115620001de578251825591602001919060010190620001c1565b5b509050620001ee9190620001f2565b5090565b5b808211156200020d576000816000905550600101620001f3565b5090565b6000604051905090565b600080fd5b600080fd5b600080fd5b600080fd5b6000601f19601f8301169050919050565b7f4e487b7100000000000000000000000000000000000000000000000000000000600052604160045260246000fd5b6200027a826200022f565b810181811067ffffffffffffffff821117156200029c576200029b62000240565b5b80604052505050565b6000620002b162000211565b9050620002bf82826200026f565b919050565b600067ffffffffffffffff821115620002e257620002e162000240565b5b620002ed826200022f565b9050602081019050919050565b60005b838110156200031a578082015181840152602081019050620002fd565b838111156200032a576000848401525b50505050565b6000620003476200034184620002c4565b620002a5565b9050828152602081018484840111156200036657620003656200022a565b5b62000373848285620002fa565b509392505050565b600082601f83011262000393576200039262000225565b5b8151620003a584826020860162000330565b91505092915050565b6000819050919050565b620003c381620003ae565b8114620003cf57600080fd5b50565b600081519050620003e381620003b8565b92915050565b600073ffffffffffffffffffffffffffffffffffffffff82169050919050565b60006200041682620003e9565b9050919050565b620004288162000409565b81146200043457600080fd5b50565b60008151905062000448816200041d565b92915050565b60008060008060008060c087890312156200046e576200046d6200021b565b5b600087015167ffffffffffffffff8111156200048f576200048e62000220565b5b6200049d89828a016200037b565b9650506020620004b089828a01620003d2565b955050604087015167ffffffffffffffff811115620004d457620004d362000220565b5b620004e289828a016200037b565b9450506060620004f589828a01620003d2565b93505060806200050889828a0162000437565b92505060a06200051b89828a0162000437565b9150509295509295509295565b7f4e487b7100000000000000000000000000000000000000000000000000000000600052601260045260246000fd5b7f4e487b7100000000000000000000000000000000000000000000000000000000600052601160045260246000fd5b60006200059382620003ae565b9150620005a083620003ae565b925082620005b357620005b262000528565b5b828204905092915050565b6000620005cb82620003ae565b9150620005d883620003ae565b9250817fffffffffffffffffffffffffffffffffffffffffffffffffffffffffffffffff048311821515161562000614576200061362000557565b5b828202905092915050565b60006200062c82620003ae565b91506200063983620003ae565b9250827fffffffffffffffffffffffffffffffffffffffffffffffffffffffffffffffff0382111562000671576200067062000557565b5b828201905092915050565b7f4e487b7100000000000000000000000000000000000000000000000000000000600052602260045260246000fd5b60006002820490506001821680620006c457607f821691505b60208210811415620006db57620006da6200067c565b5b50919050565b6105e880620006f16000396000f3fe608060405234801561001057600080fd5b50600436106100885760003560e01c806398d5fdca1161005b57806398d5fdca14610103578063bdb7f00e14610121578063dbd0e1b61461013f578063edbab1431461015d57610088565b80630115949c1461008d57806317fa1f47146100ab57806384aa3365146100c75780638b2a9059146100e5575b600080fd5b61009561017b565b6040516100a29190610460565b60405180910390f35b6100c560048036038101906100c091906104ac565b610185565b005b6100cf610277565b6040516100dc9190610460565b60405180910390f35b6100ed610281565b6040516100fa9190610460565b60405180910390f35b61010b61031b565b6040516101189190610460565b60405180910390f35b61012961040d565b6040516101369190610460565b60405180910390f35b610147610417565b604051610154919061051a565b60405180910390f35b610165610441565b6040516101729190610460565b60405180910390f35b6000600554905090565b600960009054906101000a900473ffffffffffffffffffffffffffffffffffffffff1673ffffffffffffffffffffffffffffffffffffffff163373ffffffffffffffffffffffffffffffffffffffff16148061022e5750600860009054906101000a900473ffffffffffffffffffffffffffffffffffffffff1673ffffffffffffffffffffffffffffffffffffffff163373ffffffffffffffffffffffffffffffffffffffff16145b61026d576040517f08c379a000000000000000000000000000000000000000000000000000000000815260040161026490610592565b60405180910390fd5b8060058190555050565b6000600a54905090565b6000600960009054906101000a900473ffffffffffffffffffffffffffffffffffffffff1673ffffffffffffffffffffffffffffffffffffffff163373ffffffffffffffffffffffffffffffffffffffff1614610313576040517f08c379a000000000000000000000000000000000000000000000000000000000815260040161030a90610592565b60405180910390fd5b600654905090565b6000600960009054906101000a900473ffffffffffffffffffffffffffffffffffffffff1673ffffffffffffffffffffffffffffffffffffffff163373ffffffffffffffffffffffffffffffffffffffff1614806103c65750600860009054906101000a900473ffffffffffffffffffffffffffffffffffffffff1673ffffffffffffffffffffffffffffffffffffffff163373ffffffffffffffffffffffffffffffffffffffff16145b610405576040517f08c379a00000000000000000000000000000000000000000000000000000000081526004016103fc90610592565b60405180910390fd5b600454905090565b6000600154905090565b6000600860009054906101000a900473ffffffffffffffffffffffffffffffffffffffff16905090565b600a5481565b6000819050919050565b61045a81610447565b82525050565b60006020820190506104756000830184610451565b92915050565b600080fd5b61048981610447565b811461049457600080fd5b50565b6000813590506104a681610480565b92915050565b6000602082840312156104c2576104c161047b565b5b60006104d084828501610497565b91505092915050565b600073ffffffffffffffffffffffffffffffffffffffff82169050919050565b6000610504826104d9565b9050919050565b610514816104f9565b82525050565b600060208201905061052f600083018461050b565b92915050565b600082825260208201905092915050565b7f4e6f74204f776e6572206f722073656c6c657200000000000000000000000000600082015250565b600061057c601383610535565b915061058782610546565b602082019050919050565b600060208201905081810360008301526105ab8161056f565b905091905056fea2646970667358221220ab767b7205e25541f48b1e88ecc2e972250c04007929fe3cf98378687d19e08464736f6c63430008080033a264697066735822122082087bb51b1dcb10f349a52c14c48a2831eaa3cb21d121f8a87e46ba21ea3e4264736f6c63430008080033",
  "linkReferences": {},
  "deployedLinkReferences": {}
}