{
  "_format": "hh-sol-artifact-1",
  "contractName": "RegistrationFacet",
  "sourceName": "contracts/Diamond.sol",
  "abi": [
    {
      "anonymous": false,
      "inputs": [
        {
          "indexed": false,
          "internalType": "address",
          "name": "orderAddress",
          "type": "address"
        },
        {
          "indexed": false,
          "internalType": "uint256",
          "name": "dbID",
          "type": "uint256"
        }
      ],
      "name": "sellerRegistered",
      "type": "event"
    },
    {
      "inputs": [],
      "name": "registerBuyer",
      "outputs": [],
      "stateMutability": "nonpayable",
      "type": "function"
    },
    {
      "inputs": [],
      "name": "registerDeliveryMan",
      "outputs": [],
      "stateMutability": "nonpayable",
      "type": "function"
    },
    {
      "inputs": [
        {
          "internalType": "uint256",
          "name": "dbID",
          "type": "uint256"
        }
      ],
      "name": "registerSeller",
      "outputs": [],
      "stateMutability": "nonpayable",
      "type": "function"
    }
  ],
  "bytecode": "0x608060405234801561001057600080fd5b506104ae806100206000396000f3fe608060405234801561001057600080fd5b50600436106100415760003560e01c80638861731514610046578063a365a85e14610062578063a90f42df1461006c575b600080fd5b610060600480360381019061005b9190610309565b610076565b005b61006a61014d565b005b6100746101ab565b005b6001600060030160003373ffffffffffffffffffffffffffffffffffffffff1673ffffffffffffffffffffffffffffffffffffffff16815260200190815260200160002060006101000a81548160ff021916908360ff1602179055506101116040518060400160405280601481526020017f53656c6c65722072656769737465726564203a2000000000000000000000000081525033610209565b7f1adb88df900e621c34a07c50607b760ad09587943d1826b80917add9186b449a3382604051610142929190610386565b60405180910390a150565b6002600060040160003373ffffffffffffffffffffffffffffffffffffffff1673ffffffffffffffffffffffffffffffffffffffff16815260200190815260200160002060006101000a81548160ff021916908360ff160217905550565b6003600060050160003373ffffffffffffffffffffffffffffffffffffffff1673ffffffffffffffffffffffffffffffffffffffff16815260200190815260200160002060006101000a81548160ff021916908360ff160217905550565b6102a1828260405160240161021f929190610448565b6040516020818303038152906040527f319af333000000000000000000000000000000000000000000000000000000007bffffffffffffffffffffffffffffffffffffffffffffffffffffffff19166020820180517bffffffffffffffffffffffffffffffffffffffffffffffffffffffff83818316178352505050506102a5565b5050565b60008151905060006a636f6e736f6c652e6c6f679050602083016000808483855afa5050505050565b600080fd5b6000819050919050565b6102e6816102d3565b81146102f157600080fd5b50565b600081359050610303816102dd565b92915050565b60006020828403121561031f5761031e6102ce565b5b600061032d848285016102f4565b91505092915050565b600073ffffffffffffffffffffffffffffffffffffffff82169050919050565b600061036182610336565b9050919050565b61037181610356565b82525050565b610380816102d3565b82525050565b600060408201905061039b6000830185610368565b6103a86020830184610377565b9392505050565b600081519050919050565b600082825260208201905092915050565b60005b838110156103e95780820151818401526020810190506103ce565b838111156103f8576000848401525b50505050565b6000601f19601f8301169050919050565b600061041a826103af565b61042481856103ba565b93506104348185602086016103cb565b61043d816103fe565b840191505092915050565b60006040820190508181036000830152610462818561040f565b90506104716020830184610368565b939250505056fea26469706673582212208cb57e2c96b886aa2254a00a8188eb9f03ee8d9def3792c249ed06608fd9f45364736f6c63430008080033",
  "linkReferences": {},
  "deployedLinkReferences": {}
}