{
  "_format": "hh-sol-artifact-1",
  "contractName": "RegistrationFacet",
  "sourceName": "contracts/Diamond.sol",
  "abi": [
    {
      "inputs": [],
      "name": "registerBuyer",
      "outputs": [],
      "stateMutability": "nonpayable",
      "type": "function"
    },
    {
      "inputs": [],
      "name": "registerDeliveryMan",
      "outputs": [],
      "stateMutability": "nonpayable",
      "type": "function"
    },
    {
      "inputs": [],
      "name": "registerSeller",
      "outputs": [],
      "stateMutability": "nonpayable",
      "type": "function"
    }
  ],
  "bytecode": "0x608060405234801561001057600080fd5b506101b4806100206000396000f3fe608060405234801561001057600080fd5b50600436106100415760003560e01c806352c9224c14610046578063a365a85e14610050578063a90f42df1461005a575b600080fd5b61004e610064565b005b6100586100c2565b005b610062610120565b005b6001600060030160003373ffffffffffffffffffffffffffffffffffffffff1673ffffffffffffffffffffffffffffffffffffffff16815260200190815260200160002060006101000a81548160ff021916908360ff160217905550565b6002600060040160003373ffffffffffffffffffffffffffffffffffffffff1673ffffffffffffffffffffffffffffffffffffffff16815260200190815260200160002060006101000a81548160ff021916908360ff160217905550565b6003600060050160003373ffffffffffffffffffffffffffffffffffffffff1673ffffffffffffffffffffffffffffffffffffffff16815260200190815260200160002060006101000a81548160ff021916908360ff16021790555056fea2646970667358221220ec7f36f263427f4297cfa5b5de853c18faa897d9be6f3f7f8b8ea418921b7fe564736f6c63430008080033",
  "linkReferences": {},
  "deployedLinkReferences": {}
}