{
  "_format": "hh-sol-artifact-1",
  "contractName": "RegistrationFacet",
  "sourceName": "contracts/Diamond.sol",
  "abi": [
    {
      "anonymous": false,
      "inputs": [
        {
          "indexed": false,
          "internalType": "address",
          "name": "registrationAddress",
          "type": "address"
        },
        {
          "indexed": false,
          "internalType": "uint256",
          "name": "dbID",
          "type": "uint256"
        }
      ],
      "name": "registered",
      "type": "event"
    },
    {
      "inputs": [
        {
          "internalType": "uint256",
          "name": "dbID",
          "type": "uint256"
        }
      ],
      "name": "registerBuyer",
      "outputs": [],
      "stateMutability": "nonpayable",
      "type": "function"
    },
    {
      "inputs": [
        {
          "internalType": "uint256",
          "name": "dbID",
          "type": "uint256"
        }
      ],
      "name": "registerDeliveryMan",
      "outputs": [],
      "stateMutability": "nonpayable",
      "type": "function"
    },
    {
      "inputs": [
        {
          "internalType": "uint256",
          "name": "dbID",
          "type": "uint256"
        }
      ],
      "name": "registerSeller",
      "outputs": [],
      "stateMutability": "nonpayable",
      "type": "function"
    }
  ],
  "bytecode": "0x608060405234801561001057600080fd5b506105c4806100206000396000f3fe608060405234801561001057600080fd5b50600436106100415760003560e01c80638861731514610046578063a0f7c55a14610062578063c621955e1461007e575b600080fd5b610060600480360381019061005b919061041f565b61009a565b005b61007c6004803603810190610077919061041f565b610171565b005b6100986004803603810190610093919061041f565b610248565b005b6001600060030160003373ffffffffffffffffffffffffffffffffffffffff1673ffffffffffffffffffffffffffffffffffffffff16815260200190815260200160002060006101000a81548160ff021916908360ff1602179055506101356040518060400160405280601481526020017f53656c6c65722072656769737465726564203a200000000000000000000000008152503361031f565b7f75dffe0fb61ff2c8945116ae986d8a0a87751d4addbdf798e256d7415aa4162d338260405161016692919061049c565b60405180910390a150565b6002600060040160003373ffffffffffffffffffffffffffffffffffffffff1673ffffffffffffffffffffffffffffffffffffffff16815260200190815260200160002060006101000a81548160ff021916908360ff16021790555061020c6040518060400160405280601381526020017f42757965722052656769737465726564203a20000000000000000000000000008152503361031f565b7f75dffe0fb61ff2c8945116ae986d8a0a87751d4addbdf798e256d7415aa4162d338260405161023d92919061049c565b60405180910390a150565b6003600060050160003373ffffffffffffffffffffffffffffffffffffffff1673ffffffffffffffffffffffffffffffffffffffff16815260200190815260200160002060006101000a81548160ff021916908360ff1602179055506102e36040518060400160405280601981526020017f44656c69766572796d616e2052656769737465726564203a20000000000000008152503361031f565b7f75dffe0fb61ff2c8945116ae986d8a0a87751d4addbdf798e256d7415aa4162d338260405161031492919061049c565b60405180910390a150565b6103b7828260405160240161033592919061055e565b6040516020818303038152906040527f319af333000000000000000000000000000000000000000000000000000000007bffffffffffffffffffffffffffffffffffffffffffffffffffffffff19166020820180517bffffffffffffffffffffffffffffffffffffffffffffffffffffffff83818316178352505050506103bb565b5050565b60008151905060006a636f6e736f6c652e6c6f679050602083016000808483855afa5050505050565b600080fd5b6000819050919050565b6103fc816103e9565b811461040757600080fd5b50565b600081359050610419816103f3565b92915050565b600060208284031215610435576104346103e4565b5b60006104438482850161040a565b91505092915050565b600073ffffffffffffffffffffffffffffffffffffffff82169050919050565b60006104778261044c565b9050919050565b6104878161046c565b82525050565b610496816103e9565b82525050565b60006040820190506104b1600083018561047e565b6104be602083018461048d565b9392505050565b600081519050919050565b600082825260208201905092915050565b60005b838110156104ff5780820151818401526020810190506104e4565b8381111561050e576000848401525b50505050565b6000601f19601f8301169050919050565b6000610530826104c5565b61053a81856104d0565b935061054a8185602086016104e1565b61055381610514565b840191505092915050565b600060408201905081810360008301526105788185610525565b9050610587602083018461047e565b939250505056fea2646970667358221220ad3484a112a390d18ecb5942b72c224bbaf415e424fb6250272c73da8a57c1f164736f6c63430008080033",
  "linkReferences": {},
  "deployedLinkReferences": {}
}