{
  "_format": "hh-sol-artifact-1",
  "contractName": "RegistrationFacet",
  "sourceName": "contracts/Diamond.sol",
  "abi": [
    {
      "inputs": [],
      "name": "registerBuyer",
      "outputs": [],
      "stateMutability": "nonpayable",
      "type": "function"
    },
    {
      "inputs": [],
      "name": "registerDeliveryMan",
      "outputs": [],
      "stateMutability": "nonpayable",
      "type": "function"
    },
    {
      "inputs": [],
      "name": "registerSeller",
      "outputs": [],
      "stateMutability": "nonpayable",
      "type": "function"
    }
  ],
  "bytecode": "0x608060405234801561001057600080fd5b506101b4806100206000396000f3fe608060405234801561001057600080fd5b50600436106100415760003560e01c806352c9224c14610046578063a365a85e14610050578063a90f42df1461005a575b600080fd5b61004e610064565b005b6100586100c2565b005b610062610120565b005b6001600060030160003373ffffffffffffffffffffffffffffffffffffffff1673ffffffffffffffffffffffffffffffffffffffff16815260200190815260200160002060006101000a81548160ff021916908360ff160217905550565b6002600060040160003373ffffffffffffffffffffffffffffffffffffffff1673ffffffffffffffffffffffffffffffffffffffff16815260200190815260200160002060006101000a81548160ff021916908360ff160217905550565b6003600060050160003373ffffffffffffffffffffffffffffffffffffffff1673ffffffffffffffffffffffffffffffffffffffff16815260200190815260200160002060006101000a81548160ff021916908360ff16021790555056fea26469706673582212205f364f7329be62f7e7465e5b103bcc5154440da1488bd5b1b8ea55e139f8072964736f6c63430008080033",
  "linkReferences": {},
  "deployedLinkReferences": {}
}