{
  "_format": "hh-sol-artifact-1",
  "contractName": "RegistrationFacet",
  "sourceName": "contracts/Diamond.sol",
  "abi": [
    {
      "anonymous": false,
      "inputs": [
        {
          "indexed": false,
          "internalType": "address",
          "name": "orderAddress",
          "type": "address"
        }
      ],
      "name": "sellerRegistered",
      "type": "event"
    },
    {
      "inputs": [],
      "name": "registerBuyer",
      "outputs": [],
      "stateMutability": "nonpayable",
      "type": "function"
    },
    {
      "inputs": [],
      "name": "registerDeliveryMan",
      "outputs": [],
      "stateMutability": "nonpayable",
      "type": "function"
    },
    {
      "inputs": [],
      "name": "registerSeller",
      "outputs": [],
      "stateMutability": "nonpayable",
      "type": "function"
    }
  ],
  "bytecode": "0x608060405234801561001057600080fd5b50610414806100206000396000f3fe608060405234801561001057600080fd5b50600436106100415760003560e01c806352c9224c14610046578063a365a85e14610050578063a90f42df1461005a575b600080fd5b61004e610064565b005b610058610138565b005b610062610196565b005b6001600060030160003373ffffffffffffffffffffffffffffffffffffffff1673ffffffffffffffffffffffffffffffffffffffff16815260200190815260200160002060006101000a81548160ff021916908360ff1602179055506100ff6040518060400160405280601481526020017f53656c6c65722072656769737465726564203a20000000000000000000000000815250336101f4565b7fca5ecab69076da1444b25ded032af135fd66c125c7686a99242e1e121b1406903360405161012e91906102fa565b60405180910390a1565b6002600060040160003373ffffffffffffffffffffffffffffffffffffffff1673ffffffffffffffffffffffffffffffffffffffff16815260200190815260200160002060006101000a81548160ff021916908360ff160217905550565b6003600060050160003373ffffffffffffffffffffffffffffffffffffffff1673ffffffffffffffffffffffffffffffffffffffff16815260200190815260200160002060006101000a81548160ff021916908360ff160217905550565b61028c828260405160240161020a9291906103ae565b6040516020818303038152906040527f319af333000000000000000000000000000000000000000000000000000000007bffffffffffffffffffffffffffffffffffffffffffffffffffffffff19166020820180517bffffffffffffffffffffffffffffffffffffffffffffffffffffffff8381831617835250505050610290565b5050565b60008151905060006a636f6e736f6c652e6c6f679050602083016000808483855afa5050505050565b600073ffffffffffffffffffffffffffffffffffffffff82169050919050565b60006102e4826102b9565b9050919050565b6102f4816102d9565b82525050565b600060208201905061030f60008301846102eb565b92915050565b600081519050919050565b600082825260208201905092915050565b60005b8381101561034f578082015181840152602081019050610334565b8381111561035e576000848401525b50505050565b6000601f19601f8301169050919050565b600061038082610315565b61038a8185610320565b935061039a818560208601610331565b6103a381610364565b840191505092915050565b600060408201905081810360008301526103c88185610375565b90506103d760208301846102eb565b939250505056fea2646970667358221220a7e17c11fd550356da9d69d0e0ef6d81c4465f2ece824e980b3a863723a9ee0864736f6c63430008080033",
  "linkReferences": {},
  "deployedLinkReferences": {}
}