{
  "_format": "hh-sol-artifact-1",
  "contractName": "Order",
  "sourceName": "contracts/Order.sol",
  "abi": [
    {
      "inputs": [
        {
          "internalType": "address",
          "name": "_buyer",
          "type": "address"
        },
        {
          "internalType": "address[]",
          "name": "_orderItems",
          "type": "address[]"
        },
        {
          "internalType": "uint256[]",
          "name": "_units",
          "type": "uint256[]"
        },
        {
          "internalType": "address",
          "name": "_owner",
          "type": "address"
        },
        {
          "internalType": "uint256",
          "name": "_buyerTotalPaid",
          "type": "uint256"
        },
        {
          "internalType": "uint256[]",
          "name": "_orderUnitPrice",
          "type": "uint256[]"
        },
        {
          "internalType": "uint256[]",
          "name": "_orderUnitFinalPrice",
          "type": "uint256[]"
        }
      ],
      "stateMutability": "nonpayable",
      "type": "constructor"
    },
    {
      "inputs": [],
      "name": "buyer",
      "outputs": [
        {
          "internalType": "address",
          "name": "",
          "type": "address"
        }
      ],
      "stateMutability": "view",
      "type": "function"
    },
    {
      "inputs": [],
      "name": "buyerTotalPaid",
      "outputs": [
        {
          "internalType": "uint256",
          "name": "",
          "type": "uint256"
        }
      ],
      "stateMutability": "view",
      "type": "function"
    },
    {
      "inputs": [
        {
          "internalType": "uint256",
          "name": "",
          "type": "uint256"
        }
      ],
      "name": "deliveredItems",
      "outputs": [
        {
          "internalType": "address",
          "name": "",
          "type": "address"
        }
      ],
      "stateMutability": "view",
      "type": "function"
    },
    {
      "inputs": [
        {
          "internalType": "uint256",
          "name": "",
          "type": "uint256"
        }
      ],
      "name": "deliveredUnits",
      "outputs": [
        {
          "internalType": "uint256",
          "name": "",
          "type": "uint256"
        }
      ],
      "stateMutability": "view",
      "type": "function"
    },
    {
      "inputs": [],
      "name": "deliveryMan",
      "outputs": [
        {
          "internalType": "address",
          "name": "",
          "type": "address"
        }
      ],
      "stateMutability": "view",
      "type": "function"
    },
    {
      "inputs": [],
      "name": "getBuyer",
      "outputs": [
        {
          "internalType": "address",
          "name": "",
          "type": "address"
        }
      ],
      "stateMutability": "view",
      "type": "function"
    },
    {
      "inputs": [],
      "name": "getBuyerTotalPaid",
      "outputs": [
        {
          "internalType": "uint256",
          "name": "",
          "type": "uint256"
        }
      ],
      "stateMutability": "view",
      "type": "function"
    },
    {
      "inputs": [],
      "name": "getDeliveredItems",
      "outputs": [
        {
          "internalType": "address[]",
          "name": "",
          "type": "address[]"
        }
      ],
      "stateMutability": "view",
      "type": "function"
    },
    {
      "inputs": [],
      "name": "getDeliveredUnits",
      "outputs": [
        {
          "internalType": "uint256[]",
          "name": "",
          "type": "uint256[]"
        }
      ],
      "stateMutability": "view",
      "type": "function"
    },
    {
      "inputs": [],
      "name": "getDeliveryMan",
      "outputs": [
        {
          "internalType": "address",
          "name": "",
          "type": "address"
        }
      ],
      "stateMutability": "view",
      "type": "function"
    },
    {
      "inputs": [],
      "name": "getIsDelivered",
      "outputs": [
        {
          "internalType": "bool",
          "name": "",
          "type": "bool"
        }
      ],
      "stateMutability": "view",
      "type": "function"
    },
    {
      "inputs": [],
      "name": "getOrderItems",
      "outputs": [
        {
          "internalType": "address[]",
          "name": "",
          "type": "address[]"
        }
      ],
      "stateMutability": "view",
      "type": "function"
    },
    {
      "inputs": [],
      "name": "getOrderUnitFinalPrice",
      "outputs": [
        {
          "internalType": "uint256[]",
          "name": "",
          "type": "uint256[]"
        }
      ],
      "stateMutability": "view",
      "type": "function"
    },
    {
      "inputs": [],
      "name": "getOrderUnitPrice",
      "outputs": [
        {
          "internalType": "uint256[]",
          "name": "",
          "type": "uint256[]"
        }
      ],
      "stateMutability": "view",
      "type": "function"
    },
    {
      "inputs": [],
      "name": "getOrderUnits",
      "outputs": [
        {
          "internalType": "uint256[]",
          "name": "",
          "type": "uint256[]"
        }
      ],
      "stateMutability": "view",
      "type": "function"
    },
    {
      "inputs": [
        {
          "internalType": "address",
          "name": "productaddress",
          "type": "address"
        }
      ],
      "name": "getProductWiseUnitPrice",
      "outputs": [
        {
          "internalType": "uint256",
          "name": "",
          "type": "uint256"
        }
      ],
      "stateMutability": "view",
      "type": "function"
    },
    {
      "inputs": [],
      "name": "isDelivered",
      "outputs": [
        {
          "internalType": "bool",
          "name": "",
          "type": "bool"
        }
      ],
      "stateMutability": "view",
      "type": "function"
    },
    {
      "inputs": [],
      "name": "isPaid",
      "outputs": [
        {
          "internalType": "bool",
          "name": "",
          "type": "bool"
        }
      ],
      "stateMutability": "view",
      "type": "function"
    },
    {
      "inputs": [],
      "name": "isRefunded",
      "outputs": [
        {
          "internalType": "bool",
          "name": "",
          "type": "bool"
        }
      ],
      "stateMutability": "view",
      "type": "function"
    },
    {
      "inputs": [
        {
          "internalType": "uint256",
          "name": "",
          "type": "uint256"
        }
      ],
      "name": "orderItems",
      "outputs": [
        {
          "internalType": "address",
          "name": "",
          "type": "address"
        }
      ],
      "stateMutability": "view",
      "type": "function"
    },
    {
      "inputs": [],
      "name": "orderTime",
      "outputs": [
        {
          "internalType": "uint256",
          "name": "",
          "type": "uint256"
        }
      ],
      "stateMutability": "view",
      "type": "function"
    },
    {
      "inputs": [
        {
          "internalType": "uint256",
          "name": "",
          "type": "uint256"
        }
      ],
      "name": "orderUnits",
      "outputs": [
        {
          "internalType": "uint256",
          "name": "",
          "type": "uint256"
        }
      ],
      "stateMutability": "view",
      "type": "function"
    },
    {
      "inputs": [],
      "name": "owner",
      "outputs": [
        {
          "internalType": "address",
          "name": "",
          "type": "address"
        }
      ],
      "stateMutability": "view",
      "type": "function"
    },
    {
      "inputs": [],
      "name": "refundedAmount",
      "outputs": [
        {
          "internalType": "uint256",
          "name": "",
          "type": "uint256"
        }
      ],
      "stateMutability": "view",
      "type": "function"
    },
    {
      "inputs": [
        {
          "internalType": "address[]",
          "name": "_deliveryItems",
          "type": "address[]"
        },
        {
          "internalType": "uint256[]",
          "name": "_deliveryUnits",
          "type": "uint256[]"
        }
      ],
      "name": "setDelivery",
      "outputs": [],
      "stateMutability": "nonpayable",
      "type": "function"
    },
    {
      "inputs": [
        {
          "internalType": "address",
          "name": "_deliveryManAddress",
          "type": "address"
        }
      ],
      "name": "setDeliveryMan",
      "outputs": [],
      "stateMutability": "nonpayable",
      "type": "function"
    },
    {
      "inputs": [
        {
          "internalType": "bool",
          "name": "_isDelivered",
          "type": "bool"
        }
      ],
      "name": "setIsDelivered",
      "outputs": [],
      "stateMutability": "nonpayable",
      "type": "function"
    },
    {
      "inputs": [
        {
          "internalType": "bool",
          "name": "_isRefunded",
          "type": "bool"
        }
      ],
      "name": "setIsRefunded",
      "outputs": [],
      "stateMutability": "nonpayable",
      "type": "function"
    },
    {
      "inputs": [
        {
          "internalType": "uint256",
          "name": "_refundedAmount",
          "type": "uint256"
        }
      ],
      "name": "setRefundedAmount",
      "outputs": [],
      "stateMutability": "nonpayable",
      "type": "function"
    },
    {
      "inputs": [],
      "name": "status",
      "outputs": [
        {
          "internalType": "uint256",
          "name": "",
          "type": "uint256"
        }
      ],
      "stateMutability": "view",
      "type": "function"
    }
  ],
  "bytecode": "0x60806040526000600e60006101000a81548160ff0219169083151502179055506000601060006101000a81548160ff0219169083151502179055506000601260006101000a81548160ff0219169083151502179055503480156200006257600080fd5b50604051620022fb380380620022fb833981810160405281019062000088919062000709565b8451865114620000cf576040517f08c379a0000000000000000000000000000000000000000000000000000000008152600401620000c69062000899565b60405180910390fd5b83600260006101000a81548173ffffffffffffffffffffffffffffffffffffffff021916908373ffffffffffffffffffffffffffffffffffffffff16021790555042600d81905550866000806101000a81548173ffffffffffffffffffffffffffffffffffffffff021916908373ffffffffffffffffffffffffffffffffffffffff16021790555085600390805190602001906200016f9291906200030a565b5084600490805190602001906200018892919062000399565b508160059080519060200190620001a192919062000399565b508060069080519060200190620001ba92919062000399565b5082600f819055506001600e60006101000a81548160ff02191690831515021790555060005b8651811015620002fc578581815181106200020057620001ff620008bb565b5b602002602001015160096000898481518110620002225762000221620008bb565b5b602002602001015173ffffffffffffffffffffffffffffffffffffffff1673ffffffffffffffffffffffffffffffffffffffff168152602001908152602001600020819055508281815181106200027e576200027d620008bb565b5b6020026020010151600a6000898481518110620002a0576200029f620008bb565b5b602002602001015173ffffffffffffffffffffffffffffffffffffffff1673ffffffffffffffffffffffffffffffffffffffff168152602001908152602001600020819055508080620002f39062000919565b915050620001e0565b505050505050505062000967565b82805482825590600052602060002090810192821562000386579160200282015b82811115620003855782518260006101000a81548173ffffffffffffffffffffffffffffffffffffffff021916908373ffffffffffffffffffffffffffffffffffffffff160217905550916020019190600101906200032b565b5b509050620003959190620003eb565b5090565b828054828255906000526020600020908101928215620003d8579160200282015b82811115620003d7578251825591602001919060010190620003ba565b5b509050620003e79190620003eb565b5090565b5b8082111562000406576000816000905550600101620003ec565b5090565b6000604051905090565b600080fd5b600080fd5b600073ffffffffffffffffffffffffffffffffffffffff82169050919050565b60006200044b826200041e565b9050919050565b6200045d816200043e565b81146200046957600080fd5b50565b6000815190506200047d8162000452565b92915050565b600080fd5b6000601f19601f8301169050919050565b7f4e487b7100000000000000000000000000000000000000000000000000000000600052604160045260246000fd5b620004d38262000488565b810181811067ffffffffffffffff82111715620004f557620004f462000499565b5b80604052505050565b60006200050a6200040a565b9050620005188282620004c8565b919050565b600067ffffffffffffffff8211156200053b576200053a62000499565b5b602082029050602081019050919050565b600080fd5b60006200056862000562846200051d565b620004fe565b905080838252602082019050602084028301858111156200058e576200058d6200054c565b5b835b81811015620005bb5780620005a688826200046c565b84526020840193505060208101905062000590565b5050509392505050565b600082601f830112620005dd57620005dc62000483565b5b8151620005ef84826020860162000551565b91505092915050565b600067ffffffffffffffff82111562000616576200061562000499565b5b602082029050602081019050919050565b6000819050919050565b6200063c8162000627565b81146200064857600080fd5b50565b6000815190506200065c8162000631565b92915050565b6000620006796200067384620005f8565b620004fe565b905080838252602082019050602084028301858111156200069f576200069e6200054c565b5b835b81811015620006cc5780620006b788826200064b565b845260208401935050602081019050620006a1565b5050509392505050565b600082601f830112620006ee57620006ed62000483565b5b81516200070084826020860162000662565b91505092915050565b600080600080600080600060e0888a0312156200072b576200072a62000414565b5b60006200073b8a828b016200046c565b975050602088015167ffffffffffffffff8111156200075f576200075e62000419565b5b6200076d8a828b01620005c5565b965050604088015167ffffffffffffffff81111562000791576200079062000419565b5b6200079f8a828b01620006d6565b9550506060620007b28a828b016200046c565b9450506080620007c58a828b016200064b565b93505060a088015167ffffffffffffffff811115620007e957620007e862000419565b5b620007f78a828b01620006d6565b92505060c088015167ffffffffffffffff8111156200081b576200081a62000419565b5b620008298a828b01620006d6565b91505092959891949750929550565b600082825260208201905092915050565b7f417272617973206d7573742068617665207468652073616d65206c656e677468600082015250565b60006200088160208362000838565b91506200088e8262000849565b602082019050919050565b60006020820190508181036000830152620008b48162000872565b9050919050565b7f4e487b7100000000000000000000000000000000000000000000000000000000600052603260045260246000fd5b7f4e487b7100000000000000000000000000000000000000000000000000000000600052601160045260246000fd5b6000620009268262000627565b91507fffffffffffffffffffffffffffffffffffffffffffffffffffffffffffffffff8214156200095c576200095b620008ea565b5b600182019050919050565b61198480620009776000396000f3fe608060405234801561001057600080fd5b50600436106101da5760003560e01c80638da5cb5b11610104578063bdb92074116100a2578063ccd2f89f11610071578063ccd2f89f1461052b578063ccd44ccf14610549578063d2cf4be214610565578063fb24359f14610595576101da565b8063bdb92074146104a3578063c46dacd9146104bf578063c741a8dd146104dd578063cabdba5b146104fb576101da565b8063acf4ede0116100de578063acf4ede014610409578063ad7c6ed114610425578063ae48908214610443578063bc7ae42214610473576101da565b80638da5cb5b146103b1578063a71494f1146103cf578063ab3cb34c146103ed576101da565b806343c97c841161017c5780637150d8ae1161014b5780637150d8ae14610339578063765f744c14610357578063779cd083146103755780637aada13414610393576101da565b806343c97c84146102c157806344406617146102df5780634fbd39d3146102fd578063603daf9a1461031b576101da565b8063200d2ed2116101b8578063200d2ed214610249578063209ebc08146102675780633095114c146102855780634117163e146102a3576101da565b80630a907686146101df57806311b34c5a146101fd578063141c08c214610219575b600080fd5b6101e76105b3565b6040516101f49190611178565b60405180910390f35b610217600480360381019061021291906111df565b6105bd565b005b610233600480360381019061022e9190611238565b61066a565b6040516102409190611178565b60405180910390f35b61025161068e565b60405161025e9190611178565b60405180910390f35b61026f610694565b60405161027c9190611274565b60405180910390f35b61028d6106a7565b60405161029a91906112d0565b60405180910390f35b6102ab6106cd565b6040516102b891906113a9565b60405180910390f35b6102c9610725565b6040516102d691906112d0565b60405180910390f35b6102e761074f565b6040516102f49190611489565b60405180910390f35b6103056107dd565b6040516103129190611274565b60405180910390f35b6103236107f4565b60405161033091906112d0565b60405180910390f35b61034161081d565b60405161034e91906112d0565b60405180910390f35b61035f610841565b60405161036c9190611274565b60405180910390f35b61037d610854565b60405161038a9190611274565b60405180910390f35b61039b610867565b6040516103a89190611178565b60405180910390f35b6103b961086d565b6040516103c691906112d0565b60405180910390f35b6103d7610893565b6040516103e49190611178565b60405180910390f35b610407600480360381019061040291906114d7565b610899565b005b610423600480360381019061041e9190611238565b61096d565b005b61042d610a07565b60405161043a9190611178565b60405180910390f35b61045d60048036038101906104589190611238565b610a0d565b60405161046a91906112d0565b60405180910390f35b61048d60048036038101906104889190611238565b610a4c565b60405161049a9190611178565b60405180910390f35b6104bd60048036038101906104b89190611720565b610a70565b005b6104c7610c80565b6040516104d491906113a9565b60405180910390f35b6104e5610cd8565b6040516104f291906113a9565b60405180910390f35b610515600480360381019061051091906114d7565b610dc0565b6040516105229190611178565b60405180910390f35b610533610e99565b60405161054091906113a9565b60405180910390f35b610563600480360381019061055e91906111df565b610ef1565b005b61057f600480360381019061057a9190611238565b610f9e565b60405161058c91906112d0565b60405180910390f35b61059d610fdd565b6040516105aa9190611489565b60405180910390f35b6000600f54905090565b600260009054906101000a900473ffffffffffffffffffffffffffffffffffffffff1673ffffffffffffffffffffffffffffffffffffffff163373ffffffffffffffffffffffffffffffffffffffff161461064d576040517f08c379a0000000000000000000000000000000000000000000000000000000008152600401610644906117f5565b60405180910390fd5b80601060006101000a81548160ff02191690831515021790555050565b6008818154811061067a57600080fd5b906000526020600020016000915090505481565b600c5481565b600e60009054906101000a900460ff1681565b600160009054906101000a900473ffffffffffffffffffffffffffffffffffffffff1681565b6060600880548060200260200160405190810160405280929190818152602001828054801561071b57602002820191906000526020600020905b815481526020019060010190808311610707575b5050505050905090565b6000600160009054906101000a900473ffffffffffffffffffffffffffffffffffffffff16905090565b606060078054806020026020016040519081016040528092919081815260200182805480156107d357602002820191906000526020600020905b8160009054906101000a900473ffffffffffffffffffffffffffffffffffffffff1673ffffffffffffffffffffffffffffffffffffffff1681526020019060010190808311610789575b5050505050905090565b6000601260009054906101000a900460ff16905090565b60008060009054906101000a900473ffffffffffffffffffffffffffffffffffffffff16905090565b60008054906101000a900473ffffffffffffffffffffffffffffffffffffffff1681565b601260009054906101000a900460ff1681565b601060009054906101000a900460ff1681565b600d5481565b600260009054906101000a900473ffffffffffffffffffffffffffffffffffffffff1681565b600f5481565b600260009054906101000a900473ffffffffffffffffffffffffffffffffffffffff1673ffffffffffffffffffffffffffffffffffffffff163373ffffffffffffffffffffffffffffffffffffffff1614610929576040517f08c379a0000000000000000000000000000000000000000000000000000000008152600401610920906117f5565b60405180910390fd5b80600160006101000a81548173ffffffffffffffffffffffffffffffffffffffff021916908373ffffffffffffffffffffffffffffffffffffffff16021790555050565b600260009054906101000a900473ffffffffffffffffffffffffffffffffffffffff1673ffffffffffffffffffffffffffffffffffffffff163373ffffffffffffffffffffffffffffffffffffffff16146109fd576040517f08c379a00000000000000000000000000000000000000000000000000000000081526004016109f4906117f5565b60405180910390fd5b8060118190555050565b60115481565b60038181548110610a1d57600080fd5b906000526020600020016000915054906101000a900473ffffffffffffffffffffffffffffffffffffffff1681565b60048181548110610a5c57600080fd5b906000526020600020016000915090505481565b600260009054906101000a900473ffffffffffffffffffffffffffffffffffffffff1673ffffffffffffffffffffffffffffffffffffffff163373ffffffffffffffffffffffffffffffffffffffff1614610b00576040517f08c379a0000000000000000000000000000000000000000000000000000000008152600401610af7906117f5565b60405180910390fd5b60005b8251811015610c4d57818181518110610b1f57610b1e611815565b5b602002602001015160096000858481518110610b3e57610b3d611815565b5b602002602001015173ffffffffffffffffffffffffffffffffffffffff1673ffffffffffffffffffffffffffffffffffffffff168152602001908152602001600020541115610bc2576040517f08c379a0000000000000000000000000000000000000000000000000000000008152600401610bb9906118b6565b60405180910390fd5b818181518110610bd557610bd4611815565b5b6020026020010151600b6000858481518110610bf457610bf3611815565b5b602002602001015173ffffffffffffffffffffffffffffffffffffffff1673ffffffffffffffffffffffffffffffffffffffff168152602001908152602001600020819055508080610c4590611905565b915050610b03565b508160079080519060200190610c6492919061106b565b508060089080519060200190610c7b9291906110f5565b505050565b60606004805480602002602001604051908101604052809291908181526020018280548015610cce57602002820191906000526020600020905b815481526020019060010190808311610cba575b5050505050905090565b6060600260009054906101000a900473ffffffffffffffffffffffffffffffffffffffff1673ffffffffffffffffffffffffffffffffffffffff163373ffffffffffffffffffffffffffffffffffffffff1614610d6a576040517f08c379a0000000000000000000000000000000000000000000000000000000008152600401610d61906117f5565b60405180910390fd5b6005805480602002602001604051908101604052809291908181526020018280548015610db657602002820191906000526020600020905b815481526020019060010190808311610da2575b5050505050905090565b6000600260009054906101000a900473ffffffffffffffffffffffffffffffffffffffff1673ffffffffffffffffffffffffffffffffffffffff163373ffffffffffffffffffffffffffffffffffffffff1614610e52576040517f08c379a0000000000000000000000000000000000000000000000000000000008152600401610e49906117f5565b60405180910390fd5b600a60008373ffffffffffffffffffffffffffffffffffffffff1673ffffffffffffffffffffffffffffffffffffffff168152602001908152602001600020549050919050565b60606006805480602002602001604051908101604052809291908181526020018280548015610ee757602002820191906000526020600020905b815481526020019060010190808311610ed3575b5050505050905090565b600260009054906101000a900473ffffffffffffffffffffffffffffffffffffffff1673ffffffffffffffffffffffffffffffffffffffff163373ffffffffffffffffffffffffffffffffffffffff1614610f81576040517f08c379a0000000000000000000000000000000000000000000000000000000008152600401610f78906117f5565b60405180910390fd5b80601260006101000a81548160ff02191690831515021790555050565b60078181548110610fae57600080fd5b906000526020600020016000915054906101000a900473ffffffffffffffffffffffffffffffffffffffff1681565b6060600380548060200260200160405190810160405280929190818152602001828054801561106157602002820191906000526020600020905b8160009054906101000a900473ffffffffffffffffffffffffffffffffffffffff1673ffffffffffffffffffffffffffffffffffffffff1681526020019060010190808311611017575b5050505050905090565b8280548282559060005260206000209081019282156110e4579160200282015b828111156110e35782518260006101000a81548173ffffffffffffffffffffffffffffffffffffffff021916908373ffffffffffffffffffffffffffffffffffffffff1602179055509160200191906001019061108b565b5b5090506110f19190611142565b5090565b828054828255906000526020600020908101928215611131579160200282015b82811115611130578251825591602001919060010190611115565b5b50905061113e9190611142565b5090565b5b8082111561115b576000816000905550600101611143565b5090565b6000819050919050565b6111728161115f565b82525050565b600060208201905061118d6000830184611169565b92915050565b6000604051905090565b600080fd5b600080fd5b60008115159050919050565b6111bc816111a7565b81146111c757600080fd5b50565b6000813590506111d9816111b3565b92915050565b6000602082840312156111f5576111f461119d565b5b6000611203848285016111ca565b91505092915050565b6112158161115f565b811461122057600080fd5b50565b6000813590506112328161120c565b92915050565b60006020828403121561124e5761124d61119d565b5b600061125c84828501611223565b91505092915050565b61126e816111a7565b82525050565b60006020820190506112896000830184611265565b92915050565b600073ffffffffffffffffffffffffffffffffffffffff82169050919050565b60006112ba8261128f565b9050919050565b6112ca816112af565b82525050565b60006020820190506112e560008301846112c1565b92915050565b600081519050919050565b600082825260208201905092915050565b6000819050602082019050919050565b6113208161115f565b82525050565b60006113328383611317565b60208301905092915050565b6000602082019050919050565b6000611356826112eb565b61136081856112f6565b935061136b83611307565b8060005b8381101561139c5781516113838882611326565b975061138e8361133e565b92505060018101905061136f565b5085935050505092915050565b600060208201905081810360008301526113c3818461134b565b905092915050565b600081519050919050565b600082825260208201905092915050565b6000819050602082019050919050565b611400816112af565b82525050565b600061141283836113f7565b60208301905092915050565b6000602082019050919050565b6000611436826113cb565b61144081856113d6565b935061144b836113e7565b8060005b8381101561147c5781516114638882611406565b975061146e8361141e565b92505060018101905061144f565b5085935050505092915050565b600060208201905081810360008301526114a3818461142b565b905092915050565b6114b4816112af565b81146114bf57600080fd5b50565b6000813590506114d1816114ab565b92915050565b6000602082840312156114ed576114ec61119d565b5b60006114fb848285016114c2565b91505092915050565b600080fd5b6000601f19601f8301169050919050565b7f4e487b7100000000000000000000000000000000000000000000000000000000600052604160045260246000fd5b61155282611509565b810181811067ffffffffffffffff821117156115715761157061151a565b5b80604052505050565b6000611584611193565b90506115908282611549565b919050565b600067ffffffffffffffff8211156115b0576115af61151a565b5b602082029050602081019050919050565b600080fd5b60006115d96115d484611595565b61157a565b905080838252602082019050602084028301858111156115fc576115fb6115c1565b5b835b81811015611625578061161188826114c2565b8452602084019350506020810190506115fe565b5050509392505050565b600082601f83011261164457611643611504565b5b81356116548482602086016115c6565b91505092915050565b600067ffffffffffffffff8211156116785761167761151a565b5b602082029050602081019050919050565b600061169c6116978461165d565b61157a565b905080838252602082019050602084028301858111156116bf576116be6115c1565b5b835b818110156116e857806116d48882611223565b8452602084019350506020810190506116c1565b5050509392505050565b600082601f83011261170757611706611504565b5b8135611717848260208601611689565b91505092915050565b600080604083850312156117375761173661119d565b5b600083013567ffffffffffffffff811115611755576117546111a2565b5b6117618582860161162f565b925050602083013567ffffffffffffffff811115611782576117816111a2565b5b61178e858286016116f2565b9150509250929050565b600082825260208201905092915050565b7f4f776e6572206f6e6c7900000000000000000000000000000000000000000000600082015250565b60006117df600a83611798565b91506117ea826117a9565b602082019050919050565b6000602082019050818103600083015261180e816117d2565b9050919050565b7f4e487b7100000000000000000000000000000000000000000000000000000000600052603260045260246000fd5b7f64656c697665727920646f65736e2774206d617463682077697468206f72646560008201527f7200000000000000000000000000000000000000000000000000000000000000602082015250565b60006118a0602183611798565b91506118ab82611844565b604082019050919050565b600060208201905081810360008301526118cf81611893565b9050919050565b7f4e487b7100000000000000000000000000000000000000000000000000000000600052601160045260246000fd5b60006119108261115f565b91507fffffffffffffffffffffffffffffffffffffffffffffffffffffffffffffffff821415611943576119426118d6565b5b60018201905091905056fea2646970667358221220a15eb14ddf55c29892cdde5c02e5519b09261b73911643b5f9d335a40bac419664736f6c63430008080033",
  "linkReferences": {},
  "deployedLinkReferences": {}
}