{
  "_format": "hh-sol-artifact-1",
  "contractName": "Order",
  "sourceName": "contracts/Order.sol",
  "abi": [
    {
      "inputs": [
        {
          "internalType": "address",
          "name": "_buyer",
          "type": "address"
        },
        {
          "internalType": "address[]",
          "name": "_orderItems",
          "type": "address[]"
        },
        {
          "internalType": "uint256[]",
          "name": "_units",
          "type": "uint256[]"
        },
        {
          "internalType": "address",
          "name": "_owner",
          "type": "address"
        },
        {
          "internalType": "uint256",
          "name": "_buyerTotalPaid",
          "type": "uint256"
        },
        {
          "internalType": "uint256[]",
          "name": "_orderUnitPrice",
          "type": "uint256[]"
        },
        {
          "internalType": "uint256[]",
          "name": "_orderUnitFinalPrice",
          "type": "uint256[]"
        }
      ],
      "stateMutability": "nonpayable",
      "type": "constructor"
    },
    {
      "inputs": [],
      "name": "addBuyer",
      "outputs": [],
      "stateMutability": "nonpayable",
      "type": "function"
    },
    {
      "inputs": [],
      "name": "buyer",
      "outputs": [
        {
          "internalType": "address",
          "name": "",
          "type": "address"
        }
      ],
      "stateMutability": "view",
      "type": "function"
    },
    {
      "inputs": [],
      "name": "buyerTotalPaid",
      "outputs": [
        {
          "internalType": "uint256",
          "name": "",
          "type": "uint256"
        }
      ],
      "stateMutability": "view",
      "type": "function"
    },
    {
      "inputs": [
        {
          "internalType": "uint256",
          "name": "",
          "type": "uint256"
        }
      ],
      "name": "deliveredItems",
      "outputs": [
        {
          "internalType": "address",
          "name": "",
          "type": "address"
        }
      ],
      "stateMutability": "view",
      "type": "function"
    },
    {
      "inputs": [
        {
          "internalType": "uint256",
          "name": "",
          "type": "uint256"
        }
      ],
      "name": "deliveredUnits",
      "outputs": [
        {
          "internalType": "uint256",
          "name": "",
          "type": "uint256"
        }
      ],
      "stateMutability": "view",
      "type": "function"
    },
    {
      "inputs": [],
      "name": "deliveryMan",
      "outputs": [
        {
          "internalType": "address",
          "name": "",
          "type": "address"
        }
      ],
      "stateMutability": "view",
      "type": "function"
    },
    {
      "inputs": [],
      "name": "getBuyer",
      "outputs": [
        {
          "internalType": "address",
          "name": "",
          "type": "address"
        }
      ],
      "stateMutability": "view",
      "type": "function"
    },
    {
      "inputs": [],
      "name": "getBuyerTotalPaid",
      "outputs": [
        {
          "internalType": "uint256",
          "name": "",
          "type": "uint256"
        }
      ],
      "stateMutability": "view",
      "type": "function"
    },
    {
      "inputs": [],
      "name": "getDeliveredItems",
      "outputs": [
        {
          "internalType": "address[]",
          "name": "",
          "type": "address[]"
        }
      ],
      "stateMutability": "view",
      "type": "function"
    },
    {
      "inputs": [],
      "name": "getDeliveredUnits",
      "outputs": [
        {
          "internalType": "uint256[]",
          "name": "",
          "type": "uint256[]"
        }
      ],
      "stateMutability": "view",
      "type": "function"
    },
    {
      "inputs": [],
      "name": "getDeliveryMan",
      "outputs": [
        {
          "internalType": "address",
          "name": "",
          "type": "address"
        }
      ],
      "stateMutability": "view",
      "type": "function"
    },
    {
      "inputs": [],
      "name": "getIsDelivered",
      "outputs": [
        {
          "internalType": "bool",
          "name": "",
          "type": "bool"
        }
      ],
      "stateMutability": "view",
      "type": "function"
    },
    {
      "inputs": [],
      "name": "getOrderItems",
      "outputs": [
        {
          "internalType": "address[]",
          "name": "",
          "type": "address[]"
        }
      ],
      "stateMutability": "view",
      "type": "function"
    },
    {
      "inputs": [],
      "name": "getOrderUnitFinalPrice",
      "outputs": [
        {
          "internalType": "uint256[]",
          "name": "",
          "type": "uint256[]"
        }
      ],
      "stateMutability": "view",
      "type": "function"
    },
    {
      "inputs": [],
      "name": "getOrderUnitPrice",
      "outputs": [
        {
          "internalType": "uint256[]",
          "name": "",
          "type": "uint256[]"
        }
      ],
      "stateMutability": "view",
      "type": "function"
    },
    {
      "inputs": [],
      "name": "getOrderUnits",
      "outputs": [
        {
          "internalType": "uint256[]",
          "name": "",
          "type": "uint256[]"
        }
      ],
      "stateMutability": "view",
      "type": "function"
    },
    {
      "inputs": [
        {
          "internalType": "address",
          "name": "productaddress",
          "type": "address"
        }
      ],
      "name": "getProductWiseUnitPrice",
      "outputs": [
        {
          "internalType": "uint256",
          "name": "",
          "type": "uint256"
        }
      ],
      "stateMutability": "view",
      "type": "function"
    },
    {
      "inputs": [],
      "name": "isDelivered",
      "outputs": [
        {
          "internalType": "bool",
          "name": "",
          "type": "bool"
        }
      ],
      "stateMutability": "view",
      "type": "function"
    },
    {
      "inputs": [],
      "name": "isPaid",
      "outputs": [
        {
          "internalType": "bool",
          "name": "",
          "type": "bool"
        }
      ],
      "stateMutability": "view",
      "type": "function"
    },
    {
      "inputs": [],
      "name": "isRefunded",
      "outputs": [
        {
          "internalType": "bool",
          "name": "",
          "type": "bool"
        }
      ],
      "stateMutability": "view",
      "type": "function"
    },
    {
      "inputs": [
        {
          "internalType": "uint256",
          "name": "",
          "type": "uint256"
        }
      ],
      "name": "orderItems",
      "outputs": [
        {
          "internalType": "address",
          "name": "",
          "type": "address"
        }
      ],
      "stateMutability": "view",
      "type": "function"
    },
    {
      "inputs": [],
      "name": "orderTime",
      "outputs": [
        {
          "internalType": "uint256",
          "name": "",
          "type": "uint256"
        }
      ],
      "stateMutability": "view",
      "type": "function"
    },
    {
      "inputs": [
        {
          "internalType": "uint256",
          "name": "",
          "type": "uint256"
        }
      ],
      "name": "orderUnits",
      "outputs": [
        {
          "internalType": "uint256",
          "name": "",
          "type": "uint256"
        }
      ],
      "stateMutability": "view",
      "type": "function"
    },
    {
      "inputs": [],
      "name": "owner",
      "outputs": [
        {
          "internalType": "address",
          "name": "",
          "type": "address"
        }
      ],
      "stateMutability": "view",
      "type": "function"
    },
    {
      "inputs": [
        {
          "internalType": "address",
          "name": "_productAddress",
          "type": "address"
        },
        {
          "internalType": "string",
          "name": "review",
          "type": "string"
        },
        {
          "internalType": "uint8",
          "name": "rating",
          "type": "uint8"
        }
      ],
      "name": "provideReviewRating",
      "outputs": [],
      "stateMutability": "nonpayable",
      "type": "function"
    },
    {
      "inputs": [],
      "name": "refundedAmount",
      "outputs": [
        {
          "internalType": "uint256",
          "name": "",
          "type": "uint256"
        }
      ],
      "stateMutability": "view",
      "type": "function"
    },
    {
      "inputs": [
        {
          "internalType": "address[]",
          "name": "_deliveryItems",
          "type": "address[]"
        },
        {
          "internalType": "uint256[]",
          "name": "_deliveryUnits",
          "type": "uint256[]"
        }
      ],
      "name": "setDelivery",
      "outputs": [],
      "stateMutability": "nonpayable",
      "type": "function"
    },
    {
      "inputs": [
        {
          "internalType": "address",
          "name": "_deliveryManAddress",
          "type": "address"
        }
      ],
      "name": "setDeliveryMan",
      "outputs": [],
      "stateMutability": "nonpayable",
      "type": "function"
    },
    {
      "inputs": [
        {
          "internalType": "bool",
          "name": "_isDelivered",
          "type": "bool"
        }
      ],
      "name": "setIsDelivered",
      "outputs": [],
      "stateMutability": "nonpayable",
      "type": "function"
    },
    {
      "inputs": [
        {
          "internalType": "bool",
          "name": "_isRefunded",
          "type": "bool"
        }
      ],
      "name": "setIsRefunded",
      "outputs": [],
      "stateMutability": "nonpayable",
      "type": "function"
    },
    {
      "inputs": [
        {
          "internalType": "uint256",
          "name": "_refundedAmount",
          "type": "uint256"
        }
      ],
      "name": "setRefundedAmount",
      "outputs": [],
      "stateMutability": "nonpayable",
      "type": "function"
    },
    {
      "inputs": [],
      "name": "status",
      "outputs": [
        {
          "internalType": "uint32",
          "name": "",
          "type": "uint32"
        }
      ],
      "stateMutability": "view",
      "type": "function"
    }
  ],
  "bytecode": "0x60806040526000600e60006101000a81548160ff0219169083151502179055506000601060006101000a81548160ff0219169083151502179055506000601260006101000a81548160ff0219169083151502179055503480156200006257600080fd5b5060405162002f7038038062002f70833981810160405281019062000088919062000709565b8451865114620000cf576040517f08c379a0000000000000000000000000000000000000000000000000000000008152600401620000c69062000899565b60405180910390fd5b83600260006101000a81548173ffffffffffffffffffffffffffffffffffffffff021916908373ffffffffffffffffffffffffffffffffffffffff16021790555042600d81905550866000806101000a81548173ffffffffffffffffffffffffffffffffffffffff021916908373ffffffffffffffffffffffffffffffffffffffff16021790555085600390805190602001906200016f9291906200030a565b5084600490805190602001906200018892919062000399565b508160059080519060200190620001a192919062000399565b508060069080519060200190620001ba92919062000399565b5082600f819055506001600e60006101000a81548160ff02191690831515021790555060005b8651811015620002fc578581815181106200020057620001ff620008bb565b5b602002602001015160096000898481518110620002225762000221620008bb565b5b602002602001015173ffffffffffffffffffffffffffffffffffffffff1673ffffffffffffffffffffffffffffffffffffffff168152602001908152602001600020819055508281815181106200027e576200027d620008bb565b5b6020026020010151600a6000898481518110620002a0576200029f620008bb565b5b602002602001015173ffffffffffffffffffffffffffffffffffffffff1673ffffffffffffffffffffffffffffffffffffffff168152602001908152602001600020819055508080620002f39062000919565b915050620001e0565b505050505050505062000967565b82805482825590600052602060002090810192821562000386579160200282015b82811115620003855782518260006101000a81548173ffffffffffffffffffffffffffffffffffffffff021916908373ffffffffffffffffffffffffffffffffffffffff160217905550916020019190600101906200032b565b5b509050620003959190620003eb565b5090565b828054828255906000526020600020908101928215620003d8579160200282015b82811115620003d7578251825591602001919060010190620003ba565b5b509050620003e79190620003eb565b5090565b5b8082111562000406576000816000905550600101620003ec565b5090565b6000604051905090565b600080fd5b600080fd5b600073ffffffffffffffffffffffffffffffffffffffff82169050919050565b60006200044b826200041e565b9050919050565b6200045d816200043e565b81146200046957600080fd5b50565b6000815190506200047d8162000452565b92915050565b600080fd5b6000601f19601f8301169050919050565b7f4e487b7100000000000000000000000000000000000000000000000000000000600052604160045260246000fd5b620004d38262000488565b810181811067ffffffffffffffff82111715620004f557620004f462000499565b5b80604052505050565b60006200050a6200040a565b9050620005188282620004c8565b919050565b600067ffffffffffffffff8211156200053b576200053a62000499565b5b602082029050602081019050919050565b600080fd5b60006200056862000562846200051d565b620004fe565b905080838252602082019050602084028301858111156200058e576200058d6200054c565b5b835b81811015620005bb5780620005a688826200046c565b84526020840193505060208101905062000590565b5050509392505050565b600082601f830112620005dd57620005dc62000483565b5b8151620005ef84826020860162000551565b91505092915050565b600067ffffffffffffffff82111562000616576200061562000499565b5b602082029050602081019050919050565b6000819050919050565b6200063c8162000627565b81146200064857600080fd5b50565b6000815190506200065c8162000631565b92915050565b6000620006796200067384620005f8565b620004fe565b905080838252602082019050602084028301858111156200069f576200069e6200054c565b5b835b81811015620006cc5780620006b788826200064b565b845260208401935050602081019050620006a1565b5050509392505050565b600082601f830112620006ee57620006ed62000483565b5b81516200070084826020860162000662565b91505092915050565b600080600080600080600060e0888a0312156200072b576200072a62000414565b5b60006200073b8a828b016200046c565b975050602088015167ffffffffffffffff8111156200075f576200075e62000419565b5b6200076d8a828b01620005c5565b965050604088015167ffffffffffffffff81111562000791576200079062000419565b5b6200079f8a828b01620006d6565b9550506060620007b28a828b016200046c565b9450506080620007c58a828b016200064b565b93505060a088015167ffffffffffffffff811115620007e957620007e862000419565b5b620007f78a828b01620006d6565b92505060c088015167ffffffffffffffff8111156200081b576200081a62000419565b5b620008298a828b01620006d6565b91505092959891949750929550565b600082825260208201905092915050565b7f417272617973206d7573742068617665207468652073616d65206c656e677468600082015250565b60006200088160208362000838565b91506200088e8262000849565b602082019050919050565b60006020820190508181036000830152620008b48162000872565b9050919050565b7f4e487b7100000000000000000000000000000000000000000000000000000000600052603260045260246000fd5b7f4e487b7100000000000000000000000000000000000000000000000000000000600052601160045260246000fd5b6000620009268262000627565b91507fffffffffffffffffffffffffffffffffffffffffffffffffffffffffffffffff8214156200095c576200095b620008ea565b5b600182019050919050565b6125f980620009776000396000f3fe608060405234801561001057600080fd5b50600436106101f05760003560e01c80638da5cb5b1161010f578063bdb92074116100a2578063ccd2f89f11610071578063ccd2f89f14610567578063ccd44ccf14610585578063d2cf4be2146105a1578063fb24359f146105d1576101f0565b8063bdb92074146104df578063c46dacd9146104fb578063c741a8dd14610519578063cabdba5b14610537576101f0565b8063acf4ede0116100de578063acf4ede014610445578063ad7c6ed114610461578063ae4890821461047f578063bc7ae422146104af576101f0565b80638da5cb5b146103d157806397f9481f146103ef578063a71494f11461040b578063ab3cb34c14610429576101f0565b8063444066171161018757806375eb7acc1161015657806375eb7acc1461036d578063765f744c14610377578063779cd083146103955780637aada134146103b3576101f0565b806344406617146102f55780634fbd39d314610313578063603daf9a146103315780637150d8ae1461034f576101f0565b8063209ebc08116101c3578063209ebc081461027d5780633095114c1461029b5780634117163e146102b957806343c97c84146102d7576101f0565b80630a907686146101f557806311b34c5a14610213578063141c08c21461022f578063200d2ed21461025f575b600080fd5b6101fd6105ef565b60405161020a919061183b565b60405180910390f35b61022d600480360381019061022891906118a2565b6105f9565b005b610249600480360381019061024491906118fb565b6106a6565b604051610256919061183b565b60405180910390f35b6102676106ca565b6040516102749190611947565b60405180910390f35b6102856106e0565b6040516102929190611971565b60405180910390f35b6102a36106f3565b6040516102b091906119cd565b60405180910390f35b6102c1610719565b6040516102ce9190611aa6565b60405180910390f35b6102df610771565b6040516102ec91906119cd565b60405180910390f35b6102fd61079b565b60405161030a9190611b86565b60405180910390f35b61031b610829565b6040516103289190611971565b60405180910390f35b610339610840565b60405161034691906119cd565b60405180910390f35b610357610869565b60405161036491906119cd565b60405180910390f35b61037561088d565b005b61037f610ae8565b60405161038c9190611971565b60405180910390f35b61039d610afb565b6040516103aa9190611971565b60405180910390f35b6103bb610b0e565b6040516103c8919061183b565b60405180910390f35b6103d9610b14565b6040516103e691906119cd565b60405180910390f35b61040960048036038101906104049190611d53565b610b3a565b005b610413610d8d565b604051610420919061183b565b60405180910390f35b610443600480360381019061043e9190611dc2565b610d93565b005b61045f600480360381019061045a91906118fb565b610e67565b005b610469610f01565b604051610476919061183b565b60405180910390f35b610499600480360381019061049491906118fb565b610f07565b6040516104a691906119cd565b60405180910390f35b6104c960048036038101906104c491906118fb565b610f46565b6040516104d6919061183b565b60405180910390f35b6104f960048036038101906104f49190611f7a565b610f6a565b005b610503611343565b6040516105109190611aa6565b60405180910390f35b61052161139b565b60405161052e9190611aa6565b60405180910390f35b610551600480360381019061054c9190611dc2565b611483565b60405161055e919061183b565b60405180910390f35b61056f61155c565b60405161057c9190611aa6565b60405180910390f35b61059f600480360381019061059a91906118a2565b6115b4565b005b6105bb60048036038101906105b691906118fb565b611661565b6040516105c891906119cd565b60405180910390f35b6105d96116a0565b6040516105e69190611b86565b60405180910390f35b6000600f54905090565b600260009054906101000a900473ffffffffffffffffffffffffffffffffffffffff1673ffffffffffffffffffffffffffffffffffffffff163373ffffffffffffffffffffffffffffffffffffffff1614610689576040517f08c379a00000000000000000000000000000000000000000000000000000000081526004016106809061204f565b60405180910390fd5b80601060006101000a81548160ff02191690831515021790555050565b600881815481106106b657600080fd5b906000526020600020016000915090505481565b600c60009054906101000a900463ffffffff1681565b600e60009054906101000a900460ff1681565b600160009054906101000a900473ffffffffffffffffffffffffffffffffffffffff1681565b6060600880548060200260200160405190810160405280929190818152602001828054801561076757602002820191906000526020600020905b815481526020019060010190808311610753575b5050505050905090565b6000600160009054906101000a900473ffffffffffffffffffffffffffffffffffffffff16905090565b6060600780548060200260200160405190810160405280929190818152602001828054801561081f57602002820191906000526020600020905b8160009054906101000a900473ffffffffffffffffffffffffffffffffffffffff1673ffffffffffffffffffffffffffffffffffffffff16815260200190600101908083116107d5575b5050505050905090565b6000601260009054906101000a900460ff16905090565b60008060009054906101000a900473ffffffffffffffffffffffffffffffffffffffff16905090565b60008054906101000a900473ffffffffffffffffffffffffffffffffffffffff1681565b600260009054906101000a900473ffffffffffffffffffffffffffffffffffffffff1673ffffffffffffffffffffffffffffffffffffffff163373ffffffffffffffffffffffffffffffffffffffff161461091d576040517f08c379a00000000000000000000000000000000000000000000000000000000081526004016109149061204f565b60405180910390fd5b60005b6003805490508163ffffffff161015610ae557600060038263ffffffff168154811061094f5761094e61206f565b5b9060005260206000200160009054906101000a900473ffffffffffffffffffffffffffffffffffffffff1673ffffffffffffffffffffffffffffffffffffffff1660008054906101000a900473ffffffffffffffffffffffffffffffffffffffff166040516024016109c191906119cd565b6040516020818303038152906040527fbbf89803000000000000000000000000000000000000000000000000000000007bffffffffffffffffffffffffffffffffffffffffffffffffffffffff19166020820180517bffffffffffffffffffffffffffffffffffffffffffffffffffffffff8381831617835250505050604051610a4b9190612118565b6000604051808303816000865af19150503d8060008114610a88576040519150601f19603f3d011682016040523d82523d6000602084013e610a8d565b606091505b5050905080610ad1576040517f08c379a0000000000000000000000000000000000000000000000000000000008152600401610ac8906121a1565b60405180910390fd5b508080610add906121f0565b915050610920565b50565b601260009054906101000a900460ff1681565b601060009054906101000a900460ff1681565b600d5481565b600260009054906101000a900473ffffffffffffffffffffffffffffffffffffffff1681565b60008054906101000a900473ffffffffffffffffffffffffffffffffffffffff1673ffffffffffffffffffffffffffffffffffffffff163373ffffffffffffffffffffffffffffffffffffffff1614610bc8576040517f08c379a0000000000000000000000000000000000000000000000000000000008152600401610bbf9061228f565b60405180910390fd5b6000600960008573ffffffffffffffffffffffffffffffffffffffff1673ffffffffffffffffffffffffffffffffffffffff168152602001908152602001600020541415610c4b576040517f08c379a0000000000000000000000000000000000000000000000000000000008152600401610c4290612321565b60405180910390fd5b60008373ffffffffffffffffffffffffffffffffffffffff168383604051602401610c77929190612394565b6040516020818303038152906040527f26cd59b3000000000000000000000000000000000000000000000000000000007bffffffffffffffffffffffffffffffffffffffffffffffffffffffff19166020820180517bffffffffffffffffffffffffffffffffffffffffffffffffffffffff8381831617835250505050604051610d019190612118565b6000604051808303816000865af19150503d8060008114610d3e576040519150601f19603f3d011682016040523d82523d6000602084013e610d43565b606091505b5050905080610d87576040517f08c379a0000000000000000000000000000000000000000000000000000000008152600401610d7e90612436565b60405180910390fd5b50505050565b600f5481565b600260009054906101000a900473ffffffffffffffffffffffffffffffffffffffff1673ffffffffffffffffffffffffffffffffffffffff163373ffffffffffffffffffffffffffffffffffffffff1614610e23576040517f08c379a0000000000000000000000000000000000000000000000000000000008152600401610e1a9061204f565b60405180910390fd5b80600160006101000a81548173ffffffffffffffffffffffffffffffffffffffff021916908373ffffffffffffffffffffffffffffffffffffffff16021790555050565b600260009054906101000a900473ffffffffffffffffffffffffffffffffffffffff1673ffffffffffffffffffffffffffffffffffffffff163373ffffffffffffffffffffffffffffffffffffffff1614610ef7576040517f08c379a0000000000000000000000000000000000000000000000000000000008152600401610eee9061204f565b60405180910390fd5b8060118190555050565b60115481565b60038181548110610f1757600080fd5b906000526020600020016000915054906101000a900473ffffffffffffffffffffffffffffffffffffffff1681565b60048181548110610f5657600080fd5b906000526020600020016000915090505481565b600260009054906101000a900473ffffffffffffffffffffffffffffffffffffffff1673ffffffffffffffffffffffffffffffffffffffff163373ffffffffffffffffffffffffffffffffffffffff1614610ffa576040517f08c379a0000000000000000000000000000000000000000000000000000000008152600401610ff19061204f565b60405180910390fd5b60005b8251811015611147578181815181106110195761101861206f565b5b6020026020010151600960008584815181106110385761103761206f565b5b602002602001015173ffffffffffffffffffffffffffffffffffffffff1673ffffffffffffffffffffffffffffffffffffffff1681526020019081526020016000205411156110bc576040517f08c379a00000000000000000000000000000000000000000000000000000000081526004016110b3906124c8565b60405180910390fd5b8181815181106110cf576110ce61206f565b5b6020026020010151600b60008584815181106110ee576110ed61206f565b5b602002602001015173ffffffffffffffffffffffffffffffffffffffff1673ffffffffffffffffffffffffffffffffffffffff16815260200190815260200160002081905550808061113f906124e8565b915050610ffd565b50816007908051906020019061115e92919061172e565b5080600890805190602001906111759291906117b8565b5060005b6003805490508163ffffffff16101561133e57600060038263ffffffff16815481106111a8576111a761206f565b5b9060005260206000200160009054906101000a900473ffffffffffffffffffffffffffffffffffffffff1673ffffffffffffffffffffffffffffffffffffffff1660008054906101000a900473ffffffffffffffffffffffffffffffffffffffff1660405160240161121a91906119cd565b6040516020818303038152906040527f317c9984000000000000000000000000000000000000000000000000000000007bffffffffffffffffffffffffffffffffffffffffffffffffffffffff19166020820180517bffffffffffffffffffffffffffffffffffffffffffffffffffffffff83818316178352505050506040516112a49190612118565b6000604051808303816000865af19150503d80600081146112e1576040519150601f19603f3d011682016040523d82523d6000602084013e6112e6565b606091505b505090508061132a576040517f08c379a0000000000000000000000000000000000000000000000000000000008152600401611321906125a3565b60405180910390fd5b508080611336906121f0565b915050611179565b505050565b6060600480548060200260200160405190810160405280929190818152602001828054801561139157602002820191906000526020600020905b81548152602001906001019080831161137d575b5050505050905090565b6060600260009054906101000a900473ffffffffffffffffffffffffffffffffffffffff1673ffffffffffffffffffffffffffffffffffffffff163373ffffffffffffffffffffffffffffffffffffffff161461142d576040517f08c379a00000000000000000000000000000000000000000000000000000000081526004016114249061204f565b60405180910390fd5b600580548060200260200160405190810160405280929190818152602001828054801561147957602002820191906000526020600020905b815481526020019060010190808311611465575b5050505050905090565b6000600260009054906101000a900473ffffffffffffffffffffffffffffffffffffffff1673ffffffffffffffffffffffffffffffffffffffff163373ffffffffffffffffffffffffffffffffffffffff1614611515576040517f08c379a000000000000000000000000000000000000000000000000000000000815260040161150c9061204f565b60405180910390fd5b600a60008373ffffffffffffffffffffffffffffffffffffffff1673ffffffffffffffffffffffffffffffffffffffff168152602001908152602001600020549050919050565b606060068054806020026020016040519081016040528092919081815260200182805480156115aa57602002820191906000526020600020905b815481526020019060010190808311611596575b5050505050905090565b600260009054906101000a900473ffffffffffffffffffffffffffffffffffffffff1673ffffffffffffffffffffffffffffffffffffffff163373ffffffffffffffffffffffffffffffffffffffff1614611644576040517f08c379a000000000000000000000000000000000000000000000000000000000815260040161163b9061204f565b60405180910390fd5b80601260006101000a81548160ff02191690831515021790555050565b6007818154811061167157600080fd5b906000526020600020016000915054906101000a900473ffffffffffffffffffffffffffffffffffffffff1681565b6060600380548060200260200160405190810160405280929190818152602001828054801561172457602002820191906000526020600020905b8160009054906101000a900473ffffffffffffffffffffffffffffffffffffffff1673ffffffffffffffffffffffffffffffffffffffff16815260200190600101908083116116da575b5050505050905090565b8280548282559060005260206000209081019282156117a7579160200282015b828111156117a65782518260006101000a81548173ffffffffffffffffffffffffffffffffffffffff021916908373ffffffffffffffffffffffffffffffffffffffff1602179055509160200191906001019061174e565b5b5090506117b49190611805565b5090565b8280548282559060005260206000209081019282156117f4579160200282015b828111156117f35782518255916020019190600101906117d8565b5b5090506118019190611805565b5090565b5b8082111561181e576000816000905550600101611806565b5090565b6000819050919050565b61183581611822565b82525050565b6000602082019050611850600083018461182c565b92915050565b6000604051905090565b600080fd5b600080fd5b60008115159050919050565b61187f8161186a565b811461188a57600080fd5b50565b60008135905061189c81611876565b92915050565b6000602082840312156118b8576118b7611860565b5b60006118c68482850161188d565b91505092915050565b6118d881611822565b81146118e357600080fd5b50565b6000813590506118f5816118cf565b92915050565b60006020828403121561191157611910611860565b5b600061191f848285016118e6565b91505092915050565b600063ffffffff82169050919050565b61194181611928565b82525050565b600060208201905061195c6000830184611938565b92915050565b61196b8161186a565b82525050565b60006020820190506119866000830184611962565b92915050565b600073ffffffffffffffffffffffffffffffffffffffff82169050919050565b60006119b78261198c565b9050919050565b6119c7816119ac565b82525050565b60006020820190506119e260008301846119be565b92915050565b600081519050919050565b600082825260208201905092915050565b6000819050602082019050919050565b611a1d81611822565b82525050565b6000611a2f8383611a14565b60208301905092915050565b6000602082019050919050565b6000611a53826119e8565b611a5d81856119f3565b9350611a6883611a04565b8060005b83811015611a99578151611a808882611a23565b9750611a8b83611a3b565b925050600181019050611a6c565b5085935050505092915050565b60006020820190508181036000830152611ac08184611a48565b905092915050565b600081519050919050565b600082825260208201905092915050565b6000819050602082019050919050565b611afd816119ac565b82525050565b6000611b0f8383611af4565b60208301905092915050565b6000602082019050919050565b6000611b3382611ac8565b611b3d8185611ad3565b9350611b4883611ae4565b8060005b83811015611b79578151611b608882611b03565b9750611b6b83611b1b565b925050600181019050611b4c565b5085935050505092915050565b60006020820190508181036000830152611ba08184611b28565b905092915050565b611bb1816119ac565b8114611bbc57600080fd5b50565b600081359050611bce81611ba8565b92915050565b600080fd5b600080fd5b6000601f19601f8301169050919050565b7f4e487b7100000000000000000000000000000000000000000000000000000000600052604160045260246000fd5b611c2782611bde565b810181811067ffffffffffffffff82111715611c4657611c45611bef565b5b80604052505050565b6000611c59611856565b9050611c658282611c1e565b919050565b600067ffffffffffffffff821115611c8557611c84611bef565b5b611c8e82611bde565b9050602081019050919050565b82818337600083830152505050565b6000611cbd611cb884611c6a565b611c4f565b905082815260208101848484011115611cd957611cd8611bd9565b5b611ce4848285611c9b565b509392505050565b600082601f830112611d0157611d00611bd4565b5b8135611d11848260208601611caa565b91505092915050565b600060ff82169050919050565b611d3081611d1a565b8114611d3b57600080fd5b50565b600081359050611d4d81611d27565b92915050565b600080600060608486031215611d6c57611d6b611860565b5b6000611d7a86828701611bbf565b935050602084013567ffffffffffffffff811115611d9b57611d9a611865565b5b611da786828701611cec565b9250506040611db886828701611d3e565b9150509250925092565b600060208284031215611dd857611dd7611860565b5b6000611de684828501611bbf565b91505092915050565b600067ffffffffffffffff821115611e0a57611e09611bef565b5b602082029050602081019050919050565b600080fd5b6000611e33611e2e84611def565b611c4f565b90508083825260208201905060208402830185811115611e5657611e55611e1b565b5b835b81811015611e7f5780611e6b8882611bbf565b845260208401935050602081019050611e58565b5050509392505050565b600082601f830112611e9e57611e9d611bd4565b5b8135611eae848260208601611e20565b91505092915050565b600067ffffffffffffffff821115611ed257611ed1611bef565b5b602082029050602081019050919050565b6000611ef6611ef184611eb7565b611c4f565b90508083825260208201905060208402830185811115611f1957611f18611e1b565b5b835b81811015611f425780611f2e88826118e6565b845260208401935050602081019050611f1b565b5050509392505050565b600082601f830112611f6157611f60611bd4565b5b8135611f71848260208601611ee3565b91505092915050565b60008060408385031215611f9157611f90611860565b5b600083013567ffffffffffffffff811115611faf57611fae611865565b5b611fbb85828601611e89565b925050602083013567ffffffffffffffff811115611fdc57611fdb611865565b5b611fe885828601611f4c565b9150509250929050565b600082825260208201905092915050565b7f45436d617274206f6e6c79000000000000000000000000000000000000000000600082015250565b6000612039600b83611ff2565b915061204482612003565b602082019050919050565b600060208201905081810360008301526120688161202c565b9050919050565b7f4e487b7100000000000000000000000000000000000000000000000000000000600052603260045260246000fd5b600081519050919050565b600081905092915050565b60005b838110156120d25780820151818401526020810190506120b7565b838111156120e1576000848401525b50505050565b60006120f28261209e565b6120fc81856120a9565b935061210c8185602086016120b4565b80840191505092915050565b600061212482846120e7565b915081905092915050565b7f4275796572204e6f7420416464656420746f207468652050726f64756374204660008201527f726f6d204f5244455220636f6e74726163740000000000000000000000000000602082015250565b600061218b603283611ff2565b91506121968261212f565b604082019050919050565b600060208201905081810360008301526121ba8161217e565b9050919050565b7f4e487b7100000000000000000000000000000000000000000000000000000000600052601160045260246000fd5b60006121fb82611928565b915063ffffffff821415612212576122116121c1565b5b600182019050919050565b7f43616e206e6f742067697665205265766965772d526174696e672e204265636160008201527f75736520596f7520617265206e6f742074686520627579657221000000000000602082015250565b6000612279603a83611ff2565b91506122848261221d565b604082019050919050565b600060208201905081810360008301526122a88161226c565b9050919050565b7f596f7520686176656e277420707572636861736564207468652070726f64756360008201527f7421000000000000000000000000000000000000000000000000000000000000602082015250565b600061230b602283611ff2565b9150612316826122af565b604082019050919050565b6000602082019050818103600083015261233a816122fe565b9050919050565b600081519050919050565b600061235782612341565b6123618185611ff2565b93506123718185602086016120b4565b61237a81611bde565b840191505092915050565b61238e81611d1a565b82525050565b600060408201905081810360008301526123ae818561234c565b90506123bd6020830184612385565b9392505050565b7f5265766965772d526174696e672050726f7664696e67206973204641494c454460008201527f2121000000000000000000000000000000000000000000000000000000000000602082015250565b6000612420602283611ff2565b915061242b826123c4565b604082019050919050565b6000602082019050818103600083015261244f81612413565b9050919050565b7f64656c697665727920646f65736e2774206d617463682077697468206f72646560008201527f7200000000000000000000000000000000000000000000000000000000000000602082015250565b60006124b2602183611ff2565b91506124bd82612456565b604082019050919050565b600060208201905081810360008301526124e1816124a5565b9050919050565b60006124f382611822565b91507fffffffffffffffffffffffffffffffffffffffffffffffffffffffffffffffff821415612526576125256121c1565b5b600182019050919050565b7f5265766965772d526174696e67205065726d697373696f6e20676976656e206960008201527f73204641494c4544212100000000000000000000000000000000000000000000602082015250565b600061258d602a83611ff2565b915061259882612531565b604082019050919050565b600060208201905081810360008301526125bc81612580565b905091905056fea2646970667358221220928a7a145cfba991b5d16e9d8e48ff32b1572eac13ef691721f8b429b2422d6264736f6c63430008080033",
  "linkReferences": {},
  "deployedLinkReferences": {}
}