{
  "_format": "hh-sol-artifact-1",
  "contractName": "Order",
  "sourceName": "contracts/Order.sol",
  "abi": [
    {
      "inputs": [
        {
          "internalType": "address",
          "name": "_buyer",
          "type": "address"
        },
        {
          "internalType": "address[]",
          "name": "_orderItems",
          "type": "address[]"
        },
        {
          "internalType": "uint256[]",
          "name": "_units",
          "type": "uint256[]"
        },
        {
          "internalType": "address",
          "name": "_owner",
          "type": "address"
        },
        {
          "internalType": "uint256",
          "name": "_buyerTotalPayable",
          "type": "uint256"
        },
        {
          "internalType": "uint256",
          "name": "_buyerTotalPaid",
          "type": "uint256"
        },
        {
          "internalType": "uint256[]",
          "name": "_orderUnitPrice",
          "type": "uint256[]"
        },
        {
          "internalType": "uint256[]",
          "name": "_orderUnitFinalPrice",
          "type": "uint256[]"
        }
      ],
      "stateMutability": "nonpayable",
      "type": "constructor"
    },
    {
      "inputs": [],
      "name": "buyer",
      "outputs": [
        {
          "internalType": "address",
          "name": "",
          "type": "address"
        }
      ],
      "stateMutability": "view",
      "type": "function"
    },
    {
      "inputs": [],
      "name": "buyerTotalPaid",
      "outputs": [
        {
          "internalType": "uint256",
          "name": "",
          "type": "uint256"
        }
      ],
      "stateMutability": "view",
      "type": "function"
    },
    {
      "inputs": [],
      "name": "buyerTotalPayable",
      "outputs": [
        {
          "internalType": "uint256",
          "name": "",
          "type": "uint256"
        }
      ],
      "stateMutability": "view",
      "type": "function"
    },
    {
      "inputs": [
        {
          "internalType": "uint256",
          "name": "",
          "type": "uint256"
        }
      ],
      "name": "deliveredItems",
      "outputs": [
        {
          "internalType": "address",
          "name": "",
          "type": "address"
        }
      ],
      "stateMutability": "view",
      "type": "function"
    },
    {
      "inputs": [
        {
          "internalType": "uint256",
          "name": "",
          "type": "uint256"
        }
      ],
      "name": "deliveredUnits",
      "outputs": [
        {
          "internalType": "uint256",
          "name": "",
          "type": "uint256"
        }
      ],
      "stateMutability": "view",
      "type": "function"
    },
    {
      "inputs": [],
      "name": "deliveryMan",
      "outputs": [
        {
          "internalType": "address",
          "name": "",
          "type": "address"
        }
      ],
      "stateMutability": "view",
      "type": "function"
    },
    {
      "inputs": [],
      "name": "getBuyer",
      "outputs": [
        {
          "internalType": "address",
          "name": "",
          "type": "address"
        }
      ],
      "stateMutability": "view",
      "type": "function"
    },
    {
      "inputs": [],
      "name": "getBuyerTotalPaid",
      "outputs": [
        {
          "internalType": "uint256",
          "name": "",
          "type": "uint256"
        }
      ],
      "stateMutability": "view",
      "type": "function"
    },
    {
      "inputs": [],
      "name": "getBuyerTotalPayable",
      "outputs": [
        {
          "internalType": "uint256",
          "name": "",
          "type": "uint256"
        }
      ],
      "stateMutability": "view",
      "type": "function"
    },
    {
      "inputs": [],
      "name": "getDeliveredItems",
      "outputs": [
        {
          "internalType": "address[]",
          "name": "",
          "type": "address[]"
        }
      ],
      "stateMutability": "view",
      "type": "function"
    },
    {
      "inputs": [],
      "name": "getDeliveredUnits",
      "outputs": [
        {
          "internalType": "uint256[]",
          "name": "",
          "type": "uint256[]"
        }
      ],
      "stateMutability": "view",
      "type": "function"
    },
    {
      "inputs": [],
      "name": "getDeliveryMan",
      "outputs": [
        {
          "internalType": "address",
          "name": "",
          "type": "address"
        }
      ],
      "stateMutability": "view",
      "type": "function"
    },
    {
      "inputs": [],
      "name": "getIsDelivered",
      "outputs": [
        {
          "internalType": "bool",
          "name": "",
          "type": "bool"
        }
      ],
      "stateMutability": "view",
      "type": "function"
    },
    {
      "inputs": [],
      "name": "getOrderItems",
      "outputs": [
        {
          "internalType": "address[]",
          "name": "",
          "type": "address[]"
        }
      ],
      "stateMutability": "view",
      "type": "function"
    },
    {
      "inputs": [],
      "name": "getOrderUnitFinalPrice",
      "outputs": [
        {
          "internalType": "uint256[]",
          "name": "",
          "type": "uint256[]"
        }
      ],
      "stateMutability": "view",
      "type": "function"
    },
    {
      "inputs": [],
      "name": "getOrderUnitPrice",
      "outputs": [
        {
          "internalType": "uint256[]",
          "name": "",
          "type": "uint256[]"
        }
      ],
      "stateMutability": "view",
      "type": "function"
    },
    {
      "inputs": [],
      "name": "getOrderUnits",
      "outputs": [
        {
          "internalType": "uint256[]",
          "name": "",
          "type": "uint256[]"
        }
      ],
      "stateMutability": "view",
      "type": "function"
    },
    {
      "inputs": [
        {
          "internalType": "address",
          "name": "productaddress",
          "type": "address"
        }
      ],
      "name": "getProductWiseUnitPrice",
      "outputs": [
        {
          "internalType": "uint256",
          "name": "",
          "type": "uint256"
        }
      ],
      "stateMutability": "view",
      "type": "function"
    },
    {
      "inputs": [],
      "name": "isDelivered",
      "outputs": [
        {
          "internalType": "bool",
          "name": "",
          "type": "bool"
        }
      ],
      "stateMutability": "view",
      "type": "function"
    },
    {
      "inputs": [],
      "name": "isPaid",
      "outputs": [
        {
          "internalType": "bool",
          "name": "",
          "type": "bool"
        }
      ],
      "stateMutability": "view",
      "type": "function"
    },
    {
      "inputs": [],
      "name": "isRefunded",
      "outputs": [
        {
          "internalType": "bool",
          "name": "",
          "type": "bool"
        }
      ],
      "stateMutability": "view",
      "type": "function"
    },
    {
      "inputs": [
        {
          "internalType": "uint256",
          "name": "",
          "type": "uint256"
        }
      ],
      "name": "orderItems",
      "outputs": [
        {
          "internalType": "address",
          "name": "",
          "type": "address"
        }
      ],
      "stateMutability": "view",
      "type": "function"
    },
    {
      "inputs": [],
      "name": "orderTime",
      "outputs": [
        {
          "internalType": "uint256",
          "name": "",
          "type": "uint256"
        }
      ],
      "stateMutability": "view",
      "type": "function"
    },
    {
      "inputs": [
        {
          "internalType": "uint256",
          "name": "",
          "type": "uint256"
        }
      ],
      "name": "orderUnits",
      "outputs": [
        {
          "internalType": "uint256",
          "name": "",
          "type": "uint256"
        }
      ],
      "stateMutability": "view",
      "type": "function"
    },
    {
      "inputs": [],
      "name": "owner",
      "outputs": [
        {
          "internalType": "address",
          "name": "",
          "type": "address"
        }
      ],
      "stateMutability": "view",
      "type": "function"
    },
    {
      "inputs": [],
      "name": "refundedAmount",
      "outputs": [
        {
          "internalType": "uint256",
          "name": "",
          "type": "uint256"
        }
      ],
      "stateMutability": "view",
      "type": "function"
    },
    {
      "inputs": [
        {
          "internalType": "address[]",
          "name": "_deliveryItems",
          "type": "address[]"
        },
        {
          "internalType": "uint256[]",
          "name": "_deliveryUnits",
          "type": "uint256[]"
        }
      ],
      "name": "setDelivery",
      "outputs": [],
      "stateMutability": "nonpayable",
      "type": "function"
    },
    {
      "inputs": [
        {
          "internalType": "address",
          "name": "_deliveryManAddress",
          "type": "address"
        }
      ],
      "name": "setDeliveryMan",
      "outputs": [],
      "stateMutability": "nonpayable",
      "type": "function"
    },
    {
      "inputs": [
        {
          "internalType": "bool",
          "name": "_isDelivered",
          "type": "bool"
        }
      ],
      "name": "setIsDelivered",
      "outputs": [],
      "stateMutability": "nonpayable",
      "type": "function"
    },
    {
      "inputs": [
        {
          "internalType": "bool",
          "name": "_isRefunded",
          "type": "bool"
        }
      ],
      "name": "setIsRefunded",
      "outputs": [],
      "stateMutability": "nonpayable",
      "type": "function"
    },
    {
      "inputs": [
        {
          "internalType": "uint256",
          "name": "_refundedAmount",
          "type": "uint256"
        }
      ],
      "name": "setRefundedAmount",
      "outputs": [],
      "stateMutability": "nonpayable",
      "type": "function"
    },
    {
      "inputs": [],
      "name": "status",
      "outputs": [
        {
          "internalType": "uint32",
          "name": "",
          "type": "uint32"
        }
      ],
      "stateMutability": "view",
      "type": "function"
    }
  ],
  "bytecode": "0x60806040526000601060006101000a81548160ff0219169083151502179055506000601260006101000a81548160ff0219169083151502179055506000601460006101000a81548160ff0219169083151502179055503480156200006257600080fd5b50604051620026fa380380620026fa83398181016040528101906200008891906200078f565b8551875114620000cf576040517f08c379a0000000000000000000000000000000000000000000000000000000008152600401620000c69062000935565b60405180910390fd5b84600260006101000a81548173ffffffffffffffffffffffffffffffffffffffff021916908373ffffffffffffffffffffffffffffffffffffffff16021790555042600f81905550876000806101000a81548173ffffffffffffffffffffffffffffffffffffffff021916908373ffffffffffffffffffffffffffffffffffffffff16021790555086600490805190602001906200016f92919062000390565b508560059080519060200190620001889291906200041f565b508160069080519060200190620001a19291906200041f565b508060079080519060200190620001ba9291906200041f565b5083601181905550826003819055506001601060006101000a81548160ff02191690831515021790555060005b8751811015620003815786818151811062000207576200020662000957565b5b6020026020010151600a60008a848151811062000229576200022862000957565b5b602002602001015173ffffffffffffffffffffffffffffffffffffffff1673ffffffffffffffffffffffffffffffffffffffff1681526020019081526020016000208190555082818151811062000285576200028462000957565b5b6020026020010151600b60008a8481518110620002a757620002a662000957565b5b602002602001015173ffffffffffffffffffffffffffffffffffffffff1673ffffffffffffffffffffffffffffffffffffffff1681526020019081526020016000208190555081818151811062000303576200030262000957565b5b6020026020010151600c60008a848151811062000325576200032462000957565b5b602002602001015173ffffffffffffffffffffffffffffffffffffffff1673ffffffffffffffffffffffffffffffffffffffff1681526020019081526020016000208190555080806200037890620009b5565b915050620001e7565b50505050505050505062000a03565b8280548282559060005260206000209081019282156200040c579160200282015b828111156200040b5782518260006101000a81548173ffffffffffffffffffffffffffffffffffffffff021916908373ffffffffffffffffffffffffffffffffffffffff16021790555091602001919060010190620003b1565b5b5090506200041b919062000471565b5090565b8280548282559060005260206000209081019282156200045e579160200282015b828111156200045d57825182559160200191906001019062000440565b5b5090506200046d919062000471565b5090565b5b808211156200048c57600081600090555060010162000472565b5090565b6000604051905090565b600080fd5b600080fd5b600073ffffffffffffffffffffffffffffffffffffffff82169050919050565b6000620004d182620004a4565b9050919050565b620004e381620004c4565b8114620004ef57600080fd5b50565b6000815190506200050381620004d8565b92915050565b600080fd5b6000601f19601f8301169050919050565b7f4e487b7100000000000000000000000000000000000000000000000000000000600052604160045260246000fd5b62000559826200050e565b810181811067ffffffffffffffff821117156200057b576200057a6200051f565b5b80604052505050565b60006200059062000490565b90506200059e82826200054e565b919050565b600067ffffffffffffffff821115620005c157620005c06200051f565b5b602082029050602081019050919050565b600080fd5b6000620005ee620005e884620005a3565b62000584565b90508083825260208201905060208402830185811115620006145762000613620005d2565b5b835b818110156200064157806200062c8882620004f2565b84526020840193505060208101905062000616565b5050509392505050565b600082601f83011262000663576200066262000509565b5b815162000675848260208601620005d7565b91505092915050565b600067ffffffffffffffff8211156200069c576200069b6200051f565b5b602082029050602081019050919050565b6000819050919050565b620006c281620006ad565b8114620006ce57600080fd5b50565b600081519050620006e281620006b7565b92915050565b6000620006ff620006f9846200067e565b62000584565b90508083825260208201905060208402830185811115620007255762000724620005d2565b5b835b818110156200075257806200073d8882620006d1565b84526020840193505060208101905062000727565b5050509392505050565b600082601f83011262000774576200077362000509565b5b815162000786848260208601620006e8565b91505092915050565b600080600080600080600080610100898b031215620007b357620007b26200049a565b5b6000620007c38b828c01620004f2565b985050602089015167ffffffffffffffff811115620007e757620007e66200049f565b5b620007f58b828c016200064b565b975050604089015167ffffffffffffffff8111156200081957620008186200049f565b5b620008278b828c016200075c565b96505060606200083a8b828c01620004f2565b95505060806200084d8b828c01620006d1565b94505060a0620008608b828c01620006d1565b93505060c089015167ffffffffffffffff8111156200088457620008836200049f565b5b620008928b828c016200075c565b92505060e089015167ffffffffffffffff811115620008b657620008b56200049f565b5b620008c48b828c016200075c565b9150509295985092959890939650565b600082825260208201905092915050565b7f417272617973206d7573742068617665207468652073616d65206c656e677468600082015250565b60006200091d602083620008d4565b91506200092a82620008e5565b602082019050919050565b6000602082019050818103600083015262000950816200090e565b9050919050565b7f4e487b7100000000000000000000000000000000000000000000000000000000600052603260045260246000fd5b7f4e487b7100000000000000000000000000000000000000000000000000000000600052601160045260246000fd5b6000620009c282620006ad565b91507fffffffffffffffffffffffffffffffffffffffffffffffffffffffffffffffff821415620009f857620009f762000986565b5b600182019050919050565b611ce78062000a136000396000f3fe608060405234801561001057600080fd5b50600436106101f05760003560e01c80638da5cb5b1161010f578063c46dacd9116100a2578063ccd44ccf11610071578063ccd44ccf1461057d578063d2cf4be214610599578063eea1ea73146105c9578063fb24359f146105e7576101f0565b8063c46dacd9146104f3578063c741a8dd14610511578063cabdba5b1461052f578063ccd2f89f1461055f576101f0565b8063ad7c6ed1116100de578063ad7c6ed114610459578063ae48908214610477578063bc7ae422146104a7578063bdb92074146104d7576101f0565b80638da5cb5b146103e5578063a71494f114610403578063ab3cb34c14610421578063acf4ede01461043d576101f0565b80634440661711610187578063765f744c11610156578063765f744c1461036d57806377432ac61461038b578063779cd083146103a95780637aada134146103c7576101f0565b806344406617146102f55780634fbd39d314610313578063603daf9a146103315780637150d8ae1461034f576101f0565b8063209ebc08116101c3578063209ebc081461027d5780633095114c1461029b5780634117163e146102b957806343c97c84146102d7576101f0565b80630a907686146101f557806311b34c5a14610213578063141c08c21461022f578063200d2ed21461025f575b600080fd5b6101fd610605565b60405161020a9190611408565b60405180910390f35b61022d6004803603810190610228919061146f565b61060f565b005b610249600480360381019061024491906114c8565b6106bc565b6040516102569190611408565b60405180910390f35b6102676106e0565b6040516102749190611514565b60405180910390f35b6102856106f6565b604051610292919061153e565b60405180910390f35b6102a3610709565b6040516102b0919061159a565b60405180910390f35b6102c161072f565b6040516102ce9190611673565b60405180910390f35b6102df610787565b6040516102ec919061159a565b60405180910390f35b6102fd6107b1565b60405161030a9190611753565b60405180910390f35b61031b61083f565b604051610328919061153e565b60405180910390f35b610339610856565b604051610346919061159a565b60405180910390f35b61035761087f565b604051610364919061159a565b60405180910390f35b6103756108a3565b604051610382919061153e565b60405180910390f35b6103936108b6565b6040516103a09190611408565b60405180910390f35b6103b16108bc565b6040516103be919061153e565b60405180910390f35b6103cf6108cf565b6040516103dc9190611408565b60405180910390f35b6103ed6108d5565b6040516103fa919061159a565b60405180910390f35b61040b6108fb565b6040516104189190611408565b60405180910390f35b61043b600480360381019061043691906117a1565b610901565b005b610457600480360381019061045291906114c8565b6109d5565b005b610461610a6f565b60405161046e9190611408565b60405180910390f35b610491600480360381019061048c91906114c8565b610a75565b60405161049e919061159a565b60405180910390f35b6104c160048036038101906104bc91906114c8565b610ab4565b6040516104ce9190611408565b60405180910390f35b6104f160048036038101906104ec91906119ea565b610ad8565b005b6104fb610dab565b6040516105089190611673565b60405180910390f35b610519610e03565b6040516105269190611673565b60405180910390f35b610549600480360381019061054491906117a1565b610eeb565b6040516105569190611408565b60405180910390f35b610567610fc4565b6040516105749190611673565b60405180910390f35b6105976004803603810190610592919061146f565b61101c565b005b6105b360048036038101906105ae91906114c8565b6110c9565b6040516105c0919061159a565b60405180910390f35b6105d1611108565b6040516105de9190611408565b60405180910390f35b6105ef611112565b6040516105fc9190611753565b60405180910390f35b6000600354905090565b600260009054906101000a900473ffffffffffffffffffffffffffffffffffffffff1673ffffffffffffffffffffffffffffffffffffffff163373ffffffffffffffffffffffffffffffffffffffff161461069f576040517f08c379a000000000000000000000000000000000000000000000000000000000815260040161069690611abf565b60405180910390fd5b80601260006101000a81548160ff02191690831515021790555050565b600981815481106106cc57600080fd5b906000526020600020016000915090505481565b600e60009054906101000a900463ffffffff1681565b601060009054906101000a900460ff1681565b600160009054906101000a900473ffffffffffffffffffffffffffffffffffffffff1681565b6060600980548060200260200160405190810160405280929190818152602001828054801561077d57602002820191906000526020600020905b815481526020019060010190808311610769575b5050505050905090565b6000600160009054906101000a900473ffffffffffffffffffffffffffffffffffffffff16905090565b6060600880548060200260200160405190810160405280929190818152602001828054801561083557602002820191906000526020600020905b8160009054906101000a900473ffffffffffffffffffffffffffffffffffffffff1673ffffffffffffffffffffffffffffffffffffffff16815260200190600101908083116107eb575b5050505050905090565b6000601460009054906101000a900460ff16905090565b60008060009054906101000a900473ffffffffffffffffffffffffffffffffffffffff16905090565b60008054906101000a900473ffffffffffffffffffffffffffffffffffffffff1681565b601460009054906101000a900460ff1681565b60115481565b601260009054906101000a900460ff1681565b600f5481565b600260009054906101000a900473ffffffffffffffffffffffffffffffffffffffff1681565b60035481565b600260009054906101000a900473ffffffffffffffffffffffffffffffffffffffff1673ffffffffffffffffffffffffffffffffffffffff163373ffffffffffffffffffffffffffffffffffffffff1614610991576040517f08c379a000000000000000000000000000000000000000000000000000000000815260040161098890611abf565b60405180910390fd5b80600160006101000a81548173ffffffffffffffffffffffffffffffffffffffff021916908373ffffffffffffffffffffffffffffffffffffffff16021790555050565b600260009054906101000a900473ffffffffffffffffffffffffffffffffffffffff1673ffffffffffffffffffffffffffffffffffffffff163373ffffffffffffffffffffffffffffffffffffffff1614610a65576040517f08c379a0000000000000000000000000000000000000000000000000000000008152600401610a5c90611abf565b60405180910390fd5b8060138190555050565b60135481565b60048181548110610a8557600080fd5b906000526020600020016000915054906101000a900473ffffffffffffffffffffffffffffffffffffffff1681565b60058181548110610ac457600080fd5b906000526020600020016000915090505481565b600260009054906101000a900473ffffffffffffffffffffffffffffffffffffffff1673ffffffffffffffffffffffffffffffffffffffff163373ffffffffffffffffffffffffffffffffffffffff1614610b68576040517f08c379a0000000000000000000000000000000000000000000000000000000008152600401610b5f90611abf565b60405180910390fd5b610ba66040518060400160405280601881526020017f46726f6d2044656c6976657279202d2d2d2d2d2d2d2d2d2d00000000000000008152506111a0565b60005b8251811015610d7857610c14600a6000858481518110610bcc57610bcb611adf565b5b602002602001015173ffffffffffffffffffffffffffffffffffffffff1673ffffffffffffffffffffffffffffffffffffffff16815260200190815260200160002054611239565b610c37828281518110610c2a57610c29611adf565b5b6020026020010151611239565b818181518110610c4a57610c49611adf565b5b6020026020010151600a6000858481518110610c6957610c68611adf565b5b602002602001015173ffffffffffffffffffffffffffffffffffffffff1673ffffffffffffffffffffffffffffffffffffffff168152602001908152602001600020541015610ced576040517f08c379a0000000000000000000000000000000000000000000000000000000008152600401610ce490611b80565b60405180910390fd5b818181518110610d0057610cff611adf565b5b6020026020010151600d6000858481518110610d1f57610d1e611adf565b5b602002602001015173ffffffffffffffffffffffffffffffffffffffff1673ffffffffffffffffffffffffffffffffffffffff168152602001908152602001600020819055508080610d7090611bcf565b915050610ba9565b508160089080519060200190610d8f9291906112fb565b508060099080519060200190610da6929190611385565b505050565b60606005805480602002602001604051908101604052809291908181526020018280548015610df957602002820191906000526020600020905b815481526020019060010190808311610de5575b5050505050905090565b6060600260009054906101000a900473ffffffffffffffffffffffffffffffffffffffff1673ffffffffffffffffffffffffffffffffffffffff163373ffffffffffffffffffffffffffffffffffffffff1614610e95576040517f08c379a0000000000000000000000000000000000000000000000000000000008152600401610e8c90611abf565b60405180910390fd5b6006805480602002602001604051908101604052809291908181526020018280548015610ee157602002820191906000526020600020905b815481526020019060010190808311610ecd575b5050505050905090565b6000600260009054906101000a900473ffffffffffffffffffffffffffffffffffffffff1673ffffffffffffffffffffffffffffffffffffffff163373ffffffffffffffffffffffffffffffffffffffff1614610f7d576040517f08c379a0000000000000000000000000000000000000000000000000000000008152600401610f7490611abf565b60405180910390fd5b600b60008373ffffffffffffffffffffffffffffffffffffffff1673ffffffffffffffffffffffffffffffffffffffff168152602001908152602001600020549050919050565b6060600780548060200260200160405190810160405280929190818152602001828054801561101257602002820191906000526020600020905b815481526020019060010190808311610ffe575b5050505050905090565b600260009054906101000a900473ffffffffffffffffffffffffffffffffffffffff1673ffffffffffffffffffffffffffffffffffffffff163373ffffffffffffffffffffffffffffffffffffffff16146110ac576040517f08c379a00000000000000000000000000000000000000000000000000000000081526004016110a390611abf565b60405180910390fd5b80601460006101000a81548160ff02191690831515021790555050565b600881815481106110d957600080fd5b906000526020600020016000915054906101000a900473ffffffffffffffffffffffffffffffffffffffff1681565b6000601154905090565b6060600480548060200260200160405190810160405280929190818152602001828054801561119657602002820191906000526020600020905b8160009054906101000a900473ffffffffffffffffffffffffffffffffffffffff1673ffffffffffffffffffffffffffffffffffffffff168152602001906001019080831161114c575b5050505050905090565b611236816040516024016111b49190611c8f565b6040516020818303038152906040527f41304fac000000000000000000000000000000000000000000000000000000007bffffffffffffffffffffffffffffffffffffffffffffffffffffffff19166020820180517bffffffffffffffffffffffffffffffffffffffffffffffffffffffff83818316178352505050506112d2565b50565b6112cf8160405160240161124d9190611408565b6040516020818303038152906040527ff5b1bba9000000000000000000000000000000000000000000000000000000007bffffffffffffffffffffffffffffffffffffffffffffffffffffffff19166020820180517bffffffffffffffffffffffffffffffffffffffffffffffffffffffff83818316178352505050506112d2565b50565b60008151905060006a636f6e736f6c652e6c6f679050602083016000808483855afa5050505050565b828054828255906000526020600020908101928215611374579160200282015b828111156113735782518260006101000a81548173ffffffffffffffffffffffffffffffffffffffff021916908373ffffffffffffffffffffffffffffffffffffffff1602179055509160200191906001019061131b565b5b50905061138191906113d2565b5090565b8280548282559060005260206000209081019282156113c1579160200282015b828111156113c05782518255916020019190600101906113a5565b5b5090506113ce91906113d2565b5090565b5b808211156113eb5760008160009055506001016113d3565b5090565b6000819050919050565b611402816113ef565b82525050565b600060208201905061141d60008301846113f9565b92915050565b6000604051905090565b600080fd5b600080fd5b60008115159050919050565b61144c81611437565b811461145757600080fd5b50565b60008135905061146981611443565b92915050565b6000602082840312156114855761148461142d565b5b60006114938482850161145a565b91505092915050565b6114a5816113ef565b81146114b057600080fd5b50565b6000813590506114c28161149c565b92915050565b6000602082840312156114de576114dd61142d565b5b60006114ec848285016114b3565b91505092915050565b600063ffffffff82169050919050565b61150e816114f5565b82525050565b60006020820190506115296000830184611505565b92915050565b61153881611437565b82525050565b6000602082019050611553600083018461152f565b92915050565b600073ffffffffffffffffffffffffffffffffffffffff82169050919050565b600061158482611559565b9050919050565b61159481611579565b82525050565b60006020820190506115af600083018461158b565b92915050565b600081519050919050565b600082825260208201905092915050565b6000819050602082019050919050565b6115ea816113ef565b82525050565b60006115fc83836115e1565b60208301905092915050565b6000602082019050919050565b6000611620826115b5565b61162a81856115c0565b9350611635836115d1565b8060005b8381101561166657815161164d88826115f0565b975061165883611608565b925050600181019050611639565b5085935050505092915050565b6000602082019050818103600083015261168d8184611615565b905092915050565b600081519050919050565b600082825260208201905092915050565b6000819050602082019050919050565b6116ca81611579565b82525050565b60006116dc83836116c1565b60208301905092915050565b6000602082019050919050565b600061170082611695565b61170a81856116a0565b9350611715836116b1565b8060005b8381101561174657815161172d88826116d0565b9750611738836116e8565b925050600181019050611719565b5085935050505092915050565b6000602082019050818103600083015261176d81846116f5565b905092915050565b61177e81611579565b811461178957600080fd5b50565b60008135905061179b81611775565b92915050565b6000602082840312156117b7576117b661142d565b5b60006117c58482850161178c565b91505092915050565b600080fd5b6000601f19601f8301169050919050565b7f4e487b7100000000000000000000000000000000000000000000000000000000600052604160045260246000fd5b61181c826117d3565b810181811067ffffffffffffffff8211171561183b5761183a6117e4565b5b80604052505050565b600061184e611423565b905061185a8282611813565b919050565b600067ffffffffffffffff82111561187a576118796117e4565b5b602082029050602081019050919050565b600080fd5b60006118a361189e8461185f565b611844565b905080838252602082019050602084028301858111156118c6576118c561188b565b5b835b818110156118ef57806118db888261178c565b8452602084019350506020810190506118c8565b5050509392505050565b600082601f83011261190e5761190d6117ce565b5b813561191e848260208601611890565b91505092915050565b600067ffffffffffffffff821115611942576119416117e4565b5b602082029050602081019050919050565b600061196661196184611927565b611844565b905080838252602082019050602084028301858111156119895761198861188b565b5b835b818110156119b2578061199e88826114b3565b84526020840193505060208101905061198b565b5050509392505050565b600082601f8301126119d1576119d06117ce565b5b81356119e1848260208601611953565b91505092915050565b60008060408385031215611a0157611a0061142d565b5b600083013567ffffffffffffffff811115611a1f57611a1e611432565b5b611a2b858286016118f9565b925050602083013567ffffffffffffffff811115611a4c57611a4b611432565b5b611a58858286016119bc565b9150509250929050565b600082825260208201905092915050565b7f45436d617274206f6e6c79000000000000000000000000000000000000000000600082015250565b6000611aa9600b83611a62565b9150611ab482611a73565b602082019050919050565b60006020820190508181036000830152611ad881611a9c565b9050919050565b7f4e487b7100000000000000000000000000000000000000000000000000000000600052603260045260246000fd5b7f64656c697665727920646f65736e2774206d617463682077697468206f72646560008201527f7200000000000000000000000000000000000000000000000000000000000000602082015250565b6000611b6a602183611a62565b9150611b7582611b0e565b604082019050919050565b60006020820190508181036000830152611b9981611b5d565b9050919050565b7f4e487b7100000000000000000000000000000000000000000000000000000000600052601160045260246000fd5b6000611bda826113ef565b91507fffffffffffffffffffffffffffffffffffffffffffffffffffffffffffffffff821415611c0d57611c0c611ba0565b5b600182019050919050565b600081519050919050565b60005b83811015611c41578082015181840152602081019050611c26565b83811115611c50576000848401525b50505050565b6000611c6182611c18565b611c6b8185611a62565b9350611c7b818560208601611c23565b611c84816117d3565b840191505092915050565b60006020820190508181036000830152611ca98184611c56565b90509291505056fea26469706673582212209c16958c4077e4bbc1149041aeb78a5bbf21f2d69c7e935fac96bc9a4e537a6064736f6c63430008080033",
  "linkReferences": {},
  "deployedLinkReferences": {}
}