{
  "_format": "hh-sol-artifact-1",
  "contractName": "Order",
  "sourceName": "contracts/Order.sol",
  "abi": [
    {
      "inputs": [
        {
          "internalType": "address",
          "name": "_buyer",
          "type": "address"
        },
        {
          "internalType": "address[]",
          "name": "_orderItems",
          "type": "address[]"
        },
        {
          "internalType": "uint256[]",
          "name": "_units",
          "type": "uint256[]"
        },
        {
          "internalType": "address",
          "name": "_owner",
          "type": "address"
        },
        {
          "internalType": "uint256",
          "name": "_buyerTotalPayable",
          "type": "uint256"
        },
        {
          "internalType": "uint256",
          "name": "_buyerTotalPaid",
          "type": "uint256"
        },
        {
          "internalType": "uint256[]",
          "name": "_orderUnitPrice",
          "type": "uint256[]"
        },
        {
          "internalType": "uint256[]",
          "name": "_orderUnitFinalPrice",
          "type": "uint256[]"
        }
      ],
      "stateMutability": "nonpayable",
      "type": "constructor"
    },
    {
      "inputs": [],
      "name": "addBuyer",
      "outputs": [],
      "stateMutability": "nonpayable",
      "type": "function"
    },
    {
      "inputs": [],
      "name": "buyer",
      "outputs": [
        {
          "internalType": "address",
          "name": "",
          "type": "address"
        }
      ],
      "stateMutability": "view",
      "type": "function"
    },
    {
      "inputs": [],
      "name": "buyerTotalPaid",
      "outputs": [
        {
          "internalType": "uint256",
          "name": "",
          "type": "uint256"
        }
      ],
      "stateMutability": "view",
      "type": "function"
    },
    {
      "inputs": [],
      "name": "buyerTotalPayable",
      "outputs": [
        {
          "internalType": "uint256",
          "name": "",
          "type": "uint256"
        }
      ],
      "stateMutability": "view",
      "type": "function"
    },
    {
      "inputs": [
        {
          "internalType": "uint256",
          "name": "",
          "type": "uint256"
        }
      ],
      "name": "deliveredItems",
      "outputs": [
        {
          "internalType": "address",
          "name": "",
          "type": "address"
        }
      ],
      "stateMutability": "view",
      "type": "function"
    },
    {
      "inputs": [
        {
          "internalType": "uint256",
          "name": "",
          "type": "uint256"
        }
      ],
      "name": "deliveredUnits",
      "outputs": [
        {
          "internalType": "uint256",
          "name": "",
          "type": "uint256"
        }
      ],
      "stateMutability": "view",
      "type": "function"
    },
    {
      "inputs": [],
      "name": "deliveryMan",
      "outputs": [
        {
          "internalType": "address",
          "name": "",
          "type": "address"
        }
      ],
      "stateMutability": "view",
      "type": "function"
    },
    {
      "inputs": [],
      "name": "getBuyer",
      "outputs": [
        {
          "internalType": "address",
          "name": "",
          "type": "address"
        }
      ],
      "stateMutability": "view",
      "type": "function"
    },
    {
      "inputs": [],
      "name": "getBuyerTotalPaid",
      "outputs": [
        {
          "internalType": "uint256",
          "name": "",
          "type": "uint256"
        }
      ],
      "stateMutability": "view",
      "type": "function"
    },
    {
      "inputs": [],
      "name": "getBuyerTotalPayable",
      "outputs": [
        {
          "internalType": "uint256",
          "name": "",
          "type": "uint256"
        }
      ],
      "stateMutability": "view",
      "type": "function"
    },
    {
      "inputs": [],
      "name": "getDeliveredItems",
      "outputs": [
        {
          "internalType": "address[]",
          "name": "",
          "type": "address[]"
        }
      ],
      "stateMutability": "view",
      "type": "function"
    },
    {
      "inputs": [],
      "name": "getDeliveredUnits",
      "outputs": [
        {
          "internalType": "uint256[]",
          "name": "",
          "type": "uint256[]"
        }
      ],
      "stateMutability": "view",
      "type": "function"
    },
    {
      "inputs": [],
      "name": "getDeliveryMan",
      "outputs": [
        {
          "internalType": "address",
          "name": "",
          "type": "address"
        }
      ],
      "stateMutability": "view",
      "type": "function"
    },
    {
      "inputs": [],
      "name": "getIsDelivered",
      "outputs": [
        {
          "internalType": "bool",
          "name": "",
          "type": "bool"
        }
      ],
      "stateMutability": "view",
      "type": "function"
    },
    {
      "inputs": [],
      "name": "getOrderItems",
      "outputs": [
        {
          "internalType": "address[]",
          "name": "",
          "type": "address[]"
        }
      ],
      "stateMutability": "view",
      "type": "function"
    },
    {
      "inputs": [],
      "name": "getOrderUnitFinalPrice",
      "outputs": [
        {
          "internalType": "uint256[]",
          "name": "",
          "type": "uint256[]"
        }
      ],
      "stateMutability": "view",
      "type": "function"
    },
    {
      "inputs": [],
      "name": "getOrderUnitPrice",
      "outputs": [
        {
          "internalType": "uint256[]",
          "name": "",
          "type": "uint256[]"
        }
      ],
      "stateMutability": "view",
      "type": "function"
    },
    {
      "inputs": [],
      "name": "getOrderUnits",
      "outputs": [
        {
          "internalType": "uint256[]",
          "name": "",
          "type": "uint256[]"
        }
      ],
      "stateMutability": "view",
      "type": "function"
    },
    {
      "inputs": [
        {
          "internalType": "address",
          "name": "productaddress",
          "type": "address"
        }
      ],
      "name": "getProductWiseUnitPrice",
      "outputs": [
        {
          "internalType": "uint256",
          "name": "",
          "type": "uint256"
        }
      ],
      "stateMutability": "view",
      "type": "function"
    },
    {
      "inputs": [],
      "name": "isDelivered",
      "outputs": [
        {
          "internalType": "bool",
          "name": "",
          "type": "bool"
        }
      ],
      "stateMutability": "view",
      "type": "function"
    },
    {
      "inputs": [],
      "name": "isPaid",
      "outputs": [
        {
          "internalType": "bool",
          "name": "",
          "type": "bool"
        }
      ],
      "stateMutability": "view",
      "type": "function"
    },
    {
      "inputs": [],
      "name": "isRefunded",
      "outputs": [
        {
          "internalType": "bool",
          "name": "",
          "type": "bool"
        }
      ],
      "stateMutability": "view",
      "type": "function"
    },
    {
      "inputs": [
        {
          "internalType": "uint256",
          "name": "",
          "type": "uint256"
        }
      ],
      "name": "orderItems",
      "outputs": [
        {
          "internalType": "address",
          "name": "",
          "type": "address"
        }
      ],
      "stateMutability": "view",
      "type": "function"
    },
    {
      "inputs": [],
      "name": "orderTime",
      "outputs": [
        {
          "internalType": "uint256",
          "name": "",
          "type": "uint256"
        }
      ],
      "stateMutability": "view",
      "type": "function"
    },
    {
      "inputs": [
        {
          "internalType": "uint256",
          "name": "",
          "type": "uint256"
        }
      ],
      "name": "orderUnits",
      "outputs": [
        {
          "internalType": "uint256",
          "name": "",
          "type": "uint256"
        }
      ],
      "stateMutability": "view",
      "type": "function"
    },
    {
      "inputs": [],
      "name": "owner",
      "outputs": [
        {
          "internalType": "address",
          "name": "",
          "type": "address"
        }
      ],
      "stateMutability": "view",
      "type": "function"
    },
    {
      "inputs": [
        {
          "internalType": "address",
          "name": "_productAddress",
          "type": "address"
        },
        {
          "internalType": "string",
          "name": "review",
          "type": "string"
        },
        {
          "internalType": "uint8",
          "name": "rating",
          "type": "uint8"
        }
      ],
      "name": "provideReviewRating",
      "outputs": [],
      "stateMutability": "nonpayable",
      "type": "function"
    },
    {
      "inputs": [],
      "name": "refundedAmount",
      "outputs": [
        {
          "internalType": "uint256",
          "name": "",
          "type": "uint256"
        }
      ],
      "stateMutability": "view",
      "type": "function"
    },
    {
      "inputs": [
        {
          "internalType": "address[]",
          "name": "_deliveryItems",
          "type": "address[]"
        },
        {
          "internalType": "uint256[]",
          "name": "_deliveryUnits",
          "type": "uint256[]"
        }
      ],
      "name": "setDelivery",
      "outputs": [],
      "stateMutability": "nonpayable",
      "type": "function"
    },
    {
      "inputs": [
        {
          "internalType": "address",
          "name": "_deliveryManAddress",
          "type": "address"
        }
      ],
      "name": "setDeliveryMan",
      "outputs": [],
      "stateMutability": "nonpayable",
      "type": "function"
    },
    {
      "inputs": [
        {
          "internalType": "bool",
          "name": "_isDelivered",
          "type": "bool"
        }
      ],
      "name": "setIsDelivered",
      "outputs": [],
      "stateMutability": "nonpayable",
      "type": "function"
    },
    {
      "inputs": [
        {
          "internalType": "bool",
          "name": "_isRefunded",
          "type": "bool"
        }
      ],
      "name": "setIsRefunded",
      "outputs": [],
      "stateMutability": "nonpayable",
      "type": "function"
    },
    {
      "inputs": [
        {
          "internalType": "uint256",
          "name": "_refundedAmount",
          "type": "uint256"
        }
      ],
      "name": "setRefundedAmount",
      "outputs": [],
      "stateMutability": "nonpayable",
      "type": "function"
    },
    {
      "inputs": [],
      "name": "status",
      "outputs": [
        {
          "internalType": "uint32",
          "name": "",
          "type": "uint32"
        }
      ],
      "stateMutability": "view",
      "type": "function"
    }
  ],
  "bytecode": "0x60806040526000601060006101000a81548160ff0219169083151502179055506000601260006101000a81548160ff0219169083151502179055506000601460006101000a81548160ff0219169083151502179055503480156200006257600080fd5b50604051620032ae380380620032ae83398181016040528101906200008891906200078f565b8551875114620000cf576040517f08c379a0000000000000000000000000000000000000000000000000000000008152600401620000c69062000935565b60405180910390fd5b84600260006101000a81548173ffffffffffffffffffffffffffffffffffffffff021916908373ffffffffffffffffffffffffffffffffffffffff16021790555042600f81905550876000806101000a81548173ffffffffffffffffffffffffffffffffffffffff021916908373ffffffffffffffffffffffffffffffffffffffff16021790555086600490805190602001906200016f92919062000390565b508560059080519060200190620001889291906200041f565b508160069080519060200190620001a19291906200041f565b508060079080519060200190620001ba9291906200041f565b5083601181905550826003819055506001601060006101000a81548160ff02191690831515021790555060005b8751811015620003815786818151811062000207576200020662000957565b5b6020026020010151600a60008a848151811062000229576200022862000957565b5b602002602001015173ffffffffffffffffffffffffffffffffffffffff1673ffffffffffffffffffffffffffffffffffffffff1681526020019081526020016000208190555082818151811062000285576200028462000957565b5b6020026020010151600b60008a8481518110620002a757620002a662000957565b5b602002602001015173ffffffffffffffffffffffffffffffffffffffff1673ffffffffffffffffffffffffffffffffffffffff1681526020019081526020016000208190555081818151811062000303576200030262000957565b5b6020026020010151600c60008a848151811062000325576200032462000957565b5b602002602001015173ffffffffffffffffffffffffffffffffffffffff1673ffffffffffffffffffffffffffffffffffffffff1681526020019081526020016000208190555080806200037890620009b5565b915050620001e7565b50505050505050505062000a03565b8280548282559060005260206000209081019282156200040c579160200282015b828111156200040b5782518260006101000a81548173ffffffffffffffffffffffffffffffffffffffff021916908373ffffffffffffffffffffffffffffffffffffffff16021790555091602001919060010190620003b1565b5b5090506200041b919062000471565b5090565b8280548282559060005260206000209081019282156200045e579160200282015b828111156200045d57825182559160200191906001019062000440565b5b5090506200046d919062000471565b5090565b5b808211156200048c57600081600090555060010162000472565b5090565b6000604051905090565b600080fd5b600080fd5b600073ffffffffffffffffffffffffffffffffffffffff82169050919050565b6000620004d182620004a4565b9050919050565b620004e381620004c4565b8114620004ef57600080fd5b50565b6000815190506200050381620004d8565b92915050565b600080fd5b6000601f19601f8301169050919050565b7f4e487b7100000000000000000000000000000000000000000000000000000000600052604160045260246000fd5b62000559826200050e565b810181811067ffffffffffffffff821117156200057b576200057a6200051f565b5b80604052505050565b60006200059062000490565b90506200059e82826200054e565b919050565b600067ffffffffffffffff821115620005c157620005c06200051f565b5b602082029050602081019050919050565b600080fd5b6000620005ee620005e884620005a3565b62000584565b90508083825260208201905060208402830185811115620006145762000613620005d2565b5b835b818110156200064157806200062c8882620004f2565b84526020840193505060208101905062000616565b5050509392505050565b600082601f83011262000663576200066262000509565b5b815162000675848260208601620005d7565b91505092915050565b600067ffffffffffffffff8211156200069c576200069b6200051f565b5b602082029050602081019050919050565b6000819050919050565b620006c281620006ad565b8114620006ce57600080fd5b50565b600081519050620006e281620006b7565b92915050565b6000620006ff620006f9846200067e565b62000584565b90508083825260208201905060208402830185811115620007255762000724620005d2565b5b835b818110156200075257806200073d8882620006d1565b84526020840193505060208101905062000727565b5050509392505050565b600082601f83011262000774576200077362000509565b5b815162000786848260208601620006e8565b91505092915050565b600080600080600080600080610100898b031215620007b357620007b26200049a565b5b6000620007c38b828c01620004f2565b985050602089015167ffffffffffffffff811115620007e757620007e66200049f565b5b620007f58b828c016200064b565b975050604089015167ffffffffffffffff8111156200081957620008186200049f565b5b620008278b828c016200075c565b96505060606200083a8b828c01620004f2565b95505060806200084d8b828c01620006d1565b94505060a0620008608b828c01620006d1565b93505060c089015167ffffffffffffffff8111156200088457620008836200049f565b5b620008928b828c016200075c565b92505060e089015167ffffffffffffffff811115620008b657620008b56200049f565b5b620008c48b828c016200075c565b9150509295985092959890939650565b600082825260208201905092915050565b7f417272617973206d7573742068617665207468652073616d65206c656e677468600082015250565b60006200091d602083620008d4565b91506200092a82620008e5565b602082019050919050565b6000602082019050818103600083015262000950816200090e565b9050919050565b7f4e487b7100000000000000000000000000000000000000000000000000000000600052603260045260246000fd5b7f4e487b7100000000000000000000000000000000000000000000000000000000600052601160045260246000fd5b6000620009c282620006ad565b91507fffffffffffffffffffffffffffffffffffffffffffffffffffffffffffffffff821415620009f857620009f762000986565b5b600182019050919050565b61289b8062000a136000396000f3fe608060405234801561001057600080fd5b50600436106102065760003560e01c80638da5cb5b1161011a578063bdb92074116100ad578063ccd2f89f1161007c578063ccd2f89f1461059b578063ccd44ccf146105b9578063d2cf4be2146105d5578063eea1ea7314610605578063fb24359f1461062357610206565b8063bdb9207414610513578063c46dacd91461052f578063c741a8dd1461054d578063cabdba5b1461056b57610206565b8063acf4ede0116100e9578063acf4ede014610479578063ad7c6ed114610495578063ae489082146104b3578063bc7ae422146104e357610206565b80638da5cb5b1461040557806397f9481f14610423578063a71494f11461043f578063ab3cb34c1461045d57610206565b8063444066171161019d57806375eb7acc1161016c57806375eb7acc14610383578063765f744c1461038d57806377432ac6146103ab578063779cd083146103c95780637aada134146103e757610206565b8063444066171461030b5780634fbd39d314610329578063603daf9a146103475780637150d8ae1461036557610206565b8063209ebc08116101d9578063209ebc08146102935780633095114c146102b15780634117163e146102cf57806343c97c84146102ed57610206565b80630a9076861461020b57806311b34c5a14610229578063141c08c214610245578063200d2ed214610275575b600080fd5b610213610641565b6040516102209190611abb565b60405180910390f35b610243600480360381019061023e9190611b22565b61064b565b005b61025f600480360381019061025a9190611b7b565b6106f8565b60405161026c9190611abb565b60405180910390f35b61027d61071c565b60405161028a9190611bc7565b60405180910390f35b61029b610732565b6040516102a89190611bf1565b60405180910390f35b6102b9610745565b6040516102c69190611c4d565b60405180910390f35b6102d761076b565b6040516102e49190611d26565b60405180910390f35b6102f56107c3565b6040516103029190611c4d565b60405180910390f35b6103136107ed565b6040516103209190611e06565b60405180910390f35b61033161087b565b60405161033e9190611bf1565b60405180910390f35b61034f610892565b60405161035c9190611c4d565b60405180910390f35b61036d6108bb565b60405161037a9190611c4d565b60405180910390f35b61038b6108df565b005b610395610b3a565b6040516103a29190611bf1565b60405180910390f35b6103b3610b4d565b6040516103c09190611abb565b60405180910390f35b6103d1610b53565b6040516103de9190611bf1565b60405180910390f35b6103ef610b66565b6040516103fc9190611abb565b60405180910390f35b61040d610b6c565b60405161041a9190611c4d565b60405180910390f35b61043d60048036038101906104389190611fd3565b610b92565b005b610447610de5565b6040516104549190611abb565b60405180910390f35b61047760048036038101906104729190612042565b610deb565b005b610493600480360381019061048e9190611b7b565b610ebf565b005b61049d610f59565b6040516104aa9190611abb565b60405180910390f35b6104cd60048036038101906104c89190611b7b565b610f5f565b6040516104da9190611c4d565b60405180910390f35b6104fd60048036038101906104f89190611b7b565b610f9e565b60405161050a9190611abb565b60405180910390f35b61052d600480360381019061052891906121fa565b610fc2565b005b61053761145e565b6040516105449190611d26565b60405180910390f35b6105556114b6565b6040516105629190611d26565b60405180910390f35b61058560048036038101906105809190612042565b61159e565b6040516105929190611abb565b60405180910390f35b6105a3611677565b6040516105b09190611d26565b60405180910390f35b6105d360048036038101906105ce9190611b22565b6116cf565b005b6105ef60048036038101906105ea9190611b7b565b61177c565b6040516105fc9190611c4d565b60405180910390f35b61060d6117bb565b60405161061a9190611abb565b60405180910390f35b61062b6117c5565b6040516106389190611e06565b60405180910390f35b6000600354905090565b600260009054906101000a900473ffffffffffffffffffffffffffffffffffffffff1673ffffffffffffffffffffffffffffffffffffffff163373ffffffffffffffffffffffffffffffffffffffff16146106db576040517f08c379a00000000000000000000000000000000000000000000000000000000081526004016106d2906122cf565b60405180910390fd5b80601260006101000a81548160ff02191690831515021790555050565b6009818154811061070857600080fd5b906000526020600020016000915090505481565b600e60009054906101000a900463ffffffff1681565b601060009054906101000a900460ff1681565b600160009054906101000a900473ffffffffffffffffffffffffffffffffffffffff1681565b606060098054806020026020016040519081016040528092919081815260200182805480156107b957602002820191906000526020600020905b8154815260200190600101908083116107a5575b5050505050905090565b6000600160009054906101000a900473ffffffffffffffffffffffffffffffffffffffff16905090565b6060600880548060200260200160405190810160405280929190818152602001828054801561087157602002820191906000526020600020905b8160009054906101000a900473ffffffffffffffffffffffffffffffffffffffff1673ffffffffffffffffffffffffffffffffffffffff1681526020019060010190808311610827575b5050505050905090565b6000601460009054906101000a900460ff16905090565b60008060009054906101000a900473ffffffffffffffffffffffffffffffffffffffff16905090565b60008054906101000a900473ffffffffffffffffffffffffffffffffffffffff1681565b600260009054906101000a900473ffffffffffffffffffffffffffffffffffffffff1673ffffffffffffffffffffffffffffffffffffffff163373ffffffffffffffffffffffffffffffffffffffff161461096f576040517f08c379a0000000000000000000000000000000000000000000000000000000008152600401610966906122cf565b60405180910390fd5b60005b6004805490508163ffffffff161015610b3757600060048263ffffffff16815481106109a1576109a06122ef565b5b9060005260206000200160009054906101000a900473ffffffffffffffffffffffffffffffffffffffff1673ffffffffffffffffffffffffffffffffffffffff1660008054906101000a900473ffffffffffffffffffffffffffffffffffffffff16604051602401610a139190611c4d565b6040516020818303038152906040527fbbf89803000000000000000000000000000000000000000000000000000000007bffffffffffffffffffffffffffffffffffffffffffffffffffffffff19166020820180517bffffffffffffffffffffffffffffffffffffffffffffffffffffffff8381831617835250505050604051610a9d9190612398565b6000604051808303816000865af19150503d8060008114610ada576040519150601f19603f3d011682016040523d82523d6000602084013e610adf565b606091505b5050905080610b23576040517f08c379a0000000000000000000000000000000000000000000000000000000008152600401610b1a90612421565b60405180910390fd5b508080610b2f90612470565b915050610972565b50565b601460009054906101000a900460ff1681565b60115481565b601260009054906101000a900460ff1681565b600f5481565b600260009054906101000a900473ffffffffffffffffffffffffffffffffffffffff1681565b60008054906101000a900473ffffffffffffffffffffffffffffffffffffffff1673ffffffffffffffffffffffffffffffffffffffff163373ffffffffffffffffffffffffffffffffffffffff1614610c20576040517f08c379a0000000000000000000000000000000000000000000000000000000008152600401610c179061250f565b60405180910390fd5b6000600a60008573ffffffffffffffffffffffffffffffffffffffff1673ffffffffffffffffffffffffffffffffffffffff168152602001908152602001600020541415610ca3576040517f08c379a0000000000000000000000000000000000000000000000000000000008152600401610c9a906125a1565b60405180910390fd5b60008373ffffffffffffffffffffffffffffffffffffffff168383604051602401610ccf929190612614565b6040516020818303038152906040527f26cd59b3000000000000000000000000000000000000000000000000000000007bffffffffffffffffffffffffffffffffffffffffffffffffffffffff19166020820180517bffffffffffffffffffffffffffffffffffffffffffffffffffffffff8381831617835250505050604051610d599190612398565b6000604051808303816000865af19150503d8060008114610d96576040519150601f19603f3d011682016040523d82523d6000602084013e610d9b565b606091505b5050905080610ddf576040517f08c379a0000000000000000000000000000000000000000000000000000000008152600401610dd6906126b6565b60405180910390fd5b50505050565b60035481565b600260009054906101000a900473ffffffffffffffffffffffffffffffffffffffff1673ffffffffffffffffffffffffffffffffffffffff163373ffffffffffffffffffffffffffffffffffffffff1614610e7b576040517f08c379a0000000000000000000000000000000000000000000000000000000008152600401610e72906122cf565b60405180910390fd5b80600160006101000a81548173ffffffffffffffffffffffffffffffffffffffff021916908373ffffffffffffffffffffffffffffffffffffffff16021790555050565b600260009054906101000a900473ffffffffffffffffffffffffffffffffffffffff1673ffffffffffffffffffffffffffffffffffffffff163373ffffffffffffffffffffffffffffffffffffffff1614610f4f576040517f08c379a0000000000000000000000000000000000000000000000000000000008152600401610f46906122cf565b60405180910390fd5b8060138190555050565b60135481565b60048181548110610f6f57600080fd5b906000526020600020016000915054906101000a900473ffffffffffffffffffffffffffffffffffffffff1681565b60058181548110610fae57600080fd5b906000526020600020016000915090505481565b600260009054906101000a900473ffffffffffffffffffffffffffffffffffffffff1673ffffffffffffffffffffffffffffffffffffffff163373ffffffffffffffffffffffffffffffffffffffff1614611052576040517f08c379a0000000000000000000000000000000000000000000000000000000008152600401611049906122cf565b60405180910390fd5b6110906040518060400160405280601881526020017f46726f6d2044656c6976657279202d2d2d2d2d2d2d2d2d2d0000000000000000815250611853565b60005b8251811015611262576110fe600a60008584815181106110b6576110b56122ef565b5b602002602001015173ffffffffffffffffffffffffffffffffffffffff1673ffffffffffffffffffffffffffffffffffffffff168152602001908152602001600020546118ec565b611121828281518110611114576111136122ef565b5b60200260200101516118ec565b818181518110611134576111336122ef565b5b6020026020010151600a6000858481518110611153576111526122ef565b5b602002602001015173ffffffffffffffffffffffffffffffffffffffff1673ffffffffffffffffffffffffffffffffffffffff1681526020019081526020016000205410156111d7576040517f08c379a00000000000000000000000000000000000000000000000000000000081526004016111ce90612748565b60405180910390fd5b8181815181106111ea576111e96122ef565b5b6020026020010151600d6000858481518110611209576112086122ef565b5b602002602001015173ffffffffffffffffffffffffffffffffffffffff1673ffffffffffffffffffffffffffffffffffffffff16815260200190815260200160002081905550808061125a90612768565b915050611093565b5081600890805190602001906112799291906119ae565b508060099080519060200190611290929190611a38565b5060005b6004805490508163ffffffff16101561145957600060048263ffffffff16815481106112c3576112c26122ef565b5b9060005260206000200160009054906101000a900473ffffffffffffffffffffffffffffffffffffffff1673ffffffffffffffffffffffffffffffffffffffff1660008054906101000a900473ffffffffffffffffffffffffffffffffffffffff166040516024016113359190611c4d565b6040516020818303038152906040527f317c9984000000000000000000000000000000000000000000000000000000007bffffffffffffffffffffffffffffffffffffffffffffffffffffffff19166020820180517bffffffffffffffffffffffffffffffffffffffffffffffffffffffff83818316178352505050506040516113bf9190612398565b6000604051808303816000865af19150503d80600081146113fc576040519150601f19603f3d011682016040523d82523d6000602084013e611401565b606091505b5050905080611445576040517f08c379a000000000000000000000000000000000000000000000000000000000815260040161143c90612823565b60405180910390fd5b50808061145190612470565b915050611294565b505050565b606060058054806020026020016040519081016040528092919081815260200182805480156114ac57602002820191906000526020600020905b815481526020019060010190808311611498575b5050505050905090565b6060600260009054906101000a900473ffffffffffffffffffffffffffffffffffffffff1673ffffffffffffffffffffffffffffffffffffffff163373ffffffffffffffffffffffffffffffffffffffff1614611548576040517f08c379a000000000000000000000000000000000000000000000000000000000815260040161153f906122cf565b60405180910390fd5b600680548060200260200160405190810160405280929190818152602001828054801561159457602002820191906000526020600020905b815481526020019060010190808311611580575b5050505050905090565b6000600260009054906101000a900473ffffffffffffffffffffffffffffffffffffffff1673ffffffffffffffffffffffffffffffffffffffff163373ffffffffffffffffffffffffffffffffffffffff1614611630576040517f08c379a0000000000000000000000000000000000000000000000000000000008152600401611627906122cf565b60405180910390fd5b600b60008373ffffffffffffffffffffffffffffffffffffffff1673ffffffffffffffffffffffffffffffffffffffff168152602001908152602001600020549050919050565b606060078054806020026020016040519081016040528092919081815260200182805480156116c557602002820191906000526020600020905b8154815260200190600101908083116116b1575b5050505050905090565b600260009054906101000a900473ffffffffffffffffffffffffffffffffffffffff1673ffffffffffffffffffffffffffffffffffffffff163373ffffffffffffffffffffffffffffffffffffffff161461175f576040517f08c379a0000000000000000000000000000000000000000000000000000000008152600401611756906122cf565b60405180910390fd5b80601460006101000a81548160ff02191690831515021790555050565b6008818154811061178c57600080fd5b906000526020600020016000915054906101000a900473ffffffffffffffffffffffffffffffffffffffff1681565b6000601154905090565b6060600480548060200260200160405190810160405280929190818152602001828054801561184957602002820191906000526020600020905b8160009054906101000a900473ffffffffffffffffffffffffffffffffffffffff1673ffffffffffffffffffffffffffffffffffffffff16815260200190600101908083116117ff575b5050505050905090565b6118e9816040516024016118679190612843565b6040516020818303038152906040527f41304fac000000000000000000000000000000000000000000000000000000007bffffffffffffffffffffffffffffffffffffffffffffffffffffffff19166020820180517bffffffffffffffffffffffffffffffffffffffffffffffffffffffff8381831617835250505050611985565b50565b611982816040516024016119009190611abb565b6040516020818303038152906040527ff5b1bba9000000000000000000000000000000000000000000000000000000007bffffffffffffffffffffffffffffffffffffffffffffffffffffffff19166020820180517bffffffffffffffffffffffffffffffffffffffffffffffffffffffff8381831617835250505050611985565b50565b60008151905060006a636f6e736f6c652e6c6f679050602083016000808483855afa5050505050565b828054828255906000526020600020908101928215611a27579160200282015b82811115611a265782518260006101000a81548173ffffffffffffffffffffffffffffffffffffffff021916908373ffffffffffffffffffffffffffffffffffffffff160217905550916020019190600101906119ce565b5b509050611a349190611a85565b5090565b828054828255906000526020600020908101928215611a74579160200282015b82811115611a73578251825591602001919060010190611a58565b5b509050611a819190611a85565b5090565b5b80821115611a9e576000816000905550600101611a86565b5090565b6000819050919050565b611ab581611aa2565b82525050565b6000602082019050611ad06000830184611aac565b92915050565b6000604051905090565b600080fd5b600080fd5b60008115159050919050565b611aff81611aea565b8114611b0a57600080fd5b50565b600081359050611b1c81611af6565b92915050565b600060208284031215611b3857611b37611ae0565b5b6000611b4684828501611b0d565b91505092915050565b611b5881611aa2565b8114611b6357600080fd5b50565b600081359050611b7581611b4f565b92915050565b600060208284031215611b9157611b90611ae0565b5b6000611b9f84828501611b66565b91505092915050565b600063ffffffff82169050919050565b611bc181611ba8565b82525050565b6000602082019050611bdc6000830184611bb8565b92915050565b611beb81611aea565b82525050565b6000602082019050611c066000830184611be2565b92915050565b600073ffffffffffffffffffffffffffffffffffffffff82169050919050565b6000611c3782611c0c565b9050919050565b611c4781611c2c565b82525050565b6000602082019050611c626000830184611c3e565b92915050565b600081519050919050565b600082825260208201905092915050565b6000819050602082019050919050565b611c9d81611aa2565b82525050565b6000611caf8383611c94565b60208301905092915050565b6000602082019050919050565b6000611cd382611c68565b611cdd8185611c73565b9350611ce883611c84565b8060005b83811015611d19578151611d008882611ca3565b9750611d0b83611cbb565b925050600181019050611cec565b5085935050505092915050565b60006020820190508181036000830152611d408184611cc8565b905092915050565b600081519050919050565b600082825260208201905092915050565b6000819050602082019050919050565b611d7d81611c2c565b82525050565b6000611d8f8383611d74565b60208301905092915050565b6000602082019050919050565b6000611db382611d48565b611dbd8185611d53565b9350611dc883611d64565b8060005b83811015611df9578151611de08882611d83565b9750611deb83611d9b565b925050600181019050611dcc565b5085935050505092915050565b60006020820190508181036000830152611e208184611da8565b905092915050565b611e3181611c2c565b8114611e3c57600080fd5b50565b600081359050611e4e81611e28565b92915050565b600080fd5b600080fd5b6000601f19601f8301169050919050565b7f4e487b7100000000000000000000000000000000000000000000000000000000600052604160045260246000fd5b611ea782611e5e565b810181811067ffffffffffffffff82111715611ec657611ec5611e6f565b5b80604052505050565b6000611ed9611ad6565b9050611ee58282611e9e565b919050565b600067ffffffffffffffff821115611f0557611f04611e6f565b5b611f0e82611e5e565b9050602081019050919050565b82818337600083830152505050565b6000611f3d611f3884611eea565b611ecf565b905082815260208101848484011115611f5957611f58611e59565b5b611f64848285611f1b565b509392505050565b600082601f830112611f8157611f80611e54565b5b8135611f91848260208601611f2a565b91505092915050565b600060ff82169050919050565b611fb081611f9a565b8114611fbb57600080fd5b50565b600081359050611fcd81611fa7565b92915050565b600080600060608486031215611fec57611feb611ae0565b5b6000611ffa86828701611e3f565b935050602084013567ffffffffffffffff81111561201b5761201a611ae5565b5b61202786828701611f6c565b925050604061203886828701611fbe565b9150509250925092565b60006020828403121561205857612057611ae0565b5b600061206684828501611e3f565b91505092915050565b600067ffffffffffffffff82111561208a57612089611e6f565b5b602082029050602081019050919050565b600080fd5b60006120b36120ae8461206f565b611ecf565b905080838252602082019050602084028301858111156120d6576120d561209b565b5b835b818110156120ff57806120eb8882611e3f565b8452602084019350506020810190506120d8565b5050509392505050565b600082601f83011261211e5761211d611e54565b5b813561212e8482602086016120a0565b91505092915050565b600067ffffffffffffffff82111561215257612151611e6f565b5b602082029050602081019050919050565b600061217661217184612137565b611ecf565b905080838252602082019050602084028301858111156121995761219861209b565b5b835b818110156121c257806121ae8882611b66565b84526020840193505060208101905061219b565b5050509392505050565b600082601f8301126121e1576121e0611e54565b5b81356121f1848260208601612163565b91505092915050565b6000806040838503121561221157612210611ae0565b5b600083013567ffffffffffffffff81111561222f5761222e611ae5565b5b61223b85828601612109565b925050602083013567ffffffffffffffff81111561225c5761225b611ae5565b5b612268858286016121cc565b9150509250929050565b600082825260208201905092915050565b7f45436d617274206f6e6c79000000000000000000000000000000000000000000600082015250565b60006122b9600b83612272565b91506122c482612283565b602082019050919050565b600060208201905081810360008301526122e8816122ac565b9050919050565b7f4e487b7100000000000000000000000000000000000000000000000000000000600052603260045260246000fd5b600081519050919050565b600081905092915050565b60005b83811015612352578082015181840152602081019050612337565b83811115612361576000848401525b50505050565b60006123728261231e565b61237c8185612329565b935061238c818560208601612334565b80840191505092915050565b60006123a48284612367565b915081905092915050565b7f4275796572204e6f7420416464656420746f207468652050726f64756374204660008201527f726f6d204f5244455220636f6e74726163740000000000000000000000000000602082015250565b600061240b603283612272565b9150612416826123af565b604082019050919050565b6000602082019050818103600083015261243a816123fe565b9050919050565b7f4e487b7100000000000000000000000000000000000000000000000000000000600052601160045260246000fd5b600061247b82611ba8565b915063ffffffff82141561249257612491612441565b5b600182019050919050565b7f43616e206e6f742067697665205265766965772d526174696e672e204265636160008201527f75736520596f7520617265206e6f742074686520627579657221000000000000602082015250565b60006124f9603a83612272565b91506125048261249d565b604082019050919050565b60006020820190508181036000830152612528816124ec565b9050919050565b7f596f7520686176656e277420707572636861736564207468652070726f64756360008201527f7421000000000000000000000000000000000000000000000000000000000000602082015250565b600061258b602283612272565b91506125968261252f565b604082019050919050565b600060208201905081810360008301526125ba8161257e565b9050919050565b600081519050919050565b60006125d7826125c1565b6125e18185612272565b93506125f1818560208601612334565b6125fa81611e5e565b840191505092915050565b61260e81611f9a565b82525050565b6000604082019050818103600083015261262e81856125cc565b905061263d6020830184612605565b9392505050565b7f5265766965772d526174696e672050726f7664696e67206973204641494c454460008201527f2121000000000000000000000000000000000000000000000000000000000000602082015250565b60006126a0602283612272565b91506126ab82612644565b604082019050919050565b600060208201905081810360008301526126cf81612693565b9050919050565b7f64656c697665727920646f65736e2774206d617463682077697468206f72646560008201527f7200000000000000000000000000000000000000000000000000000000000000602082015250565b6000612732602183612272565b915061273d826126d6565b604082019050919050565b6000602082019050818103600083015261276181612725565b9050919050565b600061277382611aa2565b91507fffffffffffffffffffffffffffffffffffffffffffffffffffffffffffffffff8214156127a6576127a5612441565b5b600182019050919050565b7f5265766965772d526174696e67205065726d697373696f6e20676976656e206960008201527f73204641494c4544212100000000000000000000000000000000000000000000602082015250565b600061280d602a83612272565b9150612818826127b1565b604082019050919050565b6000602082019050818103600083015261283c81612800565b9050919050565b6000602082019050818103600083015261285d81846125cc565b90509291505056fea26469706673582212203d9c7d46509260bc4eb142b52b1b03a2f11a59e297e6c4007d3bbebd6fdab2af64736f6c63430008080033",
  "linkReferences": {},
  "deployedLinkReferences": {}
}