{
	"learn_contracts/1/SimpleStorage.sol": {
		"SimpleStorage": {
			"abi": [
				{
					"inputs": [
						{
							"internalType": "string",
							"name": "_name",
							"type": "string"
						},
						{
							"internalType": "uint256",
							"name": "_favoriteNumber",
							"type": "uint256"
						}
					],
					"name": "addPerson",
					"outputs": [],
					"stateMutability": "nonpayable",
					"type": "function"
				},
				{
					"inputs": [
						{
							"internalType": "uint256",
							"name": "",
							"type": "uint256"
						}
					],
					"name": "favNumToName",
					"outputs": [
						{
							"internalType": "string",
							"name": "",
							"type": "string"
						}
					],
					"stateMutability": "view",
					"type": "function"
				},
				{
					"inputs": [
						{
							"internalType": "uint256",
							"name": "_index",
							"type": "uint256"
						}
					],
					"name": "getPeople",
					"outputs": [
						{
							"internalType": "string",
							"name": "",
							"type": "string"
						},
						{
							"internalType": "uint256",
							"name": "",
							"type": "uint256"
						}
					],
					"stateMutability": "view",
					"type": "function"
				},
				{
					"inputs": [
						{
							"internalType": "string",
							"name": "",
							"type": "string"
						}
					],
					"name": "nameToFavoriteNumber",
					"outputs": [
						{
							"internalType": "uint256",
							"name": "",
							"type": "uint256"
						}
					],
					"stateMutability": "view",
					"type": "function"
				},
				{
					"inputs": [
						{
							"internalType": "uint256",
							"name": "",
							"type": "uint256"
						}
					],
					"name": "people",
					"outputs": [
						{
							"internalType": "uint256",
							"name": "favoriteNumber",
							"type": "uint256"
						},
						{
							"internalType": "string",
							"name": "name",
							"type": "string"
						}
					],
					"stateMutability": "view",
					"type": "function"
				},
				{
					"inputs": [],
					"name": "retrieve",
					"outputs": [
						{
							"internalType": "uint256",
							"name": "",
							"type": "uint256"
						}
					],
					"stateMutability": "view",
					"type": "function"
				},
				{
					"inputs": [
						{
							"internalType": "uint256",
							"name": "_favoriteNumber",
							"type": "uint256"
						}
					],
					"name": "store",
					"outputs": [],
					"stateMutability": "nonpayable",
					"type": "function"
				}
			],
			"devdoc": {
				"kind": "dev",
				"methods": {},
				"version": 1
			},
			"evm": {
				"assembly": "    /* \"learn_contracts/1/SimpleStorage.sol\":138:1180  contract SimpleStorage {... */\n  mstore(0x40, 0x80)\n  callvalue\n  dup1\n  iszero\n  tag_1\n  jumpi\n  0x00\n  dup1\n  revert\ntag_1:\n  pop\n  dataSize(sub_0)\n  dup1\n  dataOffset(sub_0)\n  0x00\n  codecopy\n  0x00\n  return\nstop\n\nsub_0: assembly {\n        /* \"learn_contracts/1/SimpleStorage.sol\":138:1180  contract SimpleStorage {... */\n      mstore(0x40, 0x80)\n      callvalue\n      dup1\n      iszero\n      tag_1\n      jumpi\n      0x00\n      dup1\n      revert\n    tag_1:\n      pop\n      jumpi(tag_2, lt(calldatasize, 0x04))\n      shr(0xe0, calldataload(0x00))\n      dup1\n      0x6f760f41\n      gt\n      tag_10\n      jumpi\n      dup1\n      0x6f760f41\n      eq\n      tag_6\n      jumpi\n      dup1\n      0x8bab8dd5\n      eq\n      tag_7\n      jumpi\n      dup1\n      0x9e7a13ad\n      eq\n      tag_8\n      jumpi\n      dup1\n      0xa2718630\n      eq\n      tag_9\n      jumpi\n      jump(tag_2)\n    tag_10:\n      dup1\n      0x10b4801a\n      eq\n      tag_3\n      jumpi\n      dup1\n      0x2e64cec1\n      eq\n      tag_4\n      jumpi\n      dup1\n      0x6057361d\n      eq\n      tag_5\n      jumpi\n    tag_2:\n      0x00\n      dup1\n      revert\n        /* \"learn_contracts/1/SimpleStorage.sol\":942:1178  function getPeople(uint256 _index) view public returns (string memory, uint256){... */\n    tag_3:\n      tag_11\n      0x04\n      dup1\n      calldatasize\n      sub\n      dup2\n      add\n      swap1\n      tag_12\n      swap2\n      swap1\n      tag_13\n      jump\t// in\n    tag_12:\n      tag_14\n      jump\t// in\n    tag_11:\n      mload(0x40)\n      tag_15\n      swap3\n      swap2\n      swap1\n      tag_16\n      jump\t// in\n    tag_15:\n      mload(0x40)\n      dup1\n      swap2\n      sub\n      swap1\n      return\n        /* \"learn_contracts/1/SimpleStorage.sol\":349:436  function retrieve() public view returns (uint256){... */\n    tag_4:\n      tag_17\n      tag_18\n      jump\t// in\n    tag_17:\n      mload(0x40)\n      tag_19\n      swap2\n      swap1\n      tag_20\n      jump\t// in\n    tag_19:\n      mload(0x40)\n      dup1\n      swap2\n      sub\n      swap1\n      return\n        /* \"learn_contracts/1/SimpleStorage.sol\":198:302  function store(uint256 _favoriteNumber) public virtual {... */\n    tag_5:\n      tag_21\n      0x04\n      dup1\n      calldatasize\n      sub\n      dup2\n      add\n      swap1\n      tag_22\n      swap2\n      swap1\n      tag_13\n      jump\t// in\n    tag_22:\n      tag_23\n      jump\t// in\n    tag_21:\n      stop\n        /* \"learn_contracts/1/SimpleStorage.sol\":702:936  function addPerson(string memory _name, uint256 _favoriteNumber) public {... */\n    tag_6:\n      tag_24\n      0x04\n      dup1\n      calldatasize\n      sub\n      dup2\n      add\n      swap1\n      tag_25\n      swap2\n      swap1\n      tag_26\n      jump\t// in\n    tag_25:\n      tag_27\n      jump\t// in\n    tag_24:\n      stop\n        /* \"learn_contracts/1/SimpleStorage.sol\":585:639  mapping(string => uint256) public nameToFavoriteNumber */\n    tag_7:\n      tag_28\n      0x04\n      dup1\n      calldatasize\n      sub\n      dup2\n      add\n      swap1\n      tag_29\n      swap2\n      swap1\n      tag_30\n      jump\t// in\n    tag_29:\n      tag_31\n      jump\t// in\n    tag_28:\n      mload(0x40)\n      tag_32\n      swap2\n      swap1\n      tag_20\n      jump\t// in\n    tag_32:\n      mload(0x40)\n      dup1\n      swap2\n      sub\n      swap1\n      return\n        /* \"learn_contracts/1/SimpleStorage.sol\":556:578  People[] public people */\n    tag_8:\n      tag_33\n      0x04\n      dup1\n      calldatasize\n      sub\n      dup2\n      add\n      swap1\n      tag_34\n      swap2\n      swap1\n      tag_13\n      jump\t// in\n    tag_34:\n      tag_35\n      jump\t// in\n    tag_33:\n      mload(0x40)\n      tag_36\n      swap3\n      swap2\n      swap1\n      tag_37\n      jump\t// in\n    tag_36:\n      mload(0x40)\n      dup1\n      swap2\n      sub\n      swap1\n      return\n        /* \"learn_contracts/1/SimpleStorage.sol\":645:691  mapping(uint256 => string) public favNumToName */\n    tag_9:\n      tag_38\n      0x04\n      dup1\n      calldatasize\n      sub\n      dup2\n      add\n      swap1\n      tag_39\n      swap2\n      swap1\n      tag_13\n      jump\t// in\n    tag_39:\n      tag_40\n      jump\t// in\n    tag_38:\n      mload(0x40)\n      tag_41\n      swap2\n      swap1\n      tag_42\n      jump\t// in\n    tag_41:\n      mload(0x40)\n      dup1\n      swap2\n      sub\n      swap1\n      return\n        /* \"learn_contracts/1/SimpleStorage.sol\":942:1178  function getPeople(uint256 _index) view public returns (string memory, uint256){... */\n    tag_14:\n        /* \"learn_contracts/1/SimpleStorage.sol\":998:1011  string memory */\n      0x60\n        /* \"learn_contracts/1/SimpleStorage.sol\":1013:1020  uint256 */\n      0x00\n        /* \"learn_contracts/1/SimpleStorage.sol\":1031:1055  string memory namePerson */\n      dup1\n        /* \"learn_contracts/1/SimpleStorage.sol\":1058:1064  people */\n      0x01\n        /* \"learn_contracts/1/SimpleStorage.sol\":1065:1071  _index */\n      dup5\n        /* \"learn_contracts/1/SimpleStorage.sol\":1058:1072  people[_index] */\n      dup2\n      sload\n      dup2\n      lt\n      tag_44\n      jumpi\n      tag_45\n      tag_46\n      jump\t// in\n    tag_45:\n    tag_44:\n      swap1\n      0x00\n      mstore\n      keccak256(0x00, 0x20)\n      swap1\n      0x02\n      mul\n      add\n        /* \"learn_contracts/1/SimpleStorage.sol\":1058:1077  people[_index].name */\n      0x01\n      add\n        /* \"learn_contracts/1/SimpleStorage.sol\":1031:1077  string memory namePerson = people[_index].name */\n      dup1\n      sload\n      tag_48\n      swap1\n      tag_49\n      jump\t// in\n    tag_48:\n      dup1\n      0x1f\n      add\n      0x20\n      dup1\n      swap2\n      div\n      mul\n      0x20\n      add\n      mload(0x40)\n      swap1\n      dup2\n      add\n      0x40\n      mstore\n      dup1\n      swap3\n      swap2\n      swap1\n      dup2\n      dup2\n      mstore\n      0x20\n      add\n      dup3\n      dup1\n      sload\n      tag_50\n      swap1\n      tag_49\n      jump\t// in\n    tag_50:\n      dup1\n      iszero\n      tag_51\n      jumpi\n      dup1\n      0x1f\n      lt\n      tag_52\n      jumpi\n      0x0100\n      dup1\n      dup4\n      sload\n      div\n      mul\n      dup4\n      mstore\n      swap2\n      0x20\n      add\n      swap2\n      jump(tag_51)\n    tag_52:\n      dup3\n      add\n      swap2\n      swap1\n      0x00\n      mstore\n      keccak256(0x00, 0x20)\n      swap1\n    tag_53:\n      dup2\n      sload\n      dup2\n      mstore\n      swap1\n      0x01\n      add\n      swap1\n      0x20\n      add\n      dup1\n      dup4\n      gt\n      tag_53\n      jumpi\n      dup3\n      swap1\n      sub\n      0x1f\n      and\n      dup3\n      add\n      swap2\n    tag_51:\n      pop\n      pop\n      pop\n      pop\n      pop\n      swap1\n      pop\n        /* \"learn_contracts/1/SimpleStorage.sol\":1087:1101  uint256 favNum */\n      0x00\n        /* \"learn_contracts/1/SimpleStorage.sol\":1104:1110  people */\n      0x01\n        /* \"learn_contracts/1/SimpleStorage.sol\":1111:1117  _index */\n      dup6\n        /* \"learn_contracts/1/SimpleStorage.sol\":1104:1118  people[_index] */\n      dup2\n      sload\n      dup2\n      lt\n      tag_54\n      jumpi\n      tag_55\n      tag_46\n      jump\t// in\n    tag_55:\n    tag_54:\n      swap1\n      0x00\n      mstore\n      keccak256(0x00, 0x20)\n      swap1\n      0x02\n      mul\n      add\n        /* \"learn_contracts/1/SimpleStorage.sol\":1104:1133  people[_index].favoriteNumber */\n      0x00\n      add\n      sload\n        /* \"learn_contracts/1/SimpleStorage.sol\":1087:1133  uint256 favNum = people[_index].favoriteNumber */\n      swap1\n      pop\n        /* \"learn_contracts/1/SimpleStorage.sol\":1152:1162  namePerson */\n      dup2\n        /* \"learn_contracts/1/SimpleStorage.sol\":1164:1170  favNum */\n      dup2\n        /* \"learn_contracts/1/SimpleStorage.sol\":1144:1171  return (namePerson, favNum) */\n      swap4\n      pop\n      swap4\n      pop\n      pop\n      pop\n        /* \"learn_contracts/1/SimpleStorage.sol\":942:1178  function getPeople(uint256 _index) view public returns (string memory, uint256){... */\n      swap2\n      pop\n      swap2\n      jump\t// out\n        /* \"learn_contracts/1/SimpleStorage.sol\":349:436  function retrieve() public view returns (uint256){... */\n    tag_18:\n        /* \"learn_contracts/1/SimpleStorage.sol\":390:397  uint256 */\n      0x00\n        /* \"learn_contracts/1/SimpleStorage.sol\":415:429  favoriteNumber */\n      dup1\n      sload\n        /* \"learn_contracts/1/SimpleStorage.sol\":408:429  return favoriteNumber */\n      swap1\n      pop\n        /* \"learn_contracts/1/SimpleStorage.sol\":349:436  function retrieve() public view returns (uint256){... */\n      swap1\n      jump\t// out\n        /* \"learn_contracts/1/SimpleStorage.sol\":198:302  function store(uint256 _favoriteNumber) public virtual {... */\n    tag_23:\n        /* \"learn_contracts/1/SimpleStorage.sol\":280:295  _favoriteNumber */\n      dup1\n        /* \"learn_contracts/1/SimpleStorage.sol\":263:277  favoriteNumber */\n      0x00\n        /* \"learn_contracts/1/SimpleStorage.sol\":263:295  favoriteNumber = _favoriteNumber */\n      dup2\n      swap1\n      sstore\n      pop\n        /* \"learn_contracts/1/SimpleStorage.sol\":198:302  function store(uint256 _favoriteNumber) public virtual {... */\n      pop\n      jump\t// out\n        /* \"learn_contracts/1/SimpleStorage.sol\":702:936  function addPerson(string memory _name, uint256 _favoriteNumber) public {... */\n    tag_27:\n        /* \"learn_contracts/1/SimpleStorage.sol\":784:790  people */\n      0x01\n        /* \"learn_contracts/1/SimpleStorage.sol\":796:826  People(_favoriteNumber, _name) */\n      mload(0x40)\n      dup1\n      0x40\n      add\n      0x40\n      mstore\n      dup1\n        /* \"learn_contracts/1/SimpleStorage.sol\":803:818  _favoriteNumber */\n      dup4\n        /* \"learn_contracts/1/SimpleStorage.sol\":796:826  People(_favoriteNumber, _name) */\n      dup2\n      mstore\n      0x20\n      add\n        /* \"learn_contracts/1/SimpleStorage.sol\":820:825  _name */\n      dup5\n        /* \"learn_contracts/1/SimpleStorage.sol\":796:826  People(_favoriteNumber, _name) */\n      dup2\n      mstore\n      pop\n        /* \"learn_contracts/1/SimpleStorage.sol\":784:827  people.push(People(_favoriteNumber, _name)) */\n      swap1\n      dup1\n      0x01\n      dup2\n      sload\n      add\n      dup1\n      dup3\n      sstore\n      dup1\n      swap2\n      pop\n      pop\n      0x01\n      swap1\n      sub\n      swap1\n      0x00\n      mstore\n      keccak256(0x00, 0x20)\n      swap1\n      0x02\n      mul\n      add\n      0x00\n      swap1\n      swap2\n      swap1\n      swap2\n      swap1\n      swap2\n      pop\n      0x00\n      dup3\n      add\n      mload\n      dup2\n      0x00\n      add\n      sstore\n      0x20\n      dup3\n      add\n      mload\n      dup2\n      0x01\n      add\n      swap1\n      dup2\n      tag_61\n      swap2\n      swap1\n      tag_62\n      jump\t// in\n    tag_61:\n      pop\n      pop\n      pop\n        /* \"learn_contracts/1/SimpleStorage.sol\":867:882  _favoriteNumber */\n      dup1\n        /* \"learn_contracts/1/SimpleStorage.sol\":837:857  nameToFavoriteNumber */\n      0x02\n        /* \"learn_contracts/1/SimpleStorage.sol\":858:863  _name */\n      dup4\n        /* \"learn_contracts/1/SimpleStorage.sol\":837:864  nameToFavoriteNumber[_name] */\n      mload(0x40)\n      tag_63\n      swap2\n      swap1\n      tag_64\n      jump\t// in\n    tag_63:\n      swap1\n      dup2\n      mstore\n      0x20\n      add\n      mload(0x40)\n      dup1\n      swap2\n      sub\n      swap1\n      keccak256\n        /* \"learn_contracts/1/SimpleStorage.sol\":837:882  nameToFavoriteNumber[_name] = _favoriteNumber */\n      dup2\n      swap1\n      sstore\n      pop\n        /* \"learn_contracts/1/SimpleStorage.sol\":924:929  _name */\n      dup2\n        /* \"learn_contracts/1/SimpleStorage.sol\":892:904  favNumToName */\n      0x03\n        /* \"learn_contracts/1/SimpleStorage.sol\":892:921  favNumToName[_favoriteNumber] */\n      0x00\n        /* \"learn_contracts/1/SimpleStorage.sol\":905:920  _favoriteNumber */\n      dup4\n        /* \"learn_contracts/1/SimpleStorage.sol\":892:921  favNumToName[_favoriteNumber] */\n      dup2\n      mstore\n      0x20\n      add\n      swap1\n      dup2\n      mstore\n      0x20\n      add\n      0x00\n      keccak256\n        /* \"learn_contracts/1/SimpleStorage.sol\":892:929  favNumToName[_favoriteNumber] = _name */\n      swap1\n      dup2\n      tag_65\n      swap2\n      swap1\n      tag_62\n      jump\t// in\n    tag_65:\n      pop\n        /* \"learn_contracts/1/SimpleStorage.sol\":702:936  function addPerson(string memory _name, uint256 _favoriteNumber) public {... */\n      pop\n      pop\n      jump\t// out\n        /* \"learn_contracts/1/SimpleStorage.sol\":585:639  mapping(string => uint256) public nameToFavoriteNumber */\n    tag_31:\n      0x02\n      dup2\n      dup1\n      mload\n      0x20\n      dup2\n      add\n      dup3\n      add\n      dup1\n      mload\n      dup5\n      dup3\n      mstore\n      0x20\n      dup4\n      add\n      0x20\n      dup6\n      add\n      keccak256\n      dup2\n      dup4\n      mstore\n      dup1\n      swap6\n      pop\n      pop\n      pop\n      pop\n      pop\n      pop\n      0x00\n      swap2\n      pop\n      swap1\n      pop\n      sload\n      dup2\n      jump\t// out\n        /* \"learn_contracts/1/SimpleStorage.sol\":556:578  People[] public people */\n    tag_35:\n      0x01\n      dup2\n      dup2\n      sload\n      dup2\n      lt\n      tag_66\n      jumpi\n      0x00\n      dup1\n      revert\n    tag_66:\n      swap1\n      0x00\n      mstore\n      keccak256(0x00, 0x20)\n      swap1\n      0x02\n      mul\n      add\n      0x00\n      swap2\n      pop\n      swap1\n      pop\n      dup1\n      0x00\n      add\n      sload\n      swap1\n      dup1\n      0x01\n      add\n      dup1\n      sload\n      tag_68\n      swap1\n      tag_49\n      jump\t// in\n    tag_68:\n      dup1\n      0x1f\n      add\n      0x20\n      dup1\n      swap2\n      div\n      mul\n      0x20\n      add\n      mload(0x40)\n      swap1\n      dup2\n      add\n      0x40\n      mstore\n      dup1\n      swap3\n      swap2\n      swap1\n      dup2\n      dup2\n      mstore\n      0x20\n      add\n      dup3\n      dup1\n      sload\n      tag_69\n      swap1\n      tag_49\n      jump\t// in\n    tag_69:\n      dup1\n      iszero\n      tag_70\n      jumpi\n      dup1\n      0x1f\n      lt\n      tag_71\n      jumpi\n      0x0100\n      dup1\n      dup4\n      sload\n      div\n      mul\n      dup4\n      mstore\n      swap2\n      0x20\n      add\n      swap2\n      jump(tag_70)\n    tag_71:\n      dup3\n      add\n      swap2\n      swap1\n      0x00\n      mstore\n      keccak256(0x00, 0x20)\n      swap1\n    tag_72:\n      dup2\n      sload\n      dup2\n      mstore\n      swap1\n      0x01\n      add\n      swap1\n      0x20\n      add\n      dup1\n      dup4\n      gt\n      tag_72\n      jumpi\n      dup3\n      swap1\n      sub\n      0x1f\n      and\n      dup3\n      add\n      swap2\n    tag_70:\n      pop\n      pop\n      pop\n      pop\n      pop\n      swap1\n      pop\n      dup3\n      jump\t// out\n        /* \"learn_contracts/1/SimpleStorage.sol\":645:691  mapping(uint256 => string) public favNumToName */\n    tag_40:\n      mstore(0x20, 0x03)\n      dup1\n      0x00\n      mstore\n      keccak256(0x00, 0x40)\n      0x00\n      swap2\n      pop\n      swap1\n      pop\n      dup1\n      sload\n      tag_73\n      swap1\n      tag_49\n      jump\t// in\n    tag_73:\n      dup1\n      0x1f\n      add\n      0x20\n      dup1\n      swap2\n      div\n      mul\n      0x20\n      add\n      mload(0x40)\n      swap1\n      dup2\n      add\n      0x40\n      mstore\n      dup1\n      swap3\n      swap2\n      swap1\n      dup2\n      dup2\n      mstore\n      0x20\n      add\n      dup3\n      dup1\n      sload\n      tag_74\n      swap1\n      tag_49\n      jump\t// in\n    tag_74:\n      dup1\n      iszero\n      tag_75\n      jumpi\n      dup1\n      0x1f\n      lt\n      tag_76\n      jumpi\n      0x0100\n      dup1\n      dup4\n      sload\n      div\n      mul\n      dup4\n      mstore\n      swap2\n      0x20\n      add\n      swap2\n      jump(tag_75)\n    tag_76:\n      dup3\n      add\n      swap2\n      swap1\n      0x00\n      mstore\n      keccak256(0x00, 0x20)\n      swap1\n    tag_77:\n      dup2\n      sload\n      dup2\n      mstore\n      swap1\n      0x01\n      add\n      swap1\n      0x20\n      add\n      dup1\n      dup4\n      gt\n      tag_77\n      jumpi\n      dup3\n      swap1\n      sub\n      0x1f\n      and\n      dup3\n      add\n      swap2\n    tag_75:\n      pop\n      pop\n      pop\n      pop\n      pop\n      dup2\n      jump\t// out\n        /* \"#utility.yul\":7:82   */\n    tag_78:\n        /* \"#utility.yul\":40:46   */\n      0x00\n        /* \"#utility.yul\":73:75   */\n      0x40\n        /* \"#utility.yul\":67:76   */\n      mload\n        /* \"#utility.yul\":57:76   */\n      swap1\n      pop\n        /* \"#utility.yul\":7:82   */\n      swap1\n      jump\t// out\n        /* \"#utility.yul\":88:205   */\n    tag_79:\n        /* \"#utility.yul\":197:198   */\n      0x00\n        /* \"#utility.yul\":194:195   */\n      dup1\n        /* \"#utility.yul\":187:199   */\n      revert\n        /* \"#utility.yul\":211:328   */\n    tag_80:\n        /* \"#utility.yul\":320:321   */\n      0x00\n        /* \"#utility.yul\":317:318   */\n      dup1\n        /* \"#utility.yul\":310:322   */\n      revert\n        /* \"#utility.yul\":334:411   */\n    tag_81:\n        /* \"#utility.yul\":371:378   */\n      0x00\n        /* \"#utility.yul\":400:405   */\n      dup2\n        /* \"#utility.yul\":389:405   */\n      swap1\n      pop\n        /* \"#utility.yul\":334:411   */\n      swap2\n      swap1\n      pop\n      jump\t// out\n        /* \"#utility.yul\":417:539   */\n    tag_82:\n        /* \"#utility.yul\":490:514   */\n      tag_123\n        /* \"#utility.yul\":508:513   */\n      dup2\n        /* \"#utility.yul\":490:514   */\n      tag_81\n      jump\t// in\n    tag_123:\n        /* \"#utility.yul\":483:488   */\n      dup2\n        /* \"#utility.yul\":480:515   */\n      eq\n        /* \"#utility.yul\":470:533   */\n      tag_124\n      jumpi\n        /* \"#utility.yul\":529:530   */\n      0x00\n        /* \"#utility.yul\":526:527   */\n      dup1\n        /* \"#utility.yul\":519:531   */\n      revert\n        /* \"#utility.yul\":470:533   */\n    tag_124:\n        /* \"#utility.yul\":417:539   */\n      pop\n      jump\t// out\n        /* \"#utility.yul\":545:684   */\n    tag_83:\n        /* \"#utility.yul\":591:596   */\n      0x00\n        /* \"#utility.yul\":629:635   */\n      dup2\n        /* \"#utility.yul\":616:636   */\n      calldataload\n        /* \"#utility.yul\":607:636   */\n      swap1\n      pop\n        /* \"#utility.yul\":645:678   */\n      tag_126\n        /* \"#utility.yul\":672:677   */\n      dup2\n        /* \"#utility.yul\":645:678   */\n      tag_82\n      jump\t// in\n    tag_126:\n        /* \"#utility.yul\":545:684   */\n      swap3\n      swap2\n      pop\n      pop\n      jump\t// out\n        /* \"#utility.yul\":690:1019   */\n    tag_13:\n        /* \"#utility.yul\":749:755   */\n      0x00\n        /* \"#utility.yul\":798:800   */\n      0x20\n        /* \"#utility.yul\":786:795   */\n      dup3\n        /* \"#utility.yul\":777:784   */\n      dup5\n        /* \"#utility.yul\":773:796   */\n      sub\n        /* \"#utility.yul\":769:801   */\n      slt\n        /* \"#utility.yul\":766:885   */\n      iszero\n      tag_128\n      jumpi\n        /* \"#utility.yul\":804:883   */\n      tag_129\n      tag_79\n      jump\t// in\n    tag_129:\n        /* \"#utility.yul\":766:885   */\n    tag_128:\n        /* \"#utility.yul\":924:925   */\n      0x00\n        /* \"#utility.yul\":949:1002   */\n      tag_130\n        /* \"#utility.yul\":994:1001   */\n      dup5\n        /* \"#utility.yul\":985:991   */\n      dup3\n        /* \"#utility.yul\":974:983   */\n      dup6\n        /* \"#utility.yul\":970:992   */\n      add\n        /* \"#utility.yul\":949:1002   */\n      tag_83\n      jump\t// in\n    tag_130:\n        /* \"#utility.yul\":939:1002   */\n      swap2\n      pop\n        /* \"#utility.yul\":895:1012   */\n      pop\n        /* \"#utility.yul\":690:1019   */\n      swap3\n      swap2\n      pop\n      pop\n      jump\t// out\n        /* \"#utility.yul\":1025:1124   */\n    tag_84:\n        /* \"#utility.yul\":1077:1083   */\n      0x00\n        /* \"#utility.yul\":1111:1116   */\n      dup2\n        /* \"#utility.yul\":1105:1117   */\n      mload\n        /* \"#utility.yul\":1095:1117   */\n      swap1\n      pop\n        /* \"#utility.yul\":1025:1124   */\n      swap2\n      swap1\n      pop\n      jump\t// out\n        /* \"#utility.yul\":1130:1299   */\n    tag_85:\n        /* \"#utility.yul\":1214:1225   */\n      0x00\n        /* \"#utility.yul\":1248:1254   */\n      dup3\n        /* \"#utility.yul\":1243:1246   */\n      dup3\n        /* \"#utility.yul\":1236:1255   */\n      mstore\n        /* \"#utility.yul\":1288:1292   */\n      0x20\n        /* \"#utility.yul\":1283:1286   */\n      dup3\n        /* \"#utility.yul\":1279:1293   */\n      add\n        /* \"#utility.yul\":1264:1293   */\n      swap1\n      pop\n        /* \"#utility.yul\":1130:1299   */\n      swap3\n      swap2\n      pop\n      pop\n      jump\t// out\n        /* \"#utility.yul\":1305:1551   */\n    tag_86:\n        /* \"#utility.yul\":1386:1387   */\n      0x00\n        /* \"#utility.yul\":1396:1509   */\n    tag_134:\n        /* \"#utility.yul\":1410:1416   */\n      dup4\n        /* \"#utility.yul\":1407:1408   */\n      dup2\n        /* \"#utility.yul\":1404:1417   */\n      lt\n        /* \"#utility.yul\":1396:1509   */\n      iszero\n      tag_136\n      jumpi\n        /* \"#utility.yul\":1495:1496   */\n      dup1\n        /* \"#utility.yul\":1490:1493   */\n      dup3\n        /* \"#utility.yul\":1486:1497   */\n      add\n        /* \"#utility.yul\":1480:1498   */\n      mload\n        /* \"#utility.yul\":1476:1477   */\n      dup2\n        /* \"#utility.yul\":1471:1474   */\n      dup5\n        /* \"#utility.yul\":1467:1478   */\n      add\n        /* \"#utility.yul\":1460:1499   */\n      mstore\n        /* \"#utility.yul\":1432:1434   */\n      0x20\n        /* \"#utility.yul\":1429:1430   */\n      dup2\n        /* \"#utility.yul\":1425:1435   */\n      add\n        /* \"#utility.yul\":1420:1435   */\n      swap1\n      pop\n        /* \"#utility.yul\":1396:1509   */\n      jump(tag_134)\n    tag_136:\n        /* \"#utility.yul\":1543:1544   */\n      0x00\n        /* \"#utility.yul\":1534:1540   */\n      dup5\n        /* \"#utility.yul\":1529:1532   */\n      dup5\n        /* \"#utility.yul\":1525:1541   */\n      add\n        /* \"#utility.yul\":1518:1545   */\n      mstore\n        /* \"#utility.yul\":1367:1551   */\n      pop\n        /* \"#utility.yul\":1305:1551   */\n      pop\n      pop\n      pop\n      jump\t// out\n        /* \"#utility.yul\":1557:1659   */\n    tag_87:\n        /* \"#utility.yul\":1598:1604   */\n      0x00\n        /* \"#utility.yul\":1649:1651   */\n      0x1f\n        /* \"#utility.yul\":1645:1652   */\n      not\n        /* \"#utility.yul\":1640:1642   */\n      0x1f\n        /* \"#utility.yul\":1633:1638   */\n      dup4\n        /* \"#utility.yul\":1629:1643   */\n      add\n        /* \"#utility.yul\":1625:1653   */\n      and\n        /* \"#utility.yul\":1615:1653   */\n      swap1\n      pop\n        /* \"#utility.yul\":1557:1659   */\n      swap2\n      swap1\n      pop\n      jump\t// out\n        /* \"#utility.yul\":1665:2042   */\n    tag_88:\n        /* \"#utility.yul\":1753:1756   */\n      0x00\n        /* \"#utility.yul\":1781:1820   */\n      tag_139\n        /* \"#utility.yul\":1814:1819   */\n      dup3\n        /* \"#utility.yul\":1781:1820   */\n      tag_84\n      jump\t// in\n    tag_139:\n        /* \"#utility.yul\":1836:1907   */\n      tag_140\n        /* \"#utility.yul\":1900:1906   */\n      dup2\n        /* \"#utility.yul\":1895:1898   */\n      dup6\n        /* \"#utility.yul\":1836:1907   */\n      tag_85\n      jump\t// in\n    tag_140:\n        /* \"#utility.yul\":1829:1907   */\n      swap4\n      pop\n        /* \"#utility.yul\":1916:1981   */\n      tag_141\n        /* \"#utility.yul\":1974:1980   */\n      dup2\n        /* \"#utility.yul\":1969:1972   */\n      dup6\n        /* \"#utility.yul\":1962:1966   */\n      0x20\n        /* \"#utility.yul\":1955:1960   */\n      dup7\n        /* \"#utility.yul\":1951:1967   */\n      add\n        /* \"#utility.yul\":1916:1981   */\n      tag_86\n      jump\t// in\n    tag_141:\n        /* \"#utility.yul\":2006:2035   */\n      tag_142\n        /* \"#utility.yul\":2028:2034   */\n      dup2\n        /* \"#utility.yul\":2006:2035   */\n      tag_87\n      jump\t// in\n    tag_142:\n        /* \"#utility.yul\":2001:2004   */\n      dup5\n        /* \"#utility.yul\":1997:2036   */\n      add\n        /* \"#utility.yul\":1990:2036   */\n      swap2\n      pop\n        /* \"#utility.yul\":1757:2042   */\n      pop\n        /* \"#utility.yul\":1665:2042   */\n      swap3\n      swap2\n      pop\n      pop\n      jump\t// out\n        /* \"#utility.yul\":2048:2166   */\n    tag_89:\n        /* \"#utility.yul\":2135:2159   */\n      tag_144\n        /* \"#utility.yul\":2153:2158   */\n      dup2\n        /* \"#utility.yul\":2135:2159   */\n      tag_81\n      jump\t// in\n    tag_144:\n        /* \"#utility.yul\":2130:2133   */\n      dup3\n        /* \"#utility.yul\":2123:2160   */\n      mstore\n        /* \"#utility.yul\":2048:2166   */\n      pop\n      pop\n      jump\t// out\n        /* \"#utility.yul\":2172:2595   */\n    tag_16:\n        /* \"#utility.yul\":2313:2317   */\n      0x00\n        /* \"#utility.yul\":2351:2353   */\n      0x40\n        /* \"#utility.yul\":2340:2349   */\n      dup3\n        /* \"#utility.yul\":2336:2354   */\n      add\n        /* \"#utility.yul\":2328:2354   */\n      swap1\n      pop\n        /* \"#utility.yul\":2400:2409   */\n      dup2\n        /* \"#utility.yul\":2394:2398   */\n      dup2\n        /* \"#utility.yul\":2390:2410   */\n      sub\n        /* \"#utility.yul\":2386:2387   */\n      0x00\n        /* \"#utility.yul\":2375:2384   */\n      dup4\n        /* \"#utility.yul\":2371:2388   */\n      add\n        /* \"#utility.yul\":2364:2411   */\n      mstore\n        /* \"#utility.yul\":2428:2506   */\n      tag_146\n        /* \"#utility.yul\":2501:2505   */\n      dup2\n        /* \"#utility.yul\":2492:2498   */\n      dup6\n        /* \"#utility.yul\":2428:2506   */\n      tag_88\n      jump\t// in\n    tag_146:\n        /* \"#utility.yul\":2420:2506   */\n      swap1\n      pop\n        /* \"#utility.yul\":2516:2588   */\n      tag_147\n        /* \"#utility.yul\":2584:2586   */\n      0x20\n        /* \"#utility.yul\":2573:2582   */\n      dup4\n        /* \"#utility.yul\":2569:2587   */\n      add\n        /* \"#utility.yul\":2560:2566   */\n      dup5\n        /* \"#utility.yul\":2516:2588   */\n      tag_89\n      jump\t// in\n    tag_147:\n        /* \"#utility.yul\":2172:2595   */\n      swap4\n      swap3\n      pop\n      pop\n      pop\n      jump\t// out\n        /* \"#utility.yul\":2601:2823   */\n    tag_20:\n        /* \"#utility.yul\":2694:2698   */\n      0x00\n        /* \"#utility.yul\":2732:2734   */\n      0x20\n        /* \"#utility.yul\":2721:2730   */\n      dup3\n        /* \"#utility.yul\":2717:2735   */\n      add\n        /* \"#utility.yul\":2709:2735   */\n      swap1\n      pop\n        /* \"#utility.yul\":2745:2816   */\n      tag_149\n        /* \"#utility.yul\":2813:2814   */\n      0x00\n        /* \"#utility.yul\":2802:2811   */\n      dup4\n        /* \"#utility.yul\":2798:2815   */\n      add\n        /* \"#utility.yul\":2789:2795   */\n      dup5\n        /* \"#utility.yul\":2745:2816   */\n      tag_89\n      jump\t// in\n    tag_149:\n        /* \"#utility.yul\":2601:2823   */\n      swap3\n      swap2\n      pop\n      pop\n      jump\t// out\n        /* \"#utility.yul\":2829:2946   */\n    tag_90:\n        /* \"#utility.yul\":2938:2939   */\n      0x00\n        /* \"#utility.yul\":2935:2936   */\n      dup1\n        /* \"#utility.yul\":2928:2940   */\n      revert\n        /* \"#utility.yul\":2952:3069   */\n    tag_91:\n        /* \"#utility.yul\":3061:3062   */\n      0x00\n        /* \"#utility.yul\":3058:3059   */\n      dup1\n        /* \"#utility.yul\":3051:3063   */\n      revert\n        /* \"#utility.yul\":3075:3255   */\n    tag_92:\n        /* \"#utility.yul\":3123:3200   */\n      0x4e487b7100000000000000000000000000000000000000000000000000000000\n        /* \"#utility.yul\":3120:3121   */\n      0x00\n        /* \"#utility.yul\":3113:3201   */\n      mstore\n        /* \"#utility.yul\":3220:3224   */\n      0x41\n        /* \"#utility.yul\":3217:3218   */\n      0x04\n        /* \"#utility.yul\":3210:3225   */\n      mstore\n        /* \"#utility.yul\":3244:3248   */\n      0x24\n        /* \"#utility.yul\":3241:3242   */\n      0x00\n        /* \"#utility.yul\":3234:3249   */\n      revert\n        /* \"#utility.yul\":3261:3542   */\n    tag_93:\n        /* \"#utility.yul\":3344:3371   */\n      tag_154\n        /* \"#utility.yul\":3366:3370   */\n      dup3\n        /* \"#utility.yul\":3344:3371   */\n      tag_87\n      jump\t// in\n    tag_154:\n        /* \"#utility.yul\":3336:3342   */\n      dup2\n        /* \"#utility.yul\":3332:3372   */\n      add\n        /* \"#utility.yul\":3474:3480   */\n      dup2\n        /* \"#utility.yul\":3462:3472   */\n      dup2\n        /* \"#utility.yul\":3459:3481   */\n      lt\n        /* \"#utility.yul\":3438:3456   */\n      0xffffffffffffffff\n        /* \"#utility.yul\":3426:3436   */\n      dup3\n        /* \"#utility.yul\":3423:3457   */\n      gt\n        /* \"#utility.yul\":3420:3482   */\n      or\n        /* \"#utility.yul\":3417:3505   */\n      iszero\n      tag_155\n      jumpi\n        /* \"#utility.yul\":3485:3503   */\n      tag_156\n      tag_92\n      jump\t// in\n    tag_156:\n        /* \"#utility.yul\":3417:3505   */\n    tag_155:\n        /* \"#utility.yul\":3525:3535   */\n      dup1\n        /* \"#utility.yul\":3521:3523   */\n      0x40\n        /* \"#utility.yul\":3514:3536   */\n      mstore\n        /* \"#utility.yul\":3304:3542   */\n      pop\n        /* \"#utility.yul\":3261:3542   */\n      pop\n      pop\n      jump\t// out\n        /* \"#utility.yul\":3548:3677   */\n    tag_94:\n        /* \"#utility.yul\":3582:3588   */\n      0x00\n        /* \"#utility.yul\":3609:3629   */\n      tag_158\n      tag_78\n      jump\t// in\n    tag_158:\n        /* \"#utility.yul\":3599:3629   */\n      swap1\n      pop\n        /* \"#utility.yul\":3638:3671   */\n      tag_159\n        /* \"#utility.yul\":3666:3670   */\n      dup3\n        /* \"#utility.yul\":3658:3664   */\n      dup3\n        /* \"#utility.yul\":3638:3671   */\n      tag_93\n      jump\t// in\n    tag_159:\n        /* \"#utility.yul\":3548:3677   */\n      swap2\n      swap1\n      pop\n      jump\t// out\n        /* \"#utility.yul\":3683:3991   */\n    tag_95:\n        /* \"#utility.yul\":3745:3749   */\n      0x00\n        /* \"#utility.yul\":3835:3853   */\n      0xffffffffffffffff\n        /* \"#utility.yul\":3827:3833   */\n      dup3\n        /* \"#utility.yul\":3824:3854   */\n      gt\n        /* \"#utility.yul\":3821:3877   */\n      iszero\n      tag_161\n      jumpi\n        /* \"#utility.yul\":3857:3875   */\n      tag_162\n      tag_92\n      jump\t// in\n    tag_162:\n        /* \"#utility.yul\":3821:3877   */\n    tag_161:\n        /* \"#utility.yul\":3895:3924   */\n      tag_163\n        /* \"#utility.yul\":3917:3923   */\n      dup3\n        /* \"#utility.yul\":3895:3924   */\n      tag_87\n      jump\t// in\n    tag_163:\n        /* \"#utility.yul\":3887:3924   */\n      swap1\n      pop\n        /* \"#utility.yul\":3979:3983   */\n      0x20\n        /* \"#utility.yul\":3973:3977   */\n      dup2\n        /* \"#utility.yul\":3969:3984   */\n      add\n        /* \"#utility.yul\":3961:3984   */\n      swap1\n      pop\n        /* \"#utility.yul\":3683:3991   */\n      swap2\n      swap1\n      pop\n      jump\t// out\n        /* \"#utility.yul\":3997:4143   */\n    tag_96:\n        /* \"#utility.yul\":4094:4100   */\n      dup3\n        /* \"#utility.yul\":4089:4092   */\n      dup2\n        /* \"#utility.yul\":4084:4087   */\n      dup4\n        /* \"#utility.yul\":4071:4101   */\n      calldatacopy\n        /* \"#utility.yul\":4135:4136   */\n      0x00\n        /* \"#utility.yul\":4126:4132   */\n      dup4\n        /* \"#utility.yul\":4121:4124   */\n      dup4\n        /* \"#utility.yul\":4117:4133   */\n      add\n        /* \"#utility.yul\":4110:4137   */\n      mstore\n        /* \"#utility.yul\":3997:4143   */\n      pop\n      pop\n      pop\n      jump\t// out\n        /* \"#utility.yul\":4149:4574   */\n    tag_97:\n        /* \"#utility.yul\":4227:4232   */\n      0x00\n        /* \"#utility.yul\":4252:4318   */\n      tag_166\n        /* \"#utility.yul\":4268:4317   */\n      tag_167\n        /* \"#utility.yul\":4310:4316   */\n      dup5\n        /* \"#utility.yul\":4268:4317   */\n      tag_95\n      jump\t// in\n    tag_167:\n        /* \"#utility.yul\":4252:4318   */\n      tag_94\n      jump\t// in\n    tag_166:\n        /* \"#utility.yul\":4243:4318   */\n      swap1\n      pop\n        /* \"#utility.yul\":4341:4347   */\n      dup3\n        /* \"#utility.yul\":4334:4339   */\n      dup2\n        /* \"#utility.yul\":4327:4348   */\n      mstore\n        /* \"#utility.yul\":4379:4383   */\n      0x20\n        /* \"#utility.yul\":4372:4377   */\n      dup2\n        /* \"#utility.yul\":4368:4384   */\n      add\n        /* \"#utility.yul\":4417:4420   */\n      dup5\n        /* \"#utility.yul\":4408:4414   */\n      dup5\n        /* \"#utility.yul\":4403:4406   */\n      dup5\n        /* \"#utility.yul\":4399:4415   */\n      add\n        /* \"#utility.yul\":4396:4421   */\n      gt\n        /* \"#utility.yul\":4393:4505   */\n      iszero\n      tag_168\n      jumpi\n        /* \"#utility.yul\":4424:4503   */\n      tag_169\n      tag_91\n      jump\t// in\n    tag_169:\n        /* \"#utility.yul\":4393:4505   */\n    tag_168:\n        /* \"#utility.yul\":4514:4568   */\n      tag_170\n        /* \"#utility.yul\":4561:4567   */\n      dup5\n        /* \"#utility.yul\":4556:4559   */\n      dup3\n        /* \"#utility.yul\":4551:4554   */\n      dup6\n        /* \"#utility.yul\":4514:4568   */\n      tag_96\n      jump\t// in\n    tag_170:\n        /* \"#utility.yul\":4233:4574   */\n      pop\n        /* \"#utility.yul\":4149:4574   */\n      swap4\n      swap3\n      pop\n      pop\n      pop\n      jump\t// out\n        /* \"#utility.yul\":4594:4934   */\n    tag_98:\n        /* \"#utility.yul\":4650:4655   */\n      0x00\n        /* \"#utility.yul\":4699:4702   */\n      dup3\n        /* \"#utility.yul\":4692:4696   */\n      0x1f\n        /* \"#utility.yul\":4684:4690   */\n      dup4\n        /* \"#utility.yul\":4680:4697   */\n      add\n        /* \"#utility.yul\":4676:4703   */\n      slt\n        /* \"#utility.yul\":4666:4788   */\n      tag_172\n      jumpi\n        /* \"#utility.yul\":4707:4786   */\n      tag_173\n      tag_90\n      jump\t// in\n    tag_173:\n        /* \"#utility.yul\":4666:4788   */\n    tag_172:\n        /* \"#utility.yul\":4824:4830   */\n      dup2\n        /* \"#utility.yul\":4811:4831   */\n      calldataload\n        /* \"#utility.yul\":4849:4928   */\n      tag_174\n        /* \"#utility.yul\":4924:4927   */\n      dup5\n        /* \"#utility.yul\":4916:4922   */\n      dup3\n        /* \"#utility.yul\":4909:4913   */\n      0x20\n        /* \"#utility.yul\":4901:4907   */\n      dup7\n        /* \"#utility.yul\":4897:4914   */\n      add\n        /* \"#utility.yul\":4849:4928   */\n      tag_97\n      jump\t// in\n    tag_174:\n        /* \"#utility.yul\":4840:4928   */\n      swap2\n      pop\n        /* \"#utility.yul\":4656:4934   */\n      pop\n        /* \"#utility.yul\":4594:4934   */\n      swap3\n      swap2\n      pop\n      pop\n      jump\t// out\n        /* \"#utility.yul\":4940:5594   */\n    tag_26:\n        /* \"#utility.yul\":5018:5024   */\n      0x00\n        /* \"#utility.yul\":5026:5032   */\n      dup1\n        /* \"#utility.yul\":5075:5077   */\n      0x40\n        /* \"#utility.yul\":5063:5072   */\n      dup4\n        /* \"#utility.yul\":5054:5061   */\n      dup6\n        /* \"#utility.yul\":5050:5073   */\n      sub\n        /* \"#utility.yul\":5046:5078   */\n      slt\n        /* \"#utility.yul\":5043:5162   */\n      iszero\n      tag_176\n      jumpi\n        /* \"#utility.yul\":5081:5160   */\n      tag_177\n      tag_79\n      jump\t// in\n    tag_177:\n        /* \"#utility.yul\":5043:5162   */\n    tag_176:\n        /* \"#utility.yul\":5229:5230   */\n      0x00\n        /* \"#utility.yul\":5218:5227   */\n      dup4\n        /* \"#utility.yul\":5214:5231   */\n      add\n        /* \"#utility.yul\":5201:5232   */\n      calldataload\n        /* \"#utility.yul\":5259:5277   */\n      0xffffffffffffffff\n        /* \"#utility.yul\":5251:5257   */\n      dup2\n        /* \"#utility.yul\":5248:5278   */\n      gt\n        /* \"#utility.yul\":5245:5362   */\n      iszero\n      tag_178\n      jumpi\n        /* \"#utility.yul\":5281:5360   */\n      tag_179\n      tag_80\n      jump\t// in\n    tag_179:\n        /* \"#utility.yul\":5245:5362   */\n    tag_178:\n        /* \"#utility.yul\":5386:5449   */\n      tag_180\n        /* \"#utility.yul\":5441:5448   */\n      dup6\n        /* \"#utility.yul\":5432:5438   */\n      dup3\n        /* \"#utility.yul\":5421:5430   */\n      dup7\n        /* \"#utility.yul\":5417:5439   */\n      add\n        /* \"#utility.yul\":5386:5449   */\n      tag_98\n      jump\t// in\n    tag_180:\n        /* \"#utility.yul\":5376:5449   */\n      swap3\n      pop\n        /* \"#utility.yul\":5172:5459   */\n      pop\n        /* \"#utility.yul\":5498:5500   */\n      0x20\n        /* \"#utility.yul\":5524:5577   */\n      tag_181\n        /* \"#utility.yul\":5569:5576   */\n      dup6\n        /* \"#utility.yul\":5560:5566   */\n      dup3\n        /* \"#utility.yul\":5549:5558   */\n      dup7\n        /* \"#utility.yul\":5545:5567   */\n      add\n        /* \"#utility.yul\":5524:5577   */\n      tag_83\n      jump\t// in\n    tag_181:\n        /* \"#utility.yul\":5514:5577   */\n      swap2\n      pop\n        /* \"#utility.yul\":5469:5587   */\n      pop\n        /* \"#utility.yul\":4940:5594   */\n      swap3\n      pop\n      swap3\n      swap1\n      pop\n      jump\t// out\n        /* \"#utility.yul\":5600:6109   */\n    tag_30:\n        /* \"#utility.yul\":5669:5675   */\n      0x00\n        /* \"#utility.yul\":5718:5720   */\n      0x20\n        /* \"#utility.yul\":5706:5715   */\n      dup3\n        /* \"#utility.yul\":5697:5704   */\n      dup5\n        /* \"#utility.yul\":5693:5716   */\n      sub\n        /* \"#utility.yul\":5689:5721   */\n      slt\n        /* \"#utility.yul\":5686:5805   */\n      iszero\n      tag_183\n      jumpi\n        /* \"#utility.yul\":5724:5803   */\n      tag_184\n      tag_79\n      jump\t// in\n    tag_184:\n        /* \"#utility.yul\":5686:5805   */\n    tag_183:\n        /* \"#utility.yul\":5872:5873   */\n      0x00\n        /* \"#utility.yul\":5861:5870   */\n      dup3\n        /* \"#utility.yul\":5857:5874   */\n      add\n        /* \"#utility.yul\":5844:5875   */\n      calldataload\n        /* \"#utility.yul\":5902:5920   */\n      0xffffffffffffffff\n        /* \"#utility.yul\":5894:5900   */\n      dup2\n        /* \"#utility.yul\":5891:5921   */\n      gt\n        /* \"#utility.yul\":5888:6005   */\n      iszero\n      tag_185\n      jumpi\n        /* \"#utility.yul\":5924:6003   */\n      tag_186\n      tag_80\n      jump\t// in\n    tag_186:\n        /* \"#utility.yul\":5888:6005   */\n    tag_185:\n        /* \"#utility.yul\":6029:6092   */\n      tag_187\n        /* \"#utility.yul\":6084:6091   */\n      dup5\n        /* \"#utility.yul\":6075:6081   */\n      dup3\n        /* \"#utility.yul\":6064:6073   */\n      dup6\n        /* \"#utility.yul\":6060:6082   */\n      add\n        /* \"#utility.yul\":6029:6092   */\n      tag_98\n      jump\t// in\n    tag_187:\n        /* \"#utility.yul\":6019:6092   */\n      swap2\n      pop\n        /* \"#utility.yul\":5815:6102   */\n      pop\n        /* \"#utility.yul\":5600:6109   */\n      swap3\n      swap2\n      pop\n      pop\n      jump\t// out\n        /* \"#utility.yul\":6115:6538   */\n    tag_37:\n        /* \"#utility.yul\":6256:6260   */\n      0x00\n        /* \"#utility.yul\":6294:6296   */\n      0x40\n        /* \"#utility.yul\":6283:6292   */\n      dup3\n        /* \"#utility.yul\":6279:6297   */\n      add\n        /* \"#utility.yul\":6271:6297   */\n      swap1\n      pop\n        /* \"#utility.yul\":6307:6378   */\n      tag_189\n        /* \"#utility.yul\":6375:6376   */\n      0x00\n        /* \"#utility.yul\":6364:6373   */\n      dup4\n        /* \"#utility.yul\":6360:6377   */\n      add\n        /* \"#utility.yul\":6351:6357   */\n      dup6\n        /* \"#utility.yul\":6307:6378   */\n      tag_89\n      jump\t// in\n    tag_189:\n        /* \"#utility.yul\":6425:6434   */\n      dup2\n        /* \"#utility.yul\":6419:6423   */\n      dup2\n        /* \"#utility.yul\":6415:6435   */\n      sub\n        /* \"#utility.yul\":6410:6412   */\n      0x20\n        /* \"#utility.yul\":6399:6408   */\n      dup4\n        /* \"#utility.yul\":6395:6413   */\n      add\n        /* \"#utility.yul\":6388:6436   */\n      mstore\n        /* \"#utility.yul\":6453:6531   */\n      tag_190\n        /* \"#utility.yul\":6526:6530   */\n      dup2\n        /* \"#utility.yul\":6517:6523   */\n      dup5\n        /* \"#utility.yul\":6453:6531   */\n      tag_88\n      jump\t// in\n    tag_190:\n        /* \"#utility.yul\":6445:6531   */\n      swap1\n      pop\n        /* \"#utility.yul\":6115:6538   */\n      swap4\n      swap3\n      pop\n      pop\n      pop\n      jump\t// out\n        /* \"#utility.yul\":6544:6857   */\n    tag_42:\n        /* \"#utility.yul\":6657:6661   */\n      0x00\n        /* \"#utility.yul\":6695:6697   */\n      0x20\n        /* \"#utility.yul\":6684:6693   */\n      dup3\n        /* \"#utility.yul\":6680:6698   */\n      add\n        /* \"#utility.yul\":6672:6698   */\n      swap1\n      pop\n        /* \"#utility.yul\":6744:6753   */\n      dup2\n        /* \"#utility.yul\":6738:6742   */\n      dup2\n        /* \"#utility.yul\":6734:6754   */\n      sub\n        /* \"#utility.yul\":6730:6731   */\n      0x00\n        /* \"#utility.yul\":6719:6728   */\n      dup4\n        /* \"#utility.yul\":6715:6732   */\n      add\n        /* \"#utility.yul\":6708:6755   */\n      mstore\n        /* \"#utility.yul\":6772:6850   */\n      tag_192\n        /* \"#utility.yul\":6845:6849   */\n      dup2\n        /* \"#utility.yul\":6836:6842   */\n      dup5\n        /* \"#utility.yul\":6772:6850   */\n      tag_88\n      jump\t// in\n    tag_192:\n        /* \"#utility.yul\":6764:6850   */\n      swap1\n      pop\n        /* \"#utility.yul\":6544:6857   */\n      swap3\n      swap2\n      pop\n      pop\n      jump\t// out\n        /* \"#utility.yul\":6863:7043   */\n    tag_46:\n        /* \"#utility.yul\":6911:6988   */\n      0x4e487b7100000000000000000000000000000000000000000000000000000000\n        /* \"#utility.yul\":6908:6909   */\n      0x00\n        /* \"#utility.yul\":6901:6989   */\n      mstore\n        /* \"#utility.yul\":7008:7012   */\n      0x32\n        /* \"#utility.yul\":7005:7006   */\n      0x04\n        /* \"#utility.yul\":6998:7013   */\n      mstore\n        /* \"#utility.yul\":7032:7036   */\n      0x24\n        /* \"#utility.yul\":7029:7030   */\n      0x00\n        /* \"#utility.yul\":7022:7037   */\n      revert\n        /* \"#utility.yul\":7049:7229   */\n    tag_99:\n        /* \"#utility.yul\":7097:7174   */\n      0x4e487b7100000000000000000000000000000000000000000000000000000000\n        /* \"#utility.yul\":7094:7095   */\n      0x00\n        /* \"#utility.yul\":7087:7175   */\n      mstore\n        /* \"#utility.yul\":7194:7198   */\n      0x22\n        /* \"#utility.yul\":7191:7192   */\n      0x04\n        /* \"#utility.yul\":7184:7199   */\n      mstore\n        /* \"#utility.yul\":7218:7222   */\n      0x24\n        /* \"#utility.yul\":7215:7216   */\n      0x00\n        /* \"#utility.yul\":7208:7223   */\n      revert\n        /* \"#utility.yul\":7235:7555   */\n    tag_49:\n        /* \"#utility.yul\":7279:7285   */\n      0x00\n        /* \"#utility.yul\":7316:7317   */\n      0x02\n        /* \"#utility.yul\":7310:7314   */\n      dup3\n        /* \"#utility.yul\":7306:7318   */\n      div\n        /* \"#utility.yul\":7296:7318   */\n      swap1\n      pop\n        /* \"#utility.yul\":7363:7364   */\n      0x01\n        /* \"#utility.yul\":7357:7361   */\n      dup3\n        /* \"#utility.yul\":7353:7365   */\n      and\n        /* \"#utility.yul\":7384:7402   */\n      dup1\n        /* \"#utility.yul\":7374:7455   */\n      tag_196\n      jumpi\n        /* \"#utility.yul\":7440:7444   */\n      0x7f\n        /* \"#utility.yul\":7432:7438   */\n      dup3\n        /* \"#utility.yul\":7428:7445   */\n      and\n        /* \"#utility.yul\":7418:7445   */\n      swap2\n      pop\n        /* \"#utility.yul\":7374:7455   */\n    tag_196:\n        /* \"#utility.yul\":7502:7504   */\n      0x20\n        /* \"#utility.yul\":7494:7500   */\n      dup3\n        /* \"#utility.yul\":7491:7505   */\n      lt\n        /* \"#utility.yul\":7471:7489   */\n      dup2\n        /* \"#utility.yul\":7468:7506   */\n      sub\n        /* \"#utility.yul\":7465:7549   */\n      tag_197\n      jumpi\n        /* \"#utility.yul\":7521:7539   */\n      tag_198\n      tag_99\n      jump\t// in\n    tag_198:\n        /* \"#utility.yul\":7465:7549   */\n    tag_197:\n        /* \"#utility.yul\":7286:7555   */\n      pop\n        /* \"#utility.yul\":7235:7555   */\n      swap2\n      swap1\n      pop\n      jump\t// out\n        /* \"#utility.yul\":7561:7702   */\n    tag_100:\n        /* \"#utility.yul\":7610:7614   */\n      0x00\n        /* \"#utility.yul\":7633:7636   */\n      dup2\n        /* \"#utility.yul\":7625:7636   */\n      swap1\n      pop\n        /* \"#utility.yul\":7656:7659   */\n      dup2\n        /* \"#utility.yul\":7653:7654   */\n      0x00\n        /* \"#utility.yul\":7646:7660   */\n      mstore\n        /* \"#utility.yul\":7690:7694   */\n      0x20\n        /* \"#utility.yul\":7687:7688   */\n      0x00\n        /* \"#utility.yul\":7677:7695   */\n      keccak256\n        /* \"#utility.yul\":7669:7695   */\n      swap1\n      pop\n        /* \"#utility.yul\":7561:7702   */\n      swap2\n      swap1\n      pop\n      jump\t// out\n        /* \"#utility.yul\":7708:7801   */\n    tag_101:\n        /* \"#utility.yul\":7745:7751   */\n      0x00\n        /* \"#utility.yul\":7792:7794   */\n      0x20\n        /* \"#utility.yul\":7787:7789   */\n      0x1f\n        /* \"#utility.yul\":7780:7785   */\n      dup4\n        /* \"#utility.yul\":7776:7790   */\n      add\n        /* \"#utility.yul\":7772:7795   */\n      div\n        /* \"#utility.yul\":7762:7795   */\n      swap1\n      pop\n        /* \"#utility.yul\":7708:7801   */\n      swap2\n      swap1\n      pop\n      jump\t// out\n        /* \"#utility.yul\":7807:7914   */\n    tag_102:\n        /* \"#utility.yul\":7851:7859   */\n      0x00\n        /* \"#utility.yul\":7901:7906   */\n      dup3\n        /* \"#utility.yul\":7895:7899   */\n      dup3\n        /* \"#utility.yul\":7891:7907   */\n      shl\n        /* \"#utility.yul\":7870:7907   */\n      swap1\n      pop\n        /* \"#utility.yul\":7807:7914   */\n      swap3\n      swap2\n      pop\n      pop\n      jump\t// out\n        /* \"#utility.yul\":7920:8313   */\n    tag_103:\n        /* \"#utility.yul\":7989:7995   */\n      0x00\n        /* \"#utility.yul\":8039:8040   */\n      0x08\n        /* \"#utility.yul\":8027:8037   */\n      dup4\n        /* \"#utility.yul\":8023:8041   */\n      mul\n        /* \"#utility.yul\":8062:8159   */\n      tag_203\n        /* \"#utility.yul\":8092:8158   */\n      0xffffffffffffffffffffffffffffffffffffffffffffffffffffffffffffffff\n        /* \"#utility.yul\":8081:8090   */\n      dup3\n        /* \"#utility.yul\":8062:8159   */\n      tag_102\n      jump\t// in\n    tag_203:\n        /* \"#utility.yul\":8180:8219   */\n      tag_204\n        /* \"#utility.yul\":8210:8218   */\n      dup7\n        /* \"#utility.yul\":8199:8208   */\n      dup4\n        /* \"#utility.yul\":8180:8219   */\n      tag_102\n      jump\t// in\n    tag_204:\n        /* \"#utility.yul\":8168:8219   */\n      swap6\n      pop\n        /* \"#utility.yul\":8252:8256   */\n      dup1\n        /* \"#utility.yul\":8248:8257   */\n      not\n        /* \"#utility.yul\":8241:8246   */\n      dup5\n        /* \"#utility.yul\":8237:8258   */\n      and\n        /* \"#utility.yul\":8228:8258   */\n      swap4\n      pop\n        /* \"#utility.yul\":8301:8305   */\n      dup1\n        /* \"#utility.yul\":8291:8299   */\n      dup7\n        /* \"#utility.yul\":8287:8306   */\n      and\n        /* \"#utility.yul\":8280:8285   */\n      dup5\n        /* \"#utility.yul\":8277:8307   */\n      or\n        /* \"#utility.yul\":8267:8307   */\n      swap3\n      pop\n        /* \"#utility.yul\":7996:8313   */\n      pop\n      pop\n        /* \"#utility.yul\":7920:8313   */\n      swap4\n      swap3\n      pop\n      pop\n      pop\n      jump\t// out\n        /* \"#utility.yul\":8319:8379   */\n    tag_104:\n        /* \"#utility.yul\":8347:8350   */\n      0x00\n        /* \"#utility.yul\":8368:8373   */\n      dup2\n        /* \"#utility.yul\":8361:8373   */\n      swap1\n      pop\n        /* \"#utility.yul\":8319:8379   */\n      swap2\n      swap1\n      pop\n      jump\t// out\n        /* \"#utility.yul\":8385:8527   */\n    tag_105:\n        /* \"#utility.yul\":8435:8444   */\n      0x00\n        /* \"#utility.yul\":8468:8521   */\n      tag_207\n        /* \"#utility.yul\":8486:8520   */\n      tag_208\n        /* \"#utility.yul\":8495:8519   */\n      tag_209\n        /* \"#utility.yul\":8513:8518   */\n      dup5\n        /* \"#utility.yul\":8495:8519   */\n      tag_81\n      jump\t// in\n    tag_209:\n        /* \"#utility.yul\":8486:8520   */\n      tag_104\n      jump\t// in\n    tag_208:\n        /* \"#utility.yul\":8468:8521   */\n      tag_81\n      jump\t// in\n    tag_207:\n        /* \"#utility.yul\":8455:8521   */\n      swap1\n      pop\n        /* \"#utility.yul\":8385:8527   */\n      swap2\n      swap1\n      pop\n      jump\t// out\n        /* \"#utility.yul\":8533:8608   */\n    tag_106:\n        /* \"#utility.yul\":8576:8579   */\n      0x00\n        /* \"#utility.yul\":8597:8602   */\n      dup2\n        /* \"#utility.yul\":8590:8602   */\n      swap1\n      pop\n        /* \"#utility.yul\":8533:8608   */\n      swap2\n      swap1\n      pop\n      jump\t// out\n        /* \"#utility.yul\":8614:8883   */\n    tag_107:\n        /* \"#utility.yul\":8724:8763   */\n      tag_212\n        /* \"#utility.yul\":8755:8762   */\n      dup4\n        /* \"#utility.yul\":8724:8763   */\n      tag_105\n      jump\t// in\n    tag_212:\n        /* \"#utility.yul\":8785:8876   */\n      tag_213\n        /* \"#utility.yul\":8834:8875   */\n      tag_214\n        /* \"#utility.yul\":8858:8874   */\n      dup3\n        /* \"#utility.yul\":8834:8875   */\n      tag_106\n      jump\t// in\n    tag_214:\n        /* \"#utility.yul\":8826:8832   */\n      dup5\n        /* \"#utility.yul\":8819:8823   */\n      dup5\n        /* \"#utility.yul\":8813:8824   */\n      sload\n        /* \"#utility.yul\":8785:8876   */\n      tag_103\n      jump\t// in\n    tag_213:\n        /* \"#utility.yul\":8779:8783   */\n      dup3\n        /* \"#utility.yul\":8772:8877   */\n      sstore\n        /* \"#utility.yul\":8690:8883   */\n      pop\n        /* \"#utility.yul\":8614:8883   */\n      pop\n      pop\n      pop\n      jump\t// out\n        /* \"#utility.yul\":8889:8962   */\n    tag_108:\n        /* \"#utility.yul\":8934:8937   */\n      0x00\n        /* \"#utility.yul\":8889:8962   */\n      swap1\n      jump\t// out\n        /* \"#utility.yul\":8968:9157   */\n    tag_109:\n        /* \"#utility.yul\":9045:9077   */\n      tag_217\n      tag_108\n      jump\t// in\n    tag_217:\n        /* \"#utility.yul\":9086:9151   */\n      tag_218\n        /* \"#utility.yul\":9144:9150   */\n      dup2\n        /* \"#utility.yul\":9136:9142   */\n      dup5\n        /* \"#utility.yul\":9130:9134   */\n      dup5\n        /* \"#utility.yul\":9086:9151   */\n      tag_107\n      jump\t// in\n    tag_218:\n        /* \"#utility.yul\":9021:9157   */\n      pop\n        /* \"#utility.yul\":8968:9157   */\n      pop\n      pop\n      jump\t// out\n        /* \"#utility.yul\":9163:9349   */\n    tag_110:\n        /* \"#utility.yul\":9223:9343   */\n    tag_220:\n        /* \"#utility.yul\":9240:9243   */\n      dup2\n        /* \"#utility.yul\":9233:9238   */\n      dup2\n        /* \"#utility.yul\":9230:9244   */\n      lt\n        /* \"#utility.yul\":9223:9343   */\n      iszero\n      tag_222\n      jumpi\n        /* \"#utility.yul\":9294:9333   */\n      tag_223\n        /* \"#utility.yul\":9331:9332   */\n      0x00\n        /* \"#utility.yul\":9324:9329   */\n      dup3\n        /* \"#utility.yul\":9294:9333   */\n      tag_109\n      jump\t// in\n    tag_223:\n        /* \"#utility.yul\":9267:9268   */\n      0x01\n        /* \"#utility.yul\":9260:9265   */\n      dup2\n        /* \"#utility.yul\":9256:9269   */\n      add\n        /* \"#utility.yul\":9247:9269   */\n      swap1\n      pop\n        /* \"#utility.yul\":9223:9343   */\n      jump(tag_220)\n    tag_222:\n        /* \"#utility.yul\":9163:9349   */\n      pop\n      pop\n      jump\t// out\n        /* \"#utility.yul\":9355:9898   */\n    tag_111:\n        /* \"#utility.yul\":9456:9458   */\n      0x1f\n        /* \"#utility.yul\":9451:9454   */\n      dup3\n        /* \"#utility.yul\":9448:9459   */\n      gt\n        /* \"#utility.yul\":9445:9891   */\n      iszero\n      tag_225\n      jumpi\n        /* \"#utility.yul\":9490:9528   */\n      tag_226\n        /* \"#utility.yul\":9522:9527   */\n      dup2\n        /* \"#utility.yul\":9490:9528   */\n      tag_100\n      jump\t// in\n    tag_226:\n        /* \"#utility.yul\":9574:9603   */\n      tag_227\n        /* \"#utility.yul\":9592:9602   */\n      dup5\n        /* \"#utility.yul\":9574:9603   */\n      tag_101\n      jump\t// in\n    tag_227:\n        /* \"#utility.yul\":9564:9572   */\n      dup2\n        /* \"#utility.yul\":9560:9604   */\n      add\n        /* \"#utility.yul\":9757:9759   */\n      0x20\n        /* \"#utility.yul\":9745:9755   */\n      dup6\n        /* \"#utility.yul\":9742:9760   */\n      lt\n        /* \"#utility.yul\":9739:9788   */\n      iszero\n      tag_228\n      jumpi\n        /* \"#utility.yul\":9778:9786   */\n      dup2\n        /* \"#utility.yul\":9763:9786   */\n      swap1\n      pop\n        /* \"#utility.yul\":9739:9788   */\n    tag_228:\n        /* \"#utility.yul\":9801:9881   */\n      tag_229\n        /* \"#utility.yul\":9857:9879   */\n      tag_230\n        /* \"#utility.yul\":9875:9878   */\n      dup6\n        /* \"#utility.yul\":9857:9879   */\n      tag_101\n      jump\t// in\n    tag_230:\n        /* \"#utility.yul\":9847:9855   */\n      dup4\n        /* \"#utility.yul\":9843:9880   */\n      add\n        /* \"#utility.yul\":9830:9841   */\n      dup3\n        /* \"#utility.yul\":9801:9881   */\n      tag_110\n      jump\t// in\n    tag_229:\n        /* \"#utility.yul\":9460:9891   */\n      pop\n      pop\n        /* \"#utility.yul\":9445:9891   */\n    tag_225:\n        /* \"#utility.yul\":9355:9898   */\n      pop\n      pop\n      pop\n      jump\t// out\n        /* \"#utility.yul\":9904:10021   */\n    tag_112:\n        /* \"#utility.yul\":9958:9966   */\n      0x00\n        /* \"#utility.yul\":10008:10013   */\n      dup3\n        /* \"#utility.yul\":10002:10006   */\n      dup3\n        /* \"#utility.yul\":9998:10014   */\n      shr\n        /* \"#utility.yul\":9977:10014   */\n      swap1\n      pop\n        /* \"#utility.yul\":9904:10021   */\n      swap3\n      swap2\n      pop\n      pop\n      jump\t// out\n        /* \"#utility.yul\":10027:10196   */\n    tag_113:\n        /* \"#utility.yul\":10071:10077   */\n      0x00\n        /* \"#utility.yul\":10104:10155   */\n      tag_233\n        /* \"#utility.yul\":10152:10153   */\n      0x00\n        /* \"#utility.yul\":10148:10154   */\n      not\n        /* \"#utility.yul\":10140:10145   */\n      dup5\n        /* \"#utility.yul\":10137:10138   */\n      0x08\n        /* \"#utility.yul\":10133:10146   */\n      mul\n        /* \"#utility.yul\":10104:10155   */\n      tag_112\n      jump\t// in\n    tag_233:\n        /* \"#utility.yul\":10100:10156   */\n      not\n        /* \"#utility.yul\":10185:10189   */\n      dup1\n        /* \"#utility.yul\":10179:10183   */\n      dup4\n        /* \"#utility.yul\":10175:10190   */\n      and\n        /* \"#utility.yul\":10165:10190   */\n      swap2\n      pop\n        /* \"#utility.yul\":10078:10196   */\n      pop\n        /* \"#utility.yul\":10027:10196   */\n      swap3\n      swap2\n      pop\n      pop\n      jump\t// out\n        /* \"#utility.yul\":10201:10496   */\n    tag_114:\n        /* \"#utility.yul\":10277:10281   */\n      0x00\n        /* \"#utility.yul\":10423:10452   */\n      tag_235\n        /* \"#utility.yul\":10448:10451   */\n      dup4\n        /* \"#utility.yul\":10442:10446   */\n      dup4\n        /* \"#utility.yul\":10423:10452   */\n      tag_113\n      jump\t// in\n    tag_235:\n        /* \"#utility.yul\":10415:10452   */\n      swap2\n      pop\n        /* \"#utility.yul\":10485:10488   */\n      dup3\n        /* \"#utility.yul\":10482:10483   */\n      0x02\n        /* \"#utility.yul\":10478:10489   */\n      mul\n        /* \"#utility.yul\":10472:10476   */\n      dup3\n        /* \"#utility.yul\":10469:10490   */\n      or\n        /* \"#utility.yul\":10461:10490   */\n      swap1\n      pop\n        /* \"#utility.yul\":10201:10496   */\n      swap3\n      swap2\n      pop\n      pop\n      jump\t// out\n        /* \"#utility.yul\":10501:11896   */\n    tag_62:\n        /* \"#utility.yul\":10618:10655   */\n      tag_237\n        /* \"#utility.yul\":10651:10654   */\n      dup3\n        /* \"#utility.yul\":10618:10655   */\n      tag_84\n      jump\t// in\n    tag_237:\n        /* \"#utility.yul\":10720:10738   */\n      0xffffffffffffffff\n        /* \"#utility.yul\":10712:10718   */\n      dup2\n        /* \"#utility.yul\":10709:10739   */\n      gt\n        /* \"#utility.yul\":10706:10762   */\n      iszero\n      tag_238\n      jumpi\n        /* \"#utility.yul\":10742:10760   */\n      tag_239\n      tag_92\n      jump\t// in\n    tag_239:\n        /* \"#utility.yul\":10706:10762   */\n    tag_238:\n        /* \"#utility.yul\":10786:10824   */\n      tag_240\n        /* \"#utility.yul\":10818:10822   */\n      dup3\n        /* \"#utility.yul\":10812:10823   */\n      sload\n        /* \"#utility.yul\":10786:10824   */\n      tag_49\n      jump\t// in\n    tag_240:\n        /* \"#utility.yul\":10871:10938   */\n      tag_241\n        /* \"#utility.yul\":10931:10937   */\n      dup3\n        /* \"#utility.yul\":10923:10929   */\n      dup3\n        /* \"#utility.yul\":10917:10921   */\n      dup6\n        /* \"#utility.yul\":10871:10938   */\n      tag_111\n      jump\t// in\n    tag_241:\n        /* \"#utility.yul\":10965:10966   */\n      0x00\n        /* \"#utility.yul\":10989:10993   */\n      0x20\n        /* \"#utility.yul\":10976:10993   */\n      swap1\n      pop\n        /* \"#utility.yul\":11021:11023   */\n      0x1f\n        /* \"#utility.yul\":11013:11019   */\n      dup4\n        /* \"#utility.yul\":11010:11024   */\n      gt\n        /* \"#utility.yul\":11038:11039   */\n      0x01\n        /* \"#utility.yul\":11033:11651   */\n      dup2\n      eq\n      tag_243\n      jumpi\n        /* \"#utility.yul\":11695:11696   */\n      0x00\n        /* \"#utility.yul\":11712:11718   */\n      dup5\n        /* \"#utility.yul\":11709:11786   */\n      iszero\n      tag_244\n      jumpi\n        /* \"#utility.yul\":11761:11770   */\n      dup3\n        /* \"#utility.yul\":11756:11759   */\n      dup8\n        /* \"#utility.yul\":11752:11771   */\n      add\n        /* \"#utility.yul\":11746:11772   */\n      mload\n        /* \"#utility.yul\":11737:11772   */\n      swap1\n      pop\n        /* \"#utility.yul\":11709:11786   */\n    tag_244:\n        /* \"#utility.yul\":11812:11879   */\n      tag_245\n        /* \"#utility.yul\":11872:11878   */\n      dup6\n        /* \"#utility.yul\":11865:11870   */\n      dup3\n        /* \"#utility.yul\":11812:11879   */\n      tag_114\n      jump\t// in\n    tag_245:\n        /* \"#utility.yul\":11806:11810   */\n      dup7\n        /* \"#utility.yul\":11799:11880   */\n      sstore\n        /* \"#utility.yul\":11668:11890   */\n      pop\n        /* \"#utility.yul\":11003:11890   */\n      jump(tag_242)\n        /* \"#utility.yul\":11033:11651   */\n    tag_243:\n        /* \"#utility.yul\":11085:11089   */\n      0x1f\n        /* \"#utility.yul\":11081:11090   */\n      not\n        /* \"#utility.yul\":11073:11079   */\n      dup5\n        /* \"#utility.yul\":11069:11091   */\n      and\n        /* \"#utility.yul\":11119:11156   */\n      tag_246\n        /* \"#utility.yul\":11151:11155   */\n      dup7\n        /* \"#utility.yul\":11119:11156   */\n      tag_100\n      jump\t// in\n    tag_246:\n        /* \"#utility.yul\":11178:11179   */\n      0x00\n        /* \"#utility.yul\":11192:11400   */\n    tag_247:\n        /* \"#utility.yul\":11206:11213   */\n      dup3\n        /* \"#utility.yul\":11203:11204   */\n      dup2\n        /* \"#utility.yul\":11200:11214   */\n      lt\n        /* \"#utility.yul\":11192:11400   */\n      iszero\n      tag_249\n      jumpi\n        /* \"#utility.yul\":11285:11294   */\n      dup5\n        /* \"#utility.yul\":11280:11283   */\n      dup10\n        /* \"#utility.yul\":11276:11295   */\n      add\n        /* \"#utility.yul\":11270:11296   */\n      mload\n        /* \"#utility.yul\":11262:11268   */\n      dup3\n        /* \"#utility.yul\":11255:11297   */\n      sstore\n        /* \"#utility.yul\":11336:11337   */\n      0x01\n        /* \"#utility.yul\":11328:11334   */\n      dup3\n        /* \"#utility.yul\":11324:11338   */\n      add\n        /* \"#utility.yul\":11314:11338   */\n      swap2\n      pop\n        /* \"#utility.yul\":11383:11385   */\n      0x20\n        /* \"#utility.yul\":11372:11381   */\n      dup6\n        /* \"#utility.yul\":11368:11386   */\n      add\n        /* \"#utility.yul\":11355:11386   */\n      swap5\n      pop\n        /* \"#utility.yul\":11229:11233   */\n      0x20\n        /* \"#utility.yul\":11226:11227   */\n      dup2\n        /* \"#utility.yul\":11222:11234   */\n      add\n        /* \"#utility.yul\":11217:11234   */\n      swap1\n      pop\n        /* \"#utility.yul\":11192:11400   */\n      jump(tag_247)\n    tag_249:\n        /* \"#utility.yul\":11428:11434   */\n      dup7\n        /* \"#utility.yul\":11419:11426   */\n      dup4\n        /* \"#utility.yul\":11416:11435   */\n      lt\n        /* \"#utility.yul\":11413:11592   */\n      iszero\n      tag_250\n      jumpi\n        /* \"#utility.yul\":11486:11495   */\n      dup5\n        /* \"#utility.yul\":11481:11484   */\n      dup10\n        /* \"#utility.yul\":11477:11496   */\n      add\n        /* \"#utility.yul\":11471:11497   */\n      mload\n        /* \"#utility.yul\":11529:11577   */\n      tag_251\n        /* \"#utility.yul\":11571:11575   */\n      0x1f\n        /* \"#utility.yul\":11563:11569   */\n      dup10\n        /* \"#utility.yul\":11559:11576   */\n      and\n        /* \"#utility.yul\":11548:11557   */\n      dup3\n        /* \"#utility.yul\":11529:11577   */\n      tag_113\n      jump\t// in\n    tag_251:\n        /* \"#utility.yul\":11521:11527   */\n      dup4\n        /* \"#utility.yul\":11514:11578   */\n      sstore\n        /* \"#utility.yul\":11436:11592   */\n      pop\n        /* \"#utility.yul\":11413:11592   */\n    tag_250:\n        /* \"#utility.yul\":11638:11639   */\n      0x01\n        /* \"#utility.yul\":11634:11635   */\n      0x02\n        /* \"#utility.yul\":11626:11632   */\n      dup9\n        /* \"#utility.yul\":11622:11636   */\n      mul\n        /* \"#utility.yul\":11618:11640   */\n      add\n        /* \"#utility.yul\":11612:11616   */\n      dup9\n        /* \"#utility.yul\":11605:11641   */\n      sstore\n        /* \"#utility.yul\":11040:11651   */\n      pop\n      pop\n      pop\n        /* \"#utility.yul\":11003:11890   */\n    tag_242:\n      pop\n        /* \"#utility.yul\":10593:11896   */\n      pop\n      pop\n      pop\n        /* \"#utility.yul\":10501:11896   */\n      pop\n      pop\n      jump\t// out\n        /* \"#utility.yul\":11902:12050   */\n    tag_115:\n        /* \"#utility.yul\":12004:12015   */\n      0x00\n        /* \"#utility.yul\":12041:12044   */\n      dup2\n        /* \"#utility.yul\":12026:12044   */\n      swap1\n      pop\n        /* \"#utility.yul\":11902:12050   */\n      swap3\n      swap2\n      pop\n      pop\n      jump\t// out\n        /* \"#utility.yul\":12056:12446   */\n    tag_116:\n        /* \"#utility.yul\":12162:12165   */\n      0x00\n        /* \"#utility.yul\":12190:12229   */\n      tag_254\n        /* \"#utility.yul\":12223:12228   */\n      dup3\n        /* \"#utility.yul\":12190:12229   */\n      tag_84\n      jump\t// in\n    tag_254:\n        /* \"#utility.yul\":12245:12334   */\n      tag_255\n        /* \"#utility.yul\":12327:12333   */\n      dup2\n        /* \"#utility.yul\":12322:12325   */\n      dup6\n        /* \"#utility.yul\":12245:12334   */\n      tag_115\n      jump\t// in\n    tag_255:\n        /* \"#utility.yul\":12238:12334   */\n      swap4\n      pop\n        /* \"#utility.yul\":12343:12408   */\n      tag_256\n        /* \"#utility.yul\":12401:12407   */\n      dup2\n        /* \"#utility.yul\":12396:12399   */\n      dup6\n        /* \"#utility.yul\":12389:12393   */\n      0x20\n        /* \"#utility.yul\":12382:12387   */\n      dup7\n        /* \"#utility.yul\":12378:12394   */\n      add\n        /* \"#utility.yul\":12343:12408   */\n      tag_86\n      jump\t// in\n    tag_256:\n        /* \"#utility.yul\":12433:12439   */\n      dup1\n        /* \"#utility.yul\":12428:12431   */\n      dup5\n        /* \"#utility.yul\":12424:12440   */\n      add\n        /* \"#utility.yul\":12417:12440   */\n      swap2\n      pop\n        /* \"#utility.yul\":12166:12446   */\n      pop\n        /* \"#utility.yul\":12056:12446   */\n      swap3\n      swap2\n      pop\n      pop\n      jump\t// out\n        /* \"#utility.yul\":12452:12727   */\n    tag_64:\n        /* \"#utility.yul\":12584:12587   */\n      0x00\n        /* \"#utility.yul\":12606:12701   */\n      tag_258\n        /* \"#utility.yul\":12697:12700   */\n      dup3\n        /* \"#utility.yul\":12688:12694   */\n      dup5\n        /* \"#utility.yul\":12606:12701   */\n      tag_116\n      jump\t// in\n    tag_258:\n        /* \"#utility.yul\":12599:12701   */\n      swap2\n      pop\n        /* \"#utility.yul\":12718:12721   */\n      dup2\n        /* \"#utility.yul\":12711:12721   */\n      swap1\n      pop\n        /* \"#utility.yul\":12452:12727   */\n      swap3\n      swap2\n      pop\n      pop\n      jump\t// out\n\n    auxdata: 0xa2646970667358221220cf96484985392b260002210394f75d6bbf51febaf731a63f14356020a95692a564736f6c63430008120033\n}\n",
				"bytecode": {
					"linkReferences": {},
					"object": "608060405234801561001057600080fd5b50610bf0806100206000396000f3fe608060405234801561001057600080fd5b506004361061007d5760003560e01c80636f760f411161005b5780636f760f41146100ed5780638bab8dd5146101095780639e7a13ad14610139578063a27186301461016a5761007d565b806310b4801a146100825780632e64cec1146100b35780636057361d146100d1575b600080fd5b61009c60048036038101906100979190610517565b61019a565b6040516100aa9291906105e3565b60405180910390f35b6100bb610286565b6040516100c89190610613565b60405180910390f35b6100eb60048036038101906100e69190610517565b61028f565b005b61010760048036038101906101029190610763565b610299565b005b610123600480360381019061011e91906107bf565b610343565b6040516101309190610613565b60405180910390f35b610153600480360381019061014e9190610517565b610371565b604051610161929190610808565b60405180910390f35b610184600480360381019061017f9190610517565b61042d565b6040516101919190610838565b60405180910390f35b6060600080600184815481106101b3576101b261085a565b5b906000526020600020906002020160010180546101cf906108b8565b80601f01602080910402602001604051908101604052809291908181526020018280546101fb906108b8565b80156102485780601f1061021d57610100808354040283529160200191610248565b820191906000526020600020905b81548152906001019060200180831161022b57829003601f168201915b505050505090506000600185815481106102655761026461085a565b5b90600052602060002090600202016000015490508181935093505050915091565b60008054905090565b8060008190555050565b600160405180604001604052808381526020018481525090806001815401808255809150506001900390600052602060002090600202016000909190919091506000820151816000015560208201518160010190816102f89190610a95565b5050508060028360405161030c9190610ba3565b9081526020016040518091039020819055508160036000838152602001908152602001600020908161033e9190610a95565b505050565b6002818051602081018201805184825260208301602085012081835280955050505050506000915090505481565b6001818154811061038157600080fd5b90600052602060002090600202016000915090508060000154908060010180546103aa906108b8565b80601f01602080910402602001604051908101604052809291908181526020018280546103d6906108b8565b80156104235780601f106103f857610100808354040283529160200191610423565b820191906000526020600020905b81548152906001019060200180831161040657829003601f168201915b5050505050905082565b6003602052806000526040600020600091509050805461044c906108b8565b80601f0160208091040260200160405190810160405280929190818152602001828054610478906108b8565b80156104c55780601f1061049a576101008083540402835291602001916104c5565b820191906000526020600020905b8154815290600101906020018083116104a857829003601f168201915b505050505081565b6000604051905090565b600080fd5b600080fd5b6000819050919050565b6104f4816104e1565b81146104ff57600080fd5b50565b600081359050610511816104eb565b92915050565b60006020828403121561052d5761052c6104d7565b5b600061053b84828501610502565b91505092915050565b600081519050919050565b600082825260208201905092915050565b60005b8381101561057e578082015181840152602081019050610563565b60008484015250505050565b6000601f19601f8301169050919050565b60006105a682610544565b6105b0818561054f565b93506105c0818560208601610560565b6105c98161058a565b840191505092915050565b6105dd816104e1565b82525050565b600060408201905081810360008301526105fd818561059b565b905061060c60208301846105d4565b9392505050565b600060208201905061062860008301846105d4565b92915050565b600080fd5b600080fd5b7f4e487b7100000000000000000000000000000000000000000000000000000000600052604160045260246000fd5b6106708261058a565b810181811067ffffffffffffffff8211171561068f5761068e610638565b5b80604052505050565b60006106a26104cd565b90506106ae8282610667565b919050565b600067ffffffffffffffff8211156106ce576106cd610638565b5b6106d78261058a565b9050602081019050919050565b82818337600083830152505050565b6000610706610701846106b3565b610698565b90508281526020810184848401111561072257610721610633565b5b61072d8482856106e4565b509392505050565b600082601f83011261074a5761074961062e565b5b813561075a8482602086016106f3565b91505092915050565b6000806040838503121561077a576107796104d7565b5b600083013567ffffffffffffffff811115610798576107976104dc565b5b6107a485828601610735565b92505060206107b585828601610502565b9150509250929050565b6000602082840312156107d5576107d46104d7565b5b600082013567ffffffffffffffff8111156107f3576107f26104dc565b5b6107ff84828501610735565b91505092915050565b600060408201905061081d60008301856105d4565b818103602083015261082f818461059b565b90509392505050565b60006020820190508181036000830152610852818461059b565b905092915050565b7f4e487b7100000000000000000000000000000000000000000000000000000000600052603260045260246000fd5b7f4e487b7100000000000000000000000000000000000000000000000000000000600052602260045260246000fd5b600060028204905060018216806108d057607f821691505b6020821081036108e3576108e2610889565b5b50919050565b60008190508160005260206000209050919050565b60006020601f8301049050919050565b600082821b905092915050565b60006008830261094b7fffffffffffffffffffffffffffffffffffffffffffffffffffffffffffffffff8261090e565b610955868361090e565b95508019841693508086168417925050509392505050565b6000819050919050565b600061099261098d610988846104e1565b61096d565b6104e1565b9050919050565b6000819050919050565b6109ac83610977565b6109c06109b882610999565b84845461091b565b825550505050565b600090565b6109d56109c8565b6109e08184846109a3565b505050565b5b81811015610a04576109f96000826109cd565b6001810190506109e6565b5050565b601f821115610a4957610a1a816108e9565b610a23846108fe565b81016020851015610a32578190505b610a46610a3e856108fe565b8301826109e5565b50505b505050565b600082821c905092915050565b6000610a6c60001984600802610a4e565b1980831691505092915050565b6000610a858383610a5b565b9150826002028217905092915050565b610a9e82610544565b67ffffffffffffffff811115610ab757610ab6610638565b5b610ac182546108b8565b610acc828285610a08565b600060209050601f831160018114610aff5760008415610aed578287015190505b610af78582610a79565b865550610b5f565b601f198416610b0d866108e9565b60005b82811015610b3557848901518255600182019150602085019450602081019050610b10565b86831015610b525784890151610b4e601f891682610a5b565b8355505b6001600288020188555050505b505050505050565b600081905092915050565b6000610b7d82610544565b610b878185610b67565b9350610b97818560208601610560565b80840191505092915050565b6000610baf8284610b72565b91508190509291505056fea2646970667358221220cf96484985392b260002210394f75d6bbf51febaf731a63f14356020a95692a564736f6c63430008120033",
					"opcodes": "PUSH1 0x80 PUSH1 0x40 MSTORE CALLVALUE DUP1 ISZERO PUSH2 0x10 JUMPI PUSH1 0x0 DUP1 REVERT JUMPDEST POP PUSH2 0xBF0 DUP1 PUSH2 0x20 PUSH1 0x0 CODECOPY PUSH1 0x0 RETURN INVALID PUSH1 0x80 PUSH1 0x40 MSTORE CALLVALUE DUP1 ISZERO PUSH2 0x10 JUMPI PUSH1 0x0 DUP1 REVERT JUMPDEST POP PUSH1 0x4 CALLDATASIZE LT PUSH2 0x7D JUMPI PUSH1 0x0 CALLDATALOAD PUSH1 0xE0 SHR DUP1 PUSH4 0x6F760F41 GT PUSH2 0x5B JUMPI DUP1 PUSH4 0x6F760F41 EQ PUSH2 0xED JUMPI DUP1 PUSH4 0x8BAB8DD5 EQ PUSH2 0x109 JUMPI DUP1 PUSH4 0x9E7A13AD EQ PUSH2 0x139 JUMPI DUP1 PUSH4 0xA2718630 EQ PUSH2 0x16A JUMPI PUSH2 0x7D JUMP JUMPDEST DUP1 PUSH4 0x10B4801A EQ PUSH2 0x82 JUMPI DUP1 PUSH4 0x2E64CEC1 EQ PUSH2 0xB3 JUMPI DUP1 PUSH4 0x6057361D EQ PUSH2 0xD1 JUMPI JUMPDEST PUSH1 0x0 DUP1 REVERT JUMPDEST PUSH2 0x9C PUSH1 0x4 DUP1 CALLDATASIZE SUB DUP2 ADD SWAP1 PUSH2 0x97 SWAP2 SWAP1 PUSH2 0x517 JUMP JUMPDEST PUSH2 0x19A JUMP JUMPDEST PUSH1 0x40 MLOAD PUSH2 0xAA SWAP3 SWAP2 SWAP1 PUSH2 0x5E3 JUMP JUMPDEST PUSH1 0x40 MLOAD DUP1 SWAP2 SUB SWAP1 RETURN JUMPDEST PUSH2 0xBB PUSH2 0x286 JUMP JUMPDEST PUSH1 0x40 MLOAD PUSH2 0xC8 SWAP2 SWAP1 PUSH2 0x613 JUMP JUMPDEST PUSH1 0x40 MLOAD DUP1 SWAP2 SUB SWAP1 RETURN JUMPDEST PUSH2 0xEB PUSH1 0x4 DUP1 CALLDATASIZE SUB DUP2 ADD SWAP1 PUSH2 0xE6 SWAP2 SWAP1 PUSH2 0x517 JUMP JUMPDEST PUSH2 0x28F JUMP JUMPDEST STOP JUMPDEST PUSH2 0x107 PUSH1 0x4 DUP1 CALLDATASIZE SUB DUP2 ADD SWAP1 PUSH2 0x102 SWAP2 SWAP1 PUSH2 0x763 JUMP JUMPDEST PUSH2 0x299 JUMP JUMPDEST STOP JUMPDEST PUSH2 0x123 PUSH1 0x4 DUP1 CALLDATASIZE SUB DUP2 ADD SWAP1 PUSH2 0x11E SWAP2 SWAP1 PUSH2 0x7BF JUMP JUMPDEST PUSH2 0x343 JUMP JUMPDEST PUSH1 0x40 MLOAD PUSH2 0x130 SWAP2 SWAP1 PUSH2 0x613 JUMP JUMPDEST PUSH1 0x40 MLOAD DUP1 SWAP2 SUB SWAP1 RETURN JUMPDEST PUSH2 0x153 PUSH1 0x4 DUP1 CALLDATASIZE SUB DUP2 ADD SWAP1 PUSH2 0x14E SWAP2 SWAP1 PUSH2 0x517 JUMP JUMPDEST PUSH2 0x371 JUMP JUMPDEST PUSH1 0x40 MLOAD PUSH2 0x161 SWAP3 SWAP2 SWAP1 PUSH2 0x808 JUMP JUMPDEST PUSH1 0x40 MLOAD DUP1 SWAP2 SUB SWAP1 RETURN JUMPDEST PUSH2 0x184 PUSH1 0x4 DUP1 CALLDATASIZE SUB DUP2 ADD SWAP1 PUSH2 0x17F SWAP2 SWAP1 PUSH2 0x517 JUMP JUMPDEST PUSH2 0x42D JUMP JUMPDEST PUSH1 0x40 MLOAD PUSH2 0x191 SWAP2 SWAP1 PUSH2 0x838 JUMP JUMPDEST PUSH1 0x40 MLOAD DUP1 SWAP2 SUB SWAP1 RETURN JUMPDEST PUSH1 0x60 PUSH1 0x0 DUP1 PUSH1 0x1 DUP5 DUP2 SLOAD DUP2 LT PUSH2 0x1B3 JUMPI PUSH2 0x1B2 PUSH2 0x85A JUMP JUMPDEST JUMPDEST SWAP1 PUSH1 0x0 MSTORE PUSH1 0x20 PUSH1 0x0 KECCAK256 SWAP1 PUSH1 0x2 MUL ADD PUSH1 0x1 ADD DUP1 SLOAD PUSH2 0x1CF SWAP1 PUSH2 0x8B8 JUMP JUMPDEST DUP1 PUSH1 0x1F ADD PUSH1 0x20 DUP1 SWAP2 DIV MUL PUSH1 0x20 ADD PUSH1 0x40 MLOAD SWAP1 DUP2 ADD PUSH1 0x40 MSTORE DUP1 SWAP3 SWAP2 SWAP1 DUP2 DUP2 MSTORE PUSH1 0x20 ADD DUP3 DUP1 SLOAD PUSH2 0x1FB SWAP1 PUSH2 0x8B8 JUMP JUMPDEST DUP1 ISZERO PUSH2 0x248 JUMPI DUP1 PUSH1 0x1F LT PUSH2 0x21D JUMPI PUSH2 0x100 DUP1 DUP4 SLOAD DIV MUL DUP4 MSTORE SWAP2 PUSH1 0x20 ADD SWAP2 PUSH2 0x248 JUMP JUMPDEST DUP3 ADD SWAP2 SWAP1 PUSH1 0x0 MSTORE PUSH1 0x20 PUSH1 0x0 KECCAK256 SWAP1 JUMPDEST DUP2 SLOAD DUP2 MSTORE SWAP1 PUSH1 0x1 ADD SWAP1 PUSH1 0x20 ADD DUP1 DUP4 GT PUSH2 0x22B JUMPI DUP3 SWAP1 SUB PUSH1 0x1F AND DUP3 ADD SWAP2 JUMPDEST POP POP POP POP POP SWAP1 POP PUSH1 0x0 PUSH1 0x1 DUP6 DUP2 SLOAD DUP2 LT PUSH2 0x265 JUMPI PUSH2 0x264 PUSH2 0x85A JUMP JUMPDEST JUMPDEST SWAP1 PUSH1 0x0 MSTORE PUSH1 0x20 PUSH1 0x0 KECCAK256 SWAP1 PUSH1 0x2 MUL ADD PUSH1 0x0 ADD SLOAD SWAP1 POP DUP2 DUP2 SWAP4 POP SWAP4 POP POP POP SWAP2 POP SWAP2 JUMP JUMPDEST PUSH1 0x0 DUP1 SLOAD SWAP1 POP SWAP1 JUMP JUMPDEST DUP1 PUSH1 0x0 DUP2 SWAP1 SSTORE POP POP JUMP JUMPDEST PUSH1 0x1 PUSH1 0x40 MLOAD DUP1 PUSH1 0x40 ADD PUSH1 0x40 MSTORE DUP1 DUP4 DUP2 MSTORE PUSH1 0x20 ADD DUP5 DUP2 MSTORE POP SWAP1 DUP1 PUSH1 0x1 DUP2 SLOAD ADD DUP1 DUP3 SSTORE DUP1 SWAP2 POP POP PUSH1 0x1 SWAP1 SUB SWAP1 PUSH1 0x0 MSTORE PUSH1 0x20 PUSH1 0x0 KECCAK256 SWAP1 PUSH1 0x2 MUL ADD PUSH1 0x0 SWAP1 SWAP2 SWAP1 SWAP2 SWAP1 SWAP2 POP PUSH1 0x0 DUP3 ADD MLOAD DUP2 PUSH1 0x0 ADD SSTORE PUSH1 0x20 DUP3 ADD MLOAD DUP2 PUSH1 0x1 ADD SWAP1 DUP2 PUSH2 0x2F8 SWAP2 SWAP1 PUSH2 0xA95 JUMP JUMPDEST POP POP POP DUP1 PUSH1 0x2 DUP4 PUSH1 0x40 MLOAD PUSH2 0x30C SWAP2 SWAP1 PUSH2 0xBA3 JUMP JUMPDEST SWAP1 DUP2 MSTORE PUSH1 0x20 ADD PUSH1 0x40 MLOAD DUP1 SWAP2 SUB SWAP1 KECCAK256 DUP2 SWAP1 SSTORE POP DUP2 PUSH1 0x3 PUSH1 0x0 DUP4 DUP2 MSTORE PUSH1 0x20 ADD SWAP1 DUP2 MSTORE PUSH1 0x20 ADD PUSH1 0x0 KECCAK256 SWAP1 DUP2 PUSH2 0x33E SWAP2 SWAP1 PUSH2 0xA95 JUMP JUMPDEST POP POP POP JUMP JUMPDEST PUSH1 0x2 DUP2 DUP1 MLOAD PUSH1 0x20 DUP2 ADD DUP3 ADD DUP1 MLOAD DUP5 DUP3 MSTORE PUSH1 0x20 DUP4 ADD PUSH1 0x20 DUP6 ADD KECCAK256 DUP2 DUP4 MSTORE DUP1 SWAP6 POP POP POP POP POP POP PUSH1 0x0 SWAP2 POP SWAP1 POP SLOAD DUP2 JUMP JUMPDEST PUSH1 0x1 DUP2 DUP2 SLOAD DUP2 LT PUSH2 0x381 JUMPI PUSH1 0x0 DUP1 REVERT JUMPDEST SWAP1 PUSH1 0x0 MSTORE PUSH1 0x20 PUSH1 0x0 KECCAK256 SWAP1 PUSH1 0x2 MUL ADD PUSH1 0x0 SWAP2 POP SWAP1 POP DUP1 PUSH1 0x0 ADD SLOAD SWAP1 DUP1 PUSH1 0x1 ADD DUP1 SLOAD PUSH2 0x3AA SWAP1 PUSH2 0x8B8 JUMP JUMPDEST DUP1 PUSH1 0x1F ADD PUSH1 0x20 DUP1 SWAP2 DIV MUL PUSH1 0x20 ADD PUSH1 0x40 MLOAD SWAP1 DUP2 ADD PUSH1 0x40 MSTORE DUP1 SWAP3 SWAP2 SWAP1 DUP2 DUP2 MSTORE PUSH1 0x20 ADD DUP3 DUP1 SLOAD PUSH2 0x3D6 SWAP1 PUSH2 0x8B8 JUMP JUMPDEST DUP1 ISZERO PUSH2 0x423 JUMPI DUP1 PUSH1 0x1F LT PUSH2 0x3F8 JUMPI PUSH2 0x100 DUP1 DUP4 SLOAD DIV MUL DUP4 MSTORE SWAP2 PUSH1 0x20 ADD SWAP2 PUSH2 0x423 JUMP JUMPDEST DUP3 ADD SWAP2 SWAP1 PUSH1 0x0 MSTORE PUSH1 0x20 PUSH1 0x0 KECCAK256 SWAP1 JUMPDEST DUP2 SLOAD DUP2 MSTORE SWAP1 PUSH1 0x1 ADD SWAP1 PUSH1 0x20 ADD DUP1 DUP4 GT PUSH2 0x406 JUMPI DUP3 SWAP1 SUB PUSH1 0x1F AND DUP3 ADD SWAP2 JUMPDEST POP POP POP POP POP SWAP1 POP DUP3 JUMP JUMPDEST PUSH1 0x3 PUSH1 0x20 MSTORE DUP1 PUSH1 0x0 MSTORE PUSH1 0x40 PUSH1 0x0 KECCAK256 PUSH1 0x0 SWAP2 POP SWAP1 POP DUP1 SLOAD PUSH2 0x44C SWAP1 PUSH2 0x8B8 JUMP JUMPDEST DUP1 PUSH1 0x1F ADD PUSH1 0x20 DUP1 SWAP2 DIV MUL PUSH1 0x20 ADD PUSH1 0x40 MLOAD SWAP1 DUP2 ADD PUSH1 0x40 MSTORE DUP1 SWAP3 SWAP2 SWAP1 DUP2 DUP2 MSTORE PUSH1 0x20 ADD DUP3 DUP1 SLOAD PUSH2 0x478 SWAP1 PUSH2 0x8B8 JUMP JUMPDEST DUP1 ISZERO PUSH2 0x4C5 JUMPI DUP1 PUSH1 0x1F LT PUSH2 0x49A JUMPI PUSH2 0x100 DUP1 DUP4 SLOAD DIV MUL DUP4 MSTORE SWAP2 PUSH1 0x20 ADD SWAP2 PUSH2 0x4C5 JUMP JUMPDEST DUP3 ADD SWAP2 SWAP1 PUSH1 0x0 MSTORE PUSH1 0x20 PUSH1 0x0 KECCAK256 SWAP1 JUMPDEST DUP2 SLOAD DUP2 MSTORE SWAP1 PUSH1 0x1 ADD SWAP1 PUSH1 0x20 ADD DUP1 DUP4 GT PUSH2 0x4A8 JUMPI DUP3 SWAP1 SUB PUSH1 0x1F AND DUP3 ADD SWAP2 JUMPDEST POP POP POP POP POP DUP2 JUMP JUMPDEST PUSH1 0x0 PUSH1 0x40 MLOAD SWAP1 POP SWAP1 JUMP JUMPDEST PUSH1 0x0 DUP1 REVERT JUMPDEST PUSH1 0x0 DUP1 REVERT JUMPDEST PUSH1 0x0 DUP2 SWAP1 POP SWAP2 SWAP1 POP JUMP JUMPDEST PUSH2 0x4F4 DUP2 PUSH2 0x4E1 JUMP JUMPDEST DUP2 EQ PUSH2 0x4FF JUMPI PUSH1 0x0 DUP1 REVERT JUMPDEST POP JUMP JUMPDEST PUSH1 0x0 DUP2 CALLDATALOAD SWAP1 POP PUSH2 0x511 DUP2 PUSH2 0x4EB JUMP JUMPDEST SWAP3 SWAP2 POP POP JUMP JUMPDEST PUSH1 0x0 PUSH1 0x20 DUP3 DUP5 SUB SLT ISZERO PUSH2 0x52D JUMPI PUSH2 0x52C PUSH2 0x4D7 JUMP JUMPDEST JUMPDEST PUSH1 0x0 PUSH2 0x53B DUP5 DUP3 DUP6 ADD PUSH2 0x502 JUMP JUMPDEST SWAP2 POP POP SWAP3 SWAP2 POP POP JUMP JUMPDEST PUSH1 0x0 DUP2 MLOAD SWAP1 POP SWAP2 SWAP1 POP JUMP JUMPDEST PUSH1 0x0 DUP3 DUP3 MSTORE PUSH1 0x20 DUP3 ADD SWAP1 POP SWAP3 SWAP2 POP POP JUMP JUMPDEST PUSH1 0x0 JUMPDEST DUP4 DUP2 LT ISZERO PUSH2 0x57E JUMPI DUP1 DUP3 ADD MLOAD DUP2 DUP5 ADD MSTORE PUSH1 0x20 DUP2 ADD SWAP1 POP PUSH2 0x563 JUMP JUMPDEST PUSH1 0x0 DUP5 DUP5 ADD MSTORE POP POP POP POP JUMP JUMPDEST PUSH1 0x0 PUSH1 0x1F NOT PUSH1 0x1F DUP4 ADD AND SWAP1 POP SWAP2 SWAP1 POP JUMP JUMPDEST PUSH1 0x0 PUSH2 0x5A6 DUP3 PUSH2 0x544 JUMP JUMPDEST PUSH2 0x5B0 DUP2 DUP6 PUSH2 0x54F JUMP JUMPDEST SWAP4 POP PUSH2 0x5C0 DUP2 DUP6 PUSH1 0x20 DUP7 ADD PUSH2 0x560 JUMP JUMPDEST PUSH2 0x5C9 DUP2 PUSH2 0x58A JUMP JUMPDEST DUP5 ADD SWAP2 POP POP SWAP3 SWAP2 POP POP JUMP JUMPDEST PUSH2 0x5DD DUP2 PUSH2 0x4E1 JUMP JUMPDEST DUP3 MSTORE POP POP JUMP JUMPDEST PUSH1 0x0 PUSH1 0x40 DUP3 ADD SWAP1 POP DUP2 DUP2 SUB PUSH1 0x0 DUP4 ADD MSTORE PUSH2 0x5FD DUP2 DUP6 PUSH2 0x59B JUMP JUMPDEST SWAP1 POP PUSH2 0x60C PUSH1 0x20 DUP4 ADD DUP5 PUSH2 0x5D4 JUMP JUMPDEST SWAP4 SWAP3 POP POP POP JUMP JUMPDEST PUSH1 0x0 PUSH1 0x20 DUP3 ADD SWAP1 POP PUSH2 0x628 PUSH1 0x0 DUP4 ADD DUP5 PUSH2 0x5D4 JUMP JUMPDEST SWAP3 SWAP2 POP POP JUMP JUMPDEST PUSH1 0x0 DUP1 REVERT JUMPDEST PUSH1 0x0 DUP1 REVERT JUMPDEST PUSH32 0x4E487B7100000000000000000000000000000000000000000000000000000000 PUSH1 0x0 MSTORE PUSH1 0x41 PUSH1 0x4 MSTORE PUSH1 0x24 PUSH1 0x0 REVERT JUMPDEST PUSH2 0x670 DUP3 PUSH2 0x58A JUMP JUMPDEST DUP2 ADD DUP2 DUP2 LT PUSH8 0xFFFFFFFFFFFFFFFF DUP3 GT OR ISZERO PUSH2 0x68F JUMPI PUSH2 0x68E PUSH2 0x638 JUMP JUMPDEST JUMPDEST DUP1 PUSH1 0x40 MSTORE POP POP POP JUMP JUMPDEST PUSH1 0x0 PUSH2 0x6A2 PUSH2 0x4CD JUMP JUMPDEST SWAP1 POP PUSH2 0x6AE DUP3 DUP3 PUSH2 0x667 JUMP JUMPDEST SWAP2 SWAP1 POP JUMP JUMPDEST PUSH1 0x0 PUSH8 0xFFFFFFFFFFFFFFFF DUP3 GT ISZERO PUSH2 0x6CE JUMPI PUSH2 0x6CD PUSH2 0x638 JUMP JUMPDEST JUMPDEST PUSH2 0x6D7 DUP3 PUSH2 0x58A JUMP JUMPDEST SWAP1 POP PUSH1 0x20 DUP2 ADD SWAP1 POP SWAP2 SWAP1 POP JUMP JUMPDEST DUP3 DUP2 DUP4 CALLDATACOPY PUSH1 0x0 DUP4 DUP4 ADD MSTORE POP POP POP JUMP JUMPDEST PUSH1 0x0 PUSH2 0x706 PUSH2 0x701 DUP5 PUSH2 0x6B3 JUMP JUMPDEST PUSH2 0x698 JUMP JUMPDEST SWAP1 POP DUP3 DUP2 MSTORE PUSH1 0x20 DUP2 ADD DUP5 DUP5 DUP5 ADD GT ISZERO PUSH2 0x722 JUMPI PUSH2 0x721 PUSH2 0x633 JUMP JUMPDEST JUMPDEST PUSH2 0x72D DUP5 DUP3 DUP6 PUSH2 0x6E4 JUMP JUMPDEST POP SWAP4 SWAP3 POP POP POP JUMP JUMPDEST PUSH1 0x0 DUP3 PUSH1 0x1F DUP4 ADD SLT PUSH2 0x74A JUMPI PUSH2 0x749 PUSH2 0x62E JUMP JUMPDEST JUMPDEST DUP2 CALLDATALOAD PUSH2 0x75A DUP5 DUP3 PUSH1 0x20 DUP7 ADD PUSH2 0x6F3 JUMP JUMPDEST SWAP2 POP POP SWAP3 SWAP2 POP POP JUMP JUMPDEST PUSH1 0x0 DUP1 PUSH1 0x40 DUP4 DUP6 SUB SLT ISZERO PUSH2 0x77A JUMPI PUSH2 0x779 PUSH2 0x4D7 JUMP JUMPDEST JUMPDEST PUSH1 0x0 DUP4 ADD CALLDATALOAD PUSH8 0xFFFFFFFFFFFFFFFF DUP2 GT ISZERO PUSH2 0x798 JUMPI PUSH2 0x797 PUSH2 0x4DC JUMP JUMPDEST JUMPDEST PUSH2 0x7A4 DUP6 DUP3 DUP7 ADD PUSH2 0x735 JUMP JUMPDEST SWAP3 POP POP PUSH1 0x20 PUSH2 0x7B5 DUP6 DUP3 DUP7 ADD PUSH2 0x502 JUMP JUMPDEST SWAP2 POP POP SWAP3 POP SWAP3 SWAP1 POP JUMP JUMPDEST PUSH1 0x0 PUSH1 0x20 DUP3 DUP5 SUB SLT ISZERO PUSH2 0x7D5 JUMPI PUSH2 0x7D4 PUSH2 0x4D7 JUMP JUMPDEST JUMPDEST PUSH1 0x0 DUP3 ADD CALLDATALOAD PUSH8 0xFFFFFFFFFFFFFFFF DUP2 GT ISZERO PUSH2 0x7F3 JUMPI PUSH2 0x7F2 PUSH2 0x4DC JUMP JUMPDEST JUMPDEST PUSH2 0x7FF DUP5 DUP3 DUP6 ADD PUSH2 0x735 JUMP JUMPDEST SWAP2 POP POP SWAP3 SWAP2 POP POP JUMP JUMPDEST PUSH1 0x0 PUSH1 0x40 DUP3 ADD SWAP1 POP PUSH2 0x81D PUSH1 0x0 DUP4 ADD DUP6 PUSH2 0x5D4 JUMP JUMPDEST DUP2 DUP2 SUB PUSH1 0x20 DUP4 ADD MSTORE PUSH2 0x82F DUP2 DUP5 PUSH2 0x59B JUMP JUMPDEST SWAP1 POP SWAP4 SWAP3 POP POP POP JUMP JUMPDEST PUSH1 0x0 PUSH1 0x20 DUP3 ADD SWAP1 POP DUP2 DUP2 SUB PUSH1 0x0 DUP4 ADD MSTORE PUSH2 0x852 DUP2 DUP5 PUSH2 0x59B JUMP JUMPDEST SWAP1 POP SWAP3 SWAP2 POP POP JUMP JUMPDEST PUSH32 0x4E487B7100000000000000000000000000000000000000000000000000000000 PUSH1 0x0 MSTORE PUSH1 0x32 PUSH1 0x4 MSTORE PUSH1 0x24 PUSH1 0x0 REVERT JUMPDEST PUSH32 0x4E487B7100000000000000000000000000000000000000000000000000000000 PUSH1 0x0 MSTORE PUSH1 0x22 PUSH1 0x4 MSTORE PUSH1 0x24 PUSH1 0x0 REVERT JUMPDEST PUSH1 0x0 PUSH1 0x2 DUP3 DIV SWAP1 POP PUSH1 0x1 DUP3 AND DUP1 PUSH2 0x8D0 JUMPI PUSH1 0x7F DUP3 AND SWAP2 POP JUMPDEST PUSH1 0x20 DUP3 LT DUP2 SUB PUSH2 0x8E3 JUMPI PUSH2 0x8E2 PUSH2 0x889 JUMP JUMPDEST JUMPDEST POP SWAP2 SWAP1 POP JUMP JUMPDEST PUSH1 0x0 DUP2 SWAP1 POP DUP2 PUSH1 0x0 MSTORE PUSH1 0x20 PUSH1 0x0 KECCAK256 SWAP1 POP SWAP2 SWAP1 POP JUMP JUMPDEST PUSH1 0x0 PUSH1 0x20 PUSH1 0x1F DUP4 ADD DIV SWAP1 POP SWAP2 SWAP1 POP JUMP JUMPDEST PUSH1 0x0 DUP3 DUP3 SHL SWAP1 POP SWAP3 SWAP2 POP POP JUMP JUMPDEST PUSH1 0x0 PUSH1 0x8 DUP4 MUL PUSH2 0x94B PUSH32 0xFFFFFFFFFFFFFFFFFFFFFFFFFFFFFFFFFFFFFFFFFFFFFFFFFFFFFFFFFFFFFFFF DUP3 PUSH2 0x90E JUMP JUMPDEST PUSH2 0x955 DUP7 DUP4 PUSH2 0x90E JUMP JUMPDEST SWAP6 POP DUP1 NOT DUP5 AND SWAP4 POP DUP1 DUP7 AND DUP5 OR SWAP3 POP POP POP SWAP4 SWAP3 POP POP POP JUMP JUMPDEST PUSH1 0x0 DUP2 SWAP1 POP SWAP2 SWAP1 POP JUMP JUMPDEST PUSH1 0x0 PUSH2 0x992 PUSH2 0x98D PUSH2 0x988 DUP5 PUSH2 0x4E1 JUMP JUMPDEST PUSH2 0x96D JUMP JUMPDEST PUSH2 0x4E1 JUMP JUMPDEST SWAP1 POP SWAP2 SWAP1 POP JUMP JUMPDEST PUSH1 0x0 DUP2 SWAP1 POP SWAP2 SWAP1 POP JUMP JUMPDEST PUSH2 0x9AC DUP4 PUSH2 0x977 JUMP JUMPDEST PUSH2 0x9C0 PUSH2 0x9B8 DUP3 PUSH2 0x999 JUMP JUMPDEST DUP5 DUP5 SLOAD PUSH2 0x91B JUMP JUMPDEST DUP3 SSTORE POP POP POP POP JUMP JUMPDEST PUSH1 0x0 SWAP1 JUMP JUMPDEST PUSH2 0x9D5 PUSH2 0x9C8 JUMP JUMPDEST PUSH2 0x9E0 DUP2 DUP5 DUP5 PUSH2 0x9A3 JUMP JUMPDEST POP POP POP JUMP JUMPDEST JUMPDEST DUP2 DUP2 LT ISZERO PUSH2 0xA04 JUMPI PUSH2 0x9F9 PUSH1 0x0 DUP3 PUSH2 0x9CD JUMP JUMPDEST PUSH1 0x1 DUP2 ADD SWAP1 POP PUSH2 0x9E6 JUMP JUMPDEST POP POP JUMP JUMPDEST PUSH1 0x1F DUP3 GT ISZERO PUSH2 0xA49 JUMPI PUSH2 0xA1A DUP2 PUSH2 0x8E9 JUMP JUMPDEST PUSH2 0xA23 DUP5 PUSH2 0x8FE JUMP JUMPDEST DUP2 ADD PUSH1 0x20 DUP6 LT ISZERO PUSH2 0xA32 JUMPI DUP2 SWAP1 POP JUMPDEST PUSH2 0xA46 PUSH2 0xA3E DUP6 PUSH2 0x8FE JUMP JUMPDEST DUP4 ADD DUP3 PUSH2 0x9E5 JUMP JUMPDEST POP POP JUMPDEST POP POP POP JUMP JUMPDEST PUSH1 0x0 DUP3 DUP3 SHR SWAP1 POP SWAP3 SWAP2 POP POP JUMP JUMPDEST PUSH1 0x0 PUSH2 0xA6C PUSH1 0x0 NOT DUP5 PUSH1 0x8 MUL PUSH2 0xA4E JUMP JUMPDEST NOT DUP1 DUP4 AND SWAP2 POP POP SWAP3 SWAP2 POP POP JUMP JUMPDEST PUSH1 0x0 PUSH2 0xA85 DUP4 DUP4 PUSH2 0xA5B JUMP JUMPDEST SWAP2 POP DUP3 PUSH1 0x2 MUL DUP3 OR SWAP1 POP SWAP3 SWAP2 POP POP JUMP JUMPDEST PUSH2 0xA9E DUP3 PUSH2 0x544 JUMP JUMPDEST PUSH8 0xFFFFFFFFFFFFFFFF DUP2 GT ISZERO PUSH2 0xAB7 JUMPI PUSH2 0xAB6 PUSH2 0x638 JUMP JUMPDEST JUMPDEST PUSH2 0xAC1 DUP3 SLOAD PUSH2 0x8B8 JUMP JUMPDEST PUSH2 0xACC DUP3 DUP3 DUP6 PUSH2 0xA08 JUMP JUMPDEST PUSH1 0x0 PUSH1 0x20 SWAP1 POP PUSH1 0x1F DUP4 GT PUSH1 0x1 DUP2 EQ PUSH2 0xAFF JUMPI PUSH1 0x0 DUP5 ISZERO PUSH2 0xAED JUMPI DUP3 DUP8 ADD MLOAD SWAP1 POP JUMPDEST PUSH2 0xAF7 DUP6 DUP3 PUSH2 0xA79 JUMP JUMPDEST DUP7 SSTORE POP PUSH2 0xB5F JUMP JUMPDEST PUSH1 0x1F NOT DUP5 AND PUSH2 0xB0D DUP7 PUSH2 0x8E9 JUMP JUMPDEST PUSH1 0x0 JUMPDEST DUP3 DUP2 LT ISZERO PUSH2 0xB35 JUMPI DUP5 DUP10 ADD MLOAD DUP3 SSTORE PUSH1 0x1 DUP3 ADD SWAP2 POP PUSH1 0x20 DUP6 ADD SWAP5 POP PUSH1 0x20 DUP2 ADD SWAP1 POP PUSH2 0xB10 JUMP JUMPDEST DUP7 DUP4 LT ISZERO PUSH2 0xB52 JUMPI DUP5 DUP10 ADD MLOAD PUSH2 0xB4E PUSH1 0x1F DUP10 AND DUP3 PUSH2 0xA5B JUMP JUMPDEST DUP4 SSTORE POP JUMPDEST PUSH1 0x1 PUSH1 0x2 DUP9 MUL ADD DUP9 SSTORE POP POP POP JUMPDEST POP POP POP POP POP POP JUMP JUMPDEST PUSH1 0x0 DUP2 SWAP1 POP SWAP3 SWAP2 POP POP JUMP JUMPDEST PUSH1 0x0 PUSH2 0xB7D DUP3 PUSH2 0x544 JUMP JUMPDEST PUSH2 0xB87 DUP2 DUP6 PUSH2 0xB67 JUMP JUMPDEST SWAP4 POP PUSH2 0xB97 DUP2 DUP6 PUSH1 0x20 DUP7 ADD PUSH2 0x560 JUMP JUMPDEST DUP1 DUP5 ADD SWAP2 POP POP SWAP3 SWAP2 POP POP JUMP JUMPDEST PUSH1 0x0 PUSH2 0xBAF DUP3 DUP5 PUSH2 0xB72 JUMP JUMPDEST SWAP2 POP DUP2 SWAP1 POP SWAP3 SWAP2 POP POP JUMP INVALID LOG2 PUSH5 0x6970667358 0x22 SLT KECCAK256 0xCF SWAP7 BASEFEE 0x49 DUP6 CODECOPY 0x2B 0x26 STOP MUL 0x21 SUB SWAP5 0xF7 0x5D PUSH12 0xBF51FEBAF731A63F14356020 0xA9 JUMP SWAP3 0xA5 PUSH5 0x736F6C6343 STOP ADDMOD SLT STOP CALLER "
				},
				"gasEstimates": {
					"creation": {
						"codeDepositCost": "611200",
						"executionCost": "645",
						"totalCost": "611845"
					},
					"external": {
						"addPerson(string,uint256)": "infinite",
						"favNumToName(uint256)": "infinite",
						"getPeople(uint256)": "infinite",
						"nameToFavoriteNumber(string)": "infinite",
						"people(uint256)": "infinite",
						"retrieve()": "2460",
						"store(uint256)": "22565"
					}
				},
				"methodIdentifiers": {
					"addPerson(string,uint256)": "6f760f41",
					"favNumToName(uint256)": "a2718630",
					"getPeople(uint256)": "10b4801a",
					"nameToFavoriteNumber(string)": "8bab8dd5",
					"people(uint256)": "9e7a13ad",
					"retrieve()": "2e64cec1",
					"store(uint256)": "6057361d"
				}
			},
			"storageLayout": {
				"storage": [
					{
						"astId": 3,
						"contract": "learn_contracts/1/SimpleStorage.sol:SimpleStorage",
						"label": "favoriteNumber",
						"offset": 0,
						"slot": "0",
						"type": "t_uint256"
					},
					{
						"astId": 30,
						"contract": "learn_contracts/1/SimpleStorage.sol:SimpleStorage",
						"label": "people",
						"offset": 0,
						"slot": "1",
						"type": "t_array(t_struct(People)26_storage)dyn_storage"
					},
					{
						"astId": 34,
						"contract": "learn_contracts/1/SimpleStorage.sol:SimpleStorage",
						"label": "nameToFavoriteNumber",
						"offset": 0,
						"slot": "2",
						"type": "t_mapping(t_string_memory_ptr,t_uint256)"
					},
					{
						"astId": 38,
						"contract": "learn_contracts/1/SimpleStorage.sol:SimpleStorage",
						"label": "favNumToName",
						"offset": 0,
						"slot": "3",
						"type": "t_mapping(t_uint256,t_string_storage)"
					}
				],
				"types": {
					"t_array(t_struct(People)26_storage)dyn_storage": {
						"base": "t_struct(People)26_storage",
						"encoding": "dynamic_array",
						"label": "struct SimpleStorage.People[]",
						"numberOfBytes": "32"
					},
					"t_mapping(t_string_memory_ptr,t_uint256)": {
						"encoding": "mapping",
						"key": "t_string_memory_ptr",
						"label": "mapping(string => uint256)",
						"numberOfBytes": "32",
						"value": "t_uint256"
					},
					"t_mapping(t_uint256,t_string_storage)": {
						"encoding": "mapping",
						"key": "t_uint256",
						"label": "mapping(uint256 => string)",
						"numberOfBytes": "32",
						"value": "t_string_storage"
					},
					"t_string_memory_ptr": {
						"encoding": "bytes",
						"label": "string",
						"numberOfBytes": "32"
					},
					"t_string_storage": {
						"encoding": "bytes",
						"label": "string",
						"numberOfBytes": "32"
					},
					"t_struct(People)26_storage": {
						"encoding": "inplace",
						"label": "struct SimpleStorage.People",
						"members": [
							{
								"astId": 23,
								"contract": "learn_contracts/1/SimpleStorage.sol:SimpleStorage",
								"label": "favoriteNumber",
								"offset": 0,
								"slot": "0",
								"type": "t_uint256"
							},
							{
								"astId": 25,
								"contract": "learn_contracts/1/SimpleStorage.sol:SimpleStorage",
								"label": "name",
								"offset": 0,
								"slot": "1",
								"type": "t_string_storage"
							}
						],
						"numberOfBytes": "64"
					},
					"t_uint256": {
						"encoding": "inplace",
						"label": "uint256",
						"numberOfBytes": "32"
					}
				}
			},
			"userdoc": {
				"kind": "user",
				"methods": {},
				"version": 1
			}
		}
	}
}